{"abi":[{"inputs":[],"stateMutability":"nonpayable","type":"constructor"},{"inputs":[{"internalType":"uint256","name":"choices","type":"uint256"},{"internalType":"uint256","name":"fromDate","type":"uint256"},{"internalType":"uint256","name":"endDate","type":"uint256"}],"name":"createVoting","outputs":[],"stateMutability":"payable","type":"function"},{"inputs":[],"name":"creator","outputs":[{"internalType":"address","name":"","type":"address"}],"stateMutability":"view","type":"function"},{"inputs":[{"internalType":"uint256","name":"","type":"uint256"}],"name":"deployedVotings","outputs":[{"internalType":"address payable","name":"","type":"address"}],"stateMutability":"view","type":"function"},{"inputs":[],"name":"getDeployedVotings","outputs":[{"internalType":"address payable[]","name":"","type":"address[]"}],"stateMutability":"view","type":"function"},{"inputs":[],"name":"minVotingFee","outputs":[{"internalType":"uint256","name":"","type":"uint256"}],"stateMutability":"view","type":"function"}],"devdoc":{"kind":"dev","methods":{},"version":1},"evm":{"assembly":"    /* \"Voting.sol\":62:794  contract VotingFactory {... */\n  mstore(0x40, 0x80)\n    /* \"Voting.sol\":195:205  0.02 ether */\n  0x470de4df820000\n    /* \"Voting.sol\":168:205  uint public minVotingFee = 0.02 ether */\n  0x02\n  sstore\n    /* \"Voting.sol\":214:267  constructor() {... */\n  callvalue\n  dup1\n  iszero\n  tag_1\n  jumpi\n  0x00\n  dup1\n  revert\ntag_1:\n  pop\n    /* \"Voting.sol\":249:259  msg.sender */\n  caller\n    /* \"Voting.sol\":239:246  creator */\n  0x01\n  0x00\n    /* \"Voting.sol\":239:259  creator = msg.sender */\n  0x0100\n  exp\n  dup2\n  sload\n  dup2\n  0xffffffffffffffffffffffffffffffffffffffff\n  mul\n  not\n  and\n  swap1\n  dup4\n  0xffffffffffffffffffffffffffffffffffffffff\n  and\n  mul\n  or\n  swap1\n  sstore\n  pop\n    /* \"Voting.sol\":62:794  contract VotingFactory {... */\n  dataSize(sub_0)\n  dup1\n  dataOffset(sub_0)\n  0x00\n  codecopy\n  0x00\n  return\nstop\n\nsub_0: assembly {\n        /* \"Voting.sol\":62:794  contract VotingFactory {... */\n      mstore(0x40, 0x80)\n      jumpi(tag_1, lt(calldatasize, 0x04))\n      shr(0xe0, calldataload(0x00))\n      dup1\n      0x02d05d3f\n      eq\n      tag_2\n      jumpi\n      dup1\n      0x08dee7f4\n      eq\n      tag_3\n      jumpi\n      dup1\n      0x298f37ab\n      eq\n      tag_4\n      jumpi\n      dup1\n      0x3e04b578\n      eq\n      tag_5\n      jumpi\n      dup1\n      0x51c69939\n      eq\n      tag_6\n      jumpi\n    tag_1:\n      0x00\n      dup1\n      revert\n        /* \"Voting.sol\":139:161  address public creator */\n    tag_2:\n      callvalue\n      dup1\n      iszero\n      tag_7\n      jumpi\n      0x00\n      dup1\n      revert\n    tag_7:\n      pop\n      tag_8\n      tag_9\n      jump\t// in\n    tag_8:\n      mload(0x40)\n      tag_10\n      swap2\n      swap1\n      tag_11\n      jump\t// in\n    tag_10:\n      mload(0x40)\n      dup1\n      swap2\n      sub\n      swap1\n      return\n        /* \"Voting.sol\":275:663  function createVoting(uint choices, uint fromDate, uint endDate) public payable {... */\n    tag_3:\n      tag_12\n      0x04\n      dup1\n      calldatasize\n      sub\n      dup2\n      add\n      swap1\n      tag_13\n      swap2\n      swap1\n      tag_14\n      jump\t// in\n    tag_13:\n      tag_15\n      jump\t// in\n    tag_12:\n      stop\n        /* \"Voting.sol\":92:132  address payable[] public deployedVotings */\n    tag_4:\n      callvalue\n      dup1\n      iszero\n      tag_16\n      jumpi\n      0x00\n      dup1\n      revert\n    tag_16:\n      pop\n      tag_17\n      0x04\n      dup1\n      calldatasize\n      sub\n      dup2\n      add\n      swap1\n      tag_18\n      swap2\n      swap1\n      tag_19\n      jump\t// in\n    tag_18:\n      tag_20\n      jump\t// in\n    tag_17:\n      mload(0x40)\n      tag_21\n      swap2\n      swap1\n      tag_22\n      jump\t// in\n    tag_21:\n      mload(0x40)\n      dup1\n      swap2\n      sub\n      swap1\n      return\n        /* \"Voting.sol\":671:789  function getDeployedVotings() public view returns (address payable[] memory) {... */\n    tag_5:\n      callvalue\n      dup1\n      iszero\n      tag_23\n      jumpi\n      0x00\n      dup1\n      revert\n    tag_23:\n      pop\n      tag_24\n      tag_25\n      jump\t// in\n    tag_24:\n      mload(0x40)\n      tag_26\n      swap2\n      swap1\n      tag_27\n      jump\t// in\n    tag_26:\n      mload(0x40)\n      dup1\n      swap2\n      sub\n      swap1\n      return\n        /* \"Voting.sol\":168:205  uint public minVotingFee = 0.02 ether */\n    tag_6:\n      callvalue\n      dup1\n      iszero\n      tag_28\n      jumpi\n      0x00\n      dup1\n      revert\n    tag_28:\n      pop\n      tag_29\n      tag_30\n      jump\t// in\n    tag_29:\n      mload(0x40)\n      tag_31\n      swap2\n      swap1\n      tag_32\n      jump\t// in\n    tag_31:\n      mload(0x40)\n      dup1\n      swap2\n      sub\n      swap1\n      return\n        /* \"Voting.sol\":139:161  address public creator */\n    tag_9:\n      0x01\n      0x00\n      swap1\n      sload\n      swap1\n      0x0100\n      exp\n      swap1\n      div\n      0xffffffffffffffffffffffffffffffffffffffff\n      and\n      dup2\n      jump\t// out\n        /* \"Voting.sol\":275:663  function createVoting(uint choices, uint fromDate, uint endDate) public payable {... */\n    tag_15:\n        /* \"Voting.sol\":386:398  minVotingFee */\n      sload(0x02)\n        /* \"Voting.sol\":374:383  msg.value */\n      callvalue\n        /* \"Voting.sol\":374:398  msg.value > minVotingFee */\n      gt\n        /* \"Voting.sol\":366:399  require(msg.value > minVotingFee) */\n      tag_34\n      jumpi\n      0x00\n      dup1\n      revert\n    tag_34:\n        /* \"Voting.sol\":412:429  address newVoting */\n      0x00\n        /* \"Voting.sol\":451:458  choices */\n      dup4\n        /* \"Voting.sol\":460:468  fromDate */\n      dup4\n        /* \"Voting.sol\":470:477  endDate */\n      dup4\n        /* \"Voting.sol\":479:489  msg.sender */\n      caller\n        /* \"Voting.sol\":440:490  new Voting(choices, fromDate, endDate, msg.sender) */\n      mload(0x40)\n      tag_35\n      swap1\n      tag_36\n      jump\t// in\n    tag_35:\n      tag_37\n      swap5\n      swap4\n      swap3\n      swap2\n      swap1\n      tag_38\n      jump\t// in\n    tag_37:\n      mload(0x40)\n      dup1\n      swap2\n      sub\n      swap1\n      0x00\n      create\n      dup1\n      iszero\n      dup1\n      iszero\n      tag_39\n      jumpi\n      returndatasize\n      0x00\n      dup1\n      returndatacopy\n      revert(0x00, returndatasize)\n    tag_39:\n      pop\n        /* \"Voting.sol\":412:491  address newVoting = address(new Voting(choices, fromDate, endDate, msg.sender)) */\n      swap1\n      pop\n        /* \"Voting.sol\":503:512  bool sent */\n      0x00\n        /* \"Voting.sol\":518:527  newVoting */\n      dup2\n        /* \"Voting.sol\":518:532  newVoting.call */\n      0xffffffffffffffffffffffffffffffffffffffff\n      and\n        /* \"Voting.sol\":540:549  msg.value */\n      callvalue\n        /* \"Voting.sol\":518:554  newVoting.call{value: msg.value}(\"\") */\n      mload(0x40)\n      tag_40\n      swap1\n      tag_41\n      jump\t// in\n    tag_40:\n      0x00\n      mload(0x40)\n      dup1\n      dup4\n      sub\n      dup2\n      dup6\n      dup8\n      gas\n      call\n      swap3\n      pop\n      pop\n      pop\n      returndatasize\n      dup1\n      0x00\n      dup2\n      eq\n      tag_44\n      jumpi\n      mload(0x40)\n      swap2\n      pop\n      and(add(returndatasize, 0x3f), not(0x1f))\n      dup3\n      add\n      0x40\n      mstore\n      returndatasize\n      dup3\n      mstore\n      returndatasize\n      0x00\n      0x20\n      dup5\n      add\n      returndatacopy\n      jump(tag_43)\n    tag_44:\n      0x60\n      swap2\n      pop\n    tag_43:\n      pop\n        /* \"Voting.sol\":502:554  (bool sent, ) = newVoting.call{value: msg.value}(\"\") */\n      pop\n      swap1\n      pop\n        /* \"Voting.sol\":573:577  sent */\n      dup1\n        /* \"Voting.sol\":565:602  require(sent, \"Failed to send Ether\") */\n      tag_45\n      jumpi\n      mload(0x40)\n      0x08c379a000000000000000000000000000000000000000000000000000000000\n      dup2\n      mstore\n      0x04\n      add\n      tag_46\n      swap1\n      tag_47\n      jump\t// in\n    tag_46:\n      mload(0x40)\n      dup1\n      swap2\n      sub\n      swap1\n      revert\n    tag_45:\n        /* \"Voting.sol\":615:630  deployedVotings */\n      0x00\n        /* \"Voting.sol\":644:653  newVoting */\n      dup3\n        /* \"Voting.sol\":615:655  deployedVotings.push(payable(newVoting)) */\n      swap1\n      dup1\n      0x01\n      dup2\n      sload\n      add\n      dup1\n      dup3\n      sstore\n      dup1\n      swap2\n      pop\n      pop\n      0x01\n      swap1\n      sub\n      swap1\n      0x00\n      mstore\n      keccak256(0x00, 0x20)\n      add\n      0x00\n      swap1\n      swap2\n      swap1\n      swap2\n      swap1\n      swap2\n      0x0100\n      exp\n      dup2\n      sload\n      dup2\n      0xffffffffffffffffffffffffffffffffffffffff\n      mul\n      not\n      and\n      swap1\n      dup4\n      0xffffffffffffffffffffffffffffffffffffffff\n      and\n      mul\n      or\n      swap1\n      sstore\n      pop\n        /* \"Voting.sol\":355:663  {... */\n      pop\n      pop\n        /* \"Voting.sol\":275:663  function createVoting(uint choices, uint fromDate, uint endDate) public payable {... */\n      pop\n      pop\n      pop\n      jump\t// out\n        /* \"Voting.sol\":92:132  address payable[] public deployedVotings */\n    tag_20:\n      0x00\n      dup2\n      dup2\n      sload\n      dup2\n      lt\n      tag_49\n      jumpi\n      0x00\n      dup1\n      revert\n    tag_49:\n      swap1\n      0x00\n      mstore\n      keccak256(0x00, 0x20)\n      add\n      0x00\n      swap2\n      pop\n      sload\n      swap1\n      0x0100\n      exp\n      swap1\n      div\n      0xffffffffffffffffffffffffffffffffffffffff\n      and\n      dup2\n      jump\t// out\n        /* \"Voting.sol\":671:789  function getDeployedVotings() public view returns (address payable[] memory) {... */\n    tag_25:\n        /* \"Voting.sol\":722:746  address payable[] memory */\n      0x60\n        /* \"Voting.sol\":766:781  deployedVotings */\n      0x00\n        /* \"Voting.sol\":759:781  return deployedVotings */\n      dup1\n      sload\n      dup1\n      0x20\n      mul\n      0x20\n      add\n      mload(0x40)\n      swap1\n      dup2\n      add\n      0x40\n      mstore\n      dup1\n      swap3\n      swap2\n      swap1\n      dup2\n      dup2\n      mstore\n      0x20\n      add\n      dup3\n      dup1\n      sload\n      dup1\n      iszero\n      tag_52\n      jumpi\n      0x20\n      mul\n      dup3\n      add\n      swap2\n      swap1\n      0x00\n      mstore\n      keccak256(0x00, 0x20)\n      swap1\n    tag_53:\n      dup2\n      0x00\n      swap1\n      sload\n      swap1\n      0x0100\n      exp\n      swap1\n      div\n      0xffffffffffffffffffffffffffffffffffffffff\n      and\n      0xffffffffffffffffffffffffffffffffffffffff\n      and\n      dup2\n      mstore\n      0x20\n      add\n      swap1\n      0x01\n      add\n      swap1\n      dup1\n      dup4\n      gt\n      tag_53\n      jumpi\n    tag_52:\n      pop\n      pop\n      pop\n      pop\n      pop\n      swap1\n      pop\n        /* \"Voting.sol\":671:789  function getDeployedVotings() public view returns (address payable[] memory) {... */\n      swap1\n      jump\t// out\n        /* \"Voting.sol\":168:205  uint public minVotingFee = 0.02 ether */\n    tag_30:\n      sload(0x02)\n      dup2\n      jump\t// out\n    tag_36:\n      dataSize(sub_0)\n      dup1\n      dataOffset(sub_0)\n      dup4\n      codecopy\n      add\n      swap1\n      jump\t// out\n        /* \"#utility.yul\":7:133   */\n    tag_54:\n        /* \"#utility.yul\":44:51   */\n      0x00\n        /* \"#utility.yul\":84:126   */\n      0xffffffffffffffffffffffffffffffffffffffff\n        /* \"#utility.yul\":77:82   */\n      dup3\n        /* \"#utility.yul\":73:127   */\n      and\n        /* \"#utility.yul\":62:127   */\n      swap1\n      pop\n        /* \"#utility.yul\":7:133   */\n      swap2\n      swap1\n      pop\n      jump\t// out\n        /* \"#utility.yul\":139:235   */\n    tag_55:\n        /* \"#utility.yul\":176:183   */\n      0x00\n        /* \"#utility.yul\":205:229   */\n      tag_82\n        /* \"#utility.yul\":223:228   */\n      dup3\n        /* \"#utility.yul\":205:229   */\n      tag_54\n      jump\t// in\n    tag_82:\n        /* \"#utility.yul\":194:229   */\n      swap1\n      pop\n        /* \"#utility.yul\":139:235   */\n      swap2\n      swap1\n      pop\n      jump\t// out\n        /* \"#utility.yul\":241:359   */\n    tag_56:\n        /* \"#utility.yul\":328:352   */\n      tag_84\n        /* \"#utility.yul\":346:351   */\n      dup2\n        /* \"#utility.yul\":328:352   */\n      tag_55\n      jump\t// in\n    tag_84:\n        /* \"#utility.yul\":323:326   */\n      dup3\n        /* \"#utility.yul\":316:353   */\n      mstore\n        /* \"#utility.yul\":241:359   */\n      pop\n      pop\n      jump\t// out\n        /* \"#utility.yul\":365:587   */\n    tag_11:\n        /* \"#utility.yul\":458:462   */\n      0x00\n        /* \"#utility.yul\":496:498   */\n      0x20\n        /* \"#utility.yul\":485:494   */\n      dup3\n        /* \"#utility.yul\":481:499   */\n      add\n        /* \"#utility.yul\":473:499   */\n      swap1\n      pop\n        /* \"#utility.yul\":509:580   */\n      tag_86\n        /* \"#utility.yul\":577:578   */\n      0x00\n        /* \"#utility.yul\":566:575   */\n      dup4\n        /* \"#utility.yul\":562:579   */\n      add\n        /* \"#utility.yul\":553:559   */\n      dup5\n        /* \"#utility.yul\":509:580   */\n      tag_56\n      jump\t// in\n    tag_86:\n        /* \"#utility.yul\":365:587   */\n      swap3\n      swap2\n      pop\n      pop\n      jump\t// out\n        /* \"#utility.yul\":674:791   */\n    tag_58:\n        /* \"#utility.yul\":783:784   */\n      0x00\n        /* \"#utility.yul\":780:781   */\n      dup1\n        /* \"#utility.yul\":773:785   */\n      revert\n        /* \"#utility.yul\":920:997   */\n    tag_60:\n        /* \"#utility.yul\":957:964   */\n      0x00\n        /* \"#utility.yul\":986:991   */\n      dup2\n        /* \"#utility.yul\":975:991   */\n      swap1\n      pop\n        /* \"#utility.yul\":920:997   */\n      swap2\n      swap1\n      pop\n      jump\t// out\n        /* \"#utility.yul\":1003:1125   */\n    tag_61:\n        /* \"#utility.yul\":1076:1100   */\n      tag_92\n        /* \"#utility.yul\":1094:1099   */\n      dup2\n        /* \"#utility.yul\":1076:1100   */\n      tag_60\n      jump\t// in\n    tag_92:\n        /* \"#utility.yul\":1069:1074   */\n      dup2\n        /* \"#utility.yul\":1066:1101   */\n      eq\n        /* \"#utility.yul\":1056:1119   */\n      tag_93\n      jumpi\n        /* \"#utility.yul\":1115:1116   */\n      0x00\n        /* \"#utility.yul\":1112:1113   */\n      dup1\n        /* \"#utility.yul\":1105:1117   */\n      revert\n        /* \"#utility.yul\":1056:1119   */\n    tag_93:\n        /* \"#utility.yul\":1003:1125   */\n      pop\n      jump\t// out\n        /* \"#utility.yul\":1131:1270   */\n    tag_62:\n        /* \"#utility.yul\":1177:1182   */\n      0x00\n        /* \"#utility.yul\":1215:1221   */\n      dup2\n        /* \"#utility.yul\":1202:1222   */\n      calldataload\n        /* \"#utility.yul\":1193:1222   */\n      swap1\n      pop\n        /* \"#utility.yul\":1231:1264   */\n      tag_95\n        /* \"#utility.yul\":1258:1263   */\n      dup2\n        /* \"#utility.yul\":1231:1264   */\n      tag_61\n      jump\t// in\n    tag_95:\n        /* \"#utility.yul\":1131:1270   */\n      swap3\n      swap2\n      pop\n      pop\n      jump\t// out\n        /* \"#utility.yul\":1276:1895   */\n    tag_14:\n        /* \"#utility.yul\":1353:1359   */\n      0x00\n        /* \"#utility.yul\":1361:1367   */\n      dup1\n        /* \"#utility.yul\":1369:1375   */\n      0x00\n        /* \"#utility.yul\":1418:1420   */\n      0x60\n        /* \"#utility.yul\":1406:1415   */\n      dup5\n        /* \"#utility.yul\":1397:1404   */\n      dup7\n        /* \"#utility.yul\":1393:1416   */\n      sub\n        /* \"#utility.yul\":1389:1421   */\n      slt\n        /* \"#utility.yul\":1386:1505   */\n      iszero\n      tag_97\n      jumpi\n        /* \"#utility.yul\":1424:1503   */\n      tag_98\n      tag_58\n      jump\t// in\n    tag_98:\n        /* \"#utility.yul\":1386:1505   */\n    tag_97:\n        /* \"#utility.yul\":1544:1545   */\n      0x00\n        /* \"#utility.yul\":1569:1622   */\n      tag_99\n        /* \"#utility.yul\":1614:1621   */\n      dup7\n        /* \"#utility.yul\":1605:1611   */\n      dup3\n        /* \"#utility.yul\":1594:1603   */\n      dup8\n        /* \"#utility.yul\":1590:1612   */\n      add\n        /* \"#utility.yul\":1569:1622   */\n      tag_62\n      jump\t// in\n    tag_99:\n        /* \"#utility.yul\":1559:1622   */\n      swap4\n      pop\n        /* \"#utility.yul\":1515:1632   */\n      pop\n        /* \"#utility.yul\":1671:1673   */\n      0x20\n        /* \"#utility.yul\":1697:1750   */\n      tag_100\n        /* \"#utility.yul\":1742:1749   */\n      dup7\n        /* \"#utility.yul\":1733:1739   */\n      dup3\n        /* \"#utility.yul\":1722:1731   */\n      dup8\n        /* \"#utility.yul\":1718:1740   */\n      add\n        /* \"#utility.yul\":1697:1750   */\n      tag_62\n      jump\t// in\n    tag_100:\n        /* \"#utility.yul\":1687:1750   */\n      swap3\n      pop\n        /* \"#utility.yul\":1642:1760   */\n      pop\n        /* \"#utility.yul\":1799:1801   */\n      0x40\n        /* \"#utility.yul\":1825:1878   */\n      tag_101\n        /* \"#utility.yul\":1870:1877   */\n      dup7\n        /* \"#utility.yul\":1861:1867   */\n      dup3\n        /* \"#utility.yul\":1850:1859   */\n      dup8\n        /* \"#utility.yul\":1846:1868   */\n      add\n        /* \"#utility.yul\":1825:1878   */\n      tag_62\n      jump\t// in\n    tag_101:\n        /* \"#utility.yul\":1815:1878   */\n      swap2\n      pop\n        /* \"#utility.yul\":1770:1888   */\n      pop\n        /* \"#utility.yul\":1276:1895   */\n      swap3\n      pop\n      swap3\n      pop\n      swap3\n      jump\t// out\n        /* \"#utility.yul\":1901:2230   */\n    tag_19:\n        /* \"#utility.yul\":1960:1966   */\n      0x00\n        /* \"#utility.yul\":2009:2011   */\n      0x20\n        /* \"#utility.yul\":1997:2006   */\n      dup3\n        /* \"#utility.yul\":1988:1995   */\n      dup5\n        /* \"#utility.yul\":1984:2007   */\n      sub\n        /* \"#utility.yul\":1980:2012   */\n      slt\n        /* \"#utility.yul\":1977:2096   */\n      iszero\n      tag_103\n      jumpi\n        /* \"#utility.yul\":2015:2094   */\n      tag_104\n      tag_58\n      jump\t// in\n    tag_104:\n        /* \"#utility.yul\":1977:2096   */\n    tag_103:\n        /* \"#utility.yul\":2135:2136   */\n      0x00\n        /* \"#utility.yul\":2160:2213   */\n      tag_105\n        /* \"#utility.yul\":2205:2212   */\n      dup5\n        /* \"#utility.yul\":2196:2202   */\n      dup3\n        /* \"#utility.yul\":2185:2194   */\n      dup6\n        /* \"#utility.yul\":2181:2203   */\n      add\n        /* \"#utility.yul\":2160:2213   */\n      tag_62\n      jump\t// in\n    tag_105:\n        /* \"#utility.yul\":2150:2213   */\n      swap2\n      pop\n        /* \"#utility.yul\":2106:2223   */\n      pop\n        /* \"#utility.yul\":1901:2230   */\n      swap3\n      swap2\n      pop\n      pop\n      jump\t// out\n        /* \"#utility.yul\":2236:2340   */\n    tag_63:\n        /* \"#utility.yul\":2281:2288   */\n      0x00\n        /* \"#utility.yul\":2310:2334   */\n      tag_107\n        /* \"#utility.yul\":2328:2333   */\n      dup3\n        /* \"#utility.yul\":2310:2334   */\n      tag_54\n      jump\t// in\n    tag_107:\n        /* \"#utility.yul\":2299:2334   */\n      swap1\n      pop\n        /* \"#utility.yul\":2236:2340   */\n      swap2\n      swap1\n      pop\n      jump\t// out\n        /* \"#utility.yul\":2346:2488   */\n    tag_64:\n        /* \"#utility.yul\":2449:2481   */\n      tag_109\n        /* \"#utility.yul\":2475:2480   */\n      dup2\n        /* \"#utility.yul\":2449:2481   */\n      tag_63\n      jump\t// in\n    tag_109:\n        /* \"#utility.yul\":2444:2447   */\n      dup3\n        /* \"#utility.yul\":2437:2482   */\n      mstore\n        /* \"#utility.yul\":2346:2488   */\n      pop\n      pop\n      jump\t// out\n        /* \"#utility.yul\":2494:2748   */\n    tag_22:\n        /* \"#utility.yul\":2603:2607   */\n      0x00\n        /* \"#utility.yul\":2641:2643   */\n      0x20\n        /* \"#utility.yul\":2630:2639   */\n      dup3\n        /* \"#utility.yul\":2626:2644   */\n      add\n        /* \"#utility.yul\":2618:2644   */\n      swap1\n      pop\n        /* \"#utility.yul\":2654:2741   */\n      tag_111\n        /* \"#utility.yul\":2738:2739   */\n      0x00\n        /* \"#utility.yul\":2727:2736   */\n      dup4\n        /* \"#utility.yul\":2723:2740   */\n      add\n        /* \"#utility.yul\":2714:2720   */\n      dup5\n        /* \"#utility.yul\":2654:2741   */\n      tag_64\n      jump\t// in\n    tag_111:\n        /* \"#utility.yul\":2494:2748   */\n      swap3\n      swap2\n      pop\n      pop\n      jump\t// out\n        /* \"#utility.yul\":2754:2876   */\n    tag_65:\n        /* \"#utility.yul\":2829:2835   */\n      0x00\n        /* \"#utility.yul\":2863:2868   */\n      dup2\n        /* \"#utility.yul\":2857:2869   */\n      mload\n        /* \"#utility.yul\":2847:2869   */\n      swap1\n      pop\n        /* \"#utility.yul\":2754:2876   */\n      swap2\n      swap1\n      pop\n      jump\t// out\n        /* \"#utility.yul\":2882:3074   */\n    tag_66:\n        /* \"#utility.yul\":2989:3000   */\n      0x00\n        /* \"#utility.yul\":3023:3029   */\n      dup3\n        /* \"#utility.yul\":3018:3021   */\n      dup3\n        /* \"#utility.yul\":3011:3030   */\n      mstore\n        /* \"#utility.yul\":3063:3067   */\n      0x20\n        /* \"#utility.yul\":3058:3061   */\n      dup3\n        /* \"#utility.yul\":3054:3068   */\n      add\n        /* \"#utility.yul\":3039:3068   */\n      swap1\n      pop\n        /* \"#utility.yul\":2882:3074   */\n      swap3\n      swap2\n      pop\n      pop\n      jump\t// out\n        /* \"#utility.yul\":3080:3220   */\n    tag_67:\n        /* \"#utility.yul\":3155:3159   */\n      0x00\n        /* \"#utility.yul\":3178:3181   */\n      dup2\n        /* \"#utility.yul\":3170:3181   */\n      swap1\n      pop\n        /* \"#utility.yul\":3208:3212   */\n      0x20\n        /* \"#utility.yul\":3203:3206   */\n      dup3\n        /* \"#utility.yul\":3199:3213   */\n      add\n        /* \"#utility.yul\":3191:3213   */\n      swap1\n      pop\n        /* \"#utility.yul\":3080:3220   */\n      swap2\n      swap1\n      pop\n      jump\t// out\n        /* \"#utility.yul\":3226:3358   */\n    tag_68:\n        /* \"#utility.yul\":3319:3351   */\n      tag_116\n        /* \"#utility.yul\":3345:3350   */\n      dup2\n        /* \"#utility.yul\":3319:3351   */\n      tag_63\n      jump\t// in\n    tag_116:\n        /* \"#utility.yul\":3314:3317   */\n      dup3\n        /* \"#utility.yul\":3307:3352   */\n      mstore\n        /* \"#utility.yul\":3226:3358   */\n      pop\n      pop\n      jump\t// out\n        /* \"#utility.yul\":3364:3575   */\n    tag_69:\n        /* \"#utility.yul\":3449:3459   */\n      0x00\n        /* \"#utility.yul\":3470:3532   */\n      tag_118\n        /* \"#utility.yul\":3528:3531   */\n      dup4\n        /* \"#utility.yul\":3520:3526   */\n      dup4\n        /* \"#utility.yul\":3470:3532   */\n      tag_68\n      jump\t// in\n    tag_118:\n        /* \"#utility.yul\":3564:3568   */\n      0x20\n        /* \"#utility.yul\":3559:3562   */\n      dup4\n        /* \"#utility.yul\":3555:3569   */\n      add\n        /* \"#utility.yul\":3541:3569   */\n      swap1\n      pop\n        /* \"#utility.yul\":3364:3575   */\n      swap3\n      swap2\n      pop\n      pop\n      jump\t// out\n        /* \"#utility.yul\":3581:3702   */\n    tag_70:\n        /* \"#utility.yul\":3659:3663   */\n      0x00\n        /* \"#utility.yul\":3691:3695   */\n      0x20\n        /* \"#utility.yul\":3686:3689   */\n      dup3\n        /* \"#utility.yul\":3682:3696   */\n      add\n        /* \"#utility.yul\":3674:3696   */\n      swap1\n      pop\n        /* \"#utility.yul\":3581:3702   */\n      swap2\n      swap1\n      pop\n      jump\t// out\n        /* \"#utility.yul\":3754:4550   */\n    tag_71:\n        /* \"#utility.yul\":3889:3892   */\n      0x00\n        /* \"#utility.yul\":3918:3980   */\n      tag_121\n        /* \"#utility.yul\":3974:3979   */\n      dup3\n        /* \"#utility.yul\":3918:3980   */\n      tag_65\n      jump\t// in\n    tag_121:\n        /* \"#utility.yul\":3996:4090   */\n      tag_122\n        /* \"#utility.yul\":4083:4089   */\n      dup2\n        /* \"#utility.yul\":4078:4081   */\n      dup6\n        /* \"#utility.yul\":3996:4090   */\n      tag_66\n      jump\t// in\n    tag_122:\n        /* \"#utility.yul\":3989:4090   */\n      swap4\n      pop\n        /* \"#utility.yul\":4114:4178   */\n      tag_123\n        /* \"#utility.yul\":4172:4177   */\n      dup4\n        /* \"#utility.yul\":4114:4178   */\n      tag_67\n      jump\t// in\n    tag_123:\n        /* \"#utility.yul\":4201:4208   */\n      dup1\n        /* \"#utility.yul\":4232:4233   */\n      0x00\n        /* \"#utility.yul\":4217:4525   */\n    tag_124:\n        /* \"#utility.yul\":4242:4248   */\n      dup4\n        /* \"#utility.yul\":4239:4240   */\n      dup2\n        /* \"#utility.yul\":4236:4249   */\n      lt\n        /* \"#utility.yul\":4217:4525   */\n      iszero\n      tag_126\n      jumpi\n        /* \"#utility.yul\":4318:4324   */\n      dup2\n        /* \"#utility.yul\":4312:4325   */\n      mload\n        /* \"#utility.yul\":4345:4424   */\n      tag_127\n        /* \"#utility.yul\":4420:4423   */\n      dup9\n        /* \"#utility.yul\":4405:4418   */\n      dup3\n        /* \"#utility.yul\":4345:4424   */\n      tag_69\n      jump\t// in\n    tag_127:\n        /* \"#utility.yul\":4338:4424   */\n      swap8\n      pop\n        /* \"#utility.yul\":4447:4515   */\n      tag_128\n        /* \"#utility.yul\":4508:4514   */\n      dup4\n        /* \"#utility.yul\":4447:4515   */\n      tag_70\n      jump\t// in\n    tag_128:\n        /* \"#utility.yul\":4437:4515   */\n      swap3\n      pop\n        /* \"#utility.yul\":4277:4525   */\n      pop\n        /* \"#utility.yul\":4264:4265   */\n      0x01\n        /* \"#utility.yul\":4261:4262   */\n      dup2\n        /* \"#utility.yul\":4257:4266   */\n      add\n        /* \"#utility.yul\":4252:4266   */\n      swap1\n      pop\n        /* \"#utility.yul\":4217:4525   */\n      jump(tag_124)\n    tag_126:\n        /* \"#utility.yul\":4221:4235   */\n      pop\n        /* \"#utility.yul\":4541:4544   */\n      dup6\n        /* \"#utility.yul\":4534:4544   */\n      swap4\n      pop\n        /* \"#utility.yul\":3894:4550   */\n      pop\n      pop\n      pop\n        /* \"#utility.yul\":3754:4550   */\n      swap3\n      swap2\n      pop\n      pop\n      jump\t// out\n        /* \"#utility.yul\":4556:4961   */\n    tag_27:\n        /* \"#utility.yul\":4715:4719   */\n      0x00\n        /* \"#utility.yul\":4753:4755   */\n      0x20\n        /* \"#utility.yul\":4742:4751   */\n      dup3\n        /* \"#utility.yul\":4738:4756   */\n      add\n        /* \"#utility.yul\":4730:4756   */\n      swap1\n      pop\n        /* \"#utility.yul\":4802:4811   */\n      dup2\n        /* \"#utility.yul\":4796:4800   */\n      dup2\n        /* \"#utility.yul\":4792:4812   */\n      sub\n        /* \"#utility.yul\":4788:4789   */\n      0x00\n        /* \"#utility.yul\":4777:4786   */\n      dup4\n        /* \"#utility.yul\":4773:4790   */\n      add\n        /* \"#utility.yul\":4766:4813   */\n      mstore\n        /* \"#utility.yul\":4830:4954   */\n      tag_130\n        /* \"#utility.yul\":4949:4953   */\n      dup2\n        /* \"#utility.yul\":4940:4946   */\n      dup5\n        /* \"#utility.yul\":4830:4954   */\n      tag_71\n      jump\t// in\n    tag_130:\n        /* \"#utility.yul\":4822:4954   */\n      swap1\n      pop\n        /* \"#utility.yul\":4556:4961   */\n      swap3\n      swap2\n      pop\n      pop\n      jump\t// out\n        /* \"#utility.yul\":4967:5085   */\n    tag_72:\n        /* \"#utility.yul\":5054:5078   */\n      tag_132\n        /* \"#utility.yul\":5072:5077   */\n      dup2\n        /* \"#utility.yul\":5054:5078   */\n      tag_60\n      jump\t// in\n    tag_132:\n        /* \"#utility.yul\":5049:5052   */\n      dup3\n        /* \"#utility.yul\":5042:5079   */\n      mstore\n        /* \"#utility.yul\":4967:5085   */\n      pop\n      pop\n      jump\t// out\n        /* \"#utility.yul\":5091:5313   */\n    tag_32:\n        /* \"#utility.yul\":5184:5188   */\n      0x00\n        /* \"#utility.yul\":5222:5224   */\n      0x20\n        /* \"#utility.yul\":5211:5220   */\n      dup3\n        /* \"#utility.yul\":5207:5225   */\n      add\n        /* \"#utility.yul\":5199:5225   */\n      swap1\n      pop\n        /* \"#utility.yul\":5235:5306   */\n      tag_134\n        /* \"#utility.yul\":5303:5304   */\n      0x00\n        /* \"#utility.yul\":5292:5301   */\n      dup4\n        /* \"#utility.yul\":5288:5305   */\n      add\n        /* \"#utility.yul\":5279:5285   */\n      dup5\n        /* \"#utility.yul\":5235:5306   */\n      tag_72\n      jump\t// in\n    tag_134:\n        /* \"#utility.yul\":5091:5313   */\n      swap3\n      swap2\n      pop\n      pop\n      jump\t// out\n        /* \"#utility.yul\":5319:5872   */\n    tag_38:\n        /* \"#utility.yul\":5496:5500   */\n      0x00\n        /* \"#utility.yul\":5534:5537   */\n      0x80\n        /* \"#utility.yul\":5523:5532   */\n      dup3\n        /* \"#utility.yul\":5519:5538   */\n      add\n        /* \"#utility.yul\":5511:5538   */\n      swap1\n      pop\n        /* \"#utility.yul\":5548:5619   */\n      tag_136\n        /* \"#utility.yul\":5616:5617   */\n      0x00\n        /* \"#utility.yul\":5605:5614   */\n      dup4\n        /* \"#utility.yul\":5601:5618   */\n      add\n        /* \"#utility.yul\":5592:5598   */\n      dup8\n        /* \"#utility.yul\":5548:5619   */\n      tag_72\n      jump\t// in\n    tag_136:\n        /* \"#utility.yul\":5629:5701   */\n      tag_137\n        /* \"#utility.yul\":5697:5699   */\n      0x20\n        /* \"#utility.yul\":5686:5695   */\n      dup4\n        /* \"#utility.yul\":5682:5700   */\n      add\n        /* \"#utility.yul\":5673:5679   */\n      dup7\n        /* \"#utility.yul\":5629:5701   */\n      tag_72\n      jump\t// in\n    tag_137:\n        /* \"#utility.yul\":5711:5783   */\n      tag_138\n        /* \"#utility.yul\":5779:5781   */\n      0x40\n        /* \"#utility.yul\":5768:5777   */\n      dup4\n        /* \"#utility.yul\":5764:5782   */\n      add\n        /* \"#utility.yul\":5755:5761   */\n      dup6\n        /* \"#utility.yul\":5711:5783   */\n      tag_72\n      jump\t// in\n    tag_138:\n        /* \"#utility.yul\":5793:5865   */\n      tag_139\n        /* \"#utility.yul\":5861:5863   */\n      0x60\n        /* \"#utility.yul\":5850:5859   */\n      dup4\n        /* \"#utility.yul\":5846:5864   */\n      add\n        /* \"#utility.yul\":5837:5843   */\n      dup5\n        /* \"#utility.yul\":5793:5865   */\n      tag_56\n      jump\t// in\n    tag_139:\n        /* \"#utility.yul\":5319:5872   */\n      swap6\n      swap5\n      pop\n      pop\n      pop\n      pop\n      pop\n      jump\t// out\n        /* \"#utility.yul\":5878:6025   */\n    tag_73:\n        /* \"#utility.yul\":5979:5990   */\n      0x00\n        /* \"#utility.yul\":6016:6019   */\n      dup2\n        /* \"#utility.yul\":6001:6019   */\n      swap1\n      pop\n        /* \"#utility.yul\":5878:6025   */\n      swap3\n      swap2\n      pop\n      pop\n      jump\t// out\n        /* \"#utility.yul\":6031:6145   */\n    tag_74:\n      pop\n      jump\t// out\n        /* \"#utility.yul\":6151:6549   */\n    tag_75:\n        /* \"#utility.yul\":6310:6313   */\n      0x00\n        /* \"#utility.yul\":6331:6414   */\n      tag_143\n        /* \"#utility.yul\":6412:6413   */\n      0x00\n        /* \"#utility.yul\":6407:6410   */\n      dup4\n        /* \"#utility.yul\":6331:6414   */\n      tag_73\n      jump\t// in\n    tag_143:\n        /* \"#utility.yul\":6324:6414   */\n      swap2\n      pop\n        /* \"#utility.yul\":6423:6516   */\n      tag_144\n        /* \"#utility.yul\":6512:6515   */\n      dup3\n        /* \"#utility.yul\":6423:6516   */\n      tag_74\n      jump\t// in\n    tag_144:\n        /* \"#utility.yul\":6541:6542   */\n      0x00\n        /* \"#utility.yul\":6536:6539   */\n      dup3\n        /* \"#utility.yul\":6532:6543   */\n      add\n        /* \"#utility.yul\":6525:6543   */\n      swap1\n      pop\n        /* \"#utility.yul\":6151:6549   */\n      swap2\n      swap1\n      pop\n      jump\t// out\n        /* \"#utility.yul\":6555:6934   */\n    tag_41:\n        /* \"#utility.yul\":6739:6742   */\n      0x00\n        /* \"#utility.yul\":6761:6908   */\n      tag_146\n        /* \"#utility.yul\":6904:6907   */\n      dup3\n        /* \"#utility.yul\":6761:6908   */\n      tag_75\n      jump\t// in\n    tag_146:\n        /* \"#utility.yul\":6754:6908   */\n      swap2\n      pop\n        /* \"#utility.yul\":6925:6928   */\n      dup2\n        /* \"#utility.yul\":6918:6928   */\n      swap1\n      pop\n        /* \"#utility.yul\":6555:6934   */\n      swap2\n      swap1\n      pop\n      jump\t// out\n        /* \"#utility.yul\":6940:7109   */\n    tag_76:\n        /* \"#utility.yul\":7024:7035   */\n      0x00\n        /* \"#utility.yul\":7058:7064   */\n      dup3\n        /* \"#utility.yul\":7053:7056   */\n      dup3\n        /* \"#utility.yul\":7046:7065   */\n      mstore\n        /* \"#utility.yul\":7098:7102   */\n      0x20\n        /* \"#utility.yul\":7093:7096   */\n      dup3\n        /* \"#utility.yul\":7089:7103   */\n      add\n        /* \"#utility.yul\":7074:7103   */\n      swap1\n      pop\n        /* \"#utility.yul\":6940:7109   */\n      swap3\n      swap2\n      pop\n      pop\n      jump\t// out\n        /* \"#utility.yul\":7115:7285   */\n    tag_77:\n        /* \"#utility.yul\":7255:7277   */\n      0x4661696c656420746f2073656e64204574686572000000000000000000000000\n        /* \"#utility.yul\":7251:7252   */\n      0x00\n        /* \"#utility.yul\":7243:7249   */\n      dup3\n        /* \"#utility.yul\":7239:7253   */\n      add\n        /* \"#utility.yul\":7232:7278   */\n      mstore\n        /* \"#utility.yul\":7115:7285   */\n      pop\n      jump\t// out\n        /* \"#utility.yul\":7291:7657   */\n    tag_78:\n        /* \"#utility.yul\":7433:7436   */\n      0x00\n        /* \"#utility.yul\":7454:7521   */\n      tag_150\n        /* \"#utility.yul\":7518:7520   */\n      0x14\n        /* \"#utility.yul\":7513:7516   */\n      dup4\n        /* \"#utility.yul\":7454:7521   */\n      tag_76\n      jump\t// in\n    tag_150:\n        /* \"#utility.yul\":7447:7521   */\n      swap2\n      pop\n        /* \"#utility.yul\":7530:7623   */\n      tag_151\n        /* \"#utility.yul\":7619:7622   */\n      dup3\n        /* \"#utility.yul\":7530:7623   */\n      tag_77\n      jump\t// in\n    tag_151:\n        /* \"#utility.yul\":7648:7650   */\n      0x20\n        /* \"#utility.yul\":7643:7646   */\n      dup3\n        /* \"#utility.yul\":7639:7651   */\n      add\n        /* \"#utility.yul\":7632:7651   */\n      swap1\n      pop\n        /* \"#utility.yul\":7291:7657   */\n      swap2\n      swap1\n      pop\n      jump\t// out\n        /* \"#utility.yul\":7663:8082   */\n    tag_47:\n        /* \"#utility.yul\":7829:7833   */\n      0x00\n        /* \"#utility.yul\":7867:7869   */\n      0x20\n        /* \"#utility.yul\":7856:7865   */\n      dup3\n        /* \"#utility.yul\":7852:7870   */\n      add\n        /* \"#utility.yul\":7844:7870   */\n      swap1\n      pop\n        /* \"#utility.yul\":7916:7925   */\n      dup2\n        /* \"#utility.yul\":7910:7914   */\n      dup2\n        /* \"#utility.yul\":7906:7926   */\n      sub\n        /* \"#utility.yul\":7902:7903   */\n      0x00\n        /* \"#utility.yul\":7891:7900   */\n      dup4\n        /* \"#utility.yul\":7887:7904   */\n      add\n        /* \"#utility.yul\":7880:7927   */\n      mstore\n        /* \"#utility.yul\":7944:8075   */\n      tag_153\n        /* \"#utility.yul\":8070:8074   */\n      dup2\n        /* \"#utility.yul\":7944:8075   */\n      tag_78\n      jump\t// in\n    tag_153:\n        /* \"#utility.yul\":7936:8075   */\n      swap1\n      pop\n        /* \"#utility.yul\":7663:8082   */\n      swap2\n      swap1\n      pop\n      jump\t// out\n    stop\n\n    sub_0: assembly {\n            /* \"Voting.sol\":798:6916  contract Voting {... */\n          mstore(0x40, 0x80)\n            /* \"Voting.sol\":1024:1034  0.01 ether */\n          0x2386f26fc10000\n            /* \"Voting.sol\":1003:1034  uint public reward = 0.01 ether */\n          0x06\n          sstore\n            /* \"Voting.sol\":1512:2087  constructor(uint totalChoicesInput, uint fromDateInput, uint endDateInput, address creator) payable {... */\n          mload(0x40)\n          sub(codesize, bytecodeSize)\n          dup1\n          bytecodeSize\n          dup4\n          codecopy\n          dup2\n          dup2\n          add\n          0x40\n          mstore\n          dup2\n          add\n          swap1\n          tag_1\n          swap2\n          swap1\n          tag_2\n          jump\t// in\n        tag_1:\n            /* \"Voting.sol\":1633:1640  creator */\n          dup1\n            /* \"Voting.sol\":1623:1630  manager */\n          0x00\n          dup1\n            /* \"Voting.sol\":1623:1640  manager = creator */\n          0x0100\n          exp\n          dup2\n          sload\n          dup2\n          0xffffffffffffffffffffffffffffffffffffffff\n          mul\n          not\n          and\n          swap1\n          dup4\n          0xffffffffffffffffffffffffffffffffffffffff\n          and\n          mul\n          or\n          swap1\n          sstore\n          pop\n            /* \"Voting.sol\":1666:1683  totalChoicesInput */\n          dup4\n            /* \"Voting.sol\":1651:1663  totalChoices */\n          0x03\n            /* \"Voting.sol\":1651:1683  totalChoices = totalChoicesInput */\n          dup2\n          swap1\n          sstore\n          pop\n            /* \"Voting.sol\":1705:1718  fromDateInput */\n          dup3\n            /* \"Voting.sol\":1694:1702  fromDate */\n          0x04\n            /* \"Voting.sol\":1694:1718  fromDate = fromDateInput */\n          dup2\n          swap1\n          sstore\n          pop\n            /* \"Voting.sol\":1739:1751  endDateInput */\n          dup2\n            /* \"Voting.sol\":1729:1736  endDate */\n          0x05\n            /* \"Voting.sol\":1729:1751  endDate = endDateInput */\n          dup2\n          swap1\n          sstore\n          pop\n            /* \"Voting.sol\":1769:1775  uint i */\n          0x00\n            /* \"Voting.sol\":1778:1779  1 */\n          0x01\n            /* \"Voting.sol\":1769:1779  uint i = 1 */\n          swap1\n          pop\n            /* \"Voting.sol\":1764:2080  for (uint i = 1; i <= totalChoices; i++) {... */\n        tag_5:\n            /* \"Voting.sol\":1786:1798  totalChoices */\n          sload(0x03)\n            /* \"Voting.sol\":1781:1782  i */\n          dup2\n            /* \"Voting.sol\":1781:1798  i <= totalChoices */\n          gt\n            /* \"Voting.sol\":1764:2080  for (uint i = 1; i <= totalChoices; i++) {... */\n          tag_6\n          jumpi\n            /* \"Voting.sol\":1820:1851  choicesData storage choicesdata */\n          0x00\n            /* \"Voting.sol\":1854:1866  choicesDatas */\n          0x0c\n            /* \"Voting.sol\":1854:1873  choicesDatas.push() */\n          0x01\n          dup2\n          0x01\n          dup2\n          sload\n          add\n          dup1\n          dup3\n          sstore\n          dup1\n          swap2\n          pop\n          pop\n          sub\n          swap1\n          0x00\n          mstore\n          keccak256(0x00, 0x20)\n          swap1\n          0x03\n          mul\n          add\n            /* \"Voting.sol\":1820:1873  choicesData storage choicesdata = choicesDatas.push() */\n          swap1\n          pop\n            /* \"Voting.sol\":1950:1962  _uint2str(i) */\n          tag_9\n            /* \"Voting.sol\":1960:1961  i */\n          dup3\n            /* \"Voting.sol\":1950:1959  _uint2str */\n          shl(0x20, tag_10)\n            /* \"Voting.sol\":1950:1962  _uint2str(i) */\n          0x20\n          shr\n          jump\t// in\n        tag_9:\n            /* \"Voting.sol\":1921:1963  abi.encodePacked(\"Pilihan \", _uint2str(i)) */\n          add(0x20, mload(0x40))\n          tag_11\n          swap2\n          swap1\n          tag_12\n          jump\t// in\n        tag_11:\n          mload(0x40)\n          0x20\n          dup2\n          dup4\n          sub\n          sub\n          dup2\n          mstore\n          swap1\n          0x40\n          mstore\n            /* \"Voting.sol\":1888:1899  choicesdata */\n          dup2\n            /* \"Voting.sol\":1888:1911  choicesdata.description */\n          0x00\n          add\n            /* \"Voting.sol\":1888:1964  choicesdata.description = string(abi.encodePacked(\"Pilihan \", _uint2str(i))) */\n          swap1\n          dup2\n          tag_13\n          swap2\n          swap1\n          tag_14\n          jump\t// in\n        tag_13:\n          pop\n            /* \"Voting.sol\":2007:2008  0 */\n          0x00\n            /* \"Voting.sol\":1979:1990  choicesdata */\n          dup2\n            /* \"Voting.sol\":1979:2004  choicesdata.receivedVotes */\n          0x01\n          add\n            /* \"Voting.sol\":1979:2008  choicesdata.receivedVotes = 0 */\n          dup2\n          swap1\n          sstore\n          pop\n            /* \"Voting.sol\":2066:2067  0 */\n          0x00\n            /* \"Voting.sol\":2044:2068  new address payable[](0) */\n          0xffffffffffffffff\n          dup2\n          gt\n          iszero\n          tag_15\n          jumpi\n          tag_16\n          tag_17\n          jump\t// in\n        tag_16:\n        tag_15:\n          mload(0x40)\n          swap1\n          dup1\n          dup3\n          mstore\n          dup1\n          0x20\n          mul\n          0x20\n          add\n          dup3\n          add\n          0x40\n          mstore\n          dup1\n          iszero\n          tag_18\n          jumpi\n          dup2\n          0x20\n          add\n          0x20\n          dup3\n          mul\n          dup1\n          calldatasize\n          dup4\n          calldatacopy\n          dup1\n          dup3\n          add\n          swap2\n          pop\n          pop\n          swap1\n          pop\n        tag_18:\n          pop\n            /* \"Voting.sol\":2023:2034  choicesdata */\n          dup2\n            /* \"Voting.sol\":2023:2041  choicesdata.voters */\n          0x02\n          add\n            /* \"Voting.sol\":2023:2068  choicesdata.voters = new address payable[](0) */\n          swap1\n          dup1\n          mload\n          swap1\n          0x20\n          add\n          swap1\n          tag_19\n          swap3\n          swap2\n          swap1\n          tag_20\n          jump\t// in\n        tag_19:\n          pop\n            /* \"Voting.sol\":1805:2080  {... */\n          pop\n            /* \"Voting.sol\":1800:1803  i++ */\n          dup1\n          dup1\n          tag_21\n          swap1\n          tag_22\n          jump\t// in\n        tag_21:\n          swap2\n          pop\n          pop\n            /* \"Voting.sol\":1764:2080  for (uint i = 1; i <= totalChoices; i++) {... */\n          jump(tag_5)\n        tag_6:\n          pop\n            /* \"Voting.sol\":1512:2087  constructor(uint totalChoicesInput, uint fromDateInput, uint endDateInput, address creator) payable {... */\n          pop\n          pop\n          pop\n          pop\n            /* \"Voting.sol\":798:6916  contract Voting {... */\n          jump(tag_23)\n            /* \"Voting.sol\":6322:6913  function _uint2str(uint _i) internal pure returns (string memory str) { /* change uint to string */... */\n        tag_10:\n            /* \"Voting.sol\":6373:6390  string memory str */\n          0x60\n            /* \"Voting.sol\":6441:6442  0 */\n          0x00\n            /* \"Voting.sol\":6435:6437  _i */\n          dup3\n            /* \"Voting.sol\":6435:6442  _i == 0 */\n          sub\n            /* \"Voting.sol\":6431:6481  if (_i == 0) {... */\n          tag_25\n          jumpi\n            /* \"Voting.sol\":6459:6469  return \"0\" */\n          mload(0x40)\n          dup1\n          0x40\n          add\n          0x40\n          mstore\n          dup1\n          0x01\n          dup2\n          mstore\n          0x20\n          add\n          0x3000000000000000000000000000000000000000000000000000000000000000\n          dup2\n          mstore\n          pop\n          swap1\n          pop\n          jump(tag_24)\n            /* \"Voting.sol\":6431:6481  if (_i == 0) {... */\n        tag_25:\n            /* \"Voting.sol\":6491:6497  uint j */\n          0x00\n            /* \"Voting.sol\":6500:6502  _i */\n          dup3\n            /* \"Voting.sol\":6491:6502  uint j = _i */\n          swap1\n          pop\n            /* \"Voting.sol\":6513:6524  uint length */\n          0x00\n            /* \"Voting.sol\":6535:6607  while (j != 0) {... */\n        tag_26:\n            /* \"Voting.sol\":6547:6548  0 */\n          0x00\n            /* \"Voting.sol\":6542:6543  j */\n          dup3\n            /* \"Voting.sol\":6542:6548  j != 0 */\n          eq\n            /* \"Voting.sol\":6535:6607  while (j != 0) {... */\n          tag_27\n          jumpi\n            /* \"Voting.sol\":6565:6573  length++ */\n          dup1\n          dup1\n          tag_28\n          swap1\n          tag_22\n          jump\t// in\n        tag_28:\n          swap2\n          pop\n          pop\n            /* \"Voting.sol\":6593:6595  10 */\n          0x0a\n            /* \"Voting.sol\":6588:6595  j /= 10 */\n          dup3\n          tag_29\n          swap2\n          swap1\n          tag_30\n          jump\t// in\n        tag_29:\n          swap2\n          pop\n            /* \"Voting.sol\":6535:6607  while (j != 0) {... */\n          jump(tag_26)\n        tag_27:\n            /* \"Voting.sol\":6617:6634  bytes memory bstr */\n          0x00\n            /* \"Voting.sol\":6647:6653  length */\n          dup2\n            /* \"Voting.sol\":6637:6654  new bytes(length) */\n          0xffffffffffffffff\n          dup2\n          gt\n          iszero\n          tag_31\n          jumpi\n          tag_32\n          tag_17\n          jump\t// in\n        tag_32:\n        tag_31:\n          mload(0x40)\n          swap1\n          dup1\n          dup3\n          mstore\n          dup1\n          0x1f\n          add\n          not(0x1f)\n          and\n          0x20\n          add\n          dup3\n          add\n          0x40\n          mstore\n          dup1\n          iszero\n          tag_33\n          jumpi\n          dup2\n          0x20\n          add\n          0x01\n          dup3\n          mul\n          dup1\n          calldatasize\n          dup4\n          calldatacopy\n          dup1\n          dup3\n          add\n          swap2\n          pop\n          pop\n          swap1\n          pop\n        tag_33:\n          pop\n            /* \"Voting.sol\":6617:6654  bytes memory bstr = new bytes(length) */\n          swap1\n          pop\n            /* \"Voting.sol\":6665:6671  uint k */\n          0x00\n            /* \"Voting.sol\":6674:6680  length */\n          dup3\n            /* \"Voting.sol\":6665:6680  uint k = length */\n          swap1\n          pop\n            /* \"Voting.sol\":6691:6877  while (_i != 0) {... */\n        tag_34:\n            /* \"Voting.sol\":6704:6705  0 */\n          0x00\n            /* \"Voting.sol\":6698:6700  _i */\n          dup7\n            /* \"Voting.sol\":6698:6705  _i != 0 */\n          eq\n            /* \"Voting.sol\":6691:6877  while (_i != 0) {... */\n          tag_35\n          jumpi\n            /* \"Voting.sol\":6728:6729  1 */\n          0x01\n            /* \"Voting.sol\":6726:6727  k */\n          dup2\n            /* \"Voting.sol\":6726:6729  k-1 */\n          tag_36\n          swap2\n          swap1\n          tag_37\n          jump\t// in\n        tag_36:\n            /* \"Voting.sol\":6722:6729  k = k-1 */\n          swap1\n          pop\n            /* \"Voting.sol\":6744:6754  uint8 temp */\n          0x00\n            /* \"Voting.sol\":6773:6775  10 */\n          0x0a\n            /* \"Voting.sol\":6768:6770  _i */\n          dup8\n            /* \"Voting.sol\":6768:6775  _i % 10 */\n          tag_38\n          swap2\n          swap1\n          tag_39\n          jump\t// in\n        tag_38:\n            /* \"Voting.sol\":6763:6765  48 */\n          0x30\n            /* \"Voting.sol\":6763:6775  48 + _i % 10 */\n          tag_40\n          swap2\n          swap1\n          tag_41\n          jump\t// in\n        tag_40:\n            /* \"Voting.sol\":6744:6776  uint8 temp = uint8(48 + _i % 10) */\n          swap1\n          pop\n            /* \"Voting.sol\":6791:6800  bytes1 b1 */\n          0x00\n            /* \"Voting.sol\":6810:6814  temp */\n          dup2\n            /* \"Voting.sol\":6803:6815  bytes1(temp) */\n          0xf8\n          shl\n            /* \"Voting.sol\":6791:6815  bytes1 b1 = bytes1(temp) */\n          swap1\n          pop\n            /* \"Voting.sol\":6840:6842  b1 */\n          dup1\n            /* \"Voting.sol\":6830:6834  bstr */\n          dup5\n            /* \"Voting.sol\":6835:6836  k */\n          dup5\n            /* \"Voting.sol\":6830:6837  bstr[k] */\n          dup2\n          mload\n          dup2\n          lt\n          tag_42\n          jumpi\n          tag_43\n          tag_44\n          jump\t// in\n        tag_43:\n        tag_42:\n          0x20\n          add\n          add\n            /* \"Voting.sol\":6830:6842  bstr[k] = b1 */\n          swap1\n          not(0xffffffffffffffffffffffffffffffffffffffffffffffffffffffffffffff)\n          and\n          swap1\n          dup2\n          0x00\n          byte\n          swap1\n          mstore8\n          pop\n            /* \"Voting.sol\":6863:6865  10 */\n          0x0a\n            /* \"Voting.sol\":6857:6865  _i /= 10 */\n          dup9\n          tag_45\n          swap2\n          swap1\n          tag_30\n          jump\t// in\n        tag_45:\n          swap8\n          pop\n            /* \"Voting.sol\":6707:6877  {... */\n          pop\n          pop\n            /* \"Voting.sol\":6691:6877  while (_i != 0) {... */\n          jump(tag_34)\n        tag_35:\n            /* \"Voting.sol\":6900:6904  bstr */\n          dup2\n            /* \"Voting.sol\":6887:6905  str = string(bstr) */\n          swap5\n          pop\n            /* \"Voting.sol\":6392:6913  { /* change uint to string */... */\n          pop\n          pop\n          pop\n          pop\n            /* \"Voting.sol\":6322:6913  function _uint2str(uint _i) internal pure returns (string memory str) { /* change uint to string */... */\n        tag_24:\n          swap2\n          swap1\n          pop\n          jump\t// out\n            /* \"Voting.sol\":798:6916  contract Voting {... */\n        tag_20:\n          dup3\n          dup1\n          sload\n          dup3\n          dup3\n          sstore\n          swap1\n          0x00\n          mstore\n          keccak256(0x00, 0x20)\n          swap1\n          dup2\n          add\n          swap3\n          dup3\n          iszero\n          tag_46\n          jumpi\n          swap2\n          0x20\n          mul\n          dup3\n          add\n        tag_47:\n          dup3\n          dup2\n          gt\n          iszero\n          tag_48\n          jumpi\n          dup3\n          mload\n          dup3\n          exp(0x0100, 0x00)\n          dup2\n          sload\n          dup2\n          0xffffffffffffffffffffffffffffffffffffffff\n          mul\n          not\n          and\n          swap1\n          dup4\n          0xffffffffffffffffffffffffffffffffffffffff\n          and\n          mul\n          or\n          swap1\n          sstore\n          pop\n          swap2\n          0x20\n          add\n          swap2\n          swap1\n          0x01\n          add\n          swap1\n          jump(tag_47)\n        tag_48:\n        tag_46:\n          pop\n          swap1\n          pop\n          tag_49\n          swap2\n          swap1\n          tag_50\n          jump\t// in\n        tag_49:\n          pop\n          swap1\n          jump\t// out\n        tag_50:\n        tag_51:\n          dup1\n          dup3\n          gt\n          iszero\n          tag_52\n          jumpi\n          0x00\n          dup2\n          0x00\n          swap1\n          sstore\n          pop\n          0x01\n          add\n          jump(tag_51)\n        tag_52:\n          pop\n          swap1\n          jump\t// out\n            /* \"#utility.yul\":88:205   */\n        tag_54:\n            /* \"#utility.yul\":197:198   */\n          0x00\n            /* \"#utility.yul\":194:195   */\n          dup1\n            /* \"#utility.yul\":187:199   */\n          revert\n            /* \"#utility.yul\":334:411   */\n        tag_56:\n            /* \"#utility.yul\":371:378   */\n          0x00\n            /* \"#utility.yul\":400:405   */\n          dup2\n            /* \"#utility.yul\":389:405   */\n          swap1\n          pop\n            /* \"#utility.yul\":334:411   */\n          swap2\n          swap1\n          pop\n          jump\t// out\n            /* \"#utility.yul\":417:539   */\n        tag_57:\n            /* \"#utility.yul\":490:514   */\n          tag_94\n            /* \"#utility.yul\":508:513   */\n          dup2\n            /* \"#utility.yul\":490:514   */\n          tag_56\n          jump\t// in\n        tag_94:\n            /* \"#utility.yul\":483:488   */\n          dup2\n            /* \"#utility.yul\":480:515   */\n          eq\n            /* \"#utility.yul\":470:533   */\n          tag_95\n          jumpi\n            /* \"#utility.yul\":529:530   */\n          0x00\n            /* \"#utility.yul\":526:527   */\n          dup1\n            /* \"#utility.yul\":519:531   */\n          revert\n            /* \"#utility.yul\":470:533   */\n        tag_95:\n            /* \"#utility.yul\":417:539   */\n          pop\n          jump\t// out\n            /* \"#utility.yul\":545:688   */\n        tag_58:\n            /* \"#utility.yul\":602:607   */\n          0x00\n            /* \"#utility.yul\":633:639   */\n          dup2\n            /* \"#utility.yul\":627:640   */\n          mload\n            /* \"#utility.yul\":618:640   */\n          swap1\n          pop\n            /* \"#utility.yul\":649:682   */\n          tag_97\n            /* \"#utility.yul\":676:681   */\n          dup2\n            /* \"#utility.yul\":649:682   */\n          tag_57\n          jump\t// in\n        tag_97:\n            /* \"#utility.yul\":545:688   */\n          swap3\n          swap2\n          pop\n          pop\n          jump\t// out\n            /* \"#utility.yul\":694:820   */\n        tag_59:\n            /* \"#utility.yul\":731:738   */\n          0x00\n            /* \"#utility.yul\":771:813   */\n          0xffffffffffffffffffffffffffffffffffffffff\n            /* \"#utility.yul\":764:769   */\n          dup3\n            /* \"#utility.yul\":760:814   */\n          and\n            /* \"#utility.yul\":749:814   */\n          swap1\n          pop\n            /* \"#utility.yul\":694:820   */\n          swap2\n          swap1\n          pop\n          jump\t// out\n            /* \"#utility.yul\":826:922   */\n        tag_60:\n            /* \"#utility.yul\":863:870   */\n          0x00\n            /* \"#utility.yul\":892:916   */\n          tag_100\n            /* \"#utility.yul\":910:915   */\n          dup3\n            /* \"#utility.yul\":892:916   */\n          tag_59\n          jump\t// in\n        tag_100:\n            /* \"#utility.yul\":881:916   */\n          swap1\n          pop\n            /* \"#utility.yul\":826:922   */\n          swap2\n          swap1\n          pop\n          jump\t// out\n            /* \"#utility.yul\":928:1050   */\n        tag_61:\n            /* \"#utility.yul\":1001:1025   */\n          tag_102\n            /* \"#utility.yul\":1019:1024   */\n          dup2\n            /* \"#utility.yul\":1001:1025   */\n          tag_60\n          jump\t// in\n        tag_102:\n            /* \"#utility.yul\":994:999   */\n          dup2\n            /* \"#utility.yul\":991:1026   */\n          eq\n            /* \"#utility.yul\":981:1044   */\n          tag_103\n          jumpi\n            /* \"#utility.yul\":1040:1041   */\n          0x00\n            /* \"#utility.yul\":1037:1038   */\n          dup1\n            /* \"#utility.yul\":1030:1042   */\n          revert\n            /* \"#utility.yul\":981:1044   */\n        tag_103:\n            /* \"#utility.yul\":928:1050   */\n          pop\n          jump\t// out\n            /* \"#utility.yul\":1056:1199   */\n        tag_62:\n            /* \"#utility.yul\":1113:1118   */\n          0x00\n            /* \"#utility.yul\":1144:1150   */\n          dup2\n            /* \"#utility.yul\":1138:1151   */\n          mload\n            /* \"#utility.yul\":1129:1151   */\n          swap1\n          pop\n            /* \"#utility.yul\":1160:1193   */\n          tag_105\n            /* \"#utility.yul\":1187:1192   */\n          dup2\n            /* \"#utility.yul\":1160:1193   */\n          tag_61\n          jump\t// in\n        tag_105:\n            /* \"#utility.yul\":1056:1199   */\n          swap3\n          swap2\n          pop\n          pop\n          jump\t// out\n            /* \"#utility.yul\":1205:2025   */\n        tag_2:\n            /* \"#utility.yul\":1302:1308   */\n          0x00\n            /* \"#utility.yul\":1310:1316   */\n          dup1\n            /* \"#utility.yul\":1318:1324   */\n          0x00\n            /* \"#utility.yul\":1326:1332   */\n          dup1\n            /* \"#utility.yul\":1375:1378   */\n          0x80\n            /* \"#utility.yul\":1363:1372   */\n          dup6\n            /* \"#utility.yul\":1354:1361   */\n          dup8\n            /* \"#utility.yul\":1350:1373   */\n          sub\n            /* \"#utility.yul\":1346:1379   */\n          slt\n            /* \"#utility.yul\":1343:1463   */\n          iszero\n          tag_107\n          jumpi\n            /* \"#utility.yul\":1382:1461   */\n          tag_108\n          tag_54\n          jump\t// in\n        tag_108:\n            /* \"#utility.yul\":1343:1463   */\n        tag_107:\n            /* \"#utility.yul\":1502:1503   */\n          0x00\n            /* \"#utility.yul\":1527:1591   */\n          tag_109\n            /* \"#utility.yul\":1583:1590   */\n          dup8\n            /* \"#utility.yul\":1574:1580   */\n          dup3\n            /* \"#utility.yul\":1563:1572   */\n          dup9\n            /* \"#utility.yul\":1559:1581   */\n          add\n            /* \"#utility.yul\":1527:1591   */\n          tag_58\n          jump\t// in\n        tag_109:\n            /* \"#utility.yul\":1517:1591   */\n          swap5\n          pop\n            /* \"#utility.yul\":1473:1601   */\n          pop\n            /* \"#utility.yul\":1640:1642   */\n          0x20\n            /* \"#utility.yul\":1666:1730   */\n          tag_110\n            /* \"#utility.yul\":1722:1729   */\n          dup8\n            /* \"#utility.yul\":1713:1719   */\n          dup3\n            /* \"#utility.yul\":1702:1711   */\n          dup9\n            /* \"#utility.yul\":1698:1720   */\n          add\n            /* \"#utility.yul\":1666:1730   */\n          tag_58\n          jump\t// in\n        tag_110:\n            /* \"#utility.yul\":1656:1730   */\n          swap4\n          pop\n            /* \"#utility.yul\":1611:1740   */\n          pop\n            /* \"#utility.yul\":1779:1781   */\n          0x40\n            /* \"#utility.yul\":1805:1869   */\n          tag_111\n            /* \"#utility.yul\":1861:1868   */\n          dup8\n            /* \"#utility.yul\":1852:1858   */\n          dup3\n            /* \"#utility.yul\":1841:1850   */\n          dup9\n            /* \"#utility.yul\":1837:1859   */\n          add\n            /* \"#utility.yul\":1805:1869   */\n          tag_58\n          jump\t// in\n        tag_111:\n            /* \"#utility.yul\":1795:1869   */\n          swap3\n          pop\n            /* \"#utility.yul\":1750:1879   */\n          pop\n            /* \"#utility.yul\":1918:1920   */\n          0x60\n            /* \"#utility.yul\":1944:2008   */\n          tag_112\n            /* \"#utility.yul\":2000:2007   */\n          dup8\n            /* \"#utility.yul\":1991:1997   */\n          dup3\n            /* \"#utility.yul\":1980:1989   */\n          dup9\n            /* \"#utility.yul\":1976:1998   */\n          add\n            /* \"#utility.yul\":1944:2008   */\n          tag_62\n          jump\t// in\n        tag_112:\n            /* \"#utility.yul\":1934:2008   */\n          swap2\n          pop\n            /* \"#utility.yul\":1889:2018   */\n          pop\n            /* \"#utility.yul\":1205:2025   */\n          swap3\n          swap6\n          swap2\n          swap5\n          pop\n          swap3\n          pop\n          jump\t// out\n            /* \"#utility.yul\":2031:2179   */\n        tag_63:\n            /* \"#utility.yul\":2133:2144   */\n          0x00\n            /* \"#utility.yul\":2170:2173   */\n          dup2\n            /* \"#utility.yul\":2155:2173   */\n          swap1\n          pop\n            /* \"#utility.yul\":2031:2179   */\n          swap3\n          swap2\n          pop\n          pop\n          jump\t// out\n            /* \"#utility.yul\":2185:2343   */\n        tag_64:\n            /* \"#utility.yul\":2325:2335   */\n          0x50696c6968616e20000000000000000000000000000000000000000000000000\n            /* \"#utility.yul\":2321:2322   */\n          0x00\n            /* \"#utility.yul\":2313:2319   */\n          dup3\n            /* \"#utility.yul\":2309:2323   */\n          add\n            /* \"#utility.yul\":2302:2336   */\n          mstore\n            /* \"#utility.yul\":2185:2343   */\n          pop\n          jump\t// out\n            /* \"#utility.yul\":2349:2749   */\n        tag_65:\n            /* \"#utility.yul\":2509:2512   */\n          0x00\n            /* \"#utility.yul\":2530:2614   */\n          tag_116\n            /* \"#utility.yul\":2612:2613   */\n          0x08\n            /* \"#utility.yul\":2607:2610   */\n          dup4\n            /* \"#utility.yul\":2530:2614   */\n          tag_63\n          jump\t// in\n        tag_116:\n            /* \"#utility.yul\":2523:2614   */\n          swap2\n          pop\n            /* \"#utility.yul\":2623:2716   */\n          tag_117\n            /* \"#utility.yul\":2712:2715   */\n          dup3\n            /* \"#utility.yul\":2623:2716   */\n          tag_64\n          jump\t// in\n        tag_117:\n            /* \"#utility.yul\":2741:2742   */\n          0x08\n            /* \"#utility.yul\":2736:2739   */\n          dup3\n            /* \"#utility.yul\":2732:2743   */\n          add\n            /* \"#utility.yul\":2725:2743   */\n          swap1\n          pop\n            /* \"#utility.yul\":2349:2749   */\n          swap2\n          swap1\n          pop\n          jump\t// out\n            /* \"#utility.yul\":2755:2854   */\n        tag_66:\n            /* \"#utility.yul\":2807:2813   */\n          0x00\n            /* \"#utility.yul\":2841:2846   */\n          dup2\n            /* \"#utility.yul\":2835:2847   */\n          mload\n            /* \"#utility.yul\":2825:2847   */\n          swap1\n          pop\n            /* \"#utility.yul\":2755:2854   */\n          swap2\n          swap1\n          pop\n          jump\t// out\n            /* \"#utility.yul\":2860:3106   */\n        tag_67:\n            /* \"#utility.yul\":2941:2942   */\n          0x00\n            /* \"#utility.yul\":2951:3064   */\n        tag_120:\n            /* \"#utility.yul\":2965:2971   */\n          dup4\n            /* \"#utility.yul\":2962:2963   */\n          dup2\n            /* \"#utility.yul\":2959:2972   */\n          lt\n            /* \"#utility.yul\":2951:3064   */\n          iszero\n          tag_122\n          jumpi\n            /* \"#utility.yul\":3050:3051   */\n          dup1\n            /* \"#utility.yul\":3045:3048   */\n          dup3\n            /* \"#utility.yul\":3041:3052   */\n          add\n            /* \"#utility.yul\":3035:3053   */\n          mload\n            /* \"#utility.yul\":3031:3032   */\n          dup2\n            /* \"#utility.yul\":3026:3029   */\n          dup5\n            /* \"#utility.yul\":3022:3033   */\n          add\n            /* \"#utility.yul\":3015:3054   */\n          mstore\n            /* \"#utility.yul\":2987:2989   */\n          0x20\n            /* \"#utility.yul\":2984:2985   */\n          dup2\n            /* \"#utility.yul\":2980:2990   */\n          add\n            /* \"#utility.yul\":2975:2990   */\n          swap1\n          pop\n            /* \"#utility.yul\":2951:3064   */\n          jump(tag_120)\n        tag_122:\n            /* \"#utility.yul\":3098:3099   */\n          0x00\n            /* \"#utility.yul\":3089:3095   */\n          dup5\n            /* \"#utility.yul\":3084:3087   */\n          dup5\n            /* \"#utility.yul\":3080:3096   */\n          add\n            /* \"#utility.yul\":3073:3100   */\n          mstore\n            /* \"#utility.yul\":2922:3106   */\n          pop\n            /* \"#utility.yul\":2860:3106   */\n          pop\n          pop\n          pop\n          jump\t// out\n            /* \"#utility.yul\":3112:3502   */\n        tag_68:\n            /* \"#utility.yul\":3218:3221   */\n          0x00\n            /* \"#utility.yul\":3246:3285   */\n          tag_124\n            /* \"#utility.yul\":3279:3284   */\n          dup3\n            /* \"#utility.yul\":3246:3285   */\n          tag_66\n          jump\t// in\n        tag_124:\n            /* \"#utility.yul\":3301:3390   */\n          tag_125\n            /* \"#utility.yul\":3383:3389   */\n          dup2\n            /* \"#utility.yul\":3378:3381   */\n          dup6\n            /* \"#utility.yul\":3301:3390   */\n          tag_63\n          jump\t// in\n        tag_125:\n            /* \"#utility.yul\":3294:3390   */\n          swap4\n          pop\n            /* \"#utility.yul\":3399:3464   */\n          tag_126\n            /* \"#utility.yul\":3457:3463   */\n          dup2\n            /* \"#utility.yul\":3452:3455   */\n          dup6\n            /* \"#utility.yul\":3445:3449   */\n          0x20\n            /* \"#utility.yul\":3438:3443   */\n          dup7\n            /* \"#utility.yul\":3434:3450   */\n          add\n            /* \"#utility.yul\":3399:3464   */\n          tag_67\n          jump\t// in\n        tag_126:\n            /* \"#utility.yul\":3489:3495   */\n          dup1\n            /* \"#utility.yul\":3484:3487   */\n          dup5\n            /* \"#utility.yul\":3480:3496   */\n          add\n            /* \"#utility.yul\":3473:3496   */\n          swap2\n          pop\n            /* \"#utility.yul\":3222:3502   */\n          pop\n            /* \"#utility.yul\":3112:3502   */\n          swap3\n          swap2\n          pop\n          pop\n          jump\t// out\n            /* \"#utility.yul\":3508:4049   */\n        tag_12:\n            /* \"#utility.yul\":3741:3744   */\n          0x00\n            /* \"#utility.yul\":3763:3911   */\n          tag_128\n            /* \"#utility.yul\":3907:3910   */\n          dup3\n            /* \"#utility.yul\":3763:3911   */\n          tag_65\n          jump\t// in\n        tag_128:\n            /* \"#utility.yul\":3756:3911   */\n          swap2\n          pop\n            /* \"#utility.yul\":3928:4023   */\n          tag_129\n            /* \"#utility.yul\":4019:4022   */\n          dup3\n            /* \"#utility.yul\":4010:4016   */\n          dup5\n            /* \"#utility.yul\":3928:4023   */\n          tag_68\n          jump\t// in\n        tag_129:\n            /* \"#utility.yul\":3921:4023   */\n          swap2\n          pop\n            /* \"#utility.yul\":4040:4043   */\n          dup2\n            /* \"#utility.yul\":4033:4043   */\n          swap1\n          pop\n            /* \"#utility.yul\":3508:4049   */\n          swap3\n          swap2\n          pop\n          pop\n          jump\t// out\n            /* \"#utility.yul\":4055:4235   */\n        tag_17:\n            /* \"#utility.yul\":4103:4180   */\n          0x4e487b7100000000000000000000000000000000000000000000000000000000\n            /* \"#utility.yul\":4100:4101   */\n          0x00\n            /* \"#utility.yul\":4093:4181   */\n          mstore\n            /* \"#utility.yul\":4200:4204   */\n          0x41\n            /* \"#utility.yul\":4197:4198   */\n          0x04\n            /* \"#utility.yul\":4190:4205   */\n          mstore\n            /* \"#utility.yul\":4224:4228   */\n          0x24\n            /* \"#utility.yul\":4221:4222   */\n          0x00\n            /* \"#utility.yul\":4214:4229   */\n          revert\n            /* \"#utility.yul\":4241:4421   */\n        tag_69:\n            /* \"#utility.yul\":4289:4366   */\n          0x4e487b7100000000000000000000000000000000000000000000000000000000\n            /* \"#utility.yul\":4286:4287   */\n          0x00\n            /* \"#utility.yul\":4279:4367   */\n          mstore\n            /* \"#utility.yul\":4386:4390   */\n          0x22\n            /* \"#utility.yul\":4383:4384   */\n          0x04\n            /* \"#utility.yul\":4376:4391   */\n          mstore\n            /* \"#utility.yul\":4410:4414   */\n          0x24\n            /* \"#utility.yul\":4407:4408   */\n          0x00\n            /* \"#utility.yul\":4400:4415   */\n          revert\n            /* \"#utility.yul\":4427:4747   */\n        tag_70:\n            /* \"#utility.yul\":4471:4477   */\n          0x00\n            /* \"#utility.yul\":4508:4509   */\n          0x02\n            /* \"#utility.yul\":4502:4506   */\n          dup3\n            /* \"#utility.yul\":4498:4510   */\n          div\n            /* \"#utility.yul\":4488:4510   */\n          swap1\n          pop\n            /* \"#utility.yul\":4555:4556   */\n          0x01\n            /* \"#utility.yul\":4549:4553   */\n          dup3\n            /* \"#utility.yul\":4545:4557   */\n          and\n            /* \"#utility.yul\":4576:4594   */\n          dup1\n            /* \"#utility.yul\":4566:4647   */\n          tag_133\n          jumpi\n            /* \"#utility.yul\":4632:4636   */\n          0x7f\n            /* \"#utility.yul\":4624:4630   */\n          dup3\n            /* \"#utility.yul\":4620:4637   */\n          and\n            /* \"#utility.yul\":4610:4637   */\n          swap2\n          pop\n            /* \"#utility.yul\":4566:4647   */\n        tag_133:\n            /* \"#utility.yul\":4694:4696   */\n          0x20\n            /* \"#utility.yul\":4686:4692   */\n          dup3\n            /* \"#utility.yul\":4683:4697   */\n          lt\n            /* \"#utility.yul\":4663:4681   */\n          dup2\n            /* \"#utility.yul\":4660:4698   */\n          sub\n            /* \"#utility.yul\":4657:4741   */\n          tag_134\n          jumpi\n            /* \"#utility.yul\":4713:4731   */\n          tag_135\n          tag_69\n          jump\t// in\n        tag_135:\n            /* \"#utility.yul\":4657:4741   */\n        tag_134:\n            /* \"#utility.yul\":4478:4747   */\n          pop\n            /* \"#utility.yul\":4427:4747   */\n          swap2\n          swap1\n          pop\n          jump\t// out\n            /* \"#utility.yul\":4753:4894   */\n        tag_71:\n            /* \"#utility.yul\":4802:4806   */\n          0x00\n            /* \"#utility.yul\":4825:4828   */\n          dup2\n            /* \"#utility.yul\":4817:4828   */\n          swap1\n          pop\n            /* \"#utility.yul\":4848:4851   */\n          dup2\n            /* \"#utility.yul\":4845:4846   */\n          0x00\n            /* \"#utility.yul\":4838:4852   */\n          mstore\n            /* \"#utility.yul\":4882:4886   */\n          0x20\n            /* \"#utility.yul\":4879:4880   */\n          0x00\n            /* \"#utility.yul\":4869:4887   */\n          keccak256\n            /* \"#utility.yul\":4861:4887   */\n          swap1\n          pop\n            /* \"#utility.yul\":4753:4894   */\n          swap2\n          swap1\n          pop\n          jump\t// out\n            /* \"#utility.yul\":4900:4993   */\n        tag_72:\n            /* \"#utility.yul\":4937:4943   */\n          0x00\n            /* \"#utility.yul\":4984:4986   */\n          0x20\n            /* \"#utility.yul\":4979:4981   */\n          0x1f\n            /* \"#utility.yul\":4972:4977   */\n          dup4\n            /* \"#utility.yul\":4968:4982   */\n          add\n            /* \"#utility.yul\":4964:4987   */\n          div\n            /* \"#utility.yul\":4954:4987   */\n          swap1\n          pop\n            /* \"#utility.yul\":4900:4993   */\n          swap2\n          swap1\n          pop\n          jump\t// out\n            /* \"#utility.yul\":4999:5106   */\n        tag_73:\n            /* \"#utility.yul\":5043:5051   */\n          0x00\n            /* \"#utility.yul\":5093:5098   */\n          dup3\n            /* \"#utility.yul\":5087:5091   */\n          dup3\n            /* \"#utility.yul\":5083:5099   */\n          shl\n            /* \"#utility.yul\":5062:5099   */\n          swap1\n          pop\n            /* \"#utility.yul\":4999:5106   */\n          swap3\n          swap2\n          pop\n          pop\n          jump\t// out\n            /* \"#utility.yul\":5112:5505   */\n        tag_74:\n            /* \"#utility.yul\":5181:5187   */\n          0x00\n            /* \"#utility.yul\":5231:5232   */\n          0x08\n            /* \"#utility.yul\":5219:5229   */\n          dup4\n            /* \"#utility.yul\":5215:5233   */\n          mul\n            /* \"#utility.yul\":5254:5351   */\n          tag_140\n            /* \"#utility.yul\":5284:5350   */\n          0xffffffffffffffffffffffffffffffffffffffffffffffffffffffffffffffff\n            /* \"#utility.yul\":5273:5282   */\n          dup3\n            /* \"#utility.yul\":5254:5351   */\n          tag_73\n          jump\t// in\n        tag_140:\n            /* \"#utility.yul\":5372:5411   */\n          tag_141\n            /* \"#utility.yul\":5402:5410   */\n          dup7\n            /* \"#utility.yul\":5391:5400   */\n          dup4\n            /* \"#utility.yul\":5372:5411   */\n          tag_73\n          jump\t// in\n        tag_141:\n            /* \"#utility.yul\":5360:5411   */\n          swap6\n          pop\n            /* \"#utility.yul\":5444:5448   */\n          dup1\n            /* \"#utility.yul\":5440:5449   */\n          not\n            /* \"#utility.yul\":5433:5438   */\n          dup5\n            /* \"#utility.yul\":5429:5450   */\n          and\n            /* \"#utility.yul\":5420:5450   */\n          swap4\n          pop\n            /* \"#utility.yul\":5493:5497   */\n          dup1\n            /* \"#utility.yul\":5483:5491   */\n          dup7\n            /* \"#utility.yul\":5479:5498   */\n          and\n            /* \"#utility.yul\":5472:5477   */\n          dup5\n            /* \"#utility.yul\":5469:5499   */\n          or\n            /* \"#utility.yul\":5459:5499   */\n          swap3\n          pop\n            /* \"#utility.yul\":5188:5505   */\n          pop\n          pop\n            /* \"#utility.yul\":5112:5505   */\n          swap4\n          swap3\n          pop\n          pop\n          pop\n          jump\t// out\n            /* \"#utility.yul\":5511:5571   */\n        tag_75:\n            /* \"#utility.yul\":5539:5542   */\n          0x00\n            /* \"#utility.yul\":5560:5565   */\n          dup2\n            /* \"#utility.yul\":5553:5565   */\n          swap1\n          pop\n            /* \"#utility.yul\":5511:5571   */\n          swap2\n          swap1\n          pop\n          jump\t// out\n            /* \"#utility.yul\":5577:5719   */\n        tag_76:\n            /* \"#utility.yul\":5627:5636   */\n          0x00\n            /* \"#utility.yul\":5660:5713   */\n          tag_144\n            /* \"#utility.yul\":5678:5712   */\n          tag_145\n            /* \"#utility.yul\":5687:5711   */\n          tag_146\n            /* \"#utility.yul\":5705:5710   */\n          dup5\n            /* \"#utility.yul\":5687:5711   */\n          tag_56\n          jump\t// in\n        tag_146:\n            /* \"#utility.yul\":5678:5712   */\n          tag_75\n          jump\t// in\n        tag_145:\n            /* \"#utility.yul\":5660:5713   */\n          tag_56\n          jump\t// in\n        tag_144:\n            /* \"#utility.yul\":5647:5713   */\n          swap1\n          pop\n            /* \"#utility.yul\":5577:5719   */\n          swap2\n          swap1\n          pop\n          jump\t// out\n            /* \"#utility.yul\":5725:5800   */\n        tag_77:\n            /* \"#utility.yul\":5768:5771   */\n          0x00\n            /* \"#utility.yul\":5789:5794   */\n          dup2\n            /* \"#utility.yul\":5782:5794   */\n          swap1\n          pop\n            /* \"#utility.yul\":5725:5800   */\n          swap2\n          swap1\n          pop\n          jump\t// out\n            /* \"#utility.yul\":5806:6075   */\n        tag_78:\n            /* \"#utility.yul\":5916:5955   */\n          tag_149\n            /* \"#utility.yul\":5947:5954   */\n          dup4\n            /* \"#utility.yul\":5916:5955   */\n          tag_76\n          jump\t// in\n        tag_149:\n            /* \"#utility.yul\":5977:6068   */\n          tag_150\n            /* \"#utility.yul\":6026:6067   */\n          tag_151\n            /* \"#utility.yul\":6050:6066   */\n          dup3\n            /* \"#utility.yul\":6026:6067   */\n          tag_77\n          jump\t// in\n        tag_151:\n            /* \"#utility.yul\":6018:6024   */\n          dup5\n            /* \"#utility.yul\":6011:6015   */\n          dup5\n            /* \"#utility.yul\":6005:6016   */\n          sload\n            /* \"#utility.yul\":5977:6068   */\n          tag_74\n          jump\t// in\n        tag_150:\n            /* \"#utility.yul\":5971:5975   */\n          dup3\n            /* \"#utility.yul\":5964:6069   */\n          sstore\n            /* \"#utility.yul\":5882:6075   */\n          pop\n            /* \"#utility.yul\":5806:6075   */\n          pop\n          pop\n          pop\n          jump\t// out\n            /* \"#utility.yul\":6081:6154   */\n        tag_79:\n            /* \"#utility.yul\":6126:6129   */\n          0x00\n            /* \"#utility.yul\":6081:6154   */\n          swap1\n          jump\t// out\n            /* \"#utility.yul\":6160:6349   */\n        tag_80:\n            /* \"#utility.yul\":6237:6269   */\n          tag_154\n          tag_79\n          jump\t// in\n        tag_154:\n            /* \"#utility.yul\":6278:6343   */\n          tag_155\n            /* \"#utility.yul\":6336:6342   */\n          dup2\n            /* \"#utility.yul\":6328:6334   */\n          dup5\n            /* \"#utility.yul\":6322:6326   */\n          dup5\n            /* \"#utility.yul\":6278:6343   */\n          tag_78\n          jump\t// in\n        tag_155:\n            /* \"#utility.yul\":6213:6349   */\n          pop\n            /* \"#utility.yul\":6160:6349   */\n          pop\n          pop\n          jump\t// out\n            /* \"#utility.yul\":6355:6541   */\n        tag_81:\n            /* \"#utility.yul\":6415:6535   */\n        tag_157:\n            /* \"#utility.yul\":6432:6435   */\n          dup2\n            /* \"#utility.yul\":6425:6430   */\n          dup2\n            /* \"#utility.yul\":6422:6436   */\n          lt\n            /* \"#utility.yul\":6415:6535   */\n          iszero\n          tag_159\n          jumpi\n            /* \"#utility.yul\":6486:6525   */\n          tag_160\n            /* \"#utility.yul\":6523:6524   */\n          0x00\n            /* \"#utility.yul\":6516:6521   */\n          dup3\n            /* \"#utility.yul\":6486:6525   */\n          tag_80\n          jump\t// in\n        tag_160:\n            /* \"#utility.yul\":6459:6460   */\n          0x01\n            /* \"#utility.yul\":6452:6457   */\n          dup2\n            /* \"#utility.yul\":6448:6461   */\n          add\n            /* \"#utility.yul\":6439:6461   */\n          swap1\n          pop\n            /* \"#utility.yul\":6415:6535   */\n          jump(tag_157)\n        tag_159:\n            /* \"#utility.yul\":6355:6541   */\n          pop\n          pop\n          jump\t// out\n            /* \"#utility.yul\":6547:7090   */\n        tag_82:\n            /* \"#utility.yul\":6648:6650   */\n          0x1f\n            /* \"#utility.yul\":6643:6646   */\n          dup3\n            /* \"#utility.yul\":6640:6651   */\n          gt\n            /* \"#utility.yul\":6637:7083   */\n          iszero\n          tag_162\n          jumpi\n            /* \"#utility.yul\":6682:6720   */\n          tag_163\n            /* \"#utility.yul\":6714:6719   */\n          dup2\n            /* \"#utility.yul\":6682:6720   */\n          tag_71\n          jump\t// in\n        tag_163:\n            /* \"#utility.yul\":6766:6795   */\n          tag_164\n            /* \"#utility.yul\":6784:6794   */\n          dup5\n            /* \"#utility.yul\":6766:6795   */\n          tag_72\n          jump\t// in\n        tag_164:\n            /* \"#utility.yul\":6756:6764   */\n          dup2\n            /* \"#utility.yul\":6752:6796   */\n          add\n            /* \"#utility.yul\":6949:6951   */\n          0x20\n            /* \"#utility.yul\":6937:6947   */\n          dup6\n            /* \"#utility.yul\":6934:6952   */\n          lt\n            /* \"#utility.yul\":6931:6980   */\n          iszero\n          tag_165\n          jumpi\n            /* \"#utility.yul\":6970:6978   */\n          dup2\n            /* \"#utility.yul\":6955:6978   */\n          swap1\n          pop\n            /* \"#utility.yul\":6931:6980   */\n        tag_165:\n            /* \"#utility.yul\":6993:7073   */\n          tag_166\n            /* \"#utility.yul\":7049:7071   */\n          tag_167\n            /* \"#utility.yul\":7067:7070   */\n          dup6\n            /* \"#utility.yul\":7049:7071   */\n          tag_72\n          jump\t// in\n        tag_167:\n            /* \"#utility.yul\":7039:7047   */\n          dup4\n            /* \"#utility.yul\":7035:7072   */\n          add\n            /* \"#utility.yul\":7022:7033   */\n          dup3\n            /* \"#utility.yul\":6993:7073   */\n          tag_81\n          jump\t// in\n        tag_166:\n            /* \"#utility.yul\":6652:7083   */\n          pop\n          pop\n            /* \"#utility.yul\":6637:7083   */\n        tag_162:\n            /* \"#utility.yul\":6547:7090   */\n          pop\n          pop\n          pop\n          jump\t// out\n            /* \"#utility.yul\":7096:7213   */\n        tag_83:\n            /* \"#utility.yul\":7150:7158   */\n          0x00\n            /* \"#utility.yul\":7200:7205   */\n          dup3\n            /* \"#utility.yul\":7194:7198   */\n          dup3\n            /* \"#utility.yul\":7190:7206   */\n          shr\n            /* \"#utility.yul\":7169:7206   */\n          swap1\n          pop\n            /* \"#utility.yul\":7096:7213   */\n          swap3\n          swap2\n          pop\n          pop\n          jump\t// out\n            /* \"#utility.yul\":7219:7388   */\n        tag_84:\n            /* \"#utility.yul\":7263:7269   */\n          0x00\n            /* \"#utility.yul\":7296:7347   */\n          tag_170\n            /* \"#utility.yul\":7344:7345   */\n          0x00\n            /* \"#utility.yul\":7340:7346   */\n          not\n            /* \"#utility.yul\":7332:7337   */\n          dup5\n            /* \"#utility.yul\":7329:7330   */\n          0x08\n            /* \"#utility.yul\":7325:7338   */\n          mul\n            /* \"#utility.yul\":7296:7347   */\n          tag_83\n          jump\t// in\n        tag_170:\n            /* \"#utility.yul\":7292:7348   */\n          not\n            /* \"#utility.yul\":7377:7381   */\n          dup1\n            /* \"#utility.yul\":7371:7375   */\n          dup4\n            /* \"#utility.yul\":7367:7382   */\n          and\n            /* \"#utility.yul\":7357:7382   */\n          swap2\n          pop\n            /* \"#utility.yul\":7270:7388   */\n          pop\n            /* \"#utility.yul\":7219:7388   */\n          swap3\n          swap2\n          pop\n          pop\n          jump\t// out\n            /* \"#utility.yul\":7393:7688   */\n        tag_85:\n            /* \"#utility.yul\":7469:7473   */\n          0x00\n            /* \"#utility.yul\":7615:7644   */\n          tag_172\n            /* \"#utility.yul\":7640:7643   */\n          dup4\n            /* \"#utility.yul\":7634:7638   */\n          dup4\n            /* \"#utility.yul\":7615:7644   */\n          tag_84\n          jump\t// in\n        tag_172:\n            /* \"#utility.yul\":7607:7644   */\n          swap2\n          pop\n            /* \"#utility.yul\":7677:7680   */\n          dup3\n            /* \"#utility.yul\":7674:7675   */\n          0x02\n            /* \"#utility.yul\":7670:7681   */\n          mul\n            /* \"#utility.yul\":7664:7668   */\n          dup3\n            /* \"#utility.yul\":7661:7682   */\n          or\n            /* \"#utility.yul\":7653:7682   */\n          swap1\n          pop\n            /* \"#utility.yul\":7393:7688   */\n          swap3\n          swap2\n          pop\n          pop\n          jump\t// out\n            /* \"#utility.yul\":7693:9088   */\n        tag_14:\n            /* \"#utility.yul\":7810:7847   */\n          tag_174\n            /* \"#utility.yul\":7843:7846   */\n          dup3\n            /* \"#utility.yul\":7810:7847   */\n          tag_66\n          jump\t// in\n        tag_174:\n            /* \"#utility.yul\":7912:7930   */\n          0xffffffffffffffff\n            /* \"#utility.yul\":7904:7910   */\n          dup2\n            /* \"#utility.yul\":7901:7931   */\n          gt\n            /* \"#utility.yul\":7898:7954   */\n          iszero\n          tag_175\n          jumpi\n            /* \"#utility.yul\":7934:7952   */\n          tag_176\n          tag_17\n          jump\t// in\n        tag_176:\n            /* \"#utility.yul\":7898:7954   */\n        tag_175:\n            /* \"#utility.yul\":7978:8016   */\n          tag_177\n            /* \"#utility.yul\":8010:8014   */\n          dup3\n            /* \"#utility.yul\":8004:8015   */\n          sload\n            /* \"#utility.yul\":7978:8016   */\n          tag_70\n          jump\t// in\n        tag_177:\n            /* \"#utility.yul\":8063:8130   */\n          tag_178\n            /* \"#utility.yul\":8123:8129   */\n          dup3\n            /* \"#utility.yul\":8115:8121   */\n          dup3\n            /* \"#utility.yul\":8109:8113   */\n          dup6\n            /* \"#utility.yul\":8063:8130   */\n          tag_82\n          jump\t// in\n        tag_178:\n            /* \"#utility.yul\":8157:8158   */\n          0x00\n            /* \"#utility.yul\":8181:8185   */\n          0x20\n            /* \"#utility.yul\":8168:8185   */\n          swap1\n          pop\n            /* \"#utility.yul\":8213:8215   */\n          0x1f\n            /* \"#utility.yul\":8205:8211   */\n          dup4\n            /* \"#utility.yul\":8202:8216   */\n          gt\n            /* \"#utility.yul\":8230:8231   */\n          0x01\n            /* \"#utility.yul\":8225:8843   */\n          dup2\n          eq\n          tag_180\n          jumpi\n            /* \"#utility.yul\":8887:8888   */\n          0x00\n            /* \"#utility.yul\":8904:8910   */\n          dup5\n            /* \"#utility.yul\":8901:8978   */\n          iszero\n          tag_181\n          jumpi\n            /* \"#utility.yul\":8953:8962   */\n          dup3\n            /* \"#utility.yul\":8948:8951   */\n          dup8\n            /* \"#utility.yul\":8944:8963   */\n          add\n            /* \"#utility.yul\":8938:8964   */\n          mload\n            /* \"#utility.yul\":8929:8964   */\n          swap1\n          pop\n            /* \"#utility.yul\":8901:8978   */\n        tag_181:\n            /* \"#utility.yul\":9004:9071   */\n          tag_182\n            /* \"#utility.yul\":9064:9070   */\n          dup6\n            /* \"#utility.yul\":9057:9062   */\n          dup3\n            /* \"#utility.yul\":9004:9071   */\n          tag_85\n          jump\t// in\n        tag_182:\n            /* \"#utility.yul\":8998:9002   */\n          dup7\n            /* \"#utility.yul\":8991:9072   */\n          sstore\n            /* \"#utility.yul\":8860:9082   */\n          pop\n            /* \"#utility.yul\":8195:9082   */\n          jump(tag_179)\n            /* \"#utility.yul\":8225:8843   */\n        tag_180:\n            /* \"#utility.yul\":8277:8281   */\n          0x1f\n            /* \"#utility.yul\":8273:8282   */\n          not\n            /* \"#utility.yul\":8265:8271   */\n          dup5\n            /* \"#utility.yul\":8261:8283   */\n          and\n            /* \"#utility.yul\":8311:8348   */\n          tag_183\n            /* \"#utility.yul\":8343:8347   */\n          dup7\n            /* \"#utility.yul\":8311:8348   */\n          tag_71\n          jump\t// in\n        tag_183:\n            /* \"#utility.yul\":8370:8371   */\n          0x00\n            /* \"#utility.yul\":8384:8592   */\n        tag_184:\n            /* \"#utility.yul\":8398:8405   */\n          dup3\n            /* \"#utility.yul\":8395:8396   */\n          dup2\n            /* \"#utility.yul\":8392:8406   */\n          lt\n            /* \"#utility.yul\":8384:8592   */\n          iszero\n          tag_186\n          jumpi\n            /* \"#utility.yul\":8477:8486   */\n          dup5\n            /* \"#utility.yul\":8472:8475   */\n          dup10\n            /* \"#utility.yul\":8468:8487   */\n          add\n            /* \"#utility.yul\":8462:8488   */\n          mload\n            /* \"#utility.yul\":8454:8460   */\n          dup3\n            /* \"#utility.yul\":8447:8489   */\n          sstore\n            /* \"#utility.yul\":8528:8529   */\n          0x01\n            /* \"#utility.yul\":8520:8526   */\n          dup3\n            /* \"#utility.yul\":8516:8530   */\n          add\n            /* \"#utility.yul\":8506:8530   */\n          swap2\n          pop\n            /* \"#utility.yul\":8575:8577   */\n          0x20\n            /* \"#utility.yul\":8564:8573   */\n          dup6\n            /* \"#utility.yul\":8560:8578   */\n          add\n            /* \"#utility.yul\":8547:8578   */\n          swap5\n          pop\n            /* \"#utility.yul\":8421:8425   */\n          0x20\n            /* \"#utility.yul\":8418:8419   */\n          dup2\n            /* \"#utility.yul\":8414:8426   */\n          add\n            /* \"#utility.yul\":8409:8426   */\n          swap1\n          pop\n            /* \"#utility.yul\":8384:8592   */\n          jump(tag_184)\n        tag_186:\n            /* \"#utility.yul\":8620:8626   */\n          dup7\n            /* \"#utility.yul\":8611:8618   */\n          dup4\n            /* \"#utility.yul\":8608:8627   */\n          lt\n            /* \"#utility.yul\":8605:8784   */\n          iszero\n          tag_187\n          jumpi\n            /* \"#utility.yul\":8678:8687   */\n          dup5\n            /* \"#utility.yul\":8673:8676   */\n          dup10\n            /* \"#utility.yul\":8669:8688   */\n          add\n            /* \"#utility.yul\":8663:8689   */\n          mload\n            /* \"#utility.yul\":8721:8769   */\n          tag_188\n            /* \"#utility.yul\":8763:8767   */\n          0x1f\n            /* \"#utility.yul\":8755:8761   */\n          dup10\n            /* \"#utility.yul\":8751:8768   */\n          and\n            /* \"#utility.yul\":8740:8749   */\n          dup3\n            /* \"#utility.yul\":8721:8769   */\n          tag_84\n          jump\t// in\n        tag_188:\n            /* \"#utility.yul\":8713:8719   */\n          dup4\n            /* \"#utility.yul\":8706:8770   */\n          sstore\n            /* \"#utility.yul\":8628:8784   */\n          pop\n            /* \"#utility.yul\":8605:8784   */\n        tag_187:\n            /* \"#utility.yul\":8830:8831   */\n          0x01\n            /* \"#utility.yul\":8826:8827   */\n          0x02\n            /* \"#utility.yul\":8818:8824   */\n          dup9\n            /* \"#utility.yul\":8814:8828   */\n          mul\n            /* \"#utility.yul\":8810:8832   */\n          add\n            /* \"#utility.yul\":8804:8808   */\n          dup9\n            /* \"#utility.yul\":8797:8833   */\n          sstore\n            /* \"#utility.yul\":8232:8843   */\n          pop\n          pop\n          pop\n            /* \"#utility.yul\":8195:9082   */\n        tag_179:\n          pop\n            /* \"#utility.yul\":7785:9088   */\n          pop\n          pop\n          pop\n            /* \"#utility.yul\":7693:9088   */\n          pop\n          pop\n          jump\t// out\n            /* \"#utility.yul\":9094:9274   */\n        tag_86:\n            /* \"#utility.yul\":9142:9219   */\n          0x4e487b7100000000000000000000000000000000000000000000000000000000\n            /* \"#utility.yul\":9139:9140   */\n          0x00\n            /* \"#utility.yul\":9132:9220   */\n          mstore\n            /* \"#utility.yul\":9239:9243   */\n          0x11\n            /* \"#utility.yul\":9236:9237   */\n          0x04\n            /* \"#utility.yul\":9229:9244   */\n          mstore\n            /* \"#utility.yul\":9263:9267   */\n          0x24\n            /* \"#utility.yul\":9260:9261   */\n          0x00\n            /* \"#utility.yul\":9253:9268   */\n          revert\n            /* \"#utility.yul\":9280:9513   */\n        tag_22:\n            /* \"#utility.yul\":9319:9322   */\n          0x00\n            /* \"#utility.yul\":9342:9366   */\n          tag_191\n            /* \"#utility.yul\":9360:9365   */\n          dup3\n            /* \"#utility.yul\":9342:9366   */\n          tag_56\n          jump\t// in\n        tag_191:\n            /* \"#utility.yul\":9333:9366   */\n          swap2\n          pop\n            /* \"#utility.yul\":9388:9454   */\n          0xffffffffffffffffffffffffffffffffffffffffffffffffffffffffffffffff\n            /* \"#utility.yul\":9381:9386   */\n          dup3\n            /* \"#utility.yul\":9378:9455   */\n          sub\n            /* \"#utility.yul\":9375:9478   */\n          tag_192\n          jumpi\n            /* \"#utility.yul\":9458:9476   */\n          tag_193\n          tag_86\n          jump\t// in\n        tag_193:\n            /* \"#utility.yul\":9375:9478   */\n        tag_192:\n            /* \"#utility.yul\":9505:9506   */\n          0x01\n            /* \"#utility.yul\":9498:9503   */\n          dup3\n            /* \"#utility.yul\":9494:9507   */\n          add\n            /* \"#utility.yul\":9487:9507   */\n          swap1\n          pop\n            /* \"#utility.yul\":9280:9513   */\n          swap2\n          swap1\n          pop\n          jump\t// out\n            /* \"#utility.yul\":9519:9699   */\n        tag_87:\n            /* \"#utility.yul\":9567:9644   */\n          0x4e487b7100000000000000000000000000000000000000000000000000000000\n            /* \"#utility.yul\":9564:9565   */\n          0x00\n            /* \"#utility.yul\":9557:9645   */\n          mstore\n            /* \"#utility.yul\":9664:9668   */\n          0x12\n            /* \"#utility.yul\":9661:9662   */\n          0x04\n            /* \"#utility.yul\":9654:9669   */\n          mstore\n            /* \"#utility.yul\":9688:9692   */\n          0x24\n            /* \"#utility.yul\":9685:9686   */\n          0x00\n            /* \"#utility.yul\":9678:9693   */\n          revert\n            /* \"#utility.yul\":9705:9890   */\n        tag_30:\n            /* \"#utility.yul\":9745:9746   */\n          0x00\n            /* \"#utility.yul\":9762:9782   */\n          tag_196\n            /* \"#utility.yul\":9780:9781   */\n          dup3\n            /* \"#utility.yul\":9762:9782   */\n          tag_56\n          jump\t// in\n        tag_196:\n            /* \"#utility.yul\":9757:9782   */\n          swap2\n          pop\n            /* \"#utility.yul\":9796:9816   */\n          tag_197\n            /* \"#utility.yul\":9814:9815   */\n          dup4\n            /* \"#utility.yul\":9796:9816   */\n          tag_56\n          jump\t// in\n        tag_197:\n            /* \"#utility.yul\":9791:9816   */\n          swap3\n          pop\n            /* \"#utility.yul\":9835:9836   */\n          dup3\n            /* \"#utility.yul\":9825:9860   */\n          tag_198\n          jumpi\n            /* \"#utility.yul\":9840:9858   */\n          tag_199\n          tag_87\n          jump\t// in\n        tag_199:\n            /* \"#utility.yul\":9825:9860   */\n        tag_198:\n            /* \"#utility.yul\":9882:9883   */\n          dup3\n            /* \"#utility.yul\":9879:9880   */\n          dup3\n            /* \"#utility.yul\":9875:9884   */\n          div\n            /* \"#utility.yul\":9870:9884   */\n          swap1\n          pop\n            /* \"#utility.yul\":9705:9890   */\n          swap3\n          swap2\n          pop\n          pop\n          jump\t// out\n            /* \"#utility.yul\":9896:10090   */\n        tag_37:\n            /* \"#utility.yul\":9936:9940   */\n          0x00\n            /* \"#utility.yul\":9956:9976   */\n          tag_201\n            /* \"#utility.yul\":9974:9975   */\n          dup3\n            /* \"#utility.yul\":9956:9976   */\n          tag_56\n          jump\t// in\n        tag_201:\n            /* \"#utility.yul\":9951:9976   */\n          swap2\n          pop\n            /* \"#utility.yul\":9990:10010   */\n          tag_202\n            /* \"#utility.yul\":10008:10009   */\n          dup4\n            /* \"#utility.yul\":9990:10010   */\n          tag_56\n          jump\t// in\n        tag_202:\n            /* \"#utility.yul\":9985:10010   */\n          swap3\n          pop\n            /* \"#utility.yul\":10034:10035   */\n          dup3\n            /* \"#utility.yul\":10031:10032   */\n          dup3\n            /* \"#utility.yul\":10027:10036   */\n          sub\n            /* \"#utility.yul\":10019:10036   */\n          swap1\n          pop\n            /* \"#utility.yul\":10058:10059   */\n          dup2\n            /* \"#utility.yul\":10052:10056   */\n          dup2\n            /* \"#utility.yul\":10049:10060   */\n          gt\n            /* \"#utility.yul\":10046:10083   */\n          iszero\n          tag_203\n          jumpi\n            /* \"#utility.yul\":10063:10081   */\n          tag_204\n          tag_86\n          jump\t// in\n        tag_204:\n            /* \"#utility.yul\":10046:10083   */\n        tag_203:\n            /* \"#utility.yul\":9896:10090   */\n          swap3\n          swap2\n          pop\n          pop\n          jump\t// out\n            /* \"#utility.yul\":10096:10272   */\n        tag_39:\n            /* \"#utility.yul\":10128:10129   */\n          0x00\n            /* \"#utility.yul\":10145:10165   */\n          tag_206\n            /* \"#utility.yul\":10163:10164   */\n          dup3\n            /* \"#utility.yul\":10145:10165   */\n          tag_56\n          jump\t// in\n        tag_206:\n            /* \"#utility.yul\":10140:10165   */\n          swap2\n          pop\n            /* \"#utility.yul\":10179:10199   */\n          tag_207\n            /* \"#utility.yul\":10197:10198   */\n          dup4\n            /* \"#utility.yul\":10179:10199   */\n          tag_56\n          jump\t// in\n        tag_207:\n            /* \"#utility.yul\":10174:10199   */\n          swap3\n          pop\n            /* \"#utility.yul\":10218:10219   */\n          dup3\n            /* \"#utility.yul\":10208:10243   */\n          tag_208\n          jumpi\n            /* \"#utility.yul\":10223:10241   */\n          tag_209\n          tag_87\n          jump\t// in\n        tag_209:\n            /* \"#utility.yul\":10208:10243   */\n        tag_208:\n            /* \"#utility.yul\":10264:10265   */\n          dup3\n            /* \"#utility.yul\":10261:10262   */\n          dup3\n            /* \"#utility.yul\":10257:10266   */\n          mod\n            /* \"#utility.yul\":10252:10266   */\n          swap1\n          pop\n            /* \"#utility.yul\":10096:10272   */\n          swap3\n          swap2\n          pop\n          pop\n          jump\t// out\n            /* \"#utility.yul\":10278:10469   */\n        tag_41:\n            /* \"#utility.yul\":10318:10321   */\n          0x00\n            /* \"#utility.yul\":10337:10357   */\n          tag_211\n            /* \"#utility.yul\":10355:10356   */\n          dup3\n            /* \"#utility.yul\":10337:10357   */\n          tag_56\n          jump\t// in\n        tag_211:\n            /* \"#utility.yul\":10332:10357   */\n          swap2\n          pop\n            /* \"#utility.yul\":10371:10391   */\n          tag_212\n            /* \"#utility.yul\":10389:10390   */\n          dup4\n            /* \"#utility.yul\":10371:10391   */\n          tag_56\n          jump\t// in\n        tag_212:\n            /* \"#utility.yul\":10366:10391   */\n          swap3\n          pop\n            /* \"#utility.yul\":10414:10415   */\n          dup3\n            /* \"#utility.yul\":10411:10412   */\n          dup3\n            /* \"#utility.yul\":10407:10416   */\n          add\n            /* \"#utility.yul\":10400:10416   */\n          swap1\n          pop\n            /* \"#utility.yul\":10435:10438   */\n          dup1\n            /* \"#utility.yul\":10432:10433   */\n          dup3\n            /* \"#utility.yul\":10429:10439   */\n          gt\n            /* \"#utility.yul\":10426:10462   */\n          iszero\n          tag_213\n          jumpi\n            /* \"#utility.yul\":10442:10460   */\n          tag_214\n          tag_86\n          jump\t// in\n        tag_214:\n            /* \"#utility.yul\":10426:10462   */\n        tag_213:\n            /* \"#utility.yul\":10278:10469   */\n          swap3\n          swap2\n          pop\n          pop\n          jump\t// out\n            /* \"#utility.yul\":10475:10655   */\n        tag_44:\n            /* \"#utility.yul\":10523:10600   */\n          0x4e487b7100000000000000000000000000000000000000000000000000000000\n            /* \"#utility.yul\":10520:10521   */\n          0x00\n            /* \"#utility.yul\":10513:10601   */\n          mstore\n            /* \"#utility.yul\":10620:10624   */\n          0x32\n            /* \"#utility.yul\":10617:10618   */\n          0x04\n            /* \"#utility.yul\":10610:10625   */\n          mstore\n            /* \"#utility.yul\":10644:10648   */\n          0x24\n            /* \"#utility.yul\":10641:10642   */\n          0x00\n            /* \"#utility.yul\":10634:10649   */\n          revert\n            /* \"Voting.sol\":798:6916  contract Voting {... */\n        tag_23:\n          dataSize(sub_0)\n          dup1\n          dataOffset(sub_0)\n          0x00\n          codecopy\n          0x00\n          return\n        stop\n\n        sub_0: assembly {\n                /* \"Voting.sol\":798:6916  contract Voting {... */\n              mstore(0x40, 0x80)\n              jumpi(tag_1, lt(calldatasize, 0x04))\n              shr(0xe0, calldataload(0x00))\n              dup1\n              0x70babc8a\n              gt\n              tag_22\n              jumpi\n              dup1\n              0xa50239ee\n              gt\n              tag_23\n              jumpi\n              dup1\n              0xa50239ee\n              eq\n              tag_17\n              jumpi\n              dup1\n              0xa944b7a6\n              eq\n              tag_18\n              jumpi\n              dup1\n              0xc24a0f8b\n              eq\n              tag_19\n              jumpi\n              dup1\n              0xdfbf53ae\n              eq\n              tag_20\n              jumpi\n              dup1\n              0xf9bc8589\n              eq\n              tag_21\n              jumpi\n              jump(tag_2)\n            tag_23:\n              dup1\n              0x70babc8a\n              eq\n              tag_12\n              jumpi\n              dup1\n              0x78622c5d\n              eq\n              tag_13\n              jumpi\n              dup1\n              0x9c2aab5e\n              eq\n              tag_14\n              jumpi\n              dup1\n              0x9d9a7fe9\n              eq\n              tag_15\n              jumpi\n              dup1\n              0xa3d45314\n              eq\n              tag_16\n              jumpi\n              jump(tag_2)\n            tag_22:\n              dup1\n              0x228cb733\n              gt\n              tag_24\n              jumpi\n              dup1\n              0x228cb733\n              eq\n              tag_7\n              jumpi\n              dup1\n              0x23822a74\n              eq\n              tag_8\n              jumpi\n              dup1\n              0x255adfd4\n              eq\n              tag_9\n              jumpi\n              dup1\n              0x3dde87b4\n              eq\n              tag_10\n              jumpi\n              dup1\n              0x481c6a75\n              eq\n              tag_11\n              jumpi\n              jump(tag_2)\n            tag_24:\n              dup1\n              0x132fd9bc\n              eq\n              tag_3\n              jumpi\n              dup1\n              0x1442f65a\n              eq\n              tag_4\n              jumpi\n              dup1\n              0x1632c03f\n              eq\n              tag_5\n              jumpi\n              dup1\n              0x2134f7f0\n              eq\n              tag_6\n              jumpi\n              jump(tag_2)\n            tag_1:\n              jumpi(tag_2, calldatasize)\n              stop\n            tag_2:\n              0x00\n              dup1\n              revert\n                /* \"Voting.sol\":877:910  address payable public luckyVoter */\n            tag_3:\n              callvalue\n              dup1\n              iszero\n              tag_27\n              jumpi\n              0x00\n              dup1\n              revert\n            tag_27:\n              pop\n              tag_28\n              tag_29\n              jump\t// in\n            tag_28:\n              mload(0x40)\n              tag_30\n              swap2\n              swap1\n              tag_31\n              jump\t// in\n            tag_30:\n              mload(0x40)\n              dup1\n              swap2\n              sub\n              swap1\n              return\n                /* \"Voting.sol\":5979:6314  function getContractDetail() public view returns(address, uint, uint, uint, bool, address, uint, uint) {... */\n            tag_4:\n              callvalue\n              dup1\n              iszero\n              tag_32\n              jumpi\n              0x00\n              dup1\n              revert\n            tag_32:\n              pop\n              tag_33\n              tag_34\n              jump\t// in\n            tag_33:\n              mload(0x40)\n              tag_35\n              swap9\n              swap8\n              swap7\n              swap6\n              swap5\n              swap4\n              swap3\n              swap2\n              swap1\n              tag_36\n              jump\t// in\n            tag_35:\n              mload(0x40)\n              dup1\n              swap2\n              sub\n              swap1\n              return\n                /* \"Voting.sol\":919:943  uint public totalChoices */\n            tag_5:\n              callvalue\n              dup1\n              iszero\n              tag_37\n              jumpi\n              0x00\n              dup1\n              revert\n            tag_37:\n              pop\n              tag_38\n              tag_39\n              jump\t// in\n            tag_38:\n              mload(0x40)\n              tag_40\n              swap2\n              swap1\n              tag_41\n              jump\t// in\n            tag_40:\n              mload(0x40)\n              dup1\n              swap2\n              sub\n              swap1\n              return\n                /* \"Voting.sol\":3126:4111  function completedVoteThenTransfer() public restricted() {... */\n            tag_6:\n              callvalue\n              dup1\n              iszero\n              tag_42\n              jumpi\n              0x00\n              dup1\n              revert\n            tag_42:\n              pop\n              tag_43\n              tag_44\n              jump\t// in\n            tag_43:\n              stop\n                /* \"Voting.sol\":1003:1034  uint public reward = 0.01 ether */\n            tag_7:\n              callvalue\n              dup1\n              iszero\n              tag_45\n              jumpi\n              0x00\n              dup1\n              revert\n            tag_45:\n              pop\n              tag_46\n              tag_47\n              jump\t// in\n            tag_46:\n              mload(0x40)\n              tag_48\n              swap2\n              swap1\n              tag_41\n              jump\t// in\n            tag_48:\n              mload(0x40)\n              dup1\n              swap2\n              sub\n              swap1\n              return\n                /* \"Voting.sol\":2469:3118  function pickChoice(uint index) public {... */\n            tag_8:\n              callvalue\n              dup1\n              iszero\n              tag_49\n              jumpi\n              0x00\n              dup1\n              revert\n            tag_49:\n              pop\n              tag_50\n              0x04\n              dup1\n              calldatasize\n              sub\n              dup2\n              add\n              swap1\n              tag_51\n              swap2\n              swap1\n              tag_52\n              jump\t// in\n            tag_51:\n              tag_53\n              jump\t// in\n            tag_50:\n              stop\n                /* \"Voting.sol\":1160:1205  mapping(address => bool) public allowedVoters */\n            tag_9:\n              callvalue\n              dup1\n              iszero\n              tag_54\n              jumpi\n              0x00\n              dup1\n              revert\n            tag_54:\n              pop\n              tag_55\n              0x04\n              dup1\n              calldatasize\n              sub\n              dup2\n              add\n              swap1\n              tag_56\n              swap2\n              swap1\n              tag_57\n              jump\t// in\n            tag_56:\n              tag_58\n              jump\t// in\n            tag_55:\n              mload(0x40)\n              tag_59\n              swap2\n              swap1\n              tag_60\n              jump\t// in\n            tag_59:\n              mload(0x40)\n              dup1\n              swap2\n              sub\n              swap1\n              return\n                /* \"Voting.sol\":5553:5865  function getStructDetail(uint index) public view returns(string memory, uint, address payable[] memory) {... */\n            tag_10:\n              callvalue\n              dup1\n              iszero\n              tag_61\n              jumpi\n              0x00\n              dup1\n              revert\n            tag_61:\n              pop\n              tag_62\n              0x04\n              dup1\n              calldatasize\n              sub\n              dup2\n              add\n              swap1\n              tag_63\n              swap2\n              swap1\n              tag_52\n              jump\t// in\n            tag_63:\n              tag_64\n              jump\t// in\n            tag_62:\n              mload(0x40)\n              tag_65\n              swap4\n              swap3\n              swap2\n              swap1\n              tag_66\n              jump\t// in\n            tag_65:\n              mload(0x40)\n              dup1\n              swap2\n              sub\n              swap1\n              return\n                /* \"Voting.sol\":821:843  address public manager */\n            tag_11:\n              callvalue\n              dup1\n              iszero\n              tag_67\n              jumpi\n              0x00\n              dup1\n              revert\n            tag_67:\n              pop\n              tag_68\n              tag_69\n              jump\t// in\n            tag_68:\n              mload(0x40)\n              tag_70\n              swap2\n              swap1\n              tag_71\n              jump\t// in\n            tag_70:\n              mload(0x40)\n              dup1\n              swap2\n              sub\n              swap1\n              return\n                /* \"Voting.sol\":1212:1242  uint public totalAllowedVoters */\n            tag_12:\n              callvalue\n              dup1\n              iszero\n              tag_72\n              jumpi\n              0x00\n              dup1\n              revert\n            tag_72:\n              pop\n              tag_73\n              tag_74\n              jump\t// in\n            tag_73:\n              mload(0x40)\n              tag_75\n              swap2\n              swap1\n              tag_41\n              jump\t// in\n            tag_75:\n              mload(0x40)\n              dup1\n              swap2\n              sub\n              swap1\n              return\n                /* \"Voting.sol\":1123:1151  uint public totalVotersVoted */\n            tag_13:\n              callvalue\n              dup1\n              iszero\n              tag_76\n              jumpi\n              0x00\n              dup1\n              revert\n            tag_76:\n              pop\n              tag_77\n              tag_78\n              jump\t// in\n            tag_77:\n              mload(0x40)\n              tag_79\n              swap2\n              swap1\n              tag_41\n              jump\t// in\n            tag_79:\n              mload(0x40)\n              dup1\n              swap2\n              sub\n              swap1\n              return\n                /* \"Voting.sol\":5873:5971  function getVotingCount() public view returns (uint) {... */\n            tag_14:\n              callvalue\n              dup1\n              iszero\n              tag_80\n              jumpi\n              0x00\n              dup1\n              revert\n            tag_80:\n              pop\n              tag_81\n              tag_82\n              jump\t// in\n            tag_81:\n              mload(0x40)\n              tag_83\n              swap2\n              swap1\n              tag_41\n              jump\t// in\n            tag_83:\n              mload(0x40)\n              dup1\n              swap2\n              sub\n              swap1\n              return\n                /* \"Voting.sol\":1043:1064  bool public completed */\n            tag_15:\n              callvalue\n              dup1\n              iszero\n              tag_84\n              jumpi\n              0x00\n              dup1\n              revert\n            tag_84:\n              pop\n              tag_85\n              tag_86\n              jump\t// in\n            tag_85:\n              mload(0x40)\n              tag_87\n              swap2\n              swap1\n              tag_60\n              jump\t// in\n            tag_87:\n              mload(0x40)\n              dup1\n              swap2\n              sub\n              swap1\n              return\n                /* \"Voting.sol\":1073:1116  mapping(address => bool) public votedVoters */\n            tag_16:\n              callvalue\n              dup1\n              iszero\n              tag_88\n              jumpi\n              0x00\n              dup1\n              revert\n            tag_88:\n              pop\n              tag_89\n              0x04\n              dup1\n              calldatasize\n              sub\n              dup2\n              add\n              swap1\n              tag_90\n              swap2\n              swap1\n              tag_57\n              jump\t// in\n            tag_90:\n              tag_91\n              jump\t// in\n            tag_89:\n              mload(0x40)\n              tag_92\n              swap2\n              swap1\n              tag_60\n              jump\t// in\n            tag_92:\n              mload(0x40)\n              dup1\n              swap2\n              sub\n              swap1\n              return\n                /* \"Voting.sol\":1251:1284  choicesData[] public choicesDatas */\n            tag_17:\n              callvalue\n              dup1\n              iszero\n              tag_93\n              jumpi\n              0x00\n              dup1\n              revert\n            tag_93:\n              pop\n              tag_94\n              0x04\n              dup1\n              calldatasize\n              sub\n              dup2\n              add\n              swap1\n              tag_95\n              swap2\n              swap1\n              tag_52\n              jump\t// in\n            tag_95:\n              tag_96\n              jump\t// in\n            tag_94:\n              mload(0x40)\n              tag_97\n              swap3\n              swap2\n              swap1\n              tag_98\n              jump\t// in\n            tag_97:\n              mload(0x40)\n              dup1\n              swap2\n              sub\n              swap1\n              return\n                /* \"Voting.sol\":950:970  uint public fromDate */\n            tag_18:\n              callvalue\n              dup1\n              iszero\n              tag_99\n              jumpi\n              0x00\n              dup1\n              revert\n            tag_99:\n              pop\n              tag_100\n              tag_101\n              jump\t// in\n            tag_100:\n              mload(0x40)\n              tag_102\n              swap2\n              swap1\n              tag_41\n              jump\t// in\n            tag_102:\n              mload(0x40)\n              dup1\n              swap2\n              sub\n              swap1\n              return\n                /* \"Voting.sol\":977:996  uint public endDate */\n            tag_19:\n              callvalue\n              dup1\n              iszero\n              tag_103\n              jumpi\n              0x00\n              dup1\n              revert\n            tag_103:\n              pop\n              tag_104\n              tag_105\n              jump\t// in\n            tag_104:\n              mload(0x40)\n              tag_106\n              swap2\n              swap1\n              tag_41\n              jump\t// in\n            tag_106:\n              mload(0x40)\n              dup1\n              swap2\n              sub\n              swap1\n              return\n                /* \"Voting.sol\":850:870  string public winner */\n            tag_20:\n              callvalue\n              dup1\n              iszero\n              tag_107\n              jumpi\n              0x00\n              dup1\n              revert\n            tag_107:\n              pop\n              tag_108\n              tag_109\n              jump\t// in\n            tag_108:\n              mload(0x40)\n              tag_110\n              swap2\n              swap1\n              tag_111\n              jump\t// in\n            tag_110:\n              mload(0x40)\n              dup1\n              swap2\n              sub\n              swap1\n              return\n                /* \"Voting.sol\":2095:2423  function addAllowerdVoters(address newAllowerdVoters) public restricted {... */\n            tag_21:\n              callvalue\n              dup1\n              iszero\n              tag_112\n              jumpi\n              0x00\n              dup1\n              revert\n            tag_112:\n              pop\n              tag_113\n              0x04\n              dup1\n              calldatasize\n              sub\n              dup2\n              add\n              swap1\n              tag_114\n              swap2\n              swap1\n              tag_57\n              jump\t// in\n            tag_114:\n              tag_115\n              jump\t// in\n            tag_113:\n              stop\n                /* \"Voting.sol\":877:910  address payable public luckyVoter */\n            tag_29:\n              0x02\n              0x00\n              swap1\n              sload\n              swap1\n              0x0100\n              exp\n              swap1\n              div\n              0xffffffffffffffffffffffffffffffffffffffff\n              and\n              dup2\n              jump\t// out\n                /* \"Voting.sol\":5979:6314  function getContractDetail() public view returns(address, uint, uint, uint, bool, address, uint, uint) {... */\n            tag_34:\n                /* \"Voting.sol\":6028:6035  address */\n              0x00\n                /* \"Voting.sol\":6037:6041  uint */\n              dup1\n                /* \"Voting.sol\":6043:6047  uint */\n              0x00\n                /* \"Voting.sol\":6049:6053  uint */\n              dup1\n                /* \"Voting.sol\":6055:6059  bool */\n              0x00\n                /* \"Voting.sol\":6061:6068  address */\n              dup1\n                /* \"Voting.sol\":6070:6074  uint */\n              0x00\n                /* \"Voting.sol\":6076:6080  uint */\n              dup1\n                /* \"Voting.sol\":6115:6122  manager */\n              0x00\n              dup1\n              sload\n              swap1\n              0x0100\n              exp\n              swap1\n              div\n              0xffffffffffffffffffffffffffffffffffffffff\n              and\n                /* \"Voting.sol\":6137:6149  totalChoices */\n              sload(0x03)\n                /* \"Voting.sol\":6164:6172  fromDate */\n              sload(0x04)\n                /* \"Voting.sol\":6187:6194  endDate */\n              sload(0x05)\n                /* \"Voting.sol\":6209:6218  completed */\n              0x07\n              0x00\n              swap1\n              sload\n              swap1\n              0x0100\n              exp\n              swap1\n              div\n              0xff\n              and\n                /* \"Voting.sol\":6233:6243  luckyVoter */\n              0x02\n              0x00\n              swap1\n              sload\n              swap1\n              0x0100\n              exp\n              swap1\n              div\n              0xffffffffffffffffffffffffffffffffffffffff\n              and\n                /* \"Voting.sol\":6258:6274  totalVotersVoted */\n              sload(0x09)\n                /* \"Voting.sol\":6289:6295  reward */\n              sload(0x06)\n                /* \"Voting.sol\":6093:6306  return (... */\n              swap8\n              pop\n              swap8\n              pop\n              swap8\n              pop\n              swap8\n              pop\n              swap8\n              pop\n              swap8\n              pop\n              swap8\n              pop\n              swap8\n              pop\n                /* \"Voting.sol\":5979:6314  function getContractDetail() public view returns(address, uint, uint, uint, bool, address, uint, uint) {... */\n              swap1\n              swap2\n              swap3\n              swap4\n              swap5\n              swap6\n              swap7\n              swap8\n              jump\t// out\n                /* \"Voting.sol\":919:943  uint public totalChoices */\n            tag_39:\n              sload(0x03)\n              dup2\n              jump\t// out\n                /* \"Voting.sol\":3126:4111  function completedVoteThenTransfer() public restricted() {... */\n            tag_44:\n                /* \"Voting.sol\":1476:1483  manager */\n              0x00\n              dup1\n              sload\n              swap1\n              0x0100\n              exp\n              swap1\n              div\n              0xffffffffffffffffffffffffffffffffffffffff\n              and\n                /* \"Voting.sol\":1462:1483  msg.sender == manager */\n              0xffffffffffffffffffffffffffffffffffffffff\n              and\n                /* \"Voting.sol\":1462:1472  msg.sender */\n              caller\n                /* \"Voting.sol\":1462:1483  msg.sender == manager */\n              0xffffffffffffffffffffffffffffffffffffffff\n              and\n              eq\n                /* \"Voting.sol\":1454:1484  require(msg.sender == manager) */\n              tag_118\n              jumpi\n              0x00\n              dup1\n              revert\n            tag_118:\n                /* \"Voting.sol\":3349:3358  completed */\n              0x07\n              0x00\n              swap1\n              sload\n              swap1\n              0x0100\n              exp\n              swap1\n              div\n              0xff\n              and\n                /* \"Voting.sol\":3348:3358  !completed */\n              iszero\n                /* \"Voting.sol\":3340:3379  require(!completed, \"Voting Has Ended\") */\n              tag_120\n              jumpi\n              mload(0x40)\n              0x08c379a000000000000000000000000000000000000000000000000000000000\n              dup2\n              mstore\n              0x04\n              add\n              tag_121\n              swap1\n              tag_122\n              jump\t// in\n            tag_121:\n              mload(0x40)\n              dup1\n              swap2\n              sub\n              swap1\n              revert\n            tag_120:\n                /* \"Voting.sol\":3425:3426  1 */\n              0x01\n                /* \"Voting.sol\":3396:3415  _getWinnerIndices() */\n              tag_123\n                /* \"Voting.sol\":3396:3413  _getWinnerIndices */\n              tag_124\n                /* \"Voting.sol\":3396:3415  _getWinnerIndices() */\n              jump\t// in\n            tag_123:\n                /* \"Voting.sol\":3396:3422  _getWinnerIndices().length */\n              mload\n                /* \"Voting.sol\":3396:3426  _getWinnerIndices().length > 1 */\n              gt\n                /* \"Voting.sol\":3392:4104  if (_getWinnerIndices().length > 1) {... */\n              iszero\n              tag_125\n              jumpi\n                /* \"Voting.sol\":3463:3469  1 days */\n              0x015180\n                /* \"Voting.sol\":3453:3460  endDate */\n              sload(0x05)\n                /* \"Voting.sol\":3453:3469  endDate + 1 days */\n              tag_126\n              swap2\n              swap1\n              tag_127\n              jump\t// in\n            tag_126:\n                /* \"Voting.sol\":3443:3450  endDate */\n              0x05\n                /* \"Voting.sol\":3443:3469  endDate = endDate + 1 days */\n              dup2\n              swap1\n              sstore\n              pop\n                /* \"Voting.sol\":3392:4104  if (_getWinnerIndices().length > 1) {... */\n              jump(tag_128)\n            tag_125:\n                /* \"Voting.sol\":3502:3534  choicesData storage winnerChoice */\n              0x00\n                /* \"Voting.sol\":3537:3549  choicesDatas */\n              0x0c\n                /* \"Voting.sol\":3550:3569  _getWinnerIndices() */\n              tag_129\n                /* \"Voting.sol\":3550:3567  _getWinnerIndices */\n              tag_124\n                /* \"Voting.sol\":3550:3569  _getWinnerIndices() */\n              jump\t// in\n            tag_129:\n                /* \"Voting.sol\":3570:3571  0 */\n              0x00\n                /* \"Voting.sol\":3550:3572  _getWinnerIndices()[0] */\n              dup2\n              mload\n              dup2\n              lt\n              tag_130\n              jumpi\n              tag_131\n              tag_132\n              jump\t// in\n            tag_131:\n            tag_130:\n              0x20\n              mul\n              0x20\n              add\n              add\n              mload\n                /* \"Voting.sol\":3537:3573  choicesDatas[_getWinnerIndices()[0]] */\n              dup2\n              sload\n              dup2\n              lt\n              tag_133\n              jumpi\n              tag_134\n              tag_132\n              jump\t// in\n            tag_134:\n            tag_133:\n              swap1\n              0x00\n              mstore\n              keccak256(0x00, 0x20)\n              swap1\n              0x03\n              mul\n              add\n                /* \"Voting.sol\":3502:3573  choicesData storage winnerChoice = choicesDatas[_getWinnerIndices()[0]] */\n              swap1\n              pop\n                /* \"Voting.sol\":3597:3609  winnerChoice */\n              dup1\n                /* \"Voting.sol\":3597:3621  winnerChoice.description */\n              0x00\n              add\n                /* \"Voting.sol\":3588:3594  winner */\n              0x01\n                /* \"Voting.sol\":3588:3621  winner = winnerChoice.description */\n              swap1\n              dup2\n              tag_136\n              swap2\n              swap1\n              tag_137\n              jump\t// in\n            tag_136:\n              pop\n                /* \"Voting.sol\":3636:3647  uint random */\n              0x00\n                /* \"Voting.sol\":3682:3697  block.timestamp */\n              timestamp\n                /* \"Voting.sol\":3699:3711  winnerChoice */\n              dup3\n                /* \"Voting.sol\":3699:3718  winnerChoice.voters */\n              0x02\n              add\n                /* \"Voting.sol\":3665:3719  abi.encodePacked(block.timestamp, winnerChoice.voters) */\n              add(0x20, mload(0x40))\n              tag_138\n              swap3\n              swap2\n              swap1\n              tag_139\n              jump\t// in\n            tag_138:\n              mload(0x40)\n              0x20\n              dup2\n              dup4\n              sub\n              sub\n              dup2\n              mstore\n              swap1\n              0x40\n              mstore\n                /* \"Voting.sol\":3655:3720  keccak256(abi.encodePacked(block.timestamp, winnerChoice.voters)) */\n              dup1\n              mload\n              swap1\n              0x20\n              add\n              keccak256\n                /* \"Voting.sol\":3650:3721  uint(keccak256(abi.encodePacked(block.timestamp, winnerChoice.voters))) */\n              0x00\n              shr\n                /* \"Voting.sol\":3636:3721  uint random = uint(keccak256(abi.encodePacked(block.timestamp, winnerChoice.voters))) */\n              swap1\n              pop\n                /* \"Voting.sol\":3736:3757  uint indexRandomVoter */\n              0x00\n                /* \"Voting.sol\":3769:3781  winnerChoice */\n              dup3\n                /* \"Voting.sol\":3769:3788  winnerChoice.voters */\n              0x02\n              add\n                /* \"Voting.sol\":3769:3795  winnerChoice.voters.length */\n              dup1\n              sload\n              swap1\n              pop\n                /* \"Voting.sol\":3760:3766  random */\n              dup3\n                /* \"Voting.sol\":3760:3795  random % winnerChoice.voters.length */\n              tag_140\n              swap2\n              swap1\n              tag_141\n              jump\t// in\n            tag_140:\n                /* \"Voting.sol\":3736:3795  uint indexRandomVoter = random % winnerChoice.voters.length */\n              swap1\n              pop\n                /* \"Voting.sol\":3833:3845  winnerChoice */\n              dup3\n                /* \"Voting.sol\":3833:3852  winnerChoice.voters */\n              0x02\n              add\n                /* \"Voting.sol\":3853:3869  indexRandomVoter */\n              dup2\n                /* \"Voting.sol\":3833:3870  winnerChoice.voters[indexRandomVoter] */\n              dup2\n              sload\n              dup2\n              lt\n              tag_142\n              jumpi\n              tag_143\n              tag_132\n              jump\t// in\n            tag_143:\n            tag_142:\n              swap1\n              0x00\n              mstore\n              keccak256(0x00, 0x20)\n              add\n              0x00\n              swap1\n              sload\n              swap1\n              0x0100\n              exp\n              swap1\n              div\n              0xffffffffffffffffffffffffffffffffffffffff\n              and\n                /* \"Voting.sol\":3812:3822  luckyVoter */\n              0x02\n              0x00\n                /* \"Voting.sol\":3812:3871  luckyVoter = payable(winnerChoice.voters[indexRandomVoter]) */\n              0x0100\n              exp\n              dup2\n              sload\n              dup2\n              0xffffffffffffffffffffffffffffffffffffffff\n              mul\n              not\n              and\n              swap1\n              dup4\n              0xffffffffffffffffffffffffffffffffffffffff\n              and\n              mul\n              or\n              swap1\n              sstore\n              pop\n                /* \"Voting.sol\":3887:3896  bool sent */\n              0x00\n                /* \"Voting.sol\":3902:3912  luckyVoter */\n              0x02\n              0x00\n              swap1\n              sload\n              swap1\n              0x0100\n              exp\n              swap1\n              div\n              0xffffffffffffffffffffffffffffffffffffffff\n              and\n                /* \"Voting.sol\":3902:3917  luckyVoter.call */\n              0xffffffffffffffffffffffffffffffffffffffff\n              and\n                /* \"Voting.sol\":3925:3931  reward */\n              sload(0x06)\n                /* \"Voting.sol\":3902:3936  luckyVoter.call{value: reward}(\"\") */\n              mload(0x40)\n              tag_145\n              swap1\n              tag_146\n              jump\t// in\n            tag_145:\n              0x00\n              mload(0x40)\n              dup1\n              dup4\n              sub\n              dup2\n              dup6\n              dup8\n              gas\n              call\n              swap3\n              pop\n              pop\n              pop\n              returndatasize\n              dup1\n              0x00\n              dup2\n              eq\n              tag_149\n              jumpi\n              mload(0x40)\n              swap2\n              pop\n              and(add(returndatasize, 0x3f), not(0x1f))\n              dup3\n              add\n              0x40\n              mstore\n              returndatasize\n              dup3\n              mstore\n              returndatasize\n              0x00\n              0x20\n              dup5\n              add\n              returndatacopy\n              jump(tag_148)\n            tag_149:\n              0x60\n              swap2\n              pop\n            tag_148:\n              pop\n                /* \"Voting.sol\":3886:3936  (bool sent, ) = luckyVoter.call{value: reward}(\"\") */\n              pop\n              swap1\n              pop\n                /* \"Voting.sol\":3959:3963  sent */\n              dup1\n                /* \"Voting.sol\":3951:3988  require(sent, \"Failed to send Ether\") */\n              tag_150\n              jumpi\n              mload(0x40)\n              0x08c379a000000000000000000000000000000000000000000000000000000000\n              dup2\n              mstore\n              0x04\n              add\n              tag_151\n              swap1\n              tag_152\n              jump\t// in\n            tag_151:\n              mload(0x40)\n              dup1\n              swap2\n              sub\n              swap1\n              revert\n            tag_150:\n                /* \"Voting.sol\":4013:4023  msg.sender */\n              caller\n                /* \"Voting.sol\":4005:4033  payable(msg.sender).transfer */\n              0xffffffffffffffffffffffffffffffffffffffff\n              and\n                /* \"Voting.sol\":4005:4056  payable(msg.sender).transfer(address(this).balance) */\n              0x08fc\n                /* \"Voting.sol\":4034:4055  address(this).balance */\n              selfbalance\n                /* \"Voting.sol\":4005:4056  payable(msg.sender).transfer(address(this).balance) */\n              swap1\n              dup2\n              iszero\n              mul\n              swap1\n              mload(0x40)\n              0x00\n              mload(0x40)\n              dup1\n              dup4\n              sub\n              dup2\n              dup6\n              dup9\n              dup9\n              call\n              swap4\n              pop\n              pop\n              pop\n              pop\n              iszero\n              dup1\n              iszero\n              tag_154\n              jumpi\n              returndatasize\n              0x00\n              dup1\n              returndatacopy\n              revert(0x00, returndatasize)\n            tag_154:\n              pop\n                /* \"Voting.sol\":4085:4089  true */\n              0x01\n                /* \"Voting.sol\":4073:4082  completed */\n              0x07\n              0x00\n                /* \"Voting.sol\":4073:4089  completed = true */\n              0x0100\n              exp\n              dup2\n              sload\n              dup2\n              0xff\n              mul\n              not\n              and\n              swap1\n              dup4\n              iszero\n              iszero\n              mul\n              or\n              swap1\n              sstore\n              pop\n                /* \"Voting.sol\":3487:4104  {... */\n              pop\n              pop\n              pop\n              pop\n                /* \"Voting.sol\":3392:4104  if (_getWinnerIndices().length > 1) {... */\n            tag_128:\n                /* \"Voting.sol\":3126:4111  function completedVoteThenTransfer() public restricted() {... */\n              jump\t// out\n                /* \"Voting.sol\":1003:1034  uint public reward = 0.01 ether */\n            tag_47:\n              sload(0x06)\n              dup2\n              jump\t// out\n                /* \"Voting.sol\":2469:3118  function pickChoice(uint index) public {... */\n            tag_53:\n                /* \"Voting.sol\":2541:2548  manager */\n              0x00\n              dup1\n              sload\n              swap1\n              0x0100\n              exp\n              swap1\n              div\n              0xffffffffffffffffffffffffffffffffffffffff\n              and\n                /* \"Voting.sol\":2527:2548  msg.sender != manager */\n              0xffffffffffffffffffffffffffffffffffffffff\n              and\n                /* \"Voting.sol\":2527:2537  msg.sender */\n              caller\n                /* \"Voting.sol\":2527:2548  msg.sender != manager */\n              0xffffffffffffffffffffffffffffffffffffffff\n              and\n              sub\n                /* \"Voting.sol\":2519:2573  require(msg.sender != manager, \"Manager Can Not Vote\") */\n              tag_156\n              jumpi\n              mload(0x40)\n              0x08c379a000000000000000000000000000000000000000000000000000000000\n              dup2\n              mstore\n              0x04\n              add\n              tag_157\n              swap1\n              tag_158\n              jump\t// in\n            tag_157:\n              mload(0x40)\n              dup1\n              swap2\n              sub\n              swap1\n              revert\n            tag_156:\n                /* \"Voting.sol\":2592:2605  allowedVoters */\n              0x0a\n                /* \"Voting.sol\":2592:2617  allowedVoters[msg.sender] */\n              0x00\n                /* \"Voting.sol\":2606:2616  msg.sender */\n              caller\n                /* \"Voting.sol\":2592:2617  allowedVoters[msg.sender] */\n              0xffffffffffffffffffffffffffffffffffffffff\n              and\n              0xffffffffffffffffffffffffffffffffffffffff\n              and\n              dup2\n              mstore\n              0x20\n              add\n              swap1\n              dup2\n              mstore\n              0x20\n              add\n              0x00\n              keccak256\n              0x00\n              swap1\n              sload\n              swap1\n              0x0100\n              exp\n              swap1\n              div\n              0xff\n              and\n                /* \"Voting.sol\":2584:2655  require(allowedVoters[msg.sender], \"You Cannot Take Part in This Vote\") */\n              tag_159\n              jumpi\n              mload(0x40)\n              0x08c379a000000000000000000000000000000000000000000000000000000000\n              dup2\n              mstore\n              0x04\n              add\n              tag_160\n              swap1\n              tag_161\n              jump\t// in\n            tag_160:\n              mload(0x40)\n              dup1\n              swap2\n              sub\n              swap1\n              revert\n            tag_159:\n                /* \"Voting.sol\":2675:2686  votedVoters */\n              0x08\n                /* \"Voting.sol\":2675:2698  votedVoters[msg.sender] */\n              0x00\n                /* \"Voting.sol\":2687:2697  msg.sender */\n              caller\n                /* \"Voting.sol\":2675:2698  votedVoters[msg.sender] */\n              0xffffffffffffffffffffffffffffffffffffffff\n              and\n              0xffffffffffffffffffffffffffffffffffffffff\n              and\n              dup2\n              mstore\n              0x20\n              add\n              swap1\n              dup2\n              mstore\n              0x20\n              add\n              0x00\n              keccak256\n              0x00\n              swap1\n              sload\n              swap1\n              0x0100\n              exp\n              swap1\n              div\n              0xff\n              and\n                /* \"Voting.sol\":2674:2698  !votedVoters[msg.sender] */\n              iszero\n                /* \"Voting.sol\":2666:2725  require(!votedVoters[msg.sender], \"You Can Only Vote Once\") */\n              tag_162\n              jumpi\n              mload(0x40)\n              0x08c379a000000000000000000000000000000000000000000000000000000000\n              dup2\n              mstore\n              0x04\n              add\n              tag_163\n              swap1\n              tag_164\n              jump\t// in\n            tag_163:\n              mload(0x40)\n              dup1\n              swap2\n              sub\n              swap1\n              revert\n            tag_162:\n                /* \"Voting.sol\":2745:2754  completed */\n              0x07\n              0x00\n              swap1\n              sload\n              swap1\n              0x0100\n              exp\n              swap1\n              div\n              0xff\n              and\n                /* \"Voting.sol\":2744:2754  !completed */\n              iszero\n                /* \"Voting.sol\":2736:2775  require(!completed, \"Voting Has Ended\") */\n              tag_165\n              jumpi\n              mload(0x40)\n              0x08c379a000000000000000000000000000000000000000000000000000000000\n              dup2\n              mstore\n              0x04\n              add\n              tag_166\n              swap1\n              tag_122\n              jump\t// in\n            tag_166:\n              mload(0x40)\n              dup1\n              swap2\n              sub\n              swap1\n              revert\n            tag_165:\n                /* \"Voting.sol\":2812:2820  fromDate */\n              sload(0x04)\n                /* \"Voting.sol\":2794:2809  block.timestamp */\n              timestamp\n                /* \"Voting.sol\":2794:2820  block.timestamp > fromDate */\n              gt\n                /* \"Voting.sol\":2794:2849  block.timestamp > fromDate && block.timestamp < endDate */\n              dup1\n              iszero\n              tag_167\n              jumpi\n              pop\n                /* \"Voting.sol\":2842:2849  endDate */\n              sload(0x05)\n                /* \"Voting.sol\":2824:2839  block.timestamp */\n              timestamp\n                /* \"Voting.sol\":2824:2849  block.timestamp < endDate */\n              lt\n                /* \"Voting.sol\":2794:2849  block.timestamp > fromDate && block.timestamp < endDate */\n            tag_167:\n                /* \"Voting.sol\":2786:2881  require(block.timestamp > fromDate && block.timestamp < endDate, \"You Chose at The Wrong Time\") */\n              tag_168\n              jumpi\n              mload(0x40)\n              0x08c379a000000000000000000000000000000000000000000000000000000000\n              dup2\n              mstore\n              0x04\n              add\n              tag_169\n              swap1\n              tag_170\n              jump\t// in\n            tag_169:\n              mload(0x40)\n              dup1\n              swap2\n              sub\n              swap1\n              revert\n            tag_168:\n                /* \"Voting.sol\":2894:2925  choicesData storage choicesdata */\n              0x00\n                /* \"Voting.sol\":2928:2940  choicesDatas */\n              0x0c\n                /* \"Voting.sol\":2941:2946  index */\n              dup3\n                /* \"Voting.sol\":2928:2947  choicesDatas[index] */\n              dup2\n              sload\n              dup2\n              lt\n              tag_171\n              jumpi\n              tag_172\n              tag_132\n              jump\t// in\n            tag_172:\n            tag_171:\n              swap1\n              0x00\n              mstore\n              keccak256(0x00, 0x20)\n              swap1\n              0x03\n              mul\n              add\n                /* \"Voting.sol\":2894:2947  choicesData storage choicesdata = choicesDatas[index] */\n              swap1\n              pop\n                /* \"Voting.sol\":2958:2969  choicesdata */\n              dup1\n                /* \"Voting.sol\":2958:2983  choicesdata.receivedVotes */\n              0x01\n              add\n              0x00\n                /* \"Voting.sol\":2958:2985  choicesdata.receivedVotes++ */\n              dup2\n              sload\n              dup1\n              swap3\n              swap2\n              swap1\n              tag_174\n              swap1\n              tag_175\n              jump\t// in\n            tag_174:\n              swap2\n              swap1\n              pop\n              sstore\n              pop\n                /* \"Voting.sol\":2996:3007  choicesdata */\n              dup1\n                /* \"Voting.sol\":2996:3014  choicesdata.voters */\n              0x02\n              add\n                /* \"Voting.sol\":3028:3038  msg.sender */\n              caller\n                /* \"Voting.sol\":2996:3040  choicesdata.voters.push(payable(msg.sender)) */\n              swap1\n              dup1\n              0x01\n              dup2\n              sload\n              add\n              dup1\n              dup3\n              sstore\n              dup1\n              swap2\n              pop\n              pop\n              0x01\n              swap1\n              sub\n              swap1\n              0x00\n              mstore\n              keccak256(0x00, 0x20)\n              add\n              0x00\n              swap1\n              swap2\n              swap1\n              swap2\n              swap1\n              swap2\n              0x0100\n              exp\n              dup2\n              sload\n              dup2\n              0xffffffffffffffffffffffffffffffffffffffff\n              mul\n              not\n              and\n              swap1\n              dup4\n              0xffffffffffffffffffffffffffffffffffffffff\n              and\n              mul\n              or\n              swap1\n              sstore\n              pop\n                /* \"Voting.sol\":3077:3081  true */\n              0x01\n                /* \"Voting.sol\":3051:3062  votedVoters */\n              0x08\n                /* \"Voting.sol\":3051:3074  votedVoters[msg.sender] */\n              0x00\n                /* \"Voting.sol\":3063:3073  msg.sender */\n              caller\n                /* \"Voting.sol\":3051:3074  votedVoters[msg.sender] */\n              0xffffffffffffffffffffffffffffffffffffffff\n              and\n              0xffffffffffffffffffffffffffffffffffffffff\n              and\n              dup2\n              mstore\n              0x20\n              add\n              swap1\n              dup2\n              mstore\n              0x20\n              add\n              0x00\n              keccak256\n              0x00\n                /* \"Voting.sol\":3051:3081  votedVoters[msg.sender] = true */\n              0x0100\n              exp\n              dup2\n              sload\n              dup2\n              0xff\n              mul\n              not\n              and\n              swap1\n              dup4\n              iszero\n              iszero\n              mul\n              or\n              swap1\n              sstore\n              pop\n                /* \"Voting.sol\":3092:3108  totalVotersVoted */\n              0x09\n              0x00\n                /* \"Voting.sol\":3092:3110  totalVotersVoted++ */\n              dup2\n              sload\n              dup1\n              swap3\n              swap2\n              swap1\n              tag_177\n              swap1\n              tag_175\n              jump\t// in\n            tag_177:\n              swap2\n              swap1\n              pop\n              sstore\n              pop\n                /* \"Voting.sol\":2508:3118  {... */\n              pop\n                /* \"Voting.sol\":2469:3118  function pickChoice(uint index) public {... */\n              pop\n              jump\t// out\n                /* \"Voting.sol\":1160:1205  mapping(address => bool) public allowedVoters */\n            tag_58:\n              mstore(0x20, 0x0a)\n              dup1\n              0x00\n              mstore\n              keccak256(0x00, 0x40)\n              0x00\n              swap2\n              pop\n              sload\n              swap1\n              0x0100\n              exp\n              swap1\n              div\n              0xff\n              and\n              dup2\n              jump\t// out\n                /* \"Voting.sol\":5553:5865  function getStructDetail(uint index) public view returns(string memory, uint, address payable[] memory) {... */\n            tag_64:\n                /* \"Voting.sol\":5610:5623  string memory */\n              0x60\n                /* \"Voting.sol\":5625:5629  uint */\n              0x00\n                /* \"Voting.sol\":5631:5655  address payable[] memory */\n              0x60\n                /* \"Voting.sol\":5668:5698  choicesData storage choicedata */\n              0x00\n                /* \"Voting.sol\":5701:5713  choicesDatas */\n              0x0c\n                /* \"Voting.sol\":5714:5719  index */\n              dup6\n                /* \"Voting.sol\":5701:5720  choicesDatas[index] */\n              dup2\n              sload\n              dup2\n              lt\n              tag_179\n              jumpi\n              tag_180\n              tag_132\n              jump\t// in\n            tag_180:\n            tag_179:\n              swap1\n              0x00\n              mstore\n              keccak256(0x00, 0x20)\n              swap1\n              0x03\n              mul\n              add\n                /* \"Voting.sol\":5668:5720  choicesData storage choicedata = choicesDatas[index] */\n              swap1\n              pop\n                /* \"Voting.sol\":5753:5763  choicedata */\n              dup1\n                /* \"Voting.sol\":5753:5775  choicedata.description */\n              0x00\n              add\n                /* \"Voting.sol\":5790:5800  choicedata */\n              dup2\n                /* \"Voting.sol\":5790:5814  choicedata.receivedVotes */\n              0x01\n              add\n              sload\n                /* \"Voting.sol\":5829:5839  choicedata */\n              dup3\n                /* \"Voting.sol\":5829:5846  choicedata.voters */\n              0x02\n              add\n                /* \"Voting.sol\":5731:5857  return (... */\n              dup3\n              dup1\n              sload\n              tag_182\n              swap1\n              tag_183\n              jump\t// in\n            tag_182:\n              dup1\n              0x1f\n              add\n              0x20\n              dup1\n              swap2\n              div\n              mul\n              0x20\n              add\n              mload(0x40)\n              swap1\n              dup2\n              add\n              0x40\n              mstore\n              dup1\n              swap3\n              swap2\n              swap1\n              dup2\n              dup2\n              mstore\n              0x20\n              add\n              dup3\n              dup1\n              sload\n              tag_184\n              swap1\n              tag_183\n              jump\t// in\n            tag_184:\n              dup1\n              iszero\n              tag_185\n              jumpi\n              dup1\n              0x1f\n              lt\n              tag_186\n              jumpi\n              0x0100\n              dup1\n              dup4\n              sload\n              div\n              mul\n              dup4\n              mstore\n              swap2\n              0x20\n              add\n              swap2\n              jump(tag_185)\n            tag_186:\n              dup3\n              add\n              swap2\n              swap1\n              0x00\n              mstore\n              keccak256(0x00, 0x20)\n              swap1\n            tag_187:\n              dup2\n              sload\n              dup2\n              mstore\n              swap1\n              0x01\n              add\n              swap1\n              0x20\n              add\n              dup1\n              dup4\n              gt\n              tag_187\n              jumpi\n              dup3\n              swap1\n              sub\n              0x1f\n              and\n              dup3\n              add\n              swap2\n            tag_185:\n              pop\n              pop\n              pop\n              pop\n              pop\n              swap3\n              pop\n              dup1\n              dup1\n              sload\n              dup1\n              0x20\n              mul\n              0x20\n              add\n              mload(0x40)\n              swap1\n              dup2\n              add\n              0x40\n              mstore\n              dup1\n              swap3\n              swap2\n              swap1\n              dup2\n              dup2\n              mstore\n              0x20\n              add\n              dup3\n              dup1\n              sload\n              dup1\n              iszero\n              tag_188\n              jumpi\n              0x20\n              mul\n              dup3\n              add\n              swap2\n              swap1\n              0x00\n              mstore\n              keccak256(0x00, 0x20)\n              swap1\n            tag_189:\n              dup2\n              0x00\n              swap1\n              sload\n              swap1\n              0x0100\n              exp\n              swap1\n              div\n              0xffffffffffffffffffffffffffffffffffffffff\n              and\n              0xffffffffffffffffffffffffffffffffffffffff\n              and\n              dup2\n              mstore\n              0x20\n              add\n              swap1\n              0x01\n              add\n              swap1\n              dup1\n              dup4\n              gt\n              tag_189\n              jumpi\n            tag_188:\n              pop\n              pop\n              pop\n              pop\n              pop\n              swap1\n              pop\n              swap4\n              pop\n              swap4\n              pop\n              swap4\n              pop\n              pop\n                /* \"Voting.sol\":5553:5865  function getStructDetail(uint index) public view returns(string memory, uint, address payable[] memory) {... */\n              swap2\n              swap4\n              swap1\n              swap3\n              pop\n              jump\t// out\n                /* \"Voting.sol\":821:843  address public manager */\n            tag_69:\n              0x00\n              dup1\n              sload\n              swap1\n              0x0100\n              exp\n              swap1\n              div\n              0xffffffffffffffffffffffffffffffffffffffff\n              and\n              dup2\n              jump\t// out\n                /* \"Voting.sol\":1212:1242  uint public totalAllowedVoters */\n            tag_74:\n              sload(0x0b)\n              dup2\n              jump\t// out\n                /* \"Voting.sol\":1123:1151  uint public totalVotersVoted */\n            tag_78:\n              sload(0x09)\n              dup2\n              jump\t// out\n                /* \"Voting.sol\":5873:5971  function getVotingCount() public view returns (uint) {... */\n            tag_82:\n                /* \"Voting.sol\":5920:5924  uint */\n              0x00\n                /* \"Voting.sol\":5944:5956  choicesDatas */\n              0x0c\n                /* \"Voting.sol\":5944:5963  choicesDatas.length */\n              dup1\n              sload\n              swap1\n              pop\n                /* \"Voting.sol\":5937:5963  return choicesDatas.length */\n              swap1\n              pop\n                /* \"Voting.sol\":5873:5971  function getVotingCount() public view returns (uint) {... */\n              swap1\n              jump\t// out\n                /* \"Voting.sol\":1043:1064  bool public completed */\n            tag_86:\n              0x07\n              0x00\n              swap1\n              sload\n              swap1\n              0x0100\n              exp\n              swap1\n              div\n              0xff\n              and\n              dup2\n              jump\t// out\n                /* \"Voting.sol\":1073:1116  mapping(address => bool) public votedVoters */\n            tag_91:\n              mstore(0x20, 0x08)\n              dup1\n              0x00\n              mstore\n              keccak256(0x00, 0x40)\n              0x00\n              swap2\n              pop\n              sload\n              swap1\n              0x0100\n              exp\n              swap1\n              div\n              0xff\n              and\n              dup2\n              jump\t// out\n                /* \"Voting.sol\":1251:1284  choicesData[] public choicesDatas */\n            tag_96:\n              0x0c\n              dup2\n              dup2\n              sload\n              dup2\n              lt\n              tag_191\n              jumpi\n              0x00\n              dup1\n              revert\n            tag_191:\n              swap1\n              0x00\n              mstore\n              keccak256(0x00, 0x20)\n              swap1\n              0x03\n              mul\n              add\n              0x00\n              swap2\n              pop\n              swap1\n              pop\n              dup1\n              0x00\n              add\n              dup1\n              sload\n              tag_193\n              swap1\n              tag_183\n              jump\t// in\n            tag_193:\n              dup1\n              0x1f\n              add\n              0x20\n              dup1\n              swap2\n              div\n              mul\n              0x20\n              add\n              mload(0x40)\n              swap1\n              dup2\n              add\n              0x40\n              mstore\n              dup1\n              swap3\n              swap2\n              swap1\n              dup2\n              dup2\n              mstore\n              0x20\n              add\n              dup3\n              dup1\n              sload\n              tag_194\n              swap1\n              tag_183\n              jump\t// in\n            tag_194:\n              dup1\n              iszero\n              tag_195\n              jumpi\n              dup1\n              0x1f\n              lt\n              tag_196\n              jumpi\n              0x0100\n              dup1\n              dup4\n              sload\n              div\n              mul\n              dup4\n              mstore\n              swap2\n              0x20\n              add\n              swap2\n              jump(tag_195)\n            tag_196:\n              dup3\n              add\n              swap2\n              swap1\n              0x00\n              mstore\n              keccak256(0x00, 0x20)\n              swap1\n            tag_197:\n              dup2\n              sload\n              dup2\n              mstore\n              swap1\n              0x01\n              add\n              swap1\n              0x20\n              add\n              dup1\n              dup4\n              gt\n              tag_197\n              jumpi\n              dup3\n              swap1\n              sub\n              0x1f\n              and\n              dup3\n              add\n              swap2\n            tag_195:\n              pop\n              pop\n              pop\n              pop\n              pop\n              swap1\n              dup1\n              0x01\n              add\n              sload\n              swap1\n              pop\n              dup3\n              jump\t// out\n                /* \"Voting.sol\":950:970  uint public fromDate */\n            tag_101:\n              sload(0x04)\n              dup2\n              jump\t// out\n                /* \"Voting.sol\":977:996  uint public endDate */\n            tag_105:\n              sload(0x05)\n              dup2\n              jump\t// out\n                /* \"Voting.sol\":850:870  string public winner */\n            tag_109:\n              0x01\n              dup1\n              sload\n              tag_198\n              swap1\n              tag_183\n              jump\t// in\n            tag_198:\n              dup1\n              0x1f\n              add\n              0x20\n              dup1\n              swap2\n              div\n              mul\n              0x20\n              add\n              mload(0x40)\n              swap1\n              dup2\n              add\n              0x40\n              mstore\n              dup1\n              swap3\n              swap2\n              swap1\n              dup2\n              dup2\n              mstore\n              0x20\n              add\n              dup3\n              dup1\n              sload\n              tag_199\n              swap1\n              tag_183\n              jump\t// in\n            tag_199:\n              dup1\n              iszero\n              tag_200\n              jumpi\n              dup1\n              0x1f\n              lt\n              tag_201\n              jumpi\n              0x0100\n              dup1\n              dup4\n              sload\n              div\n              mul\n              dup4\n              mstore\n              swap2\n              0x20\n              add\n              swap2\n              jump(tag_200)\n            tag_201:\n              dup3\n              add\n              swap2\n              swap1\n              0x00\n              mstore\n              keccak256(0x00, 0x20)\n              swap1\n            tag_202:\n              dup2\n              sload\n              dup2\n              mstore\n              swap1\n              0x01\n              add\n              swap1\n              0x20\n              add\n              dup1\n              dup4\n              gt\n              tag_202\n              jumpi\n              dup3\n              swap1\n              sub\n              0x1f\n              and\n              dup3\n              add\n              swap2\n            tag_200:\n              pop\n              pop\n              pop\n              pop\n              pop\n              dup2\n              jump\t// out\n                /* \"Voting.sol\":2095:2423  function addAllowerdVoters(address newAllowerdVoters) public restricted {... */\n            tag_115:\n                /* \"Voting.sol\":1476:1483  manager */\n              0x00\n              dup1\n              sload\n              swap1\n              0x0100\n              exp\n              swap1\n              div\n              0xffffffffffffffffffffffffffffffffffffffff\n              and\n                /* \"Voting.sol\":1462:1483  msg.sender == manager */\n              0xffffffffffffffffffffffffffffffffffffffff\n              and\n                /* \"Voting.sol\":1462:1472  msg.sender */\n              caller\n                /* \"Voting.sol\":1462:1483  msg.sender == manager */\n              0xffffffffffffffffffffffffffffffffffffffff\n              and\n              eq\n                /* \"Voting.sol\":1454:1484  require(msg.sender == manager) */\n              tag_204\n              jumpi\n              0x00\n              dup1\n              revert\n            tag_204:\n                /* \"Voting.sol\":2207:2214  manager */\n              0x00\n              dup1\n              sload\n              swap1\n              0x0100\n              exp\n              swap1\n              div\n              0xffffffffffffffffffffffffffffffffffffffff\n              and\n                /* \"Voting.sol\":2186:2214  newAllowerdVoters != manager */\n              0xffffffffffffffffffffffffffffffffffffffff\n              and\n                /* \"Voting.sol\":2186:2203  newAllowerdVoters */\n              dup2\n                /* \"Voting.sol\":2186:2214  newAllowerdVoters != manager */\n              0xffffffffffffffffffffffffffffffffffffffff\n              and\n              sub\n                /* \"Voting.sol\":2178:2243  require(newAllowerdVoters != manager, \"Manager Cannot Be Voters\") */\n              tag_206\n              jumpi\n              mload(0x40)\n              0x08c379a000000000000000000000000000000000000000000000000000000000\n              dup2\n              mstore\n              0x04\n              add\n              tag_207\n              swap1\n              tag_208\n              jump\t// in\n            tag_207:\n              mload(0x40)\n              dup1\n              swap2\n              sub\n              swap1\n              revert\n            tag_206:\n                /* \"Voting.sol\":2263:2276  allowedVoters */\n              0x0a\n                /* \"Voting.sol\":2263:2295  allowedVoters[newAllowerdVoters] */\n              0x00\n                /* \"Voting.sol\":2277:2294  newAllowerdVoters */\n              dup3\n                /* \"Voting.sol\":2263:2295  allowedVoters[newAllowerdVoters] */\n              0xffffffffffffffffffffffffffffffffffffffff\n              and\n              0xffffffffffffffffffffffffffffffffffffffff\n              and\n              dup2\n              mstore\n              0x20\n              add\n              swap1\n              dup2\n              mstore\n              0x20\n              add\n              0x00\n              keccak256\n              0x00\n              swap1\n              sload\n              swap1\n              0x0100\n              exp\n              swap1\n              div\n              0xff\n              and\n                /* \"Voting.sol\":2262:2295  !allowedVoters[newAllowerdVoters] */\n              iszero\n                /* \"Voting.sol\":2254:2332  require(!allowedVoters[newAllowerdVoters], \"This Address is Already a Voter \") */\n              tag_209\n              jumpi\n              mload(0x40)\n              0x08c379a000000000000000000000000000000000000000000000000000000000\n              dup2\n              mstore\n              0x04\n              add\n              tag_210\n              swap1\n              tag_211\n              jump\t// in\n            tag_210:\n              mload(0x40)\n              dup1\n              swap2\n              sub\n              swap1\n              revert\n            tag_209:\n                /* \"Voting.sol\":2380:2384  true */\n              0x01\n                /* \"Voting.sol\":2345:2358  allowedVoters */\n              0x0a\n                /* \"Voting.sol\":2345:2377  allowedVoters[newAllowerdVoters] */\n              0x00\n                /* \"Voting.sol\":2359:2376  newAllowerdVoters */\n              dup4\n                /* \"Voting.sol\":2345:2377  allowedVoters[newAllowerdVoters] */\n              0xffffffffffffffffffffffffffffffffffffffff\n              and\n              0xffffffffffffffffffffffffffffffffffffffff\n              and\n              dup2\n              mstore\n              0x20\n              add\n              swap1\n              dup2\n              mstore\n              0x20\n              add\n              0x00\n              keccak256\n              0x00\n                /* \"Voting.sol\":2345:2384  allowedVoters[newAllowerdVoters] = true */\n              0x0100\n              exp\n              dup2\n              sload\n              dup2\n              0xff\n              mul\n              not\n              and\n              swap1\n              dup4\n              iszero\n              iszero\n              mul\n              or\n              swap1\n              sstore\n              pop\n                /* \"Voting.sol\":2395:2413  totalAllowedVoters */\n              0x0b\n              0x00\n                /* \"Voting.sol\":2395:2415  totalAllowedVoters++ */\n              dup2\n              sload\n              dup1\n              swap3\n              swap2\n              swap1\n              tag_212\n              swap1\n              tag_175\n              jump\t// in\n            tag_212:\n              swap2\n              swap1\n              pop\n              sstore\n              pop\n                /* \"Voting.sol\":2095:2423  function addAllowerdVoters(address newAllowerdVoters) public restricted {... */\n              pop\n              jump\t// out\n                /* \"Voting.sol\":4579:5543  function _getWinnerIndices() internal view restricted returns (uint[] memory) {... */\n            tag_124:\n                /* \"Voting.sol\":4642:4655  uint[] memory */\n              0x60\n                /* \"Voting.sol\":1476:1483  manager */\n              0x00\n              dup1\n              sload\n              swap1\n              0x0100\n              exp\n              swap1\n              div\n              0xffffffffffffffffffffffffffffffffffffffff\n              and\n                /* \"Voting.sol\":1462:1483  msg.sender == manager */\n              0xffffffffffffffffffffffffffffffffffffffff\n              and\n                /* \"Voting.sol\":1462:1472  msg.sender */\n              caller\n                /* \"Voting.sol\":1462:1483  msg.sender == manager */\n              0xffffffffffffffffffffffffffffffffffffffff\n              and\n              eq\n                /* \"Voting.sol\":1454:1484  require(msg.sender == manager) */\n              tag_214\n              jumpi\n              0x00\n              dup1\n              revert\n            tag_214:\n                /* \"Voting.sol\":4668:4681  uint maxVotes */\n              0x00\n                /* \"Voting.sol\":4696:4723  uint[] memory winnerIndices */\n              0x60\n                /* \"Voting.sol\":4734:4744  uint count */\n              0x00\n                /* \"Voting.sol\":4766:4772  uint i */\n              dup1\n                /* \"Voting.sol\":4761:5475  for (uint i = 0; i < choicesDatas.length; i++) {... */\n            tag_216:\n                /* \"Voting.sol\":4782:4794  choicesDatas */\n              0x0c\n                /* \"Voting.sol\":4782:4801  choicesDatas.length */\n              dup1\n              sload\n              swap1\n              pop\n                /* \"Voting.sol\":4778:4779  i */\n              dup2\n                /* \"Voting.sol\":4778:4801  i < choicesDatas.length */\n              lt\n                /* \"Voting.sol\":4761:5475  for (uint i = 0; i < choicesDatas.length; i++) {... */\n              iszero\n              tag_217\n              jumpi\n                /* \"Voting.sol\":4859:4867  maxVotes */\n              dup4\n                /* \"Voting.sol\":4827:4839  choicesDatas */\n              0x0c\n                /* \"Voting.sol\":4840:4841  i */\n              dup3\n                /* \"Voting.sol\":4827:4842  choicesDatas[i] */\n              dup2\n              sload\n              dup2\n              lt\n              tag_219\n              jumpi\n              tag_220\n              tag_132\n              jump\t// in\n            tag_220:\n            tag_219:\n              swap1\n              0x00\n              mstore\n              keccak256(0x00, 0x20)\n              swap1\n              0x03\n              mul\n              add\n                /* \"Voting.sol\":4827:4856  choicesDatas[i].receivedVotes */\n              0x01\n              add\n              sload\n                /* \"Voting.sol\":4827:4867  choicesDatas[i].receivedVotes > maxVotes */\n              gt\n                /* \"Voting.sol\":4823:5464  if (choicesDatas[i].receivedVotes > maxVotes) {... */\n              iszero\n              tag_222\n              jumpi\n                /* \"Voting.sol\":4899:4911  choicesDatas */\n              0x0c\n                /* \"Voting.sol\":4912:4913  i */\n              dup2\n                /* \"Voting.sol\":4899:4914  choicesDatas[i] */\n              dup2\n              sload\n              dup2\n              lt\n              tag_223\n              jumpi\n              tag_224\n              tag_132\n              jump\t// in\n            tag_224:\n            tag_223:\n              swap1\n              0x00\n              mstore\n              keccak256(0x00, 0x20)\n              swap1\n              0x03\n              mul\n              add\n                /* \"Voting.sol\":4899:4928  choicesDatas[i].receivedVotes */\n              0x01\n              add\n              sload\n                /* \"Voting.sol\":4888:4928  maxVotes = choicesDatas[i].receivedVotes */\n              swap4\n              pop\n                /* \"Voting.sol\":4955:4956  1 */\n              0x01\n                /* \"Voting.sol\":4947:4956  count = 1 */\n              swap2\n              pop\n                /* \"Voting.sol\":5002:5007  count */\n              dup2\n                /* \"Voting.sol\":4991:5008  new uint[](count) */\n              0xffffffffffffffff\n              dup2\n              gt\n              iszero\n              tag_226\n              jumpi\n              tag_227\n              tag_228\n              jump\t// in\n            tag_227:\n            tag_226:\n              mload(0x40)\n              swap1\n              dup1\n              dup3\n              mstore\n              dup1\n              0x20\n              mul\n              0x20\n              add\n              dup3\n              add\n              0x40\n              mstore\n              dup1\n              iszero\n              tag_229\n              jumpi\n              dup2\n              0x20\n              add\n              0x20\n              dup3\n              mul\n              dup1\n              calldatasize\n              dup4\n              calldatacopy\n              dup1\n              dup3\n              add\n              swap2\n              pop\n              pop\n              swap1\n              pop\n            tag_229:\n              pop\n                /* \"Voting.sol\":4975:5008  winnerIndices = new uint[](count) */\n              swap3\n              pop\n                /* \"Voting.sol\":5046:5047  i */\n              dup1\n                /* \"Voting.sol\":5027:5040  winnerIndices */\n              dup4\n                /* \"Voting.sol\":5041:5042  0 */\n              0x00\n                /* \"Voting.sol\":5027:5043  winnerIndices[0] */\n              dup2\n              mload\n              dup2\n              lt\n              tag_230\n              jumpi\n              tag_231\n              tag_132\n              jump\t// in\n            tag_231:\n            tag_230:\n              0x20\n              mul\n              0x20\n              add\n              add\n                /* \"Voting.sol\":5027:5047  winnerIndices[0] = i */\n              dup2\n              dup2\n              mstore\n              pop\n              pop\n                /* \"Voting.sol\":4823:5464  if (choicesDatas[i].receivedVotes > maxVotes) {... */\n              jump(tag_232)\n            tag_222:\n                /* \"Voting.sol\":5106:5114  maxVotes */\n              dup4\n                /* \"Voting.sol\":5073:5085  choicesDatas */\n              0x0c\n                /* \"Voting.sol\":5086:5087  i */\n              dup3\n                /* \"Voting.sol\":5073:5088  choicesDatas[i] */\n              dup2\n              sload\n              dup2\n              lt\n              tag_233\n              jumpi\n              tag_234\n              tag_132\n              jump\t// in\n            tag_234:\n            tag_233:\n              swap1\n              0x00\n              mstore\n              keccak256(0x00, 0x20)\n              swap1\n              0x03\n              mul\n              add\n                /* \"Voting.sol\":5073:5102  choicesDatas[i].receivedVotes */\n              0x01\n              add\n              sload\n                /* \"Voting.sol\":5073:5114  choicesDatas[i].receivedVotes == maxVotes */\n              sub\n                /* \"Voting.sol\":5069:5464  if (choicesDatas[i].receivedVotes == maxVotes) {... */\n              tag_236\n              jumpi\n                /* \"Voting.sol\":5135:5142  count++ */\n              dup2\n              dup1\n              tag_237\n              swap1\n              tag_175\n              jump\t// in\n            tag_237:\n              swap3\n              pop\n              pop\n                /* \"Voting.sol\":5161:5191  uint[] memory newWinnerIndices */\n              0x00\n                /* \"Voting.sol\":5205:5210  count */\n              dup3\n                /* \"Voting.sol\":5194:5211  new uint[](count) */\n              0xffffffffffffffff\n              dup2\n              gt\n              iszero\n              tag_238\n              jumpi\n              tag_239\n              tag_228\n              jump\t// in\n            tag_239:\n            tag_238:\n              mload(0x40)\n              swap1\n              dup1\n              dup3\n              mstore\n              dup1\n              0x20\n              mul\n              0x20\n              add\n              dup3\n              add\n              0x40\n              mstore\n              dup1\n              iszero\n              tag_240\n              jumpi\n              dup2\n              0x20\n              add\n              0x20\n              dup3\n              mul\n              dup1\n              calldatasize\n              dup4\n              calldatacopy\n              dup1\n              dup3\n              add\n              swap2\n              pop\n              pop\n              swap1\n              pop\n            tag_240:\n              pop\n                /* \"Voting.sol\":5161:5211  uint[] memory newWinnerIndices = new uint[](count) */\n              swap1\n              pop\n                /* \"Voting.sol\":5235:5241  uint j */\n              0x00\n                /* \"Voting.sol\":5230:5348  for (uint j = 0; j < count - 1; j++) {... */\n            tag_241:\n                /* \"Voting.sol\":5259:5260  1 */\n              0x01\n                /* \"Voting.sol\":5251:5256  count */\n              dup5\n                /* \"Voting.sol\":5251:5260  count - 1 */\n              tag_244\n              swap2\n              swap1\n              tag_245\n              jump\t// in\n            tag_244:\n                /* \"Voting.sol\":5247:5248  j */\n              dup2\n                /* \"Voting.sol\":5247:5260  j < count - 1 */\n              lt\n                /* \"Voting.sol\":5230:5348  for (uint j = 0; j < count - 1; j++) {... */\n              iszero\n              tag_242\n              jumpi\n                /* \"Voting.sol\":5312:5325  winnerIndices */\n              dup5\n                /* \"Voting.sol\":5326:5327  j */\n              dup2\n                /* \"Voting.sol\":5312:5328  winnerIndices[j] */\n              dup2\n              mload\n              dup2\n              lt\n              tag_246\n              jumpi\n              tag_247\n              tag_132\n              jump\t// in\n            tag_247:\n            tag_246:\n              0x20\n              mul\n              0x20\n              add\n              add\n              mload\n                /* \"Voting.sol\":5290:5306  newWinnerIndices */\n              dup3\n                /* \"Voting.sol\":5307:5308  j */\n              dup3\n                /* \"Voting.sol\":5290:5309  newWinnerIndices[j] */\n              dup2\n              mload\n              dup2\n              lt\n              tag_248\n              jumpi\n              tag_249\n              tag_132\n              jump\t// in\n            tag_249:\n            tag_248:\n              0x20\n              mul\n              0x20\n              add\n              add\n                /* \"Voting.sol\":5290:5328  newWinnerIndices[j] = winnerIndices[j] */\n              dup2\n              dup2\n              mstore\n              pop\n              pop\n                /* \"Voting.sol\":5262:5265  j++ */\n              dup1\n              dup1\n              tag_250\n              swap1\n              tag_175\n              jump\t// in\n            tag_250:\n              swap2\n              pop\n              pop\n                /* \"Voting.sol\":5230:5348  for (uint j = 0; j < count - 1; j++) {... */\n              jump(tag_241)\n            tag_242:\n              pop\n                /* \"Voting.sol\":5396:5397  i */\n              dup2\n                /* \"Voting.sol\":5366:5382  newWinnerIndices */\n              dup2\n                /* \"Voting.sol\":5391:5392  1 */\n              0x01\n                /* \"Voting.sol\":5383:5388  count */\n              dup6\n                /* \"Voting.sol\":5383:5392  count - 1 */\n              tag_251\n              swap2\n              swap1\n              tag_245\n              jump\t// in\n            tag_251:\n                /* \"Voting.sol\":5366:5393  newWinnerIndices[count - 1] */\n              dup2\n              mload\n              dup2\n              lt\n              tag_252\n              jumpi\n              tag_253\n              tag_132\n              jump\t// in\n            tag_253:\n            tag_252:\n              0x20\n              mul\n              0x20\n              add\n              add\n                /* \"Voting.sol\":5366:5397  newWinnerIndices[count - 1] = i */\n              dup2\n              dup2\n              mstore\n              pop\n              pop\n                /* \"Voting.sol\":5432:5448  newWinnerIndices */\n              dup1\n                /* \"Voting.sol\":5416:5448  winnerIndices = newWinnerIndices */\n              swap4\n              pop\n                /* \"Voting.sol\":5116:5464  {... */\n              pop\n                /* \"Voting.sol\":5069:5464  if (choicesDatas[i].receivedVotes == maxVotes) {... */\n            tag_236:\n                /* \"Voting.sol\":4823:5464  if (choicesDatas[i].receivedVotes > maxVotes) {... */\n            tag_232:\n                /* \"Voting.sol\":4803:4806  i++ */\n              dup1\n              dup1\n              tag_254\n              swap1\n              tag_175\n              jump\t// in\n            tag_254:\n              swap2\n              pop\n              pop\n                /* \"Voting.sol\":4761:5475  for (uint i = 0; i < choicesDatas.length; i++) {... */\n              jump(tag_216)\n            tag_217:\n              pop\n                /* \"Voting.sol\":5494:5507  winnerIndices */\n              dup2\n                /* \"Voting.sol\":5487:5507  return winnerIndices */\n              swap4\n              pop\n              pop\n              pop\n              pop\n                /* \"Voting.sol\":4579:5543  function _getWinnerIndices() internal view restricted returns (uint[] memory) {... */\n              swap1\n              jump\t// out\n                /* \"#utility.yul\":7:133   */\n            tag_255:\n                /* \"#utility.yul\":44:51   */\n              0x00\n                /* \"#utility.yul\":84:126   */\n              0xffffffffffffffffffffffffffffffffffffffff\n                /* \"#utility.yul\":77:82   */\n              dup3\n                /* \"#utility.yul\":73:127   */\n              and\n                /* \"#utility.yul\":62:127   */\n              swap1\n              pop\n                /* \"#utility.yul\":7:133   */\n              swap2\n              swap1\n              pop\n              jump\t// out\n                /* \"#utility.yul\":139:243   */\n            tag_256:\n                /* \"#utility.yul\":184:191   */\n              0x00\n                /* \"#utility.yul\":213:237   */\n              tag_338\n                /* \"#utility.yul\":231:236   */\n              dup3\n                /* \"#utility.yul\":213:237   */\n              tag_255\n              jump\t// in\n            tag_338:\n                /* \"#utility.yul\":202:237   */\n              swap1\n              pop\n                /* \"#utility.yul\":139:243   */\n              swap2\n              swap1\n              pop\n              jump\t// out\n                /* \"#utility.yul\":249:391   */\n            tag_257:\n                /* \"#utility.yul\":352:384   */\n              tag_340\n                /* \"#utility.yul\":378:383   */\n              dup2\n                /* \"#utility.yul\":352:384   */\n              tag_256\n              jump\t// in\n            tag_340:\n                /* \"#utility.yul\":347:350   */\n              dup3\n                /* \"#utility.yul\":340:385   */\n              mstore\n                /* \"#utility.yul\":249:391   */\n              pop\n              pop\n              jump\t// out\n                /* \"#utility.yul\":397:651   */\n            tag_31:\n                /* \"#utility.yul\":506:510   */\n              0x00\n                /* \"#utility.yul\":544:546   */\n              0x20\n                /* \"#utility.yul\":533:542   */\n              dup3\n                /* \"#utility.yul\":529:547   */\n              add\n                /* \"#utility.yul\":521:547   */\n              swap1\n              pop\n                /* \"#utility.yul\":557:644   */\n              tag_342\n                /* \"#utility.yul\":641:642   */\n              0x00\n                /* \"#utility.yul\":630:639   */\n              dup4\n                /* \"#utility.yul\":626:643   */\n              add\n                /* \"#utility.yul\":617:623   */\n              dup5\n                /* \"#utility.yul\":557:644   */\n              tag_257\n              jump\t// in\n            tag_342:\n                /* \"#utility.yul\":397:651   */\n              swap3\n              swap2\n              pop\n              pop\n              jump\t// out\n                /* \"#utility.yul\":657:753   */\n            tag_258:\n                /* \"#utility.yul\":694:701   */\n              0x00\n                /* \"#utility.yul\":723:747   */\n              tag_344\n                /* \"#utility.yul\":741:746   */\n              dup3\n                /* \"#utility.yul\":723:747   */\n              tag_255\n              jump\t// in\n            tag_344:\n                /* \"#utility.yul\":712:747   */\n              swap1\n              pop\n                /* \"#utility.yul\":657:753   */\n              swap2\n              swap1\n              pop\n              jump\t// out\n                /* \"#utility.yul\":759:877   */\n            tag_259:\n                /* \"#utility.yul\":846:870   */\n              tag_346\n                /* \"#utility.yul\":864:869   */\n              dup2\n                /* \"#utility.yul\":846:870   */\n              tag_258\n              jump\t// in\n            tag_346:\n                /* \"#utility.yul\":841:844   */\n              dup3\n                /* \"#utility.yul\":834:871   */\n              mstore\n                /* \"#utility.yul\":759:877   */\n              pop\n              pop\n              jump\t// out\n                /* \"#utility.yul\":883:960   */\n            tag_260:\n                /* \"#utility.yul\":920:927   */\n              0x00\n                /* \"#utility.yul\":949:954   */\n              dup2\n                /* \"#utility.yul\":938:954   */\n              swap1\n              pop\n                /* \"#utility.yul\":883:960   */\n              swap2\n              swap1\n              pop\n              jump\t// out\n                /* \"#utility.yul\":966:1084   */\n            tag_261:\n                /* \"#utility.yul\":1053:1077   */\n              tag_349\n                /* \"#utility.yul\":1071:1076   */\n              dup2\n                /* \"#utility.yul\":1053:1077   */\n              tag_260\n              jump\t// in\n            tag_349:\n                /* \"#utility.yul\":1048:1051   */\n              dup3\n                /* \"#utility.yul\":1041:1078   */\n              mstore\n                /* \"#utility.yul\":966:1084   */\n              pop\n              pop\n              jump\t// out\n                /* \"#utility.yul\":1090:1180   */\n            tag_262:\n                /* \"#utility.yul\":1124:1131   */\n              0x00\n                /* \"#utility.yul\":1167:1172   */\n              dup2\n                /* \"#utility.yul\":1160:1173   */\n              iszero\n                /* \"#utility.yul\":1153:1174   */\n              iszero\n                /* \"#utility.yul\":1142:1174   */\n              swap1\n              pop\n                /* \"#utility.yul\":1090:1180   */\n              swap2\n              swap1\n              pop\n              jump\t// out\n                /* \"#utility.yul\":1186:1295   */\n            tag_263:\n                /* \"#utility.yul\":1267:1288   */\n              tag_352\n                /* \"#utility.yul\":1282:1287   */\n              dup2\n                /* \"#utility.yul\":1267:1288   */\n              tag_262\n              jump\t// in\n            tag_352:\n                /* \"#utility.yul\":1262:1265   */\n              dup3\n                /* \"#utility.yul\":1255:1289   */\n              mstore\n                /* \"#utility.yul\":1186:1295   */\n              pop\n              pop\n              jump\t// out\n                /* \"#utility.yul\":1301:2286   */\n            tag_36:\n                /* \"#utility.yul\":1584:1588   */\n              0x00\n                /* \"#utility.yul\":1622:1625   */\n              0x0100\n                /* \"#utility.yul\":1611:1620   */\n              dup3\n                /* \"#utility.yul\":1607:1626   */\n              add\n                /* \"#utility.yul\":1599:1626   */\n              swap1\n              pop\n                /* \"#utility.yul\":1636:1707   */\n              tag_354\n                /* \"#utility.yul\":1704:1705   */\n              0x00\n                /* \"#utility.yul\":1693:1702   */\n              dup4\n                /* \"#utility.yul\":1689:1706   */\n              add\n                /* \"#utility.yul\":1680:1686   */\n              dup12\n                /* \"#utility.yul\":1636:1707   */\n              tag_259\n              jump\t// in\n            tag_354:\n                /* \"#utility.yul\":1717:1789   */\n              tag_355\n                /* \"#utility.yul\":1785:1787   */\n              0x20\n                /* \"#utility.yul\":1774:1783   */\n              dup4\n                /* \"#utility.yul\":1770:1788   */\n              add\n                /* \"#utility.yul\":1761:1767   */\n              dup11\n                /* \"#utility.yul\":1717:1789   */\n              tag_261\n              jump\t// in\n            tag_355:\n                /* \"#utility.yul\":1799:1871   */\n              tag_356\n                /* \"#utility.yul\":1867:1869   */\n              0x40\n                /* \"#utility.yul\":1856:1865   */\n              dup4\n                /* \"#utility.yul\":1852:1870   */\n              add\n                /* \"#utility.yul\":1843:1849   */\n              dup10\n                /* \"#utility.yul\":1799:1871   */\n              tag_261\n              jump\t// in\n            tag_356:\n                /* \"#utility.yul\":1881:1953   */\n              tag_357\n                /* \"#utility.yul\":1949:1951   */\n              0x60\n                /* \"#utility.yul\":1938:1947   */\n              dup4\n                /* \"#utility.yul\":1934:1952   */\n              add\n                /* \"#utility.yul\":1925:1931   */\n              dup9\n                /* \"#utility.yul\":1881:1953   */\n              tag_261\n              jump\t// in\n            tag_357:\n                /* \"#utility.yul\":1963:2030   */\n              tag_358\n                /* \"#utility.yul\":2025:2028   */\n              0x80\n                /* \"#utility.yul\":2014:2023   */\n              dup4\n                /* \"#utility.yul\":2010:2029   */\n              add\n                /* \"#utility.yul\":2001:2007   */\n              dup8\n                /* \"#utility.yul\":1963:2030   */\n              tag_263\n              jump\t// in\n            tag_358:\n                /* \"#utility.yul\":2040:2113   */\n              tag_359\n                /* \"#utility.yul\":2108:2111   */\n              0xa0\n                /* \"#utility.yul\":2097:2106   */\n              dup4\n                /* \"#utility.yul\":2093:2112   */\n              add\n                /* \"#utility.yul\":2084:2090   */\n              dup7\n                /* \"#utility.yul\":2040:2113   */\n              tag_259\n              jump\t// in\n            tag_359:\n                /* \"#utility.yul\":2123:2196   */\n              tag_360\n                /* \"#utility.yul\":2191:2194   */\n              0xc0\n                /* \"#utility.yul\":2180:2189   */\n              dup4\n                /* \"#utility.yul\":2176:2195   */\n              add\n                /* \"#utility.yul\":2167:2173   */\n              dup6\n                /* \"#utility.yul\":2123:2196   */\n              tag_261\n              jump\t// in\n            tag_360:\n                /* \"#utility.yul\":2206:2279   */\n              tag_361\n                /* \"#utility.yul\":2274:2277   */\n              0xe0\n                /* \"#utility.yul\":2263:2272   */\n              dup4\n                /* \"#utility.yul\":2259:2278   */\n              add\n                /* \"#utility.yul\":2250:2256   */\n              dup5\n                /* \"#utility.yul\":2206:2279   */\n              tag_261\n              jump\t// in\n            tag_361:\n                /* \"#utility.yul\":1301:2286   */\n              swap10\n              swap9\n              pop\n              pop\n              pop\n              pop\n              pop\n              pop\n              pop\n              pop\n              pop\n              jump\t// out\n                /* \"#utility.yul\":2292:2514   */\n            tag_41:\n                /* \"#utility.yul\":2385:2389   */\n              0x00\n                /* \"#utility.yul\":2423:2425   */\n              0x20\n                /* \"#utility.yul\":2412:2421   */\n              dup3\n                /* \"#utility.yul\":2408:2426   */\n              add\n                /* \"#utility.yul\":2400:2426   */\n              swap1\n              pop\n                /* \"#utility.yul\":2436:2507   */\n              tag_363\n                /* \"#utility.yul\":2504:2505   */\n              0x00\n                /* \"#utility.yul\":2493:2502   */\n              dup4\n                /* \"#utility.yul\":2489:2506   */\n              add\n                /* \"#utility.yul\":2480:2486   */\n              dup5\n                /* \"#utility.yul\":2436:2507   */\n              tag_261\n              jump\t// in\n            tag_363:\n                /* \"#utility.yul\":2292:2514   */\n              swap3\n              swap2\n              pop\n              pop\n              jump\t// out\n                /* \"#utility.yul\":2601:2718   */\n            tag_265:\n                /* \"#utility.yul\":2710:2711   */\n              0x00\n                /* \"#utility.yul\":2707:2708   */\n              dup1\n                /* \"#utility.yul\":2700:2712   */\n              revert\n                /* \"#utility.yul\":2847:2969   */\n            tag_267:\n                /* \"#utility.yul\":2920:2944   */\n              tag_368\n                /* \"#utility.yul\":2938:2943   */\n              dup2\n                /* \"#utility.yul\":2920:2944   */\n              tag_260\n              jump\t// in\n            tag_368:\n                /* \"#utility.yul\":2913:2918   */\n              dup2\n                /* \"#utility.yul\":2910:2945   */\n              eq\n                /* \"#utility.yul\":2900:2963   */\n              tag_369\n              jumpi\n                /* \"#utility.yul\":2959:2960   */\n              0x00\n                /* \"#utility.yul\":2956:2957   */\n              dup1\n                /* \"#utility.yul\":2949:2961   */\n              revert\n                /* \"#utility.yul\":2900:2963   */\n            tag_369:\n                /* \"#utility.yul\":2847:2969   */\n              pop\n              jump\t// out\n                /* \"#utility.yul\":2975:3114   */\n            tag_268:\n                /* \"#utility.yul\":3021:3026   */\n              0x00\n                /* \"#utility.yul\":3059:3065   */\n              dup2\n                /* \"#utility.yul\":3046:3066   */\n              calldataload\n                /* \"#utility.yul\":3037:3066   */\n              swap1\n              pop\n                /* \"#utility.yul\":3075:3108   */\n              tag_371\n                /* \"#utility.yul\":3102:3107   */\n              dup2\n                /* \"#utility.yul\":3075:3108   */\n              tag_267\n              jump\t// in\n            tag_371:\n                /* \"#utility.yul\":2975:3114   */\n              swap3\n              swap2\n              pop\n              pop\n              jump\t// out\n                /* \"#utility.yul\":3120:3449   */\n            tag_52:\n                /* \"#utility.yul\":3179:3185   */\n              0x00\n                /* \"#utility.yul\":3228:3230   */\n              0x20\n                /* \"#utility.yul\":3216:3225   */\n              dup3\n                /* \"#utility.yul\":3207:3214   */\n              dup5\n                /* \"#utility.yul\":3203:3226   */\n              sub\n                /* \"#utility.yul\":3199:3231   */\n              slt\n                /* \"#utility.yul\":3196:3315   */\n              iszero\n              tag_373\n              jumpi\n                /* \"#utility.yul\":3234:3313   */\n              tag_374\n              tag_265\n              jump\t// in\n            tag_374:\n                /* \"#utility.yul\":3196:3315   */\n            tag_373:\n                /* \"#utility.yul\":3354:3355   */\n              0x00\n                /* \"#utility.yul\":3379:3432   */\n              tag_375\n                /* \"#utility.yul\":3424:3431   */\n              dup5\n                /* \"#utility.yul\":3415:3421   */\n              dup3\n                /* \"#utility.yul\":3404:3413   */\n              dup6\n                /* \"#utility.yul\":3400:3422   */\n              add\n                /* \"#utility.yul\":3379:3432   */\n              tag_268\n              jump\t// in\n            tag_375:\n                /* \"#utility.yul\":3369:3432   */\n              swap2\n              pop\n                /* \"#utility.yul\":3325:3442   */\n              pop\n                /* \"#utility.yul\":3120:3449   */\n              swap3\n              swap2\n              pop\n              pop\n              jump\t// out\n                /* \"#utility.yul\":3455:3577   */\n            tag_269:\n                /* \"#utility.yul\":3528:3552   */\n              tag_377\n                /* \"#utility.yul\":3546:3551   */\n              dup2\n                /* \"#utility.yul\":3528:3552   */\n              tag_258\n              jump\t// in\n            tag_377:\n                /* \"#utility.yul\":3521:3526   */\n              dup2\n                /* \"#utility.yul\":3518:3553   */\n              eq\n                /* \"#utility.yul\":3508:3571   */\n              tag_378\n              jumpi\n                /* \"#utility.yul\":3567:3568   */\n              0x00\n                /* \"#utility.yul\":3564:3565   */\n              dup1\n                /* \"#utility.yul\":3557:3569   */\n              revert\n                /* \"#utility.yul\":3508:3571   */\n            tag_378:\n                /* \"#utility.yul\":3455:3577   */\n              pop\n              jump\t// out\n                /* \"#utility.yul\":3583:3722   */\n            tag_270:\n                /* \"#utility.yul\":3629:3634   */\n              0x00\n                /* \"#utility.yul\":3667:3673   */\n              dup2\n                /* \"#utility.yul\":3654:3674   */\n              calldataload\n                /* \"#utility.yul\":3645:3674   */\n              swap1\n              pop\n                /* \"#utility.yul\":3683:3716   */\n              tag_380\n                /* \"#utility.yul\":3710:3715   */\n              dup2\n                /* \"#utility.yul\":3683:3716   */\n              tag_269\n              jump\t// in\n            tag_380:\n                /* \"#utility.yul\":3583:3722   */\n              swap3\n              swap2\n              pop\n              pop\n              jump\t// out\n                /* \"#utility.yul\":3728:4057   */\n            tag_57:\n                /* \"#utility.yul\":3787:3793   */\n              0x00\n                /* \"#utility.yul\":3836:3838   */\n              0x20\n                /* \"#utility.yul\":3824:3833   */\n              dup3\n                /* \"#utility.yul\":3815:3822   */\n              dup5\n                /* \"#utility.yul\":3811:3834   */\n              sub\n                /* \"#utility.yul\":3807:3839   */\n              slt\n                /* \"#utility.yul\":3804:3923   */\n              iszero\n              tag_382\n              jumpi\n                /* \"#utility.yul\":3842:3921   */\n              tag_383\n              tag_265\n              jump\t// in\n            tag_383:\n                /* \"#utility.yul\":3804:3923   */\n            tag_382:\n                /* \"#utility.yul\":3962:3963   */\n              0x00\n                /* \"#utility.yul\":3987:4040   */\n              tag_384\n                /* \"#utility.yul\":4032:4039   */\n              dup5\n                /* \"#utility.yul\":4023:4029   */\n              dup3\n                /* \"#utility.yul\":4012:4021   */\n              dup6\n                /* \"#utility.yul\":4008:4030   */\n              add\n                /* \"#utility.yul\":3987:4040   */\n              tag_270\n              jump\t// in\n            tag_384:\n                /* \"#utility.yul\":3977:4040   */\n              swap2\n              pop\n                /* \"#utility.yul\":3933:4050   */\n              pop\n                /* \"#utility.yul\":3728:4057   */\n              swap3\n              swap2\n              pop\n              pop\n              jump\t// out\n                /* \"#utility.yul\":4063:4273   */\n            tag_60:\n                /* \"#utility.yul\":4150:4154   */\n              0x00\n                /* \"#utility.yul\":4188:4190   */\n              0x20\n                /* \"#utility.yul\":4177:4186   */\n              dup3\n                /* \"#utility.yul\":4173:4191   */\n              add\n                /* \"#utility.yul\":4165:4191   */\n              swap1\n              pop\n                /* \"#utility.yul\":4201:4266   */\n              tag_386\n                /* \"#utility.yul\":4263:4264   */\n              0x00\n                /* \"#utility.yul\":4252:4261   */\n              dup4\n                /* \"#utility.yul\":4248:4265   */\n              add\n                /* \"#utility.yul\":4239:4245   */\n              dup5\n                /* \"#utility.yul\":4201:4266   */\n              tag_263\n              jump\t// in\n            tag_386:\n                /* \"#utility.yul\":4063:4273   */\n              swap3\n              swap2\n              pop\n              pop\n              jump\t// out\n                /* \"#utility.yul\":4279:4378   */\n            tag_271:\n                /* \"#utility.yul\":4331:4337   */\n              0x00\n                /* \"#utility.yul\":4365:4370   */\n              dup2\n                /* \"#utility.yul\":4359:4371   */\n              mload\n                /* \"#utility.yul\":4349:4371   */\n              swap1\n              pop\n                /* \"#utility.yul\":4279:4378   */\n              swap2\n              swap1\n              pop\n              jump\t// out\n                /* \"#utility.yul\":4384:4553   */\n            tag_272:\n                /* \"#utility.yul\":4468:4479   */\n              0x00\n                /* \"#utility.yul\":4502:4508   */\n              dup3\n                /* \"#utility.yul\":4497:4500   */\n              dup3\n                /* \"#utility.yul\":4490:4509   */\n              mstore\n                /* \"#utility.yul\":4542:4546   */\n              0x20\n                /* \"#utility.yul\":4537:4540   */\n              dup3\n                /* \"#utility.yul\":4533:4547   */\n              add\n                /* \"#utility.yul\":4518:4547   */\n              swap1\n              pop\n                /* \"#utility.yul\":4384:4553   */\n              swap3\n              swap2\n              pop\n              pop\n              jump\t// out\n                /* \"#utility.yul\":4559:4805   */\n            tag_273:\n                /* \"#utility.yul\":4640:4641   */\n              0x00\n                /* \"#utility.yul\":4650:4763   */\n            tag_390:\n                /* \"#utility.yul\":4664:4670   */\n              dup4\n                /* \"#utility.yul\":4661:4662   */\n              dup2\n                /* \"#utility.yul\":4658:4671   */\n              lt\n                /* \"#utility.yul\":4650:4763   */\n              iszero\n              tag_392\n              jumpi\n                /* \"#utility.yul\":4749:4750   */\n              dup1\n                /* \"#utility.yul\":4744:4747   */\n              dup3\n                /* \"#utility.yul\":4740:4751   */\n              add\n                /* \"#utility.yul\":4734:4752   */\n              mload\n                /* \"#utility.yul\":4730:4731   */\n              dup2\n                /* \"#utility.yul\":4725:4728   */\n              dup5\n                /* \"#utility.yul\":4721:4732   */\n              add\n                /* \"#utility.yul\":4714:4753   */\n              mstore\n                /* \"#utility.yul\":4686:4688   */\n              0x20\n                /* \"#utility.yul\":4683:4684   */\n              dup2\n                /* \"#utility.yul\":4679:4689   */\n              add\n                /* \"#utility.yul\":4674:4689   */\n              swap1\n              pop\n                /* \"#utility.yul\":4650:4763   */\n              jump(tag_390)\n            tag_392:\n                /* \"#utility.yul\":4797:4798   */\n              0x00\n                /* \"#utility.yul\":4788:4794   */\n              dup5\n                /* \"#utility.yul\":4783:4786   */\n              dup5\n                /* \"#utility.yul\":4779:4795   */\n              add\n                /* \"#utility.yul\":4772:4799   */\n              mstore\n                /* \"#utility.yul\":4621:4805   */\n              pop\n                /* \"#utility.yul\":4559:4805   */\n              pop\n              pop\n              pop\n              jump\t// out\n                /* \"#utility.yul\":4811:4913   */\n            tag_274:\n                /* \"#utility.yul\":4852:4858   */\n              0x00\n                /* \"#utility.yul\":4903:4905   */\n              0x1f\n                /* \"#utility.yul\":4899:4906   */\n              not\n                /* \"#utility.yul\":4894:4896   */\n              0x1f\n                /* \"#utility.yul\":4887:4892   */\n              dup4\n                /* \"#utility.yul\":4883:4897   */\n              add\n                /* \"#utility.yul\":4879:4907   */\n              and\n                /* \"#utility.yul\":4869:4907   */\n              swap1\n              pop\n                /* \"#utility.yul\":4811:4913   */\n              swap2\n              swap1\n              pop\n              jump\t// out\n                /* \"#utility.yul\":4919:5296   */\n            tag_275:\n                /* \"#utility.yul\":5007:5010   */\n              0x00\n                /* \"#utility.yul\":5035:5074   */\n              tag_395\n                /* \"#utility.yul\":5068:5073   */\n              dup3\n                /* \"#utility.yul\":5035:5074   */\n              tag_271\n              jump\t// in\n            tag_395:\n                /* \"#utility.yul\":5090:5161   */\n              tag_396\n                /* \"#utility.yul\":5154:5160   */\n              dup2\n                /* \"#utility.yul\":5149:5152   */\n              dup6\n                /* \"#utility.yul\":5090:5161   */\n              tag_272\n              jump\t// in\n            tag_396:\n                /* \"#utility.yul\":5083:5161   */\n              swap4\n              pop\n                /* \"#utility.yul\":5170:5235   */\n              tag_397\n                /* \"#utility.yul\":5228:5234   */\n              dup2\n                /* \"#utility.yul\":5223:5226   */\n              dup6\n                /* \"#utility.yul\":5216:5220   */\n              0x20\n                /* \"#utility.yul\":5209:5214   */\n              dup7\n                /* \"#utility.yul\":5205:5221   */\n              add\n                /* \"#utility.yul\":5170:5235   */\n              tag_273\n              jump\t// in\n            tag_397:\n                /* \"#utility.yul\":5260:5289   */\n              tag_398\n                /* \"#utility.yul\":5282:5288   */\n              dup2\n                /* \"#utility.yul\":5260:5289   */\n              tag_274\n              jump\t// in\n            tag_398:\n                /* \"#utility.yul\":5255:5258   */\n              dup5\n                /* \"#utility.yul\":5251:5290   */\n              add\n                /* \"#utility.yul\":5244:5290   */\n              swap2\n              pop\n                /* \"#utility.yul\":5011:5296   */\n              pop\n                /* \"#utility.yul\":4919:5296   */\n              swap3\n              swap2\n              pop\n              pop\n              jump\t// out\n                /* \"#utility.yul\":5302:5424   */\n            tag_276:\n                /* \"#utility.yul\":5377:5383   */\n              0x00\n                /* \"#utility.yul\":5411:5416   */\n              dup2\n                /* \"#utility.yul\":5405:5417   */\n              mload\n                /* \"#utility.yul\":5395:5417   */\n              swap1\n              pop\n                /* \"#utility.yul\":5302:5424   */\n              swap2\n              swap1\n              pop\n              jump\t// out\n                /* \"#utility.yul\":5430:5622   */\n            tag_277:\n                /* \"#utility.yul\":5537:5548   */\n              0x00\n                /* \"#utility.yul\":5571:5577   */\n              dup3\n                /* \"#utility.yul\":5566:5569   */\n              dup3\n                /* \"#utility.yul\":5559:5578   */\n              mstore\n                /* \"#utility.yul\":5611:5615   */\n              0x20\n                /* \"#utility.yul\":5606:5609   */\n              dup3\n                /* \"#utility.yul\":5602:5616   */\n              add\n                /* \"#utility.yul\":5587:5616   */\n              swap1\n              pop\n                /* \"#utility.yul\":5430:5622   */\n              swap3\n              swap2\n              pop\n              pop\n              jump\t// out\n                /* \"#utility.yul\":5628:5768   */\n            tag_278:\n                /* \"#utility.yul\":5703:5707   */\n              0x00\n                /* \"#utility.yul\":5726:5729   */\n              dup2\n                /* \"#utility.yul\":5718:5729   */\n              swap1\n              pop\n                /* \"#utility.yul\":5756:5760   */\n              0x20\n                /* \"#utility.yul\":5751:5754   */\n              dup3\n                /* \"#utility.yul\":5747:5761   */\n              add\n                /* \"#utility.yul\":5739:5761   */\n              swap1\n              pop\n                /* \"#utility.yul\":5628:5768   */\n              swap2\n              swap1\n              pop\n              jump\t// out\n                /* \"#utility.yul\":5774:5906   */\n            tag_279:\n                /* \"#utility.yul\":5867:5899   */\n              tag_403\n                /* \"#utility.yul\":5893:5898   */\n              dup2\n                /* \"#utility.yul\":5867:5899   */\n              tag_256\n              jump\t// in\n            tag_403:\n                /* \"#utility.yul\":5862:5865   */\n              dup3\n                /* \"#utility.yul\":5855:5900   */\n              mstore\n                /* \"#utility.yul\":5774:5906   */\n              pop\n              pop\n              jump\t// out\n                /* \"#utility.yul\":5912:6123   */\n            tag_280:\n                /* \"#utility.yul\":5997:6007   */\n              0x00\n                /* \"#utility.yul\":6018:6080   */\n              tag_405\n                /* \"#utility.yul\":6076:6079   */\n              dup4\n                /* \"#utility.yul\":6068:6074   */\n              dup4\n                /* \"#utility.yul\":6018:6080   */\n              tag_279\n              jump\t// in\n            tag_405:\n                /* \"#utility.yul\":6112:6116   */\n              0x20\n                /* \"#utility.yul\":6107:6110   */\n              dup4\n                /* \"#utility.yul\":6103:6117   */\n              add\n                /* \"#utility.yul\":6089:6117   */\n              swap1\n              pop\n                /* \"#utility.yul\":5912:6123   */\n              swap3\n              swap2\n              pop\n              pop\n              jump\t// out\n                /* \"#utility.yul\":6129:6250   */\n            tag_281:\n                /* \"#utility.yul\":6207:6211   */\n              0x00\n                /* \"#utility.yul\":6239:6243   */\n              0x20\n                /* \"#utility.yul\":6234:6237   */\n              dup3\n                /* \"#utility.yul\":6230:6244   */\n              add\n                /* \"#utility.yul\":6222:6244   */\n              swap1\n              pop\n                /* \"#utility.yul\":6129:6250   */\n              swap2\n              swap1\n              pop\n              jump\t// out\n                /* \"#utility.yul\":6302:7098   */\n            tag_282:\n                /* \"#utility.yul\":6437:6440   */\n              0x00\n                /* \"#utility.yul\":6466:6528   */\n              tag_408\n                /* \"#utility.yul\":6522:6527   */\n              dup3\n                /* \"#utility.yul\":6466:6528   */\n              tag_276\n              jump\t// in\n            tag_408:\n                /* \"#utility.yul\":6544:6638   */\n              tag_409\n                /* \"#utility.yul\":6631:6637   */\n              dup2\n                /* \"#utility.yul\":6626:6629   */\n              dup6\n                /* \"#utility.yul\":6544:6638   */\n              tag_277\n              jump\t// in\n            tag_409:\n                /* \"#utility.yul\":6537:6638   */\n              swap4\n              pop\n                /* \"#utility.yul\":6662:6726   */\n              tag_410\n                /* \"#utility.yul\":6720:6725   */\n              dup4\n                /* \"#utility.yul\":6662:6726   */\n              tag_278\n              jump\t// in\n            tag_410:\n                /* \"#utility.yul\":6749:6756   */\n              dup1\n                /* \"#utility.yul\":6780:6781   */\n              0x00\n                /* \"#utility.yul\":6765:7073   */\n            tag_411:\n                /* \"#utility.yul\":6790:6796   */\n              dup4\n                /* \"#utility.yul\":6787:6788   */\n              dup2\n                /* \"#utility.yul\":6784:6797   */\n              lt\n                /* \"#utility.yul\":6765:7073   */\n              iszero\n              tag_413\n              jumpi\n                /* \"#utility.yul\":6866:6872   */\n              dup2\n                /* \"#utility.yul\":6860:6873   */\n              mload\n                /* \"#utility.yul\":6893:6972   */\n              tag_414\n                /* \"#utility.yul\":6968:6971   */\n              dup9\n                /* \"#utility.yul\":6953:6966   */\n              dup3\n                /* \"#utility.yul\":6893:6972   */\n              tag_280\n              jump\t// in\n            tag_414:\n                /* \"#utility.yul\":6886:6972   */\n              swap8\n              pop\n                /* \"#utility.yul\":6995:7063   */\n              tag_415\n                /* \"#utility.yul\":7056:7062   */\n              dup4\n                /* \"#utility.yul\":6995:7063   */\n              tag_281\n              jump\t// in\n            tag_415:\n                /* \"#utility.yul\":6985:7063   */\n              swap3\n              pop\n                /* \"#utility.yul\":6825:7073   */\n              pop\n                /* \"#utility.yul\":6812:6813   */\n              0x01\n                /* \"#utility.yul\":6809:6810   */\n              dup2\n                /* \"#utility.yul\":6805:6814   */\n              add\n                /* \"#utility.yul\":6800:6814   */\n              swap1\n              pop\n                /* \"#utility.yul\":6765:7073   */\n              jump(tag_411)\n            tag_413:\n                /* \"#utility.yul\":6769:6783   */\n              pop\n                /* \"#utility.yul\":7089:7092   */\n              dup6\n                /* \"#utility.yul\":7082:7092   */\n              swap4\n              pop\n                /* \"#utility.yul\":6442:7098   */\n              pop\n              pop\n              pop\n                /* \"#utility.yul\":6302:7098   */\n              swap3\n              swap2\n              pop\n              pop\n              jump\t// out\n                /* \"#utility.yul\":7104:7820   */\n            tag_66:\n                /* \"#utility.yul\":7339:7343   */\n              0x00\n                /* \"#utility.yul\":7377:7379   */\n              0x60\n                /* \"#utility.yul\":7366:7375   */\n              dup3\n                /* \"#utility.yul\":7362:7380   */\n              add\n                /* \"#utility.yul\":7354:7380   */\n              swap1\n              pop\n                /* \"#utility.yul\":7426:7435   */\n              dup2\n                /* \"#utility.yul\":7420:7424   */\n              dup2\n                /* \"#utility.yul\":7416:7436   */\n              sub\n                /* \"#utility.yul\":7412:7413   */\n              0x00\n                /* \"#utility.yul\":7401:7410   */\n              dup4\n                /* \"#utility.yul\":7397:7414   */\n              add\n                /* \"#utility.yul\":7390:7437   */\n              mstore\n                /* \"#utility.yul\":7454:7532   */\n              tag_417\n                /* \"#utility.yul\":7527:7531   */\n              dup2\n                /* \"#utility.yul\":7518:7524   */\n              dup7\n                /* \"#utility.yul\":7454:7532   */\n              tag_275\n              jump\t// in\n            tag_417:\n                /* \"#utility.yul\":7446:7532   */\n              swap1\n              pop\n                /* \"#utility.yul\":7542:7614   */\n              tag_418\n                /* \"#utility.yul\":7610:7612   */\n              0x20\n                /* \"#utility.yul\":7599:7608   */\n              dup4\n                /* \"#utility.yul\":7595:7613   */\n              add\n                /* \"#utility.yul\":7586:7592   */\n              dup6\n                /* \"#utility.yul\":7542:7614   */\n              tag_261\n              jump\t// in\n            tag_418:\n                /* \"#utility.yul\":7661:7670   */\n              dup2\n                /* \"#utility.yul\":7655:7659   */\n              dup2\n                /* \"#utility.yul\":7651:7671   */\n              sub\n                /* \"#utility.yul\":7646:7648   */\n              0x40\n                /* \"#utility.yul\":7635:7644   */\n              dup4\n                /* \"#utility.yul\":7631:7649   */\n              add\n                /* \"#utility.yul\":7624:7672   */\n              mstore\n                /* \"#utility.yul\":7689:7813   */\n              tag_419\n                /* \"#utility.yul\":7808:7812   */\n              dup2\n                /* \"#utility.yul\":7799:7805   */\n              dup5\n                /* \"#utility.yul\":7689:7813   */\n              tag_282\n              jump\t// in\n            tag_419:\n                /* \"#utility.yul\":7681:7813   */\n              swap1\n              pop\n                /* \"#utility.yul\":7104:7820   */\n              swap5\n              swap4\n              pop\n              pop\n              pop\n              pop\n              jump\t// out\n                /* \"#utility.yul\":7826:8048   */\n            tag_71:\n                /* \"#utility.yul\":7919:7923   */\n              0x00\n                /* \"#utility.yul\":7957:7959   */\n              0x20\n                /* \"#utility.yul\":7946:7955   */\n              dup3\n                /* \"#utility.yul\":7942:7960   */\n              add\n                /* \"#utility.yul\":7934:7960   */\n              swap1\n              pop\n                /* \"#utility.yul\":7970:8041   */\n              tag_421\n                /* \"#utility.yul\":8038:8039   */\n              0x00\n                /* \"#utility.yul\":8027:8036   */\n              dup4\n                /* \"#utility.yul\":8023:8040   */\n              add\n                /* \"#utility.yul\":8014:8020   */\n              dup5\n                /* \"#utility.yul\":7970:8041   */\n              tag_259\n              jump\t// in\n            tag_421:\n                /* \"#utility.yul\":7826:8048   */\n              swap3\n              swap2\n              pop\n              pop\n              jump\t// out\n                /* \"#utility.yul\":8054:8477   */\n            tag_98:\n                /* \"#utility.yul\":8195:8199   */\n              0x00\n                /* \"#utility.yul\":8233:8235   */\n              0x40\n                /* \"#utility.yul\":8222:8231   */\n              dup3\n                /* \"#utility.yul\":8218:8236   */\n              add\n                /* \"#utility.yul\":8210:8236   */\n              swap1\n              pop\n                /* \"#utility.yul\":8282:8291   */\n              dup2\n                /* \"#utility.yul\":8276:8280   */\n              dup2\n                /* \"#utility.yul\":8272:8292   */\n              sub\n                /* \"#utility.yul\":8268:8269   */\n              0x00\n                /* \"#utility.yul\":8257:8266   */\n              dup4\n                /* \"#utility.yul\":8253:8270   */\n              add\n                /* \"#utility.yul\":8246:8293   */\n              mstore\n                /* \"#utility.yul\":8310:8388   */\n              tag_423\n                /* \"#utility.yul\":8383:8387   */\n              dup2\n                /* \"#utility.yul\":8374:8380   */\n              dup6\n                /* \"#utility.yul\":8310:8388   */\n              tag_275\n              jump\t// in\n            tag_423:\n                /* \"#utility.yul\":8302:8388   */\n              swap1\n              pop\n                /* \"#utility.yul\":8398:8470   */\n              tag_424\n                /* \"#utility.yul\":8466:8468   */\n              0x20\n                /* \"#utility.yul\":8455:8464   */\n              dup4\n                /* \"#utility.yul\":8451:8469   */\n              add\n                /* \"#utility.yul\":8442:8448   */\n              dup5\n                /* \"#utility.yul\":8398:8470   */\n              tag_261\n              jump\t// in\n            tag_424:\n                /* \"#utility.yul\":8054:8477   */\n              swap4\n              swap3\n              pop\n              pop\n              pop\n              jump\t// out\n                /* \"#utility.yul\":8483:8796   */\n            tag_111:\n                /* \"#utility.yul\":8596:8600   */\n              0x00\n                /* \"#utility.yul\":8634:8636   */\n              0x20\n                /* \"#utility.yul\":8623:8632   */\n              dup3\n                /* \"#utility.yul\":8619:8637   */\n              add\n                /* \"#utility.yul\":8611:8637   */\n              swap1\n              pop\n                /* \"#utility.yul\":8683:8692   */\n              dup2\n                /* \"#utility.yul\":8677:8681   */\n              dup2\n                /* \"#utility.yul\":8673:8693   */\n              sub\n                /* \"#utility.yul\":8669:8670   */\n              0x00\n                /* \"#utility.yul\":8658:8667   */\n              dup4\n                /* \"#utility.yul\":8654:8671   */\n              add\n                /* \"#utility.yul\":8647:8694   */\n              mstore\n                /* \"#utility.yul\":8711:8789   */\n              tag_426\n                /* \"#utility.yul\":8784:8788   */\n              dup2\n                /* \"#utility.yul\":8775:8781   */\n              dup5\n                /* \"#utility.yul\":8711:8789   */\n              tag_275\n              jump\t// in\n            tag_426:\n                /* \"#utility.yul\":8703:8789   */\n              swap1\n              pop\n                /* \"#utility.yul\":8483:8796   */\n              swap3\n              swap2\n              pop\n              pop\n              jump\t// out\n                /* \"#utility.yul\":8802:8968   */\n            tag_283:\n                /* \"#utility.yul\":8942:8960   */\n              0x566f74696e672048617320456e64656400000000000000000000000000000000\n                /* \"#utility.yul\":8938:8939   */\n              0x00\n                /* \"#utility.yul\":8930:8936   */\n              dup3\n                /* \"#utility.yul\":8926:8940   */\n              add\n                /* \"#utility.yul\":8919:8961   */\n              mstore\n                /* \"#utility.yul\":8802:8968   */\n              pop\n              jump\t// out\n                /* \"#utility.yul\":8974:9340   */\n            tag_284:\n                /* \"#utility.yul\":9116:9119   */\n              0x00\n                /* \"#utility.yul\":9137:9204   */\n              tag_429\n                /* \"#utility.yul\":9201:9203   */\n              0x10\n                /* \"#utility.yul\":9196:9199   */\n              dup4\n                /* \"#utility.yul\":9137:9204   */\n              tag_272\n              jump\t// in\n            tag_429:\n                /* \"#utility.yul\":9130:9204   */\n              swap2\n              pop\n                /* \"#utility.yul\":9213:9306   */\n              tag_430\n                /* \"#utility.yul\":9302:9305   */\n              dup3\n                /* \"#utility.yul\":9213:9306   */\n              tag_283\n              jump\t// in\n            tag_430:\n                /* \"#utility.yul\":9331:9333   */\n              0x20\n                /* \"#utility.yul\":9326:9329   */\n              dup3\n                /* \"#utility.yul\":9322:9334   */\n              add\n                /* \"#utility.yul\":9315:9334   */\n              swap1\n              pop\n                /* \"#utility.yul\":8974:9340   */\n              swap2\n              swap1\n              pop\n              jump\t// out\n                /* \"#utility.yul\":9346:9765   */\n            tag_122:\n                /* \"#utility.yul\":9512:9516   */\n              0x00\n                /* \"#utility.yul\":9550:9552   */\n              0x20\n                /* \"#utility.yul\":9539:9548   */\n              dup3\n                /* \"#utility.yul\":9535:9553   */\n              add\n                /* \"#utility.yul\":9527:9553   */\n              swap1\n              pop\n                /* \"#utility.yul\":9599:9608   */\n              dup2\n                /* \"#utility.yul\":9593:9597   */\n              dup2\n                /* \"#utility.yul\":9589:9609   */\n              sub\n                /* \"#utility.yul\":9585:9586   */\n              0x00\n                /* \"#utility.yul\":9574:9583   */\n              dup4\n                /* \"#utility.yul\":9570:9587   */\n              add\n                /* \"#utility.yul\":9563:9610   */\n              mstore\n                /* \"#utility.yul\":9627:9758   */\n              tag_432\n                /* \"#utility.yul\":9753:9757   */\n              dup2\n                /* \"#utility.yul\":9627:9758   */\n              tag_284\n              jump\t// in\n            tag_432:\n                /* \"#utility.yul\":9619:9758   */\n              swap1\n              pop\n                /* \"#utility.yul\":9346:9765   */\n              swap2\n              swap1\n              pop\n              jump\t// out\n                /* \"#utility.yul\":9771:9951   */\n            tag_285:\n                /* \"#utility.yul\":9819:9896   */\n              0x4e487b7100000000000000000000000000000000000000000000000000000000\n                /* \"#utility.yul\":9816:9817   */\n              0x00\n                /* \"#utility.yul\":9809:9897   */\n              mstore\n                /* \"#utility.yul\":9916:9920   */\n              0x11\n                /* \"#utility.yul\":9913:9914   */\n              0x04\n                /* \"#utility.yul\":9906:9921   */\n              mstore\n                /* \"#utility.yul\":9940:9944   */\n              0x24\n                /* \"#utility.yul\":9937:9938   */\n              0x00\n                /* \"#utility.yul\":9930:9945   */\n              revert\n                /* \"#utility.yul\":9957:10148   */\n            tag_127:\n                /* \"#utility.yul\":9997:10000   */\n              0x00\n                /* \"#utility.yul\":10016:10036   */\n              tag_435\n                /* \"#utility.yul\":10034:10035   */\n              dup3\n                /* \"#utility.yul\":10016:10036   */\n              tag_260\n              jump\t// in\n            tag_435:\n                /* \"#utility.yul\":10011:10036   */\n              swap2\n              pop\n                /* \"#utility.yul\":10050:10070   */\n              tag_436\n                /* \"#utility.yul\":10068:10069   */\n              dup4\n                /* \"#utility.yul\":10050:10070   */\n              tag_260\n              jump\t// in\n            tag_436:\n                /* \"#utility.yul\":10045:10070   */\n              swap3\n              pop\n                /* \"#utility.yul\":10093:10094   */\n              dup3\n                /* \"#utility.yul\":10090:10091   */\n              dup3\n                /* \"#utility.yul\":10086:10095   */\n              add\n                /* \"#utility.yul\":10079:10095   */\n              swap1\n              pop\n                /* \"#utility.yul\":10114:10117   */\n              dup1\n                /* \"#utility.yul\":10111:10112   */\n              dup3\n                /* \"#utility.yul\":10108:10118   */\n              gt\n                /* \"#utility.yul\":10105:10141   */\n              iszero\n              tag_437\n              jumpi\n                /* \"#utility.yul\":10121:10139   */\n              tag_438\n              tag_285\n              jump\t// in\n            tag_438:\n                /* \"#utility.yul\":10105:10141   */\n            tag_437:\n                /* \"#utility.yul\":9957:10148   */\n              swap3\n              swap2\n              pop\n              pop\n              jump\t// out\n                /* \"#utility.yul\":10154:10334   */\n            tag_132:\n                /* \"#utility.yul\":10202:10279   */\n              0x4e487b7100000000000000000000000000000000000000000000000000000000\n                /* \"#utility.yul\":10199:10200   */\n              0x00\n                /* \"#utility.yul\":10192:10280   */\n              mstore\n                /* \"#utility.yul\":10299:10303   */\n              0x32\n                /* \"#utility.yul\":10296:10297   */\n              0x04\n                /* \"#utility.yul\":10289:10304   */\n              mstore\n                /* \"#utility.yul\":10323:10327   */\n              0x24\n                /* \"#utility.yul\":10320:10321   */\n              0x00\n                /* \"#utility.yul\":10313:10328   */\n              revert\n                /* \"#utility.yul\":10340:10520   */\n            tag_286:\n                /* \"#utility.yul\":10388:10465   */\n              0x4e487b7100000000000000000000000000000000000000000000000000000000\n                /* \"#utility.yul\":10385:10386   */\n              0x00\n                /* \"#utility.yul\":10378:10466   */\n              mstore\n                /* \"#utility.yul\":10485:10489   */\n              0x22\n                /* \"#utility.yul\":10482:10483   */\n              0x04\n                /* \"#utility.yul\":10475:10490   */\n              mstore\n                /* \"#utility.yul\":10509:10513   */\n              0x24\n                /* \"#utility.yul\":10506:10507   */\n              0x00\n                /* \"#utility.yul\":10499:10514   */\n              revert\n                /* \"#utility.yul\":10526:10846   */\n            tag_183:\n                /* \"#utility.yul\":10570:10576   */\n              0x00\n                /* \"#utility.yul\":10607:10608   */\n              0x02\n                /* \"#utility.yul\":10601:10605   */\n              dup3\n                /* \"#utility.yul\":10597:10609   */\n              div\n                /* \"#utility.yul\":10587:10609   */\n              swap1\n              pop\n                /* \"#utility.yul\":10654:10655   */\n              0x01\n                /* \"#utility.yul\":10648:10652   */\n              dup3\n                /* \"#utility.yul\":10644:10656   */\n              and\n                /* \"#utility.yul\":10675:10693   */\n              dup1\n                /* \"#utility.yul\":10665:10746   */\n              tag_442\n              jumpi\n                /* \"#utility.yul\":10731:10735   */\n              0x7f\n                /* \"#utility.yul\":10723:10729   */\n              dup3\n                /* \"#utility.yul\":10719:10736   */\n              and\n                /* \"#utility.yul\":10709:10736   */\n              swap2\n              pop\n                /* \"#utility.yul\":10665:10746   */\n            tag_442:\n                /* \"#utility.yul\":10793:10795   */\n              0x20\n                /* \"#utility.yul\":10785:10791   */\n              dup3\n                /* \"#utility.yul\":10782:10796   */\n              lt\n                /* \"#utility.yul\":10762:10780   */\n              dup2\n                /* \"#utility.yul\":10759:10797   */\n              sub\n                /* \"#utility.yul\":10756:10840   */\n              tag_443\n              jumpi\n                /* \"#utility.yul\":10812:10830   */\n              tag_444\n              tag_286\n              jump\t// in\n            tag_444:\n                /* \"#utility.yul\":10756:10840   */\n            tag_443:\n                /* \"#utility.yul\":10577:10846   */\n              pop\n                /* \"#utility.yul\":10526:10846   */\n              swap2\n              swap1\n              pop\n              jump\t// out\n                /* \"#utility.yul\":10852:11005   */\n            tag_287:\n                /* \"#utility.yul\":10905:10911   */\n              0x00\n                /* \"#utility.yul\":10939:10944   */\n              dup2\n                /* \"#utility.yul\":10933:10945   */\n              sload\n                /* \"#utility.yul\":10923:10945   */\n              swap1\n              pop\n                /* \"#utility.yul\":10965:10998   */\n              tag_446\n                /* \"#utility.yul\":10991:10997   */\n              dup2\n                /* \"#utility.yul\":10965:10998   */\n              tag_183\n              jump\t// in\n            tag_446:\n                /* \"#utility.yul\":10955:10998   */\n              swap1\n              pop\n                /* \"#utility.yul\":10852:11005   */\n              swap2\n              swap1\n              pop\n              jump\t// out\n                /* \"#utility.yul\":11011:11191   */\n            tag_228:\n                /* \"#utility.yul\":11059:11136   */\n              0x4e487b7100000000000000000000000000000000000000000000000000000000\n                /* \"#utility.yul\":11056:11057   */\n              0x00\n                /* \"#utility.yul\":11049:11137   */\n              mstore\n                /* \"#utility.yul\":11156:11160   */\n              0x41\n                /* \"#utility.yul\":11153:11154   */\n              0x04\n                /* \"#utility.yul\":11146:11161   */\n              mstore\n                /* \"#utility.yul\":11180:11184   */\n              0x24\n                /* \"#utility.yul\":11177:11178   */\n              0x00\n                /* \"#utility.yul\":11170:11185   */\n              revert\n                /* \"#utility.yul\":11197:11338   */\n            tag_288:\n                /* \"#utility.yul\":11246:11250   */\n              0x00\n                /* \"#utility.yul\":11269:11272   */\n              dup2\n                /* \"#utility.yul\":11261:11272   */\n              swap1\n              pop\n                /* \"#utility.yul\":11292:11295   */\n              dup2\n                /* \"#utility.yul\":11289:11290   */\n              0x00\n                /* \"#utility.yul\":11282:11296   */\n              mstore\n                /* \"#utility.yul\":11326:11330   */\n              0x20\n                /* \"#utility.yul\":11323:11324   */\n              0x00\n                /* \"#utility.yul\":11313:11331   */\n              keccak256\n                /* \"#utility.yul\":11305:11331   */\n              swap1\n              pop\n                /* \"#utility.yul\":11197:11338   */\n              swap2\n              swap1\n              pop\n              jump\t// out\n                /* \"#utility.yul\":11344:11489   */\n            tag_289:\n                /* \"#utility.yul\":11397:11401   */\n              0x00\n                /* \"#utility.yul\":11420:11423   */\n              dup2\n                /* \"#utility.yul\":11412:11423   */\n              swap1\n              pop\n                /* \"#utility.yul\":11443:11446   */\n              dup2\n                /* \"#utility.yul\":11440:11441   */\n              0x00\n                /* \"#utility.yul\":11433:11447   */\n              mstore\n                /* \"#utility.yul\":11477:11481   */\n              0x20\n                /* \"#utility.yul\":11474:11475   */\n              0x00\n                /* \"#utility.yul\":11464:11482   */\n              keccak256\n                /* \"#utility.yul\":11456:11482   */\n              swap1\n              pop\n                /* \"#utility.yul\":11344:11489   */\n              swap2\n              swap1\n              pop\n              jump\t// out\n                /* \"#utility.yul\":11495:11588   */\n            tag_290:\n                /* \"#utility.yul\":11532:11538   */\n              0x00\n                /* \"#utility.yul\":11579:11581   */\n              0x20\n                /* \"#utility.yul\":11574:11576   */\n              0x1f\n                /* \"#utility.yul\":11567:11572   */\n              dup4\n                /* \"#utility.yul\":11563:11577   */\n              add\n                /* \"#utility.yul\":11559:11582   */\n              div\n                /* \"#utility.yul\":11549:11582   */\n              swap1\n              pop\n                /* \"#utility.yul\":11495:11588   */\n              swap2\n              swap1\n              pop\n              jump\t// out\n                /* \"#utility.yul\":11594:11701   */\n            tag_291:\n                /* \"#utility.yul\":11638:11646   */\n              0x00\n                /* \"#utility.yul\":11688:11693   */\n              dup3\n                /* \"#utility.yul\":11682:11686   */\n              dup3\n                /* \"#utility.yul\":11678:11694   */\n              shl\n                /* \"#utility.yul\":11657:11694   */\n              swap1\n              pop\n                /* \"#utility.yul\":11594:11701   */\n              swap3\n              swap2\n              pop\n              pop\n              jump\t// out\n                /* \"#utility.yul\":11707:12100   */\n            tag_292:\n                /* \"#utility.yul\":11776:11782   */\n              0x00\n                /* \"#utility.yul\":11826:11827   */\n              0x08\n                /* \"#utility.yul\":11814:11824   */\n              dup4\n                /* \"#utility.yul\":11810:11828   */\n              mul\n                /* \"#utility.yul\":11849:11946   */\n              tag_453\n                /* \"#utility.yul\":11879:11945   */\n              0xffffffffffffffffffffffffffffffffffffffffffffffffffffffffffffffff\n                /* \"#utility.yul\":11868:11877   */\n              dup3\n                /* \"#utility.yul\":11849:11946   */\n              tag_291\n              jump\t// in\n            tag_453:\n                /* \"#utility.yul\":11967:12006   */\n              tag_454\n                /* \"#utility.yul\":11997:12005   */\n              dup7\n                /* \"#utility.yul\":11986:11995   */\n              dup4\n                /* \"#utility.yul\":11967:12006   */\n              tag_291\n              jump\t// in\n            tag_454:\n                /* \"#utility.yul\":11955:12006   */\n              swap6\n              pop\n                /* \"#utility.yul\":12039:12043   */\n              dup1\n                /* \"#utility.yul\":12035:12044   */\n              not\n                /* \"#utility.yul\":12028:12033   */\n              dup5\n                /* \"#utility.yul\":12024:12045   */\n              and\n                /* \"#utility.yul\":12015:12045   */\n              swap4\n              pop\n                /* \"#utility.yul\":12088:12092   */\n              dup1\n                /* \"#utility.yul\":12078:12086   */\n              dup7\n                /* \"#utility.yul\":12074:12093   */\n              and\n                /* \"#utility.yul\":12067:12072   */\n              dup5\n                /* \"#utility.yul\":12064:12094   */\n              or\n                /* \"#utility.yul\":12054:12094   */\n              swap3\n              pop\n                /* \"#utility.yul\":11783:12100   */\n              pop\n              pop\n                /* \"#utility.yul\":11707:12100   */\n              swap4\n              swap3\n              pop\n              pop\n              pop\n              jump\t// out\n                /* \"#utility.yul\":12106:12166   */\n            tag_293:\n                /* \"#utility.yul\":12134:12137   */\n              0x00\n                /* \"#utility.yul\":12155:12160   */\n              dup2\n                /* \"#utility.yul\":12148:12160   */\n              swap1\n              pop\n                /* \"#utility.yul\":12106:12166   */\n              swap2\n              swap1\n              pop\n              jump\t// out\n                /* \"#utility.yul\":12172:12314   */\n            tag_294:\n                /* \"#utility.yul\":12222:12231   */\n              0x00\n                /* \"#utility.yul\":12255:12308   */\n              tag_457\n                /* \"#utility.yul\":12273:12307   */\n              tag_458\n                /* \"#utility.yul\":12282:12306   */\n              tag_459\n                /* \"#utility.yul\":12300:12305   */\n              dup5\n                /* \"#utility.yul\":12282:12306   */\n              tag_260\n              jump\t// in\n            tag_459:\n                /* \"#utility.yul\":12273:12307   */\n              tag_293\n              jump\t// in\n            tag_458:\n                /* \"#utility.yul\":12255:12308   */\n              tag_260\n              jump\t// in\n            tag_457:\n                /* \"#utility.yul\":12242:12308   */\n              swap1\n              pop\n                /* \"#utility.yul\":12172:12314   */\n              swap2\n              swap1\n              pop\n              jump\t// out\n                /* \"#utility.yul\":12320:12395   */\n            tag_295:\n                /* \"#utility.yul\":12363:12366   */\n              0x00\n                /* \"#utility.yul\":12384:12389   */\n              dup2\n                /* \"#utility.yul\":12377:12389   */\n              swap1\n              pop\n                /* \"#utility.yul\":12320:12395   */\n              swap2\n              swap1\n              pop\n              jump\t// out\n                /* \"#utility.yul\":12401:12670   */\n            tag_296:\n                /* \"#utility.yul\":12511:12550   */\n              tag_462\n                /* \"#utility.yul\":12542:12549   */\n              dup4\n                /* \"#utility.yul\":12511:12550   */\n              tag_294\n              jump\t// in\n            tag_462:\n                /* \"#utility.yul\":12572:12663   */\n              tag_463\n                /* \"#utility.yul\":12621:12662   */\n              tag_464\n                /* \"#utility.yul\":12645:12661   */\n              dup3\n                /* \"#utility.yul\":12621:12662   */\n              tag_295\n              jump\t// in\n            tag_464:\n                /* \"#utility.yul\":12613:12619   */\n              dup5\n                /* \"#utility.yul\":12606:12610   */\n              dup5\n                /* \"#utility.yul\":12600:12611   */\n              sload\n                /* \"#utility.yul\":12572:12663   */\n              tag_292\n              jump\t// in\n            tag_463:\n                /* \"#utility.yul\":12566:12570   */\n              dup3\n                /* \"#utility.yul\":12559:12664   */\n              sstore\n                /* \"#utility.yul\":12477:12670   */\n              pop\n                /* \"#utility.yul\":12401:12670   */\n              pop\n              pop\n              pop\n              jump\t// out\n                /* \"#utility.yul\":12676:12749   */\n            tag_297:\n                /* \"#utility.yul\":12721:12724   */\n              0x00\n                /* \"#utility.yul\":12676:12749   */\n              swap1\n              jump\t// out\n                /* \"#utility.yul\":12755:12944   */\n            tag_298:\n                /* \"#utility.yul\":12832:12864   */\n              tag_467\n              tag_297\n              jump\t// in\n            tag_467:\n                /* \"#utility.yul\":12873:12938   */\n              tag_468\n                /* \"#utility.yul\":12931:12937   */\n              dup2\n                /* \"#utility.yul\":12923:12929   */\n              dup5\n                /* \"#utility.yul\":12917:12921   */\n              dup5\n                /* \"#utility.yul\":12873:12938   */\n              tag_296\n              jump\t// in\n            tag_468:\n                /* \"#utility.yul\":12808:12944   */\n              pop\n                /* \"#utility.yul\":12755:12944   */\n              pop\n              pop\n              jump\t// out\n                /* \"#utility.yul\":12950:13136   */\n            tag_299:\n                /* \"#utility.yul\":13010:13130   */\n            tag_470:\n                /* \"#utility.yul\":13027:13030   */\n              dup2\n                /* \"#utility.yul\":13020:13025   */\n              dup2\n                /* \"#utility.yul\":13017:13031   */\n              lt\n                /* \"#utility.yul\":13010:13130   */\n              iszero\n              tag_472\n              jumpi\n                /* \"#utility.yul\":13081:13120   */\n              tag_473\n                /* \"#utility.yul\":13118:13119   */\n              0x00\n                /* \"#utility.yul\":13111:13116   */\n              dup3\n                /* \"#utility.yul\":13081:13120   */\n              tag_298\n              jump\t// in\n            tag_473:\n                /* \"#utility.yul\":13054:13055   */\n              0x01\n                /* \"#utility.yul\":13047:13052   */\n              dup2\n                /* \"#utility.yul\":13043:13056   */\n              add\n                /* \"#utility.yul\":13034:13056   */\n              swap1\n              pop\n                /* \"#utility.yul\":13010:13130   */\n              jump(tag_470)\n            tag_472:\n                /* \"#utility.yul\":12950:13136   */\n              pop\n              pop\n              jump\t// out\n                /* \"#utility.yul\":13142:13685   */\n            tag_300:\n                /* \"#utility.yul\":13243:13245   */\n              0x1f\n                /* \"#utility.yul\":13238:13241   */\n              dup3\n                /* \"#utility.yul\":13235:13246   */\n              gt\n                /* \"#utility.yul\":13232:13678   */\n              iszero\n              tag_475\n              jumpi\n                /* \"#utility.yul\":13277:13315   */\n              tag_476\n                /* \"#utility.yul\":13309:13314   */\n              dup2\n                /* \"#utility.yul\":13277:13315   */\n              tag_288\n              jump\t// in\n            tag_476:\n                /* \"#utility.yul\":13361:13390   */\n              tag_477\n                /* \"#utility.yul\":13379:13389   */\n              dup5\n                /* \"#utility.yul\":13361:13390   */\n              tag_290\n              jump\t// in\n            tag_477:\n                /* \"#utility.yul\":13351:13359   */\n              dup2\n                /* \"#utility.yul\":13347:13391   */\n              add\n                /* \"#utility.yul\":13544:13546   */\n              0x20\n                /* \"#utility.yul\":13532:13542   */\n              dup6\n                /* \"#utility.yul\":13529:13547   */\n              lt\n                /* \"#utility.yul\":13526:13575   */\n              iszero\n              tag_478\n              jumpi\n                /* \"#utility.yul\":13565:13573   */\n              dup2\n                /* \"#utility.yul\":13550:13573   */\n              swap1\n              pop\n                /* \"#utility.yul\":13526:13575   */\n            tag_478:\n                /* \"#utility.yul\":13588:13668   */\n              tag_479\n                /* \"#utility.yul\":13644:13666   */\n              tag_480\n                /* \"#utility.yul\":13662:13665   */\n              dup6\n                /* \"#utility.yul\":13644:13666   */\n              tag_290\n              jump\t// in\n            tag_480:\n                /* \"#utility.yul\":13634:13642   */\n              dup4\n                /* \"#utility.yul\":13630:13667   */\n              add\n                /* \"#utility.yul\":13617:13628   */\n              dup3\n                /* \"#utility.yul\":13588:13668   */\n              tag_299\n              jump\t// in\n            tag_479:\n                /* \"#utility.yul\":13247:13678   */\n              pop\n              pop\n                /* \"#utility.yul\":13232:13678   */\n            tag_475:\n                /* \"#utility.yul\":13142:13685   */\n              pop\n              pop\n              pop\n              jump\t// out\n                /* \"#utility.yul\":13691:13808   */\n            tag_301:\n                /* \"#utility.yul\":13745:13753   */\n              0x00\n                /* \"#utility.yul\":13795:13800   */\n              dup3\n                /* \"#utility.yul\":13789:13793   */\n              dup3\n                /* \"#utility.yul\":13785:13801   */\n              shr\n                /* \"#utility.yul\":13764:13801   */\n              swap1\n              pop\n                /* \"#utility.yul\":13691:13808   */\n              swap3\n              swap2\n              pop\n              pop\n              jump\t// out\n                /* \"#utility.yul\":13814:13983   */\n            tag_302:\n                /* \"#utility.yul\":13858:13864   */\n              0x00\n                /* \"#utility.yul\":13891:13942   */\n              tag_483\n                /* \"#utility.yul\":13939:13940   */\n              0x00\n                /* \"#utility.yul\":13935:13941   */\n              not\n                /* \"#utility.yul\":13927:13932   */\n              dup5\n                /* \"#utility.yul\":13924:13925   */\n              0x08\n                /* \"#utility.yul\":13920:13933   */\n              mul\n                /* \"#utility.yul\":13891:13942   */\n              tag_301\n              jump\t// in\n            tag_483:\n                /* \"#utility.yul\":13887:13943   */\n              not\n                /* \"#utility.yul\":13972:13976   */\n              dup1\n                /* \"#utility.yul\":13966:13970   */\n              dup4\n                /* \"#utility.yul\":13962:13977   */\n              and\n                /* \"#utility.yul\":13952:13977   */\n              swap2\n              pop\n                /* \"#utility.yul\":13865:13983   */\n              pop\n                /* \"#utility.yul\":13814:13983   */\n              swap3\n              swap2\n              pop\n              pop\n              jump\t// out\n                /* \"#utility.yul\":13988:14283   */\n            tag_303:\n                /* \"#utility.yul\":14064:14068   */\n              0x00\n                /* \"#utility.yul\":14210:14239   */\n              tag_485\n                /* \"#utility.yul\":14235:14238   */\n              dup4\n                /* \"#utility.yul\":14229:14233   */\n              dup4\n                /* \"#utility.yul\":14210:14239   */\n              tag_302\n              jump\t// in\n            tag_485:\n                /* \"#utility.yul\":14202:14239   */\n              swap2\n              pop\n                /* \"#utility.yul\":14272:14275   */\n              dup3\n                /* \"#utility.yul\":14269:14270   */\n              0x02\n                /* \"#utility.yul\":14265:14276   */\n              mul\n                /* \"#utility.yul\":14259:14263   */\n              dup3\n                /* \"#utility.yul\":14256:14277   */\n              or\n                /* \"#utility.yul\":14248:14277   */\n              swap1\n              pop\n                /* \"#utility.yul\":13988:14283   */\n              swap3\n              swap2\n              pop\n              pop\n              jump\t// out\n                /* \"#utility.yul\":14288:15751   */\n            tag_137:\n                /* \"#utility.yul\":14403:14406   */\n              dup2\n                /* \"#utility.yul\":14397:14401   */\n              dup2\n                /* \"#utility.yul\":14394:14407   */\n              sub\n                /* \"#utility.yul\":14391:14417   */\n              tag_487\n              jumpi\n                /* \"#utility.yul\":14410:14415   */\n              pop\n              pop\n              jump(tag_486)\n                /* \"#utility.yul\":14391:14417   */\n            tag_487:\n                /* \"#utility.yul\":14441:14479   */\n              tag_488\n                /* \"#utility.yul\":14475:14478   */\n              dup3\n                /* \"#utility.yul\":14441:14479   */\n              tag_287\n              jump\t// in\n            tag_488:\n                /* \"#utility.yul\":14544:14562   */\n              0xffffffffffffffff\n                /* \"#utility.yul\":14536:14542   */\n              dup2\n                /* \"#utility.yul\":14533:14563   */\n              gt\n                /* \"#utility.yul\":14530:14586   */\n              iszero\n              tag_489\n              jumpi\n                /* \"#utility.yul\":14566:14584   */\n              tag_490\n              tag_228\n              jump\t// in\n            tag_490:\n                /* \"#utility.yul\":14530:14586   */\n            tag_489:\n                /* \"#utility.yul\":14610:14648   */\n              tag_491\n                /* \"#utility.yul\":14642:14646   */\n              dup3\n                /* \"#utility.yul\":14636:14647   */\n              sload\n                /* \"#utility.yul\":14610:14648   */\n              tag_183\n              jump\t// in\n            tag_491:\n                /* \"#utility.yul\":14695:14762   */\n              tag_492\n                /* \"#utility.yul\":14755:14761   */\n              dup3\n                /* \"#utility.yul\":14747:14753   */\n              dup3\n                /* \"#utility.yul\":14741:14745   */\n              dup6\n                /* \"#utility.yul\":14695:14762   */\n              tag_300\n              jump\t// in\n            tag_492:\n                /* \"#utility.yul\":14789:14790   */\n              0x00\n                /* \"#utility.yul\":14818:14820   */\n              0x1f\n                /* \"#utility.yul\":14810:14816   */\n              dup4\n                /* \"#utility.yul\":14807:14821   */\n              gt\n                /* \"#utility.yul\":14835:14836   */\n              0x01\n                /* \"#utility.yul\":14830:15506   */\n              dup2\n              eq\n              tag_494\n              jumpi\n                /* \"#utility.yul\":15550:15551   */\n              0x00\n                /* \"#utility.yul\":15567:15573   */\n              dup5\n                /* \"#utility.yul\":15564:15641   */\n              iszero\n              tag_495\n              jumpi\n                /* \"#utility.yul\":15616:15625   */\n              dup3\n                /* \"#utility.yul\":15611:15614   */\n              dup8\n                /* \"#utility.yul\":15607:15626   */\n              add\n                /* \"#utility.yul\":15601:15627   */\n              sload\n                /* \"#utility.yul\":15592:15627   */\n              swap1\n              pop\n                /* \"#utility.yul\":15564:15641   */\n            tag_495:\n                /* \"#utility.yul\":15667:15734   */\n              tag_496\n                /* \"#utility.yul\":15727:15733   */\n              dup6\n                /* \"#utility.yul\":15720:15725   */\n              dup3\n                /* \"#utility.yul\":15667:15734   */\n              tag_303\n              jump\t// in\n            tag_496:\n                /* \"#utility.yul\":15661:15665   */\n              dup7\n                /* \"#utility.yul\":15654:15735   */\n              sstore\n                /* \"#utility.yul\":15523:15745   */\n              pop\n                /* \"#utility.yul\":14800:15745   */\n              jump(tag_493)\n                /* \"#utility.yul\":14830:15506   */\n            tag_494:\n                /* \"#utility.yul\":14882:14886   */\n              0x1f\n                /* \"#utility.yul\":14878:14887   */\n              not\n                /* \"#utility.yul\":14870:14876   */\n              dup5\n                /* \"#utility.yul\":14866:14888   */\n              and\n                /* \"#utility.yul\":14908:14948   */\n              tag_497\n                /* \"#utility.yul\":14944:14947   */\n              dup8\n                /* \"#utility.yul\":14908:14948   */\n              tag_289\n              jump\t// in\n            tag_497:\n                /* \"#utility.yul\":14901:14948   */\n              swap7\n              pop\n                /* \"#utility.yul\":14975:15012   */\n              tag_498\n                /* \"#utility.yul\":15007:15011   */\n              dup7\n                /* \"#utility.yul\":14975:15012   */\n              tag_288\n              jump\t// in\n            tag_498:\n                /* \"#utility.yul\":15034:15035   */\n              0x00\n                /* \"#utility.yul\":15048:15255   */\n            tag_499:\n                /* \"#utility.yul\":15062:15069   */\n              dup3\n                /* \"#utility.yul\":15059:15060   */\n              dup2\n                /* \"#utility.yul\":15056:15070   */\n              lt\n                /* \"#utility.yul\":15048:15255   */\n              iszero\n              tag_501\n              jumpi\n                /* \"#utility.yul\":15141:15150   */\n              dup5\n                /* \"#utility.yul\":15136:15139   */\n              dup10\n                /* \"#utility.yul\":15132:15151   */\n              add\n                /* \"#utility.yul\":15126:15152   */\n              sload\n                /* \"#utility.yul\":15118:15124   */\n              dup3\n                /* \"#utility.yul\":15111:15153   */\n              sstore\n                /* \"#utility.yul\":15192:15193   */\n              0x01\n                /* \"#utility.yul\":15184:15190   */\n              dup3\n                /* \"#utility.yul\":15180:15194   */\n              add\n                /* \"#utility.yul\":15170:15194   */\n              swap2\n              pop\n                /* \"#utility.yul\":15239:15240   */\n              0x01\n                /* \"#utility.yul\":15228:15237   */\n              dup6\n                /* \"#utility.yul\":15224:15241   */\n              add\n                /* \"#utility.yul\":15211:15241   */\n              swap5\n              pop\n                /* \"#utility.yul\":15085:15089   */\n              0x20\n                /* \"#utility.yul\":15082:15083   */\n              dup2\n                /* \"#utility.yul\":15078:15090   */\n              add\n                /* \"#utility.yul\":15073:15090   */\n              swap1\n              pop\n                /* \"#utility.yul\":15048:15255   */\n              jump(tag_499)\n            tag_501:\n                /* \"#utility.yul\":15283:15289   */\n              dup7\n                /* \"#utility.yul\":15274:15281   */\n              dup4\n                /* \"#utility.yul\":15271:15290   */\n              lt\n                /* \"#utility.yul\":15268:15447   */\n              iszero\n              tag_502\n              jumpi\n                /* \"#utility.yul\":15341:15350   */\n              dup5\n                /* \"#utility.yul\":15336:15339   */\n              dup10\n                /* \"#utility.yul\":15332:15351   */\n              add\n                /* \"#utility.yul\":15326:15352   */\n              sload\n                /* \"#utility.yul\":15384:15432   */\n              tag_503\n                /* \"#utility.yul\":15426:15430   */\n              0x1f\n                /* \"#utility.yul\":15418:15424   */\n              dup10\n                /* \"#utility.yul\":15414:15431   */\n              and\n                /* \"#utility.yul\":15403:15412   */\n              dup3\n                /* \"#utility.yul\":15384:15432   */\n              tag_302\n              jump\t// in\n            tag_503:\n                /* \"#utility.yul\":15376:15382   */\n              dup4\n                /* \"#utility.yul\":15369:15433   */\n              sstore\n                /* \"#utility.yul\":15291:15447   */\n              pop\n                /* \"#utility.yul\":15268:15447   */\n            tag_502:\n                /* \"#utility.yul\":15493:15494   */\n              0x01\n                /* \"#utility.yul\":15489:15490   */\n              0x02\n                /* \"#utility.yul\":15481:15487   */\n              dup9\n                /* \"#utility.yul\":15477:15491   */\n              mul\n                /* \"#utility.yul\":15473:15495   */\n              add\n                /* \"#utility.yul\":15467:15471   */\n              dup9\n                /* \"#utility.yul\":15460:15496   */\n              sstore\n                /* \"#utility.yul\":14837:15506   */\n              pop\n              pop\n              pop\n                /* \"#utility.yul\":14800:15745   */\n            tag_493:\n              pop\n                /* \"#utility.yul\":14381:15751   */\n              pop\n              pop\n              pop\n                /* \"#utility.yul\":14288:15751   */\n              pop\n              pop\n            tag_486:\n              jump\t// out\n                /* \"#utility.yul\":15757:15836   */\n            tag_304:\n                /* \"#utility.yul\":15796:15803   */\n              0x00\n                /* \"#utility.yul\":15825:15830   */\n              dup2\n                /* \"#utility.yul\":15814:15830   */\n              swap1\n              pop\n                /* \"#utility.yul\":15757:15836   */\n              swap2\n              swap1\n              pop\n              jump\t// out\n                /* \"#utility.yul\":15842:15999   */\n            tag_305:\n                /* \"#utility.yul\":15947:15992   */\n              tag_506\n                /* \"#utility.yul\":15967:15991   */\n              tag_507\n                /* \"#utility.yul\":15985:15990   */\n              dup3\n                /* \"#utility.yul\":15967:15991   */\n              tag_260\n              jump\t// in\n            tag_507:\n                /* \"#utility.yul\":15947:15992   */\n              tag_304\n              jump\t// in\n            tag_506:\n                /* \"#utility.yul\":15942:15945   */\n              dup3\n                /* \"#utility.yul\":15935:15993   */\n              mstore\n                /* \"#utility.yul\":15842:15999   */\n              pop\n              pop\n              jump\t// out\n                /* \"#utility.yul\":16005:16124   */\n            tag_306:\n                /* \"#utility.yul\":16077:16083   */\n              0x00\n                /* \"#utility.yul\":16111:16116   */\n              dup2\n                /* \"#utility.yul\":16105:16117   */\n              sload\n                /* \"#utility.yul\":16095:16117   */\n              swap1\n              pop\n                /* \"#utility.yul\":16005:16124   */\n              swap2\n              swap1\n              pop\n              jump\t// out\n                /* \"#utility.yul\":16130:16301   */\n            tag_307:\n                /* \"#utility.yul\":16255:16266   */\n              0x00\n                /* \"#utility.yul\":16292:16295   */\n              dup2\n                /* \"#utility.yul\":16277:16295   */\n              swap1\n              pop\n                /* \"#utility.yul\":16130:16301   */\n              swap3\n              swap2\n              pop\n              pop\n              jump\t// out\n                /* \"#utility.yul\":16307:16471   */\n            tag_308:\n                /* \"#utility.yul\":16379:16383   */\n              0x00\n                /* \"#utility.yul\":16402:16405   */\n              dup2\n                /* \"#utility.yul\":16394:16405   */\n              swap1\n              pop\n                /* \"#utility.yul\":16425:16428   */\n              dup2\n                /* \"#utility.yul\":16422:16423   */\n              0x00\n                /* \"#utility.yul\":16415:16429   */\n              mstore\n                /* \"#utility.yul\":16459:16463   */\n              0x20\n                /* \"#utility.yul\":16456:16457   */\n              0x00\n                /* \"#utility.yul\":16446:16464   */\n              keccak256\n                /* \"#utility.yul\":16438:16464   */\n              swap1\n              pop\n                /* \"#utility.yul\":16307:16471   */\n              swap2\n              swap1\n              pop\n              jump\t// out\n                /* \"#utility.yul\":16477:16617   */\n            tag_309:\n                /* \"#utility.yul\":16578:16610   */\n              tag_512\n                /* \"#utility.yul\":16604:16609   */\n              dup2\n                /* \"#utility.yul\":16578:16610   */\n              tag_256\n              jump\t// in\n            tag_512:\n                /* \"#utility.yul\":16573:16576   */\n              dup3\n                /* \"#utility.yul\":16566:16611   */\n              mstore\n                /* \"#utility.yul\":16477:16617   */\n              pop\n              pop\n              jump\t// out\n                /* \"#utility.yul\":16623:16850   */\n            tag_310:\n                /* \"#utility.yul\":16716:16726   */\n              0x00\n                /* \"#utility.yul\":16737:16807   */\n              tag_514\n                /* \"#utility.yul\":16803:16806   */\n              dup4\n                /* \"#utility.yul\":16795:16801   */\n              dup4\n                /* \"#utility.yul\":16737:16807   */\n              tag_309\n              jump\t// in\n            tag_514:\n                /* \"#utility.yul\":16839:16843   */\n              0x20\n                /* \"#utility.yul\":16834:16837   */\n              dup4\n                /* \"#utility.yul\":16830:16844   */\n              add\n                /* \"#utility.yul\":16816:16844   */\n              swap1\n              pop\n                /* \"#utility.yul\":16623:16850   */\n              swap3\n              swap2\n              pop\n              pop\n              jump\t// out\n                /* \"#utility.yul\":16856:16958   */\n            tag_311:\n                /* \"#utility.yul\":16898:16906   */\n              0x00\n                /* \"#utility.yul\":16945:16950   */\n              dup2\n                /* \"#utility.yul\":16942:16943   */\n              0x00\n                /* \"#utility.yul\":16938:16951   */\n              shr\n                /* \"#utility.yul\":16917:16951   */\n              swap1\n              pop\n                /* \"#utility.yul\":16856:16958   */\n              swap2\n              swap1\n              pop\n              jump\t// out\n                /* \"#utility.yul\":16964:17111   */\n            tag_312:\n                /* \"#utility.yul\":17022:17029   */\n              0x00\n                /* \"#utility.yul\":17062:17104   */\n              0xffffffffffffffffffffffffffffffffffffffff\n                /* \"#utility.yul\":17055:17060   */\n              dup3\n                /* \"#utility.yul\":17051:17105   */\n              and\n                /* \"#utility.yul\":17040:17105   */\n              swap1\n              pop\n                /* \"#utility.yul\":16964:17111   */\n              swap2\n              swap1\n              pop\n              jump\t// out\n                /* \"#utility.yul\":17117:17299   */\n            tag_313:\n                /* \"#utility.yul\":17194:17199   */\n              0x00\n                /* \"#utility.yul\":17219:17293   */\n              tag_518\n                /* \"#utility.yul\":17258:17292   */\n              tag_519\n                /* \"#utility.yul\":17281:17291   */\n              dup4\n                /* \"#utility.yul\":17258:17292   */\n              tag_311\n              jump\t// in\n            tag_519:\n                /* \"#utility.yul\":17219:17293   */\n              tag_312\n              jump\t// in\n            tag_518:\n                /* \"#utility.yul\":17210:17293   */\n              swap1\n              pop\n                /* \"#utility.yul\":17117:17299   */\n              swap2\n              swap1\n              pop\n              jump\t// out\n                /* \"#utility.yul\":17305:17465   */\n            tag_314:\n                /* \"#utility.yul\":17368:17373   */\n              0x00\n                /* \"#utility.yul\":17393:17458   */\n              tag_521\n                /* \"#utility.yul\":17452:17456   */\n              dup3\n                /* \"#utility.yul\":17446:17457   */\n              sload\n                /* \"#utility.yul\":17393:17458   */\n              tag_313\n              jump\t// in\n            tag_521:\n                /* \"#utility.yul\":17384:17458   */\n              swap1\n              pop\n                /* \"#utility.yul\":17305:17465   */\n              swap2\n              swap1\n              pop\n              jump\t// out\n                /* \"#utility.yul\":17471:17589   */\n            tag_315:\n                /* \"#utility.yul\":17546:17550   */\n              0x00\n                /* \"#utility.yul\":17578:17582   */\n              0x01\n                /* \"#utility.yul\":17573:17576   */\n              dup3\n                /* \"#utility.yul\":17569:17583   */\n              add\n                /* \"#utility.yul\":17561:17583   */\n              swap1\n              pop\n                /* \"#utility.yul\":17471:17589   */\n              swap2\n              swap1\n              pop\n              jump\t// out\n                /* \"#utility.yul\":17641:18508   */\n            tag_316:\n                /* \"#utility.yul\":17791:17794   */\n              0x00\n                /* \"#utility.yul\":17820:17879   */\n              tag_524\n                /* \"#utility.yul\":17873:17878   */\n              dup3\n                /* \"#utility.yul\":17820:17879   */\n              tag_306\n              jump\t// in\n            tag_524:\n                /* \"#utility.yul\":17895:18007   */\n              tag_525\n                /* \"#utility.yul\":18000:18006   */\n              dup2\n                /* \"#utility.yul\":17995:17998   */\n              dup6\n                /* \"#utility.yul\":17895:18007   */\n              tag_307\n              jump\t// in\n            tag_525:\n                /* \"#utility.yul\":17888:18007   */\n              swap4\n              pop\n                /* \"#utility.yul\":18031:18092   */\n              tag_526\n                /* \"#utility.yul\":18086:18091   */\n              dup4\n                /* \"#utility.yul\":18031:18092   */\n              tag_308\n              jump\t// in\n            tag_526:\n                /* \"#utility.yul\":18115:18122   */\n              dup1\n                /* \"#utility.yul\":18146:18147   */\n              0x00\n                /* \"#utility.yul\":18131:18483   */\n            tag_527:\n                /* \"#utility.yul\":18156:18162   */\n              dup4\n                /* \"#utility.yul\":18153:18154   */\n              dup2\n                /* \"#utility.yul\":18150:18163   */\n              lt\n                /* \"#utility.yul\":18131:18483   */\n              iszero\n              tag_529\n              jumpi\n                /* \"#utility.yul\":18226:18278   */\n              tag_530\n                /* \"#utility.yul\":18271:18277   */\n              dup3\n                /* \"#utility.yul\":18226:18278   */\n              tag_314\n              jump\t// in\n            tag_530:\n                /* \"#utility.yul\":18298:18385   */\n              tag_531\n                /* \"#utility.yul\":18381:18384   */\n              dup9\n                /* \"#utility.yul\":18366:18379   */\n              dup3\n                /* \"#utility.yul\":18298:18385   */\n              tag_310\n              jump\t// in\n            tag_531:\n                /* \"#utility.yul\":18291:18385   */\n              swap8\n              pop\n                /* \"#utility.yul\":18408:18473   */\n              tag_532\n                /* \"#utility.yul\":18466:18472   */\n              dup4\n                /* \"#utility.yul\":18408:18473   */\n              tag_315\n              jump\t// in\n            tag_532:\n                /* \"#utility.yul\":18398:18473   */\n              swap3\n              pop\n                /* \"#utility.yul\":18191:18483   */\n              pop\n                /* \"#utility.yul\":18178:18179   */\n              0x01\n                /* \"#utility.yul\":18175:18176   */\n              dup2\n                /* \"#utility.yul\":18171:18180   */\n              add\n                /* \"#utility.yul\":18166:18180   */\n              swap1\n              pop\n                /* \"#utility.yul\":18131:18483   */\n              jump(tag_527)\n            tag_529:\n                /* \"#utility.yul\":18135:18149   */\n              pop\n                /* \"#utility.yul\":18499:18502   */\n              dup6\n                /* \"#utility.yul\":18492:18502   */\n              swap4\n              pop\n                /* \"#utility.yul\":17796:18508   */\n              pop\n              pop\n              pop\n                /* \"#utility.yul\":17641:18508   */\n              swap3\n              swap2\n              pop\n              pop\n              jump\t// out\n                /* \"#utility.yul\":18514:19016   */\n            tag_139:\n                /* \"#utility.yul\":18717:18720   */\n              0x00\n                /* \"#utility.yul\":18732:18807   */\n              tag_534\n                /* \"#utility.yul\":18803:18806   */\n              dup3\n                /* \"#utility.yul\":18794:18800   */\n              dup6\n                /* \"#utility.yul\":18732:18807   */\n              tag_305\n              jump\t// in\n            tag_534:\n                /* \"#utility.yul\":18832:18834   */\n              0x20\n                /* \"#utility.yul\":18827:18830   */\n              dup3\n                /* \"#utility.yul\":18823:18835   */\n              add\n                /* \"#utility.yul\":18816:18835   */\n              swap2\n              pop\n                /* \"#utility.yul\":18852:18990   */\n              tag_535\n                /* \"#utility.yul\":18986:18989   */\n              dup3\n                /* \"#utility.yul\":18977:18983   */\n              dup5\n                /* \"#utility.yul\":18852:18990   */\n              tag_316\n              jump\t// in\n            tag_535:\n                /* \"#utility.yul\":18845:18990   */\n              swap2\n              pop\n                /* \"#utility.yul\":19007:19010   */\n              dup2\n                /* \"#utility.yul\":19000:19010   */\n              swap1\n              pop\n                /* \"#utility.yul\":18514:19016   */\n              swap4\n              swap3\n              pop\n              pop\n              pop\n              jump\t// out\n                /* \"#utility.yul\":19022:19202   */\n            tag_317:\n                /* \"#utility.yul\":19070:19147   */\n              0x4e487b7100000000000000000000000000000000000000000000000000000000\n                /* \"#utility.yul\":19067:19068   */\n              0x00\n                /* \"#utility.yul\":19060:19148   */\n              mstore\n                /* \"#utility.yul\":19167:19171   */\n              0x12\n                /* \"#utility.yul\":19164:19165   */\n              0x04\n                /* \"#utility.yul\":19157:19172   */\n              mstore\n                /* \"#utility.yul\":19191:19195   */\n              0x24\n                /* \"#utility.yul\":19188:19189   */\n              0x00\n                /* \"#utility.yul\":19181:19196   */\n              revert\n                /* \"#utility.yul\":19208:19384   */\n            tag_141:\n                /* \"#utility.yul\":19240:19241   */\n              0x00\n                /* \"#utility.yul\":19257:19277   */\n              tag_538\n                /* \"#utility.yul\":19275:19276   */\n              dup3\n                /* \"#utility.yul\":19257:19277   */\n              tag_260\n              jump\t// in\n            tag_538:\n                /* \"#utility.yul\":19252:19277   */\n              swap2\n              pop\n                /* \"#utility.yul\":19291:19311   */\n              tag_539\n                /* \"#utility.yul\":19309:19310   */\n              dup4\n                /* \"#utility.yul\":19291:19311   */\n              tag_260\n              jump\t// in\n            tag_539:\n                /* \"#utility.yul\":19286:19311   */\n              swap3\n              pop\n                /* \"#utility.yul\":19330:19331   */\n              dup3\n                /* \"#utility.yul\":19320:19355   */\n              tag_540\n              jumpi\n                /* \"#utility.yul\":19335:19353   */\n              tag_541\n              tag_317\n              jump\t// in\n            tag_541:\n                /* \"#utility.yul\":19320:19355   */\n            tag_540:\n                /* \"#utility.yul\":19376:19377   */\n              dup3\n                /* \"#utility.yul\":19373:19374   */\n              dup3\n                /* \"#utility.yul\":19369:19378   */\n              mod\n                /* \"#utility.yul\":19364:19378   */\n              swap1\n              pop\n                /* \"#utility.yul\":19208:19384   */\n              swap3\n              swap2\n              pop\n              pop\n              jump\t// out\n                /* \"#utility.yul\":19390:19537   */\n            tag_318:\n                /* \"#utility.yul\":19491:19502   */\n              0x00\n                /* \"#utility.yul\":19528:19531   */\n              dup2\n                /* \"#utility.yul\":19513:19531   */\n              swap1\n              pop\n                /* \"#utility.yul\":19390:19537   */\n              swap3\n              swap2\n              pop\n              pop\n              jump\t// out\n                /* \"#utility.yul\":19543:19657   */\n            tag_319:\n              pop\n              jump\t// out\n                /* \"#utility.yul\":19663:20061   */\n            tag_320:\n                /* \"#utility.yul\":19822:19825   */\n              0x00\n                /* \"#utility.yul\":19843:19926   */\n              tag_545\n                /* \"#utility.yul\":19924:19925   */\n              0x00\n                /* \"#utility.yul\":19919:19922   */\n              dup4\n                /* \"#utility.yul\":19843:19926   */\n              tag_318\n              jump\t// in\n            tag_545:\n                /* \"#utility.yul\":19836:19926   */\n              swap2\n              pop\n                /* \"#utility.yul\":19935:20028   */\n              tag_546\n                /* \"#utility.yul\":20024:20027   */\n              dup3\n                /* \"#utility.yul\":19935:20028   */\n              tag_319\n              jump\t// in\n            tag_546:\n                /* \"#utility.yul\":20053:20054   */\n              0x00\n                /* \"#utility.yul\":20048:20051   */\n              dup3\n                /* \"#utility.yul\":20044:20055   */\n              add\n                /* \"#utility.yul\":20037:20055   */\n              swap1\n              pop\n                /* \"#utility.yul\":19663:20061   */\n              swap2\n              swap1\n              pop\n              jump\t// out\n                /* \"#utility.yul\":20067:20446   */\n            tag_146:\n                /* \"#utility.yul\":20251:20254   */\n              0x00\n                /* \"#utility.yul\":20273:20420   */\n              tag_548\n                /* \"#utility.yul\":20416:20419   */\n              dup3\n                /* \"#utility.yul\":20273:20420   */\n              tag_320\n              jump\t// in\n            tag_548:\n                /* \"#utility.yul\":20266:20420   */\n              swap2\n              pop\n                /* \"#utility.yul\":20437:20440   */\n              dup2\n                /* \"#utility.yul\":20430:20440   */\n              swap1\n              pop\n                /* \"#utility.yul\":20067:20446   */\n              swap2\n              swap1\n              pop\n              jump\t// out\n                /* \"#utility.yul\":20452:20622   */\n            tag_321:\n                /* \"#utility.yul\":20592:20614   */\n              0x4661696c656420746f2073656e64204574686572000000000000000000000000\n                /* \"#utility.yul\":20588:20589   */\n              0x00\n                /* \"#utility.yul\":20580:20586   */\n              dup3\n                /* \"#utility.yul\":20576:20590   */\n              add\n                /* \"#utility.yul\":20569:20615   */\n              mstore\n                /* \"#utility.yul\":20452:20622   */\n              pop\n              jump\t// out\n                /* \"#utility.yul\":20628:20994   */\n            tag_322:\n                /* \"#utility.yul\":20770:20773   */\n              0x00\n                /* \"#utility.yul\":20791:20858   */\n              tag_551\n                /* \"#utility.yul\":20855:20857   */\n              0x14\n                /* \"#utility.yul\":20850:20853   */\n              dup4\n                /* \"#utility.yul\":20791:20858   */\n              tag_272\n              jump\t// in\n            tag_551:\n                /* \"#utility.yul\":20784:20858   */\n              swap2\n              pop\n                /* \"#utility.yul\":20867:20960   */\n              tag_552\n                /* \"#utility.yul\":20956:20959   */\n              dup3\n                /* \"#utility.yul\":20867:20960   */\n              tag_321\n              jump\t// in\n            tag_552:\n                /* \"#utility.yul\":20985:20987   */\n              0x20\n                /* \"#utility.yul\":20980:20983   */\n              dup3\n                /* \"#utility.yul\":20976:20988   */\n              add\n                /* \"#utility.yul\":20969:20988   */\n              swap1\n              pop\n                /* \"#utility.yul\":20628:20994   */\n              swap2\n              swap1\n              pop\n              jump\t// out\n                /* \"#utility.yul\":21000:21419   */\n            tag_152:\n                /* \"#utility.yul\":21166:21170   */\n              0x00\n                /* \"#utility.yul\":21204:21206   */\n              0x20\n                /* \"#utility.yul\":21193:21202   */\n              dup3\n                /* \"#utility.yul\":21189:21207   */\n              add\n                /* \"#utility.yul\":21181:21207   */\n              swap1\n              pop\n                /* \"#utility.yul\":21253:21262   */\n              dup2\n                /* \"#utility.yul\":21247:21251   */\n              dup2\n                /* \"#utility.yul\":21243:21263   */\n              sub\n                /* \"#utility.yul\":21239:21240   */\n              0x00\n                /* \"#utility.yul\":21228:21237   */\n              dup4\n                /* \"#utility.yul\":21224:21241   */\n              add\n                /* \"#utility.yul\":21217:21264   */\n              mstore\n                /* \"#utility.yul\":21281:21412   */\n              tag_554\n                /* \"#utility.yul\":21407:21411   */\n              dup2\n                /* \"#utility.yul\":21281:21412   */\n              tag_322\n              jump\t// in\n            tag_554:\n                /* \"#utility.yul\":21273:21412   */\n              swap1\n              pop\n                /* \"#utility.yul\":21000:21419   */\n              swap2\n              swap1\n              pop\n              jump\t// out\n                /* \"#utility.yul\":21425:21595   */\n            tag_323:\n                /* \"#utility.yul\":21565:21587   */\n              0x4d616e616765722043616e204e6f7420566f7465000000000000000000000000\n                /* \"#utility.yul\":21561:21562   */\n              0x00\n                /* \"#utility.yul\":21553:21559   */\n              dup3\n                /* \"#utility.yul\":21549:21563   */\n              add\n                /* \"#utility.yul\":21542:21588   */\n              mstore\n                /* \"#utility.yul\":21425:21595   */\n              pop\n              jump\t// out\n                /* \"#utility.yul\":21601:21967   */\n            tag_324:\n                /* \"#utility.yul\":21743:21746   */\n              0x00\n                /* \"#utility.yul\":21764:21831   */\n              tag_557\n                /* \"#utility.yul\":21828:21830   */\n              0x14\n                /* \"#utility.yul\":21823:21826   */\n              dup4\n                /* \"#utility.yul\":21764:21831   */\n              tag_272\n              jump\t// in\n            tag_557:\n                /* \"#utility.yul\":21757:21831   */\n              swap2\n              pop\n                /* \"#utility.yul\":21840:21933   */\n              tag_558\n                /* \"#utility.yul\":21929:21932   */\n              dup3\n                /* \"#utility.yul\":21840:21933   */\n              tag_323\n              jump\t// in\n            tag_558:\n                /* \"#utility.yul\":21958:21960   */\n              0x20\n                /* \"#utility.yul\":21953:21956   */\n              dup3\n                /* \"#utility.yul\":21949:21961   */\n              add\n                /* \"#utility.yul\":21942:21961   */\n              swap1\n              pop\n                /* \"#utility.yul\":21601:21967   */\n              swap2\n              swap1\n              pop\n              jump\t// out\n                /* \"#utility.yul\":21973:22392   */\n            tag_158:\n                /* \"#utility.yul\":22139:22143   */\n              0x00\n                /* \"#utility.yul\":22177:22179   */\n              0x20\n                /* \"#utility.yul\":22166:22175   */\n              dup3\n                /* \"#utility.yul\":22162:22180   */\n              add\n                /* \"#utility.yul\":22154:22180   */\n              swap1\n              pop\n                /* \"#utility.yul\":22226:22235   */\n              dup2\n                /* \"#utility.yul\":22220:22224   */\n              dup2\n                /* \"#utility.yul\":22216:22236   */\n              sub\n                /* \"#utility.yul\":22212:22213   */\n              0x00\n                /* \"#utility.yul\":22201:22210   */\n              dup4\n                /* \"#utility.yul\":22197:22214   */\n              add\n                /* \"#utility.yul\":22190:22237   */\n              mstore\n                /* \"#utility.yul\":22254:22385   */\n              tag_560\n                /* \"#utility.yul\":22380:22384   */\n              dup2\n                /* \"#utility.yul\":22254:22385   */\n              tag_324\n              jump\t// in\n            tag_560:\n                /* \"#utility.yul\":22246:22385   */\n              swap1\n              pop\n                /* \"#utility.yul\":21973:22392   */\n              swap2\n              swap1\n              pop\n              jump\t// out\n                /* \"#utility.yul\":22398:22618   */\n            tag_325:\n                /* \"#utility.yul\":22538:22572   */\n              0x596f752043616e6e6f742054616b65205061727420696e205468697320566f74\n                /* \"#utility.yul\":22534:22535   */\n              0x00\n                /* \"#utility.yul\":22526:22532   */\n              dup3\n                /* \"#utility.yul\":22522:22536   */\n              add\n                /* \"#utility.yul\":22515:22573   */\n              mstore\n                /* \"#utility.yul\":22607:22610   */\n              0x6500000000000000000000000000000000000000000000000000000000000000\n                /* \"#utility.yul\":22602:22604   */\n              0x20\n                /* \"#utility.yul\":22594:22600   */\n              dup3\n                /* \"#utility.yul\":22590:22605   */\n              add\n                /* \"#utility.yul\":22583:22611   */\n              mstore\n                /* \"#utility.yul\":22398:22618   */\n              pop\n              jump\t// out\n                /* \"#utility.yul\":22624:22990   */\n            tag_326:\n                /* \"#utility.yul\":22766:22769   */\n              0x00\n                /* \"#utility.yul\":22787:22854   */\n              tag_563\n                /* \"#utility.yul\":22851:22853   */\n              0x21\n                /* \"#utility.yul\":22846:22849   */\n              dup4\n                /* \"#utility.yul\":22787:22854   */\n              tag_272\n              jump\t// in\n            tag_563:\n                /* \"#utility.yul\":22780:22854   */\n              swap2\n              pop\n                /* \"#utility.yul\":22863:22956   */\n              tag_564\n                /* \"#utility.yul\":22952:22955   */\n              dup3\n                /* \"#utility.yul\":22863:22956   */\n              tag_325\n              jump\t// in\n            tag_564:\n                /* \"#utility.yul\":22981:22983   */\n              0x40\n                /* \"#utility.yul\":22976:22979   */\n              dup3\n                /* \"#utility.yul\":22972:22984   */\n              add\n                /* \"#utility.yul\":22965:22984   */\n              swap1\n              pop\n                /* \"#utility.yul\":22624:22990   */\n              swap2\n              swap1\n              pop\n              jump\t// out\n                /* \"#utility.yul\":22996:23415   */\n            tag_161:\n                /* \"#utility.yul\":23162:23166   */\n              0x00\n                /* \"#utility.yul\":23200:23202   */\n              0x20\n                /* \"#utility.yul\":23189:23198   */\n              dup3\n                /* \"#utility.yul\":23185:23203   */\n              add\n                /* \"#utility.yul\":23177:23203   */\n              swap1\n              pop\n                /* \"#utility.yul\":23249:23258   */\n              dup2\n                /* \"#utility.yul\":23243:23247   */\n              dup2\n                /* \"#utility.yul\":23239:23259   */\n              sub\n                /* \"#utility.yul\":23235:23236   */\n              0x00\n                /* \"#utility.yul\":23224:23233   */\n              dup4\n                /* \"#utility.yul\":23220:23237   */\n              add\n                /* \"#utility.yul\":23213:23260   */\n              mstore\n                /* \"#utility.yul\":23277:23408   */\n              tag_566\n                /* \"#utility.yul\":23403:23407   */\n              dup2\n                /* \"#utility.yul\":23277:23408   */\n              tag_326\n              jump\t// in\n            tag_566:\n                /* \"#utility.yul\":23269:23408   */\n              swap1\n              pop\n                /* \"#utility.yul\":22996:23415   */\n              swap2\n              swap1\n              pop\n              jump\t// out\n                /* \"#utility.yul\":23421:23593   */\n            tag_327:\n                /* \"#utility.yul\":23561:23585   */\n              0x596f752043616e204f6e6c7920566f7465204f6e636500000000000000000000\n                /* \"#utility.yul\":23557:23558   */\n              0x00\n                /* \"#utility.yul\":23549:23555   */\n              dup3\n                /* \"#utility.yul\":23545:23559   */\n              add\n                /* \"#utility.yul\":23538:23586   */\n              mstore\n                /* \"#utility.yul\":23421:23593   */\n              pop\n              jump\t// out\n                /* \"#utility.yul\":23599:23965   */\n            tag_328:\n                /* \"#utility.yul\":23741:23744   */\n              0x00\n                /* \"#utility.yul\":23762:23829   */\n              tag_569\n                /* \"#utility.yul\":23826:23828   */\n              0x16\n                /* \"#utility.yul\":23821:23824   */\n              dup4\n                /* \"#utility.yul\":23762:23829   */\n              tag_272\n              jump\t// in\n            tag_569:\n                /* \"#utility.yul\":23755:23829   */\n              swap2\n              pop\n                /* \"#utility.yul\":23838:23931   */\n              tag_570\n                /* \"#utility.yul\":23927:23930   */\n              dup3\n                /* \"#utility.yul\":23838:23931   */\n              tag_327\n              jump\t// in\n            tag_570:\n                /* \"#utility.yul\":23956:23958   */\n              0x20\n                /* \"#utility.yul\":23951:23954   */\n              dup3\n                /* \"#utility.yul\":23947:23959   */\n              add\n                /* \"#utility.yul\":23940:23959   */\n              swap1\n              pop\n                /* \"#utility.yul\":23599:23965   */\n              swap2\n              swap1\n              pop\n              jump\t// out\n                /* \"#utility.yul\":23971:24390   */\n            tag_164:\n                /* \"#utility.yul\":24137:24141   */\n              0x00\n                /* \"#utility.yul\":24175:24177   */\n              0x20\n                /* \"#utility.yul\":24164:24173   */\n              dup3\n                /* \"#utility.yul\":24160:24178   */\n              add\n                /* \"#utility.yul\":24152:24178   */\n              swap1\n              pop\n                /* \"#utility.yul\":24224:24233   */\n              dup2\n                /* \"#utility.yul\":24218:24222   */\n              dup2\n                /* \"#utility.yul\":24214:24234   */\n              sub\n                /* \"#utility.yul\":24210:24211   */\n              0x00\n                /* \"#utility.yul\":24199:24208   */\n              dup4\n                /* \"#utility.yul\":24195:24212   */\n              add\n                /* \"#utility.yul\":24188:24235   */\n              mstore\n                /* \"#utility.yul\":24252:24383   */\n              tag_572\n                /* \"#utility.yul\":24378:24382   */\n              dup2\n                /* \"#utility.yul\":24252:24383   */\n              tag_328\n              jump\t// in\n            tag_572:\n                /* \"#utility.yul\":24244:24383   */\n              swap1\n              pop\n                /* \"#utility.yul\":23971:24390   */\n              swap2\n              swap1\n              pop\n              jump\t// out\n                /* \"#utility.yul\":24396:24573   */\n            tag_329:\n                /* \"#utility.yul\":24536:24565   */\n              0x596f752043686f7365206174205468652057726f6e672054696d650000000000\n                /* \"#utility.yul\":24532:24533   */\n              0x00\n                /* \"#utility.yul\":24524:24530   */\n              dup3\n                /* \"#utility.yul\":24520:24534   */\n              add\n                /* \"#utility.yul\":24513:24566   */\n              mstore\n                /* \"#utility.yul\":24396:24573   */\n              pop\n              jump\t// out\n                /* \"#utility.yul\":24579:24945   */\n            tag_330:\n                /* \"#utility.yul\":24721:24724   */\n              0x00\n                /* \"#utility.yul\":24742:24809   */\n              tag_575\n                /* \"#utility.yul\":24806:24808   */\n              0x1b\n                /* \"#utility.yul\":24801:24804   */\n              dup4\n                /* \"#utility.yul\":24742:24809   */\n              tag_272\n              jump\t// in\n            tag_575:\n                /* \"#utility.yul\":24735:24809   */\n              swap2\n              pop\n                /* \"#utility.yul\":24818:24911   */\n              tag_576\n                /* \"#utility.yul\":24907:24910   */\n              dup3\n                /* \"#utility.yul\":24818:24911   */\n              tag_329\n              jump\t// in\n            tag_576:\n                /* \"#utility.yul\":24936:24938   */\n              0x20\n                /* \"#utility.yul\":24931:24934   */\n              dup3\n                /* \"#utility.yul\":24927:24939   */\n              add\n                /* \"#utility.yul\":24920:24939   */\n              swap1\n              pop\n                /* \"#utility.yul\":24579:24945   */\n              swap2\n              swap1\n              pop\n              jump\t// out\n                /* \"#utility.yul\":24951:25370   */\n            tag_170:\n                /* \"#utility.yul\":25117:25121   */\n              0x00\n                /* \"#utility.yul\":25155:25157   */\n              0x20\n                /* \"#utility.yul\":25144:25153   */\n              dup3\n                /* \"#utility.yul\":25140:25158   */\n              add\n                /* \"#utility.yul\":25132:25158   */\n              swap1\n              pop\n                /* \"#utility.yul\":25204:25213   */\n              dup2\n                /* \"#utility.yul\":25198:25202   */\n              dup2\n                /* \"#utility.yul\":25194:25214   */\n              sub\n                /* \"#utility.yul\":25190:25191   */\n              0x00\n                /* \"#utility.yul\":25179:25188   */\n              dup4\n                /* \"#utility.yul\":25175:25192   */\n              add\n                /* \"#utility.yul\":25168:25215   */\n              mstore\n                /* \"#utility.yul\":25232:25363   */\n              tag_578\n                /* \"#utility.yul\":25358:25362   */\n              dup2\n                /* \"#utility.yul\":25232:25363   */\n              tag_330\n              jump\t// in\n            tag_578:\n                /* \"#utility.yul\":25224:25363   */\n              swap1\n              pop\n                /* \"#utility.yul\":24951:25370   */\n              swap2\n              swap1\n              pop\n              jump\t// out\n                /* \"#utility.yul\":25376:25609   */\n            tag_175:\n                /* \"#utility.yul\":25415:25418   */\n              0x00\n                /* \"#utility.yul\":25438:25462   */\n              tag_580\n                /* \"#utility.yul\":25456:25461   */\n              dup3\n                /* \"#utility.yul\":25438:25462   */\n              tag_260\n              jump\t// in\n            tag_580:\n                /* \"#utility.yul\":25429:25462   */\n              swap2\n              pop\n                /* \"#utility.yul\":25484:25550   */\n              0xffffffffffffffffffffffffffffffffffffffffffffffffffffffffffffffff\n                /* \"#utility.yul\":25477:25482   */\n              dup3\n                /* \"#utility.yul\":25474:25551   */\n              sub\n                /* \"#utility.yul\":25471:25574   */\n              tag_581\n              jumpi\n                /* \"#utility.yul\":25554:25572   */\n              tag_582\n              tag_285\n              jump\t// in\n            tag_582:\n                /* \"#utility.yul\":25471:25574   */\n            tag_581:\n                /* \"#utility.yul\":25601:25602   */\n              0x01\n                /* \"#utility.yul\":25594:25599   */\n              dup3\n                /* \"#utility.yul\":25590:25603   */\n              add\n                /* \"#utility.yul\":25583:25603   */\n              swap1\n              pop\n                /* \"#utility.yul\":25376:25609   */\n              swap2\n              swap1\n              pop\n              jump\t// out\n                /* \"#utility.yul\":25615:25789   */\n            tag_331:\n                /* \"#utility.yul\":25755:25781   */\n              0x4d616e616765722043616e6e6f7420426520566f746572730000000000000000\n                /* \"#utility.yul\":25751:25752   */\n              0x00\n                /* \"#utility.yul\":25743:25749   */\n              dup3\n                /* \"#utility.yul\":25739:25753   */\n              add\n                /* \"#utility.yul\":25732:25782   */\n              mstore\n                /* \"#utility.yul\":25615:25789   */\n              pop\n              jump\t// out\n                /* \"#utility.yul\":25795:26161   */\n            tag_332:\n                /* \"#utility.yul\":25937:25940   */\n              0x00\n                /* \"#utility.yul\":25958:26025   */\n              tag_585\n                /* \"#utility.yul\":26022:26024   */\n              0x18\n                /* \"#utility.yul\":26017:26020   */\n              dup4\n                /* \"#utility.yul\":25958:26025   */\n              tag_272\n              jump\t// in\n            tag_585:\n                /* \"#utility.yul\":25951:26025   */\n              swap2\n              pop\n                /* \"#utility.yul\":26034:26127   */\n              tag_586\n                /* \"#utility.yul\":26123:26126   */\n              dup3\n                /* \"#utility.yul\":26034:26127   */\n              tag_331\n              jump\t// in\n            tag_586:\n                /* \"#utility.yul\":26152:26154   */\n              0x20\n                /* \"#utility.yul\":26147:26150   */\n              dup3\n                /* \"#utility.yul\":26143:26155   */\n              add\n                /* \"#utility.yul\":26136:26155   */\n              swap1\n              pop\n                /* \"#utility.yul\":25795:26161   */\n              swap2\n              swap1\n              pop\n              jump\t// out\n                /* \"#utility.yul\":26167:26586   */\n            tag_208:\n                /* \"#utility.yul\":26333:26337   */\n              0x00\n                /* \"#utility.yul\":26371:26373   */\n              0x20\n                /* \"#utility.yul\":26360:26369   */\n              dup3\n                /* \"#utility.yul\":26356:26374   */\n              add\n                /* \"#utility.yul\":26348:26374   */\n              swap1\n              pop\n                /* \"#utility.yul\":26420:26429   */\n              dup2\n                /* \"#utility.yul\":26414:26418   */\n              dup2\n                /* \"#utility.yul\":26410:26430   */\n              sub\n                /* \"#utility.yul\":26406:26407   */\n              0x00\n                /* \"#utility.yul\":26395:26404   */\n              dup4\n                /* \"#utility.yul\":26391:26408   */\n              add\n                /* \"#utility.yul\":26384:26431   */\n              mstore\n                /* \"#utility.yul\":26448:26579   */\n              tag_588\n                /* \"#utility.yul\":26574:26578   */\n              dup2\n                /* \"#utility.yul\":26448:26579   */\n              tag_332\n              jump\t// in\n            tag_588:\n                /* \"#utility.yul\":26440:26579   */\n              swap1\n              pop\n                /* \"#utility.yul\":26167:26586   */\n              swap2\n              swap1\n              pop\n              jump\t// out\n                /* \"#utility.yul\":26592:26774   */\n            tag_333:\n                /* \"#utility.yul\":26732:26766   */\n              0x54686973204164647265737320697320416c7265616479206120566f74657220\n                /* \"#utility.yul\":26728:26729   */\n              0x00\n                /* \"#utility.yul\":26720:26726   */\n              dup3\n                /* \"#utility.yul\":26716:26730   */\n              add\n                /* \"#utility.yul\":26709:26767   */\n              mstore\n                /* \"#utility.yul\":26592:26774   */\n              pop\n              jump\t// out\n                /* \"#utility.yul\":26780:27146   */\n            tag_334:\n                /* \"#utility.yul\":26922:26925   */\n              0x00\n                /* \"#utility.yul\":26943:27010   */\n              tag_591\n                /* \"#utility.yul\":27007:27009   */\n              0x20\n                /* \"#utility.yul\":27002:27005   */\n              dup4\n                /* \"#utility.yul\":26943:27010   */\n              tag_272\n              jump\t// in\n            tag_591:\n                /* \"#utility.yul\":26936:27010   */\n              swap2\n              pop\n                /* \"#utility.yul\":27019:27112   */\n              tag_592\n                /* \"#utility.yul\":27108:27111   */\n              dup3\n                /* \"#utility.yul\":27019:27112   */\n              tag_333\n              jump\t// in\n            tag_592:\n                /* \"#utility.yul\":27137:27139   */\n              0x20\n                /* \"#utility.yul\":27132:27135   */\n              dup3\n                /* \"#utility.yul\":27128:27140   */\n              add\n                /* \"#utility.yul\":27121:27140   */\n              swap1\n              pop\n                /* \"#utility.yul\":26780:27146   */\n              swap2\n              swap1\n              pop\n              jump\t// out\n                /* \"#utility.yul\":27152:27571   */\n            tag_211:\n                /* \"#utility.yul\":27318:27322   */\n              0x00\n                /* \"#utility.yul\":27356:27358   */\n              0x20\n                /* \"#utility.yul\":27345:27354   */\n              dup3\n                /* \"#utility.yul\":27341:27359   */\n              add\n                /* \"#utility.yul\":27333:27359   */\n              swap1\n              pop\n                /* \"#utility.yul\":27405:27414   */\n              dup2\n                /* \"#utility.yul\":27399:27403   */\n              dup2\n                /* \"#utility.yul\":27395:27415   */\n              sub\n                /* \"#utility.yul\":27391:27392   */\n              0x00\n                /* \"#utility.yul\":27380:27389   */\n              dup4\n                /* \"#utility.yul\":27376:27393   */\n              add\n                /* \"#utility.yul\":27369:27416   */\n              mstore\n                /* \"#utility.yul\":27433:27564   */\n              tag_594\n                /* \"#utility.yul\":27559:27563   */\n              dup2\n                /* \"#utility.yul\":27433:27564   */\n              tag_334\n              jump\t// in\n            tag_594:\n                /* \"#utility.yul\":27425:27564   */\n              swap1\n              pop\n                /* \"#utility.yul\":27152:27571   */\n              swap2\n              swap1\n              pop\n              jump\t// out\n                /* \"#utility.yul\":27577:27771   */\n            tag_245:\n                /* \"#utility.yul\":27617:27621   */\n              0x00\n                /* \"#utility.yul\":27637:27657   */\n              tag_596\n                /* \"#utility.yul\":27655:27656   */\n              dup3\n                /* \"#utility.yul\":27637:27657   */\n              tag_260\n              jump\t// in\n            tag_596:\n                /* \"#utility.yul\":27632:27657   */\n              swap2\n              pop\n                /* \"#utility.yul\":27671:27691   */\n              tag_597\n                /* \"#utility.yul\":27689:27690   */\n              dup4\n                /* \"#utility.yul\":27671:27691   */\n              tag_260\n              jump\t// in\n            tag_597:\n                /* \"#utility.yul\":27666:27691   */\n              swap3\n              pop\n                /* \"#utility.yul\":27715:27716   */\n              dup3\n                /* \"#utility.yul\":27712:27713   */\n              dup3\n                /* \"#utility.yul\":27708:27717   */\n              sub\n                /* \"#utility.yul\":27700:27717   */\n              swap1\n              pop\n                /* \"#utility.yul\":27739:27740   */\n              dup2\n                /* \"#utility.yul\":27733:27737   */\n              dup2\n                /* \"#utility.yul\":27730:27741   */\n              gt\n                /* \"#utility.yul\":27727:27764   */\n              iszero\n              tag_598\n              jumpi\n                /* \"#utility.yul\":27744:27762   */\n              tag_599\n              tag_285\n              jump\t// in\n            tag_599:\n                /* \"#utility.yul\":27727:27764   */\n            tag_598:\n                /* \"#utility.yul\":27577:27771   */\n              swap3\n              swap2\n              pop\n              pop\n              jump\t// out\n\n            auxdata: 0xa26469706673582212204cadf9af7c6a933349b09268e19b59804f16b6bf69b723554e248463056fc58064736f6c63430008120033\n        }\n    }\n\n    auxdata: 0xa26469706673582212205bc8f4dbd62031873720da8730203e0ac3aa179e3d97fc4624449989cb3f491c64736f6c63430008120033\n}\n","bytecode":{"linkReferences":{},"object":"608060405266470de4df82000060025534801561001b57600080fd5b5033600160006101000a81548173ffffffffffffffffffffffffffffffffffffffff021916908373ffffffffffffffffffffffffffffffffffffffff1602179055506134538061006c6000396000f3fe608060405260043610620000505760003560e01c806302d05d3f146200005557806308dee7f41462000085578063298f37ab14620000a55780633e04b57814620000e957806351c699391462000119575b600080fd5b3480156200006257600080fd5b506200006d62000149565b6040516200007c919062000407565b60405180910390f35b620000a360048036038101906200009d919062000464565b6200016f565b005b348015620000b257600080fd5b50620000d16004803603810190620000cb9190620004c0565b620002de565b604051620000e0919062000517565b60405180910390f35b348015620000f657600080fd5b50620001016200031e565b60405162000110919062000602565b60405180910390f35b3480156200012657600080fd5b5062000131620003ae565b60405162000140919062000637565b60405180910390f35b600160009054906101000a900473ffffffffffffffffffffffffffffffffffffffff1681565b60025434116200017e57600080fd5b6000838383336040516200019290620003b4565b620001a1949392919062000654565b604051809103906000f080158015620001be573d6000803e3d6000fd5b50905060008173ffffffffffffffffffffffffffffffffffffffff1634604051620001e990620006d6565b60006040518083038185875af1925050503d806000811462000228576040519150601f19603f3d011682016040523d82523d6000602084013e6200022d565b606091505b505090508062000274576040517f08c379a00000000000000000000000000000000000000000000000000000000081526004016200026b906200074e565b60405180910390fd5b6000829080600181540180825580915050600190039060005260206000200160009091909190916101000a81548173ffffffffffffffffffffffffffffffffffffffff021916908373ffffffffffffffffffffffffffffffffffffffff1602179055505050505050565b60008181548110620002ef57600080fd5b906000526020600020016000915054906101000a900473ffffffffffffffffffffffffffffffffffffffff1681565b60606000805480602002602001604051908101604052809291908181526020018280548015620003a457602002820191906000526020600020905b8160009054906101000a900473ffffffffffffffffffffffffffffffffffffffff1673ffffffffffffffffffffffffffffffffffffffff168152602001906001019080831162000359575b5050505050905090565b60025481565b612cad806200077183390190565b600073ffffffffffffffffffffffffffffffffffffffff82169050919050565b6000620003ef82620003c2565b9050919050565b6200040181620003e2565b82525050565b60006020820190506200041e6000830184620003f6565b92915050565b600080fd5b6000819050919050565b6200043e8162000429565b81146200044a57600080fd5b50565b6000813590506200045e8162000433565b92915050565b60008060006060848603121562000480576200047f62000424565b5b600062000490868287016200044d565b9350506020620004a3868287016200044d565b9250506040620004b6868287016200044d565b9150509250925092565b600060208284031215620004d957620004d862000424565b5b6000620004e9848285016200044d565b91505092915050565b6000620004ff82620003c2565b9050919050565b6200051181620004f2565b82525050565b60006020820190506200052e600083018462000506565b92915050565b600081519050919050565b600082825260208201905092915050565b6000819050602082019050919050565b6200056b81620004f2565b82525050565b60006200057f838362000560565b60208301905092915050565b6000602082019050919050565b6000620005a58262000534565b620005b181856200053f565b9350620005be8362000550565b8060005b83811015620005f5578151620005d9888262000571565b9750620005e6836200058b565b925050600181019050620005c2565b5085935050505092915050565b600060208201905081810360008301526200061e818462000598565b905092915050565b620006318162000429565b82525050565b60006020820190506200064e600083018462000626565b92915050565b60006080820190506200066b600083018762000626565b6200067a602083018662000626565b62000689604083018562000626565b620006986060830184620003f6565b95945050505050565b600081905092915050565b50565b6000620006be600083620006a1565b9150620006cb82620006ac565b600082019050919050565b6000620006e382620006af565b9150819050919050565b600082825260208201905092915050565b7f4661696c656420746f2073656e64204574686572000000000000000000000000600082015250565b600062000736601483620006ed565b91506200074382620006fe565b602082019050919050565b60006020820190508181036000830152620007698162000727565b905091905056fe6080604052662386f26fc1000060065560405162002cad38038062002cad833981810160405281019062000034919062000475565b806000806101000a81548173ffffffffffffffffffffffffffffffffffffffff021916908373ffffffffffffffffffffffffffffffffffffffff1602179055508360038190555082600481905550816005819055506000600190505b60035481116200018c576000600c6001816001815401808255809150500390600052602060002090600302019050620000cf826200019760201b60201c565b604051602001620000e19190620005b0565b6040516020818303038152906040528160000190816200010291906200083b565b5060008160010181905550600067ffffffffffffffff8111156200012b576200012a620005d6565b5b6040519080825280602002602001820160405280156200015a5781602001602082028036833780820191505090505b508160020190805190602001906200017492919062000322565b50508080620001839062000951565b91505062000090565b505050505062000ae2565b606060008203620001e0576040518060400160405280600181526020017f300000000000000000000000000000000000000000000000000000000000000081525090506200031d565b600082905060005b6000821462000218578080620001fe9062000951565b915050600a82620002109190620009cd565b9150620001e8565b60008167ffffffffffffffff811115620002375762000236620005d6565b5b6040519080825280601f01601f1916602001820160405280156200026a5781602001600182028036833780820191505090505b50905060008290505b6000861462000315576001816200028b919062000a05565b90506000600a876200029e919062000a40565b6030620002ac919062000a78565b905060008160f81b905080848481518110620002cd57620002cc62000ab3565b5b60200101907effffffffffffffffffffffffffffffffffffffffffffffffffffffffffffff1916908160001a905350600a886200030b9190620009cd565b9750505062000273565b819450505050505b919050565b8280548282559060005260206000209081019282156200039e579160200282015b828111156200039d5782518260006101000a81548173ffffffffffffffffffffffffffffffffffffffff021916908373ffffffffffffffffffffffffffffffffffffffff1602179055509160200191906001019062000343565b5b509050620003ad9190620003b1565b5090565b5b80821115620003cc576000816000905550600101620003b2565b5090565b600080fd5b6000819050919050565b620003ea81620003d5565b8114620003f657600080fd5b50565b6000815190506200040a81620003df565b92915050565b600073ffffffffffffffffffffffffffffffffffffffff82169050919050565b60006200043d8262000410565b9050919050565b6200044f8162000430565b81146200045b57600080fd5b50565b6000815190506200046f8162000444565b92915050565b60008060008060808587031215620004925762000491620003d0565b5b6000620004a287828801620003f9565b9450506020620004b587828801620003f9565b9350506040620004c887828801620003f9565b9250506060620004db878288016200045e565b91505092959194509250565b600081905092915050565b7f50696c6968616e20000000000000000000000000000000000000000000000000600082015250565b60006200052a600883620004e7565b91506200053782620004f2565b600882019050919050565b600081519050919050565b60005b838110156200056d57808201518184015260208101905062000550565b60008484015250505050565b6000620005868262000542565b620005928185620004e7565b9350620005a48185602086016200054d565b80840191505092915050565b6000620005bd826200051b565b9150620005cb828462000579565b915081905092915050565b7f4e487b7100000000000000000000000000000000000000000000000000000000600052604160045260246000fd5b7f4e487b7100000000000000000000000000000000000000000000000000000000600052602260045260246000fd5b600060028204905060018216806200064d57607f821691505b60208210810362000663576200066262000605565b5b50919050565b60008190508160005260206000209050919050565b60006020601f8301049050919050565b600082821b905092915050565b600060088302620006cd7fffffffffffffffffffffffffffffffffffffffffffffffffffffffffffffffff826200068e565b620006d986836200068e565b95508019841693508086168417925050509392505050565b6000819050919050565b60006200071c620007166200071084620003d5565b620006f1565b620003d5565b9050919050565b6000819050919050565b6200073883620006fb565b62000750620007478262000723565b8484546200069b565b825550505050565b600090565b6200076762000758565b620007748184846200072d565b505050565b5b818110156200079c57620007906000826200075d565b6001810190506200077a565b5050565b601f821115620007eb57620007b58162000669565b620007c0846200067e565b81016020851015620007d0578190505b620007e8620007df856200067e565b83018262000779565b50505b505050565b600082821c905092915050565b60006200081060001984600802620007f0565b1980831691505092915050565b60006200082b8383620007fd565b9150826002028217905092915050565b620008468262000542565b67ffffffffffffffff811115620008625762000861620005d6565b5b6200086e825462000634565b6200087b828285620007a0565b600060209050601f831160018114620008b357600084156200089e578287015190505b620008aa85826200081d565b8655506200091a565b601f198416620008c38662000669565b60005b82811015620008ed57848901518255600182019150602085019450602081019050620008c6565b868310156200090d578489015162000909601f891682620007fd565b8355505b6001600288020188555050505b505050505050565b7f4e487b7100000000000000000000000000000000000000000000000000000000600052601160045260246000fd5b60006200095e82620003d5565b91507fffffffffffffffffffffffffffffffffffffffffffffffffffffffffffffffff820362000993576200099262000922565b5b600182019050919050565b7f4e487b7100000000000000000000000000000000000000000000000000000000600052601260045260246000fd5b6000620009da82620003d5565b9150620009e783620003d5565b925082620009fa57620009f96200099e565b5b828204905092915050565b600062000a1282620003d5565b915062000a1f83620003d5565b925082820390508181111562000a3a5762000a3962000922565b5b92915050565b600062000a4d82620003d5565b915062000a5a83620003d5565b92508262000a6d5762000a6c6200099e565b5b828206905092915050565b600062000a8582620003d5565b915062000a9283620003d5565b925082820190508082111562000aad5762000aac62000922565b5b92915050565b7f4e487b7100000000000000000000000000000000000000000000000000000000600052603260045260246000fd5b6121bb8062000af26000396000f3fe6080604052600436106101185760003560e01c806370babc8a116100a0578063a50239ee11610064578063a50239ee146103a7578063a944b7a6146103e5578063c24a0f8b14610410578063dfbf53ae1461043b578063f9bc8589146104665761011f565b806370babc8a146102be57806378622c5d146102e95780639c2aab5e146103145780639d9a7fe91461033f578063a3d453141461036a5761011f565b8063228cb733116100e7578063228cb733146101c357806323822a74146101ee578063255adfd4146102175780633dde87b414610254578063481c6a75146102935761011f565b8063132fd9bc146101245780631442f65a1461014f5780631632c03f146101815780632134f7f0146101ac5761011f565b3661011f57005b600080fd5b34801561013057600080fd5b5061013961048f565b60405161014691906113bb565b60405180910390f35b34801561015b57600080fd5b506101646104b5565b60405161017898979695949392919061142b565b60405180910390f35b34801561018d57600080fd5b5061019661053e565b6040516101a391906114a9565b60405180910390f35b3480156101b857600080fd5b506101c1610544565b005b3480156101cf57600080fd5b506101d8610878565b6040516101e591906114a9565b60405180910390f35b3480156101fa57600080fd5b50610215600480360381019061021091906114f5565b61087e565b005b34801561022357600080fd5b5061023e6004803603810190610239919061154e565b610bdf565b60405161024b919061157b565b60405180910390f35b34801561026057600080fd5b5061027b600480360381019061027691906114f5565b610bff565b60405161028a939291906116e4565b60405180910390f35b34801561029f57600080fd5b506102a8610d5a565b6040516102b59190611729565b60405180910390f35b3480156102ca57600080fd5b506102d3610d7e565b6040516102e091906114a9565b60405180910390f35b3480156102f557600080fd5b506102fe610d84565b60405161030b91906114a9565b60405180910390f35b34801561032057600080fd5b50610329610d8a565b60405161033691906114a9565b60405180910390f35b34801561034b57600080fd5b50610354610d97565b604051610361919061157b565b60405180910390f35b34801561037657600080fd5b50610391600480360381019061038c919061154e565b610daa565b60405161039e919061157b565b60405180910390f35b3480156103b357600080fd5b506103ce60048036038101906103c991906114f5565b610dca565b6040516103dc929190611744565b60405180910390f35b3480156103f157600080fd5b506103fa610e86565b60405161040791906114a9565b60405180910390f35b34801561041c57600080fd5b50610425610e8c565b60405161043291906114a9565b60405180910390f35b34801561044757600080fd5b50610450610e92565b60405161045d9190611774565b60405180910390f35b34801561047257600080fd5b5061048d6004803603810190610488919061154e565b610f20565b005b600260009054906101000a900473ffffffffffffffffffffffffffffffffffffffff1681565b60008060008060008060008060008054906101000a900473ffffffffffffffffffffffffffffffffffffffff16600354600454600554600760009054906101000a900460ff16600260009054906101000a900473ffffffffffffffffffffffffffffffffffffffff16600954600654975097509750975097509750975097509091929394959697565b60035481565b60008054906101000a900473ffffffffffffffffffffffffffffffffffffffff1673ffffffffffffffffffffffffffffffffffffffff163373ffffffffffffffffffffffffffffffffffffffff161461059c57600080fd5b600760009054906101000a900460ff16156105ec576040517f08c379a00000000000000000000000000000000000000000000000000000000081526004016105e3906117e2565b60405180910390fd5b60016105f6611106565b511115610619576201518060055461060e9190611831565b600581905550610876565b6000600c610625611106565b60008151811061063857610637611865565b5b60200260200101518154811061065157610650611865565b5b9060005260206000209060030201905080600001600190816106739190611afa565b506000428260020160405160200161068c929190611d21565b6040516020818303038152906040528051906020012060001c905060008260020180549050826106bc9190611d78565b90508260020181815481106106d4576106d3611865565b5b9060005260206000200160009054906101000a900473ffffffffffffffffffffffffffffffffffffffff16600260006101000a81548173ffffffffffffffffffffffffffffffffffffffff021916908373ffffffffffffffffffffffffffffffffffffffff1602179055506000600260009054906101000a900473ffffffffffffffffffffffffffffffffffffffff1673ffffffffffffffffffffffffffffffffffffffff1660065460405161078990611dda565b60006040518083038185875af1925050503d80600081146107c6576040519150601f19603f3d011682016040523d82523d6000602084013e6107cb565b606091505b505090508061080f576040517f08c379a000000000000000000000000000000000000000000000000000000000815260040161080690611e3b565b60405180910390fd5b3373ffffffffffffffffffffffffffffffffffffffff166108fc479081150290604051600060405180830381858888f19350505050158015610855573d6000803e3d6000fd5b506001600760006101000a81548160ff021916908315150217905550505050505b565b60065481565b60008054906101000a900473ffffffffffffffffffffffffffffffffffffffff1673ffffffffffffffffffffffffffffffffffffffff163373ffffffffffffffffffffffffffffffffffffffff160361090c576040517f08c379a000000000000000000000000000000000000000000000000000000000815260040161090390611ea7565b60405180910390fd5b600a60003373ffffffffffffffffffffffffffffffffffffffff1673ffffffffffffffffffffffffffffffffffffffff16815260200190815260200160002060009054906101000a900460ff16610998576040517f08c379a000000000000000000000000000000000000000000000000000000000815260040161098f90611f39565b60405180910390fd5b600860003373ffffffffffffffffffffffffffffffffffffffff1673ffffffffffffffffffffffffffffffffffffffff16815260200190815260200160002060009054906101000a900460ff1615610a25576040517f08c379a0000000000000000000000000000000000000000000000000000000008152600401610a1c90611fa5565b60405180910390fd5b600760009054906101000a900460ff1615610a75576040517f08c379a0000000000000000000000000000000000000000000000000000000008152600401610a6c906117e2565b60405180910390fd5b60045442118015610a87575060055442105b610ac6576040517f08c379a0000000000000000000000000000000000000000000000000000000008152600401610abd90612011565b60405180910390fd5b6000600c8281548110610adc57610adb611865565b5b90600052602060002090600302019050806001016000815480929190610b0190612031565b919050555080600201339080600181540180825580915050600190039060005260206000200160009091909190916101000a81548173ffffffffffffffffffffffffffffffffffffffff021916908373ffffffffffffffffffffffffffffffffffffffff1602179055506001600860003373ffffffffffffffffffffffffffffffffffffffff1673ffffffffffffffffffffffffffffffffffffffff16815260200190815260200160002060006101000a81548160ff02191690831515021790555060096000815480929190610bd690612031565b91905055505050565b600a6020528060005260406000206000915054906101000a900460ff1681565b6060600060606000600c8581548110610c1b57610c1a611865565b5b9060005260206000209060030201905080600001816001015482600201828054610c44906118c3565b80601f0160208091040260200160405190810160405280929190818152602001828054610c70906118c3565b8015610cbd5780601f10610c9257610100808354040283529160200191610cbd565b820191906000526020600020905b815481529060010190602001808311610ca057829003601f168201915b5050505050925080805480602002602001604051908101604052809291908181526020018280548015610d4557602002820191906000526020600020905b8160009054906101000a900473ffffffffffffffffffffffffffffffffffffffff1673ffffffffffffffffffffffffffffffffffffffff1681526020019060010190808311610cfb575b50505050509050935093509350509193909250565b60008054906101000a900473ffffffffffffffffffffffffffffffffffffffff1681565b600b5481565b60095481565b6000600c80549050905090565b600760009054906101000a900460ff1681565b60086020528060005260406000206000915054906101000a900460ff1681565b600c8181548110610dda57600080fd5b9060005260206000209060030201600091509050806000018054610dfd906118c3565b80601f0160208091040260200160405190810160405280929190818152602001828054610e29906118c3565b8015610e765780601f10610e4b57610100808354040283529160200191610e76565b820191906000526020600020905b815481529060010190602001808311610e5957829003601f168201915b5050505050908060010154905082565b60045481565b60055481565b60018054610e9f906118c3565b80601f0160208091040260200160405190810160405280929190818152602001828054610ecb906118c3565b8015610f185780601f10610eed57610100808354040283529160200191610f18565b820191906000526020600020905b815481529060010190602001808311610efb57829003601f168201915b505050505081565b60008054906101000a900473ffffffffffffffffffffffffffffffffffffffff1673ffffffffffffffffffffffffffffffffffffffff163373ffffffffffffffffffffffffffffffffffffffff1614610f7857600080fd5b60008054906101000a900473ffffffffffffffffffffffffffffffffffffffff1673ffffffffffffffffffffffffffffffffffffffff168173ffffffffffffffffffffffffffffffffffffffff1603611006576040517f08c379a0000000000000000000000000000000000000000000000000000000008152600401610ffd906120c5565b60405180910390fd5b600a60008273ffffffffffffffffffffffffffffffffffffffff1673ffffffffffffffffffffffffffffffffffffffff16815260200190815260200160002060009054906101000a900460ff1615611093576040517f08c379a000000000000000000000000000000000000000000000000000000000815260040161108a90612131565b60405180910390fd5b6001600a60008373ffffffffffffffffffffffffffffffffffffffff1673ffffffffffffffffffffffffffffffffffffffff16815260200190815260200160002060006101000a81548160ff021916908315150217905550600b60008154809291906110fe90612031565b919050555050565b606060008054906101000a900473ffffffffffffffffffffffffffffffffffffffff1673ffffffffffffffffffffffffffffffffffffffff163373ffffffffffffffffffffffffffffffffffffffff161461116057600080fd5b600060606000805b600c805490508110156113705783600c828154811061118a57611189611865565b5b906000526020600020906003020160010154111561123f57600c81815481106111b6576111b5611865565b5b9060005260206000209060030201600101549350600191508167ffffffffffffffff8111156111e8576111e761190a565b5b6040519080825280602002602001820160405280156112165781602001602082028036833780820191505090505b509250808360008151811061122e5761122d611865565b5b60200260200101818152505061135d565b83600c828154811061125457611253611865565b5b9060005260206000209060030201600101540361135c57818061127690612031565b92505060008267ffffffffffffffff8111156112955761129461190a565b5b6040519080825280602002602001820160405280156112c35781602001602082028036833780820191505090505b50905060005b6001846112d69190612151565b81101561132a578481815181106112f0576112ef611865565b5b602002602001015182828151811061130b5761130a611865565b5b602002602001018181525050808061132290612031565b9150506112c9565b50818160018561133a9190612151565b8151811061134b5761134a611865565b5b602002602001018181525050809350505b5b808061136890612031565b915050611168565b5081935050505090565b600073ffffffffffffffffffffffffffffffffffffffff82169050919050565b60006113a58261137a565b9050919050565b6113b58161139a565b82525050565b60006020820190506113d060008301846113ac565b92915050565b60006113e18261137a565b9050919050565b6113f1816113d6565b82525050565b6000819050919050565b61140a816113f7565b82525050565b60008115159050919050565b61142581611410565b82525050565b600061010082019050611441600083018b6113e8565b61144e602083018a611401565b61145b6040830189611401565b6114686060830188611401565b611475608083018761141c565b61148260a08301866113e8565b61148f60c0830185611401565b61149c60e0830184611401565b9998505050505050505050565b60006020820190506114be6000830184611401565b92915050565b600080fd5b6114d2816113f7565b81146114dd57600080fd5b50565b6000813590506114ef816114c9565b92915050565b60006020828403121561150b5761150a6114c4565b5b6000611519848285016114e0565b91505092915050565b61152b816113d6565b811461153657600080fd5b50565b60008135905061154881611522565b92915050565b600060208284031215611564576115636114c4565b5b600061157284828501611539565b91505092915050565b6000602082019050611590600083018461141c565b92915050565b600081519050919050565b600082825260208201905092915050565b60005b838110156115d05780820151818401526020810190506115b5565b60008484015250505050565b6000601f19601f8301169050919050565b60006115f882611596565b61160281856115a1565b93506116128185602086016115b2565b61161b816115dc565b840191505092915050565b600081519050919050565b600082825260208201905092915050565b6000819050602082019050919050565b61165b8161139a565b82525050565b600061166d8383611652565b60208301905092915050565b6000602082019050919050565b600061169182611626565b61169b8185611631565b93506116a683611642565b8060005b838110156116d75781516116be8882611661565b97506116c983611679565b9250506001810190506116aa565b5085935050505092915050565b600060608201905081810360008301526116fe81866115ed565b905061170d6020830185611401565b818103604083015261171f8184611686565b9050949350505050565b600060208201905061173e60008301846113e8565b92915050565b6000604082019050818103600083015261175e81856115ed565b905061176d6020830184611401565b9392505050565b6000602082019050818103600083015261178e81846115ed565b905092915050565b7f566f74696e672048617320456e64656400000000000000000000000000000000600082015250565b60006117cc6010836115a1565b91506117d782611796565b602082019050919050565b600060208201905081810360008301526117fb816117bf565b9050919050565b7f4e487b7100000000000000000000000000000000000000000000000000000000600052601160045260246000fd5b600061183c826113f7565b9150611847836113f7565b925082820190508082111561185f5761185e611802565b5b92915050565b7f4e487b7100000000000000000000000000000000000000000000000000000000600052603260045260246000fd5b7f4e487b7100000000000000000000000000000000000000000000000000000000600052602260045260246000fd5b600060028204905060018216806118db57607f821691505b6020821081036118ee576118ed611894565b5b50919050565b600081549050611903816118c3565b9050919050565b7f4e487b7100000000000000000000000000000000000000000000000000000000600052604160045260246000fd5b60008190508160005260206000209050919050565b60008190508160005260206000209050919050565b60006020601f8301049050919050565b600082821b905092915050565b6000600883026119b07fffffffffffffffffffffffffffffffffffffffffffffffffffffffffffffffff82611973565b6119ba8683611973565b95508019841693508086168417925050509392505050565b6000819050919050565b60006119f76119f26119ed846113f7565b6119d2565b6113f7565b9050919050565b6000819050919050565b611a11836119dc565b611a25611a1d826119fe565b848454611980565b825550505050565b600090565b611a3a611a2d565b611a45818484611a08565b505050565b5b81811015611a6957611a5e600082611a32565b600181019050611a4b565b5050565b601f821115611aae57611a7f81611939565b611a8884611963565b81016020851015611a97578190505b611aab611aa385611963565b830182611a4a565b50505b505050565b600082821c905092915050565b6000611ad160001984600802611ab3565b1980831691505092915050565b6000611aea8383611ac0565b9150826002028217905092915050565b818103611b08575050611be0565b611b11826118f4565b67ffffffffffffffff811115611b2a57611b2961190a565b5b611b3482546118c3565b611b3f828285611a6d565b6000601f831160018114611b6e5760008415611b5c578287015490505b611b668582611ade565b865550611bd9565b601f198416611b7c8761194e565b9650611b8786611939565b60005b82811015611baf57848901548255600182019150600185019450602081019050611b8a565b86831015611bcc5784890154611bc8601f891682611ac0565b8355505b6001600288020188555050505b5050505050505b565b6000819050919050565b611bfd611bf8826113f7565b611be2565b82525050565b600081549050919050565b600081905092915050565b60008190508160005260206000209050919050565b611c378161139a565b82525050565b6000611c498383611c2e565b60208301905092915050565b60008160001c9050919050565b600073ffffffffffffffffffffffffffffffffffffffff82169050919050565b6000611c95611c9083611c55565b611c62565b9050919050565b6000611ca88254611c82565b9050919050565b6000600182019050919050565b6000611cc782611c03565b611cd18185611c0e565b9350611cdc83611c19565b8060005b83811015611d1457611cf182611c9c565b611cfb8882611c3d565b9750611d0683611caf565b925050600181019050611ce0565b5085935050505092915050565b6000611d2d8285611bec565b602082019150611d3d8284611cbc565b91508190509392505050565b7f4e487b7100000000000000000000000000000000000000000000000000000000600052601260045260246000fd5b6000611d83826113f7565b9150611d8e836113f7565b925082611d9e57611d9d611d49565b5b828206905092915050565b600081905092915050565b50565b6000611dc4600083611da9565b9150611dcf82611db4565b600082019050919050565b6000611de582611db7565b9150819050919050565b7f4661696c656420746f2073656e64204574686572000000000000000000000000600082015250565b6000611e256014836115a1565b9150611e3082611def565b602082019050919050565b60006020820190508181036000830152611e5481611e18565b9050919050565b7f4d616e616765722043616e204e6f7420566f7465000000000000000000000000600082015250565b6000611e916014836115a1565b9150611e9c82611e5b565b602082019050919050565b60006020820190508181036000830152611ec081611e84565b9050919050565b7f596f752043616e6e6f742054616b65205061727420696e205468697320566f7460008201527f6500000000000000000000000000000000000000000000000000000000000000602082015250565b6000611f236021836115a1565b9150611f2e82611ec7565b604082019050919050565b60006020820190508181036000830152611f5281611f16565b9050919050565b7f596f752043616e204f6e6c7920566f7465204f6e636500000000000000000000600082015250565b6000611f8f6016836115a1565b9150611f9a82611f59565b602082019050919050565b60006020820190508181036000830152611fbe81611f82565b9050919050565b7f596f752043686f7365206174205468652057726f6e672054696d650000000000600082015250565b6000611ffb601b836115a1565b915061200682611fc5565b602082019050919050565b6000602082019050818103600083015261202a81611fee565b9050919050565b600061203c826113f7565b91507fffffffffffffffffffffffffffffffffffffffffffffffffffffffffffffffff820361206e5761206d611802565b5b600182019050919050565b7f4d616e616765722043616e6e6f7420426520566f746572730000000000000000600082015250565b60006120af6018836115a1565b91506120ba82612079565b602082019050919050565b600060208201905081810360008301526120de816120a2565b9050919050565b7f54686973204164647265737320697320416c7265616479206120566f74657220600082015250565b600061211b6020836115a1565b9150612126826120e5565b602082019050919050565b6000602082019050818103600083015261214a8161210e565b9050919050565b600061215c826113f7565b9150612167836113f7565b925082820390508181111561217f5761217e611802565b5b9291505056fea26469706673582212204cadf9af7c6a933349b09268e19b59804f16b6bf69b723554e248463056fc58064736f6c63430008120033a26469706673582212205bc8f4dbd62031873720da8730203e0ac3aa179e3d97fc4624449989cb3f491c64736f6c63430008120033","opcodes":"PUSH1 0x80 PUSH1 0x40 MSTORE PUSH7 0x470DE4DF820000 PUSH1 0x2 SSTORE CALLVALUE DUP1 ISZERO PUSH2 0x1B JUMPI PUSH1 0x0 DUP1 REVERT JUMPDEST POP CALLER PUSH1 0x1 PUSH1 0x0 PUSH2 0x100 EXP DUP2 SLOAD DUP2 PUSH20 0xFFFFFFFFFFFFFFFFFFFFFFFFFFFFFFFFFFFFFFFF MUL NOT AND SWAP1 DUP4 PUSH20 0xFFFFFFFFFFFFFFFFFFFFFFFFFFFFFFFFFFFFFFFF AND MUL OR SWAP1 SSTORE POP PUSH2 0x3453 DUP1 PUSH2 0x6C PUSH1 0x0 CODECOPY PUSH1 0x0 RETURN INVALID PUSH1 0x80 PUSH1 0x40 MSTORE PUSH1 0x4 CALLDATASIZE LT PUSH3 0x50 JUMPI PUSH1 0x0 CALLDATALOAD PUSH1 0xE0 SHR DUP1 PUSH4 0x2D05D3F EQ PUSH3 0x55 JUMPI DUP1 PUSH4 0x8DEE7F4 EQ PUSH3 0x85 JUMPI DUP1 PUSH4 0x298F37AB EQ PUSH3 0xA5 JUMPI DUP1 PUSH4 0x3E04B578 EQ PUSH3 0xE9 JUMPI DUP1 PUSH4 0x51C69939 EQ PUSH3 0x119 JUMPI JUMPDEST PUSH1 0x0 DUP1 REVERT JUMPDEST CALLVALUE DUP1 ISZERO PUSH3 0x62 JUMPI PUSH1 0x0 DUP1 REVERT JUMPDEST POP PUSH3 0x6D PUSH3 0x149 JUMP JUMPDEST PUSH1 0x40 MLOAD PUSH3 0x7C SWAP2 SWAP1 PUSH3 0x407 JUMP JUMPDEST PUSH1 0x40 MLOAD DUP1 SWAP2 SUB SWAP1 RETURN JUMPDEST PUSH3 0xA3 PUSH1 0x4 DUP1 CALLDATASIZE SUB DUP2 ADD SWAP1 PUSH3 0x9D SWAP2 SWAP1 PUSH3 0x464 JUMP JUMPDEST PUSH3 0x16F JUMP JUMPDEST STOP JUMPDEST CALLVALUE DUP1 ISZERO PUSH3 0xB2 JUMPI PUSH1 0x0 DUP1 REVERT JUMPDEST POP PUSH3 0xD1 PUSH1 0x4 DUP1 CALLDATASIZE SUB DUP2 ADD SWAP1 PUSH3 0xCB SWAP2 SWAP1 PUSH3 0x4C0 JUMP JUMPDEST PUSH3 0x2DE JUMP JUMPDEST PUSH1 0x40 MLOAD PUSH3 0xE0 SWAP2 SWAP1 PUSH3 0x517 JUMP JUMPDEST PUSH1 0x40 MLOAD DUP1 SWAP2 SUB SWAP1 RETURN JUMPDEST CALLVALUE DUP1 ISZERO PUSH3 0xF6 JUMPI PUSH1 0x0 DUP1 REVERT JUMPDEST POP PUSH3 0x101 PUSH3 0x31E JUMP JUMPDEST PUSH1 0x40 MLOAD PUSH3 0x110 SWAP2 SWAP1 PUSH3 0x602 JUMP JUMPDEST PUSH1 0x40 MLOAD DUP1 SWAP2 SUB SWAP1 RETURN JUMPDEST CALLVALUE DUP1 ISZERO PUSH3 0x126 JUMPI PUSH1 0x0 DUP1 REVERT JUMPDEST POP PUSH3 0x131 PUSH3 0x3AE JUMP JUMPDEST PUSH1 0x40 MLOAD PUSH3 0x140 SWAP2 SWAP1 PUSH3 0x637 JUMP JUMPDEST PUSH1 0x40 MLOAD DUP1 SWAP2 SUB SWAP1 RETURN JUMPDEST PUSH1 0x1 PUSH1 0x0 SWAP1 SLOAD SWAP1 PUSH2 0x100 EXP SWAP1 DIV PUSH20 0xFFFFFFFFFFFFFFFFFFFFFFFFFFFFFFFFFFFFFFFF AND DUP2 JUMP JUMPDEST PUSH1 0x2 SLOAD CALLVALUE GT PUSH3 0x17E JUMPI PUSH1 0x0 DUP1 REVERT JUMPDEST PUSH1 0x0 DUP4 DUP4 DUP4 CALLER PUSH1 0x40 MLOAD PUSH3 0x192 SWAP1 PUSH3 0x3B4 JUMP JUMPDEST PUSH3 0x1A1 SWAP5 SWAP4 SWAP3 SWAP2 SWAP1 PUSH3 0x654 JUMP JUMPDEST PUSH1 0x40 MLOAD DUP1 SWAP2 SUB SWAP1 PUSH1 0x0 CREATE DUP1 ISZERO DUP1 ISZERO PUSH3 0x1BE JUMPI RETURNDATASIZE PUSH1 0x0 DUP1 RETURNDATACOPY RETURNDATASIZE PUSH1 0x0 REVERT JUMPDEST POP SWAP1 POP PUSH1 0x0 DUP2 PUSH20 0xFFFFFFFFFFFFFFFFFFFFFFFFFFFFFFFFFFFFFFFF AND CALLVALUE PUSH1 0x40 MLOAD PUSH3 0x1E9 SWAP1 PUSH3 0x6D6 JUMP JUMPDEST PUSH1 0x0 PUSH1 0x40 MLOAD DUP1 DUP4 SUB DUP2 DUP6 DUP8 GAS CALL SWAP3 POP POP POP RETURNDATASIZE DUP1 PUSH1 0x0 DUP2 EQ PUSH3 0x228 JUMPI PUSH1 0x40 MLOAD SWAP2 POP PUSH1 0x1F NOT PUSH1 0x3F RETURNDATASIZE ADD AND DUP3 ADD PUSH1 0x40 MSTORE RETURNDATASIZE DUP3 MSTORE RETURNDATASIZE PUSH1 0x0 PUSH1 0x20 DUP5 ADD RETURNDATACOPY PUSH3 0x22D JUMP JUMPDEST PUSH1 0x60 SWAP2 POP JUMPDEST POP POP SWAP1 POP DUP1 PUSH3 0x274 JUMPI PUSH1 0x40 MLOAD PUSH32 0x8C379A000000000000000000000000000000000000000000000000000000000 DUP2 MSTORE PUSH1 0x4 ADD PUSH3 0x26B SWAP1 PUSH3 0x74E JUMP JUMPDEST PUSH1 0x40 MLOAD DUP1 SWAP2 SUB SWAP1 REVERT JUMPDEST PUSH1 0x0 DUP3 SWAP1 DUP1 PUSH1 0x1 DUP2 SLOAD ADD DUP1 DUP3 SSTORE DUP1 SWAP2 POP POP PUSH1 0x1 SWAP1 SUB SWAP1 PUSH1 0x0 MSTORE PUSH1 0x20 PUSH1 0x0 KECCAK256 ADD PUSH1 0x0 SWAP1 SWAP2 SWAP1 SWAP2 SWAP1 SWAP2 PUSH2 0x100 EXP DUP2 SLOAD DUP2 PUSH20 0xFFFFFFFFFFFFFFFFFFFFFFFFFFFFFFFFFFFFFFFF MUL NOT AND SWAP1 DUP4 PUSH20 0xFFFFFFFFFFFFFFFFFFFFFFFFFFFFFFFFFFFFFFFF AND MUL OR SWAP1 SSTORE POP POP POP POP POP POP JUMP JUMPDEST PUSH1 0x0 DUP2 DUP2 SLOAD DUP2 LT PUSH3 0x2EF JUMPI PUSH1 0x0 DUP1 REVERT JUMPDEST SWAP1 PUSH1 0x0 MSTORE PUSH1 0x20 PUSH1 0x0 KECCAK256 ADD PUSH1 0x0 SWAP2 POP SLOAD SWAP1 PUSH2 0x100 EXP SWAP1 DIV PUSH20 0xFFFFFFFFFFFFFFFFFFFFFFFFFFFFFFFFFFFFFFFF AND DUP2 JUMP JUMPDEST PUSH1 0x60 PUSH1 0x0 DUP1 SLOAD DUP1 PUSH1 0x20 MUL PUSH1 0x20 ADD PUSH1 0x40 MLOAD SWAP1 DUP2 ADD PUSH1 0x40 MSTORE DUP1 SWAP3 SWAP2 SWAP1 DUP2 DUP2 MSTORE PUSH1 0x20 ADD DUP3 DUP1 SLOAD DUP1 ISZERO PUSH3 0x3A4 JUMPI PUSH1 0x20 MUL DUP3 ADD SWAP2 SWAP1 PUSH1 0x0 MSTORE PUSH1 0x20 PUSH1 0x0 KECCAK256 SWAP1 JUMPDEST DUP2 PUSH1 0x0 SWAP1 SLOAD SWAP1 PUSH2 0x100 EXP SWAP1 DIV PUSH20 0xFFFFFFFFFFFFFFFFFFFFFFFFFFFFFFFFFFFFFFFF AND PUSH20 0xFFFFFFFFFFFFFFFFFFFFFFFFFFFFFFFFFFFFFFFF AND DUP2 MSTORE PUSH1 0x20 ADD SWAP1 PUSH1 0x1 ADD SWAP1 DUP1 DUP4 GT PUSH3 0x359 JUMPI JUMPDEST POP POP POP POP POP SWAP1 POP SWAP1 JUMP JUMPDEST PUSH1 0x2 SLOAD DUP2 JUMP JUMPDEST PUSH2 0x2CAD DUP1 PUSH3 0x771 DUP4 CODECOPY ADD SWAP1 JUMP JUMPDEST PUSH1 0x0 PUSH20 0xFFFFFFFFFFFFFFFFFFFFFFFFFFFFFFFFFFFFFFFF DUP3 AND SWAP1 POP SWAP2 SWAP1 POP JUMP JUMPDEST PUSH1 0x0 PUSH3 0x3EF DUP3 PUSH3 0x3C2 JUMP JUMPDEST SWAP1 POP SWAP2 SWAP1 POP JUMP JUMPDEST PUSH3 0x401 DUP2 PUSH3 0x3E2 JUMP JUMPDEST DUP3 MSTORE POP POP JUMP JUMPDEST PUSH1 0x0 PUSH1 0x20 DUP3 ADD SWAP1 POP PUSH3 0x41E PUSH1 0x0 DUP4 ADD DUP5 PUSH3 0x3F6 JUMP JUMPDEST SWAP3 SWAP2 POP POP JUMP JUMPDEST PUSH1 0x0 DUP1 REVERT JUMPDEST PUSH1 0x0 DUP2 SWAP1 POP SWAP2 SWAP1 POP JUMP JUMPDEST PUSH3 0x43E DUP2 PUSH3 0x429 JUMP JUMPDEST DUP2 EQ PUSH3 0x44A JUMPI PUSH1 0x0 DUP1 REVERT JUMPDEST POP JUMP JUMPDEST PUSH1 0x0 DUP2 CALLDATALOAD SWAP1 POP PUSH3 0x45E DUP2 PUSH3 0x433 JUMP JUMPDEST SWAP3 SWAP2 POP POP JUMP JUMPDEST PUSH1 0x0 DUP1 PUSH1 0x0 PUSH1 0x60 DUP5 DUP7 SUB SLT ISZERO PUSH3 0x480 JUMPI PUSH3 0x47F PUSH3 0x424 JUMP JUMPDEST JUMPDEST PUSH1 0x0 PUSH3 0x490 DUP7 DUP3 DUP8 ADD PUSH3 0x44D JUMP JUMPDEST SWAP4 POP POP PUSH1 0x20 PUSH3 0x4A3 DUP7 DUP3 DUP8 ADD PUSH3 0x44D JUMP JUMPDEST SWAP3 POP POP PUSH1 0x40 PUSH3 0x4B6 DUP7 DUP3 DUP8 ADD PUSH3 0x44D JUMP JUMPDEST SWAP2 POP POP SWAP3 POP SWAP3 POP SWAP3 JUMP JUMPDEST PUSH1 0x0 PUSH1 0x20 DUP3 DUP5 SUB SLT ISZERO PUSH3 0x4D9 JUMPI PUSH3 0x4D8 PUSH3 0x424 JUMP JUMPDEST JUMPDEST PUSH1 0x0 PUSH3 0x4E9 DUP5 DUP3 DUP6 ADD PUSH3 0x44D JUMP JUMPDEST SWAP2 POP POP SWAP3 SWAP2 POP POP JUMP JUMPDEST PUSH1 0x0 PUSH3 0x4FF DUP3 PUSH3 0x3C2 JUMP JUMPDEST SWAP1 POP SWAP2 SWAP1 POP JUMP JUMPDEST PUSH3 0x511 DUP2 PUSH3 0x4F2 JUMP JUMPDEST DUP3 MSTORE POP POP JUMP JUMPDEST PUSH1 0x0 PUSH1 0x20 DUP3 ADD SWAP1 POP PUSH3 0x52E PUSH1 0x0 DUP4 ADD DUP5 PUSH3 0x506 JUMP JUMPDEST SWAP3 SWAP2 POP POP JUMP JUMPDEST PUSH1 0x0 DUP2 MLOAD SWAP1 POP SWAP2 SWAP1 POP JUMP JUMPDEST PUSH1 0x0 DUP3 DUP3 MSTORE PUSH1 0x20 DUP3 ADD SWAP1 POP SWAP3 SWAP2 POP POP JUMP JUMPDEST PUSH1 0x0 DUP2 SWAP1 POP PUSH1 0x20 DUP3 ADD SWAP1 POP SWAP2 SWAP1 POP JUMP JUMPDEST PUSH3 0x56B DUP2 PUSH3 0x4F2 JUMP JUMPDEST DUP3 MSTORE POP POP JUMP JUMPDEST PUSH1 0x0 PUSH3 0x57F DUP4 DUP4 PUSH3 0x560 JUMP JUMPDEST PUSH1 0x20 DUP4 ADD SWAP1 POP SWAP3 SWAP2 POP POP JUMP JUMPDEST PUSH1 0x0 PUSH1 0x20 DUP3 ADD SWAP1 POP SWAP2 SWAP1 POP JUMP JUMPDEST PUSH1 0x0 PUSH3 0x5A5 DUP3 PUSH3 0x534 JUMP JUMPDEST PUSH3 0x5B1 DUP2 DUP6 PUSH3 0x53F JUMP JUMPDEST SWAP4 POP PUSH3 0x5BE DUP4 PUSH3 0x550 JUMP JUMPDEST DUP1 PUSH1 0x0 JUMPDEST DUP4 DUP2 LT ISZERO PUSH3 0x5F5 JUMPI DUP2 MLOAD PUSH3 0x5D9 DUP9 DUP3 PUSH3 0x571 JUMP JUMPDEST SWAP8 POP PUSH3 0x5E6 DUP4 PUSH3 0x58B JUMP JUMPDEST SWAP3 POP POP PUSH1 0x1 DUP2 ADD SWAP1 POP PUSH3 0x5C2 JUMP JUMPDEST POP DUP6 SWAP4 POP POP POP POP SWAP3 SWAP2 POP POP JUMP JUMPDEST PUSH1 0x0 PUSH1 0x20 DUP3 ADD SWAP1 POP DUP2 DUP2 SUB PUSH1 0x0 DUP4 ADD MSTORE PUSH3 0x61E DUP2 DUP5 PUSH3 0x598 JUMP JUMPDEST SWAP1 POP SWAP3 SWAP2 POP POP JUMP JUMPDEST PUSH3 0x631 DUP2 PUSH3 0x429 JUMP JUMPDEST DUP3 MSTORE POP POP JUMP JUMPDEST PUSH1 0x0 PUSH1 0x20 DUP3 ADD SWAP1 POP PUSH3 0x64E PUSH1 0x0 DUP4 ADD DUP5 PUSH3 0x626 JUMP JUMPDEST SWAP3 SWAP2 POP POP JUMP JUMPDEST PUSH1 0x0 PUSH1 0x80 DUP3 ADD SWAP1 POP PUSH3 0x66B PUSH1 0x0 DUP4 ADD DUP8 PUSH3 0x626 JUMP JUMPDEST PUSH3 0x67A PUSH1 0x20 DUP4 ADD DUP7 PUSH3 0x626 JUMP JUMPDEST PUSH3 0x689 PUSH1 0x40 DUP4 ADD DUP6 PUSH3 0x626 JUMP JUMPDEST PUSH3 0x698 PUSH1 0x60 DUP4 ADD DUP5 PUSH3 0x3F6 JUMP JUMPDEST SWAP6 SWAP5 POP POP POP POP POP JUMP JUMPDEST PUSH1 0x0 DUP2 SWAP1 POP SWAP3 SWAP2 POP POP JUMP JUMPDEST POP JUMP JUMPDEST PUSH1 0x0 PUSH3 0x6BE PUSH1 0x0 DUP4 PUSH3 0x6A1 JUMP JUMPDEST SWAP2 POP PUSH3 0x6CB DUP3 PUSH3 0x6AC JUMP JUMPDEST PUSH1 0x0 DUP3 ADD SWAP1 POP SWAP2 SWAP1 POP JUMP JUMPDEST PUSH1 0x0 PUSH3 0x6E3 DUP3 PUSH3 0x6AF JUMP JUMPDEST SWAP2 POP DUP2 SWAP1 POP SWAP2 SWAP1 POP JUMP JUMPDEST PUSH1 0x0 DUP3 DUP3 MSTORE PUSH1 0x20 DUP3 ADD SWAP1 POP SWAP3 SWAP2 POP POP JUMP JUMPDEST PUSH32 0x4661696C656420746F2073656E64204574686572000000000000000000000000 PUSH1 0x0 DUP3 ADD MSTORE POP JUMP JUMPDEST PUSH1 0x0 PUSH3 0x736 PUSH1 0x14 DUP4 PUSH3 0x6ED JUMP JUMPDEST SWAP2 POP PUSH3 0x743 DUP3 PUSH3 0x6FE JUMP JUMPDEST PUSH1 0x20 DUP3 ADD SWAP1 POP SWAP2 SWAP1 POP JUMP JUMPDEST PUSH1 0x0 PUSH1 0x20 DUP3 ADD SWAP1 POP DUP2 DUP2 SUB PUSH1 0x0 DUP4 ADD MSTORE PUSH3 0x769 DUP2 PUSH3 0x727 JUMP JUMPDEST SWAP1 POP SWAP2 SWAP1 POP JUMP INVALID PUSH1 0x80 PUSH1 0x40 MSTORE PUSH7 0x2386F26FC10000 PUSH1 0x6 SSTORE PUSH1 0x40 MLOAD PUSH3 0x2CAD CODESIZE SUB DUP1 PUSH3 0x2CAD DUP4 CODECOPY DUP2 DUP2 ADD PUSH1 0x40 MSTORE DUP2 ADD SWAP1 PUSH3 0x34 SWAP2 SWAP1 PUSH3 0x475 JUMP JUMPDEST DUP1 PUSH1 0x0 DUP1 PUSH2 0x100 EXP DUP2 SLOAD DUP2 PUSH20 0xFFFFFFFFFFFFFFFFFFFFFFFFFFFFFFFFFFFFFFFF MUL NOT AND SWAP1 DUP4 PUSH20 0xFFFFFFFFFFFFFFFFFFFFFFFFFFFFFFFFFFFFFFFF AND MUL OR SWAP1 SSTORE POP DUP4 PUSH1 0x3 DUP2 SWAP1 SSTORE POP DUP3 PUSH1 0x4 DUP2 SWAP1 SSTORE POP DUP2 PUSH1 0x5 DUP2 SWAP1 SSTORE POP PUSH1 0x0 PUSH1 0x1 SWAP1 POP JUMPDEST PUSH1 0x3 SLOAD DUP2 GT PUSH3 0x18C JUMPI PUSH1 0x0 PUSH1 0xC PUSH1 0x1 DUP2 PUSH1 0x1 DUP2 SLOAD ADD DUP1 DUP3 SSTORE DUP1 SWAP2 POP POP SUB SWAP1 PUSH1 0x0 MSTORE PUSH1 0x20 PUSH1 0x0 KECCAK256 SWAP1 PUSH1 0x3 MUL ADD SWAP1 POP PUSH3 0xCF DUP3 PUSH3 0x197 PUSH1 0x20 SHL PUSH1 0x20 SHR JUMP JUMPDEST PUSH1 0x40 MLOAD PUSH1 0x20 ADD PUSH3 0xE1 SWAP2 SWAP1 PUSH3 0x5B0 JUMP JUMPDEST PUSH1 0x40 MLOAD PUSH1 0x20 DUP2 DUP4 SUB SUB DUP2 MSTORE SWAP1 PUSH1 0x40 MSTORE DUP2 PUSH1 0x0 ADD SWAP1 DUP2 PUSH3 0x102 SWAP2 SWAP1 PUSH3 0x83B JUMP JUMPDEST POP PUSH1 0x0 DUP2 PUSH1 0x1 ADD DUP2 SWAP1 SSTORE POP PUSH1 0x0 PUSH8 0xFFFFFFFFFFFFFFFF DUP2 GT ISZERO PUSH3 0x12B JUMPI PUSH3 0x12A PUSH3 0x5D6 JUMP JUMPDEST JUMPDEST PUSH1 0x40 MLOAD SWAP1 DUP1 DUP3 MSTORE DUP1 PUSH1 0x20 MUL PUSH1 0x20 ADD DUP3 ADD PUSH1 0x40 MSTORE DUP1 ISZERO PUSH3 0x15A JUMPI DUP2 PUSH1 0x20 ADD PUSH1 0x20 DUP3 MUL DUP1 CALLDATASIZE DUP4 CALLDATACOPY DUP1 DUP3 ADD SWAP2 POP POP SWAP1 POP JUMPDEST POP DUP2 PUSH1 0x2 ADD SWAP1 DUP1 MLOAD SWAP1 PUSH1 0x20 ADD SWAP1 PUSH3 0x174 SWAP3 SWAP2 SWAP1 PUSH3 0x322 JUMP JUMPDEST POP POP DUP1 DUP1 PUSH3 0x183 SWAP1 PUSH3 0x951 JUMP JUMPDEST SWAP2 POP POP PUSH3 0x90 JUMP JUMPDEST POP POP POP POP POP PUSH3 0xAE2 JUMP JUMPDEST PUSH1 0x60 PUSH1 0x0 DUP3 SUB PUSH3 0x1E0 JUMPI PUSH1 0x40 MLOAD DUP1 PUSH1 0x40 ADD PUSH1 0x40 MSTORE DUP1 PUSH1 0x1 DUP2 MSTORE PUSH1 0x20 ADD PUSH32 0x3000000000000000000000000000000000000000000000000000000000000000 DUP2 MSTORE POP SWAP1 POP PUSH3 0x31D JUMP JUMPDEST PUSH1 0x0 DUP3 SWAP1 POP PUSH1 0x0 JUMPDEST PUSH1 0x0 DUP3 EQ PUSH3 0x218 JUMPI DUP1 DUP1 PUSH3 0x1FE SWAP1 PUSH3 0x951 JUMP JUMPDEST SWAP2 POP POP PUSH1 0xA DUP3 PUSH3 0x210 SWAP2 SWAP1 PUSH3 0x9CD JUMP JUMPDEST SWAP2 POP PUSH3 0x1E8 JUMP JUMPDEST PUSH1 0x0 DUP2 PUSH8 0xFFFFFFFFFFFFFFFF DUP2 GT ISZERO PUSH3 0x237 JUMPI PUSH3 0x236 PUSH3 0x5D6 JUMP JUMPDEST JUMPDEST PUSH1 0x40 MLOAD SWAP1 DUP1 DUP3 MSTORE DUP1 PUSH1 0x1F ADD PUSH1 0x1F NOT AND PUSH1 0x20 ADD DUP3 ADD PUSH1 0x40 MSTORE DUP1 ISZERO PUSH3 0x26A JUMPI DUP2 PUSH1 0x20 ADD PUSH1 0x1 DUP3 MUL DUP1 CALLDATASIZE DUP4 CALLDATACOPY DUP1 DUP3 ADD SWAP2 POP POP SWAP1 POP JUMPDEST POP SWAP1 POP PUSH1 0x0 DUP3 SWAP1 POP JUMPDEST PUSH1 0x0 DUP7 EQ PUSH3 0x315 JUMPI PUSH1 0x1 DUP2 PUSH3 0x28B SWAP2 SWAP1 PUSH3 0xA05 JUMP JUMPDEST SWAP1 POP PUSH1 0x0 PUSH1 0xA DUP8 PUSH3 0x29E SWAP2 SWAP1 PUSH3 0xA40 JUMP JUMPDEST PUSH1 0x30 PUSH3 0x2AC SWAP2 SWAP1 PUSH3 0xA78 JUMP JUMPDEST SWAP1 POP PUSH1 0x0 DUP2 PUSH1 0xF8 SHL SWAP1 POP DUP1 DUP5 DUP5 DUP2 MLOAD DUP2 LT PUSH3 0x2CD JUMPI PUSH3 0x2CC PUSH3 0xAB3 JUMP JUMPDEST JUMPDEST PUSH1 0x20 ADD ADD SWAP1 PUSH31 0xFFFFFFFFFFFFFFFFFFFFFFFFFFFFFFFFFFFFFFFFFFFFFFFFFFFFFFFFFFFFFF NOT AND SWAP1 DUP2 PUSH1 0x0 BYTE SWAP1 MSTORE8 POP PUSH1 0xA DUP9 PUSH3 0x30B SWAP2 SWAP1 PUSH3 0x9CD JUMP JUMPDEST SWAP8 POP POP POP PUSH3 0x273 JUMP JUMPDEST DUP2 SWAP5 POP POP POP POP POP JUMPDEST SWAP2 SWAP1 POP JUMP JUMPDEST DUP3 DUP1 SLOAD DUP3 DUP3 SSTORE SWAP1 PUSH1 0x0 MSTORE PUSH1 0x20 PUSH1 0x0 KECCAK256 SWAP1 DUP2 ADD SWAP3 DUP3 ISZERO PUSH3 0x39E JUMPI SWAP2 PUSH1 0x20 MUL DUP3 ADD JUMPDEST DUP3 DUP2 GT ISZERO PUSH3 0x39D JUMPI DUP3 MLOAD DUP3 PUSH1 0x0 PUSH2 0x100 EXP DUP2 SLOAD DUP2 PUSH20 0xFFFFFFFFFFFFFFFFFFFFFFFFFFFFFFFFFFFFFFFF MUL NOT AND SWAP1 DUP4 PUSH20 0xFFFFFFFFFFFFFFFFFFFFFFFFFFFFFFFFFFFFFFFF AND MUL OR SWAP1 SSTORE POP SWAP2 PUSH1 0x20 ADD SWAP2 SWAP1 PUSH1 0x1 ADD SWAP1 PUSH3 0x343 JUMP JUMPDEST JUMPDEST POP SWAP1 POP PUSH3 0x3AD SWAP2 SWAP1 PUSH3 0x3B1 JUMP JUMPDEST POP SWAP1 JUMP JUMPDEST JUMPDEST DUP1 DUP3 GT ISZERO PUSH3 0x3CC JUMPI PUSH1 0x0 DUP2 PUSH1 0x0 SWAP1 SSTORE POP PUSH1 0x1 ADD PUSH3 0x3B2 JUMP JUMPDEST POP SWAP1 JUMP JUMPDEST PUSH1 0x0 DUP1 REVERT JUMPDEST PUSH1 0x0 DUP2 SWAP1 POP SWAP2 SWAP1 POP JUMP JUMPDEST PUSH3 0x3EA DUP2 PUSH3 0x3D5 JUMP JUMPDEST DUP2 EQ PUSH3 0x3F6 JUMPI PUSH1 0x0 DUP1 REVERT JUMPDEST POP JUMP JUMPDEST PUSH1 0x0 DUP2 MLOAD SWAP1 POP PUSH3 0x40A DUP2 PUSH3 0x3DF JUMP JUMPDEST SWAP3 SWAP2 POP POP JUMP JUMPDEST PUSH1 0x0 PUSH20 0xFFFFFFFFFFFFFFFFFFFFFFFFFFFFFFFFFFFFFFFF DUP3 AND SWAP1 POP SWAP2 SWAP1 POP JUMP JUMPDEST PUSH1 0x0 PUSH3 0x43D DUP3 PUSH3 0x410 JUMP JUMPDEST SWAP1 POP SWAP2 SWAP1 POP JUMP JUMPDEST PUSH3 0x44F DUP2 PUSH3 0x430 JUMP JUMPDEST DUP2 EQ PUSH3 0x45B JUMPI PUSH1 0x0 DUP1 REVERT JUMPDEST POP JUMP JUMPDEST PUSH1 0x0 DUP2 MLOAD SWAP1 POP PUSH3 0x46F DUP2 PUSH3 0x444 JUMP JUMPDEST SWAP3 SWAP2 POP POP JUMP JUMPDEST PUSH1 0x0 DUP1 PUSH1 0x0 DUP1 PUSH1 0x80 DUP6 DUP8 SUB SLT ISZERO PUSH3 0x492 JUMPI PUSH3 0x491 PUSH3 0x3D0 JUMP JUMPDEST JUMPDEST PUSH1 0x0 PUSH3 0x4A2 DUP8 DUP3 DUP9 ADD PUSH3 0x3F9 JUMP JUMPDEST SWAP5 POP POP PUSH1 0x20 PUSH3 0x4B5 DUP8 DUP3 DUP9 ADD PUSH3 0x3F9 JUMP JUMPDEST SWAP4 POP POP PUSH1 0x40 PUSH3 0x4C8 DUP8 DUP3 DUP9 ADD PUSH3 0x3F9 JUMP JUMPDEST SWAP3 POP POP PUSH1 0x60 PUSH3 0x4DB DUP8 DUP3 DUP9 ADD PUSH3 0x45E JUMP JUMPDEST SWAP2 POP POP SWAP3 SWAP6 SWAP2 SWAP5 POP SWAP3 POP JUMP JUMPDEST PUSH1 0x0 DUP2 SWAP1 POP SWAP3 SWAP2 POP POP JUMP JUMPDEST PUSH32 0x50696C6968616E20000000000000000000000000000000000000000000000000 PUSH1 0x0 DUP3 ADD MSTORE POP JUMP JUMPDEST PUSH1 0x0 PUSH3 0x52A PUSH1 0x8 DUP4 PUSH3 0x4E7 JUMP JUMPDEST SWAP2 POP PUSH3 0x537 DUP3 PUSH3 0x4F2 JUMP JUMPDEST PUSH1 0x8 DUP3 ADD SWAP1 POP SWAP2 SWAP1 POP JUMP JUMPDEST PUSH1 0x0 DUP2 MLOAD SWAP1 POP SWAP2 SWAP1 POP JUMP JUMPDEST PUSH1 0x0 JUMPDEST DUP4 DUP2 LT ISZERO PUSH3 0x56D JUMPI DUP1 DUP3 ADD MLOAD DUP2 DUP5 ADD MSTORE PUSH1 0x20 DUP2 ADD SWAP1 POP PUSH3 0x550 JUMP JUMPDEST PUSH1 0x0 DUP5 DUP5 ADD MSTORE POP POP POP POP JUMP JUMPDEST PUSH1 0x0 PUSH3 0x586 DUP3 PUSH3 0x542 JUMP JUMPDEST PUSH3 0x592 DUP2 DUP6 PUSH3 0x4E7 JUMP JUMPDEST SWAP4 POP PUSH3 0x5A4 DUP2 DUP6 PUSH1 0x20 DUP7 ADD PUSH3 0x54D JUMP JUMPDEST DUP1 DUP5 ADD SWAP2 POP POP SWAP3 SWAP2 POP POP JUMP JUMPDEST PUSH1 0x0 PUSH3 0x5BD DUP3 PUSH3 0x51B JUMP JUMPDEST SWAP2 POP PUSH3 0x5CB DUP3 DUP5 PUSH3 0x579 JUMP JUMPDEST SWAP2 POP DUP2 SWAP1 POP SWAP3 SWAP2 POP POP JUMP JUMPDEST PUSH32 0x4E487B7100000000000000000000000000000000000000000000000000000000 PUSH1 0x0 MSTORE PUSH1 0x41 PUSH1 0x4 MSTORE PUSH1 0x24 PUSH1 0x0 REVERT JUMPDEST PUSH32 0x4E487B7100000000000000000000000000000000000000000000000000000000 PUSH1 0x0 MSTORE PUSH1 0x22 PUSH1 0x4 MSTORE PUSH1 0x24 PUSH1 0x0 REVERT JUMPDEST PUSH1 0x0 PUSH1 0x2 DUP3 DIV SWAP1 POP PUSH1 0x1 DUP3 AND DUP1 PUSH3 0x64D JUMPI PUSH1 0x7F DUP3 AND SWAP2 POP JUMPDEST PUSH1 0x20 DUP3 LT DUP2 SUB PUSH3 0x663 JUMPI PUSH3 0x662 PUSH3 0x605 JUMP JUMPDEST JUMPDEST POP SWAP2 SWAP1 POP JUMP JUMPDEST PUSH1 0x0 DUP2 SWAP1 POP DUP2 PUSH1 0x0 MSTORE PUSH1 0x20 PUSH1 0x0 KECCAK256 SWAP1 POP SWAP2 SWAP1 POP JUMP JUMPDEST PUSH1 0x0 PUSH1 0x20 PUSH1 0x1F DUP4 ADD DIV SWAP1 POP SWAP2 SWAP1 POP JUMP JUMPDEST PUSH1 0x0 DUP3 DUP3 SHL SWAP1 POP SWAP3 SWAP2 POP POP JUMP JUMPDEST PUSH1 0x0 PUSH1 0x8 DUP4 MUL PUSH3 0x6CD PUSH32 0xFFFFFFFFFFFFFFFFFFFFFFFFFFFFFFFFFFFFFFFFFFFFFFFFFFFFFFFFFFFFFFFF DUP3 PUSH3 0x68E JUMP JUMPDEST PUSH3 0x6D9 DUP7 DUP4 PUSH3 0x68E JUMP JUMPDEST SWAP6 POP DUP1 NOT DUP5 AND SWAP4 POP DUP1 DUP7 AND DUP5 OR SWAP3 POP POP POP SWAP4 SWAP3 POP POP POP JUMP JUMPDEST PUSH1 0x0 DUP2 SWAP1 POP SWAP2 SWAP1 POP JUMP JUMPDEST PUSH1 0x0 PUSH3 0x71C PUSH3 0x716 PUSH3 0x710 DUP5 PUSH3 0x3D5 JUMP JUMPDEST PUSH3 0x6F1 JUMP JUMPDEST PUSH3 0x3D5 JUMP JUMPDEST SWAP1 POP SWAP2 SWAP1 POP JUMP JUMPDEST PUSH1 0x0 DUP2 SWAP1 POP SWAP2 SWAP1 POP JUMP JUMPDEST PUSH3 0x738 DUP4 PUSH3 0x6FB JUMP JUMPDEST PUSH3 0x750 PUSH3 0x747 DUP3 PUSH3 0x723 JUMP JUMPDEST DUP5 DUP5 SLOAD PUSH3 0x69B JUMP JUMPDEST DUP3 SSTORE POP POP POP POP JUMP JUMPDEST PUSH1 0x0 SWAP1 JUMP JUMPDEST PUSH3 0x767 PUSH3 0x758 JUMP JUMPDEST PUSH3 0x774 DUP2 DUP5 DUP5 PUSH3 0x72D JUMP JUMPDEST POP POP POP JUMP JUMPDEST JUMPDEST DUP2 DUP2 LT ISZERO PUSH3 0x79C JUMPI PUSH3 0x790 PUSH1 0x0 DUP3 PUSH3 0x75D JUMP JUMPDEST PUSH1 0x1 DUP2 ADD SWAP1 POP PUSH3 0x77A JUMP JUMPDEST POP POP JUMP JUMPDEST PUSH1 0x1F DUP3 GT ISZERO PUSH3 0x7EB JUMPI PUSH3 0x7B5 DUP2 PUSH3 0x669 JUMP JUMPDEST PUSH3 0x7C0 DUP5 PUSH3 0x67E JUMP JUMPDEST DUP2 ADD PUSH1 0x20 DUP6 LT ISZERO PUSH3 0x7D0 JUMPI DUP2 SWAP1 POP JUMPDEST PUSH3 0x7E8 PUSH3 0x7DF DUP6 PUSH3 0x67E JUMP JUMPDEST DUP4 ADD DUP3 PUSH3 0x779 JUMP JUMPDEST POP POP JUMPDEST POP POP POP JUMP JUMPDEST PUSH1 0x0 DUP3 DUP3 SHR SWAP1 POP SWAP3 SWAP2 POP POP JUMP JUMPDEST PUSH1 0x0 PUSH3 0x810 PUSH1 0x0 NOT DUP5 PUSH1 0x8 MUL PUSH3 0x7F0 JUMP JUMPDEST NOT DUP1 DUP4 AND SWAP2 POP POP SWAP3 SWAP2 POP POP JUMP JUMPDEST PUSH1 0x0 PUSH3 0x82B DUP4 DUP4 PUSH3 0x7FD JUMP JUMPDEST SWAP2 POP DUP3 PUSH1 0x2 MUL DUP3 OR SWAP1 POP SWAP3 SWAP2 POP POP JUMP JUMPDEST PUSH3 0x846 DUP3 PUSH3 0x542 JUMP JUMPDEST PUSH8 0xFFFFFFFFFFFFFFFF DUP2 GT ISZERO PUSH3 0x862 JUMPI PUSH3 0x861 PUSH3 0x5D6 JUMP JUMPDEST JUMPDEST PUSH3 0x86E DUP3 SLOAD PUSH3 0x634 JUMP JUMPDEST PUSH3 0x87B DUP3 DUP3 DUP6 PUSH3 0x7A0 JUMP JUMPDEST PUSH1 0x0 PUSH1 0x20 SWAP1 POP PUSH1 0x1F DUP4 GT PUSH1 0x1 DUP2 EQ PUSH3 0x8B3 JUMPI PUSH1 0x0 DUP5 ISZERO PUSH3 0x89E JUMPI DUP3 DUP8 ADD MLOAD SWAP1 POP JUMPDEST PUSH3 0x8AA DUP6 DUP3 PUSH3 0x81D JUMP JUMPDEST DUP7 SSTORE POP PUSH3 0x91A JUMP JUMPDEST PUSH1 0x1F NOT DUP5 AND PUSH3 0x8C3 DUP7 PUSH3 0x669 JUMP JUMPDEST PUSH1 0x0 JUMPDEST DUP3 DUP2 LT ISZERO PUSH3 0x8ED JUMPI DUP5 DUP10 ADD MLOAD DUP3 SSTORE PUSH1 0x1 DUP3 ADD SWAP2 POP PUSH1 0x20 DUP6 ADD SWAP5 POP PUSH1 0x20 DUP2 ADD SWAP1 POP PUSH3 0x8C6 JUMP JUMPDEST DUP7 DUP4 LT ISZERO PUSH3 0x90D JUMPI DUP5 DUP10 ADD MLOAD PUSH3 0x909 PUSH1 0x1F DUP10 AND DUP3 PUSH3 0x7FD JUMP JUMPDEST DUP4 SSTORE POP JUMPDEST PUSH1 0x1 PUSH1 0x2 DUP9 MUL ADD DUP9 SSTORE POP POP POP JUMPDEST POP POP POP POP POP POP JUMP JUMPDEST PUSH32 0x4E487B7100000000000000000000000000000000000000000000000000000000 PUSH1 0x0 MSTORE PUSH1 0x11 PUSH1 0x4 MSTORE PUSH1 0x24 PUSH1 0x0 REVERT JUMPDEST PUSH1 0x0 PUSH3 0x95E DUP3 PUSH3 0x3D5 JUMP JUMPDEST SWAP2 POP PUSH32 0xFFFFFFFFFFFFFFFFFFFFFFFFFFFFFFFFFFFFFFFFFFFFFFFFFFFFFFFFFFFFFFFF DUP3 SUB PUSH3 0x993 JUMPI PUSH3 0x992 PUSH3 0x922 JUMP JUMPDEST JUMPDEST PUSH1 0x1 DUP3 ADD SWAP1 POP SWAP2 SWAP1 POP JUMP JUMPDEST PUSH32 0x4E487B7100000000000000000000000000000000000000000000000000000000 PUSH1 0x0 MSTORE PUSH1 0x12 PUSH1 0x4 MSTORE PUSH1 0x24 PUSH1 0x0 REVERT JUMPDEST PUSH1 0x0 PUSH3 0x9DA DUP3 PUSH3 0x3D5 JUMP JUMPDEST SWAP2 POP PUSH3 0x9E7 DUP4 PUSH3 0x3D5 JUMP JUMPDEST SWAP3 POP DUP3 PUSH3 0x9FA JUMPI PUSH3 0x9F9 PUSH3 0x99E JUMP JUMPDEST JUMPDEST DUP3 DUP3 DIV SWAP1 POP SWAP3 SWAP2 POP POP JUMP JUMPDEST PUSH1 0x0 PUSH3 0xA12 DUP3 PUSH3 0x3D5 JUMP JUMPDEST SWAP2 POP PUSH3 0xA1F DUP4 PUSH3 0x3D5 JUMP JUMPDEST SWAP3 POP DUP3 DUP3 SUB SWAP1 POP DUP2 DUP2 GT ISZERO PUSH3 0xA3A JUMPI PUSH3 0xA39 PUSH3 0x922 JUMP JUMPDEST JUMPDEST SWAP3 SWAP2 POP POP JUMP JUMPDEST PUSH1 0x0 PUSH3 0xA4D DUP3 PUSH3 0x3D5 JUMP JUMPDEST SWAP2 POP PUSH3 0xA5A DUP4 PUSH3 0x3D5 JUMP JUMPDEST SWAP3 POP DUP3 PUSH3 0xA6D JUMPI PUSH3 0xA6C PUSH3 0x99E JUMP JUMPDEST JUMPDEST DUP3 DUP3 MOD SWAP1 POP SWAP3 SWAP2 POP POP JUMP JUMPDEST PUSH1 0x0 PUSH3 0xA85 DUP3 PUSH3 0x3D5 JUMP JUMPDEST SWAP2 POP PUSH3 0xA92 DUP4 PUSH3 0x3D5 JUMP JUMPDEST SWAP3 POP DUP3 DUP3 ADD SWAP1 POP DUP1 DUP3 GT ISZERO PUSH3 0xAAD JUMPI PUSH3 0xAAC PUSH3 0x922 JUMP JUMPDEST JUMPDEST SWAP3 SWAP2 POP POP JUMP JUMPDEST PUSH32 0x4E487B7100000000000000000000000000000000000000000000000000000000 PUSH1 0x0 MSTORE PUSH1 0x32 PUSH1 0x4 MSTORE PUSH1 0x24 PUSH1 0x0 REVERT JUMPDEST PUSH2 0x21BB DUP1 PUSH3 0xAF2 PUSH1 0x0 CODECOPY PUSH1 0x0 RETURN INVALID PUSH1 0x80 PUSH1 0x40 MSTORE PUSH1 0x4 CALLDATASIZE LT PUSH2 0x118 JUMPI PUSH1 0x0 CALLDATALOAD PUSH1 0xE0 SHR DUP1 PUSH4 0x70BABC8A GT PUSH2 0xA0 JUMPI DUP1 PUSH4 0xA50239EE GT PUSH2 0x64 JUMPI DUP1 PUSH4 0xA50239EE EQ PUSH2 0x3A7 JUMPI DUP1 PUSH4 0xA944B7A6 EQ PUSH2 0x3E5 JUMPI DUP1 PUSH4 0xC24A0F8B EQ PUSH2 0x410 JUMPI DUP1 PUSH4 0xDFBF53AE EQ PUSH2 0x43B JUMPI DUP1 PUSH4 0xF9BC8589 EQ PUSH2 0x466 JUMPI PUSH2 0x11F JUMP JUMPDEST DUP1 PUSH4 0x70BABC8A EQ PUSH2 0x2BE JUMPI DUP1 PUSH4 0x78622C5D EQ PUSH2 0x2E9 JUMPI DUP1 PUSH4 0x9C2AAB5E EQ PUSH2 0x314 JUMPI DUP1 PUSH4 0x9D9A7FE9 EQ PUSH2 0x33F JUMPI DUP1 PUSH4 0xA3D45314 EQ PUSH2 0x36A JUMPI PUSH2 0x11F JUMP JUMPDEST DUP1 PUSH4 0x228CB733 GT PUSH2 0xE7 JUMPI DUP1 PUSH4 0x228CB733 EQ PUSH2 0x1C3 JUMPI DUP1 PUSH4 0x23822A74 EQ PUSH2 0x1EE JUMPI DUP1 PUSH4 0x255ADFD4 EQ PUSH2 0x217 JUMPI DUP1 PUSH4 0x3DDE87B4 EQ PUSH2 0x254 JUMPI DUP1 PUSH4 0x481C6A75 EQ PUSH2 0x293 JUMPI PUSH2 0x11F JUMP JUMPDEST DUP1 PUSH4 0x132FD9BC EQ PUSH2 0x124 JUMPI DUP1 PUSH4 0x1442F65A EQ PUSH2 0x14F JUMPI DUP1 PUSH4 0x1632C03F EQ PUSH2 0x181 JUMPI DUP1 PUSH4 0x2134F7F0 EQ PUSH2 0x1AC JUMPI PUSH2 0x11F JUMP JUMPDEST CALLDATASIZE PUSH2 0x11F JUMPI STOP JUMPDEST PUSH1 0x0 DUP1 REVERT JUMPDEST CALLVALUE DUP1 ISZERO PUSH2 0x130 JUMPI PUSH1 0x0 DUP1 REVERT JUMPDEST POP PUSH2 0x139 PUSH2 0x48F JUMP JUMPDEST PUSH1 0x40 MLOAD PUSH2 0x146 SWAP2 SWAP1 PUSH2 0x13BB JUMP JUMPDEST PUSH1 0x40 MLOAD DUP1 SWAP2 SUB SWAP1 RETURN JUMPDEST CALLVALUE DUP1 ISZERO PUSH2 0x15B JUMPI PUSH1 0x0 DUP1 REVERT JUMPDEST POP PUSH2 0x164 PUSH2 0x4B5 JUMP JUMPDEST PUSH1 0x40 MLOAD PUSH2 0x178 SWAP9 SWAP8 SWAP7 SWAP6 SWAP5 SWAP4 SWAP3 SWAP2 SWAP1 PUSH2 0x142B JUMP JUMPDEST PUSH1 0x40 MLOAD DUP1 SWAP2 SUB SWAP1 RETURN JUMPDEST CALLVALUE DUP1 ISZERO PUSH2 0x18D JUMPI PUSH1 0x0 DUP1 REVERT JUMPDEST POP PUSH2 0x196 PUSH2 0x53E JUMP JUMPDEST PUSH1 0x40 MLOAD PUSH2 0x1A3 SWAP2 SWAP1 PUSH2 0x14A9 JUMP JUMPDEST PUSH1 0x40 MLOAD DUP1 SWAP2 SUB SWAP1 RETURN JUMPDEST CALLVALUE DUP1 ISZERO PUSH2 0x1B8 JUMPI PUSH1 0x0 DUP1 REVERT JUMPDEST POP PUSH2 0x1C1 PUSH2 0x544 JUMP JUMPDEST STOP JUMPDEST CALLVALUE DUP1 ISZERO PUSH2 0x1CF JUMPI PUSH1 0x0 DUP1 REVERT JUMPDEST POP PUSH2 0x1D8 PUSH2 0x878 JUMP JUMPDEST PUSH1 0x40 MLOAD PUSH2 0x1E5 SWAP2 SWAP1 PUSH2 0x14A9 JUMP JUMPDEST PUSH1 0x40 MLOAD DUP1 SWAP2 SUB SWAP1 RETURN JUMPDEST CALLVALUE DUP1 ISZERO PUSH2 0x1FA JUMPI PUSH1 0x0 DUP1 REVERT JUMPDEST POP PUSH2 0x215 PUSH1 0x4 DUP1 CALLDATASIZE SUB DUP2 ADD SWAP1 PUSH2 0x210 SWAP2 SWAP1 PUSH2 0x14F5 JUMP JUMPDEST PUSH2 0x87E JUMP JUMPDEST STOP JUMPDEST CALLVALUE DUP1 ISZERO PUSH2 0x223 JUMPI PUSH1 0x0 DUP1 REVERT JUMPDEST POP PUSH2 0x23E PUSH1 0x4 DUP1 CALLDATASIZE SUB DUP2 ADD SWAP1 PUSH2 0x239 SWAP2 SWAP1 PUSH2 0x154E JUMP JUMPDEST PUSH2 0xBDF JUMP JUMPDEST PUSH1 0x40 MLOAD PUSH2 0x24B SWAP2 SWAP1 PUSH2 0x157B JUMP JUMPDEST PUSH1 0x40 MLOAD DUP1 SWAP2 SUB SWAP1 RETURN JUMPDEST CALLVALUE DUP1 ISZERO PUSH2 0x260 JUMPI PUSH1 0x0 DUP1 REVERT JUMPDEST POP PUSH2 0x27B PUSH1 0x4 DUP1 CALLDATASIZE SUB DUP2 ADD SWAP1 PUSH2 0x276 SWAP2 SWAP1 PUSH2 0x14F5 JUMP JUMPDEST PUSH2 0xBFF JUMP JUMPDEST PUSH1 0x40 MLOAD PUSH2 0x28A SWAP4 SWAP3 SWAP2 SWAP1 PUSH2 0x16E4 JUMP JUMPDEST PUSH1 0x40 MLOAD DUP1 SWAP2 SUB SWAP1 RETURN JUMPDEST CALLVALUE DUP1 ISZERO PUSH2 0x29F JUMPI PUSH1 0x0 DUP1 REVERT JUMPDEST POP PUSH2 0x2A8 PUSH2 0xD5A JUMP JUMPDEST PUSH1 0x40 MLOAD PUSH2 0x2B5 SWAP2 SWAP1 PUSH2 0x1729 JUMP JUMPDEST PUSH1 0x40 MLOAD DUP1 SWAP2 SUB SWAP1 RETURN JUMPDEST CALLVALUE DUP1 ISZERO PUSH2 0x2CA JUMPI PUSH1 0x0 DUP1 REVERT JUMPDEST POP PUSH2 0x2D3 PUSH2 0xD7E JUMP JUMPDEST PUSH1 0x40 MLOAD PUSH2 0x2E0 SWAP2 SWAP1 PUSH2 0x14A9 JUMP JUMPDEST PUSH1 0x40 MLOAD DUP1 SWAP2 SUB SWAP1 RETURN JUMPDEST CALLVALUE DUP1 ISZERO PUSH2 0x2F5 JUMPI PUSH1 0x0 DUP1 REVERT JUMPDEST POP PUSH2 0x2FE PUSH2 0xD84 JUMP JUMPDEST PUSH1 0x40 MLOAD PUSH2 0x30B SWAP2 SWAP1 PUSH2 0x14A9 JUMP JUMPDEST PUSH1 0x40 MLOAD DUP1 SWAP2 SUB SWAP1 RETURN JUMPDEST CALLVALUE DUP1 ISZERO PUSH2 0x320 JUMPI PUSH1 0x0 DUP1 REVERT JUMPDEST POP PUSH2 0x329 PUSH2 0xD8A JUMP JUMPDEST PUSH1 0x40 MLOAD PUSH2 0x336 SWAP2 SWAP1 PUSH2 0x14A9 JUMP JUMPDEST PUSH1 0x40 MLOAD DUP1 SWAP2 SUB SWAP1 RETURN JUMPDEST CALLVALUE DUP1 ISZERO PUSH2 0x34B JUMPI PUSH1 0x0 DUP1 REVERT JUMPDEST POP PUSH2 0x354 PUSH2 0xD97 JUMP JUMPDEST PUSH1 0x40 MLOAD PUSH2 0x361 SWAP2 SWAP1 PUSH2 0x157B JUMP JUMPDEST PUSH1 0x40 MLOAD DUP1 SWAP2 SUB SWAP1 RETURN JUMPDEST CALLVALUE DUP1 ISZERO PUSH2 0x376 JUMPI PUSH1 0x0 DUP1 REVERT JUMPDEST POP PUSH2 0x391 PUSH1 0x4 DUP1 CALLDATASIZE SUB DUP2 ADD SWAP1 PUSH2 0x38C SWAP2 SWAP1 PUSH2 0x154E JUMP JUMPDEST PUSH2 0xDAA JUMP JUMPDEST PUSH1 0x40 MLOAD PUSH2 0x39E SWAP2 SWAP1 PUSH2 0x157B JUMP JUMPDEST PUSH1 0x40 MLOAD DUP1 SWAP2 SUB SWAP1 RETURN JUMPDEST CALLVALUE DUP1 ISZERO PUSH2 0x3B3 JUMPI PUSH1 0x0 DUP1 REVERT JUMPDEST POP PUSH2 0x3CE PUSH1 0x4 DUP1 CALLDATASIZE SUB DUP2 ADD SWAP1 PUSH2 0x3C9 SWAP2 SWAP1 PUSH2 0x14F5 JUMP JUMPDEST PUSH2 0xDCA JUMP JUMPDEST PUSH1 0x40 MLOAD PUSH2 0x3DC SWAP3 SWAP2 SWAP1 PUSH2 0x1744 JUMP JUMPDEST PUSH1 0x40 MLOAD DUP1 SWAP2 SUB SWAP1 RETURN JUMPDEST CALLVALUE DUP1 ISZERO PUSH2 0x3F1 JUMPI PUSH1 0x0 DUP1 REVERT JUMPDEST POP PUSH2 0x3FA PUSH2 0xE86 JUMP JUMPDEST PUSH1 0x40 MLOAD PUSH2 0x407 SWAP2 SWAP1 PUSH2 0x14A9 JUMP JUMPDEST PUSH1 0x40 MLOAD DUP1 SWAP2 SUB SWAP1 RETURN JUMPDEST CALLVALUE DUP1 ISZERO PUSH2 0x41C JUMPI PUSH1 0x0 DUP1 REVERT JUMPDEST POP PUSH2 0x425 PUSH2 0xE8C JUMP JUMPDEST PUSH1 0x40 MLOAD PUSH2 0x432 SWAP2 SWAP1 PUSH2 0x14A9 JUMP JUMPDEST PUSH1 0x40 MLOAD DUP1 SWAP2 SUB SWAP1 RETURN JUMPDEST CALLVALUE DUP1 ISZERO PUSH2 0x447 JUMPI PUSH1 0x0 DUP1 REVERT JUMPDEST POP PUSH2 0x450 PUSH2 0xE92 JUMP JUMPDEST PUSH1 0x40 MLOAD PUSH2 0x45D SWAP2 SWAP1 PUSH2 0x1774 JUMP JUMPDEST PUSH1 0x40 MLOAD DUP1 SWAP2 SUB SWAP1 RETURN JUMPDEST CALLVALUE DUP1 ISZERO PUSH2 0x472 JUMPI PUSH1 0x0 DUP1 REVERT JUMPDEST POP PUSH2 0x48D PUSH1 0x4 DUP1 CALLDATASIZE SUB DUP2 ADD SWAP1 PUSH2 0x488 SWAP2 SWAP1 PUSH2 0x154E JUMP JUMPDEST PUSH2 0xF20 JUMP JUMPDEST STOP JUMPDEST PUSH1 0x2 PUSH1 0x0 SWAP1 SLOAD SWAP1 PUSH2 0x100 EXP SWAP1 DIV PUSH20 0xFFFFFFFFFFFFFFFFFFFFFFFFFFFFFFFFFFFFFFFF AND DUP2 JUMP JUMPDEST PUSH1 0x0 DUP1 PUSH1 0x0 DUP1 PUSH1 0x0 DUP1 PUSH1 0x0 DUP1 PUSH1 0x0 DUP1 SLOAD SWAP1 PUSH2 0x100 EXP SWAP1 DIV PUSH20 0xFFFFFFFFFFFFFFFFFFFFFFFFFFFFFFFFFFFFFFFF AND PUSH1 0x3 SLOAD PUSH1 0x4 SLOAD PUSH1 0x5 SLOAD PUSH1 0x7 PUSH1 0x0 SWAP1 SLOAD SWAP1 PUSH2 0x100 EXP SWAP1 DIV PUSH1 0xFF AND PUSH1 0x2 PUSH1 0x0 SWAP1 SLOAD SWAP1 PUSH2 0x100 EXP SWAP1 DIV PUSH20 0xFFFFFFFFFFFFFFFFFFFFFFFFFFFFFFFFFFFFFFFF AND PUSH1 0x9 SLOAD PUSH1 0x6 SLOAD SWAP8 POP SWAP8 POP SWAP8 POP SWAP8 POP SWAP8 POP SWAP8 POP SWAP8 POP SWAP8 POP SWAP1 SWAP2 SWAP3 SWAP4 SWAP5 SWAP6 SWAP7 SWAP8 JUMP JUMPDEST PUSH1 0x3 SLOAD DUP2 JUMP JUMPDEST PUSH1 0x0 DUP1 SLOAD SWAP1 PUSH2 0x100 EXP SWAP1 DIV PUSH20 0xFFFFFFFFFFFFFFFFFFFFFFFFFFFFFFFFFFFFFFFF AND PUSH20 0xFFFFFFFFFFFFFFFFFFFFFFFFFFFFFFFFFFFFFFFF AND CALLER PUSH20 0xFFFFFFFFFFFFFFFFFFFFFFFFFFFFFFFFFFFFFFFF AND EQ PUSH2 0x59C JUMPI PUSH1 0x0 DUP1 REVERT JUMPDEST PUSH1 0x7 PUSH1 0x0 SWAP1 SLOAD SWAP1 PUSH2 0x100 EXP SWAP1 DIV PUSH1 0xFF AND ISZERO PUSH2 0x5EC JUMPI PUSH1 0x40 MLOAD PUSH32 0x8C379A000000000000000000000000000000000000000000000000000000000 DUP2 MSTORE PUSH1 0x4 ADD PUSH2 0x5E3 SWAP1 PUSH2 0x17E2 JUMP JUMPDEST PUSH1 0x40 MLOAD DUP1 SWAP2 SUB SWAP1 REVERT JUMPDEST PUSH1 0x1 PUSH2 0x5F6 PUSH2 0x1106 JUMP JUMPDEST MLOAD GT ISZERO PUSH2 0x619 JUMPI PUSH3 0x15180 PUSH1 0x5 SLOAD PUSH2 0x60E SWAP2 SWAP1 PUSH2 0x1831 JUMP JUMPDEST PUSH1 0x5 DUP2 SWAP1 SSTORE POP PUSH2 0x876 JUMP JUMPDEST PUSH1 0x0 PUSH1 0xC PUSH2 0x625 PUSH2 0x1106 JUMP JUMPDEST PUSH1 0x0 DUP2 MLOAD DUP2 LT PUSH2 0x638 JUMPI PUSH2 0x637 PUSH2 0x1865 JUMP JUMPDEST JUMPDEST PUSH1 0x20 MUL PUSH1 0x20 ADD ADD MLOAD DUP2 SLOAD DUP2 LT PUSH2 0x651 JUMPI PUSH2 0x650 PUSH2 0x1865 JUMP JUMPDEST JUMPDEST SWAP1 PUSH1 0x0 MSTORE PUSH1 0x20 PUSH1 0x0 KECCAK256 SWAP1 PUSH1 0x3 MUL ADD SWAP1 POP DUP1 PUSH1 0x0 ADD PUSH1 0x1 SWAP1 DUP2 PUSH2 0x673 SWAP2 SWAP1 PUSH2 0x1AFA JUMP JUMPDEST POP PUSH1 0x0 TIMESTAMP DUP3 PUSH1 0x2 ADD PUSH1 0x40 MLOAD PUSH1 0x20 ADD PUSH2 0x68C SWAP3 SWAP2 SWAP1 PUSH2 0x1D21 JUMP JUMPDEST PUSH1 0x40 MLOAD PUSH1 0x20 DUP2 DUP4 SUB SUB DUP2 MSTORE SWAP1 PUSH1 0x40 MSTORE DUP1 MLOAD SWAP1 PUSH1 0x20 ADD KECCAK256 PUSH1 0x0 SHR SWAP1 POP PUSH1 0x0 DUP3 PUSH1 0x2 ADD DUP1 SLOAD SWAP1 POP DUP3 PUSH2 0x6BC SWAP2 SWAP1 PUSH2 0x1D78 JUMP JUMPDEST SWAP1 POP DUP3 PUSH1 0x2 ADD DUP2 DUP2 SLOAD DUP2 LT PUSH2 0x6D4 JUMPI PUSH2 0x6D3 PUSH2 0x1865 JUMP JUMPDEST JUMPDEST SWAP1 PUSH1 0x0 MSTORE PUSH1 0x20 PUSH1 0x0 KECCAK256 ADD PUSH1 0x0 SWAP1 SLOAD SWAP1 PUSH2 0x100 EXP SWAP1 DIV PUSH20 0xFFFFFFFFFFFFFFFFFFFFFFFFFFFFFFFFFFFFFFFF AND PUSH1 0x2 PUSH1 0x0 PUSH2 0x100 EXP DUP2 SLOAD DUP2 PUSH20 0xFFFFFFFFFFFFFFFFFFFFFFFFFFFFFFFFFFFFFFFF MUL NOT AND SWAP1 DUP4 PUSH20 0xFFFFFFFFFFFFFFFFFFFFFFFFFFFFFFFFFFFFFFFF AND MUL OR SWAP1 SSTORE POP PUSH1 0x0 PUSH1 0x2 PUSH1 0x0 SWAP1 SLOAD SWAP1 PUSH2 0x100 EXP SWAP1 DIV PUSH20 0xFFFFFFFFFFFFFFFFFFFFFFFFFFFFFFFFFFFFFFFF AND PUSH20 0xFFFFFFFFFFFFFFFFFFFFFFFFFFFFFFFFFFFFFFFF AND PUSH1 0x6 SLOAD PUSH1 0x40 MLOAD PUSH2 0x789 SWAP1 PUSH2 0x1DDA JUMP JUMPDEST PUSH1 0x0 PUSH1 0x40 MLOAD DUP1 DUP4 SUB DUP2 DUP6 DUP8 GAS CALL SWAP3 POP POP POP RETURNDATASIZE DUP1 PUSH1 0x0 DUP2 EQ PUSH2 0x7C6 JUMPI PUSH1 0x40 MLOAD SWAP2 POP PUSH1 0x1F NOT PUSH1 0x3F RETURNDATASIZE ADD AND DUP3 ADD PUSH1 0x40 MSTORE RETURNDATASIZE DUP3 MSTORE RETURNDATASIZE PUSH1 0x0 PUSH1 0x20 DUP5 ADD RETURNDATACOPY PUSH2 0x7CB JUMP JUMPDEST PUSH1 0x60 SWAP2 POP JUMPDEST POP POP SWAP1 POP DUP1 PUSH2 0x80F JUMPI PUSH1 0x40 MLOAD PUSH32 0x8C379A000000000000000000000000000000000000000000000000000000000 DUP2 MSTORE PUSH1 0x4 ADD PUSH2 0x806 SWAP1 PUSH2 0x1E3B JUMP JUMPDEST PUSH1 0x40 MLOAD DUP1 SWAP2 SUB SWAP1 REVERT JUMPDEST CALLER PUSH20 0xFFFFFFFFFFFFFFFFFFFFFFFFFFFFFFFFFFFFFFFF AND PUSH2 0x8FC SELFBALANCE SWAP1 DUP2 ISZERO MUL SWAP1 PUSH1 0x40 MLOAD PUSH1 0x0 PUSH1 0x40 MLOAD DUP1 DUP4 SUB DUP2 DUP6 DUP9 DUP9 CALL SWAP4 POP POP POP POP ISZERO DUP1 ISZERO PUSH2 0x855 JUMPI RETURNDATASIZE PUSH1 0x0 DUP1 RETURNDATACOPY RETURNDATASIZE PUSH1 0x0 REVERT JUMPDEST POP PUSH1 0x1 PUSH1 0x7 PUSH1 0x0 PUSH2 0x100 EXP DUP2 SLOAD DUP2 PUSH1 0xFF MUL NOT AND SWAP1 DUP4 ISZERO ISZERO MUL OR SWAP1 SSTORE POP POP POP POP POP JUMPDEST JUMP JUMPDEST PUSH1 0x6 SLOAD DUP2 JUMP JUMPDEST PUSH1 0x0 DUP1 SLOAD SWAP1 PUSH2 0x100 EXP SWAP1 DIV PUSH20 0xFFFFFFFFFFFFFFFFFFFFFFFFFFFFFFFFFFFFFFFF AND PUSH20 0xFFFFFFFFFFFFFFFFFFFFFFFFFFFFFFFFFFFFFFFF AND CALLER PUSH20 0xFFFFFFFFFFFFFFFFFFFFFFFFFFFFFFFFFFFFFFFF AND SUB PUSH2 0x90C JUMPI PUSH1 0x40 MLOAD PUSH32 0x8C379A000000000000000000000000000000000000000000000000000000000 DUP2 MSTORE PUSH1 0x4 ADD PUSH2 0x903 SWAP1 PUSH2 0x1EA7 JUMP JUMPDEST PUSH1 0x40 MLOAD DUP1 SWAP2 SUB SWAP1 REVERT JUMPDEST PUSH1 0xA PUSH1 0x0 CALLER PUSH20 0xFFFFFFFFFFFFFFFFFFFFFFFFFFFFFFFFFFFFFFFF AND PUSH20 0xFFFFFFFFFFFFFFFFFFFFFFFFFFFFFFFFFFFFFFFF AND DUP2 MSTORE PUSH1 0x20 ADD SWAP1 DUP2 MSTORE PUSH1 0x20 ADD PUSH1 0x0 KECCAK256 PUSH1 0x0 SWAP1 SLOAD SWAP1 PUSH2 0x100 EXP SWAP1 DIV PUSH1 0xFF AND PUSH2 0x998 JUMPI PUSH1 0x40 MLOAD PUSH32 0x8C379A000000000000000000000000000000000000000000000000000000000 DUP2 MSTORE PUSH1 0x4 ADD PUSH2 0x98F SWAP1 PUSH2 0x1F39 JUMP JUMPDEST PUSH1 0x40 MLOAD DUP1 SWAP2 SUB SWAP1 REVERT JUMPDEST PUSH1 0x8 PUSH1 0x0 CALLER PUSH20 0xFFFFFFFFFFFFFFFFFFFFFFFFFFFFFFFFFFFFFFFF AND PUSH20 0xFFFFFFFFFFFFFFFFFFFFFFFFFFFFFFFFFFFFFFFF AND DUP2 MSTORE PUSH1 0x20 ADD SWAP1 DUP2 MSTORE PUSH1 0x20 ADD PUSH1 0x0 KECCAK256 PUSH1 0x0 SWAP1 SLOAD SWAP1 PUSH2 0x100 EXP SWAP1 DIV PUSH1 0xFF AND ISZERO PUSH2 0xA25 JUMPI PUSH1 0x40 MLOAD PUSH32 0x8C379A000000000000000000000000000000000000000000000000000000000 DUP2 MSTORE PUSH1 0x4 ADD PUSH2 0xA1C SWAP1 PUSH2 0x1FA5 JUMP JUMPDEST PUSH1 0x40 MLOAD DUP1 SWAP2 SUB SWAP1 REVERT JUMPDEST PUSH1 0x7 PUSH1 0x0 SWAP1 SLOAD SWAP1 PUSH2 0x100 EXP SWAP1 DIV PUSH1 0xFF AND ISZERO PUSH2 0xA75 JUMPI PUSH1 0x40 MLOAD PUSH32 0x8C379A000000000000000000000000000000000000000000000000000000000 DUP2 MSTORE PUSH1 0x4 ADD PUSH2 0xA6C SWAP1 PUSH2 0x17E2 JUMP JUMPDEST PUSH1 0x40 MLOAD DUP1 SWAP2 SUB SWAP1 REVERT JUMPDEST PUSH1 0x4 SLOAD TIMESTAMP GT DUP1 ISZERO PUSH2 0xA87 JUMPI POP PUSH1 0x5 SLOAD TIMESTAMP LT JUMPDEST PUSH2 0xAC6 JUMPI PUSH1 0x40 MLOAD PUSH32 0x8C379A000000000000000000000000000000000000000000000000000000000 DUP2 MSTORE PUSH1 0x4 ADD PUSH2 0xABD SWAP1 PUSH2 0x2011 JUMP JUMPDEST PUSH1 0x40 MLOAD DUP1 SWAP2 SUB SWAP1 REVERT JUMPDEST PUSH1 0x0 PUSH1 0xC DUP3 DUP2 SLOAD DUP2 LT PUSH2 0xADC JUMPI PUSH2 0xADB PUSH2 0x1865 JUMP JUMPDEST JUMPDEST SWAP1 PUSH1 0x0 MSTORE PUSH1 0x20 PUSH1 0x0 KECCAK256 SWAP1 PUSH1 0x3 MUL ADD SWAP1 POP DUP1 PUSH1 0x1 ADD PUSH1 0x0 DUP2 SLOAD DUP1 SWAP3 SWAP2 SWAP1 PUSH2 0xB01 SWAP1 PUSH2 0x2031 JUMP JUMPDEST SWAP2 SWAP1 POP SSTORE POP DUP1 PUSH1 0x2 ADD CALLER SWAP1 DUP1 PUSH1 0x1 DUP2 SLOAD ADD DUP1 DUP3 SSTORE DUP1 SWAP2 POP POP PUSH1 0x1 SWAP1 SUB SWAP1 PUSH1 0x0 MSTORE PUSH1 0x20 PUSH1 0x0 KECCAK256 ADD PUSH1 0x0 SWAP1 SWAP2 SWAP1 SWAP2 SWAP1 SWAP2 PUSH2 0x100 EXP DUP2 SLOAD DUP2 PUSH20 0xFFFFFFFFFFFFFFFFFFFFFFFFFFFFFFFFFFFFFFFF MUL NOT AND SWAP1 DUP4 PUSH20 0xFFFFFFFFFFFFFFFFFFFFFFFFFFFFFFFFFFFFFFFF AND MUL OR SWAP1 SSTORE POP PUSH1 0x1 PUSH1 0x8 PUSH1 0x0 CALLER PUSH20 0xFFFFFFFFFFFFFFFFFFFFFFFFFFFFFFFFFFFFFFFF AND PUSH20 0xFFFFFFFFFFFFFFFFFFFFFFFFFFFFFFFFFFFFFFFF AND DUP2 MSTORE PUSH1 0x20 ADD SWAP1 DUP2 MSTORE PUSH1 0x20 ADD PUSH1 0x0 KECCAK256 PUSH1 0x0 PUSH2 0x100 EXP DUP2 SLOAD DUP2 PUSH1 0xFF MUL NOT AND SWAP1 DUP4 ISZERO ISZERO MUL OR SWAP1 SSTORE POP PUSH1 0x9 PUSH1 0x0 DUP2 SLOAD DUP1 SWAP3 SWAP2 SWAP1 PUSH2 0xBD6 SWAP1 PUSH2 0x2031 JUMP JUMPDEST SWAP2 SWAP1 POP SSTORE POP POP POP JUMP JUMPDEST PUSH1 0xA PUSH1 0x20 MSTORE DUP1 PUSH1 0x0 MSTORE PUSH1 0x40 PUSH1 0x0 KECCAK256 PUSH1 0x0 SWAP2 POP SLOAD SWAP1 PUSH2 0x100 EXP SWAP1 DIV PUSH1 0xFF AND DUP2 JUMP JUMPDEST PUSH1 0x60 PUSH1 0x0 PUSH1 0x60 PUSH1 0x0 PUSH1 0xC DUP6 DUP2 SLOAD DUP2 LT PUSH2 0xC1B JUMPI PUSH2 0xC1A PUSH2 0x1865 JUMP JUMPDEST JUMPDEST SWAP1 PUSH1 0x0 MSTORE PUSH1 0x20 PUSH1 0x0 KECCAK256 SWAP1 PUSH1 0x3 MUL ADD SWAP1 POP DUP1 PUSH1 0x0 ADD DUP2 PUSH1 0x1 ADD SLOAD DUP3 PUSH1 0x2 ADD DUP3 DUP1 SLOAD PUSH2 0xC44 SWAP1 PUSH2 0x18C3 JUMP JUMPDEST DUP1 PUSH1 0x1F ADD PUSH1 0x20 DUP1 SWAP2 DIV MUL PUSH1 0x20 ADD PUSH1 0x40 MLOAD SWAP1 DUP2 ADD PUSH1 0x40 MSTORE DUP1 SWAP3 SWAP2 SWAP1 DUP2 DUP2 MSTORE PUSH1 0x20 ADD DUP3 DUP1 SLOAD PUSH2 0xC70 SWAP1 PUSH2 0x18C3 JUMP JUMPDEST DUP1 ISZERO PUSH2 0xCBD JUMPI DUP1 PUSH1 0x1F LT PUSH2 0xC92 JUMPI PUSH2 0x100 DUP1 DUP4 SLOAD DIV MUL DUP4 MSTORE SWAP2 PUSH1 0x20 ADD SWAP2 PUSH2 0xCBD JUMP JUMPDEST DUP3 ADD SWAP2 SWAP1 PUSH1 0x0 MSTORE PUSH1 0x20 PUSH1 0x0 KECCAK256 SWAP1 JUMPDEST DUP2 SLOAD DUP2 MSTORE SWAP1 PUSH1 0x1 ADD SWAP1 PUSH1 0x20 ADD DUP1 DUP4 GT PUSH2 0xCA0 JUMPI DUP3 SWAP1 SUB PUSH1 0x1F AND DUP3 ADD SWAP2 JUMPDEST POP POP POP POP POP SWAP3 POP DUP1 DUP1 SLOAD DUP1 PUSH1 0x20 MUL PUSH1 0x20 ADD PUSH1 0x40 MLOAD SWAP1 DUP2 ADD PUSH1 0x40 MSTORE DUP1 SWAP3 SWAP2 SWAP1 DUP2 DUP2 MSTORE PUSH1 0x20 ADD DUP3 DUP1 SLOAD DUP1 ISZERO PUSH2 0xD45 JUMPI PUSH1 0x20 MUL DUP3 ADD SWAP2 SWAP1 PUSH1 0x0 MSTORE PUSH1 0x20 PUSH1 0x0 KECCAK256 SWAP1 JUMPDEST DUP2 PUSH1 0x0 SWAP1 SLOAD SWAP1 PUSH2 0x100 EXP SWAP1 DIV PUSH20 0xFFFFFFFFFFFFFFFFFFFFFFFFFFFFFFFFFFFFFFFF AND PUSH20 0xFFFFFFFFFFFFFFFFFFFFFFFFFFFFFFFFFFFFFFFF AND DUP2 MSTORE PUSH1 0x20 ADD SWAP1 PUSH1 0x1 ADD SWAP1 DUP1 DUP4 GT PUSH2 0xCFB JUMPI JUMPDEST POP POP POP POP POP SWAP1 POP SWAP4 POP SWAP4 POP SWAP4 POP POP SWAP2 SWAP4 SWAP1 SWAP3 POP JUMP JUMPDEST PUSH1 0x0 DUP1 SLOAD SWAP1 PUSH2 0x100 EXP SWAP1 DIV PUSH20 0xFFFFFFFFFFFFFFFFFFFFFFFFFFFFFFFFFFFFFFFF AND DUP2 JUMP JUMPDEST PUSH1 0xB SLOAD DUP2 JUMP JUMPDEST PUSH1 0x9 SLOAD DUP2 JUMP JUMPDEST PUSH1 0x0 PUSH1 0xC DUP1 SLOAD SWAP1 POP SWAP1 POP SWAP1 JUMP JUMPDEST PUSH1 0x7 PUSH1 0x0 SWAP1 SLOAD SWAP1 PUSH2 0x100 EXP SWAP1 DIV PUSH1 0xFF AND DUP2 JUMP JUMPDEST PUSH1 0x8 PUSH1 0x20 MSTORE DUP1 PUSH1 0x0 MSTORE PUSH1 0x40 PUSH1 0x0 KECCAK256 PUSH1 0x0 SWAP2 POP SLOAD SWAP1 PUSH2 0x100 EXP SWAP1 DIV PUSH1 0xFF AND DUP2 JUMP JUMPDEST PUSH1 0xC DUP2 DUP2 SLOAD DUP2 LT PUSH2 0xDDA JUMPI PUSH1 0x0 DUP1 REVERT JUMPDEST SWAP1 PUSH1 0x0 MSTORE PUSH1 0x20 PUSH1 0x0 KECCAK256 SWAP1 PUSH1 0x3 MUL ADD PUSH1 0x0 SWAP2 POP SWAP1 POP DUP1 PUSH1 0x0 ADD DUP1 SLOAD PUSH2 0xDFD SWAP1 PUSH2 0x18C3 JUMP JUMPDEST DUP1 PUSH1 0x1F ADD PUSH1 0x20 DUP1 SWAP2 DIV MUL PUSH1 0x20 ADD PUSH1 0x40 MLOAD SWAP1 DUP2 ADD PUSH1 0x40 MSTORE DUP1 SWAP3 SWAP2 SWAP1 DUP2 DUP2 MSTORE PUSH1 0x20 ADD DUP3 DUP1 SLOAD PUSH2 0xE29 SWAP1 PUSH2 0x18C3 JUMP JUMPDEST DUP1 ISZERO PUSH2 0xE76 JUMPI DUP1 PUSH1 0x1F LT PUSH2 0xE4B JUMPI PUSH2 0x100 DUP1 DUP4 SLOAD DIV MUL DUP4 MSTORE SWAP2 PUSH1 0x20 ADD SWAP2 PUSH2 0xE76 JUMP JUMPDEST DUP3 ADD SWAP2 SWAP1 PUSH1 0x0 MSTORE PUSH1 0x20 PUSH1 0x0 KECCAK256 SWAP1 JUMPDEST DUP2 SLOAD DUP2 MSTORE SWAP1 PUSH1 0x1 ADD SWAP1 PUSH1 0x20 ADD DUP1 DUP4 GT PUSH2 0xE59 JUMPI DUP3 SWAP1 SUB PUSH1 0x1F AND DUP3 ADD SWAP2 JUMPDEST POP POP POP POP POP SWAP1 DUP1 PUSH1 0x1 ADD SLOAD SWAP1 POP DUP3 JUMP JUMPDEST PUSH1 0x4 SLOAD DUP2 JUMP JUMPDEST PUSH1 0x5 SLOAD DUP2 JUMP JUMPDEST PUSH1 0x1 DUP1 SLOAD PUSH2 0xE9F SWAP1 PUSH2 0x18C3 JUMP JUMPDEST DUP1 PUSH1 0x1F ADD PUSH1 0x20 DUP1 SWAP2 DIV MUL PUSH1 0x20 ADD PUSH1 0x40 MLOAD SWAP1 DUP2 ADD PUSH1 0x40 MSTORE DUP1 SWAP3 SWAP2 SWAP1 DUP2 DUP2 MSTORE PUSH1 0x20 ADD DUP3 DUP1 SLOAD PUSH2 0xECB SWAP1 PUSH2 0x18C3 JUMP JUMPDEST DUP1 ISZERO PUSH2 0xF18 JUMPI DUP1 PUSH1 0x1F LT PUSH2 0xEED JUMPI PUSH2 0x100 DUP1 DUP4 SLOAD DIV MUL DUP4 MSTORE SWAP2 PUSH1 0x20 ADD SWAP2 PUSH2 0xF18 JUMP JUMPDEST DUP3 ADD SWAP2 SWAP1 PUSH1 0x0 MSTORE PUSH1 0x20 PUSH1 0x0 KECCAK256 SWAP1 JUMPDEST DUP2 SLOAD DUP2 MSTORE SWAP1 PUSH1 0x1 ADD SWAP1 PUSH1 0x20 ADD DUP1 DUP4 GT PUSH2 0xEFB JUMPI DUP3 SWAP1 SUB PUSH1 0x1F AND DUP3 ADD SWAP2 JUMPDEST POP POP POP POP POP DUP2 JUMP JUMPDEST PUSH1 0x0 DUP1 SLOAD SWAP1 PUSH2 0x100 EXP SWAP1 DIV PUSH20 0xFFFFFFFFFFFFFFFFFFFFFFFFFFFFFFFFFFFFFFFF AND PUSH20 0xFFFFFFFFFFFFFFFFFFFFFFFFFFFFFFFFFFFFFFFF AND CALLER PUSH20 0xFFFFFFFFFFFFFFFFFFFFFFFFFFFFFFFFFFFFFFFF AND EQ PUSH2 0xF78 JUMPI PUSH1 0x0 DUP1 REVERT JUMPDEST PUSH1 0x0 DUP1 SLOAD SWAP1 PUSH2 0x100 EXP SWAP1 DIV PUSH20 0xFFFFFFFFFFFFFFFFFFFFFFFFFFFFFFFFFFFFFFFF AND PUSH20 0xFFFFFFFFFFFFFFFFFFFFFFFFFFFFFFFFFFFFFFFF AND DUP2 PUSH20 0xFFFFFFFFFFFFFFFFFFFFFFFFFFFFFFFFFFFFFFFF AND SUB PUSH2 0x1006 JUMPI PUSH1 0x40 MLOAD PUSH32 0x8C379A000000000000000000000000000000000000000000000000000000000 DUP2 MSTORE PUSH1 0x4 ADD PUSH2 0xFFD SWAP1 PUSH2 0x20C5 JUMP JUMPDEST PUSH1 0x40 MLOAD DUP1 SWAP2 SUB SWAP1 REVERT JUMPDEST PUSH1 0xA PUSH1 0x0 DUP3 PUSH20 0xFFFFFFFFFFFFFFFFFFFFFFFFFFFFFFFFFFFFFFFF AND PUSH20 0xFFFFFFFFFFFFFFFFFFFFFFFFFFFFFFFFFFFFFFFF AND DUP2 MSTORE PUSH1 0x20 ADD SWAP1 DUP2 MSTORE PUSH1 0x20 ADD PUSH1 0x0 KECCAK256 PUSH1 0x0 SWAP1 SLOAD SWAP1 PUSH2 0x100 EXP SWAP1 DIV PUSH1 0xFF AND ISZERO PUSH2 0x1093 JUMPI PUSH1 0x40 MLOAD PUSH32 0x8C379A000000000000000000000000000000000000000000000000000000000 DUP2 MSTORE PUSH1 0x4 ADD PUSH2 0x108A SWAP1 PUSH2 0x2131 JUMP JUMPDEST PUSH1 0x40 MLOAD DUP1 SWAP2 SUB SWAP1 REVERT JUMPDEST PUSH1 0x1 PUSH1 0xA PUSH1 0x0 DUP4 PUSH20 0xFFFFFFFFFFFFFFFFFFFFFFFFFFFFFFFFFFFFFFFF AND PUSH20 0xFFFFFFFFFFFFFFFFFFFFFFFFFFFFFFFFFFFFFFFF AND DUP2 MSTORE PUSH1 0x20 ADD SWAP1 DUP2 MSTORE PUSH1 0x20 ADD PUSH1 0x0 KECCAK256 PUSH1 0x0 PUSH2 0x100 EXP DUP2 SLOAD DUP2 PUSH1 0xFF MUL NOT AND SWAP1 DUP4 ISZERO ISZERO MUL OR SWAP1 SSTORE POP PUSH1 0xB PUSH1 0x0 DUP2 SLOAD DUP1 SWAP3 SWAP2 SWAP1 PUSH2 0x10FE SWAP1 PUSH2 0x2031 JUMP JUMPDEST SWAP2 SWAP1 POP SSTORE POP POP JUMP JUMPDEST PUSH1 0x60 PUSH1 0x0 DUP1 SLOAD SWAP1 PUSH2 0x100 EXP SWAP1 DIV PUSH20 0xFFFFFFFFFFFFFFFFFFFFFFFFFFFFFFFFFFFFFFFF AND PUSH20 0xFFFFFFFFFFFFFFFFFFFFFFFFFFFFFFFFFFFFFFFF AND CALLER PUSH20 0xFFFFFFFFFFFFFFFFFFFFFFFFFFFFFFFFFFFFFFFF AND EQ PUSH2 0x1160 JUMPI PUSH1 0x0 DUP1 REVERT JUMPDEST PUSH1 0x0 PUSH1 0x60 PUSH1 0x0 DUP1 JUMPDEST PUSH1 0xC DUP1 SLOAD SWAP1 POP DUP2 LT ISZERO PUSH2 0x1370 JUMPI DUP4 PUSH1 0xC DUP3 DUP2 SLOAD DUP2 LT PUSH2 0x118A JUMPI PUSH2 0x1189 PUSH2 0x1865 JUMP JUMPDEST JUMPDEST SWAP1 PUSH1 0x0 MSTORE PUSH1 0x20 PUSH1 0x0 KECCAK256 SWAP1 PUSH1 0x3 MUL ADD PUSH1 0x1 ADD SLOAD GT ISZERO PUSH2 0x123F JUMPI PUSH1 0xC DUP2 DUP2 SLOAD DUP2 LT PUSH2 0x11B6 JUMPI PUSH2 0x11B5 PUSH2 0x1865 JUMP JUMPDEST JUMPDEST SWAP1 PUSH1 0x0 MSTORE PUSH1 0x20 PUSH1 0x0 KECCAK256 SWAP1 PUSH1 0x3 MUL ADD PUSH1 0x1 ADD SLOAD SWAP4 POP PUSH1 0x1 SWAP2 POP DUP2 PUSH8 0xFFFFFFFFFFFFFFFF DUP2 GT ISZERO PUSH2 0x11E8 JUMPI PUSH2 0x11E7 PUSH2 0x190A JUMP JUMPDEST JUMPDEST PUSH1 0x40 MLOAD SWAP1 DUP1 DUP3 MSTORE DUP1 PUSH1 0x20 MUL PUSH1 0x20 ADD DUP3 ADD PUSH1 0x40 MSTORE DUP1 ISZERO PUSH2 0x1216 JUMPI DUP2 PUSH1 0x20 ADD PUSH1 0x20 DUP3 MUL DUP1 CALLDATASIZE DUP4 CALLDATACOPY DUP1 DUP3 ADD SWAP2 POP POP SWAP1 POP JUMPDEST POP SWAP3 POP DUP1 DUP4 PUSH1 0x0 DUP2 MLOAD DUP2 LT PUSH2 0x122E JUMPI PUSH2 0x122D PUSH2 0x1865 JUMP JUMPDEST JUMPDEST PUSH1 0x20 MUL PUSH1 0x20 ADD ADD DUP2 DUP2 MSTORE POP POP PUSH2 0x135D JUMP JUMPDEST DUP4 PUSH1 0xC DUP3 DUP2 SLOAD DUP2 LT PUSH2 0x1254 JUMPI PUSH2 0x1253 PUSH2 0x1865 JUMP JUMPDEST JUMPDEST SWAP1 PUSH1 0x0 MSTORE PUSH1 0x20 PUSH1 0x0 KECCAK256 SWAP1 PUSH1 0x3 MUL ADD PUSH1 0x1 ADD SLOAD SUB PUSH2 0x135C JUMPI DUP2 DUP1 PUSH2 0x1276 SWAP1 PUSH2 0x2031 JUMP JUMPDEST SWAP3 POP POP PUSH1 0x0 DUP3 PUSH8 0xFFFFFFFFFFFFFFFF DUP2 GT ISZERO PUSH2 0x1295 JUMPI PUSH2 0x1294 PUSH2 0x190A JUMP JUMPDEST JUMPDEST PUSH1 0x40 MLOAD SWAP1 DUP1 DUP3 MSTORE DUP1 PUSH1 0x20 MUL PUSH1 0x20 ADD DUP3 ADD PUSH1 0x40 MSTORE DUP1 ISZERO PUSH2 0x12C3 JUMPI DUP2 PUSH1 0x20 ADD PUSH1 0x20 DUP3 MUL DUP1 CALLDATASIZE DUP4 CALLDATACOPY DUP1 DUP3 ADD SWAP2 POP POP SWAP1 POP JUMPDEST POP SWAP1 POP PUSH1 0x0 JUMPDEST PUSH1 0x1 DUP5 PUSH2 0x12D6 SWAP2 SWAP1 PUSH2 0x2151 JUMP JUMPDEST DUP2 LT ISZERO PUSH2 0x132A JUMPI DUP5 DUP2 DUP2 MLOAD DUP2 LT PUSH2 0x12F0 JUMPI PUSH2 0x12EF PUSH2 0x1865 JUMP JUMPDEST JUMPDEST PUSH1 0x20 MUL PUSH1 0x20 ADD ADD MLOAD DUP3 DUP3 DUP2 MLOAD DUP2 LT PUSH2 0x130B JUMPI PUSH2 0x130A PUSH2 0x1865 JUMP JUMPDEST JUMPDEST PUSH1 0x20 MUL PUSH1 0x20 ADD ADD DUP2 DUP2 MSTORE POP POP DUP1 DUP1 PUSH2 0x1322 SWAP1 PUSH2 0x2031 JUMP JUMPDEST SWAP2 POP POP PUSH2 0x12C9 JUMP JUMPDEST POP DUP2 DUP2 PUSH1 0x1 DUP6 PUSH2 0x133A SWAP2 SWAP1 PUSH2 0x2151 JUMP JUMPDEST DUP2 MLOAD DUP2 LT PUSH2 0x134B JUMPI PUSH2 0x134A PUSH2 0x1865 JUMP JUMPDEST JUMPDEST PUSH1 0x20 MUL PUSH1 0x20 ADD ADD DUP2 DUP2 MSTORE POP POP DUP1 SWAP4 POP POP JUMPDEST JUMPDEST DUP1 DUP1 PUSH2 0x1368 SWAP1 PUSH2 0x2031 JUMP JUMPDEST SWAP2 POP POP PUSH2 0x1168 JUMP JUMPDEST POP DUP2 SWAP4 POP POP POP POP SWAP1 JUMP JUMPDEST PUSH1 0x0 PUSH20 0xFFFFFFFFFFFFFFFFFFFFFFFFFFFFFFFFFFFFFFFF DUP3 AND SWAP1 POP SWAP2 SWAP1 POP JUMP JUMPDEST PUSH1 0x0 PUSH2 0x13A5 DUP3 PUSH2 0x137A JUMP JUMPDEST SWAP1 POP SWAP2 SWAP1 POP JUMP JUMPDEST PUSH2 0x13B5 DUP2 PUSH2 0x139A JUMP JUMPDEST DUP3 MSTORE POP POP JUMP JUMPDEST PUSH1 0x0 PUSH1 0x20 DUP3 ADD SWAP1 POP PUSH2 0x13D0 PUSH1 0x0 DUP4 ADD DUP5 PUSH2 0x13AC JUMP JUMPDEST SWAP3 SWAP2 POP POP JUMP JUMPDEST PUSH1 0x0 PUSH2 0x13E1 DUP3 PUSH2 0x137A JUMP JUMPDEST SWAP1 POP SWAP2 SWAP1 POP JUMP JUMPDEST PUSH2 0x13F1 DUP2 PUSH2 0x13D6 JUMP JUMPDEST DUP3 MSTORE POP POP JUMP JUMPDEST PUSH1 0x0 DUP2 SWAP1 POP SWAP2 SWAP1 POP JUMP JUMPDEST PUSH2 0x140A DUP2 PUSH2 0x13F7 JUMP JUMPDEST DUP3 MSTORE POP POP JUMP JUMPDEST PUSH1 0x0 DUP2 ISZERO ISZERO SWAP1 POP SWAP2 SWAP1 POP JUMP JUMPDEST PUSH2 0x1425 DUP2 PUSH2 0x1410 JUMP JUMPDEST DUP3 MSTORE POP POP JUMP JUMPDEST PUSH1 0x0 PUSH2 0x100 DUP3 ADD SWAP1 POP PUSH2 0x1441 PUSH1 0x0 DUP4 ADD DUP12 PUSH2 0x13E8 JUMP JUMPDEST PUSH2 0x144E PUSH1 0x20 DUP4 ADD DUP11 PUSH2 0x1401 JUMP JUMPDEST PUSH2 0x145B PUSH1 0x40 DUP4 ADD DUP10 PUSH2 0x1401 JUMP JUMPDEST PUSH2 0x1468 PUSH1 0x60 DUP4 ADD DUP9 PUSH2 0x1401 JUMP JUMPDEST PUSH2 0x1475 PUSH1 0x80 DUP4 ADD DUP8 PUSH2 0x141C JUMP JUMPDEST PUSH2 0x1482 PUSH1 0xA0 DUP4 ADD DUP7 PUSH2 0x13E8 JUMP JUMPDEST PUSH2 0x148F PUSH1 0xC0 DUP4 ADD DUP6 PUSH2 0x1401 JUMP JUMPDEST PUSH2 0x149C PUSH1 0xE0 DUP4 ADD DUP5 PUSH2 0x1401 JUMP JUMPDEST SWAP10 SWAP9 POP POP POP POP POP POP POP POP POP JUMP JUMPDEST PUSH1 0x0 PUSH1 0x20 DUP3 ADD SWAP1 POP PUSH2 0x14BE PUSH1 0x0 DUP4 ADD DUP5 PUSH2 0x1401 JUMP JUMPDEST SWAP3 SWAP2 POP POP JUMP JUMPDEST PUSH1 0x0 DUP1 REVERT JUMPDEST PUSH2 0x14D2 DUP2 PUSH2 0x13F7 JUMP JUMPDEST DUP2 EQ PUSH2 0x14DD JUMPI PUSH1 0x0 DUP1 REVERT JUMPDEST POP JUMP JUMPDEST PUSH1 0x0 DUP2 CALLDATALOAD SWAP1 POP PUSH2 0x14EF DUP2 PUSH2 0x14C9 JUMP JUMPDEST SWAP3 SWAP2 POP POP JUMP JUMPDEST PUSH1 0x0 PUSH1 0x20 DUP3 DUP5 SUB SLT ISZERO PUSH2 0x150B JUMPI PUSH2 0x150A PUSH2 0x14C4 JUMP JUMPDEST JUMPDEST PUSH1 0x0 PUSH2 0x1519 DUP5 DUP3 DUP6 ADD PUSH2 0x14E0 JUMP JUMPDEST SWAP2 POP POP SWAP3 SWAP2 POP POP JUMP JUMPDEST PUSH2 0x152B DUP2 PUSH2 0x13D6 JUMP JUMPDEST DUP2 EQ PUSH2 0x1536 JUMPI PUSH1 0x0 DUP1 REVERT JUMPDEST POP JUMP JUMPDEST PUSH1 0x0 DUP2 CALLDATALOAD SWAP1 POP PUSH2 0x1548 DUP2 PUSH2 0x1522 JUMP JUMPDEST SWAP3 SWAP2 POP POP JUMP JUMPDEST PUSH1 0x0 PUSH1 0x20 DUP3 DUP5 SUB SLT ISZERO PUSH2 0x1564 JUMPI PUSH2 0x1563 PUSH2 0x14C4 JUMP JUMPDEST JUMPDEST PUSH1 0x0 PUSH2 0x1572 DUP5 DUP3 DUP6 ADD PUSH2 0x1539 JUMP JUMPDEST SWAP2 POP POP SWAP3 SWAP2 POP POP JUMP JUMPDEST PUSH1 0x0 PUSH1 0x20 DUP3 ADD SWAP1 POP PUSH2 0x1590 PUSH1 0x0 DUP4 ADD DUP5 PUSH2 0x141C JUMP JUMPDEST SWAP3 SWAP2 POP POP JUMP JUMPDEST PUSH1 0x0 DUP2 MLOAD SWAP1 POP SWAP2 SWAP1 POP JUMP JUMPDEST PUSH1 0x0 DUP3 DUP3 MSTORE PUSH1 0x20 DUP3 ADD SWAP1 POP SWAP3 SWAP2 POP POP JUMP JUMPDEST PUSH1 0x0 JUMPDEST DUP4 DUP2 LT ISZERO PUSH2 0x15D0 JUMPI DUP1 DUP3 ADD MLOAD DUP2 DUP5 ADD MSTORE PUSH1 0x20 DUP2 ADD SWAP1 POP PUSH2 0x15B5 JUMP JUMPDEST PUSH1 0x0 DUP5 DUP5 ADD MSTORE POP POP POP POP JUMP JUMPDEST PUSH1 0x0 PUSH1 0x1F NOT PUSH1 0x1F DUP4 ADD AND SWAP1 POP SWAP2 SWAP1 POP JUMP JUMPDEST PUSH1 0x0 PUSH2 0x15F8 DUP3 PUSH2 0x1596 JUMP JUMPDEST PUSH2 0x1602 DUP2 DUP6 PUSH2 0x15A1 JUMP JUMPDEST SWAP4 POP PUSH2 0x1612 DUP2 DUP6 PUSH1 0x20 DUP7 ADD PUSH2 0x15B2 JUMP JUMPDEST PUSH2 0x161B DUP2 PUSH2 0x15DC JUMP JUMPDEST DUP5 ADD SWAP2 POP POP SWAP3 SWAP2 POP POP JUMP JUMPDEST PUSH1 0x0 DUP2 MLOAD SWAP1 POP SWAP2 SWAP1 POP JUMP JUMPDEST PUSH1 0x0 DUP3 DUP3 MSTORE PUSH1 0x20 DUP3 ADD SWAP1 POP SWAP3 SWAP2 POP POP JUMP JUMPDEST PUSH1 0x0 DUP2 SWAP1 POP PUSH1 0x20 DUP3 ADD SWAP1 POP SWAP2 SWAP1 POP JUMP JUMPDEST PUSH2 0x165B DUP2 PUSH2 0x139A JUMP JUMPDEST DUP3 MSTORE POP POP JUMP JUMPDEST PUSH1 0x0 PUSH2 0x166D DUP4 DUP4 PUSH2 0x1652 JUMP JUMPDEST PUSH1 0x20 DUP4 ADD SWAP1 POP SWAP3 SWAP2 POP POP JUMP JUMPDEST PUSH1 0x0 PUSH1 0x20 DUP3 ADD SWAP1 POP SWAP2 SWAP1 POP JUMP JUMPDEST PUSH1 0x0 PUSH2 0x1691 DUP3 PUSH2 0x1626 JUMP JUMPDEST PUSH2 0x169B DUP2 DUP6 PUSH2 0x1631 JUMP JUMPDEST SWAP4 POP PUSH2 0x16A6 DUP4 PUSH2 0x1642 JUMP JUMPDEST DUP1 PUSH1 0x0 JUMPDEST DUP4 DUP2 LT ISZERO PUSH2 0x16D7 JUMPI DUP2 MLOAD PUSH2 0x16BE DUP9 DUP3 PUSH2 0x1661 JUMP JUMPDEST SWAP8 POP PUSH2 0x16C9 DUP4 PUSH2 0x1679 JUMP JUMPDEST SWAP3 POP POP PUSH1 0x1 DUP2 ADD SWAP1 POP PUSH2 0x16AA JUMP JUMPDEST POP DUP6 SWAP4 POP POP POP POP SWAP3 SWAP2 POP POP JUMP JUMPDEST PUSH1 0x0 PUSH1 0x60 DUP3 ADD SWAP1 POP DUP2 DUP2 SUB PUSH1 0x0 DUP4 ADD MSTORE PUSH2 0x16FE DUP2 DUP7 PUSH2 0x15ED JUMP JUMPDEST SWAP1 POP PUSH2 0x170D PUSH1 0x20 DUP4 ADD DUP6 PUSH2 0x1401 JUMP JUMPDEST DUP2 DUP2 SUB PUSH1 0x40 DUP4 ADD MSTORE PUSH2 0x171F DUP2 DUP5 PUSH2 0x1686 JUMP JUMPDEST SWAP1 POP SWAP5 SWAP4 POP POP POP POP JUMP JUMPDEST PUSH1 0x0 PUSH1 0x20 DUP3 ADD SWAP1 POP PUSH2 0x173E PUSH1 0x0 DUP4 ADD DUP5 PUSH2 0x13E8 JUMP JUMPDEST SWAP3 SWAP2 POP POP JUMP JUMPDEST PUSH1 0x0 PUSH1 0x40 DUP3 ADD SWAP1 POP DUP2 DUP2 SUB PUSH1 0x0 DUP4 ADD MSTORE PUSH2 0x175E DUP2 DUP6 PUSH2 0x15ED JUMP JUMPDEST SWAP1 POP PUSH2 0x176D PUSH1 0x20 DUP4 ADD DUP5 PUSH2 0x1401 JUMP JUMPDEST SWAP4 SWAP3 POP POP POP JUMP JUMPDEST PUSH1 0x0 PUSH1 0x20 DUP3 ADD SWAP1 POP DUP2 DUP2 SUB PUSH1 0x0 DUP4 ADD MSTORE PUSH2 0x178E DUP2 DUP5 PUSH2 0x15ED JUMP JUMPDEST SWAP1 POP SWAP3 SWAP2 POP POP JUMP JUMPDEST PUSH32 0x566F74696E672048617320456E64656400000000000000000000000000000000 PUSH1 0x0 DUP3 ADD MSTORE POP JUMP JUMPDEST PUSH1 0x0 PUSH2 0x17CC PUSH1 0x10 DUP4 PUSH2 0x15A1 JUMP JUMPDEST SWAP2 POP PUSH2 0x17D7 DUP3 PUSH2 0x1796 JUMP JUMPDEST PUSH1 0x20 DUP3 ADD SWAP1 POP SWAP2 SWAP1 POP JUMP JUMPDEST PUSH1 0x0 PUSH1 0x20 DUP3 ADD SWAP1 POP DUP2 DUP2 SUB PUSH1 0x0 DUP4 ADD MSTORE PUSH2 0x17FB DUP2 PUSH2 0x17BF JUMP JUMPDEST SWAP1 POP SWAP2 SWAP1 POP JUMP JUMPDEST PUSH32 0x4E487B7100000000000000000000000000000000000000000000000000000000 PUSH1 0x0 MSTORE PUSH1 0x11 PUSH1 0x4 MSTORE PUSH1 0x24 PUSH1 0x0 REVERT JUMPDEST PUSH1 0x0 PUSH2 0x183C DUP3 PUSH2 0x13F7 JUMP JUMPDEST SWAP2 POP PUSH2 0x1847 DUP4 PUSH2 0x13F7 JUMP JUMPDEST SWAP3 POP DUP3 DUP3 ADD SWAP1 POP DUP1 DUP3 GT ISZERO PUSH2 0x185F JUMPI PUSH2 0x185E PUSH2 0x1802 JUMP JUMPDEST JUMPDEST SWAP3 SWAP2 POP POP JUMP JUMPDEST PUSH32 0x4E487B7100000000000000000000000000000000000000000000000000000000 PUSH1 0x0 MSTORE PUSH1 0x32 PUSH1 0x4 MSTORE PUSH1 0x24 PUSH1 0x0 REVERT JUMPDEST PUSH32 0x4E487B7100000000000000000000000000000000000000000000000000000000 PUSH1 0x0 MSTORE PUSH1 0x22 PUSH1 0x4 MSTORE PUSH1 0x24 PUSH1 0x0 REVERT JUMPDEST PUSH1 0x0 PUSH1 0x2 DUP3 DIV SWAP1 POP PUSH1 0x1 DUP3 AND DUP1 PUSH2 0x18DB JUMPI PUSH1 0x7F DUP3 AND SWAP2 POP JUMPDEST PUSH1 0x20 DUP3 LT DUP2 SUB PUSH2 0x18EE JUMPI PUSH2 0x18ED PUSH2 0x1894 JUMP JUMPDEST JUMPDEST POP SWAP2 SWAP1 POP JUMP JUMPDEST PUSH1 0x0 DUP2 SLOAD SWAP1 POP PUSH2 0x1903 DUP2 PUSH2 0x18C3 JUMP JUMPDEST SWAP1 POP SWAP2 SWAP1 POP JUMP JUMPDEST PUSH32 0x4E487B7100000000000000000000000000000000000000000000000000000000 PUSH1 0x0 MSTORE PUSH1 0x41 PUSH1 0x4 MSTORE PUSH1 0x24 PUSH1 0x0 REVERT JUMPDEST PUSH1 0x0 DUP2 SWAP1 POP DUP2 PUSH1 0x0 MSTORE PUSH1 0x20 PUSH1 0x0 KECCAK256 SWAP1 POP SWAP2 SWAP1 POP JUMP JUMPDEST PUSH1 0x0 DUP2 SWAP1 POP DUP2 PUSH1 0x0 MSTORE PUSH1 0x20 PUSH1 0x0 KECCAK256 SWAP1 POP SWAP2 SWAP1 POP JUMP JUMPDEST PUSH1 0x0 PUSH1 0x20 PUSH1 0x1F DUP4 ADD DIV SWAP1 POP SWAP2 SWAP1 POP JUMP JUMPDEST PUSH1 0x0 DUP3 DUP3 SHL SWAP1 POP SWAP3 SWAP2 POP POP JUMP JUMPDEST PUSH1 0x0 PUSH1 0x8 DUP4 MUL PUSH2 0x19B0 PUSH32 0xFFFFFFFFFFFFFFFFFFFFFFFFFFFFFFFFFFFFFFFFFFFFFFFFFFFFFFFFFFFFFFFF DUP3 PUSH2 0x1973 JUMP JUMPDEST PUSH2 0x19BA DUP7 DUP4 PUSH2 0x1973 JUMP JUMPDEST SWAP6 POP DUP1 NOT DUP5 AND SWAP4 POP DUP1 DUP7 AND DUP5 OR SWAP3 POP POP POP SWAP4 SWAP3 POP POP POP JUMP JUMPDEST PUSH1 0x0 DUP2 SWAP1 POP SWAP2 SWAP1 POP JUMP JUMPDEST PUSH1 0x0 PUSH2 0x19F7 PUSH2 0x19F2 PUSH2 0x19ED DUP5 PUSH2 0x13F7 JUMP JUMPDEST PUSH2 0x19D2 JUMP JUMPDEST PUSH2 0x13F7 JUMP JUMPDEST SWAP1 POP SWAP2 SWAP1 POP JUMP JUMPDEST PUSH1 0x0 DUP2 SWAP1 POP SWAP2 SWAP1 POP JUMP JUMPDEST PUSH2 0x1A11 DUP4 PUSH2 0x19DC JUMP JUMPDEST PUSH2 0x1A25 PUSH2 0x1A1D DUP3 PUSH2 0x19FE JUMP JUMPDEST DUP5 DUP5 SLOAD PUSH2 0x1980 JUMP JUMPDEST DUP3 SSTORE POP POP POP POP JUMP JUMPDEST PUSH1 0x0 SWAP1 JUMP JUMPDEST PUSH2 0x1A3A PUSH2 0x1A2D JUMP JUMPDEST PUSH2 0x1A45 DUP2 DUP5 DUP5 PUSH2 0x1A08 JUMP JUMPDEST POP POP POP JUMP JUMPDEST JUMPDEST DUP2 DUP2 LT ISZERO PUSH2 0x1A69 JUMPI PUSH2 0x1A5E PUSH1 0x0 DUP3 PUSH2 0x1A32 JUMP JUMPDEST PUSH1 0x1 DUP2 ADD SWAP1 POP PUSH2 0x1A4B JUMP JUMPDEST POP POP JUMP JUMPDEST PUSH1 0x1F DUP3 GT ISZERO PUSH2 0x1AAE JUMPI PUSH2 0x1A7F DUP2 PUSH2 0x1939 JUMP JUMPDEST PUSH2 0x1A88 DUP5 PUSH2 0x1963 JUMP JUMPDEST DUP2 ADD PUSH1 0x20 DUP6 LT ISZERO PUSH2 0x1A97 JUMPI DUP2 SWAP1 POP JUMPDEST PUSH2 0x1AAB PUSH2 0x1AA3 DUP6 PUSH2 0x1963 JUMP JUMPDEST DUP4 ADD DUP3 PUSH2 0x1A4A JUMP JUMPDEST POP POP JUMPDEST POP POP POP JUMP JUMPDEST PUSH1 0x0 DUP3 DUP3 SHR SWAP1 POP SWAP3 SWAP2 POP POP JUMP JUMPDEST PUSH1 0x0 PUSH2 0x1AD1 PUSH1 0x0 NOT DUP5 PUSH1 0x8 MUL PUSH2 0x1AB3 JUMP JUMPDEST NOT DUP1 DUP4 AND SWAP2 POP POP SWAP3 SWAP2 POP POP JUMP JUMPDEST PUSH1 0x0 PUSH2 0x1AEA DUP4 DUP4 PUSH2 0x1AC0 JUMP JUMPDEST SWAP2 POP DUP3 PUSH1 0x2 MUL DUP3 OR SWAP1 POP SWAP3 SWAP2 POP POP JUMP JUMPDEST DUP2 DUP2 SUB PUSH2 0x1B08 JUMPI POP POP PUSH2 0x1BE0 JUMP JUMPDEST PUSH2 0x1B11 DUP3 PUSH2 0x18F4 JUMP JUMPDEST PUSH8 0xFFFFFFFFFFFFFFFF DUP2 GT ISZERO PUSH2 0x1B2A JUMPI PUSH2 0x1B29 PUSH2 0x190A JUMP JUMPDEST JUMPDEST PUSH2 0x1B34 DUP3 SLOAD PUSH2 0x18C3 JUMP JUMPDEST PUSH2 0x1B3F DUP3 DUP3 DUP6 PUSH2 0x1A6D JUMP JUMPDEST PUSH1 0x0 PUSH1 0x1F DUP4 GT PUSH1 0x1 DUP2 EQ PUSH2 0x1B6E JUMPI PUSH1 0x0 DUP5 ISZERO PUSH2 0x1B5C JUMPI DUP3 DUP8 ADD SLOAD SWAP1 POP JUMPDEST PUSH2 0x1B66 DUP6 DUP3 PUSH2 0x1ADE JUMP JUMPDEST DUP7 SSTORE POP PUSH2 0x1BD9 JUMP JUMPDEST PUSH1 0x1F NOT DUP5 AND PUSH2 0x1B7C DUP8 PUSH2 0x194E JUMP JUMPDEST SWAP7 POP PUSH2 0x1B87 DUP7 PUSH2 0x1939 JUMP JUMPDEST PUSH1 0x0 JUMPDEST DUP3 DUP2 LT ISZERO PUSH2 0x1BAF JUMPI DUP5 DUP10 ADD SLOAD DUP3 SSTORE PUSH1 0x1 DUP3 ADD SWAP2 POP PUSH1 0x1 DUP6 ADD SWAP5 POP PUSH1 0x20 DUP2 ADD SWAP1 POP PUSH2 0x1B8A JUMP JUMPDEST DUP7 DUP4 LT ISZERO PUSH2 0x1BCC JUMPI DUP5 DUP10 ADD SLOAD PUSH2 0x1BC8 PUSH1 0x1F DUP10 AND DUP3 PUSH2 0x1AC0 JUMP JUMPDEST DUP4 SSTORE POP JUMPDEST PUSH1 0x1 PUSH1 0x2 DUP9 MUL ADD DUP9 SSTORE POP POP POP JUMPDEST POP POP POP POP POP POP JUMPDEST JUMP JUMPDEST PUSH1 0x0 DUP2 SWAP1 POP SWAP2 SWAP1 POP JUMP JUMPDEST PUSH2 0x1BFD PUSH2 0x1BF8 DUP3 PUSH2 0x13F7 JUMP JUMPDEST PUSH2 0x1BE2 JUMP JUMPDEST DUP3 MSTORE POP POP JUMP JUMPDEST PUSH1 0x0 DUP2 SLOAD SWAP1 POP SWAP2 SWAP1 POP JUMP JUMPDEST PUSH1 0x0 DUP2 SWAP1 POP SWAP3 SWAP2 POP POP JUMP JUMPDEST PUSH1 0x0 DUP2 SWAP1 POP DUP2 PUSH1 0x0 MSTORE PUSH1 0x20 PUSH1 0x0 KECCAK256 SWAP1 POP SWAP2 SWAP1 POP JUMP JUMPDEST PUSH2 0x1C37 DUP2 PUSH2 0x139A JUMP JUMPDEST DUP3 MSTORE POP POP JUMP JUMPDEST PUSH1 0x0 PUSH2 0x1C49 DUP4 DUP4 PUSH2 0x1C2E JUMP JUMPDEST PUSH1 0x20 DUP4 ADD SWAP1 POP SWAP3 SWAP2 POP POP JUMP JUMPDEST PUSH1 0x0 DUP2 PUSH1 0x0 SHR SWAP1 POP SWAP2 SWAP1 POP JUMP JUMPDEST PUSH1 0x0 PUSH20 0xFFFFFFFFFFFFFFFFFFFFFFFFFFFFFFFFFFFFFFFF DUP3 AND SWAP1 POP SWAP2 SWAP1 POP JUMP JUMPDEST PUSH1 0x0 PUSH2 0x1C95 PUSH2 0x1C90 DUP4 PUSH2 0x1C55 JUMP JUMPDEST PUSH2 0x1C62 JUMP JUMPDEST SWAP1 POP SWAP2 SWAP1 POP JUMP JUMPDEST PUSH1 0x0 PUSH2 0x1CA8 DUP3 SLOAD PUSH2 0x1C82 JUMP JUMPDEST SWAP1 POP SWAP2 SWAP1 POP JUMP JUMPDEST PUSH1 0x0 PUSH1 0x1 DUP3 ADD SWAP1 POP SWAP2 SWAP1 POP JUMP JUMPDEST PUSH1 0x0 PUSH2 0x1CC7 DUP3 PUSH2 0x1C03 JUMP JUMPDEST PUSH2 0x1CD1 DUP2 DUP6 PUSH2 0x1C0E JUMP JUMPDEST SWAP4 POP PUSH2 0x1CDC DUP4 PUSH2 0x1C19 JUMP JUMPDEST DUP1 PUSH1 0x0 JUMPDEST DUP4 DUP2 LT ISZERO PUSH2 0x1D14 JUMPI PUSH2 0x1CF1 DUP3 PUSH2 0x1C9C JUMP JUMPDEST PUSH2 0x1CFB DUP9 DUP3 PUSH2 0x1C3D JUMP JUMPDEST SWAP8 POP PUSH2 0x1D06 DUP4 PUSH2 0x1CAF JUMP JUMPDEST SWAP3 POP POP PUSH1 0x1 DUP2 ADD SWAP1 POP PUSH2 0x1CE0 JUMP JUMPDEST POP DUP6 SWAP4 POP POP POP POP SWAP3 SWAP2 POP POP JUMP JUMPDEST PUSH1 0x0 PUSH2 0x1D2D DUP3 DUP6 PUSH2 0x1BEC JUMP JUMPDEST PUSH1 0x20 DUP3 ADD SWAP2 POP PUSH2 0x1D3D DUP3 DUP5 PUSH2 0x1CBC JUMP JUMPDEST SWAP2 POP DUP2 SWAP1 POP SWAP4 SWAP3 POP POP POP JUMP JUMPDEST PUSH32 0x4E487B7100000000000000000000000000000000000000000000000000000000 PUSH1 0x0 MSTORE PUSH1 0x12 PUSH1 0x4 MSTORE PUSH1 0x24 PUSH1 0x0 REVERT JUMPDEST PUSH1 0x0 PUSH2 0x1D83 DUP3 PUSH2 0x13F7 JUMP JUMPDEST SWAP2 POP PUSH2 0x1D8E DUP4 PUSH2 0x13F7 JUMP JUMPDEST SWAP3 POP DUP3 PUSH2 0x1D9E JUMPI PUSH2 0x1D9D PUSH2 0x1D49 JUMP JUMPDEST JUMPDEST DUP3 DUP3 MOD SWAP1 POP SWAP3 SWAP2 POP POP JUMP JUMPDEST PUSH1 0x0 DUP2 SWAP1 POP SWAP3 SWAP2 POP POP JUMP JUMPDEST POP JUMP JUMPDEST PUSH1 0x0 PUSH2 0x1DC4 PUSH1 0x0 DUP4 PUSH2 0x1DA9 JUMP JUMPDEST SWAP2 POP PUSH2 0x1DCF DUP3 PUSH2 0x1DB4 JUMP JUMPDEST PUSH1 0x0 DUP3 ADD SWAP1 POP SWAP2 SWAP1 POP JUMP JUMPDEST PUSH1 0x0 PUSH2 0x1DE5 DUP3 PUSH2 0x1DB7 JUMP JUMPDEST SWAP2 POP DUP2 SWAP1 POP SWAP2 SWAP1 POP JUMP JUMPDEST PUSH32 0x4661696C656420746F2073656E64204574686572000000000000000000000000 PUSH1 0x0 DUP3 ADD MSTORE POP JUMP JUMPDEST PUSH1 0x0 PUSH2 0x1E25 PUSH1 0x14 DUP4 PUSH2 0x15A1 JUMP JUMPDEST SWAP2 POP PUSH2 0x1E30 DUP3 PUSH2 0x1DEF JUMP JUMPDEST PUSH1 0x20 DUP3 ADD SWAP1 POP SWAP2 SWAP1 POP JUMP JUMPDEST PUSH1 0x0 PUSH1 0x20 DUP3 ADD SWAP1 POP DUP2 DUP2 SUB PUSH1 0x0 DUP4 ADD MSTORE PUSH2 0x1E54 DUP2 PUSH2 0x1E18 JUMP JUMPDEST SWAP1 POP SWAP2 SWAP1 POP JUMP JUMPDEST PUSH32 0x4D616E616765722043616E204E6F7420566F7465000000000000000000000000 PUSH1 0x0 DUP3 ADD MSTORE POP JUMP JUMPDEST PUSH1 0x0 PUSH2 0x1E91 PUSH1 0x14 DUP4 PUSH2 0x15A1 JUMP JUMPDEST SWAP2 POP PUSH2 0x1E9C DUP3 PUSH2 0x1E5B JUMP JUMPDEST PUSH1 0x20 DUP3 ADD SWAP1 POP SWAP2 SWAP1 POP JUMP JUMPDEST PUSH1 0x0 PUSH1 0x20 DUP3 ADD SWAP1 POP DUP2 DUP2 SUB PUSH1 0x0 DUP4 ADD MSTORE PUSH2 0x1EC0 DUP2 PUSH2 0x1E84 JUMP JUMPDEST SWAP1 POP SWAP2 SWAP1 POP JUMP JUMPDEST PUSH32 0x596F752043616E6E6F742054616B65205061727420696E205468697320566F74 PUSH1 0x0 DUP3 ADD MSTORE PUSH32 0x6500000000000000000000000000000000000000000000000000000000000000 PUSH1 0x20 DUP3 ADD MSTORE POP JUMP JUMPDEST PUSH1 0x0 PUSH2 0x1F23 PUSH1 0x21 DUP4 PUSH2 0x15A1 JUMP JUMPDEST SWAP2 POP PUSH2 0x1F2E DUP3 PUSH2 0x1EC7 JUMP JUMPDEST PUSH1 0x40 DUP3 ADD SWAP1 POP SWAP2 SWAP1 POP JUMP JUMPDEST PUSH1 0x0 PUSH1 0x20 DUP3 ADD SWAP1 POP DUP2 DUP2 SUB PUSH1 0x0 DUP4 ADD MSTORE PUSH2 0x1F52 DUP2 PUSH2 0x1F16 JUMP JUMPDEST SWAP1 POP SWAP2 SWAP1 POP JUMP JUMPDEST PUSH32 0x596F752043616E204F6E6C7920566F7465204F6E636500000000000000000000 PUSH1 0x0 DUP3 ADD MSTORE POP JUMP JUMPDEST PUSH1 0x0 PUSH2 0x1F8F PUSH1 0x16 DUP4 PUSH2 0x15A1 JUMP JUMPDEST SWAP2 POP PUSH2 0x1F9A DUP3 PUSH2 0x1F59 JUMP JUMPDEST PUSH1 0x20 DUP3 ADD SWAP1 POP SWAP2 SWAP1 POP JUMP JUMPDEST PUSH1 0x0 PUSH1 0x20 DUP3 ADD SWAP1 POP DUP2 DUP2 SUB PUSH1 0x0 DUP4 ADD MSTORE PUSH2 0x1FBE DUP2 PUSH2 0x1F82 JUMP JUMPDEST SWAP1 POP SWAP2 SWAP1 POP JUMP JUMPDEST PUSH32 0x596F752043686F7365206174205468652057726F6E672054696D650000000000 PUSH1 0x0 DUP3 ADD MSTORE POP JUMP JUMPDEST PUSH1 0x0 PUSH2 0x1FFB PUSH1 0x1B DUP4 PUSH2 0x15A1 JUMP JUMPDEST SWAP2 POP PUSH2 0x2006 DUP3 PUSH2 0x1FC5 JUMP JUMPDEST PUSH1 0x20 DUP3 ADD SWAP1 POP SWAP2 SWAP1 POP JUMP JUMPDEST PUSH1 0x0 PUSH1 0x20 DUP3 ADD SWAP1 POP DUP2 DUP2 SUB PUSH1 0x0 DUP4 ADD MSTORE PUSH2 0x202A DUP2 PUSH2 0x1FEE JUMP JUMPDEST SWAP1 POP SWAP2 SWAP1 POP JUMP JUMPDEST PUSH1 0x0 PUSH2 0x203C DUP3 PUSH2 0x13F7 JUMP JUMPDEST SWAP2 POP PUSH32 0xFFFFFFFFFFFFFFFFFFFFFFFFFFFFFFFFFFFFFFFFFFFFFFFFFFFFFFFFFFFFFFFF DUP3 SUB PUSH2 0x206E JUMPI PUSH2 0x206D PUSH2 0x1802 JUMP JUMPDEST JUMPDEST PUSH1 0x1 DUP3 ADD SWAP1 POP SWAP2 SWAP1 POP JUMP JUMPDEST PUSH32 0x4D616E616765722043616E6E6F7420426520566F746572730000000000000000 PUSH1 0x0 DUP3 ADD MSTORE POP JUMP JUMPDEST PUSH1 0x0 PUSH2 0x20AF PUSH1 0x18 DUP4 PUSH2 0x15A1 JUMP JUMPDEST SWAP2 POP PUSH2 0x20BA DUP3 PUSH2 0x2079 JUMP JUMPDEST PUSH1 0x20 DUP3 ADD SWAP1 POP SWAP2 SWAP1 POP JUMP JUMPDEST PUSH1 0x0 PUSH1 0x20 DUP3 ADD SWAP1 POP DUP2 DUP2 SUB PUSH1 0x0 DUP4 ADD MSTORE PUSH2 0x20DE DUP2 PUSH2 0x20A2 JUMP JUMPDEST SWAP1 POP SWAP2 SWAP1 POP JUMP JUMPDEST PUSH32 0x54686973204164647265737320697320416C7265616479206120566F74657220 PUSH1 0x0 DUP3 ADD MSTORE POP JUMP JUMPDEST PUSH1 0x0 PUSH2 0x211B PUSH1 0x20 DUP4 PUSH2 0x15A1 JUMP JUMPDEST SWAP2 POP PUSH2 0x2126 DUP3 PUSH2 0x20E5 JUMP JUMPDEST PUSH1 0x20 DUP3 ADD SWAP1 POP SWAP2 SWAP1 POP JUMP JUMPDEST PUSH1 0x0 PUSH1 0x20 DUP3 ADD SWAP1 POP DUP2 DUP2 SUB PUSH1 0x0 DUP4 ADD MSTORE PUSH2 0x214A DUP2 PUSH2 0x210E JUMP JUMPDEST SWAP1 POP SWAP2 SWAP1 POP JUMP JUMPDEST PUSH1 0x0 PUSH2 0x215C DUP3 PUSH2 0x13F7 JUMP JUMPDEST SWAP2 POP PUSH2 0x2167 DUP4 PUSH2 0x13F7 JUMP JUMPDEST SWAP3 POP DUP3 DUP3 SUB SWAP1 POP DUP2 DUP2 GT ISZERO PUSH2 0x217F JUMPI PUSH2 0x217E PUSH2 0x1802 JUMP JUMPDEST JUMPDEST SWAP3 SWAP2 POP POP JUMP INVALID LOG2 PUSH5 0x6970667358 0x22 SLT KECCAK256 0x4C 0xAD 0xF9 0xAF PUSH29 0x6A933349B09268E19B59804F16B6BF69B723554E248463056FC5806473 PUSH16 0x6C63430008120033A264697066735822 SLT KECCAK256 JUMPDEST 0xC8 DELEGATECALL 0xDB 0xD6 KECCAK256 BALANCE DUP8 CALLDATACOPY KECCAK256 0xDA DUP8 ADDRESS KECCAK256 RETURNDATACOPY EXP 0xC3 0xAA OR SWAP15 RETURNDATASIZE SWAP8 0xFC CHAINID 0x24 PREVRANDAO SWAP10 DUP10 0xCB EXTCODEHASH 0x49 SHR PUSH5 0x736F6C6343 STOP ADDMOD SLT STOP CALLER "},"gasEstimates":{"creation":{"codeDepositCost":"2679000","executionCost":"49279","totalCost":"2728279"},"external":{"createVoting(uint256,uint256,uint256)":"infinite","creator()":"2492","deployedVotings(uint256)":"4978","getDeployedVotings()":"infinite","minVotingFee()":"2495"}},"methodIdentifiers":{"createVoting(uint256,uint256,uint256)":"08dee7f4","creator()":"02d05d3f","deployedVotings(uint256)":"298f37ab","getDeployedVotings()":"3e04b578","minVotingFee()":"51c69939"}},"storageLayout":{"storage":[{"astId":4,"contract":"Voting.sol:VotingFactory","label":"deployedVotings","offset":0,"slot":"0","type":"t_array(t_address_payable)dyn_storage"},{"astId":6,"contract":"Voting.sol:VotingFactory","label":"creator","offset":0,"slot":"1","type":"t_address"},{"astId":9,"contract":"Voting.sol:VotingFactory","label":"minVotingFee","offset":0,"slot":"2","type":"t_uint256"}],"types":{"t_address":{"encoding":"inplace","label":"address","numberOfBytes":"20"},"t_address_payable":{"encoding":"inplace","label":"address payable","numberOfBytes":"20"},"t_array(t_address_payable)dyn_storage":{"base":"t_address_payable","encoding":"dynamic_array","label":"address payable[]","numberOfBytes":"32"},"t_uint256":{"encoding":"inplace","label":"uint256","numberOfBytes":"32"}}},"userdoc":{"kind":"user","methods":{},"version":1}}