{"abi":[{"inputs":[{"internalType":"uint256","name":"totalChoicesInput","type":"uint256"},{"internalType":"uint256","name":"fromDateInput","type":"uint256"},{"internalType":"uint256","name":"endDateInput","type":"uint256"},{"internalType":"address","name":"creator","type":"address"}],"stateMutability":"nonpayable","type":"constructor"},{"inputs":[{"internalType":"address","name":"newAllowerdVoters","type":"address"}],"name":"addAllowerdVoters","outputs":[],"stateMutability":"nonpayable","type":"function"},{"inputs":[{"internalType":"address","name":"","type":"address"}],"name":"allowedVoters","outputs":[{"internalType":"bool","name":"","type":"bool"}],"stateMutability":"view","type":"function"},{"inputs":[{"internalType":"uint256","name":"","type":"uint256"}],"name":"choicesDatas","outputs":[{"internalType":"string","name":"description","type":"string"},{"internalType":"uint256","name":"receivedVotes","type":"uint256"}],"stateMutability":"view","type":"function"},{"inputs":[],"name":"completed","outputs":[{"internalType":"bool","name":"","type":"bool"}],"stateMutability":"view","type":"function"},{"inputs":[],"name":"completedVoteThenTransfer","outputs":[],"stateMutability":"nonpayable","type":"function"},{"inputs":[],"name":"endDate","outputs":[{"internalType":"uint256","name":"","type":"uint256"}],"stateMutability":"view","type":"function"},{"inputs":[],"name":"fromDate","outputs":[{"internalType":"uint256","name":"","type":"uint256"}],"stateMutability":"view","type":"function"},{"inputs":[],"name":"getContractDetail","outputs":[{"internalType":"address","name":"","type":"address"},{"internalType":"uint256","name":"","type":"uint256"},{"internalType":"uint256","name":"","type":"uint256"},{"internalType":"uint256","name":"","type":"uint256"},{"internalType":"bool","name":"","type":"bool"},{"internalType":"uint256","name":"","type":"uint256"}],"stateMutability":"view","type":"function"},{"inputs":[{"internalType":"uint256","name":"index","type":"uint256"}],"name":"getStructDetail","outputs":[{"internalType":"string","name":"","type":"string"},{"internalType":"uint256","name":"","type":"uint256"},{"internalType":"address payable[]","name":"","type":"address[]"}],"stateMutability":"view","type":"function"},{"inputs":[],"name":"getVotingCount","outputs":[{"internalType":"uint256","name":"","type":"uint256"}],"stateMutability":"view","type":"function"},{"inputs":[],"name":"manager","outputs":[{"internalType":"address","name":"","type":"address"}],"stateMutability":"view","type":"function"},{"inputs":[{"internalType":"uint256","name":"index","type":"uint256"}],"name":"pickChoice","outputs":[],"stateMutability":"nonpayable","type":"function"},{"inputs":[],"name":"totalAllowedVoters","outputs":[{"internalType":"uint256","name":"","type":"uint256"}],"stateMutability":"view","type":"function"},{"inputs":[],"name":"totalChoices","outputs":[{"internalType":"uint256","name":"","type":"uint256"}],"stateMutability":"view","type":"function"},{"inputs":[],"name":"totalVotersVoted","outputs":[{"internalType":"uint256","name":"","type":"uint256"}],"stateMutability":"view","type":"function"},{"inputs":[{"internalType":"address","name":"","type":"address"}],"name":"votedVoters","outputs":[{"internalType":"bool","name":"","type":"bool"}],"stateMutability":"view","type":"function"},{"inputs":[],"name":"winner","outputs":[{"internalType":"string","name":"","type":"string"}],"stateMutability":"view","type":"function"}],"devdoc":{"kind":"dev","methods":{},"version":1},"evm":{"assembly":"    /* \"Voting.sol\":641:6415  contract Voting {... */\n  mstore(0x40, 0x80)\n    /* \"Voting.sol\":1277:1919  constructor(... */\n  callvalue\n  dup1\n  iszero\n  tag_1\n  jumpi\n  0x00\n  dup1\n  revert\ntag_1:\n  pop\n  mload(0x40)\n  sub(codesize, bytecodeSize)\n  dup1\n  bytecodeSize\n  dup4\n  codecopy\n  dup2\n  dup2\n  add\n  0x40\n  mstore\n  dup2\n  add\n  swap1\n  tag_2\n  swap2\n  swap1\n  tag_3\n  jump\t// in\ntag_2:\n    /* \"Voting.sol\":1433:1440  creator */\n  dup1\n    /* \"Voting.sol\":1423:1430  manager */\n  0x00\n  dup1\n    /* \"Voting.sol\":1423:1440  manager = creator */\n  0x0100\n  exp\n  dup2\n  sload\n  dup2\n  0xffffffffffffffffffffffffffffffffffffffff\n  mul\n  not\n  and\n  swap1\n  dup4\n  0xffffffffffffffffffffffffffffffffffffffff\n  and\n  mul\n  or\n  swap1\n  sstore\n  pop\n    /* \"Voting.sol\":1466:1483  totalChoicesInput */\n  dup4\n    /* \"Voting.sol\":1451:1463  totalChoices */\n  0x02\n    /* \"Voting.sol\":1451:1483  totalChoices = totalChoicesInput */\n  dup2\n  swap1\n  sstore\n  pop\n    /* \"Voting.sol\":1505:1518  fromDateInput */\n  dup3\n    /* \"Voting.sol\":1494:1502  fromDate */\n  0x03\n    /* \"Voting.sol\":1494:1518  fromDate = fromDateInput */\n  dup2\n  swap1\n  sstore\n  pop\n    /* \"Voting.sol\":1539:1551  endDateInput */\n  dup2\n    /* \"Voting.sol\":1529:1536  endDate */\n  0x04\n    /* \"Voting.sol\":1529:1551  endDate = endDateInput */\n  dup2\n  swap1\n  sstore\n  pop\n    /* \"Voting.sol\":1569:1575  uint i */\n  0x00\n    /* \"Voting.sol\":1578:1579  1 */\n  0x01\n    /* \"Voting.sol\":1569:1579  uint i = 1 */\n  swap1\n  pop\n    /* \"Voting.sol\":1564:1912  for (uint i = 1; i <= totalChoices; i++) {... */\ntag_6:\n    /* \"Voting.sol\":1586:1598  totalChoices */\n  sload(0x02)\n    /* \"Voting.sol\":1581:1582  i */\n  dup2\n    /* \"Voting.sol\":1581:1598  i <= totalChoices */\n  gt\n    /* \"Voting.sol\":1564:1912  for (uint i = 1; i <= totalChoices; i++) {... */\n  tag_7\n  jumpi\n    /* \"Voting.sol\":1620:1651  choicesData storage choicesdata */\n  0x00\n    /* \"Voting.sol\":1654:1666  choicesDatas */\n  0x0a\n    /* \"Voting.sol\":1654:1673  choicesDatas.push() */\n  0x01\n  dup2\n  0x01\n  dup2\n  sload\n  add\n  dup1\n  dup3\n  sstore\n  dup1\n  swap2\n  pop\n  pop\n  sub\n  swap1\n  0x00\n  mstore\n  keccak256(0x00, 0x20)\n  swap1\n  0x03\n  mul\n  add\n    /* \"Voting.sol\":1620:1673  choicesData storage choicesdata = choicesDatas.push() */\n  swap1\n  pop\n    /* \"Voting.sol\":1768:1780  _uint2str(i) */\n  tag_10\n    /* \"Voting.sol\":1778:1779  i */\n  dup3\n    /* \"Voting.sol\":1768:1777  _uint2str */\n  shl(0x20, tag_11)\n    /* \"Voting.sol\":1768:1780  _uint2str(i) */\n  0x20\n  shr\n  jump\t// in\ntag_10:\n    /* \"Voting.sol\":1739:1781  abi.encodePacked(\"Pilihan \", _uint2str(i)) */\n  add(0x20, mload(0x40))\n  tag_12\n  swap2\n  swap1\n  tag_13\n  jump\t// in\ntag_12:\n  mload(0x40)\n  0x20\n  dup2\n  dup4\n  sub\n  sub\n  dup2\n  mstore\n  swap1\n  0x40\n  mstore\n    /* \"Voting.sol\":1688:1699  choicesdata */\n  dup2\n    /* \"Voting.sol\":1688:1711  choicesdata.description */\n  0x00\n  add\n    /* \"Voting.sol\":1688:1796  choicesdata.description = string(... */\n  swap1\n  dup2\n  tag_14\n  swap2\n  swap1\n  tag_15\n  jump\t// in\ntag_14:\n  pop\n    /* \"Voting.sol\":1839:1840  0 */\n  0x00\n    /* \"Voting.sol\":1811:1822  choicesdata */\n  dup2\n    /* \"Voting.sol\":1811:1836  choicesdata.receivedVotes */\n  0x01\n  add\n    /* \"Voting.sol\":1811:1840  choicesdata.receivedVotes = 0 */\n  dup2\n  swap1\n  sstore\n  pop\n    /* \"Voting.sol\":1898:1899  0 */\n  0x00\n    /* \"Voting.sol\":1876:1900  new address payable[](0) */\n  0xffffffffffffffff\n  dup2\n  gt\n  iszero\n  tag_16\n  jumpi\n  tag_17\n  tag_18\n  jump\t// in\ntag_17:\ntag_16:\n  mload(0x40)\n  swap1\n  dup1\n  dup3\n  mstore\n  dup1\n  0x20\n  mul\n  0x20\n  add\n  dup3\n  add\n  0x40\n  mstore\n  dup1\n  iszero\n  tag_19\n  jumpi\n  dup2\n  0x20\n  add\n  0x20\n  dup3\n  mul\n  dup1\n  calldatasize\n  dup4\n  calldatacopy\n  dup1\n  dup3\n  add\n  swap2\n  pop\n  pop\n  swap1\n  pop\ntag_19:\n  pop\n    /* \"Voting.sol\":1855:1866  choicesdata */\n  dup2\n    /* \"Voting.sol\":1855:1873  choicesdata.voters */\n  0x02\n  add\n    /* \"Voting.sol\":1855:1900  choicesdata.voters = new address payable[](0) */\n  swap1\n  dup1\n  mload\n  swap1\n  0x20\n  add\n  swap1\n  tag_20\n  swap3\n  swap2\n  swap1\n  tag_21\n  jump\t// in\ntag_20:\n  pop\n    /* \"Voting.sol\":1605:1912  {... */\n  pop\n    /* \"Voting.sol\":1600:1603  i++ */\n  dup1\n  dup1\n  tag_22\n  swap1\n  tag_23\n  jump\t// in\ntag_22:\n  swap2\n  pop\n  pop\n    /* \"Voting.sol\":1564:1912  for (uint i = 1; i <= totalChoices; i++) {... */\n  jump(tag_6)\ntag_7:\n  pop\n    /* \"Voting.sol\":1277:1919  constructor(... */\n  pop\n  pop\n  pop\n  pop\n    /* \"Voting.sol\":641:6415  contract Voting {... */\n  jump(tag_24)\n    /* \"Voting.sol\":5808:6412  function _uint2str(uint _i) internal pure returns (string memory str) {... */\ntag_11:\n    /* \"Voting.sol\":5859:5876  string memory str */\n  0x60\n    /* \"Voting.sol\":5936:5937  0 */\n  0x00\n    /* \"Voting.sol\":5930:5932  _i */\n  dup3\n    /* \"Voting.sol\":5930:5937  _i == 0 */\n  sub\n    /* \"Voting.sol\":5926:5976  if (_i == 0) {... */\n  tag_26\n  jumpi\n    /* \"Voting.sol\":5954:5964  return \"0\" */\n  mload(0x40)\n  dup1\n  0x40\n  add\n  0x40\n  mstore\n  dup1\n  0x01\n  dup2\n  mstore\n  0x20\n  add\n  0x3000000000000000000000000000000000000000000000000000000000000000\n  dup2\n  mstore\n  pop\n  swap1\n  pop\n  jump(tag_25)\n    /* \"Voting.sol\":5926:5976  if (_i == 0) {... */\ntag_26:\n    /* \"Voting.sol\":5986:5992  uint j */\n  0x00\n    /* \"Voting.sol\":5995:5997  _i */\n  dup3\n    /* \"Voting.sol\":5986:5997  uint j = _i */\n  swap1\n  pop\n    /* \"Voting.sol\":6008:6019  uint length */\n  0x00\n    /* \"Voting.sol\":6030:6102  while (j != 0) {... */\ntag_27:\n    /* \"Voting.sol\":6042:6043  0 */\n  0x00\n    /* \"Voting.sol\":6037:6038  j */\n  dup3\n    /* \"Voting.sol\":6037:6043  j != 0 */\n  eq\n    /* \"Voting.sol\":6030:6102  while (j != 0) {... */\n  tag_28\n  jumpi\n    /* \"Voting.sol\":6060:6068  length++ */\n  dup1\n  dup1\n  tag_29\n  swap1\n  tag_23\n  jump\t// in\ntag_29:\n  swap2\n  pop\n  pop\n    /* \"Voting.sol\":6088:6090  10 */\n  0x0a\n    /* \"Voting.sol\":6083:6090  j /= 10 */\n  dup3\n  tag_30\n  swap2\n  swap1\n  tag_31\n  jump\t// in\ntag_30:\n  swap2\n  pop\n    /* \"Voting.sol\":6030:6102  while (j != 0) {... */\n  jump(tag_27)\ntag_28:\n    /* \"Voting.sol\":6112:6129  bytes memory bstr */\n  0x00\n    /* \"Voting.sol\":6142:6148  length */\n  dup2\n    /* \"Voting.sol\":6132:6149  new bytes(length) */\n  0xffffffffffffffff\n  dup2\n  gt\n  iszero\n  tag_32\n  jumpi\n  tag_33\n  tag_18\n  jump\t// in\ntag_33:\ntag_32:\n  mload(0x40)\n  swap1\n  dup1\n  dup3\n  mstore\n  dup1\n  0x1f\n  add\n  not(0x1f)\n  and\n  0x20\n  add\n  dup3\n  add\n  0x40\n  mstore\n  dup1\n  iszero\n  tag_34\n  jumpi\n  dup2\n  0x20\n  add\n  0x01\n  dup3\n  mul\n  dup1\n  calldatasize\n  dup4\n  calldatacopy\n  dup1\n  dup3\n  add\n  swap2\n  pop\n  pop\n  swap1\n  pop\ntag_34:\n  pop\n    /* \"Voting.sol\":6112:6149  bytes memory bstr = new bytes(length) */\n  swap1\n  pop\n    /* \"Voting.sol\":6160:6166  uint k */\n  0x00\n    /* \"Voting.sol\":6169:6175  length */\n  dup3\n    /* \"Voting.sol\":6160:6175  uint k = length */\n  swap1\n  pop\n    /* \"Voting.sol\":6186:6376  while (_i != 0) {... */\ntag_35:\n    /* \"Voting.sol\":6199:6200  0 */\n  0x00\n    /* \"Voting.sol\":6193:6195  _i */\n  dup7\n    /* \"Voting.sol\":6193:6200  _i != 0 */\n  eq\n    /* \"Voting.sol\":6186:6376  while (_i != 0) {... */\n  tag_36\n  jumpi\n    /* \"Voting.sol\":6225:6226  1 */\n  0x01\n    /* \"Voting.sol\":6221:6222  k */\n  dup2\n    /* \"Voting.sol\":6221:6226  k - 1 */\n  tag_37\n  swap2\n  swap1\n  tag_38\n  jump\t// in\ntag_37:\n    /* \"Voting.sol\":6217:6226  k = k - 1 */\n  swap1\n  pop\n    /* \"Voting.sol\":6241:6251  uint8 temp */\n  0x00\n    /* \"Voting.sol\":6271:6273  10 */\n  0x0a\n    /* \"Voting.sol\":6266:6268  _i */\n  dup8\n    /* \"Voting.sol\":6266:6273  _i % 10 */\n  tag_39\n  swap2\n  swap1\n  tag_40\n  jump\t// in\ntag_39:\n    /* \"Voting.sol\":6260:6262  48 */\n  0x30\n    /* \"Voting.sol\":6260:6274  48 + (_i % 10) */\n  tag_41\n  swap2\n  swap1\n  tag_42\n  jump\t// in\ntag_41:\n    /* \"Voting.sol\":6241:6275  uint8 temp = uint8(48 + (_i % 10)) */\n  swap1\n  pop\n    /* \"Voting.sol\":6290:6299  bytes1 b1 */\n  0x00\n    /* \"Voting.sol\":6309:6313  temp */\n  dup2\n    /* \"Voting.sol\":6302:6314  bytes1(temp) */\n  0xf8\n  shl\n    /* \"Voting.sol\":6290:6314  bytes1 b1 = bytes1(temp) */\n  swap1\n  pop\n    /* \"Voting.sol\":6339:6341  b1 */\n  dup1\n    /* \"Voting.sol\":6329:6333  bstr */\n  dup5\n    /* \"Voting.sol\":6334:6335  k */\n  dup5\n    /* \"Voting.sol\":6329:6336  bstr[k] */\n  dup2\n  mload\n  dup2\n  lt\n  tag_43\n  jumpi\n  tag_44\n  tag_45\n  jump\t// in\ntag_44:\ntag_43:\n  0x20\n  add\n  add\n    /* \"Voting.sol\":6329:6341  bstr[k] = b1 */\n  swap1\n  not(0xffffffffffffffffffffffffffffffffffffffffffffffffffffffffffffff)\n  and\n  swap1\n  dup2\n  0x00\n  byte\n  swap1\n  mstore8\n  pop\n    /* \"Voting.sol\":6362:6364  10 */\n  0x0a\n    /* \"Voting.sol\":6356:6364  _i /= 10 */\n  dup9\n  tag_46\n  swap2\n  swap1\n  tag_31\n  jump\t// in\ntag_46:\n  swap8\n  pop\n    /* \"Voting.sol\":6202:6376  {... */\n  pop\n  pop\n    /* \"Voting.sol\":6186:6376  while (_i != 0) {... */\n  jump(tag_35)\ntag_36:\n    /* \"Voting.sol\":6399:6403  bstr */\n  dup2\n    /* \"Voting.sol\":6386:6404  str = string(bstr) */\n  swap5\n  pop\n    /* \"Voting.sol\":5878:6412  {... */\n  pop\n  pop\n  pop\n  pop\n    /* \"Voting.sol\":5808:6412  function _uint2str(uint _i) internal pure returns (string memory str) {... */\ntag_25:\n  swap2\n  swap1\n  pop\n  jump\t// out\n    /* \"Voting.sol\":641:6415  contract Voting {... */\ntag_21:\n  dup3\n  dup1\n  sload\n  dup3\n  dup3\n  sstore\n  swap1\n  0x00\n  mstore\n  keccak256(0x00, 0x20)\n  swap1\n  dup2\n  add\n  swap3\n  dup3\n  iszero\n  tag_47\n  jumpi\n  swap2\n  0x20\n  mul\n  dup3\n  add\ntag_48:\n  dup3\n  dup2\n  gt\n  iszero\n  tag_49\n  jumpi\n  dup3\n  mload\n  dup3\n  exp(0x0100, 0x00)\n  dup2\n  sload\n  dup2\n  0xffffffffffffffffffffffffffffffffffffffff\n  mul\n  not\n  and\n  swap1\n  dup4\n  0xffffffffffffffffffffffffffffffffffffffff\n  and\n  mul\n  or\n  swap1\n  sstore\n  pop\n  swap2\n  0x20\n  add\n  swap2\n  swap1\n  0x01\n  add\n  swap1\n  jump(tag_48)\ntag_49:\ntag_47:\n  pop\n  swap1\n  pop\n  tag_50\n  swap2\n  swap1\n  tag_51\n  jump\t// in\ntag_50:\n  pop\n  swap1\n  jump\t// out\ntag_51:\ntag_52:\n  dup1\n  dup3\n  gt\n  iszero\n  tag_53\n  jumpi\n  0x00\n  dup2\n  0x00\n  swap1\n  sstore\n  pop\n  0x01\n  add\n  jump(tag_52)\ntag_53:\n  pop\n  swap1\n  jump\t// out\n    /* \"#utility.yul\":88:205   */\ntag_55:\n    /* \"#utility.yul\":197:198   */\n  0x00\n    /* \"#utility.yul\":194:195   */\n  dup1\n    /* \"#utility.yul\":187:199   */\n  revert\n    /* \"#utility.yul\":334:411   */\ntag_57:\n    /* \"#utility.yul\":371:378   */\n  0x00\n    /* \"#utility.yul\":400:405   */\n  dup2\n    /* \"#utility.yul\":389:405   */\n  swap1\n  pop\n    /* \"#utility.yul\":334:411   */\n  swap2\n  swap1\n  pop\n  jump\t// out\n    /* \"#utility.yul\":417:539   */\ntag_58:\n    /* \"#utility.yul\":490:514   */\n  tag_95\n    /* \"#utility.yul\":508:513   */\n  dup2\n    /* \"#utility.yul\":490:514   */\n  tag_57\n  jump\t// in\ntag_95:\n    /* \"#utility.yul\":483:488   */\n  dup2\n    /* \"#utility.yul\":480:515   */\n  eq\n    /* \"#utility.yul\":470:533   */\n  tag_96\n  jumpi\n    /* \"#utility.yul\":529:530   */\n  0x00\n    /* \"#utility.yul\":526:527   */\n  dup1\n    /* \"#utility.yul\":519:531   */\n  revert\n    /* \"#utility.yul\":470:533   */\ntag_96:\n    /* \"#utility.yul\":417:539   */\n  pop\n  jump\t// out\n    /* \"#utility.yul\":545:688   */\ntag_59:\n    /* \"#utility.yul\":602:607   */\n  0x00\n    /* \"#utility.yul\":633:639   */\n  dup2\n    /* \"#utility.yul\":627:640   */\n  mload\n    /* \"#utility.yul\":618:640   */\n  swap1\n  pop\n    /* \"#utility.yul\":649:682   */\n  tag_98\n    /* \"#utility.yul\":676:681   */\n  dup2\n    /* \"#utility.yul\":649:682   */\n  tag_58\n  jump\t// in\ntag_98:\n    /* \"#utility.yul\":545:688   */\n  swap3\n  swap2\n  pop\n  pop\n  jump\t// out\n    /* \"#utility.yul\":694:820   */\ntag_60:\n    /* \"#utility.yul\":731:738   */\n  0x00\n    /* \"#utility.yul\":771:813   */\n  0xffffffffffffffffffffffffffffffffffffffff\n    /* \"#utility.yul\":764:769   */\n  dup3\n    /* \"#utility.yul\":760:814   */\n  and\n    /* \"#utility.yul\":749:814   */\n  swap1\n  pop\n    /* \"#utility.yul\":694:820   */\n  swap2\n  swap1\n  pop\n  jump\t// out\n    /* \"#utility.yul\":826:922   */\ntag_61:\n    /* \"#utility.yul\":863:870   */\n  0x00\n    /* \"#utility.yul\":892:916   */\n  tag_101\n    /* \"#utility.yul\":910:915   */\n  dup3\n    /* \"#utility.yul\":892:916   */\n  tag_60\n  jump\t// in\ntag_101:\n    /* \"#utility.yul\":881:916   */\n  swap1\n  pop\n    /* \"#utility.yul\":826:922   */\n  swap2\n  swap1\n  pop\n  jump\t// out\n    /* \"#utility.yul\":928:1050   */\ntag_62:\n    /* \"#utility.yul\":1001:1025   */\n  tag_103\n    /* \"#utility.yul\":1019:1024   */\n  dup2\n    /* \"#utility.yul\":1001:1025   */\n  tag_61\n  jump\t// in\ntag_103:\n    /* \"#utility.yul\":994:999   */\n  dup2\n    /* \"#utility.yul\":991:1026   */\n  eq\n    /* \"#utility.yul\":981:1044   */\n  tag_104\n  jumpi\n    /* \"#utility.yul\":1040:1041   */\n  0x00\n    /* \"#utility.yul\":1037:1038   */\n  dup1\n    /* \"#utility.yul\":1030:1042   */\n  revert\n    /* \"#utility.yul\":981:1044   */\ntag_104:\n    /* \"#utility.yul\":928:1050   */\n  pop\n  jump\t// out\n    /* \"#utility.yul\":1056:1199   */\ntag_63:\n    /* \"#utility.yul\":1113:1118   */\n  0x00\n    /* \"#utility.yul\":1144:1150   */\n  dup2\n    /* \"#utility.yul\":1138:1151   */\n  mload\n    /* \"#utility.yul\":1129:1151   */\n  swap1\n  pop\n    /* \"#utility.yul\":1160:1193   */\n  tag_106\n    /* \"#utility.yul\":1187:1192   */\n  dup2\n    /* \"#utility.yul\":1160:1193   */\n  tag_62\n  jump\t// in\ntag_106:\n    /* \"#utility.yul\":1056:1199   */\n  swap3\n  swap2\n  pop\n  pop\n  jump\t// out\n    /* \"#utility.yul\":1205:2025   */\ntag_3:\n    /* \"#utility.yul\":1302:1308   */\n  0x00\n    /* \"#utility.yul\":1310:1316   */\n  dup1\n    /* \"#utility.yul\":1318:1324   */\n  0x00\n    /* \"#utility.yul\":1326:1332   */\n  dup1\n    /* \"#utility.yul\":1375:1378   */\n  0x80\n    /* \"#utility.yul\":1363:1372   */\n  dup6\n    /* \"#utility.yul\":1354:1361   */\n  dup8\n    /* \"#utility.yul\":1350:1373   */\n  sub\n    /* \"#utility.yul\":1346:1379   */\n  slt\n    /* \"#utility.yul\":1343:1463   */\n  iszero\n  tag_108\n  jumpi\n    /* \"#utility.yul\":1382:1461   */\n  tag_109\n  tag_55\n  jump\t// in\ntag_109:\n    /* \"#utility.yul\":1343:1463   */\ntag_108:\n    /* \"#utility.yul\":1502:1503   */\n  0x00\n    /* \"#utility.yul\":1527:1591   */\n  tag_110\n    /* \"#utility.yul\":1583:1590   */\n  dup8\n    /* \"#utility.yul\":1574:1580   */\n  dup3\n    /* \"#utility.yul\":1563:1572   */\n  dup9\n    /* \"#utility.yul\":1559:1581   */\n  add\n    /* \"#utility.yul\":1527:1591   */\n  tag_59\n  jump\t// in\ntag_110:\n    /* \"#utility.yul\":1517:1591   */\n  swap5\n  pop\n    /* \"#utility.yul\":1473:1601   */\n  pop\n    /* \"#utility.yul\":1640:1642   */\n  0x20\n    /* \"#utility.yul\":1666:1730   */\n  tag_111\n    /* \"#utility.yul\":1722:1729   */\n  dup8\n    /* \"#utility.yul\":1713:1719   */\n  dup3\n    /* \"#utility.yul\":1702:1711   */\n  dup9\n    /* \"#utility.yul\":1698:1720   */\n  add\n    /* \"#utility.yul\":1666:1730   */\n  tag_59\n  jump\t// in\ntag_111:\n    /* \"#utility.yul\":1656:1730   */\n  swap4\n  pop\n    /* \"#utility.yul\":1611:1740   */\n  pop\n    /* \"#utility.yul\":1779:1781   */\n  0x40\n    /* \"#utility.yul\":1805:1869   */\n  tag_112\n    /* \"#utility.yul\":1861:1868   */\n  dup8\n    /* \"#utility.yul\":1852:1858   */\n  dup3\n    /* \"#utility.yul\":1841:1850   */\n  dup9\n    /* \"#utility.yul\":1837:1859   */\n  add\n    /* \"#utility.yul\":1805:1869   */\n  tag_59\n  jump\t// in\ntag_112:\n    /* \"#utility.yul\":1795:1869   */\n  swap3\n  pop\n    /* \"#utility.yul\":1750:1879   */\n  pop\n    /* \"#utility.yul\":1918:1920   */\n  0x60\n    /* \"#utility.yul\":1944:2008   */\n  tag_113\n    /* \"#utility.yul\":2000:2007   */\n  dup8\n    /* \"#utility.yul\":1991:1997   */\n  dup3\n    /* \"#utility.yul\":1980:1989   */\n  dup9\n    /* \"#utility.yul\":1976:1998   */\n  add\n    /* \"#utility.yul\":1944:2008   */\n  tag_63\n  jump\t// in\ntag_113:\n    /* \"#utility.yul\":1934:2008   */\n  swap2\n  pop\n    /* \"#utility.yul\":1889:2018   */\n  pop\n    /* \"#utility.yul\":1205:2025   */\n  swap3\n  swap6\n  swap2\n  swap5\n  pop\n  swap3\n  pop\n  jump\t// out\n    /* \"#utility.yul\":2031:2179   */\ntag_64:\n    /* \"#utility.yul\":2133:2144   */\n  0x00\n    /* \"#utility.yul\":2170:2173   */\n  dup2\n    /* \"#utility.yul\":2155:2173   */\n  swap1\n  pop\n    /* \"#utility.yul\":2031:2179   */\n  swap3\n  swap2\n  pop\n  pop\n  jump\t// out\n    /* \"#utility.yul\":2185:2343   */\ntag_65:\n    /* \"#utility.yul\":2325:2335   */\n  0x50696c6968616e20000000000000000000000000000000000000000000000000\n    /* \"#utility.yul\":2321:2322   */\n  0x00\n    /* \"#utility.yul\":2313:2319   */\n  dup3\n    /* \"#utility.yul\":2309:2323   */\n  add\n    /* \"#utility.yul\":2302:2336   */\n  mstore\n    /* \"#utility.yul\":2185:2343   */\n  pop\n  jump\t// out\n    /* \"#utility.yul\":2349:2749   */\ntag_66:\n    /* \"#utility.yul\":2509:2512   */\n  0x00\n    /* \"#utility.yul\":2530:2614   */\n  tag_117\n    /* \"#utility.yul\":2612:2613   */\n  0x08\n    /* \"#utility.yul\":2607:2610   */\n  dup4\n    /* \"#utility.yul\":2530:2614   */\n  tag_64\n  jump\t// in\ntag_117:\n    /* \"#utility.yul\":2523:2614   */\n  swap2\n  pop\n    /* \"#utility.yul\":2623:2716   */\n  tag_118\n    /* \"#utility.yul\":2712:2715   */\n  dup3\n    /* \"#utility.yul\":2623:2716   */\n  tag_65\n  jump\t// in\ntag_118:\n    /* \"#utility.yul\":2741:2742   */\n  0x08\n    /* \"#utility.yul\":2736:2739   */\n  dup3\n    /* \"#utility.yul\":2732:2743   */\n  add\n    /* \"#utility.yul\":2725:2743   */\n  swap1\n  pop\n    /* \"#utility.yul\":2349:2749   */\n  swap2\n  swap1\n  pop\n  jump\t// out\n    /* \"#utility.yul\":2755:2854   */\ntag_67:\n    /* \"#utility.yul\":2807:2813   */\n  0x00\n    /* \"#utility.yul\":2841:2846   */\n  dup2\n    /* \"#utility.yul\":2835:2847   */\n  mload\n    /* \"#utility.yul\":2825:2847   */\n  swap1\n  pop\n    /* \"#utility.yul\":2755:2854   */\n  swap2\n  swap1\n  pop\n  jump\t// out\n    /* \"#utility.yul\":2860:3106   */\ntag_68:\n    /* \"#utility.yul\":2941:2942   */\n  0x00\n    /* \"#utility.yul\":2951:3064   */\ntag_121:\n    /* \"#utility.yul\":2965:2971   */\n  dup4\n    /* \"#utility.yul\":2962:2963   */\n  dup2\n    /* \"#utility.yul\":2959:2972   */\n  lt\n    /* \"#utility.yul\":2951:3064   */\n  iszero\n  tag_123\n  jumpi\n    /* \"#utility.yul\":3050:3051   */\n  dup1\n    /* \"#utility.yul\":3045:3048   */\n  dup3\n    /* \"#utility.yul\":3041:3052   */\n  add\n    /* \"#utility.yul\":3035:3053   */\n  mload\n    /* \"#utility.yul\":3031:3032   */\n  dup2\n    /* \"#utility.yul\":3026:3029   */\n  dup5\n    /* \"#utility.yul\":3022:3033   */\n  add\n    /* \"#utility.yul\":3015:3054   */\n  mstore\n    /* \"#utility.yul\":2987:2989   */\n  0x20\n    /* \"#utility.yul\":2984:2985   */\n  dup2\n    /* \"#utility.yul\":2980:2990   */\n  add\n    /* \"#utility.yul\":2975:2990   */\n  swap1\n  pop\n    /* \"#utility.yul\":2951:3064   */\n  jump(tag_121)\ntag_123:\n    /* \"#utility.yul\":3098:3099   */\n  0x00\n    /* \"#utility.yul\":3089:3095   */\n  dup5\n    /* \"#utility.yul\":3084:3087   */\n  dup5\n    /* \"#utility.yul\":3080:3096   */\n  add\n    /* \"#utility.yul\":3073:3100   */\n  mstore\n    /* \"#utility.yul\":2922:3106   */\n  pop\n    /* \"#utility.yul\":2860:3106   */\n  pop\n  pop\n  pop\n  jump\t// out\n    /* \"#utility.yul\":3112:3502   */\ntag_69:\n    /* \"#utility.yul\":3218:3221   */\n  0x00\n    /* \"#utility.yul\":3246:3285   */\n  tag_125\n    /* \"#utility.yul\":3279:3284   */\n  dup3\n    /* \"#utility.yul\":3246:3285   */\n  tag_67\n  jump\t// in\ntag_125:\n    /* \"#utility.yul\":3301:3390   */\n  tag_126\n    /* \"#utility.yul\":3383:3389   */\n  dup2\n    /* \"#utility.yul\":3378:3381   */\n  dup6\n    /* \"#utility.yul\":3301:3390   */\n  tag_64\n  jump\t// in\ntag_126:\n    /* \"#utility.yul\":3294:3390   */\n  swap4\n  pop\n    /* \"#utility.yul\":3399:3464   */\n  tag_127\n    /* \"#utility.yul\":3457:3463   */\n  dup2\n    /* \"#utility.yul\":3452:3455   */\n  dup6\n    /* \"#utility.yul\":3445:3449   */\n  0x20\n    /* \"#utility.yul\":3438:3443   */\n  dup7\n    /* \"#utility.yul\":3434:3450   */\n  add\n    /* \"#utility.yul\":3399:3464   */\n  tag_68\n  jump\t// in\ntag_127:\n    /* \"#utility.yul\":3489:3495   */\n  dup1\n    /* \"#utility.yul\":3484:3487   */\n  dup5\n    /* \"#utility.yul\":3480:3496   */\n  add\n    /* \"#utility.yul\":3473:3496   */\n  swap2\n  pop\n    /* \"#utility.yul\":3222:3502   */\n  pop\n    /* \"#utility.yul\":3112:3502   */\n  swap3\n  swap2\n  pop\n  pop\n  jump\t// out\n    /* \"#utility.yul\":3508:4049   */\ntag_13:\n    /* \"#utility.yul\":3741:3744   */\n  0x00\n    /* \"#utility.yul\":3763:3911   */\n  tag_129\n    /* \"#utility.yul\":3907:3910   */\n  dup3\n    /* \"#utility.yul\":3763:3911   */\n  tag_66\n  jump\t// in\ntag_129:\n    /* \"#utility.yul\":3756:3911   */\n  swap2\n  pop\n    /* \"#utility.yul\":3928:4023   */\n  tag_130\n    /* \"#utility.yul\":4019:4022   */\n  dup3\n    /* \"#utility.yul\":4010:4016   */\n  dup5\n    /* \"#utility.yul\":3928:4023   */\n  tag_69\n  jump\t// in\ntag_130:\n    /* \"#utility.yul\":3921:4023   */\n  swap2\n  pop\n    /* \"#utility.yul\":4040:4043   */\n  dup2\n    /* \"#utility.yul\":4033:4043   */\n  swap1\n  pop\n    /* \"#utility.yul\":3508:4049   */\n  swap3\n  swap2\n  pop\n  pop\n  jump\t// out\n    /* \"#utility.yul\":4055:4235   */\ntag_18:\n    /* \"#utility.yul\":4103:4180   */\n  0x4e487b7100000000000000000000000000000000000000000000000000000000\n    /* \"#utility.yul\":4100:4101   */\n  0x00\n    /* \"#utility.yul\":4093:4181   */\n  mstore\n    /* \"#utility.yul\":4200:4204   */\n  0x41\n    /* \"#utility.yul\":4197:4198   */\n  0x04\n    /* \"#utility.yul\":4190:4205   */\n  mstore\n    /* \"#utility.yul\":4224:4228   */\n  0x24\n    /* \"#utility.yul\":4221:4222   */\n  0x00\n    /* \"#utility.yul\":4214:4229   */\n  revert\n    /* \"#utility.yul\":4241:4421   */\ntag_70:\n    /* \"#utility.yul\":4289:4366   */\n  0x4e487b7100000000000000000000000000000000000000000000000000000000\n    /* \"#utility.yul\":4286:4287   */\n  0x00\n    /* \"#utility.yul\":4279:4367   */\n  mstore\n    /* \"#utility.yul\":4386:4390   */\n  0x22\n    /* \"#utility.yul\":4383:4384   */\n  0x04\n    /* \"#utility.yul\":4376:4391   */\n  mstore\n    /* \"#utility.yul\":4410:4414   */\n  0x24\n    /* \"#utility.yul\":4407:4408   */\n  0x00\n    /* \"#utility.yul\":4400:4415   */\n  revert\n    /* \"#utility.yul\":4427:4747   */\ntag_71:\n    /* \"#utility.yul\":4471:4477   */\n  0x00\n    /* \"#utility.yul\":4508:4509   */\n  0x02\n    /* \"#utility.yul\":4502:4506   */\n  dup3\n    /* \"#utility.yul\":4498:4510   */\n  div\n    /* \"#utility.yul\":4488:4510   */\n  swap1\n  pop\n    /* \"#utility.yul\":4555:4556   */\n  0x01\n    /* \"#utility.yul\":4549:4553   */\n  dup3\n    /* \"#utility.yul\":4545:4557   */\n  and\n    /* \"#utility.yul\":4576:4594   */\n  dup1\n    /* \"#utility.yul\":4566:4647   */\n  tag_134\n  jumpi\n    /* \"#utility.yul\":4632:4636   */\n  0x7f\n    /* \"#utility.yul\":4624:4630   */\n  dup3\n    /* \"#utility.yul\":4620:4637   */\n  and\n    /* \"#utility.yul\":4610:4637   */\n  swap2\n  pop\n    /* \"#utility.yul\":4566:4647   */\ntag_134:\n    /* \"#utility.yul\":4694:4696   */\n  0x20\n    /* \"#utility.yul\":4686:4692   */\n  dup3\n    /* \"#utility.yul\":4683:4697   */\n  lt\n    /* \"#utility.yul\":4663:4681   */\n  dup2\n    /* \"#utility.yul\":4660:4698   */\n  sub\n    /* \"#utility.yul\":4657:4741   */\n  tag_135\n  jumpi\n    /* \"#utility.yul\":4713:4731   */\n  tag_136\n  tag_70\n  jump\t// in\ntag_136:\n    /* \"#utility.yul\":4657:4741   */\ntag_135:\n    /* \"#utility.yul\":4478:4747   */\n  pop\n    /* \"#utility.yul\":4427:4747   */\n  swap2\n  swap1\n  pop\n  jump\t// out\n    /* \"#utility.yul\":4753:4894   */\ntag_72:\n    /* \"#utility.yul\":4802:4806   */\n  0x00\n    /* \"#utility.yul\":4825:4828   */\n  dup2\n    /* \"#utility.yul\":4817:4828   */\n  swap1\n  pop\n    /* \"#utility.yul\":4848:4851   */\n  dup2\n    /* \"#utility.yul\":4845:4846   */\n  0x00\n    /* \"#utility.yul\":4838:4852   */\n  mstore\n    /* \"#utility.yul\":4882:4886   */\n  0x20\n    /* \"#utility.yul\":4879:4880   */\n  0x00\n    /* \"#utility.yul\":4869:4887   */\n  keccak256\n    /* \"#utility.yul\":4861:4887   */\n  swap1\n  pop\n    /* \"#utility.yul\":4753:4894   */\n  swap2\n  swap1\n  pop\n  jump\t// out\n    /* \"#utility.yul\":4900:4993   */\ntag_73:\n    /* \"#utility.yul\":4937:4943   */\n  0x00\n    /* \"#utility.yul\":4984:4986   */\n  0x20\n    /* \"#utility.yul\":4979:4981   */\n  0x1f\n    /* \"#utility.yul\":4972:4977   */\n  dup4\n    /* \"#utility.yul\":4968:4982   */\n  add\n    /* \"#utility.yul\":4964:4987   */\n  div\n    /* \"#utility.yul\":4954:4987   */\n  swap1\n  pop\n    /* \"#utility.yul\":4900:4993   */\n  swap2\n  swap1\n  pop\n  jump\t// out\n    /* \"#utility.yul\":4999:5106   */\ntag_74:\n    /* \"#utility.yul\":5043:5051   */\n  0x00\n    /* \"#utility.yul\":5093:5098   */\n  dup3\n    /* \"#utility.yul\":5087:5091   */\n  dup3\n    /* \"#utility.yul\":5083:5099   */\n  shl\n    /* \"#utility.yul\":5062:5099   */\n  swap1\n  pop\n    /* \"#utility.yul\":4999:5106   */\n  swap3\n  swap2\n  pop\n  pop\n  jump\t// out\n    /* \"#utility.yul\":5112:5505   */\ntag_75:\n    /* \"#utility.yul\":5181:5187   */\n  0x00\n    /* \"#utility.yul\":5231:5232   */\n  0x08\n    /* \"#utility.yul\":5219:5229   */\n  dup4\n    /* \"#utility.yul\":5215:5233   */\n  mul\n    /* \"#utility.yul\":5254:5351   */\n  tag_141\n    /* \"#utility.yul\":5284:5350   */\n  0xffffffffffffffffffffffffffffffffffffffffffffffffffffffffffffffff\n    /* \"#utility.yul\":5273:5282   */\n  dup3\n    /* \"#utility.yul\":5254:5351   */\n  tag_74\n  jump\t// in\ntag_141:\n    /* \"#utility.yul\":5372:5411   */\n  tag_142\n    /* \"#utility.yul\":5402:5410   */\n  dup7\n    /* \"#utility.yul\":5391:5400   */\n  dup4\n    /* \"#utility.yul\":5372:5411   */\n  tag_74\n  jump\t// in\ntag_142:\n    /* \"#utility.yul\":5360:5411   */\n  swap6\n  pop\n    /* \"#utility.yul\":5444:5448   */\n  dup1\n    /* \"#utility.yul\":5440:5449   */\n  not\n    /* \"#utility.yul\":5433:5438   */\n  dup5\n    /* \"#utility.yul\":5429:5450   */\n  and\n    /* \"#utility.yul\":5420:5450   */\n  swap4\n  pop\n    /* \"#utility.yul\":5493:5497   */\n  dup1\n    /* \"#utility.yul\":5483:5491   */\n  dup7\n    /* \"#utility.yul\":5479:5498   */\n  and\n    /* \"#utility.yul\":5472:5477   */\n  dup5\n    /* \"#utility.yul\":5469:5499   */\n  or\n    /* \"#utility.yul\":5459:5499   */\n  swap3\n  pop\n    /* \"#utility.yul\":5188:5505   */\n  pop\n  pop\n    /* \"#utility.yul\":5112:5505   */\n  swap4\n  swap3\n  pop\n  pop\n  pop\n  jump\t// out\n    /* \"#utility.yul\":5511:5571   */\ntag_76:\n    /* \"#utility.yul\":5539:5542   */\n  0x00\n    /* \"#utility.yul\":5560:5565   */\n  dup2\n    /* \"#utility.yul\":5553:5565   */\n  swap1\n  pop\n    /* \"#utility.yul\":5511:5571   */\n  swap2\n  swap1\n  pop\n  jump\t// out\n    /* \"#utility.yul\":5577:5719   */\ntag_77:\n    /* \"#utility.yul\":5627:5636   */\n  0x00\n    /* \"#utility.yul\":5660:5713   */\n  tag_145\n    /* \"#utility.yul\":5678:5712   */\n  tag_146\n    /* \"#utility.yul\":5687:5711   */\n  tag_147\n    /* \"#utility.yul\":5705:5710   */\n  dup5\n    /* \"#utility.yul\":5687:5711   */\n  tag_57\n  jump\t// in\ntag_147:\n    /* \"#utility.yul\":5678:5712   */\n  tag_76\n  jump\t// in\ntag_146:\n    /* \"#utility.yul\":5660:5713   */\n  tag_57\n  jump\t// in\ntag_145:\n    /* \"#utility.yul\":5647:5713   */\n  swap1\n  pop\n    /* \"#utility.yul\":5577:5719   */\n  swap2\n  swap1\n  pop\n  jump\t// out\n    /* \"#utility.yul\":5725:5800   */\ntag_78:\n    /* \"#utility.yul\":5768:5771   */\n  0x00\n    /* \"#utility.yul\":5789:5794   */\n  dup2\n    /* \"#utility.yul\":5782:5794   */\n  swap1\n  pop\n    /* \"#utility.yul\":5725:5800   */\n  swap2\n  swap1\n  pop\n  jump\t// out\n    /* \"#utility.yul\":5806:6075   */\ntag_79:\n    /* \"#utility.yul\":5916:5955   */\n  tag_150\n    /* \"#utility.yul\":5947:5954   */\n  dup4\n    /* \"#utility.yul\":5916:5955   */\n  tag_77\n  jump\t// in\ntag_150:\n    /* \"#utility.yul\":5977:6068   */\n  tag_151\n    /* \"#utility.yul\":6026:6067   */\n  tag_152\n    /* \"#utility.yul\":6050:6066   */\n  dup3\n    /* \"#utility.yul\":6026:6067   */\n  tag_78\n  jump\t// in\ntag_152:\n    /* \"#utility.yul\":6018:6024   */\n  dup5\n    /* \"#utility.yul\":6011:6015   */\n  dup5\n    /* \"#utility.yul\":6005:6016   */\n  sload\n    /* \"#utility.yul\":5977:6068   */\n  tag_75\n  jump\t// in\ntag_151:\n    /* \"#utility.yul\":5971:5975   */\n  dup3\n    /* \"#utility.yul\":5964:6069   */\n  sstore\n    /* \"#utility.yul\":5882:6075   */\n  pop\n    /* \"#utility.yul\":5806:6075   */\n  pop\n  pop\n  pop\n  jump\t// out\n    /* \"#utility.yul\":6081:6154   */\ntag_80:\n    /* \"#utility.yul\":6126:6129   */\n  0x00\n    /* \"#utility.yul\":6081:6154   */\n  swap1\n  jump\t// out\n    /* \"#utility.yul\":6160:6349   */\ntag_81:\n    /* \"#utility.yul\":6237:6269   */\n  tag_155\n  tag_80\n  jump\t// in\ntag_155:\n    /* \"#utility.yul\":6278:6343   */\n  tag_156\n    /* \"#utility.yul\":6336:6342   */\n  dup2\n    /* \"#utility.yul\":6328:6334   */\n  dup5\n    /* \"#utility.yul\":6322:6326   */\n  dup5\n    /* \"#utility.yul\":6278:6343   */\n  tag_79\n  jump\t// in\ntag_156:\n    /* \"#utility.yul\":6213:6349   */\n  pop\n    /* \"#utility.yul\":6160:6349   */\n  pop\n  pop\n  jump\t// out\n    /* \"#utility.yul\":6355:6541   */\ntag_82:\n    /* \"#utility.yul\":6415:6535   */\ntag_158:\n    /* \"#utility.yul\":6432:6435   */\n  dup2\n    /* \"#utility.yul\":6425:6430   */\n  dup2\n    /* \"#utility.yul\":6422:6436   */\n  lt\n    /* \"#utility.yul\":6415:6535   */\n  iszero\n  tag_160\n  jumpi\n    /* \"#utility.yul\":6486:6525   */\n  tag_161\n    /* \"#utility.yul\":6523:6524   */\n  0x00\n    /* \"#utility.yul\":6516:6521   */\n  dup3\n    /* \"#utility.yul\":6486:6525   */\n  tag_81\n  jump\t// in\ntag_161:\n    /* \"#utility.yul\":6459:6460   */\n  0x01\n    /* \"#utility.yul\":6452:6457   */\n  dup2\n    /* \"#utility.yul\":6448:6461   */\n  add\n    /* \"#utility.yul\":6439:6461   */\n  swap1\n  pop\n    /* \"#utility.yul\":6415:6535   */\n  jump(tag_158)\ntag_160:\n    /* \"#utility.yul\":6355:6541   */\n  pop\n  pop\n  jump\t// out\n    /* \"#utility.yul\":6547:7090   */\ntag_83:\n    /* \"#utility.yul\":6648:6650   */\n  0x1f\n    /* \"#utility.yul\":6643:6646   */\n  dup3\n    /* \"#utility.yul\":6640:6651   */\n  gt\n    /* \"#utility.yul\":6637:7083   */\n  iszero\n  tag_163\n  jumpi\n    /* \"#utility.yul\":6682:6720   */\n  tag_164\n    /* \"#utility.yul\":6714:6719   */\n  dup2\n    /* \"#utility.yul\":6682:6720   */\n  tag_72\n  jump\t// in\ntag_164:\n    /* \"#utility.yul\":6766:6795   */\n  tag_165\n    /* \"#utility.yul\":6784:6794   */\n  dup5\n    /* \"#utility.yul\":6766:6795   */\n  tag_73\n  jump\t// in\ntag_165:\n    /* \"#utility.yul\":6756:6764   */\n  dup2\n    /* \"#utility.yul\":6752:6796   */\n  add\n    /* \"#utility.yul\":6949:6951   */\n  0x20\n    /* \"#utility.yul\":6937:6947   */\n  dup6\n    /* \"#utility.yul\":6934:6952   */\n  lt\n    /* \"#utility.yul\":6931:6980   */\n  iszero\n  tag_166\n  jumpi\n    /* \"#utility.yul\":6970:6978   */\n  dup2\n    /* \"#utility.yul\":6955:6978   */\n  swap1\n  pop\n    /* \"#utility.yul\":6931:6980   */\ntag_166:\n    /* \"#utility.yul\":6993:7073   */\n  tag_167\n    /* \"#utility.yul\":7049:7071   */\n  tag_168\n    /* \"#utility.yul\":7067:7070   */\n  dup6\n    /* \"#utility.yul\":7049:7071   */\n  tag_73\n  jump\t// in\ntag_168:\n    /* \"#utility.yul\":7039:7047   */\n  dup4\n    /* \"#utility.yul\":7035:7072   */\n  add\n    /* \"#utility.yul\":7022:7033   */\n  dup3\n    /* \"#utility.yul\":6993:7073   */\n  tag_82\n  jump\t// in\ntag_167:\n    /* \"#utility.yul\":6652:7083   */\n  pop\n  pop\n    /* \"#utility.yul\":6637:7083   */\ntag_163:\n    /* \"#utility.yul\":6547:7090   */\n  pop\n  pop\n  pop\n  jump\t// out\n    /* \"#utility.yul\":7096:7213   */\ntag_84:\n    /* \"#utility.yul\":7150:7158   */\n  0x00\n    /* \"#utility.yul\":7200:7205   */\n  dup3\n    /* \"#utility.yul\":7194:7198   */\n  dup3\n    /* \"#utility.yul\":7190:7206   */\n  shr\n    /* \"#utility.yul\":7169:7206   */\n  swap1\n  pop\n    /* \"#utility.yul\":7096:7213   */\n  swap3\n  swap2\n  pop\n  pop\n  jump\t// out\n    /* \"#utility.yul\":7219:7388   */\ntag_85:\n    /* \"#utility.yul\":7263:7269   */\n  0x00\n    /* \"#utility.yul\":7296:7347   */\n  tag_171\n    /* \"#utility.yul\":7344:7345   */\n  0x00\n    /* \"#utility.yul\":7340:7346   */\n  not\n    /* \"#utility.yul\":7332:7337   */\n  dup5\n    /* \"#utility.yul\":7329:7330   */\n  0x08\n    /* \"#utility.yul\":7325:7338   */\n  mul\n    /* \"#utility.yul\":7296:7347   */\n  tag_84\n  jump\t// in\ntag_171:\n    /* \"#utility.yul\":7292:7348   */\n  not\n    /* \"#utility.yul\":7377:7381   */\n  dup1\n    /* \"#utility.yul\":7371:7375   */\n  dup4\n    /* \"#utility.yul\":7367:7382   */\n  and\n    /* \"#utility.yul\":7357:7382   */\n  swap2\n  pop\n    /* \"#utility.yul\":7270:7388   */\n  pop\n    /* \"#utility.yul\":7219:7388   */\n  swap3\n  swap2\n  pop\n  pop\n  jump\t// out\n    /* \"#utility.yul\":7393:7688   */\ntag_86:\n    /* \"#utility.yul\":7469:7473   */\n  0x00\n    /* \"#utility.yul\":7615:7644   */\n  tag_173\n    /* \"#utility.yul\":7640:7643   */\n  dup4\n    /* \"#utility.yul\":7634:7638   */\n  dup4\n    /* \"#utility.yul\":7615:7644   */\n  tag_85\n  jump\t// in\ntag_173:\n    /* \"#utility.yul\":7607:7644   */\n  swap2\n  pop\n    /* \"#utility.yul\":7677:7680   */\n  dup3\n    /* \"#utility.yul\":7674:7675   */\n  0x02\n    /* \"#utility.yul\":7670:7681   */\n  mul\n    /* \"#utility.yul\":7664:7668   */\n  dup3\n    /* \"#utility.yul\":7661:7682   */\n  or\n    /* \"#utility.yul\":7653:7682   */\n  swap1\n  pop\n    /* \"#utility.yul\":7393:7688   */\n  swap3\n  swap2\n  pop\n  pop\n  jump\t// out\n    /* \"#utility.yul\":7693:9088   */\ntag_15:\n    /* \"#utility.yul\":7810:7847   */\n  tag_175\n    /* \"#utility.yul\":7843:7846   */\n  dup3\n    /* \"#utility.yul\":7810:7847   */\n  tag_67\n  jump\t// in\ntag_175:\n    /* \"#utility.yul\":7912:7930   */\n  0xffffffffffffffff\n    /* \"#utility.yul\":7904:7910   */\n  dup2\n    /* \"#utility.yul\":7901:7931   */\n  gt\n    /* \"#utility.yul\":7898:7954   */\n  iszero\n  tag_176\n  jumpi\n    /* \"#utility.yul\":7934:7952   */\n  tag_177\n  tag_18\n  jump\t// in\ntag_177:\n    /* \"#utility.yul\":7898:7954   */\ntag_176:\n    /* \"#utility.yul\":7978:8016   */\n  tag_178\n    /* \"#utility.yul\":8010:8014   */\n  dup3\n    /* \"#utility.yul\":8004:8015   */\n  sload\n    /* \"#utility.yul\":7978:8016   */\n  tag_71\n  jump\t// in\ntag_178:\n    /* \"#utility.yul\":8063:8130   */\n  tag_179\n    /* \"#utility.yul\":8123:8129   */\n  dup3\n    /* \"#utility.yul\":8115:8121   */\n  dup3\n    /* \"#utility.yul\":8109:8113   */\n  dup6\n    /* \"#utility.yul\":8063:8130   */\n  tag_83\n  jump\t// in\ntag_179:\n    /* \"#utility.yul\":8157:8158   */\n  0x00\n    /* \"#utility.yul\":8181:8185   */\n  0x20\n    /* \"#utility.yul\":8168:8185   */\n  swap1\n  pop\n    /* \"#utility.yul\":8213:8215   */\n  0x1f\n    /* \"#utility.yul\":8205:8211   */\n  dup4\n    /* \"#utility.yul\":8202:8216   */\n  gt\n    /* \"#utility.yul\":8230:8231   */\n  0x01\n    /* \"#utility.yul\":8225:8843   */\n  dup2\n  eq\n  tag_181\n  jumpi\n    /* \"#utility.yul\":8887:8888   */\n  0x00\n    /* \"#utility.yul\":8904:8910   */\n  dup5\n    /* \"#utility.yul\":8901:8978   */\n  iszero\n  tag_182\n  jumpi\n    /* \"#utility.yul\":8953:8962   */\n  dup3\n    /* \"#utility.yul\":8948:8951   */\n  dup8\n    /* \"#utility.yul\":8944:8963   */\n  add\n    /* \"#utility.yul\":8938:8964   */\n  mload\n    /* \"#utility.yul\":8929:8964   */\n  swap1\n  pop\n    /* \"#utility.yul\":8901:8978   */\ntag_182:\n    /* \"#utility.yul\":9004:9071   */\n  tag_183\n    /* \"#utility.yul\":9064:9070   */\n  dup6\n    /* \"#utility.yul\":9057:9062   */\n  dup3\n    /* \"#utility.yul\":9004:9071   */\n  tag_86\n  jump\t// in\ntag_183:\n    /* \"#utility.yul\":8998:9002   */\n  dup7\n    /* \"#utility.yul\":8991:9072   */\n  sstore\n    /* \"#utility.yul\":8860:9082   */\n  pop\n    /* \"#utility.yul\":8195:9082   */\n  jump(tag_180)\n    /* \"#utility.yul\":8225:8843   */\ntag_181:\n    /* \"#utility.yul\":8277:8281   */\n  0x1f\n    /* \"#utility.yul\":8273:8282   */\n  not\n    /* \"#utility.yul\":8265:8271   */\n  dup5\n    /* \"#utility.yul\":8261:8283   */\n  and\n    /* \"#utility.yul\":8311:8348   */\n  tag_184\n    /* \"#utility.yul\":8343:8347   */\n  dup7\n    /* \"#utility.yul\":8311:8348   */\n  tag_72\n  jump\t// in\ntag_184:\n    /* \"#utility.yul\":8370:8371   */\n  0x00\n    /* \"#utility.yul\":8384:8592   */\ntag_185:\n    /* \"#utility.yul\":8398:8405   */\n  dup3\n    /* \"#utility.yul\":8395:8396   */\n  dup2\n    /* \"#utility.yul\":8392:8406   */\n  lt\n    /* \"#utility.yul\":8384:8592   */\n  iszero\n  tag_187\n  jumpi\n    /* \"#utility.yul\":8477:8486   */\n  dup5\n    /* \"#utility.yul\":8472:8475   */\n  dup10\n    /* \"#utility.yul\":8468:8487   */\n  add\n    /* \"#utility.yul\":8462:8488   */\n  mload\n    /* \"#utility.yul\":8454:8460   */\n  dup3\n    /* \"#utility.yul\":8447:8489   */\n  sstore\n    /* \"#utility.yul\":8528:8529   */\n  0x01\n    /* \"#utility.yul\":8520:8526   */\n  dup3\n    /* \"#utility.yul\":8516:8530   */\n  add\n    /* \"#utility.yul\":8506:8530   */\n  swap2\n  pop\n    /* \"#utility.yul\":8575:8577   */\n  0x20\n    /* \"#utility.yul\":8564:8573   */\n  dup6\n    /* \"#utility.yul\":8560:8578   */\n  add\n    /* \"#utility.yul\":8547:8578   */\n  swap5\n  pop\n    /* \"#utility.yul\":8421:8425   */\n  0x20\n    /* \"#utility.yul\":8418:8419   */\n  dup2\n    /* \"#utility.yul\":8414:8426   */\n  add\n    /* \"#utility.yul\":8409:8426   */\n  swap1\n  pop\n    /* \"#utility.yul\":8384:8592   */\n  jump(tag_185)\ntag_187:\n    /* \"#utility.yul\":8620:8626   */\n  dup7\n    /* \"#utility.yul\":8611:8618   */\n  dup4\n    /* \"#utility.yul\":8608:8627   */\n  lt\n    /* \"#utility.yul\":8605:8784   */\n  iszero\n  tag_188\n  jumpi\n    /* \"#utility.yul\":8678:8687   */\n  dup5\n    /* \"#utility.yul\":8673:8676   */\n  dup10\n    /* \"#utility.yul\":8669:8688   */\n  add\n    /* \"#utility.yul\":8663:8689   */\n  mload\n    /* \"#utility.yul\":8721:8769   */\n  tag_189\n    /* \"#utility.yul\":8763:8767   */\n  0x1f\n    /* \"#utility.yul\":8755:8761   */\n  dup10\n    /* \"#utility.yul\":8751:8768   */\n  and\n    /* \"#utility.yul\":8740:8749   */\n  dup3\n    /* \"#utility.yul\":8721:8769   */\n  tag_85\n  jump\t// in\ntag_189:\n    /* \"#utility.yul\":8713:8719   */\n  dup4\n    /* \"#utility.yul\":8706:8770   */\n  sstore\n    /* \"#utility.yul\":8628:8784   */\n  pop\n    /* \"#utility.yul\":8605:8784   */\ntag_188:\n    /* \"#utility.yul\":8830:8831   */\n  0x01\n    /* \"#utility.yul\":8826:8827   */\n  0x02\n    /* \"#utility.yul\":8818:8824   */\n  dup9\n    /* \"#utility.yul\":8814:8828   */\n  mul\n    /* \"#utility.yul\":8810:8832   */\n  add\n    /* \"#utility.yul\":8804:8808   */\n  dup9\n    /* \"#utility.yul\":8797:8833   */\n  sstore\n    /* \"#utility.yul\":8232:8843   */\n  pop\n  pop\n  pop\n    /* \"#utility.yul\":8195:9082   */\ntag_180:\n  pop\n    /* \"#utility.yul\":7785:9088   */\n  pop\n  pop\n  pop\n    /* \"#utility.yul\":7693:9088   */\n  pop\n  pop\n  jump\t// out\n    /* \"#utility.yul\":9094:9274   */\ntag_87:\n    /* \"#utility.yul\":9142:9219   */\n  0x4e487b7100000000000000000000000000000000000000000000000000000000\n    /* \"#utility.yul\":9139:9140   */\n  0x00\n    /* \"#utility.yul\":9132:9220   */\n  mstore\n    /* \"#utility.yul\":9239:9243   */\n  0x11\n    /* \"#utility.yul\":9236:9237   */\n  0x04\n    /* \"#utility.yul\":9229:9244   */\n  mstore\n    /* \"#utility.yul\":9263:9267   */\n  0x24\n    /* \"#utility.yul\":9260:9261   */\n  0x00\n    /* \"#utility.yul\":9253:9268   */\n  revert\n    /* \"#utility.yul\":9280:9513   */\ntag_23:\n    /* \"#utility.yul\":9319:9322   */\n  0x00\n    /* \"#utility.yul\":9342:9366   */\n  tag_192\n    /* \"#utility.yul\":9360:9365   */\n  dup3\n    /* \"#utility.yul\":9342:9366   */\n  tag_57\n  jump\t// in\ntag_192:\n    /* \"#utility.yul\":9333:9366   */\n  swap2\n  pop\n    /* \"#utility.yul\":9388:9454   */\n  0xffffffffffffffffffffffffffffffffffffffffffffffffffffffffffffffff\n    /* \"#utility.yul\":9381:9386   */\n  dup3\n    /* \"#utility.yul\":9378:9455   */\n  sub\n    /* \"#utility.yul\":9375:9478   */\n  tag_193\n  jumpi\n    /* \"#utility.yul\":9458:9476   */\n  tag_194\n  tag_87\n  jump\t// in\ntag_194:\n    /* \"#utility.yul\":9375:9478   */\ntag_193:\n    /* \"#utility.yul\":9505:9506   */\n  0x01\n    /* \"#utility.yul\":9498:9503   */\n  dup3\n    /* \"#utility.yul\":9494:9507   */\n  add\n    /* \"#utility.yul\":9487:9507   */\n  swap1\n  pop\n    /* \"#utility.yul\":9280:9513   */\n  swap2\n  swap1\n  pop\n  jump\t// out\n    /* \"#utility.yul\":9519:9699   */\ntag_88:\n    /* \"#utility.yul\":9567:9644   */\n  0x4e487b7100000000000000000000000000000000000000000000000000000000\n    /* \"#utility.yul\":9564:9565   */\n  0x00\n    /* \"#utility.yul\":9557:9645   */\n  mstore\n    /* \"#utility.yul\":9664:9668   */\n  0x12\n    /* \"#utility.yul\":9661:9662   */\n  0x04\n    /* \"#utility.yul\":9654:9669   */\n  mstore\n    /* \"#utility.yul\":9688:9692   */\n  0x24\n    /* \"#utility.yul\":9685:9686   */\n  0x00\n    /* \"#utility.yul\":9678:9693   */\n  revert\n    /* \"#utility.yul\":9705:9890   */\ntag_31:\n    /* \"#utility.yul\":9745:9746   */\n  0x00\n    /* \"#utility.yul\":9762:9782   */\n  tag_197\n    /* \"#utility.yul\":9780:9781   */\n  dup3\n    /* \"#utility.yul\":9762:9782   */\n  tag_57\n  jump\t// in\ntag_197:\n    /* \"#utility.yul\":9757:9782   */\n  swap2\n  pop\n    /* \"#utility.yul\":9796:9816   */\n  tag_198\n    /* \"#utility.yul\":9814:9815   */\n  dup4\n    /* \"#utility.yul\":9796:9816   */\n  tag_57\n  jump\t// in\ntag_198:\n    /* \"#utility.yul\":9791:9816   */\n  swap3\n  pop\n    /* \"#utility.yul\":9835:9836   */\n  dup3\n    /* \"#utility.yul\":9825:9860   */\n  tag_199\n  jumpi\n    /* \"#utility.yul\":9840:9858   */\n  tag_200\n  tag_88\n  jump\t// in\ntag_200:\n    /* \"#utility.yul\":9825:9860   */\ntag_199:\n    /* \"#utility.yul\":9882:9883   */\n  dup3\n    /* \"#utility.yul\":9879:9880   */\n  dup3\n    /* \"#utility.yul\":9875:9884   */\n  div\n    /* \"#utility.yul\":9870:9884   */\n  swap1\n  pop\n    /* \"#utility.yul\":9705:9890   */\n  swap3\n  swap2\n  pop\n  pop\n  jump\t// out\n    /* \"#utility.yul\":9896:10090   */\ntag_38:\n    /* \"#utility.yul\":9936:9940   */\n  0x00\n    /* \"#utility.yul\":9956:9976   */\n  tag_202\n    /* \"#utility.yul\":9974:9975   */\n  dup3\n    /* \"#utility.yul\":9956:9976   */\n  tag_57\n  jump\t// in\ntag_202:\n    /* \"#utility.yul\":9951:9976   */\n  swap2\n  pop\n    /* \"#utility.yul\":9990:10010   */\n  tag_203\n    /* \"#utility.yul\":10008:10009   */\n  dup4\n    /* \"#utility.yul\":9990:10010   */\n  tag_57\n  jump\t// in\ntag_203:\n    /* \"#utility.yul\":9985:10010   */\n  swap3\n  pop\n    /* \"#utility.yul\":10034:10035   */\n  dup3\n    /* \"#utility.yul\":10031:10032   */\n  dup3\n    /* \"#utility.yul\":10027:10036   */\n  sub\n    /* \"#utility.yul\":10019:10036   */\n  swap1\n  pop\n    /* \"#utility.yul\":10058:10059   */\n  dup2\n    /* \"#utility.yul\":10052:10056   */\n  dup2\n    /* \"#utility.yul\":10049:10060   */\n  gt\n    /* \"#utility.yul\":10046:10083   */\n  iszero\n  tag_204\n  jumpi\n    /* \"#utility.yul\":10063:10081   */\n  tag_205\n  tag_87\n  jump\t// in\ntag_205:\n    /* \"#utility.yul\":10046:10083   */\ntag_204:\n    /* \"#utility.yul\":9896:10090   */\n  swap3\n  swap2\n  pop\n  pop\n  jump\t// out\n    /* \"#utility.yul\":10096:10272   */\ntag_40:\n    /* \"#utility.yul\":10128:10129   */\n  0x00\n    /* \"#utility.yul\":10145:10165   */\n  tag_207\n    /* \"#utility.yul\":10163:10164   */\n  dup3\n    /* \"#utility.yul\":10145:10165   */\n  tag_57\n  jump\t// in\ntag_207:\n    /* \"#utility.yul\":10140:10165   */\n  swap2\n  pop\n    /* \"#utility.yul\":10179:10199   */\n  tag_208\n    /* \"#utility.yul\":10197:10198   */\n  dup4\n    /* \"#utility.yul\":10179:10199   */\n  tag_57\n  jump\t// in\ntag_208:\n    /* \"#utility.yul\":10174:10199   */\n  swap3\n  pop\n    /* \"#utility.yul\":10218:10219   */\n  dup3\n    /* \"#utility.yul\":10208:10243   */\n  tag_209\n  jumpi\n    /* \"#utility.yul\":10223:10241   */\n  tag_210\n  tag_88\n  jump\t// in\ntag_210:\n    /* \"#utility.yul\":10208:10243   */\ntag_209:\n    /* \"#utility.yul\":10264:10265   */\n  dup3\n    /* \"#utility.yul\":10261:10262   */\n  dup3\n    /* \"#utility.yul\":10257:10266   */\n  mod\n    /* \"#utility.yul\":10252:10266   */\n  swap1\n  pop\n    /* \"#utility.yul\":10096:10272   */\n  swap3\n  swap2\n  pop\n  pop\n  jump\t// out\n    /* \"#utility.yul\":10278:10469   */\ntag_42:\n    /* \"#utility.yul\":10318:10321   */\n  0x00\n    /* \"#utility.yul\":10337:10357   */\n  tag_212\n    /* \"#utility.yul\":10355:10356   */\n  dup3\n    /* \"#utility.yul\":10337:10357   */\n  tag_57\n  jump\t// in\ntag_212:\n    /* \"#utility.yul\":10332:10357   */\n  swap2\n  pop\n    /* \"#utility.yul\":10371:10391   */\n  tag_213\n    /* \"#utility.yul\":10389:10390   */\n  dup4\n    /* \"#utility.yul\":10371:10391   */\n  tag_57\n  jump\t// in\ntag_213:\n    /* \"#utility.yul\":10366:10391   */\n  swap3\n  pop\n    /* \"#utility.yul\":10414:10415   */\n  dup3\n    /* \"#utility.yul\":10411:10412   */\n  dup3\n    /* \"#utility.yul\":10407:10416   */\n  add\n    /* \"#utility.yul\":10400:10416   */\n  swap1\n  pop\n    /* \"#utility.yul\":10435:10438   */\n  dup1\n    /* \"#utility.yul\":10432:10433   */\n  dup3\n    /* \"#utility.yul\":10429:10439   */\n  gt\n    /* \"#utility.yul\":10426:10462   */\n  iszero\n  tag_214\n  jumpi\n    /* \"#utility.yul\":10442:10460   */\n  tag_215\n  tag_87\n  jump\t// in\ntag_215:\n    /* \"#utility.yul\":10426:10462   */\ntag_214:\n    /* \"#utility.yul\":10278:10469   */\n  swap3\n  swap2\n  pop\n  pop\n  jump\t// out\n    /* \"#utility.yul\":10475:10655   */\ntag_45:\n    /* \"#utility.yul\":10523:10600   */\n  0x4e487b7100000000000000000000000000000000000000000000000000000000\n    /* \"#utility.yul\":10520:10521   */\n  0x00\n    /* \"#utility.yul\":10513:10601   */\n  mstore\n    /* \"#utility.yul\":10620:10624   */\n  0x32\n    /* \"#utility.yul\":10617:10618   */\n  0x04\n    /* \"#utility.yul\":10610:10625   */\n  mstore\n    /* \"#utility.yul\":10644:10648   */\n  0x24\n    /* \"#utility.yul\":10641:10642   */\n  0x00\n    /* \"#utility.yul\":10634:10649   */\n  revert\n    /* \"Voting.sol\":641:6415  contract Voting {... */\ntag_24:\n  dataSize(sub_0)\n  dup1\n  dataOffset(sub_0)\n  0x00\n  codecopy\n  0x00\n  return\nstop\n\nsub_0: assembly {\n        /* \"Voting.sol\":641:6415  contract Voting {... */\n      mstore(0x40, 0x80)\n      callvalue\n      dup1\n      iszero\n      tag_1\n      jumpi\n      0x00\n      dup1\n      revert\n    tag_1:\n      pop\n      jumpi(tag_2, lt(calldatasize, 0x04))\n      shr(0xe0, calldataload(0x00))\n      dup1\n      0x78622c5d\n      gt\n      tag_20\n      jumpi\n      dup1\n      0xa50239ee\n      gt\n      tag_21\n      jumpi\n      dup1\n      0xa50239ee\n      eq\n      tag_15\n      jumpi\n      dup1\n      0xa944b7a6\n      eq\n      tag_16\n      jumpi\n      dup1\n      0xc24a0f8b\n      eq\n      tag_17\n      jumpi\n      dup1\n      0xdfbf53ae\n      eq\n      tag_18\n      jumpi\n      dup1\n      0xf9bc8589\n      eq\n      tag_19\n      jumpi\n      jump(tag_2)\n    tag_21:\n      dup1\n      0x78622c5d\n      eq\n      tag_11\n      jumpi\n      dup1\n      0x9c2aab5e\n      eq\n      tag_12\n      jumpi\n      dup1\n      0x9d9a7fe9\n      eq\n      tag_13\n      jumpi\n      dup1\n      0xa3d45314\n      eq\n      tag_14\n      jumpi\n      jump(tag_2)\n    tag_20:\n      dup1\n      0x255adfd4\n      gt\n      tag_22\n      jumpi\n      dup1\n      0x255adfd4\n      eq\n      tag_7\n      jumpi\n      dup1\n      0x3dde87b4\n      eq\n      tag_8\n      jumpi\n      dup1\n      0x481c6a75\n      eq\n      tag_9\n      jumpi\n      dup1\n      0x70babc8a\n      eq\n      tag_10\n      jumpi\n      jump(tag_2)\n    tag_22:\n      dup1\n      0x1442f65a\n      eq\n      tag_3\n      jumpi\n      dup1\n      0x1632c03f\n      eq\n      tag_4\n      jumpi\n      dup1\n      0x2134f7f0\n      eq\n      tag_5\n      jumpi\n      dup1\n      0x23822a74\n      eq\n      tag_6\n      jumpi\n    tag_2:\n      0x00\n      dup1\n      revert\n        /* \"Voting.sol\":5493:5800  function getContractDetail()... */\n    tag_3:\n      tag_23\n      tag_24\n      jump\t// in\n    tag_23:\n      mload(0x40)\n      tag_25\n      swap7\n      swap6\n      swap5\n      swap4\n      swap3\n      swap2\n      swap1\n      tag_26\n      jump\t// in\n    tag_25:\n      mload(0x40)\n      dup1\n      swap2\n      sub\n      swap1\n      return\n        /* \"Voting.sol\":722:746  uint public totalChoices */\n    tag_4:\n      tag_27\n      tag_28\n      jump\t// in\n    tag_27:\n      mload(0x40)\n      tag_29\n      swap2\n      swap1\n      tag_30\n      jump\t// in\n    tag_29:\n      mload(0x40)\n      dup1\n      swap2\n      sub\n      swap1\n      return\n        /* \"Voting.sol\":2994:3569  function completedVoteThenTransfer() public restricted {... */\n    tag_5:\n      tag_31\n      tag_32\n      jump\t// in\n    tag_31:\n      stop\n        /* \"Voting.sol\":2300:2986  function pickChoice(uint index) public {... */\n    tag_6:\n      tag_33\n      0x04\n      dup1\n      calldatasize\n      sub\n      dup2\n      add\n      swap1\n      tag_34\n      swap2\n      swap1\n      tag_35\n      jump\t// in\n    tag_34:\n      tag_36\n      jump\t// in\n    tag_33:\n      stop\n        /* \"Voting.sol\":925:970  mapping(address => bool) public allowedVoters */\n    tag_7:\n      tag_37\n      0x04\n      dup1\n      calldatasize\n      sub\n      dup2\n      add\n      swap1\n      tag_38\n      swap2\n      swap1\n      tag_39\n      jump\t// in\n    tag_38:\n      tag_40\n      jump\t// in\n    tag_37:\n      mload(0x40)\n      tag_41\n      swap2\n      swap1\n      tag_42\n      jump\t// in\n    tag_41:\n      mload(0x40)\n      dup1\n      swap2\n      sub\n      swap1\n      return\n        /* \"Voting.sol\":5050:5379  function getStructDetail(... */\n    tag_8:\n      tag_43\n      0x04\n      dup1\n      calldatasize\n      sub\n      dup2\n      add\n      swap1\n      tag_44\n      swap2\n      swap1\n      tag_35\n      jump\t// in\n    tag_44:\n      tag_45\n      jump\t// in\n    tag_43:\n      mload(0x40)\n      tag_46\n      swap4\n      swap3\n      swap2\n      swap1\n      tag_47\n      jump\t// in\n    tag_46:\n      mload(0x40)\n      dup1\n      swap2\n      sub\n      swap1\n      return\n        /* \"Voting.sol\":664:686  address public manager */\n    tag_9:\n      tag_48\n      tag_49\n      jump\t// in\n    tag_48:\n      mload(0x40)\n      tag_50\n      swap2\n      swap1\n      tag_51\n      jump\t// in\n    tag_50:\n      mload(0x40)\n      dup1\n      swap2\n      sub\n      swap1\n      return\n        /* \"Voting.sol\":977:1007  uint public totalAllowedVoters */\n    tag_10:\n      tag_52\n      tag_53\n      jump\t// in\n    tag_52:\n      mload(0x40)\n      tag_54\n      swap2\n      swap1\n      tag_30\n      jump\t// in\n    tag_54:\n      mload(0x40)\n      dup1\n      swap2\n      sub\n      swap1\n      return\n        /* \"Voting.sol\":888:916  uint public totalVotersVoted */\n    tag_11:\n      tag_55\n      tag_56\n      jump\t// in\n    tag_55:\n      mload(0x40)\n      tag_57\n      swap2\n      swap1\n      tag_30\n      jump\t// in\n    tag_57:\n      mload(0x40)\n      dup1\n      swap2\n      sub\n      swap1\n      return\n        /* \"Voting.sol\":5387:5485  function getVotingCount() public view returns (uint) {... */\n    tag_12:\n      tag_58\n      tag_59\n      jump\t// in\n    tag_58:\n      mload(0x40)\n      tag_60\n      swap2\n      swap1\n      tag_30\n      jump\t// in\n    tag_60:\n      mload(0x40)\n      dup1\n      swap2\n      sub\n      swap1\n      return\n        /* \"Voting.sol\":808:829  bool public completed */\n    tag_13:\n      tag_61\n      tag_62\n      jump\t// in\n    tag_61:\n      mload(0x40)\n      tag_63\n      swap2\n      swap1\n      tag_42\n      jump\t// in\n    tag_63:\n      mload(0x40)\n      dup1\n      swap2\n      sub\n      swap1\n      return\n        /* \"Voting.sol\":838:881  mapping(address => bool) public votedVoters */\n    tag_14:\n      tag_64\n      0x04\n      dup1\n      calldatasize\n      sub\n      dup2\n      add\n      swap1\n      tag_65\n      swap2\n      swap1\n      tag_39\n      jump\t// in\n    tag_65:\n      tag_66\n      jump\t// in\n    tag_64:\n      mload(0x40)\n      tag_67\n      swap2\n      swap1\n      tag_42\n      jump\t// in\n    tag_67:\n      mload(0x40)\n      dup1\n      swap2\n      sub\n      swap1\n      return\n        /* \"Voting.sol\":1016:1049  choicesData[] public choicesDatas */\n    tag_15:\n      tag_68\n      0x04\n      dup1\n      calldatasize\n      sub\n      dup2\n      add\n      swap1\n      tag_69\n      swap2\n      swap1\n      tag_35\n      jump\t// in\n    tag_69:\n      tag_70\n      jump\t// in\n    tag_68:\n      mload(0x40)\n      tag_71\n      swap3\n      swap2\n      swap1\n      tag_72\n      jump\t// in\n    tag_71:\n      mload(0x40)\n      dup1\n      swap2\n      sub\n      swap1\n      return\n        /* \"Voting.sol\":753:773  uint public fromDate */\n    tag_16:\n      tag_73\n      tag_74\n      jump\t// in\n    tag_73:\n      mload(0x40)\n      tag_75\n      swap2\n      swap1\n      tag_30\n      jump\t// in\n    tag_75:\n      mload(0x40)\n      dup1\n      swap2\n      sub\n      swap1\n      return\n        /* \"Voting.sol\":780:799  uint public endDate */\n    tag_17:\n      tag_76\n      tag_77\n      jump\t// in\n    tag_76:\n      mload(0x40)\n      tag_78\n      swap2\n      swap1\n      tag_30\n      jump\t// in\n    tag_78:\n      mload(0x40)\n      dup1\n      swap2\n      sub\n      swap1\n      return\n        /* \"Voting.sol\":693:713  string public winner */\n    tag_18:\n      tag_79\n      tag_80\n      jump\t// in\n    tag_79:\n      mload(0x40)\n      tag_81\n      swap2\n      swap1\n      tag_82\n      jump\t// in\n    tag_81:\n      mload(0x40)\n      dup1\n      swap2\n      sub\n      swap1\n      return\n        /* \"Voting.sol\":1927:2292  function addAllowerdVoters(address newAllowerdVoters) public restricted {... */\n    tag_19:\n      tag_83\n      0x04\n      dup1\n      calldatasize\n      sub\n      dup2\n      add\n      swap1\n      tag_84\n      swap2\n      swap1\n      tag_39\n      jump\t// in\n    tag_84:\n      tag_85\n      jump\t// in\n    tag_83:\n      stop\n        /* \"Voting.sol\":5493:5800  function getContractDetail()... */\n    tag_24:\n        /* \"Voting.sol\":5570:5577  address */\n      0x00\n        /* \"Voting.sol\":5579:5583  uint */\n      dup1\n        /* \"Voting.sol\":5585:5589  uint */\n      0x00\n        /* \"Voting.sol\":5591:5595  uint */\n      dup1\n        /* \"Voting.sol\":5597:5601  bool */\n      0x00\n        /* \"Voting.sol\":5603:5607  uint */\n      dup1\n        /* \"Voting.sol\":5647:5654  manager */\n      0x00\n      dup1\n      sload\n      swap1\n      0x0100\n      exp\n      swap1\n      div\n      0xffffffffffffffffffffffffffffffffffffffff\n      and\n        /* \"Voting.sol\":5669:5681  totalChoices */\n      sload(0x02)\n        /* \"Voting.sol\":5696:5704  fromDate */\n      sload(0x03)\n        /* \"Voting.sol\":5719:5726  endDate */\n      sload(0x04)\n        /* \"Voting.sol\":5741:5750  completed */\n      0x05\n      0x00\n      swap1\n      sload\n      swap1\n      0x0100\n      exp\n      swap1\n      div\n      0xff\n      and\n        /* \"Voting.sol\":5765:5781  totalVotersVoted */\n      sload(0x07)\n        /* \"Voting.sol\":5625:5792  return (... */\n      swap6\n      pop\n      swap6\n      pop\n      swap6\n      pop\n      swap6\n      pop\n      swap6\n      pop\n      swap6\n      pop\n        /* \"Voting.sol\":5493:5800  function getContractDetail()... */\n      swap1\n      swap2\n      swap3\n      swap4\n      swap5\n      swap6\n      jump\t// out\n        /* \"Voting.sol\":722:746  uint public totalChoices */\n    tag_28:\n      sload(0x02)\n      dup2\n      jump\t// out\n        /* \"Voting.sol\":2994:3569  function completedVoteThenTransfer() public restricted {... */\n    tag_32:\n        /* \"Voting.sol\":1241:1248  manager */\n      0x00\n      dup1\n      sload\n      swap1\n      0x0100\n      exp\n      swap1\n      div\n      0xffffffffffffffffffffffffffffffffffffffff\n      and\n        /* \"Voting.sol\":1227:1248  msg.sender == manager */\n      0xffffffffffffffffffffffffffffffffffffffff\n      and\n        /* \"Voting.sol\":1227:1237  msg.sender */\n      caller\n        /* \"Voting.sol\":1227:1248  msg.sender == manager */\n      0xffffffffffffffffffffffffffffffffffffffff\n      and\n      eq\n        /* \"Voting.sol\":1219:1249  require(msg.sender == manager) */\n      tag_88\n      jumpi\n      0x00\n      dup1\n      revert\n    tag_88:\n        /* \"Voting.sol\":3215:3224  completed */\n      0x05\n      0x00\n      swap1\n      sload\n      swap1\n      0x0100\n      exp\n      swap1\n      div\n      0xff\n      and\n        /* \"Voting.sol\":3214:3224  !completed */\n      iszero\n        /* \"Voting.sol\":3206:3245  require(!completed, \"Voting Has Ended\") */\n      tag_90\n      jumpi\n      mload(0x40)\n      0x08c379a000000000000000000000000000000000000000000000000000000000\n      dup2\n      mstore\n      0x04\n      add\n      tag_91\n      swap1\n      tag_92\n      jump\t// in\n    tag_91:\n      mload(0x40)\n      dup1\n      swap2\n      sub\n      swap1\n      revert\n    tag_90:\n        /* \"Voting.sol\":3291:3292  1 */\n      0x01\n        /* \"Voting.sol\":3262:3281  _getWinnerIndices() */\n      tag_93\n        /* \"Voting.sol\":3262:3279  _getWinnerIndices */\n      tag_94\n        /* \"Voting.sol\":3262:3281  _getWinnerIndices() */\n      jump\t// in\n    tag_93:\n        /* \"Voting.sol\":3262:3288  _getWinnerIndices().length */\n      mload\n        /* \"Voting.sol\":3262:3292  _getWinnerIndices().length > 1 */\n      gt\n        /* \"Voting.sol\":3258:3562  if (_getWinnerIndices().length > 1) {... */\n      iszero\n      tag_95\n      jumpi\n        /* \"Voting.sol\":3329:3335  1 days */\n      0x015180\n        /* \"Voting.sol\":3319:3326  endDate */\n      sload(0x04)\n        /* \"Voting.sol\":3319:3335  endDate + 1 days */\n      tag_96\n      swap2\n      swap1\n      tag_97\n      jump\t// in\n    tag_96:\n        /* \"Voting.sol\":3309:3316  endDate */\n      0x04\n        /* \"Voting.sol\":3309:3335  endDate = endDate + 1 days */\n      dup2\n      swap1\n      sstore\n      pop\n        /* \"Voting.sol\":3258:3562  if (_getWinnerIndices().length > 1) {... */\n      jump(tag_98)\n    tag_95:\n        /* \"Voting.sol\":3368:3400  choicesData storage winnerChoice */\n      0x00\n        /* \"Voting.sol\":3403:3415  choicesDatas */\n      0x0a\n        /* \"Voting.sol\":3434:3453  _getWinnerIndices() */\n      tag_99\n        /* \"Voting.sol\":3434:3451  _getWinnerIndices */\n      tag_94\n        /* \"Voting.sol\":3434:3453  _getWinnerIndices() */\n      jump\t// in\n    tag_99:\n        /* \"Voting.sol\":3454:3455  0 */\n      0x00\n        /* \"Voting.sol\":3434:3456  _getWinnerIndices()[0] */\n      dup2\n      mload\n      dup2\n      lt\n      tag_100\n      jumpi\n      tag_101\n      tag_102\n      jump\t// in\n    tag_101:\n    tag_100:\n      0x20\n      mul\n      0x20\n      add\n      add\n      mload\n        /* \"Voting.sol\":3403:3471  choicesDatas[... */\n      dup2\n      sload\n      dup2\n      lt\n      tag_103\n      jumpi\n      tag_104\n      tag_102\n      jump\t// in\n    tag_104:\n    tag_103:\n      swap1\n      0x00\n      mstore\n      keccak256(0x00, 0x20)\n      swap1\n      0x03\n      mul\n      add\n        /* \"Voting.sol\":3368:3471  choicesData storage winnerChoice = choicesDatas[... */\n      swap1\n      pop\n        /* \"Voting.sol\":3495:3507  winnerChoice */\n      dup1\n        /* \"Voting.sol\":3495:3519  winnerChoice.description */\n      0x00\n      add\n        /* \"Voting.sol\":3486:3492  winner */\n      0x01\n        /* \"Voting.sol\":3486:3519  winner = winnerChoice.description */\n      swap1\n      dup2\n      tag_106\n      swap2\n      swap1\n      tag_107\n      jump\t// in\n    tag_106:\n      pop\n        /* \"Voting.sol\":3546:3550  true */\n      0x01\n        /* \"Voting.sol\":3534:3543  completed */\n      0x05\n      0x00\n        /* \"Voting.sol\":3534:3550  completed = true */\n      0x0100\n      exp\n      dup2\n      sload\n      dup2\n      0xff\n      mul\n      not\n      and\n      swap1\n      dup4\n      iszero\n      iszero\n      mul\n      or\n      swap1\n      sstore\n      pop\n        /* \"Voting.sol\":3353:3562  {... */\n      pop\n        /* \"Voting.sol\":3258:3562  if (_getWinnerIndices().length > 1) {... */\n    tag_98:\n        /* \"Voting.sol\":2994:3569  function completedVoteThenTransfer() public restricted {... */\n      jump\t// out\n        /* \"Voting.sol\":2300:2986  function pickChoice(uint index) public {... */\n    tag_36:\n        /* \"Voting.sol\":2372:2379  manager */\n      0x00\n      dup1\n      sload\n      swap1\n      0x0100\n      exp\n      swap1\n      div\n      0xffffffffffffffffffffffffffffffffffffffff\n      and\n        /* \"Voting.sol\":2358:2379  msg.sender != manager */\n      0xffffffffffffffffffffffffffffffffffffffff\n      and\n        /* \"Voting.sol\":2358:2368  msg.sender */\n      caller\n        /* \"Voting.sol\":2358:2379  msg.sender != manager */\n      0xffffffffffffffffffffffffffffffffffffffff\n      and\n      sub\n        /* \"Voting.sol\":2350:2404  require(msg.sender != manager, \"Manager Can Not Vote\") */\n      tag_109\n      jumpi\n      mload(0x40)\n      0x08c379a000000000000000000000000000000000000000000000000000000000\n      dup2\n      mstore\n      0x04\n      add\n      tag_110\n      swap1\n      tag_111\n      jump\t// in\n    tag_110:\n      mload(0x40)\n      dup1\n      swap2\n      sub\n      swap1\n      revert\n    tag_109:\n        /* \"Voting.sol\":2423:2436  allowedVoters */\n      0x08\n        /* \"Voting.sol\":2423:2448  allowedVoters[msg.sender] */\n      0x00\n        /* \"Voting.sol\":2437:2447  msg.sender */\n      caller\n        /* \"Voting.sol\":2423:2448  allowedVoters[msg.sender] */\n      0xffffffffffffffffffffffffffffffffffffffff\n      and\n      0xffffffffffffffffffffffffffffffffffffffff\n      and\n      dup2\n      mstore\n      0x20\n      add\n      swap1\n      dup2\n      mstore\n      0x20\n      add\n      0x00\n      keccak256\n      0x00\n      swap1\n      sload\n      swap1\n      0x0100\n      exp\n      swap1\n      div\n      0xff\n      and\n        /* \"Voting.sol\":2415:2486  require(allowedVoters[msg.sender], \"You Cannot Take Part in This Vote\") */\n      tag_112\n      jumpi\n      mload(0x40)\n      0x08c379a000000000000000000000000000000000000000000000000000000000\n      dup2\n      mstore\n      0x04\n      add\n      tag_113\n      swap1\n      tag_114\n      jump\t// in\n    tag_113:\n      mload(0x40)\n      dup1\n      swap2\n      sub\n      swap1\n      revert\n    tag_112:\n        /* \"Voting.sol\":2506:2517  votedVoters */\n      0x06\n        /* \"Voting.sol\":2506:2529  votedVoters[msg.sender] */\n      0x00\n        /* \"Voting.sol\":2518:2528  msg.sender */\n      caller\n        /* \"Voting.sol\":2506:2529  votedVoters[msg.sender] */\n      0xffffffffffffffffffffffffffffffffffffffff\n      and\n      0xffffffffffffffffffffffffffffffffffffffff\n      and\n      dup2\n      mstore\n      0x20\n      add\n      swap1\n      dup2\n      mstore\n      0x20\n      add\n      0x00\n      keccak256\n      0x00\n      swap1\n      sload\n      swap1\n      0x0100\n      exp\n      swap1\n      div\n      0xff\n      and\n        /* \"Voting.sol\":2505:2529  !votedVoters[msg.sender] */\n      iszero\n        /* \"Voting.sol\":2497:2556  require(!votedVoters[msg.sender], \"You Can Only Vote Once\") */\n      tag_115\n      jumpi\n      mload(0x40)\n      0x08c379a000000000000000000000000000000000000000000000000000000000\n      dup2\n      mstore\n      0x04\n      add\n      tag_116\n      swap1\n      tag_117\n      jump\t// in\n    tag_116:\n      mload(0x40)\n      dup1\n      swap2\n      sub\n      swap1\n      revert\n    tag_115:\n        /* \"Voting.sol\":2576:2585  completed */\n      0x05\n      0x00\n      swap1\n      sload\n      swap1\n      0x0100\n      exp\n      swap1\n      div\n      0xff\n      and\n        /* \"Voting.sol\":2575:2585  !completed */\n      iszero\n        /* \"Voting.sol\":2567:2606  require(!completed, \"Voting Has Ended\") */\n      tag_118\n      jumpi\n      mload(0x40)\n      0x08c379a000000000000000000000000000000000000000000000000000000000\n      dup2\n      mstore\n      0x04\n      add\n      tag_119\n      swap1\n      tag_92\n      jump\t// in\n    tag_119:\n      mload(0x40)\n      dup1\n      swap2\n      sub\n      swap1\n      revert\n    tag_118:\n        /* \"Voting.sol\":2657:2665  fromDate */\n      sload(0x03)\n        /* \"Voting.sol\":2639:2654  block.timestamp */\n      timestamp\n        /* \"Voting.sol\":2639:2665  block.timestamp > fromDate */\n      gt\n        /* \"Voting.sol\":2639:2694  block.timestamp > fromDate && block.timestamp < endDate */\n      dup1\n      iszero\n      tag_120\n      jumpi\n      pop\n        /* \"Voting.sol\":2687:2694  endDate */\n      sload(0x04)\n        /* \"Voting.sol\":2669:2684  block.timestamp */\n      timestamp\n        /* \"Voting.sol\":2669:2694  block.timestamp < endDate */\n      lt\n        /* \"Voting.sol\":2639:2694  block.timestamp > fromDate && block.timestamp < endDate */\n    tag_120:\n        /* \"Voting.sol\":2617:2749  require(... */\n      tag_121\n      jumpi\n      mload(0x40)\n      0x08c379a000000000000000000000000000000000000000000000000000000000\n      dup2\n      mstore\n      0x04\n      add\n      tag_122\n      swap1\n      tag_123\n      jump\t// in\n    tag_122:\n      mload(0x40)\n      dup1\n      swap2\n      sub\n      swap1\n      revert\n    tag_121:\n        /* \"Voting.sol\":2762:2793  choicesData storage choicesdata */\n      0x00\n        /* \"Voting.sol\":2796:2808  choicesDatas */\n      0x0a\n        /* \"Voting.sol\":2809:2814  index */\n      dup3\n        /* \"Voting.sol\":2796:2815  choicesDatas[index] */\n      dup2\n      sload\n      dup2\n      lt\n      tag_124\n      jumpi\n      tag_125\n      tag_102\n      jump\t// in\n    tag_125:\n    tag_124:\n      swap1\n      0x00\n      mstore\n      keccak256(0x00, 0x20)\n      swap1\n      0x03\n      mul\n      add\n        /* \"Voting.sol\":2762:2815  choicesData storage choicesdata = choicesDatas[index] */\n      swap1\n      pop\n        /* \"Voting.sol\":2826:2837  choicesdata */\n      dup1\n        /* \"Voting.sol\":2826:2851  choicesdata.receivedVotes */\n      0x01\n      add\n      0x00\n        /* \"Voting.sol\":2826:2853  choicesdata.receivedVotes++ */\n      dup2\n      sload\n      dup1\n      swap3\n      swap2\n      swap1\n      tag_127\n      swap1\n      tag_128\n      jump\t// in\n    tag_127:\n      swap2\n      swap1\n      pop\n      sstore\n      pop\n        /* \"Voting.sol\":2864:2875  choicesdata */\n      dup1\n        /* \"Voting.sol\":2864:2882  choicesdata.voters */\n      0x02\n      add\n        /* \"Voting.sol\":2896:2906  msg.sender */\n      caller\n        /* \"Voting.sol\":2864:2908  choicesdata.voters.push(payable(msg.sender)) */\n      swap1\n      dup1\n      0x01\n      dup2\n      sload\n      add\n      dup1\n      dup3\n      sstore\n      dup1\n      swap2\n      pop\n      pop\n      0x01\n      swap1\n      sub\n      swap1\n      0x00\n      mstore\n      keccak256(0x00, 0x20)\n      add\n      0x00\n      swap1\n      swap2\n      swap1\n      swap2\n      swap1\n      swap2\n      0x0100\n      exp\n      dup2\n      sload\n      dup2\n      0xffffffffffffffffffffffffffffffffffffffff\n      mul\n      not\n      and\n      swap1\n      dup4\n      0xffffffffffffffffffffffffffffffffffffffff\n      and\n      mul\n      or\n      swap1\n      sstore\n      pop\n        /* \"Voting.sol\":2945:2949  true */\n      0x01\n        /* \"Voting.sol\":2919:2930  votedVoters */\n      0x06\n        /* \"Voting.sol\":2919:2942  votedVoters[msg.sender] */\n      0x00\n        /* \"Voting.sol\":2931:2941  msg.sender */\n      caller\n        /* \"Voting.sol\":2919:2942  votedVoters[msg.sender] */\n      0xffffffffffffffffffffffffffffffffffffffff\n      and\n      0xffffffffffffffffffffffffffffffffffffffff\n      and\n      dup2\n      mstore\n      0x20\n      add\n      swap1\n      dup2\n      mstore\n      0x20\n      add\n      0x00\n      keccak256\n      0x00\n        /* \"Voting.sol\":2919:2949  votedVoters[msg.sender] = true */\n      0x0100\n      exp\n      dup2\n      sload\n      dup2\n      0xff\n      mul\n      not\n      and\n      swap1\n      dup4\n      iszero\n      iszero\n      mul\n      or\n      swap1\n      sstore\n      pop\n        /* \"Voting.sol\":2960:2976  totalVotersVoted */\n      0x07\n      0x00\n        /* \"Voting.sol\":2960:2978  totalVotersVoted++ */\n      dup2\n      sload\n      dup1\n      swap3\n      swap2\n      swap1\n      tag_130\n      swap1\n      tag_128\n      jump\t// in\n    tag_130:\n      swap2\n      swap1\n      pop\n      sstore\n      pop\n        /* \"Voting.sol\":2339:2986  {... */\n      pop\n        /* \"Voting.sol\":2300:2986  function pickChoice(uint index) public {... */\n      pop\n      jump\t// out\n        /* \"Voting.sol\":925:970  mapping(address => bool) public allowedVoters */\n    tag_40:\n      mstore(0x20, 0x08)\n      dup1\n      0x00\n      mstore\n      keccak256(0x00, 0x40)\n      0x00\n      swap2\n      pop\n      sload\n      swap1\n      0x0100\n      exp\n      swap1\n      div\n      0xff\n      and\n      dup2\n      jump\t// out\n        /* \"Voting.sol\":5050:5379  function getStructDetail(... */\n    tag_45:\n        /* \"Voting.sol\":5124:5137  string memory */\n      0x60\n        /* \"Voting.sol\":5139:5143  uint */\n      0x00\n        /* \"Voting.sol\":5145:5169  address payable[] memory */\n      0x60\n        /* \"Voting.sol\":5182:5212  choicesData storage choicedata */\n      0x00\n        /* \"Voting.sol\":5215:5227  choicesDatas */\n      0x0a\n        /* \"Voting.sol\":5228:5233  index */\n      dup6\n        /* \"Voting.sol\":5215:5234  choicesDatas[index] */\n      dup2\n      sload\n      dup2\n      lt\n      tag_132\n      jumpi\n      tag_133\n      tag_102\n      jump\t// in\n    tag_133:\n    tag_132:\n      swap1\n      0x00\n      mstore\n      keccak256(0x00, 0x20)\n      swap1\n      0x03\n      mul\n      add\n        /* \"Voting.sol\":5182:5234  choicesData storage choicedata = choicesDatas[index] */\n      swap1\n      pop\n        /* \"Voting.sol\":5267:5277  choicedata */\n      dup1\n        /* \"Voting.sol\":5267:5289  choicedata.description */\n      0x00\n      add\n        /* \"Voting.sol\":5304:5314  choicedata */\n      dup2\n        /* \"Voting.sol\":5304:5328  choicedata.receivedVotes */\n      0x01\n      add\n      sload\n        /* \"Voting.sol\":5343:5353  choicedata */\n      dup3\n        /* \"Voting.sol\":5343:5360  choicedata.voters */\n      0x02\n      add\n        /* \"Voting.sol\":5245:5371  return (... */\n      dup3\n      dup1\n      sload\n      tag_135\n      swap1\n      tag_136\n      jump\t// in\n    tag_135:\n      dup1\n      0x1f\n      add\n      0x20\n      dup1\n      swap2\n      div\n      mul\n      0x20\n      add\n      mload(0x40)\n      swap1\n      dup2\n      add\n      0x40\n      mstore\n      dup1\n      swap3\n      swap2\n      swap1\n      dup2\n      dup2\n      mstore\n      0x20\n      add\n      dup3\n      dup1\n      sload\n      tag_137\n      swap1\n      tag_136\n      jump\t// in\n    tag_137:\n      dup1\n      iszero\n      tag_138\n      jumpi\n      dup1\n      0x1f\n      lt\n      tag_139\n      jumpi\n      0x0100\n      dup1\n      dup4\n      sload\n      div\n      mul\n      dup4\n      mstore\n      swap2\n      0x20\n      add\n      swap2\n      jump(tag_138)\n    tag_139:\n      dup3\n      add\n      swap2\n      swap1\n      0x00\n      mstore\n      keccak256(0x00, 0x20)\n      swap1\n    tag_140:\n      dup2\n      sload\n      dup2\n      mstore\n      swap1\n      0x01\n      add\n      swap1\n      0x20\n      add\n      dup1\n      dup4\n      gt\n      tag_140\n      jumpi\n      dup3\n      swap1\n      sub\n      0x1f\n      and\n      dup3\n      add\n      swap2\n    tag_138:\n      pop\n      pop\n      pop\n      pop\n      pop\n      swap3\n      pop\n      dup1\n      dup1\n      sload\n      dup1\n      0x20\n      mul\n      0x20\n      add\n      mload(0x40)\n      swap1\n      dup2\n      add\n      0x40\n      mstore\n      dup1\n      swap3\n      swap2\n      swap1\n      dup2\n      dup2\n      mstore\n      0x20\n      add\n      dup3\n      dup1\n      sload\n      dup1\n      iszero\n      tag_141\n      jumpi\n      0x20\n      mul\n      dup3\n      add\n      swap2\n      swap1\n      0x00\n      mstore\n      keccak256(0x00, 0x20)\n      swap1\n    tag_142:\n      dup2\n      0x00\n      swap1\n      sload\n      swap1\n      0x0100\n      exp\n      swap1\n      div\n      0xffffffffffffffffffffffffffffffffffffffff\n      and\n      0xffffffffffffffffffffffffffffffffffffffff\n      and\n      dup2\n      mstore\n      0x20\n      add\n      swap1\n      0x01\n      add\n      swap1\n      dup1\n      dup4\n      gt\n      tag_142\n      jumpi\n    tag_141:\n      pop\n      pop\n      pop\n      pop\n      pop\n      swap1\n      pop\n      swap4\n      pop\n      swap4\n      pop\n      swap4\n      pop\n      pop\n        /* \"Voting.sol\":5050:5379  function getStructDetail(... */\n      swap2\n      swap4\n      swap1\n      swap3\n      pop\n      jump\t// out\n        /* \"Voting.sol\":664:686  address public manager */\n    tag_49:\n      0x00\n      dup1\n      sload\n      swap1\n      0x0100\n      exp\n      swap1\n      div\n      0xffffffffffffffffffffffffffffffffffffffff\n      and\n      dup2\n      jump\t// out\n        /* \"Voting.sol\":977:1007  uint public totalAllowedVoters */\n    tag_53:\n      sload(0x09)\n      dup2\n      jump\t// out\n        /* \"Voting.sol\":888:916  uint public totalVotersVoted */\n    tag_56:\n      sload(0x07)\n      dup2\n      jump\t// out\n        /* \"Voting.sol\":5387:5485  function getVotingCount() public view returns (uint) {... */\n    tag_59:\n        /* \"Voting.sol\":5434:5438  uint */\n      0x00\n        /* \"Voting.sol\":5458:5470  choicesDatas */\n      0x0a\n        /* \"Voting.sol\":5458:5477  choicesDatas.length */\n      dup1\n      sload\n      swap1\n      pop\n        /* \"Voting.sol\":5451:5477  return choicesDatas.length */\n      swap1\n      pop\n        /* \"Voting.sol\":5387:5485  function getVotingCount() public view returns (uint) {... */\n      swap1\n      jump\t// out\n        /* \"Voting.sol\":808:829  bool public completed */\n    tag_62:\n      0x05\n      0x00\n      swap1\n      sload\n      swap1\n      0x0100\n      exp\n      swap1\n      div\n      0xff\n      and\n      dup2\n      jump\t// out\n        /* \"Voting.sol\":838:881  mapping(address => bool) public votedVoters */\n    tag_66:\n      mstore(0x20, 0x06)\n      dup1\n      0x00\n      mstore\n      keccak256(0x00, 0x40)\n      0x00\n      swap2\n      pop\n      sload\n      swap1\n      0x0100\n      exp\n      swap1\n      div\n      0xff\n      and\n      dup2\n      jump\t// out\n        /* \"Voting.sol\":1016:1049  choicesData[] public choicesDatas */\n    tag_70:\n      0x0a\n      dup2\n      dup2\n      sload\n      dup2\n      lt\n      tag_144\n      jumpi\n      0x00\n      dup1\n      revert\n    tag_144:\n      swap1\n      0x00\n      mstore\n      keccak256(0x00, 0x20)\n      swap1\n      0x03\n      mul\n      add\n      0x00\n      swap2\n      pop\n      swap1\n      pop\n      dup1\n      0x00\n      add\n      dup1\n      sload\n      tag_146\n      swap1\n      tag_136\n      jump\t// in\n    tag_146:\n      dup1\n      0x1f\n      add\n      0x20\n      dup1\n      swap2\n      div\n      mul\n      0x20\n      add\n      mload(0x40)\n      swap1\n      dup2\n      add\n      0x40\n      mstore\n      dup1\n      swap3\n      swap2\n      swap1\n      dup2\n      dup2\n      mstore\n      0x20\n      add\n      dup3\n      dup1\n      sload\n      tag_147\n      swap1\n      tag_136\n      jump\t// in\n    tag_147:\n      dup1\n      iszero\n      tag_148\n      jumpi\n      dup1\n      0x1f\n      lt\n      tag_149\n      jumpi\n      0x0100\n      dup1\n      dup4\n      sload\n      div\n      mul\n      dup4\n      mstore\n      swap2\n      0x20\n      add\n      swap2\n      jump(tag_148)\n    tag_149:\n      dup3\n      add\n      swap2\n      swap1\n      0x00\n      mstore\n      keccak256(0x00, 0x20)\n      swap1\n    tag_150:\n      dup2\n      sload\n      dup2\n      mstore\n      swap1\n      0x01\n      add\n      swap1\n      0x20\n      add\n      dup1\n      dup4\n      gt\n      tag_150\n      jumpi\n      dup3\n      swap1\n      sub\n      0x1f\n      and\n      dup3\n      add\n      swap2\n    tag_148:\n      pop\n      pop\n      pop\n      pop\n      pop\n      swap1\n      dup1\n      0x01\n      add\n      sload\n      swap1\n      pop\n      dup3\n      jump\t// out\n        /* \"Voting.sol\":753:773  uint public fromDate */\n    tag_74:\n      sload(0x03)\n      dup2\n      jump\t// out\n        /* \"Voting.sol\":780:799  uint public endDate */\n    tag_77:\n      sload(0x04)\n      dup2\n      jump\t// out\n        /* \"Voting.sol\":693:713  string public winner */\n    tag_80:\n      0x01\n      dup1\n      sload\n      tag_151\n      swap1\n      tag_136\n      jump\t// in\n    tag_151:\n      dup1\n      0x1f\n      add\n      0x20\n      dup1\n      swap2\n      div\n      mul\n      0x20\n      add\n      mload(0x40)\n      swap1\n      dup2\n      add\n      0x40\n      mstore\n      dup1\n      swap3\n      swap2\n      swap1\n      dup2\n      dup2\n      mstore\n      0x20\n      add\n      dup3\n      dup1\n      sload\n      tag_152\n      swap1\n      tag_136\n      jump\t// in\n    tag_152:\n      dup1\n      iszero\n      tag_153\n      jumpi\n      dup1\n      0x1f\n      lt\n      tag_154\n      jumpi\n      0x0100\n      dup1\n      dup4\n      sload\n      div\n      mul\n      dup4\n      mstore\n      swap2\n      0x20\n      add\n      swap2\n      jump(tag_153)\n    tag_154:\n      dup3\n      add\n      swap2\n      swap1\n      0x00\n      mstore\n      keccak256(0x00, 0x20)\n      swap1\n    tag_155:\n      dup2\n      sload\n      dup2\n      mstore\n      swap1\n      0x01\n      add\n      swap1\n      0x20\n      add\n      dup1\n      dup4\n      gt\n      tag_155\n      jumpi\n      dup3\n      swap1\n      sub\n      0x1f\n      and\n      dup3\n      add\n      swap2\n    tag_153:\n      pop\n      pop\n      pop\n      pop\n      pop\n      dup2\n      jump\t// out\n        /* \"Voting.sol\":1927:2292  function addAllowerdVoters(address newAllowerdVoters) public restricted {... */\n    tag_85:\n        /* \"Voting.sol\":1241:1248  manager */\n      0x00\n      dup1\n      sload\n      swap1\n      0x0100\n      exp\n      swap1\n      div\n      0xffffffffffffffffffffffffffffffffffffffff\n      and\n        /* \"Voting.sol\":1227:1248  msg.sender == manager */\n      0xffffffffffffffffffffffffffffffffffffffff\n      and\n        /* \"Voting.sol\":1227:1237  msg.sender */\n      caller\n        /* \"Voting.sol\":1227:1248  msg.sender == manager */\n      0xffffffffffffffffffffffffffffffffffffffff\n      and\n      eq\n        /* \"Voting.sol\":1219:1249  require(msg.sender == manager) */\n      tag_157\n      jumpi\n      0x00\n      dup1\n      revert\n    tag_157:\n        /* \"Voting.sol\":2039:2046  manager */\n      0x00\n      dup1\n      sload\n      swap1\n      0x0100\n      exp\n      swap1\n      div\n      0xffffffffffffffffffffffffffffffffffffffff\n      and\n        /* \"Voting.sol\":2018:2046  newAllowerdVoters != manager */\n      0xffffffffffffffffffffffffffffffffffffffff\n      and\n        /* \"Voting.sol\":2018:2035  newAllowerdVoters */\n      dup2\n        /* \"Voting.sol\":2018:2046  newAllowerdVoters != manager */\n      0xffffffffffffffffffffffffffffffffffffffff\n      and\n      sub\n        /* \"Voting.sol\":2010:2075  require(newAllowerdVoters != manager, \"Manager Cannot Be Voters\") */\n      tag_159\n      jumpi\n      mload(0x40)\n      0x08c379a000000000000000000000000000000000000000000000000000000000\n      dup2\n      mstore\n      0x04\n      add\n      tag_160\n      swap1\n      tag_161\n      jump\t// in\n    tag_160:\n      mload(0x40)\n      dup1\n      swap2\n      sub\n      swap1\n      revert\n    tag_159:\n        /* \"Voting.sol\":2109:2122  allowedVoters */\n      0x08\n        /* \"Voting.sol\":2109:2141  allowedVoters[newAllowerdVoters] */\n      0x00\n        /* \"Voting.sol\":2123:2140  newAllowerdVoters */\n      dup3\n        /* \"Voting.sol\":2109:2141  allowedVoters[newAllowerdVoters] */\n      0xffffffffffffffffffffffffffffffffffffffff\n      and\n      0xffffffffffffffffffffffffffffffffffffffff\n      and\n      dup2\n      mstore\n      0x20\n      add\n      swap1\n      dup2\n      mstore\n      0x20\n      add\n      0x00\n      keccak256\n      0x00\n      swap1\n      sload\n      swap1\n      0x0100\n      exp\n      swap1\n      div\n      0xff\n      and\n        /* \"Voting.sol\":2108:2141  !allowedVoters[newAllowerdVoters] */\n      iszero\n        /* \"Voting.sol\":2086:2201  require(... */\n      tag_162\n      jumpi\n      mload(0x40)\n      0x08c379a000000000000000000000000000000000000000000000000000000000\n      dup2\n      mstore\n      0x04\n      add\n      tag_163\n      swap1\n      tag_164\n      jump\t// in\n    tag_163:\n      mload(0x40)\n      dup1\n      swap2\n      sub\n      swap1\n      revert\n    tag_162:\n        /* \"Voting.sol\":2249:2253  true */\n      0x01\n        /* \"Voting.sol\":2214:2227  allowedVoters */\n      0x08\n        /* \"Voting.sol\":2214:2246  allowedVoters[newAllowerdVoters] */\n      0x00\n        /* \"Voting.sol\":2228:2245  newAllowerdVoters */\n      dup4\n        /* \"Voting.sol\":2214:2246  allowedVoters[newAllowerdVoters] */\n      0xffffffffffffffffffffffffffffffffffffffff\n      and\n      0xffffffffffffffffffffffffffffffffffffffff\n      and\n      dup2\n      mstore\n      0x20\n      add\n      swap1\n      dup2\n      mstore\n      0x20\n      add\n      0x00\n      keccak256\n      0x00\n        /* \"Voting.sol\":2214:2253  allowedVoters[newAllowerdVoters] = true */\n      0x0100\n      exp\n      dup2\n      sload\n      dup2\n      0xff\n      mul\n      not\n      and\n      swap1\n      dup4\n      iszero\n      iszero\n      mul\n      or\n      swap1\n      sstore\n      pop\n        /* \"Voting.sol\":2264:2282  totalAllowedVoters */\n      0x09\n      0x00\n        /* \"Voting.sol\":2264:2284  totalAllowedVoters++ */\n      dup2\n      sload\n      dup1\n      swap3\n      swap2\n      swap1\n      tag_165\n      swap1\n      tag_128\n      jump\t// in\n    tag_165:\n      swap2\n      swap1\n      pop\n      sstore\n      pop\n        /* \"Voting.sol\":1927:2292  function addAllowerdVoters(address newAllowerdVoters) public restricted {... */\n      pop\n      jump\t// out\n        /* \"Voting.sol\":4037:5042  function _getWinnerIndices()... */\n    tag_94:\n        /* \"Voting.sol\":4136:4149  uint[] memory */\n      0x60\n        /* \"Voting.sol\":1241:1248  manager */\n      0x00\n      dup1\n      sload\n      swap1\n      0x0100\n      exp\n      swap1\n      div\n      0xffffffffffffffffffffffffffffffffffffffff\n      and\n        /* \"Voting.sol\":1227:1248  msg.sender == manager */\n      0xffffffffffffffffffffffffffffffffffffffff\n      and\n        /* \"Voting.sol\":1227:1237  msg.sender */\n      caller\n        /* \"Voting.sol\":1227:1248  msg.sender == manager */\n      0xffffffffffffffffffffffffffffffffffffffff\n      and\n      eq\n        /* \"Voting.sol\":1219:1249  require(msg.sender == manager) */\n      tag_167\n      jumpi\n      0x00\n      dup1\n      revert\n    tag_167:\n        /* \"Voting.sol\":4167:4180  uint maxVotes */\n      0x00\n        /* \"Voting.sol\":4195:4222  uint[] memory winnerIndices */\n      0x60\n        /* \"Voting.sol\":4233:4243  uint count */\n      0x00\n        /* \"Voting.sol\":4265:4271  uint i */\n      dup1\n        /* \"Voting.sol\":4260:4974  for (uint i = 0; i < choicesDatas.length; i++) {... */\n    tag_169:\n        /* \"Voting.sol\":4281:4293  choicesDatas */\n      0x0a\n        /* \"Voting.sol\":4281:4300  choicesDatas.length */\n      dup1\n      sload\n      swap1\n      pop\n        /* \"Voting.sol\":4277:4278  i */\n      dup2\n        /* \"Voting.sol\":4277:4300  i < choicesDatas.length */\n      lt\n        /* \"Voting.sol\":4260:4974  for (uint i = 0; i < choicesDatas.length; i++) {... */\n      iszero\n      tag_170\n      jumpi\n        /* \"Voting.sol\":4358:4366  maxVotes */\n      dup4\n        /* \"Voting.sol\":4326:4338  choicesDatas */\n      0x0a\n        /* \"Voting.sol\":4339:4340  i */\n      dup3\n        /* \"Voting.sol\":4326:4341  choicesDatas[i] */\n      dup2\n      sload\n      dup2\n      lt\n      tag_172\n      jumpi\n      tag_173\n      tag_102\n      jump\t// in\n    tag_173:\n    tag_172:\n      swap1\n      0x00\n      mstore\n      keccak256(0x00, 0x20)\n      swap1\n      0x03\n      mul\n      add\n        /* \"Voting.sol\":4326:4355  choicesDatas[i].receivedVotes */\n      0x01\n      add\n      sload\n        /* \"Voting.sol\":4326:4366  choicesDatas[i].receivedVotes > maxVotes */\n      gt\n        /* \"Voting.sol\":4322:4963  if (choicesDatas[i].receivedVotes > maxVotes) {... */\n      iszero\n      tag_175\n      jumpi\n        /* \"Voting.sol\":4398:4410  choicesDatas */\n      0x0a\n        /* \"Voting.sol\":4411:4412  i */\n      dup2\n        /* \"Voting.sol\":4398:4413  choicesDatas[i] */\n      dup2\n      sload\n      dup2\n      lt\n      tag_176\n      jumpi\n      tag_177\n      tag_102\n      jump\t// in\n    tag_177:\n    tag_176:\n      swap1\n      0x00\n      mstore\n      keccak256(0x00, 0x20)\n      swap1\n      0x03\n      mul\n      add\n        /* \"Voting.sol\":4398:4427  choicesDatas[i].receivedVotes */\n      0x01\n      add\n      sload\n        /* \"Voting.sol\":4387:4427  maxVotes = choicesDatas[i].receivedVotes */\n      swap4\n      pop\n        /* \"Voting.sol\":4454:4455  1 */\n      0x01\n        /* \"Voting.sol\":4446:4455  count = 1 */\n      swap2\n      pop\n        /* \"Voting.sol\":4501:4506  count */\n      dup2\n        /* \"Voting.sol\":4490:4507  new uint[](count) */\n      0xffffffffffffffff\n      dup2\n      gt\n      iszero\n      tag_179\n      jumpi\n      tag_180\n      tag_181\n      jump\t// in\n    tag_180:\n    tag_179:\n      mload(0x40)\n      swap1\n      dup1\n      dup3\n      mstore\n      dup1\n      0x20\n      mul\n      0x20\n      add\n      dup3\n      add\n      0x40\n      mstore\n      dup1\n      iszero\n      tag_182\n      jumpi\n      dup2\n      0x20\n      add\n      0x20\n      dup3\n      mul\n      dup1\n      calldatasize\n      dup4\n      calldatacopy\n      dup1\n      dup3\n      add\n      swap2\n      pop\n      pop\n      swap1\n      pop\n    tag_182:\n      pop\n        /* \"Voting.sol\":4474:4507  winnerIndices = new uint[](count) */\n      swap3\n      pop\n        /* \"Voting.sol\":4545:4546  i */\n      dup1\n        /* \"Voting.sol\":4526:4539  winnerIndices */\n      dup4\n        /* \"Voting.sol\":4540:4541  0 */\n      0x00\n        /* \"Voting.sol\":4526:4542  winnerIndices[0] */\n      dup2\n      mload\n      dup2\n      lt\n      tag_183\n      jumpi\n      tag_184\n      tag_102\n      jump\t// in\n    tag_184:\n    tag_183:\n      0x20\n      mul\n      0x20\n      add\n      add\n        /* \"Voting.sol\":4526:4546  winnerIndices[0] = i */\n      dup2\n      dup2\n      mstore\n      pop\n      pop\n        /* \"Voting.sol\":4322:4963  if (choicesDatas[i].receivedVotes > maxVotes) {... */\n      jump(tag_185)\n    tag_175:\n        /* \"Voting.sol\":4605:4613  maxVotes */\n      dup4\n        /* \"Voting.sol\":4572:4584  choicesDatas */\n      0x0a\n        /* \"Voting.sol\":4585:4586  i */\n      dup3\n        /* \"Voting.sol\":4572:4587  choicesDatas[i] */\n      dup2\n      sload\n      dup2\n      lt\n      tag_186\n      jumpi\n      tag_187\n      tag_102\n      jump\t// in\n    tag_187:\n    tag_186:\n      swap1\n      0x00\n      mstore\n      keccak256(0x00, 0x20)\n      swap1\n      0x03\n      mul\n      add\n        /* \"Voting.sol\":4572:4601  choicesDatas[i].receivedVotes */\n      0x01\n      add\n      sload\n        /* \"Voting.sol\":4572:4613  choicesDatas[i].receivedVotes == maxVotes */\n      sub\n        /* \"Voting.sol\":4568:4963  if (choicesDatas[i].receivedVotes == maxVotes) {... */\n      tag_189\n      jumpi\n        /* \"Voting.sol\":4634:4641  count++ */\n      dup2\n      dup1\n      tag_190\n      swap1\n      tag_128\n      jump\t// in\n    tag_190:\n      swap3\n      pop\n      pop\n        /* \"Voting.sol\":4660:4690  uint[] memory newWinnerIndices */\n      0x00\n        /* \"Voting.sol\":4704:4709  count */\n      dup3\n        /* \"Voting.sol\":4693:4710  new uint[](count) */\n      0xffffffffffffffff\n      dup2\n      gt\n      iszero\n      tag_191\n      jumpi\n      tag_192\n      tag_181\n      jump\t// in\n    tag_192:\n    tag_191:\n      mload(0x40)\n      swap1\n      dup1\n      dup3\n      mstore\n      dup1\n      0x20\n      mul\n      0x20\n      add\n      dup3\n      add\n      0x40\n      mstore\n      dup1\n      iszero\n      tag_193\n      jumpi\n      dup2\n      0x20\n      add\n      0x20\n      dup3\n      mul\n      dup1\n      calldatasize\n      dup4\n      calldatacopy\n      dup1\n      dup3\n      add\n      swap2\n      pop\n      pop\n      swap1\n      pop\n    tag_193:\n      pop\n        /* \"Voting.sol\":4660:4710  uint[] memory newWinnerIndices = new uint[](count) */\n      swap1\n      pop\n        /* \"Voting.sol\":4734:4740  uint j */\n      0x00\n        /* \"Voting.sol\":4729:4847  for (uint j = 0; j < count - 1; j++) {... */\n    tag_194:\n        /* \"Voting.sol\":4758:4759  1 */\n      0x01\n        /* \"Voting.sol\":4750:4755  count */\n      dup5\n        /* \"Voting.sol\":4750:4759  count - 1 */\n      tag_197\n      swap2\n      swap1\n      tag_198\n      jump\t// in\n    tag_197:\n        /* \"Voting.sol\":4746:4747  j */\n      dup2\n        /* \"Voting.sol\":4746:4759  j < count - 1 */\n      lt\n        /* \"Voting.sol\":4729:4847  for (uint j = 0; j < count - 1; j++) {... */\n      iszero\n      tag_195\n      jumpi\n        /* \"Voting.sol\":4811:4824  winnerIndices */\n      dup5\n        /* \"Voting.sol\":4825:4826  j */\n      dup2\n        /* \"Voting.sol\":4811:4827  winnerIndices[j] */\n      dup2\n      mload\n      dup2\n      lt\n      tag_199\n      jumpi\n      tag_200\n      tag_102\n      jump\t// in\n    tag_200:\n    tag_199:\n      0x20\n      mul\n      0x20\n      add\n      add\n      mload\n        /* \"Voting.sol\":4789:4805  newWinnerIndices */\n      dup3\n        /* \"Voting.sol\":4806:4807  j */\n      dup3\n        /* \"Voting.sol\":4789:4808  newWinnerIndices[j] */\n      dup2\n      mload\n      dup2\n      lt\n      tag_201\n      jumpi\n      tag_202\n      tag_102\n      jump\t// in\n    tag_202:\n    tag_201:\n      0x20\n      mul\n      0x20\n      add\n      add\n        /* \"Voting.sol\":4789:4827  newWinnerIndices[j] = winnerIndices[j] */\n      dup2\n      dup2\n      mstore\n      pop\n      pop\n        /* \"Voting.sol\":4761:4764  j++ */\n      dup1\n      dup1\n      tag_203\n      swap1\n      tag_128\n      jump\t// in\n    tag_203:\n      swap2\n      pop\n      pop\n        /* \"Voting.sol\":4729:4847  for (uint j = 0; j < count - 1; j++) {... */\n      jump(tag_194)\n    tag_195:\n      pop\n        /* \"Voting.sol\":4895:4896  i */\n      dup2\n        /* \"Voting.sol\":4865:4881  newWinnerIndices */\n      dup2\n        /* \"Voting.sol\":4890:4891  1 */\n      0x01\n        /* \"Voting.sol\":4882:4887  count */\n      dup6\n        /* \"Voting.sol\":4882:4891  count - 1 */\n      tag_204\n      swap2\n      swap1\n      tag_198\n      jump\t// in\n    tag_204:\n        /* \"Voting.sol\":4865:4892  newWinnerIndices[count - 1] */\n      dup2\n      mload\n      dup2\n      lt\n      tag_205\n      jumpi\n      tag_206\n      tag_102\n      jump\t// in\n    tag_206:\n    tag_205:\n      0x20\n      mul\n      0x20\n      add\n      add\n        /* \"Voting.sol\":4865:4896  newWinnerIndices[count - 1] = i */\n      dup2\n      dup2\n      mstore\n      pop\n      pop\n        /* \"Voting.sol\":4931:4947  newWinnerIndices */\n      dup1\n        /* \"Voting.sol\":4915:4947  winnerIndices = newWinnerIndices */\n      swap4\n      pop\n        /* \"Voting.sol\":4615:4963  {... */\n      pop\n        /* \"Voting.sol\":4568:4963  if (choicesDatas[i].receivedVotes == maxVotes) {... */\n    tag_189:\n        /* \"Voting.sol\":4322:4963  if (choicesDatas[i].receivedVotes > maxVotes) {... */\n    tag_185:\n        /* \"Voting.sol\":4302:4305  i++ */\n      dup1\n      dup1\n      tag_207\n      swap1\n      tag_128\n      jump\t// in\n    tag_207:\n      swap2\n      pop\n      pop\n        /* \"Voting.sol\":4260:4974  for (uint i = 0; i < choicesDatas.length; i++) {... */\n      jump(tag_169)\n    tag_170:\n      pop\n        /* \"Voting.sol\":4993:5006  winnerIndices */\n      dup2\n        /* \"Voting.sol\":4986:5006  return winnerIndices */\n      swap4\n      pop\n      pop\n      pop\n      pop\n        /* \"Voting.sol\":4037:5042  function _getWinnerIndices()... */\n      swap1\n      jump\t// out\n        /* \"#utility.yul\":7:133   */\n    tag_208:\n        /* \"#utility.yul\":44:51   */\n      0x00\n        /* \"#utility.yul\":84:126   */\n      0xffffffffffffffffffffffffffffffffffffffff\n        /* \"#utility.yul\":77:82   */\n      dup3\n        /* \"#utility.yul\":73:127   */\n      and\n        /* \"#utility.yul\":62:127   */\n      swap1\n      pop\n        /* \"#utility.yul\":7:133   */\n      swap2\n      swap1\n      pop\n      jump\t// out\n        /* \"#utility.yul\":139:235   */\n    tag_209:\n        /* \"#utility.yul\":176:183   */\n      0x00\n        /* \"#utility.yul\":205:229   */\n      tag_271\n        /* \"#utility.yul\":223:228   */\n      dup3\n        /* \"#utility.yul\":205:229   */\n      tag_208\n      jump\t// in\n    tag_271:\n        /* \"#utility.yul\":194:229   */\n      swap1\n      pop\n        /* \"#utility.yul\":139:235   */\n      swap2\n      swap1\n      pop\n      jump\t// out\n        /* \"#utility.yul\":241:359   */\n    tag_210:\n        /* \"#utility.yul\":328:352   */\n      tag_273\n        /* \"#utility.yul\":346:351   */\n      dup2\n        /* \"#utility.yul\":328:352   */\n      tag_209\n      jump\t// in\n    tag_273:\n        /* \"#utility.yul\":323:326   */\n      dup3\n        /* \"#utility.yul\":316:353   */\n      mstore\n        /* \"#utility.yul\":241:359   */\n      pop\n      pop\n      jump\t// out\n        /* \"#utility.yul\":365:442   */\n    tag_211:\n        /* \"#utility.yul\":402:409   */\n      0x00\n        /* \"#utility.yul\":431:436   */\n      dup2\n        /* \"#utility.yul\":420:436   */\n      swap1\n      pop\n        /* \"#utility.yul\":365:442   */\n      swap2\n      swap1\n      pop\n      jump\t// out\n        /* \"#utility.yul\":448:566   */\n    tag_212:\n        /* \"#utility.yul\":535:559   */\n      tag_276\n        /* \"#utility.yul\":553:558   */\n      dup2\n        /* \"#utility.yul\":535:559   */\n      tag_211\n      jump\t// in\n    tag_276:\n        /* \"#utility.yul\":530:533   */\n      dup3\n        /* \"#utility.yul\":523:560   */\n      mstore\n        /* \"#utility.yul\":448:566   */\n      pop\n      pop\n      jump\t// out\n        /* \"#utility.yul\":572:662   */\n    tag_213:\n        /* \"#utility.yul\":606:613   */\n      0x00\n        /* \"#utility.yul\":649:654   */\n      dup2\n        /* \"#utility.yul\":642:655   */\n      iszero\n        /* \"#utility.yul\":635:656   */\n      iszero\n        /* \"#utility.yul\":624:656   */\n      swap1\n      pop\n        /* \"#utility.yul\":572:662   */\n      swap2\n      swap1\n      pop\n      jump\t// out\n        /* \"#utility.yul\":668:777   */\n    tag_214:\n        /* \"#utility.yul\":749:770   */\n      tag_279\n        /* \"#utility.yul\":764:769   */\n      dup2\n        /* \"#utility.yul\":749:770   */\n      tag_213\n      jump\t// in\n    tag_279:\n        /* \"#utility.yul\":744:747   */\n      dup3\n        /* \"#utility.yul\":737:771   */\n      mstore\n        /* \"#utility.yul\":668:777   */\n      pop\n      pop\n      jump\t// out\n        /* \"#utility.yul\":783:1546   */\n    tag_26:\n        /* \"#utility.yul\":1010:1014   */\n      0x00\n        /* \"#utility.yul\":1048:1051   */\n      0xc0\n        /* \"#utility.yul\":1037:1046   */\n      dup3\n        /* \"#utility.yul\":1033:1052   */\n      add\n        /* \"#utility.yul\":1025:1052   */\n      swap1\n      pop\n        /* \"#utility.yul\":1062:1133   */\n      tag_281\n        /* \"#utility.yul\":1130:1131   */\n      0x00\n        /* \"#utility.yul\":1119:1128   */\n      dup4\n        /* \"#utility.yul\":1115:1132   */\n      add\n        /* \"#utility.yul\":1106:1112   */\n      dup10\n        /* \"#utility.yul\":1062:1133   */\n      tag_210\n      jump\t// in\n    tag_281:\n        /* \"#utility.yul\":1143:1215   */\n      tag_282\n        /* \"#utility.yul\":1211:1213   */\n      0x20\n        /* \"#utility.yul\":1200:1209   */\n      dup4\n        /* \"#utility.yul\":1196:1214   */\n      add\n        /* \"#utility.yul\":1187:1193   */\n      dup9\n        /* \"#utility.yul\":1143:1215   */\n      tag_212\n      jump\t// in\n    tag_282:\n        /* \"#utility.yul\":1225:1297   */\n      tag_283\n        /* \"#utility.yul\":1293:1295   */\n      0x40\n        /* \"#utility.yul\":1282:1291   */\n      dup4\n        /* \"#utility.yul\":1278:1296   */\n      add\n        /* \"#utility.yul\":1269:1275   */\n      dup8\n        /* \"#utility.yul\":1225:1297   */\n      tag_212\n      jump\t// in\n    tag_283:\n        /* \"#utility.yul\":1307:1379   */\n      tag_284\n        /* \"#utility.yul\":1375:1377   */\n      0x60\n        /* \"#utility.yul\":1364:1373   */\n      dup4\n        /* \"#utility.yul\":1360:1378   */\n      add\n        /* \"#utility.yul\":1351:1357   */\n      dup7\n        /* \"#utility.yul\":1307:1379   */\n      tag_212\n      jump\t// in\n    tag_284:\n        /* \"#utility.yul\":1389:1456   */\n      tag_285\n        /* \"#utility.yul\":1451:1454   */\n      0x80\n        /* \"#utility.yul\":1440:1449   */\n      dup4\n        /* \"#utility.yul\":1436:1455   */\n      add\n        /* \"#utility.yul\":1427:1433   */\n      dup6\n        /* \"#utility.yul\":1389:1456   */\n      tag_214\n      jump\t// in\n    tag_285:\n        /* \"#utility.yul\":1466:1539   */\n      tag_286\n        /* \"#utility.yul\":1534:1537   */\n      0xa0\n        /* \"#utility.yul\":1523:1532   */\n      dup4\n        /* \"#utility.yul\":1519:1538   */\n      add\n        /* \"#utility.yul\":1510:1516   */\n      dup5\n        /* \"#utility.yul\":1466:1539   */\n      tag_212\n      jump\t// in\n    tag_286:\n        /* \"#utility.yul\":783:1546   */\n      swap8\n      swap7\n      pop\n      pop\n      pop\n      pop\n      pop\n      pop\n      pop\n      jump\t// out\n        /* \"#utility.yul\":1552:1774   */\n    tag_30:\n        /* \"#utility.yul\":1645:1649   */\n      0x00\n        /* \"#utility.yul\":1683:1685   */\n      0x20\n        /* \"#utility.yul\":1672:1681   */\n      dup3\n        /* \"#utility.yul\":1668:1686   */\n      add\n        /* \"#utility.yul\":1660:1686   */\n      swap1\n      pop\n        /* \"#utility.yul\":1696:1767   */\n      tag_288\n        /* \"#utility.yul\":1764:1765   */\n      0x00\n        /* \"#utility.yul\":1753:1762   */\n      dup4\n        /* \"#utility.yul\":1749:1766   */\n      add\n        /* \"#utility.yul\":1740:1746   */\n      dup5\n        /* \"#utility.yul\":1696:1767   */\n      tag_212\n      jump\t// in\n    tag_288:\n        /* \"#utility.yul\":1552:1774   */\n      swap3\n      swap2\n      pop\n      pop\n      jump\t// out\n        /* \"#utility.yul\":1861:1978   */\n    tag_216:\n        /* \"#utility.yul\":1970:1971   */\n      0x00\n        /* \"#utility.yul\":1967:1968   */\n      dup1\n        /* \"#utility.yul\":1960:1972   */\n      revert\n        /* \"#utility.yul\":2107:2229   */\n    tag_218:\n        /* \"#utility.yul\":2180:2204   */\n      tag_293\n        /* \"#utility.yul\":2198:2203   */\n      dup2\n        /* \"#utility.yul\":2180:2204   */\n      tag_211\n      jump\t// in\n    tag_293:\n        /* \"#utility.yul\":2173:2178   */\n      dup2\n        /* \"#utility.yul\":2170:2205   */\n      eq\n        /* \"#utility.yul\":2160:2223   */\n      tag_294\n      jumpi\n        /* \"#utility.yul\":2219:2220   */\n      0x00\n        /* \"#utility.yul\":2216:2217   */\n      dup1\n        /* \"#utility.yul\":2209:2221   */\n      revert\n        /* \"#utility.yul\":2160:2223   */\n    tag_294:\n        /* \"#utility.yul\":2107:2229   */\n      pop\n      jump\t// out\n        /* \"#utility.yul\":2235:2374   */\n    tag_219:\n        /* \"#utility.yul\":2281:2286   */\n      0x00\n        /* \"#utility.yul\":2319:2325   */\n      dup2\n        /* \"#utility.yul\":2306:2326   */\n      calldataload\n        /* \"#utility.yul\":2297:2326   */\n      swap1\n      pop\n        /* \"#utility.yul\":2335:2368   */\n      tag_296\n        /* \"#utility.yul\":2362:2367   */\n      dup2\n        /* \"#utility.yul\":2335:2368   */\n      tag_218\n      jump\t// in\n    tag_296:\n        /* \"#utility.yul\":2235:2374   */\n      swap3\n      swap2\n      pop\n      pop\n      jump\t// out\n        /* \"#utility.yul\":2380:2709   */\n    tag_35:\n        /* \"#utility.yul\":2439:2445   */\n      0x00\n        /* \"#utility.yul\":2488:2490   */\n      0x20\n        /* \"#utility.yul\":2476:2485   */\n      dup3\n        /* \"#utility.yul\":2467:2474   */\n      dup5\n        /* \"#utility.yul\":2463:2486   */\n      sub\n        /* \"#utility.yul\":2459:2491   */\n      slt\n        /* \"#utility.yul\":2456:2575   */\n      iszero\n      tag_298\n      jumpi\n        /* \"#utility.yul\":2494:2573   */\n      tag_299\n      tag_216\n      jump\t// in\n    tag_299:\n        /* \"#utility.yul\":2456:2575   */\n    tag_298:\n        /* \"#utility.yul\":2614:2615   */\n      0x00\n        /* \"#utility.yul\":2639:2692   */\n      tag_300\n        /* \"#utility.yul\":2684:2691   */\n      dup5\n        /* \"#utility.yul\":2675:2681   */\n      dup3\n        /* \"#utility.yul\":2664:2673   */\n      dup6\n        /* \"#utility.yul\":2660:2682   */\n      add\n        /* \"#utility.yul\":2639:2692   */\n      tag_219\n      jump\t// in\n    tag_300:\n        /* \"#utility.yul\":2629:2692   */\n      swap2\n      pop\n        /* \"#utility.yul\":2585:2702   */\n      pop\n        /* \"#utility.yul\":2380:2709   */\n      swap3\n      swap2\n      pop\n      pop\n      jump\t// out\n        /* \"#utility.yul\":2715:2837   */\n    tag_220:\n        /* \"#utility.yul\":2788:2812   */\n      tag_302\n        /* \"#utility.yul\":2806:2811   */\n      dup2\n        /* \"#utility.yul\":2788:2812   */\n      tag_209\n      jump\t// in\n    tag_302:\n        /* \"#utility.yul\":2781:2786   */\n      dup2\n        /* \"#utility.yul\":2778:2813   */\n      eq\n        /* \"#utility.yul\":2768:2831   */\n      tag_303\n      jumpi\n        /* \"#utility.yul\":2827:2828   */\n      0x00\n        /* \"#utility.yul\":2824:2825   */\n      dup1\n        /* \"#utility.yul\":2817:2829   */\n      revert\n        /* \"#utility.yul\":2768:2831   */\n    tag_303:\n        /* \"#utility.yul\":2715:2837   */\n      pop\n      jump\t// out\n        /* \"#utility.yul\":2843:2982   */\n    tag_221:\n        /* \"#utility.yul\":2889:2894   */\n      0x00\n        /* \"#utility.yul\":2927:2933   */\n      dup2\n        /* \"#utility.yul\":2914:2934   */\n      calldataload\n        /* \"#utility.yul\":2905:2934   */\n      swap1\n      pop\n        /* \"#utility.yul\":2943:2976   */\n      tag_305\n        /* \"#utility.yul\":2970:2975   */\n      dup2\n        /* \"#utility.yul\":2943:2976   */\n      tag_220\n      jump\t// in\n    tag_305:\n        /* \"#utility.yul\":2843:2982   */\n      swap3\n      swap2\n      pop\n      pop\n      jump\t// out\n        /* \"#utility.yul\":2988:3317   */\n    tag_39:\n        /* \"#utility.yul\":3047:3053   */\n      0x00\n        /* \"#utility.yul\":3096:3098   */\n      0x20\n        /* \"#utility.yul\":3084:3093   */\n      dup3\n        /* \"#utility.yul\":3075:3082   */\n      dup5\n        /* \"#utility.yul\":3071:3094   */\n      sub\n        /* \"#utility.yul\":3067:3099   */\n      slt\n        /* \"#utility.yul\":3064:3183   */\n      iszero\n      tag_307\n      jumpi\n        /* \"#utility.yul\":3102:3181   */\n      tag_308\n      tag_216\n      jump\t// in\n    tag_308:\n        /* \"#utility.yul\":3064:3183   */\n    tag_307:\n        /* \"#utility.yul\":3222:3223   */\n      0x00\n        /* \"#utility.yul\":3247:3300   */\n      tag_309\n        /* \"#utility.yul\":3292:3299   */\n      dup5\n        /* \"#utility.yul\":3283:3289   */\n      dup3\n        /* \"#utility.yul\":3272:3281   */\n      dup6\n        /* \"#utility.yul\":3268:3290   */\n      add\n        /* \"#utility.yul\":3247:3300   */\n      tag_221\n      jump\t// in\n    tag_309:\n        /* \"#utility.yul\":3237:3300   */\n      swap2\n      pop\n        /* \"#utility.yul\":3193:3310   */\n      pop\n        /* \"#utility.yul\":2988:3317   */\n      swap3\n      swap2\n      pop\n      pop\n      jump\t// out\n        /* \"#utility.yul\":3323:3533   */\n    tag_42:\n        /* \"#utility.yul\":3410:3414   */\n      0x00\n        /* \"#utility.yul\":3448:3450   */\n      0x20\n        /* \"#utility.yul\":3437:3446   */\n      dup3\n        /* \"#utility.yul\":3433:3451   */\n      add\n        /* \"#utility.yul\":3425:3451   */\n      swap1\n      pop\n        /* \"#utility.yul\":3461:3526   */\n      tag_311\n        /* \"#utility.yul\":3523:3524   */\n      0x00\n        /* \"#utility.yul\":3512:3521   */\n      dup4\n        /* \"#utility.yul\":3508:3525   */\n      add\n        /* \"#utility.yul\":3499:3505   */\n      dup5\n        /* \"#utility.yul\":3461:3526   */\n      tag_214\n      jump\t// in\n    tag_311:\n        /* \"#utility.yul\":3323:3533   */\n      swap3\n      swap2\n      pop\n      pop\n      jump\t// out\n        /* \"#utility.yul\":3539:3638   */\n    tag_222:\n        /* \"#utility.yul\":3591:3597   */\n      0x00\n        /* \"#utility.yul\":3625:3630   */\n      dup2\n        /* \"#utility.yul\":3619:3631   */\n      mload\n        /* \"#utility.yul\":3609:3631   */\n      swap1\n      pop\n        /* \"#utility.yul\":3539:3638   */\n      swap2\n      swap1\n      pop\n      jump\t// out\n        /* \"#utility.yul\":3644:3813   */\n    tag_223:\n        /* \"#utility.yul\":3728:3739   */\n      0x00\n        /* \"#utility.yul\":3762:3768   */\n      dup3\n        /* \"#utility.yul\":3757:3760   */\n      dup3\n        /* \"#utility.yul\":3750:3769   */\n      mstore\n        /* \"#utility.yul\":3802:3806   */\n      0x20\n        /* \"#utility.yul\":3797:3800   */\n      dup3\n        /* \"#utility.yul\":3793:3807   */\n      add\n        /* \"#utility.yul\":3778:3807   */\n      swap1\n      pop\n        /* \"#utility.yul\":3644:3813   */\n      swap3\n      swap2\n      pop\n      pop\n      jump\t// out\n        /* \"#utility.yul\":3819:4065   */\n    tag_224:\n        /* \"#utility.yul\":3900:3901   */\n      0x00\n        /* \"#utility.yul\":3910:4023   */\n    tag_315:\n        /* \"#utility.yul\":3924:3930   */\n      dup4\n        /* \"#utility.yul\":3921:3922   */\n      dup2\n        /* \"#utility.yul\":3918:3931   */\n      lt\n        /* \"#utility.yul\":3910:4023   */\n      iszero\n      tag_317\n      jumpi\n        /* \"#utility.yul\":4009:4010   */\n      dup1\n        /* \"#utility.yul\":4004:4007   */\n      dup3\n        /* \"#utility.yul\":4000:4011   */\n      add\n        /* \"#utility.yul\":3994:4012   */\n      mload\n        /* \"#utility.yul\":3990:3991   */\n      dup2\n        /* \"#utility.yul\":3985:3988   */\n      dup5\n        /* \"#utility.yul\":3981:3992   */\n      add\n        /* \"#utility.yul\":3974:4013   */\n      mstore\n        /* \"#utility.yul\":3946:3948   */\n      0x20\n        /* \"#utility.yul\":3943:3944   */\n      dup2\n        /* \"#utility.yul\":3939:3949   */\n      add\n        /* \"#utility.yul\":3934:3949   */\n      swap1\n      pop\n        /* \"#utility.yul\":3910:4023   */\n      jump(tag_315)\n    tag_317:\n        /* \"#utility.yul\":4057:4058   */\n      0x00\n        /* \"#utility.yul\":4048:4054   */\n      dup5\n        /* \"#utility.yul\":4043:4046   */\n      dup5\n        /* \"#utility.yul\":4039:4055   */\n      add\n        /* \"#utility.yul\":4032:4059   */\n      mstore\n        /* \"#utility.yul\":3881:4065   */\n      pop\n        /* \"#utility.yul\":3819:4065   */\n      pop\n      pop\n      pop\n      jump\t// out\n        /* \"#utility.yul\":4071:4173   */\n    tag_225:\n        /* \"#utility.yul\":4112:4118   */\n      0x00\n        /* \"#utility.yul\":4163:4165   */\n      0x1f\n        /* \"#utility.yul\":4159:4166   */\n      not\n        /* \"#utility.yul\":4154:4156   */\n      0x1f\n        /* \"#utility.yul\":4147:4152   */\n      dup4\n        /* \"#utility.yul\":4143:4157   */\n      add\n        /* \"#utility.yul\":4139:4167   */\n      and\n        /* \"#utility.yul\":4129:4167   */\n      swap1\n      pop\n        /* \"#utility.yul\":4071:4173   */\n      swap2\n      swap1\n      pop\n      jump\t// out\n        /* \"#utility.yul\":4179:4556   */\n    tag_226:\n        /* \"#utility.yul\":4267:4270   */\n      0x00\n        /* \"#utility.yul\":4295:4334   */\n      tag_320\n        /* \"#utility.yul\":4328:4333   */\n      dup3\n        /* \"#utility.yul\":4295:4334   */\n      tag_222\n      jump\t// in\n    tag_320:\n        /* \"#utility.yul\":4350:4421   */\n      tag_321\n        /* \"#utility.yul\":4414:4420   */\n      dup2\n        /* \"#utility.yul\":4409:4412   */\n      dup6\n        /* \"#utility.yul\":4350:4421   */\n      tag_223\n      jump\t// in\n    tag_321:\n        /* \"#utility.yul\":4343:4421   */\n      swap4\n      pop\n        /* \"#utility.yul\":4430:4495   */\n      tag_322\n        /* \"#utility.yul\":4488:4494   */\n      dup2\n        /* \"#utility.yul\":4483:4486   */\n      dup6\n        /* \"#utility.yul\":4476:4480   */\n      0x20\n        /* \"#utility.yul\":4469:4474   */\n      dup7\n        /* \"#utility.yul\":4465:4481   */\n      add\n        /* \"#utility.yul\":4430:4495   */\n      tag_224\n      jump\t// in\n    tag_322:\n        /* \"#utility.yul\":4520:4549   */\n      tag_323\n        /* \"#utility.yul\":4542:4548   */\n      dup2\n        /* \"#utility.yul\":4520:4549   */\n      tag_225\n      jump\t// in\n    tag_323:\n        /* \"#utility.yul\":4515:4518   */\n      dup5\n        /* \"#utility.yul\":4511:4550   */\n      add\n        /* \"#utility.yul\":4504:4550   */\n      swap2\n      pop\n        /* \"#utility.yul\":4271:4556   */\n      pop\n        /* \"#utility.yul\":4179:4556   */\n      swap3\n      swap2\n      pop\n      pop\n      jump\t// out\n        /* \"#utility.yul\":4562:4684   */\n    tag_227:\n        /* \"#utility.yul\":4637:4643   */\n      0x00\n        /* \"#utility.yul\":4671:4676   */\n      dup2\n        /* \"#utility.yul\":4665:4677   */\n      mload\n        /* \"#utility.yul\":4655:4677   */\n      swap1\n      pop\n        /* \"#utility.yul\":4562:4684   */\n      swap2\n      swap1\n      pop\n      jump\t// out\n        /* \"#utility.yul\":4690:4882   */\n    tag_228:\n        /* \"#utility.yul\":4797:4808   */\n      0x00\n        /* \"#utility.yul\":4831:4837   */\n      dup3\n        /* \"#utility.yul\":4826:4829   */\n      dup3\n        /* \"#utility.yul\":4819:4838   */\n      mstore\n        /* \"#utility.yul\":4871:4875   */\n      0x20\n        /* \"#utility.yul\":4866:4869   */\n      dup3\n        /* \"#utility.yul\":4862:4876   */\n      add\n        /* \"#utility.yul\":4847:4876   */\n      swap1\n      pop\n        /* \"#utility.yul\":4690:4882   */\n      swap3\n      swap2\n      pop\n      pop\n      jump\t// out\n        /* \"#utility.yul\":4888:5028   */\n    tag_229:\n        /* \"#utility.yul\":4963:4967   */\n      0x00\n        /* \"#utility.yul\":4986:4989   */\n      dup2\n        /* \"#utility.yul\":4978:4989   */\n      swap1\n      pop\n        /* \"#utility.yul\":5016:5020   */\n      0x20\n        /* \"#utility.yul\":5011:5014   */\n      dup3\n        /* \"#utility.yul\":5007:5021   */\n      add\n        /* \"#utility.yul\":4999:5021   */\n      swap1\n      pop\n        /* \"#utility.yul\":4888:5028   */\n      swap2\n      swap1\n      pop\n      jump\t// out\n        /* \"#utility.yul\":5034:5138   */\n    tag_230:\n        /* \"#utility.yul\":5079:5086   */\n      0x00\n        /* \"#utility.yul\":5108:5132   */\n      tag_328\n        /* \"#utility.yul\":5126:5131   */\n      dup3\n        /* \"#utility.yul\":5108:5132   */\n      tag_208\n      jump\t// in\n    tag_328:\n        /* \"#utility.yul\":5097:5132   */\n      swap1\n      pop\n        /* \"#utility.yul\":5034:5138   */\n      swap2\n      swap1\n      pop\n      jump\t// out\n        /* \"#utility.yul\":5144:5276   */\n    tag_231:\n        /* \"#utility.yul\":5237:5269   */\n      tag_330\n        /* \"#utility.yul\":5263:5268   */\n      dup2\n        /* \"#utility.yul\":5237:5269   */\n      tag_230\n      jump\t// in\n    tag_330:\n        /* \"#utility.yul\":5232:5235   */\n      dup3\n        /* \"#utility.yul\":5225:5270   */\n      mstore\n        /* \"#utility.yul\":5144:5276   */\n      pop\n      pop\n      jump\t// out\n        /* \"#utility.yul\":5282:5493   */\n    tag_232:\n        /* \"#utility.yul\":5367:5377   */\n      0x00\n        /* \"#utility.yul\":5388:5450   */\n      tag_332\n        /* \"#utility.yul\":5446:5449   */\n      dup4\n        /* \"#utility.yul\":5438:5444   */\n      dup4\n        /* \"#utility.yul\":5388:5450   */\n      tag_231\n      jump\t// in\n    tag_332:\n        /* \"#utility.yul\":5482:5486   */\n      0x20\n        /* \"#utility.yul\":5477:5480   */\n      dup4\n        /* \"#utility.yul\":5473:5487   */\n      add\n        /* \"#utility.yul\":5459:5487   */\n      swap1\n      pop\n        /* \"#utility.yul\":5282:5493   */\n      swap3\n      swap2\n      pop\n      pop\n      jump\t// out\n        /* \"#utility.yul\":5499:5620   */\n    tag_233:\n        /* \"#utility.yul\":5577:5581   */\n      0x00\n        /* \"#utility.yul\":5609:5613   */\n      0x20\n        /* \"#utility.yul\":5604:5607   */\n      dup3\n        /* \"#utility.yul\":5600:5614   */\n      add\n        /* \"#utility.yul\":5592:5614   */\n      swap1\n      pop\n        /* \"#utility.yul\":5499:5620   */\n      swap2\n      swap1\n      pop\n      jump\t// out\n        /* \"#utility.yul\":5672:6468   */\n    tag_234:\n        /* \"#utility.yul\":5807:5810   */\n      0x00\n        /* \"#utility.yul\":5836:5898   */\n      tag_335\n        /* \"#utility.yul\":5892:5897   */\n      dup3\n        /* \"#utility.yul\":5836:5898   */\n      tag_227\n      jump\t// in\n    tag_335:\n        /* \"#utility.yul\":5914:6008   */\n      tag_336\n        /* \"#utility.yul\":6001:6007   */\n      dup2\n        /* \"#utility.yul\":5996:5999   */\n      dup6\n        /* \"#utility.yul\":5914:6008   */\n      tag_228\n      jump\t// in\n    tag_336:\n        /* \"#utility.yul\":5907:6008   */\n      swap4\n      pop\n        /* \"#utility.yul\":6032:6096   */\n      tag_337\n        /* \"#utility.yul\":6090:6095   */\n      dup4\n        /* \"#utility.yul\":6032:6096   */\n      tag_229\n      jump\t// in\n    tag_337:\n        /* \"#utility.yul\":6119:6126   */\n      dup1\n        /* \"#utility.yul\":6150:6151   */\n      0x00\n        /* \"#utility.yul\":6135:6443   */\n    tag_338:\n        /* \"#utility.yul\":6160:6166   */\n      dup4\n        /* \"#utility.yul\":6157:6158   */\n      dup2\n        /* \"#utility.yul\":6154:6167   */\n      lt\n        /* \"#utility.yul\":6135:6443   */\n      iszero\n      tag_340\n      jumpi\n        /* \"#utility.yul\":6236:6242   */\n      dup2\n        /* \"#utility.yul\":6230:6243   */\n      mload\n        /* \"#utility.yul\":6263:6342   */\n      tag_341\n        /* \"#utility.yul\":6338:6341   */\n      dup9\n        /* \"#utility.yul\":6323:6336   */\n      dup3\n        /* \"#utility.yul\":6263:6342   */\n      tag_232\n      jump\t// in\n    tag_341:\n        /* \"#utility.yul\":6256:6342   */\n      swap8\n      pop\n        /* \"#utility.yul\":6365:6433   */\n      tag_342\n        /* \"#utility.yul\":6426:6432   */\n      dup4\n        /* \"#utility.yul\":6365:6433   */\n      tag_233\n      jump\t// in\n    tag_342:\n        /* \"#utility.yul\":6355:6433   */\n      swap3\n      pop\n        /* \"#utility.yul\":6195:6443   */\n      pop\n        /* \"#utility.yul\":6182:6183   */\n      0x01\n        /* \"#utility.yul\":6179:6180   */\n      dup2\n        /* \"#utility.yul\":6175:6184   */\n      add\n        /* \"#utility.yul\":6170:6184   */\n      swap1\n      pop\n        /* \"#utility.yul\":6135:6443   */\n      jump(tag_338)\n    tag_340:\n        /* \"#utility.yul\":6139:6153   */\n      pop\n        /* \"#utility.yul\":6459:6462   */\n      dup6\n        /* \"#utility.yul\":6452:6462   */\n      swap4\n      pop\n        /* \"#utility.yul\":5812:6468   */\n      pop\n      pop\n      pop\n        /* \"#utility.yul\":5672:6468   */\n      swap3\n      swap2\n      pop\n      pop\n      jump\t// out\n        /* \"#utility.yul\":6474:7190   */\n    tag_47:\n        /* \"#utility.yul\":6709:6713   */\n      0x00\n        /* \"#utility.yul\":6747:6749   */\n      0x60\n        /* \"#utility.yul\":6736:6745   */\n      dup3\n        /* \"#utility.yul\":6732:6750   */\n      add\n        /* \"#utility.yul\":6724:6750   */\n      swap1\n      pop\n        /* \"#utility.yul\":6796:6805   */\n      dup2\n        /* \"#utility.yul\":6790:6794   */\n      dup2\n        /* \"#utility.yul\":6786:6806   */\n      sub\n        /* \"#utility.yul\":6782:6783   */\n      0x00\n        /* \"#utility.yul\":6771:6780   */\n      dup4\n        /* \"#utility.yul\":6767:6784   */\n      add\n        /* \"#utility.yul\":6760:6807   */\n      mstore\n        /* \"#utility.yul\":6824:6902   */\n      tag_344\n        /* \"#utility.yul\":6897:6901   */\n      dup2\n        /* \"#utility.yul\":6888:6894   */\n      dup7\n        /* \"#utility.yul\":6824:6902   */\n      tag_226\n      jump\t// in\n    tag_344:\n        /* \"#utility.yul\":6816:6902   */\n      swap1\n      pop\n        /* \"#utility.yul\":6912:6984   */\n      tag_345\n        /* \"#utility.yul\":6980:6982   */\n      0x20\n        /* \"#utility.yul\":6969:6978   */\n      dup4\n        /* \"#utility.yul\":6965:6983   */\n      add\n        /* \"#utility.yul\":6956:6962   */\n      dup6\n        /* \"#utility.yul\":6912:6984   */\n      tag_212\n      jump\t// in\n    tag_345:\n        /* \"#utility.yul\":7031:7040   */\n      dup2\n        /* \"#utility.yul\":7025:7029   */\n      dup2\n        /* \"#utility.yul\":7021:7041   */\n      sub\n        /* \"#utility.yul\":7016:7018   */\n      0x40\n        /* \"#utility.yul\":7005:7014   */\n      dup4\n        /* \"#utility.yul\":7001:7019   */\n      add\n        /* \"#utility.yul\":6994:7042   */\n      mstore\n        /* \"#utility.yul\":7059:7183   */\n      tag_346\n        /* \"#utility.yul\":7178:7182   */\n      dup2\n        /* \"#utility.yul\":7169:7175   */\n      dup5\n        /* \"#utility.yul\":7059:7183   */\n      tag_234\n      jump\t// in\n    tag_346:\n        /* \"#utility.yul\":7051:7183   */\n      swap1\n      pop\n        /* \"#utility.yul\":6474:7190   */\n      swap5\n      swap4\n      pop\n      pop\n      pop\n      pop\n      jump\t// out\n        /* \"#utility.yul\":7196:7418   */\n    tag_51:\n        /* \"#utility.yul\":7289:7293   */\n      0x00\n        /* \"#utility.yul\":7327:7329   */\n      0x20\n        /* \"#utility.yul\":7316:7325   */\n      dup3\n        /* \"#utility.yul\":7312:7330   */\n      add\n        /* \"#utility.yul\":7304:7330   */\n      swap1\n      pop\n        /* \"#utility.yul\":7340:7411   */\n      tag_348\n        /* \"#utility.yul\":7408:7409   */\n      0x00\n        /* \"#utility.yul\":7397:7406   */\n      dup4\n        /* \"#utility.yul\":7393:7410   */\n      add\n        /* \"#utility.yul\":7384:7390   */\n      dup5\n        /* \"#utility.yul\":7340:7411   */\n      tag_210\n      jump\t// in\n    tag_348:\n        /* \"#utility.yul\":7196:7418   */\n      swap3\n      swap2\n      pop\n      pop\n      jump\t// out\n        /* \"#utility.yul\":7424:7847   */\n    tag_72:\n        /* \"#utility.yul\":7565:7569   */\n      0x00\n        /* \"#utility.yul\":7603:7605   */\n      0x40\n        /* \"#utility.yul\":7592:7601   */\n      dup3\n        /* \"#utility.yul\":7588:7606   */\n      add\n        /* \"#utility.yul\":7580:7606   */\n      swap1\n      pop\n        /* \"#utility.yul\":7652:7661   */\n      dup2\n        /* \"#utility.yul\":7646:7650   */\n      dup2\n        /* \"#utility.yul\":7642:7662   */\n      sub\n        /* \"#utility.yul\":7638:7639   */\n      0x00\n        /* \"#utility.yul\":7627:7636   */\n      dup4\n        /* \"#utility.yul\":7623:7640   */\n      add\n        /* \"#utility.yul\":7616:7663   */\n      mstore\n        /* \"#utility.yul\":7680:7758   */\n      tag_350\n        /* \"#utility.yul\":7753:7757   */\n      dup2\n        /* \"#utility.yul\":7744:7750   */\n      dup6\n        /* \"#utility.yul\":7680:7758   */\n      tag_226\n      jump\t// in\n    tag_350:\n        /* \"#utility.yul\":7672:7758   */\n      swap1\n      pop\n        /* \"#utility.yul\":7768:7840   */\n      tag_351\n        /* \"#utility.yul\":7836:7838   */\n      0x20\n        /* \"#utility.yul\":7825:7834   */\n      dup4\n        /* \"#utility.yul\":7821:7839   */\n      add\n        /* \"#utility.yul\":7812:7818   */\n      dup5\n        /* \"#utility.yul\":7768:7840   */\n      tag_212\n      jump\t// in\n    tag_351:\n        /* \"#utility.yul\":7424:7847   */\n      swap4\n      swap3\n      pop\n      pop\n      pop\n      jump\t// out\n        /* \"#utility.yul\":7853:8166   */\n    tag_82:\n        /* \"#utility.yul\":7966:7970   */\n      0x00\n        /* \"#utility.yul\":8004:8006   */\n      0x20\n        /* \"#utility.yul\":7993:8002   */\n      dup3\n        /* \"#utility.yul\":7989:8007   */\n      add\n        /* \"#utility.yul\":7981:8007   */\n      swap1\n      pop\n        /* \"#utility.yul\":8053:8062   */\n      dup2\n        /* \"#utility.yul\":8047:8051   */\n      dup2\n        /* \"#utility.yul\":8043:8063   */\n      sub\n        /* \"#utility.yul\":8039:8040   */\n      0x00\n        /* \"#utility.yul\":8028:8037   */\n      dup4\n        /* \"#utility.yul\":8024:8041   */\n      add\n        /* \"#utility.yul\":8017:8064   */\n      mstore\n        /* \"#utility.yul\":8081:8159   */\n      tag_353\n        /* \"#utility.yul\":8154:8158   */\n      dup2\n        /* \"#utility.yul\":8145:8151   */\n      dup5\n        /* \"#utility.yul\":8081:8159   */\n      tag_226\n      jump\t// in\n    tag_353:\n        /* \"#utility.yul\":8073:8159   */\n      swap1\n      pop\n        /* \"#utility.yul\":7853:8166   */\n      swap3\n      swap2\n      pop\n      pop\n      jump\t// out\n        /* \"#utility.yul\":8172:8338   */\n    tag_235:\n        /* \"#utility.yul\":8312:8330   */\n      0x566f74696e672048617320456e64656400000000000000000000000000000000\n        /* \"#utility.yul\":8308:8309   */\n      0x00\n        /* \"#utility.yul\":8300:8306   */\n      dup3\n        /* \"#utility.yul\":8296:8310   */\n      add\n        /* \"#utility.yul\":8289:8331   */\n      mstore\n        /* \"#utility.yul\":8172:8338   */\n      pop\n      jump\t// out\n        /* \"#utility.yul\":8344:8710   */\n    tag_236:\n        /* \"#utility.yul\":8486:8489   */\n      0x00\n        /* \"#utility.yul\":8507:8574   */\n      tag_356\n        /* \"#utility.yul\":8571:8573   */\n      0x10\n        /* \"#utility.yul\":8566:8569   */\n      dup4\n        /* \"#utility.yul\":8507:8574   */\n      tag_223\n      jump\t// in\n    tag_356:\n        /* \"#utility.yul\":8500:8574   */\n      swap2\n      pop\n        /* \"#utility.yul\":8583:8676   */\n      tag_357\n        /* \"#utility.yul\":8672:8675   */\n      dup3\n        /* \"#utility.yul\":8583:8676   */\n      tag_235\n      jump\t// in\n    tag_357:\n        /* \"#utility.yul\":8701:8703   */\n      0x20\n        /* \"#utility.yul\":8696:8699   */\n      dup3\n        /* \"#utility.yul\":8692:8704   */\n      add\n        /* \"#utility.yul\":8685:8704   */\n      swap1\n      pop\n        /* \"#utility.yul\":8344:8710   */\n      swap2\n      swap1\n      pop\n      jump\t// out\n        /* \"#utility.yul\":8716:9135   */\n    tag_92:\n        /* \"#utility.yul\":8882:8886   */\n      0x00\n        /* \"#utility.yul\":8920:8922   */\n      0x20\n        /* \"#utility.yul\":8909:8918   */\n      dup3\n        /* \"#utility.yul\":8905:8923   */\n      add\n        /* \"#utility.yul\":8897:8923   */\n      swap1\n      pop\n        /* \"#utility.yul\":8969:8978   */\n      dup2\n        /* \"#utility.yul\":8963:8967   */\n      dup2\n        /* \"#utility.yul\":8959:8979   */\n      sub\n        /* \"#utility.yul\":8955:8956   */\n      0x00\n        /* \"#utility.yul\":8944:8953   */\n      dup4\n        /* \"#utility.yul\":8940:8957   */\n      add\n        /* \"#utility.yul\":8933:8980   */\n      mstore\n        /* \"#utility.yul\":8997:9128   */\n      tag_359\n        /* \"#utility.yul\":9123:9127   */\n      dup2\n        /* \"#utility.yul\":8997:9128   */\n      tag_236\n      jump\t// in\n    tag_359:\n        /* \"#utility.yul\":8989:9128   */\n      swap1\n      pop\n        /* \"#utility.yul\":8716:9135   */\n      swap2\n      swap1\n      pop\n      jump\t// out\n        /* \"#utility.yul\":9141:9321   */\n    tag_237:\n        /* \"#utility.yul\":9189:9266   */\n      0x4e487b7100000000000000000000000000000000000000000000000000000000\n        /* \"#utility.yul\":9186:9187   */\n      0x00\n        /* \"#utility.yul\":9179:9267   */\n      mstore\n        /* \"#utility.yul\":9286:9290   */\n      0x11\n        /* \"#utility.yul\":9283:9284   */\n      0x04\n        /* \"#utility.yul\":9276:9291   */\n      mstore\n        /* \"#utility.yul\":9310:9314   */\n      0x24\n        /* \"#utility.yul\":9307:9308   */\n      0x00\n        /* \"#utility.yul\":9300:9315   */\n      revert\n        /* \"#utility.yul\":9327:9518   */\n    tag_97:\n        /* \"#utility.yul\":9367:9370   */\n      0x00\n        /* \"#utility.yul\":9386:9406   */\n      tag_362\n        /* \"#utility.yul\":9404:9405   */\n      dup3\n        /* \"#utility.yul\":9386:9406   */\n      tag_211\n      jump\t// in\n    tag_362:\n        /* \"#utility.yul\":9381:9406   */\n      swap2\n      pop\n        /* \"#utility.yul\":9420:9440   */\n      tag_363\n        /* \"#utility.yul\":9438:9439   */\n      dup4\n        /* \"#utility.yul\":9420:9440   */\n      tag_211\n      jump\t// in\n    tag_363:\n        /* \"#utility.yul\":9415:9440   */\n      swap3\n      pop\n        /* \"#utility.yul\":9463:9464   */\n      dup3\n        /* \"#utility.yul\":9460:9461   */\n      dup3\n        /* \"#utility.yul\":9456:9465   */\n      add\n        /* \"#utility.yul\":9449:9465   */\n      swap1\n      pop\n        /* \"#utility.yul\":9484:9487   */\n      dup1\n        /* \"#utility.yul\":9481:9482   */\n      dup3\n        /* \"#utility.yul\":9478:9488   */\n      gt\n        /* \"#utility.yul\":9475:9511   */\n      iszero\n      tag_364\n      jumpi\n        /* \"#utility.yul\":9491:9509   */\n      tag_365\n      tag_237\n      jump\t// in\n    tag_365:\n        /* \"#utility.yul\":9475:9511   */\n    tag_364:\n        /* \"#utility.yul\":9327:9518   */\n      swap3\n      swap2\n      pop\n      pop\n      jump\t// out\n        /* \"#utility.yul\":9524:9704   */\n    tag_102:\n        /* \"#utility.yul\":9572:9649   */\n      0x4e487b7100000000000000000000000000000000000000000000000000000000\n        /* \"#utility.yul\":9569:9570   */\n      0x00\n        /* \"#utility.yul\":9562:9650   */\n      mstore\n        /* \"#utility.yul\":9669:9673   */\n      0x32\n        /* \"#utility.yul\":9666:9667   */\n      0x04\n        /* \"#utility.yul\":9659:9674   */\n      mstore\n        /* \"#utility.yul\":9693:9697   */\n      0x24\n        /* \"#utility.yul\":9690:9691   */\n      0x00\n        /* \"#utility.yul\":9683:9698   */\n      revert\n        /* \"#utility.yul\":9710:9890   */\n    tag_238:\n        /* \"#utility.yul\":9758:9835   */\n      0x4e487b7100000000000000000000000000000000000000000000000000000000\n        /* \"#utility.yul\":9755:9756   */\n      0x00\n        /* \"#utility.yul\":9748:9836   */\n      mstore\n        /* \"#utility.yul\":9855:9859   */\n      0x22\n        /* \"#utility.yul\":9852:9853   */\n      0x04\n        /* \"#utility.yul\":9845:9860   */\n      mstore\n        /* \"#utility.yul\":9879:9883   */\n      0x24\n        /* \"#utility.yul\":9876:9877   */\n      0x00\n        /* \"#utility.yul\":9869:9884   */\n      revert\n        /* \"#utility.yul\":9896:10216   */\n    tag_136:\n        /* \"#utility.yul\":9940:9946   */\n      0x00\n        /* \"#utility.yul\":9977:9978   */\n      0x02\n        /* \"#utility.yul\":9971:9975   */\n      dup3\n        /* \"#utility.yul\":9967:9979   */\n      div\n        /* \"#utility.yul\":9957:9979   */\n      swap1\n      pop\n        /* \"#utility.yul\":10024:10025   */\n      0x01\n        /* \"#utility.yul\":10018:10022   */\n      dup3\n        /* \"#utility.yul\":10014:10026   */\n      and\n        /* \"#utility.yul\":10045:10063   */\n      dup1\n        /* \"#utility.yul\":10035:10116   */\n      tag_369\n      jumpi\n        /* \"#utility.yul\":10101:10105   */\n      0x7f\n        /* \"#utility.yul\":10093:10099   */\n      dup3\n        /* \"#utility.yul\":10089:10106   */\n      and\n        /* \"#utility.yul\":10079:10106   */\n      swap2\n      pop\n        /* \"#utility.yul\":10035:10116   */\n    tag_369:\n        /* \"#utility.yul\":10163:10165   */\n      0x20\n        /* \"#utility.yul\":10155:10161   */\n      dup3\n        /* \"#utility.yul\":10152:10166   */\n      lt\n        /* \"#utility.yul\":10132:10150   */\n      dup2\n        /* \"#utility.yul\":10129:10167   */\n      sub\n        /* \"#utility.yul\":10126:10210   */\n      tag_370\n      jumpi\n        /* \"#utility.yul\":10182:10200   */\n      tag_371\n      tag_238\n      jump\t// in\n    tag_371:\n        /* \"#utility.yul\":10126:10210   */\n    tag_370:\n        /* \"#utility.yul\":9947:10216   */\n      pop\n        /* \"#utility.yul\":9896:10216   */\n      swap2\n      swap1\n      pop\n      jump\t// out\n        /* \"#utility.yul\":10222:10375   */\n    tag_239:\n        /* \"#utility.yul\":10275:10281   */\n      0x00\n        /* \"#utility.yul\":10309:10314   */\n      dup2\n        /* \"#utility.yul\":10303:10315   */\n      sload\n        /* \"#utility.yul\":10293:10315   */\n      swap1\n      pop\n        /* \"#utility.yul\":10335:10368   */\n      tag_373\n        /* \"#utility.yul\":10361:10367   */\n      dup2\n        /* \"#utility.yul\":10335:10368   */\n      tag_136\n      jump\t// in\n    tag_373:\n        /* \"#utility.yul\":10325:10368   */\n      swap1\n      pop\n        /* \"#utility.yul\":10222:10375   */\n      swap2\n      swap1\n      pop\n      jump\t// out\n        /* \"#utility.yul\":10381:10561   */\n    tag_181:\n        /* \"#utility.yul\":10429:10506   */\n      0x4e487b7100000000000000000000000000000000000000000000000000000000\n        /* \"#utility.yul\":10426:10427   */\n      0x00\n        /* \"#utility.yul\":10419:10507   */\n      mstore\n        /* \"#utility.yul\":10526:10530   */\n      0x41\n        /* \"#utility.yul\":10523:10524   */\n      0x04\n        /* \"#utility.yul\":10516:10531   */\n      mstore\n        /* \"#utility.yul\":10550:10554   */\n      0x24\n        /* \"#utility.yul\":10547:10548   */\n      0x00\n        /* \"#utility.yul\":10540:10555   */\n      revert\n        /* \"#utility.yul\":10567:10708   */\n    tag_240:\n        /* \"#utility.yul\":10616:10620   */\n      0x00\n        /* \"#utility.yul\":10639:10642   */\n      dup2\n        /* \"#utility.yul\":10631:10642   */\n      swap1\n      pop\n        /* \"#utility.yul\":10662:10665   */\n      dup2\n        /* \"#utility.yul\":10659:10660   */\n      0x00\n        /* \"#utility.yul\":10652:10666   */\n      mstore\n        /* \"#utility.yul\":10696:10700   */\n      0x20\n        /* \"#utility.yul\":10693:10694   */\n      0x00\n        /* \"#utility.yul\":10683:10701   */\n      keccak256\n        /* \"#utility.yul\":10675:10701   */\n      swap1\n      pop\n        /* \"#utility.yul\":10567:10708   */\n      swap2\n      swap1\n      pop\n      jump\t// out\n        /* \"#utility.yul\":10714:10859   */\n    tag_241:\n        /* \"#utility.yul\":10767:10771   */\n      0x00\n        /* \"#utility.yul\":10790:10793   */\n      dup2\n        /* \"#utility.yul\":10782:10793   */\n      swap1\n      pop\n        /* \"#utility.yul\":10813:10816   */\n      dup2\n        /* \"#utility.yul\":10810:10811   */\n      0x00\n        /* \"#utility.yul\":10803:10817   */\n      mstore\n        /* \"#utility.yul\":10847:10851   */\n      0x20\n        /* \"#utility.yul\":10844:10845   */\n      0x00\n        /* \"#utility.yul\":10834:10852   */\n      keccak256\n        /* \"#utility.yul\":10826:10852   */\n      swap1\n      pop\n        /* \"#utility.yul\":10714:10859   */\n      swap2\n      swap1\n      pop\n      jump\t// out\n        /* \"#utility.yul\":10865:10958   */\n    tag_242:\n        /* \"#utility.yul\":10902:10908   */\n      0x00\n        /* \"#utility.yul\":10949:10951   */\n      0x20\n        /* \"#utility.yul\":10944:10946   */\n      0x1f\n        /* \"#utility.yul\":10937:10942   */\n      dup4\n        /* \"#utility.yul\":10933:10947   */\n      add\n        /* \"#utility.yul\":10929:10952   */\n      div\n        /* \"#utility.yul\":10919:10952   */\n      swap1\n      pop\n        /* \"#utility.yul\":10865:10958   */\n      swap2\n      swap1\n      pop\n      jump\t// out\n        /* \"#utility.yul\":10964:11071   */\n    tag_243:\n        /* \"#utility.yul\":11008:11016   */\n      0x00\n        /* \"#utility.yul\":11058:11063   */\n      dup3\n        /* \"#utility.yul\":11052:11056   */\n      dup3\n        /* \"#utility.yul\":11048:11064   */\n      shl\n        /* \"#utility.yul\":11027:11064   */\n      swap1\n      pop\n        /* \"#utility.yul\":10964:11071   */\n      swap3\n      swap2\n      pop\n      pop\n      jump\t// out\n        /* \"#utility.yul\":11077:11470   */\n    tag_244:\n        /* \"#utility.yul\":11146:11152   */\n      0x00\n        /* \"#utility.yul\":11196:11197   */\n      0x08\n        /* \"#utility.yul\":11184:11194   */\n      dup4\n        /* \"#utility.yul\":11180:11198   */\n      mul\n        /* \"#utility.yul\":11219:11316   */\n      tag_380\n        /* \"#utility.yul\":11249:11315   */\n      0xffffffffffffffffffffffffffffffffffffffffffffffffffffffffffffffff\n        /* \"#utility.yul\":11238:11247   */\n      dup3\n        /* \"#utility.yul\":11219:11316   */\n      tag_243\n      jump\t// in\n    tag_380:\n        /* \"#utility.yul\":11337:11376   */\n      tag_381\n        /* \"#utility.yul\":11367:11375   */\n      dup7\n        /* \"#utility.yul\":11356:11365   */\n      dup4\n        /* \"#utility.yul\":11337:11376   */\n      tag_243\n      jump\t// in\n    tag_381:\n        /* \"#utility.yul\":11325:11376   */\n      swap6\n      pop\n        /* \"#utility.yul\":11409:11413   */\n      dup1\n        /* \"#utility.yul\":11405:11414   */\n      not\n        /* \"#utility.yul\":11398:11403   */\n      dup5\n        /* \"#utility.yul\":11394:11415   */\n      and\n        /* \"#utility.yul\":11385:11415   */\n      swap4\n      pop\n        /* \"#utility.yul\":11458:11462   */\n      dup1\n        /* \"#utility.yul\":11448:11456   */\n      dup7\n        /* \"#utility.yul\":11444:11463   */\n      and\n        /* \"#utility.yul\":11437:11442   */\n      dup5\n        /* \"#utility.yul\":11434:11464   */\n      or\n        /* \"#utility.yul\":11424:11464   */\n      swap3\n      pop\n        /* \"#utility.yul\":11153:11470   */\n      pop\n      pop\n        /* \"#utility.yul\":11077:11470   */\n      swap4\n      swap3\n      pop\n      pop\n      pop\n      jump\t// out\n        /* \"#utility.yul\":11476:11536   */\n    tag_245:\n        /* \"#utility.yul\":11504:11507   */\n      0x00\n        /* \"#utility.yul\":11525:11530   */\n      dup2\n        /* \"#utility.yul\":11518:11530   */\n      swap1\n      pop\n        /* \"#utility.yul\":11476:11536   */\n      swap2\n      swap1\n      pop\n      jump\t// out\n        /* \"#utility.yul\":11542:11684   */\n    tag_246:\n        /* \"#utility.yul\":11592:11601   */\n      0x00\n        /* \"#utility.yul\":11625:11678   */\n      tag_384\n        /* \"#utility.yul\":11643:11677   */\n      tag_385\n        /* \"#utility.yul\":11652:11676   */\n      tag_386\n        /* \"#utility.yul\":11670:11675   */\n      dup5\n        /* \"#utility.yul\":11652:11676   */\n      tag_211\n      jump\t// in\n    tag_386:\n        /* \"#utility.yul\":11643:11677   */\n      tag_245\n      jump\t// in\n    tag_385:\n        /* \"#utility.yul\":11625:11678   */\n      tag_211\n      jump\t// in\n    tag_384:\n        /* \"#utility.yul\":11612:11678   */\n      swap1\n      pop\n        /* \"#utility.yul\":11542:11684   */\n      swap2\n      swap1\n      pop\n      jump\t// out\n        /* \"#utility.yul\":11690:11765   */\n    tag_247:\n        /* \"#utility.yul\":11733:11736   */\n      0x00\n        /* \"#utility.yul\":11754:11759   */\n      dup2\n        /* \"#utility.yul\":11747:11759   */\n      swap1\n      pop\n        /* \"#utility.yul\":11690:11765   */\n      swap2\n      swap1\n      pop\n      jump\t// out\n        /* \"#utility.yul\":11771:12040   */\n    tag_248:\n        /* \"#utility.yul\":11881:11920   */\n      tag_389\n        /* \"#utility.yul\":11912:11919   */\n      dup4\n        /* \"#utility.yul\":11881:11920   */\n      tag_246\n      jump\t// in\n    tag_389:\n        /* \"#utility.yul\":11942:12033   */\n      tag_390\n        /* \"#utility.yul\":11991:12032   */\n      tag_391\n        /* \"#utility.yul\":12015:12031   */\n      dup3\n        /* \"#utility.yul\":11991:12032   */\n      tag_247\n      jump\t// in\n    tag_391:\n        /* \"#utility.yul\":11983:11989   */\n      dup5\n        /* \"#utility.yul\":11976:11980   */\n      dup5\n        /* \"#utility.yul\":11970:11981   */\n      sload\n        /* \"#utility.yul\":11942:12033   */\n      tag_244\n      jump\t// in\n    tag_390:\n        /* \"#utility.yul\":11936:11940   */\n      dup3\n        /* \"#utility.yul\":11929:12034   */\n      sstore\n        /* \"#utility.yul\":11847:12040   */\n      pop\n        /* \"#utility.yul\":11771:12040   */\n      pop\n      pop\n      pop\n      jump\t// out\n        /* \"#utility.yul\":12046:12119   */\n    tag_249:\n        /* \"#utility.yul\":12091:12094   */\n      0x00\n        /* \"#utility.yul\":12046:12119   */\n      swap1\n      jump\t// out\n        /* \"#utility.yul\":12125:12314   */\n    tag_250:\n        /* \"#utility.yul\":12202:12234   */\n      tag_394\n      tag_249\n      jump\t// in\n    tag_394:\n        /* \"#utility.yul\":12243:12308   */\n      tag_395\n        /* \"#utility.yul\":12301:12307   */\n      dup2\n        /* \"#utility.yul\":12293:12299   */\n      dup5\n        /* \"#utility.yul\":12287:12291   */\n      dup5\n        /* \"#utility.yul\":12243:12308   */\n      tag_248\n      jump\t// in\n    tag_395:\n        /* \"#utility.yul\":12178:12314   */\n      pop\n        /* \"#utility.yul\":12125:12314   */\n      pop\n      pop\n      jump\t// out\n        /* \"#utility.yul\":12320:12506   */\n    tag_251:\n        /* \"#utility.yul\":12380:12500   */\n    tag_397:\n        /* \"#utility.yul\":12397:12400   */\n      dup2\n        /* \"#utility.yul\":12390:12395   */\n      dup2\n        /* \"#utility.yul\":12387:12401   */\n      lt\n        /* \"#utility.yul\":12380:12500   */\n      iszero\n      tag_399\n      jumpi\n        /* \"#utility.yul\":12451:12490   */\n      tag_400\n        /* \"#utility.yul\":12488:12489   */\n      0x00\n        /* \"#utility.yul\":12481:12486   */\n      dup3\n        /* \"#utility.yul\":12451:12490   */\n      tag_250\n      jump\t// in\n    tag_400:\n        /* \"#utility.yul\":12424:12425   */\n      0x01\n        /* \"#utility.yul\":12417:12422   */\n      dup2\n        /* \"#utility.yul\":12413:12426   */\n      add\n        /* \"#utility.yul\":12404:12426   */\n      swap1\n      pop\n        /* \"#utility.yul\":12380:12500   */\n      jump(tag_397)\n    tag_399:\n        /* \"#utility.yul\":12320:12506   */\n      pop\n      pop\n      jump\t// out\n        /* \"#utility.yul\":12512:13055   */\n    tag_252:\n        /* \"#utility.yul\":12613:12615   */\n      0x1f\n        /* \"#utility.yul\":12608:12611   */\n      dup3\n        /* \"#utility.yul\":12605:12616   */\n      gt\n        /* \"#utility.yul\":12602:13048   */\n      iszero\n      tag_402\n      jumpi\n        /* \"#utility.yul\":12647:12685   */\n      tag_403\n        /* \"#utility.yul\":12679:12684   */\n      dup2\n        /* \"#utility.yul\":12647:12685   */\n      tag_240\n      jump\t// in\n    tag_403:\n        /* \"#utility.yul\":12731:12760   */\n      tag_404\n        /* \"#utility.yul\":12749:12759   */\n      dup5\n        /* \"#utility.yul\":12731:12760   */\n      tag_242\n      jump\t// in\n    tag_404:\n        /* \"#utility.yul\":12721:12729   */\n      dup2\n        /* \"#utility.yul\":12717:12761   */\n      add\n        /* \"#utility.yul\":12914:12916   */\n      0x20\n        /* \"#utility.yul\":12902:12912   */\n      dup6\n        /* \"#utility.yul\":12899:12917   */\n      lt\n        /* \"#utility.yul\":12896:12945   */\n      iszero\n      tag_405\n      jumpi\n        /* \"#utility.yul\":12935:12943   */\n      dup2\n        /* \"#utility.yul\":12920:12943   */\n      swap1\n      pop\n        /* \"#utility.yul\":12896:12945   */\n    tag_405:\n        /* \"#utility.yul\":12958:13038   */\n      tag_406\n        /* \"#utility.yul\":13014:13036   */\n      tag_407\n        /* \"#utility.yul\":13032:13035   */\n      dup6\n        /* \"#utility.yul\":13014:13036   */\n      tag_242\n      jump\t// in\n    tag_407:\n        /* \"#utility.yul\":13004:13012   */\n      dup4\n        /* \"#utility.yul\":13000:13037   */\n      add\n        /* \"#utility.yul\":12987:12998   */\n      dup3\n        /* \"#utility.yul\":12958:13038   */\n      tag_251\n      jump\t// in\n    tag_406:\n        /* \"#utility.yul\":12617:13048   */\n      pop\n      pop\n        /* \"#utility.yul\":12602:13048   */\n    tag_402:\n        /* \"#utility.yul\":12512:13055   */\n      pop\n      pop\n      pop\n      jump\t// out\n        /* \"#utility.yul\":13061:13178   */\n    tag_253:\n        /* \"#utility.yul\":13115:13123   */\n      0x00\n        /* \"#utility.yul\":13165:13170   */\n      dup3\n        /* \"#utility.yul\":13159:13163   */\n      dup3\n        /* \"#utility.yul\":13155:13171   */\n      shr\n        /* \"#utility.yul\":13134:13171   */\n      swap1\n      pop\n        /* \"#utility.yul\":13061:13178   */\n      swap3\n      swap2\n      pop\n      pop\n      jump\t// out\n        /* \"#utility.yul\":13184:13353   */\n    tag_254:\n        /* \"#utility.yul\":13228:13234   */\n      0x00\n        /* \"#utility.yul\":13261:13312   */\n      tag_410\n        /* \"#utility.yul\":13309:13310   */\n      0x00\n        /* \"#utility.yul\":13305:13311   */\n      not\n        /* \"#utility.yul\":13297:13302   */\n      dup5\n        /* \"#utility.yul\":13294:13295   */\n      0x08\n        /* \"#utility.yul\":13290:13303   */\n      mul\n        /* \"#utility.yul\":13261:13312   */\n      tag_253\n      jump\t// in\n    tag_410:\n        /* \"#utility.yul\":13257:13313   */\n      not\n        /* \"#utility.yul\":13342:13346   */\n      dup1\n        /* \"#utility.yul\":13336:13340   */\n      dup4\n        /* \"#utility.yul\":13332:13347   */\n      and\n        /* \"#utility.yul\":13322:13347   */\n      swap2\n      pop\n        /* \"#utility.yul\":13235:13353   */\n      pop\n        /* \"#utility.yul\":13184:13353   */\n      swap3\n      swap2\n      pop\n      pop\n      jump\t// out\n        /* \"#utility.yul\":13358:13653   */\n    tag_255:\n        /* \"#utility.yul\":13434:13438   */\n      0x00\n        /* \"#utility.yul\":13580:13609   */\n      tag_412\n        /* \"#utility.yul\":13605:13608   */\n      dup4\n        /* \"#utility.yul\":13599:13603   */\n      dup4\n        /* \"#utility.yul\":13580:13609   */\n      tag_254\n      jump\t// in\n    tag_412:\n        /* \"#utility.yul\":13572:13609   */\n      swap2\n      pop\n        /* \"#utility.yul\":13642:13645   */\n      dup3\n        /* \"#utility.yul\":13639:13640   */\n      0x02\n        /* \"#utility.yul\":13635:13646   */\n      mul\n        /* \"#utility.yul\":13629:13633   */\n      dup3\n        /* \"#utility.yul\":13626:13647   */\n      or\n        /* \"#utility.yul\":13618:13647   */\n      swap1\n      pop\n        /* \"#utility.yul\":13358:13653   */\n      swap3\n      swap2\n      pop\n      pop\n      jump\t// out\n        /* \"#utility.yul\":13658:15121   */\n    tag_107:\n        /* \"#utility.yul\":13773:13776   */\n      dup2\n        /* \"#utility.yul\":13767:13771   */\n      dup2\n        /* \"#utility.yul\":13764:13777   */\n      sub\n        /* \"#utility.yul\":13761:13787   */\n      tag_414\n      jumpi\n        /* \"#utility.yul\":13780:13785   */\n      pop\n      pop\n      jump(tag_413)\n        /* \"#utility.yul\":13761:13787   */\n    tag_414:\n        /* \"#utility.yul\":13811:13849   */\n      tag_415\n        /* \"#utility.yul\":13845:13848   */\n      dup3\n        /* \"#utility.yul\":13811:13849   */\n      tag_239\n      jump\t// in\n    tag_415:\n        /* \"#utility.yul\":13914:13932   */\n      0xffffffffffffffff\n        /* \"#utility.yul\":13906:13912   */\n      dup2\n        /* \"#utility.yul\":13903:13933   */\n      gt\n        /* \"#utility.yul\":13900:13956   */\n      iszero\n      tag_416\n      jumpi\n        /* \"#utility.yul\":13936:13954   */\n      tag_417\n      tag_181\n      jump\t// in\n    tag_417:\n        /* \"#utility.yul\":13900:13956   */\n    tag_416:\n        /* \"#utility.yul\":13980:14018   */\n      tag_418\n        /* \"#utility.yul\":14012:14016   */\n      dup3\n        /* \"#utility.yul\":14006:14017   */\n      sload\n        /* \"#utility.yul\":13980:14018   */\n      tag_136\n      jump\t// in\n    tag_418:\n        /* \"#utility.yul\":14065:14132   */\n      tag_419\n        /* \"#utility.yul\":14125:14131   */\n      dup3\n        /* \"#utility.yul\":14117:14123   */\n      dup3\n        /* \"#utility.yul\":14111:14115   */\n      dup6\n        /* \"#utility.yul\":14065:14132   */\n      tag_252\n      jump\t// in\n    tag_419:\n        /* \"#utility.yul\":14159:14160   */\n      0x00\n        /* \"#utility.yul\":14188:14190   */\n      0x1f\n        /* \"#utility.yul\":14180:14186   */\n      dup4\n        /* \"#utility.yul\":14177:14191   */\n      gt\n        /* \"#utility.yul\":14205:14206   */\n      0x01\n        /* \"#utility.yul\":14200:14876   */\n      dup2\n      eq\n      tag_421\n      jumpi\n        /* \"#utility.yul\":14920:14921   */\n      0x00\n        /* \"#utility.yul\":14937:14943   */\n      dup5\n        /* \"#utility.yul\":14934:15011   */\n      iszero\n      tag_422\n      jumpi\n        /* \"#utility.yul\":14986:14995   */\n      dup3\n        /* \"#utility.yul\":14981:14984   */\n      dup8\n        /* \"#utility.yul\":14977:14996   */\n      add\n        /* \"#utility.yul\":14971:14997   */\n      sload\n        /* \"#utility.yul\":14962:14997   */\n      swap1\n      pop\n        /* \"#utility.yul\":14934:15011   */\n    tag_422:\n        /* \"#utility.yul\":15037:15104   */\n      tag_423\n        /* \"#utility.yul\":15097:15103   */\n      dup6\n        /* \"#utility.yul\":15090:15095   */\n      dup3\n        /* \"#utility.yul\":15037:15104   */\n      tag_255\n      jump\t// in\n    tag_423:\n        /* \"#utility.yul\":15031:15035   */\n      dup7\n        /* \"#utility.yul\":15024:15105   */\n      sstore\n        /* \"#utility.yul\":14893:15115   */\n      pop\n        /* \"#utility.yul\":14170:15115   */\n      jump(tag_420)\n        /* \"#utility.yul\":14200:14876   */\n    tag_421:\n        /* \"#utility.yul\":14252:14256   */\n      0x1f\n        /* \"#utility.yul\":14248:14257   */\n      not\n        /* \"#utility.yul\":14240:14246   */\n      dup5\n        /* \"#utility.yul\":14236:14258   */\n      and\n        /* \"#utility.yul\":14278:14318   */\n      tag_424\n        /* \"#utility.yul\":14314:14317   */\n      dup8\n        /* \"#utility.yul\":14278:14318   */\n      tag_241\n      jump\t// in\n    tag_424:\n        /* \"#utility.yul\":14271:14318   */\n      swap7\n      pop\n        /* \"#utility.yul\":14345:14382   */\n      tag_425\n        /* \"#utility.yul\":14377:14381   */\n      dup7\n        /* \"#utility.yul\":14345:14382   */\n      tag_240\n      jump\t// in\n    tag_425:\n        /* \"#utility.yul\":14404:14405   */\n      0x00\n        /* \"#utility.yul\":14418:14625   */\n    tag_426:\n        /* \"#utility.yul\":14432:14439   */\n      dup3\n        /* \"#utility.yul\":14429:14430   */\n      dup2\n        /* \"#utility.yul\":14426:14440   */\n      lt\n        /* \"#utility.yul\":14418:14625   */\n      iszero\n      tag_428\n      jumpi\n        /* \"#utility.yul\":14511:14520   */\n      dup5\n        /* \"#utility.yul\":14506:14509   */\n      dup10\n        /* \"#utility.yul\":14502:14521   */\n      add\n        /* \"#utility.yul\":14496:14522   */\n      sload\n        /* \"#utility.yul\":14488:14494   */\n      dup3\n        /* \"#utility.yul\":14481:14523   */\n      sstore\n        /* \"#utility.yul\":14562:14563   */\n      0x01\n        /* \"#utility.yul\":14554:14560   */\n      dup3\n        /* \"#utility.yul\":14550:14564   */\n      add\n        /* \"#utility.yul\":14540:14564   */\n      swap2\n      pop\n        /* \"#utility.yul\":14609:14610   */\n      0x01\n        /* \"#utility.yul\":14598:14607   */\n      dup6\n        /* \"#utility.yul\":14594:14611   */\n      add\n        /* \"#utility.yul\":14581:14611   */\n      swap5\n      pop\n        /* \"#utility.yul\":14455:14459   */\n      0x20\n        /* \"#utility.yul\":14452:14453   */\n      dup2\n        /* \"#utility.yul\":14448:14460   */\n      add\n        /* \"#utility.yul\":14443:14460   */\n      swap1\n      pop\n        /* \"#utility.yul\":14418:14625   */\n      jump(tag_426)\n    tag_428:\n        /* \"#utility.yul\":14653:14659   */\n      dup7\n        /* \"#utility.yul\":14644:14651   */\n      dup4\n        /* \"#utility.yul\":14641:14660   */\n      lt\n        /* \"#utility.yul\":14638:14817   */\n      iszero\n      tag_429\n      jumpi\n        /* \"#utility.yul\":14711:14720   */\n      dup5\n        /* \"#utility.yul\":14706:14709   */\n      dup10\n        /* \"#utility.yul\":14702:14721   */\n      add\n        /* \"#utility.yul\":14696:14722   */\n      sload\n        /* \"#utility.yul\":14754:14802   */\n      tag_430\n        /* \"#utility.yul\":14796:14800   */\n      0x1f\n        /* \"#utility.yul\":14788:14794   */\n      dup10\n        /* \"#utility.yul\":14784:14801   */\n      and\n        /* \"#utility.yul\":14773:14782   */\n      dup3\n        /* \"#utility.yul\":14754:14802   */\n      tag_254\n      jump\t// in\n    tag_430:\n        /* \"#utility.yul\":14746:14752   */\n      dup4\n        /* \"#utility.yul\":14739:14803   */\n      sstore\n        /* \"#utility.yul\":14661:14817   */\n      pop\n        /* \"#utility.yul\":14638:14817   */\n    tag_429:\n        /* \"#utility.yul\":14863:14864   */\n      0x01\n        /* \"#utility.yul\":14859:14860   */\n      0x02\n        /* \"#utility.yul\":14851:14857   */\n      dup9\n        /* \"#utility.yul\":14847:14861   */\n      mul\n        /* \"#utility.yul\":14843:14865   */\n      add\n        /* \"#utility.yul\":14837:14841   */\n      dup9\n        /* \"#utility.yul\":14830:14866   */\n      sstore\n        /* \"#utility.yul\":14207:14876   */\n      pop\n      pop\n      pop\n        /* \"#utility.yul\":14170:15115   */\n    tag_420:\n      pop\n        /* \"#utility.yul\":13751:15121   */\n      pop\n      pop\n      pop\n        /* \"#utility.yul\":13658:15121   */\n      pop\n      pop\n    tag_413:\n      jump\t// out\n        /* \"#utility.yul\":15127:15297   */\n    tag_256:\n        /* \"#utility.yul\":15267:15289   */\n      0x4d616e616765722043616e204e6f7420566f7465000000000000000000000000\n        /* \"#utility.yul\":15263:15264   */\n      0x00\n        /* \"#utility.yul\":15255:15261   */\n      dup3\n        /* \"#utility.yul\":15251:15265   */\n      add\n        /* \"#utility.yul\":15244:15290   */\n      mstore\n        /* \"#utility.yul\":15127:15297   */\n      pop\n      jump\t// out\n        /* \"#utility.yul\":15303:15669   */\n    tag_257:\n        /* \"#utility.yul\":15445:15448   */\n      0x00\n        /* \"#utility.yul\":15466:15533   */\n      tag_433\n        /* \"#utility.yul\":15530:15532   */\n      0x14\n        /* \"#utility.yul\":15525:15528   */\n      dup4\n        /* \"#utility.yul\":15466:15533   */\n      tag_223\n      jump\t// in\n    tag_433:\n        /* \"#utility.yul\":15459:15533   */\n      swap2\n      pop\n        /* \"#utility.yul\":15542:15635   */\n      tag_434\n        /* \"#utility.yul\":15631:15634   */\n      dup3\n        /* \"#utility.yul\":15542:15635   */\n      tag_256\n      jump\t// in\n    tag_434:\n        /* \"#utility.yul\":15660:15662   */\n      0x20\n        /* \"#utility.yul\":15655:15658   */\n      dup3\n        /* \"#utility.yul\":15651:15663   */\n      add\n        /* \"#utility.yul\":15644:15663   */\n      swap1\n      pop\n        /* \"#utility.yul\":15303:15669   */\n      swap2\n      swap1\n      pop\n      jump\t// out\n        /* \"#utility.yul\":15675:16094   */\n    tag_111:\n        /* \"#utility.yul\":15841:15845   */\n      0x00\n        /* \"#utility.yul\":15879:15881   */\n      0x20\n        /* \"#utility.yul\":15868:15877   */\n      dup3\n        /* \"#utility.yul\":15864:15882   */\n      add\n        /* \"#utility.yul\":15856:15882   */\n      swap1\n      pop\n        /* \"#utility.yul\":15928:15937   */\n      dup2\n        /* \"#utility.yul\":15922:15926   */\n      dup2\n        /* \"#utility.yul\":15918:15938   */\n      sub\n        /* \"#utility.yul\":15914:15915   */\n      0x00\n        /* \"#utility.yul\":15903:15912   */\n      dup4\n        /* \"#utility.yul\":15899:15916   */\n      add\n        /* \"#utility.yul\":15892:15939   */\n      mstore\n        /* \"#utility.yul\":15956:16087   */\n      tag_436\n        /* \"#utility.yul\":16082:16086   */\n      dup2\n        /* \"#utility.yul\":15956:16087   */\n      tag_257\n      jump\t// in\n    tag_436:\n        /* \"#utility.yul\":15948:16087   */\n      swap1\n      pop\n        /* \"#utility.yul\":15675:16094   */\n      swap2\n      swap1\n      pop\n      jump\t// out\n        /* \"#utility.yul\":16100:16320   */\n    tag_258:\n        /* \"#utility.yul\":16240:16274   */\n      0x596f752043616e6e6f742054616b65205061727420696e205468697320566f74\n        /* \"#utility.yul\":16236:16237   */\n      0x00\n        /* \"#utility.yul\":16228:16234   */\n      dup3\n        /* \"#utility.yul\":16224:16238   */\n      add\n        /* \"#utility.yul\":16217:16275   */\n      mstore\n        /* \"#utility.yul\":16309:16312   */\n      0x6500000000000000000000000000000000000000000000000000000000000000\n        /* \"#utility.yul\":16304:16306   */\n      0x20\n        /* \"#utility.yul\":16296:16302   */\n      dup3\n        /* \"#utility.yul\":16292:16307   */\n      add\n        /* \"#utility.yul\":16285:16313   */\n      mstore\n        /* \"#utility.yul\":16100:16320   */\n      pop\n      jump\t// out\n        /* \"#utility.yul\":16326:16692   */\n    tag_259:\n        /* \"#utility.yul\":16468:16471   */\n      0x00\n        /* \"#utility.yul\":16489:16556   */\n      tag_439\n        /* \"#utility.yul\":16553:16555   */\n      0x21\n        /* \"#utility.yul\":16548:16551   */\n      dup4\n        /* \"#utility.yul\":16489:16556   */\n      tag_223\n      jump\t// in\n    tag_439:\n        /* \"#utility.yul\":16482:16556   */\n      swap2\n      pop\n        /* \"#utility.yul\":16565:16658   */\n      tag_440\n        /* \"#utility.yul\":16654:16657   */\n      dup3\n        /* \"#utility.yul\":16565:16658   */\n      tag_258\n      jump\t// in\n    tag_440:\n        /* \"#utility.yul\":16683:16685   */\n      0x40\n        /* \"#utility.yul\":16678:16681   */\n      dup3\n        /* \"#utility.yul\":16674:16686   */\n      add\n        /* \"#utility.yul\":16667:16686   */\n      swap1\n      pop\n        /* \"#utility.yul\":16326:16692   */\n      swap2\n      swap1\n      pop\n      jump\t// out\n        /* \"#utility.yul\":16698:17117   */\n    tag_114:\n        /* \"#utility.yul\":16864:16868   */\n      0x00\n        /* \"#utility.yul\":16902:16904   */\n      0x20\n        /* \"#utility.yul\":16891:16900   */\n      dup3\n        /* \"#utility.yul\":16887:16905   */\n      add\n        /* \"#utility.yul\":16879:16905   */\n      swap1\n      pop\n        /* \"#utility.yul\":16951:16960   */\n      dup2\n        /* \"#utility.yul\":16945:16949   */\n      dup2\n        /* \"#utility.yul\":16941:16961   */\n      sub\n        /* \"#utility.yul\":16937:16938   */\n      0x00\n        /* \"#utility.yul\":16926:16935   */\n      dup4\n        /* \"#utility.yul\":16922:16939   */\n      add\n        /* \"#utility.yul\":16915:16962   */\n      mstore\n        /* \"#utility.yul\":16979:17110   */\n      tag_442\n        /* \"#utility.yul\":17105:17109   */\n      dup2\n        /* \"#utility.yul\":16979:17110   */\n      tag_259\n      jump\t// in\n    tag_442:\n        /* \"#utility.yul\":16971:17110   */\n      swap1\n      pop\n        /* \"#utility.yul\":16698:17117   */\n      swap2\n      swap1\n      pop\n      jump\t// out\n        /* \"#utility.yul\":17123:17295   */\n    tag_260:\n        /* \"#utility.yul\":17263:17287   */\n      0x596f752043616e204f6e6c7920566f7465204f6e636500000000000000000000\n        /* \"#utility.yul\":17259:17260   */\n      0x00\n        /* \"#utility.yul\":17251:17257   */\n      dup3\n        /* \"#utility.yul\":17247:17261   */\n      add\n        /* \"#utility.yul\":17240:17288   */\n      mstore\n        /* \"#utility.yul\":17123:17295   */\n      pop\n      jump\t// out\n        /* \"#utility.yul\":17301:17667   */\n    tag_261:\n        /* \"#utility.yul\":17443:17446   */\n      0x00\n        /* \"#utility.yul\":17464:17531   */\n      tag_445\n        /* \"#utility.yul\":17528:17530   */\n      0x16\n        /* \"#utility.yul\":17523:17526   */\n      dup4\n        /* \"#utility.yul\":17464:17531   */\n      tag_223\n      jump\t// in\n    tag_445:\n        /* \"#utility.yul\":17457:17531   */\n      swap2\n      pop\n        /* \"#utility.yul\":17540:17633   */\n      tag_446\n        /* \"#utility.yul\":17629:17632   */\n      dup3\n        /* \"#utility.yul\":17540:17633   */\n      tag_260\n      jump\t// in\n    tag_446:\n        /* \"#utility.yul\":17658:17660   */\n      0x20\n        /* \"#utility.yul\":17653:17656   */\n      dup3\n        /* \"#utility.yul\":17649:17661   */\n      add\n        /* \"#utility.yul\":17642:17661   */\n      swap1\n      pop\n        /* \"#utility.yul\":17301:17667   */\n      swap2\n      swap1\n      pop\n      jump\t// out\n        /* \"#utility.yul\":17673:18092   */\n    tag_117:\n        /* \"#utility.yul\":17839:17843   */\n      0x00\n        /* \"#utility.yul\":17877:17879   */\n      0x20\n        /* \"#utility.yul\":17866:17875   */\n      dup3\n        /* \"#utility.yul\":17862:17880   */\n      add\n        /* \"#utility.yul\":17854:17880   */\n      swap1\n      pop\n        /* \"#utility.yul\":17926:17935   */\n      dup2\n        /* \"#utility.yul\":17920:17924   */\n      dup2\n        /* \"#utility.yul\":17916:17936   */\n      sub\n        /* \"#utility.yul\":17912:17913   */\n      0x00\n        /* \"#utility.yul\":17901:17910   */\n      dup4\n        /* \"#utility.yul\":17897:17914   */\n      add\n        /* \"#utility.yul\":17890:17937   */\n      mstore\n        /* \"#utility.yul\":17954:18085   */\n      tag_448\n        /* \"#utility.yul\":18080:18084   */\n      dup2\n        /* \"#utility.yul\":17954:18085   */\n      tag_261\n      jump\t// in\n    tag_448:\n        /* \"#utility.yul\":17946:18085   */\n      swap1\n      pop\n        /* \"#utility.yul\":17673:18092   */\n      swap2\n      swap1\n      pop\n      jump\t// out\n        /* \"#utility.yul\":18098:18275   */\n    tag_262:\n        /* \"#utility.yul\":18238:18267   */\n      0x596f752043686f7365206174205468652057726f6e672054696d650000000000\n        /* \"#utility.yul\":18234:18235   */\n      0x00\n        /* \"#utility.yul\":18226:18232   */\n      dup3\n        /* \"#utility.yul\":18222:18236   */\n      add\n        /* \"#utility.yul\":18215:18268   */\n      mstore\n        /* \"#utility.yul\":18098:18275   */\n      pop\n      jump\t// out\n        /* \"#utility.yul\":18281:18647   */\n    tag_263:\n        /* \"#utility.yul\":18423:18426   */\n      0x00\n        /* \"#utility.yul\":18444:18511   */\n      tag_451\n        /* \"#utility.yul\":18508:18510   */\n      0x1b\n        /* \"#utility.yul\":18503:18506   */\n      dup4\n        /* \"#utility.yul\":18444:18511   */\n      tag_223\n      jump\t// in\n    tag_451:\n        /* \"#utility.yul\":18437:18511   */\n      swap2\n      pop\n        /* \"#utility.yul\":18520:18613   */\n      tag_452\n        /* \"#utility.yul\":18609:18612   */\n      dup3\n        /* \"#utility.yul\":18520:18613   */\n      tag_262\n      jump\t// in\n    tag_452:\n        /* \"#utility.yul\":18638:18640   */\n      0x20\n        /* \"#utility.yul\":18633:18636   */\n      dup3\n        /* \"#utility.yul\":18629:18641   */\n      add\n        /* \"#utility.yul\":18622:18641   */\n      swap1\n      pop\n        /* \"#utility.yul\":18281:18647   */\n      swap2\n      swap1\n      pop\n      jump\t// out\n        /* \"#utility.yul\":18653:19072   */\n    tag_123:\n        /* \"#utility.yul\":18819:18823   */\n      0x00\n        /* \"#utility.yul\":18857:18859   */\n      0x20\n        /* \"#utility.yul\":18846:18855   */\n      dup3\n        /* \"#utility.yul\":18842:18860   */\n      add\n        /* \"#utility.yul\":18834:18860   */\n      swap1\n      pop\n        /* \"#utility.yul\":18906:18915   */\n      dup2\n        /* \"#utility.yul\":18900:18904   */\n      dup2\n        /* \"#utility.yul\":18896:18916   */\n      sub\n        /* \"#utility.yul\":18892:18893   */\n      0x00\n        /* \"#utility.yul\":18881:18890   */\n      dup4\n        /* \"#utility.yul\":18877:18894   */\n      add\n        /* \"#utility.yul\":18870:18917   */\n      mstore\n        /* \"#utility.yul\":18934:19065   */\n      tag_454\n        /* \"#utility.yul\":19060:19064   */\n      dup2\n        /* \"#utility.yul\":18934:19065   */\n      tag_263\n      jump\t// in\n    tag_454:\n        /* \"#utility.yul\":18926:19065   */\n      swap1\n      pop\n        /* \"#utility.yul\":18653:19072   */\n      swap2\n      swap1\n      pop\n      jump\t// out\n        /* \"#utility.yul\":19078:19311   */\n    tag_128:\n        /* \"#utility.yul\":19117:19120   */\n      0x00\n        /* \"#utility.yul\":19140:19164   */\n      tag_456\n        /* \"#utility.yul\":19158:19163   */\n      dup3\n        /* \"#utility.yul\":19140:19164   */\n      tag_211\n      jump\t// in\n    tag_456:\n        /* \"#utility.yul\":19131:19164   */\n      swap2\n      pop\n        /* \"#utility.yul\":19186:19252   */\n      0xffffffffffffffffffffffffffffffffffffffffffffffffffffffffffffffff\n        /* \"#utility.yul\":19179:19184   */\n      dup3\n        /* \"#utility.yul\":19176:19253   */\n      sub\n        /* \"#utility.yul\":19173:19276   */\n      tag_457\n      jumpi\n        /* \"#utility.yul\":19256:19274   */\n      tag_458\n      tag_237\n      jump\t// in\n    tag_458:\n        /* \"#utility.yul\":19173:19276   */\n    tag_457:\n        /* \"#utility.yul\":19303:19304   */\n      0x01\n        /* \"#utility.yul\":19296:19301   */\n      dup3\n        /* \"#utility.yul\":19292:19305   */\n      add\n        /* \"#utility.yul\":19285:19305   */\n      swap1\n      pop\n        /* \"#utility.yul\":19078:19311   */\n      swap2\n      swap1\n      pop\n      jump\t// out\n        /* \"#utility.yul\":19317:19491   */\n    tag_264:\n        /* \"#utility.yul\":19457:19483   */\n      0x4d616e616765722043616e6e6f7420426520566f746572730000000000000000\n        /* \"#utility.yul\":19453:19454   */\n      0x00\n        /* \"#utility.yul\":19445:19451   */\n      dup3\n        /* \"#utility.yul\":19441:19455   */\n      add\n        /* \"#utility.yul\":19434:19484   */\n      mstore\n        /* \"#utility.yul\":19317:19491   */\n      pop\n      jump\t// out\n        /* \"#utility.yul\":19497:19863   */\n    tag_265:\n        /* \"#utility.yul\":19639:19642   */\n      0x00\n        /* \"#utility.yul\":19660:19727   */\n      tag_461\n        /* \"#utility.yul\":19724:19726   */\n      0x18\n        /* \"#utility.yul\":19719:19722   */\n      dup4\n        /* \"#utility.yul\":19660:19727   */\n      tag_223\n      jump\t// in\n    tag_461:\n        /* \"#utility.yul\":19653:19727   */\n      swap2\n      pop\n        /* \"#utility.yul\":19736:19829   */\n      tag_462\n        /* \"#utility.yul\":19825:19828   */\n      dup3\n        /* \"#utility.yul\":19736:19829   */\n      tag_264\n      jump\t// in\n    tag_462:\n        /* \"#utility.yul\":19854:19856   */\n      0x20\n        /* \"#utility.yul\":19849:19852   */\n      dup3\n        /* \"#utility.yul\":19845:19857   */\n      add\n        /* \"#utility.yul\":19838:19857   */\n      swap1\n      pop\n        /* \"#utility.yul\":19497:19863   */\n      swap2\n      swap1\n      pop\n      jump\t// out\n        /* \"#utility.yul\":19869:20288   */\n    tag_161:\n        /* \"#utility.yul\":20035:20039   */\n      0x00\n        /* \"#utility.yul\":20073:20075   */\n      0x20\n        /* \"#utility.yul\":20062:20071   */\n      dup3\n        /* \"#utility.yul\":20058:20076   */\n      add\n        /* \"#utility.yul\":20050:20076   */\n      swap1\n      pop\n        /* \"#utility.yul\":20122:20131   */\n      dup2\n        /* \"#utility.yul\":20116:20120   */\n      dup2\n        /* \"#utility.yul\":20112:20132   */\n      sub\n        /* \"#utility.yul\":20108:20109   */\n      0x00\n        /* \"#utility.yul\":20097:20106   */\n      dup4\n        /* \"#utility.yul\":20093:20110   */\n      add\n        /* \"#utility.yul\":20086:20133   */\n      mstore\n        /* \"#utility.yul\":20150:20281   */\n      tag_464\n        /* \"#utility.yul\":20276:20280   */\n      dup2\n        /* \"#utility.yul\":20150:20281   */\n      tag_265\n      jump\t// in\n    tag_464:\n        /* \"#utility.yul\":20142:20281   */\n      swap1\n      pop\n        /* \"#utility.yul\":19869:20288   */\n      swap2\n      swap1\n      pop\n      jump\t// out\n        /* \"#utility.yul\":20294:20476   */\n    tag_266:\n        /* \"#utility.yul\":20434:20468   */\n      0x54686973204164647265737320697320416c7265616479206120566f74657220\n        /* \"#utility.yul\":20430:20431   */\n      0x00\n        /* \"#utility.yul\":20422:20428   */\n      dup3\n        /* \"#utility.yul\":20418:20432   */\n      add\n        /* \"#utility.yul\":20411:20469   */\n      mstore\n        /* \"#utility.yul\":20294:20476   */\n      pop\n      jump\t// out\n        /* \"#utility.yul\":20482:20848   */\n    tag_267:\n        /* \"#utility.yul\":20624:20627   */\n      0x00\n        /* \"#utility.yul\":20645:20712   */\n      tag_467\n        /* \"#utility.yul\":20709:20711   */\n      0x20\n        /* \"#utility.yul\":20704:20707   */\n      dup4\n        /* \"#utility.yul\":20645:20712   */\n      tag_223\n      jump\t// in\n    tag_467:\n        /* \"#utility.yul\":20638:20712   */\n      swap2\n      pop\n        /* \"#utility.yul\":20721:20814   */\n      tag_468\n        /* \"#utility.yul\":20810:20813   */\n      dup3\n        /* \"#utility.yul\":20721:20814   */\n      tag_266\n      jump\t// in\n    tag_468:\n        /* \"#utility.yul\":20839:20841   */\n      0x20\n        /* \"#utility.yul\":20834:20837   */\n      dup3\n        /* \"#utility.yul\":20830:20842   */\n      add\n        /* \"#utility.yul\":20823:20842   */\n      swap1\n      pop\n        /* \"#utility.yul\":20482:20848   */\n      swap2\n      swap1\n      pop\n      jump\t// out\n        /* \"#utility.yul\":20854:21273   */\n    tag_164:\n        /* \"#utility.yul\":21020:21024   */\n      0x00\n        /* \"#utility.yul\":21058:21060   */\n      0x20\n        /* \"#utility.yul\":21047:21056   */\n      dup3\n        /* \"#utility.yul\":21043:21061   */\n      add\n        /* \"#utility.yul\":21035:21061   */\n      swap1\n      pop\n        /* \"#utility.yul\":21107:21116   */\n      dup2\n        /* \"#utility.yul\":21101:21105   */\n      dup2\n        /* \"#utility.yul\":21097:21117   */\n      sub\n        /* \"#utility.yul\":21093:21094   */\n      0x00\n        /* \"#utility.yul\":21082:21091   */\n      dup4\n        /* \"#utility.yul\":21078:21095   */\n      add\n        /* \"#utility.yul\":21071:21118   */\n      mstore\n        /* \"#utility.yul\":21135:21266   */\n      tag_470\n        /* \"#utility.yul\":21261:21265   */\n      dup2\n        /* \"#utility.yul\":21135:21266   */\n      tag_267\n      jump\t// in\n    tag_470:\n        /* \"#utility.yul\":21127:21266   */\n      swap1\n      pop\n        /* \"#utility.yul\":20854:21273   */\n      swap2\n      swap1\n      pop\n      jump\t// out\n        /* \"#utility.yul\":21279:21473   */\n    tag_198:\n        /* \"#utility.yul\":21319:21323   */\n      0x00\n        /* \"#utility.yul\":21339:21359   */\n      tag_472\n        /* \"#utility.yul\":21357:21358   */\n      dup3\n        /* \"#utility.yul\":21339:21359   */\n      tag_211\n      jump\t// in\n    tag_472:\n        /* \"#utility.yul\":21334:21359   */\n      swap2\n      pop\n        /* \"#utility.yul\":21373:21393   */\n      tag_473\n        /* \"#utility.yul\":21391:21392   */\n      dup4\n        /* \"#utility.yul\":21373:21393   */\n      tag_211\n      jump\t// in\n    tag_473:\n        /* \"#utility.yul\":21368:21393   */\n      swap3\n      pop\n        /* \"#utility.yul\":21417:21418   */\n      dup3\n        /* \"#utility.yul\":21414:21415   */\n      dup3\n        /* \"#utility.yul\":21410:21419   */\n      sub\n        /* \"#utility.yul\":21402:21419   */\n      swap1\n      pop\n        /* \"#utility.yul\":21441:21442   */\n      dup2\n        /* \"#utility.yul\":21435:21439   */\n      dup2\n        /* \"#utility.yul\":21432:21443   */\n      gt\n        /* \"#utility.yul\":21429:21466   */\n      iszero\n      tag_474\n      jumpi\n        /* \"#utility.yul\":21446:21464   */\n      tag_475\n      tag_237\n      jump\t// in\n    tag_475:\n        /* \"#utility.yul\":21429:21466   */\n    tag_474:\n        /* \"#utility.yul\":21279:21473   */\n      swap3\n      swap2\n      pop\n      pop\n      jump\t// out\n\n    auxdata: 0xa264697066735822122098cb062c9d1496b67122b34f57ef5e717a02fd322dbea97cc0f888f01da2a43564736f6c63430008120033\n}\n","bytecode":{"linkReferences":{},"object":"60806040523480156200001157600080fd5b506040516200266738038062002667833981810160405281019062000037919062000478565b806000806101000a81548173ffffffffffffffffffffffffffffffffffffffff021916908373ffffffffffffffffffffffffffffffffffffffff1602179055508360028190555082600381905550816004819055506000600190505b60025481116200018f576000600a6001816001815401808255809150500390600052602060002090600302019050620000d2826200019a60201b60201c565b604051602001620000e49190620005b3565b6040516020818303038152906040528160000190816200010591906200083e565b5060008160010181905550600067ffffffffffffffff8111156200012e576200012d620005d9565b5b6040519080825280602002602001820160405280156200015d5781602001602082028036833780820191505090505b508160020190805190602001906200017792919062000325565b50508080620001869062000954565b91505062000093565b505050505062000ae5565b606060008203620001e3576040518060400160405280600181526020017f3000000000000000000000000000000000000000000000000000000000000000815250905062000320565b600082905060005b600082146200021b578080620002019062000954565b915050600a82620002139190620009d0565b9150620001eb565b60008167ffffffffffffffff8111156200023a5762000239620005d9565b5b6040519080825280601f01601f1916602001820160405280156200026d5781602001600182028036833780820191505090505b50905060008290505b6000861462000318576001816200028e919062000a08565b90506000600a87620002a1919062000a43565b6030620002af919062000a7b565b905060008160f81b905080848481518110620002d057620002cf62000ab6565b5b60200101907effffffffffffffffffffffffffffffffffffffffffffffffffffffffffffff1916908160001a905350600a886200030e9190620009d0565b9750505062000276565b819450505050505b919050565b828054828255906000526020600020908101928215620003a1579160200282015b82811115620003a05782518260006101000a81548173ffffffffffffffffffffffffffffffffffffffff021916908373ffffffffffffffffffffffffffffffffffffffff1602179055509160200191906001019062000346565b5b509050620003b09190620003b4565b5090565b5b80821115620003cf576000816000905550600101620003b5565b5090565b600080fd5b6000819050919050565b620003ed81620003d8565b8114620003f957600080fd5b50565b6000815190506200040d81620003e2565b92915050565b600073ffffffffffffffffffffffffffffffffffffffff82169050919050565b6000620004408262000413565b9050919050565b620004528162000433565b81146200045e57600080fd5b50565b600081519050620004728162000447565b92915050565b60008060008060808587031215620004955762000494620003d3565b5b6000620004a587828801620003fc565b9450506020620004b887828801620003fc565b9350506040620004cb87828801620003fc565b9250506060620004de8782880162000461565b91505092959194509250565b600081905092915050565b7f50696c6968616e20000000000000000000000000000000000000000000000000600082015250565b60006200052d600883620004ea565b91506200053a82620004f5565b600882019050919050565b600081519050919050565b60005b838110156200057057808201518184015260208101905062000553565b60008484015250505050565b6000620005898262000545565b620005958185620004ea565b9350620005a781856020860162000550565b80840191505092915050565b6000620005c0826200051e565b9150620005ce82846200057c565b915081905092915050565b7f4e487b7100000000000000000000000000000000000000000000000000000000600052604160045260246000fd5b7f4e487b7100000000000000000000000000000000000000000000000000000000600052602260045260246000fd5b600060028204905060018216806200065057607f821691505b60208210810362000666576200066562000608565b5b50919050565b60008190508160005260206000209050919050565b60006020601f8301049050919050565b600082821b905092915050565b600060088302620006d07fffffffffffffffffffffffffffffffffffffffffffffffffffffffffffffffff8262000691565b620006dc868362000691565b95508019841693508086168417925050509392505050565b6000819050919050565b60006200071f620007196200071384620003d8565b620006f4565b620003d8565b9050919050565b6000819050919050565b6200073b83620006fe565b620007536200074a8262000726565b8484546200069e565b825550505050565b600090565b6200076a6200075b565b6200077781848462000730565b505050565b5b818110156200079f576200079360008262000760565b6001810190506200077d565b5050565b601f821115620007ee57620007b8816200066c565b620007c38462000681565b81016020851015620007d3578190505b620007eb620007e28562000681565b8301826200077c565b50505b505050565b600082821c905092915050565b60006200081360001984600802620007f3565b1980831691505092915050565b60006200082e838362000800565b9150826002028217905092915050565b620008498262000545565b67ffffffffffffffff811115620008655762000864620005d9565b5b62000871825462000637565b6200087e828285620007a3565b600060209050601f831160018114620008b65760008415620008a1578287015190505b620008ad858262000820565b8655506200091d565b601f198416620008c6866200066c565b60005b82811015620008f057848901518255600182019150602085019450602081019050620008c9565b868310156200091057848901516200090c601f89168262000800565b8355505b6001600288020188555050505b505050505050565b7f4e487b7100000000000000000000000000000000000000000000000000000000600052601160045260246000fd5b60006200096182620003d8565b91507fffffffffffffffffffffffffffffffffffffffffffffffffffffffffffffffff820362000996576200099562000925565b5b600182019050919050565b7f4e487b7100000000000000000000000000000000000000000000000000000000600052601260045260246000fd5b6000620009dd82620003d8565b9150620009ea83620003d8565b925082620009fd57620009fc620009a1565b5b828204905092915050565b600062000a1582620003d8565b915062000a2283620003d8565b925082820390508181111562000a3d5762000a3c62000925565b5b92915050565b600062000a5082620003d8565b915062000a5d83620003d8565b92508262000a705762000a6f620009a1565b5b828206905092915050565b600062000a8882620003d8565b915062000a9583620003d8565b925082820190508082111562000ab05762000aaf62000925565b5b92915050565b7f4e487b7100000000000000000000000000000000000000000000000000000000600052603260045260246000fd5b611b728062000af56000396000f3fe608060405234801561001057600080fd5b506004361061010b5760003560e01c806378622c5d116100a2578063a50239ee11610071578063a50239ee1461029f578063a944b7a6146102d0578063c24a0f8b146102ee578063dfbf53ae1461030c578063f9bc85891461032a5761010b565b806378622c5d146102155780639c2aab5e146102335780639d9a7fe914610251578063a3d453141461026f5761010b565b8063255adfd4116100de578063255adfd4146101775780633dde87b4146101a7578063481c6a75146101d957806370babc8a146101f75761010b565b80631442f65a146101105780631632c03f146101335780632134f7f01461015157806323822a741461015b575b600080fd5b610118610346565b60405161012a96959493929190611066565b60405180910390f35b61013b6103a0565b60405161014891906110c7565b60405180910390f35b6101596103a6565b005b61017560048036038101906101709190611113565b6104f5565b005b610191600480360381019061018c919061116c565b610856565b60405161019e9190611199565b60405180910390f35b6101c160048036038101906101bc9190611113565b610876565b6040516101d093929190611314565b60405180910390f35b6101e16109d1565b6040516101ee9190611359565b60405180910390f35b6101ff6109f5565b60405161020c91906110c7565b60405180910390f35b61021d6109fb565b60405161022a91906110c7565b60405180910390f35b61023b610a01565b60405161024891906110c7565b60405180910390f35b610259610a0e565b6040516102669190611199565b60405180910390f35b6102896004803603810190610284919061116c565b610a21565b6040516102969190611199565b60405180910390f35b6102b960048036038101906102b49190611113565b610a41565b6040516102c7929190611374565b60405180910390f35b6102d8610afd565b6040516102e591906110c7565b60405180910390f35b6102f6610b03565b60405161030391906110c7565b60405180910390f35b610314610b09565b60405161032191906113a4565b60405180910390f35b610344600480360381019061033f919061116c565b610b97565b005b60008060008060008060008054906101000a900473ffffffffffffffffffffffffffffffffffffffff16600254600354600454600560009054906101000a900460ff16600754955095509550955095509550909192939495565b60025481565b60008054906101000a900473ffffffffffffffffffffffffffffffffffffffff1673ffffffffffffffffffffffffffffffffffffffff163373ffffffffffffffffffffffffffffffffffffffff16146103fe57600080fd5b600560009054906101000a900460ff161561044e576040517f08c379a000000000000000000000000000000000000000000000000000000000815260040161044590611412565b60405180910390fd5b6001610458610d7d565b51111561047b57620151806004546104709190611461565b6004819055506104f3565b6000600a610487610d7d565b60008151811061049a57610499611495565b5b6020026020010151815481106104b3576104b2611495565b5b9060005260206000209060030201905080600001600190816104d5919061172a565b506001600560006101000a81548160ff021916908315150217905550505b565b60008054906101000a900473ffffffffffffffffffffffffffffffffffffffff1673ffffffffffffffffffffffffffffffffffffffff163373ffffffffffffffffffffffffffffffffffffffff1603610583576040517f08c379a000000000000000000000000000000000000000000000000000000000815260040161057a9061185e565b60405180910390fd5b600860003373ffffffffffffffffffffffffffffffffffffffff1673ffffffffffffffffffffffffffffffffffffffff16815260200190815260200160002060009054906101000a900460ff1661060f576040517f08c379a0000000000000000000000000000000000000000000000000000000008152600401610606906118f0565b60405180910390fd5b600660003373ffffffffffffffffffffffffffffffffffffffff1673ffffffffffffffffffffffffffffffffffffffff16815260200190815260200160002060009054906101000a900460ff161561069c576040517f08c379a00000000000000000000000000000000000000000000000000000000081526004016106939061195c565b60405180910390fd5b600560009054906101000a900460ff16156106ec576040517f08c379a00000000000000000000000000000000000000000000000000000000081526004016106e390611412565b60405180910390fd5b600354421180156106fe575060045442105b61073d576040517f08c379a0000000000000000000000000000000000000000000000000000000008152600401610734906119c8565b60405180910390fd5b6000600a828154811061075357610752611495565b5b90600052602060002090600302019050806001016000815480929190610778906119e8565b919050555080600201339080600181540180825580915050600190039060005260206000200160009091909190916101000a81548173ffffffffffffffffffffffffffffffffffffffff021916908373ffffffffffffffffffffffffffffffffffffffff1602179055506001600660003373ffffffffffffffffffffffffffffffffffffffff1673ffffffffffffffffffffffffffffffffffffffff16815260200190815260200160002060006101000a81548160ff0219169083151502179055506007600081548092919061084d906119e8565b91905055505050565b60086020528060005260406000206000915054906101000a900460ff1681565b6060600060606000600a858154811061089257610891611495565b5b90600052602060002090600302019050806000018160010154826002018280546108bb906114f3565b80601f01602080910402602001604051908101604052809291908181526020018280546108e7906114f3565b80156109345780601f1061090957610100808354040283529160200191610934565b820191906000526020600020905b81548152906001019060200180831161091757829003601f168201915b50505050509250808054806020026020016040519081016040528092919081815260200182805480156109bc57602002820191906000526020600020905b8160009054906101000a900473ffffffffffffffffffffffffffffffffffffffff1673ffffffffffffffffffffffffffffffffffffffff1681526020019060010190808311610972575b50505050509050935093509350509193909250565b60008054906101000a900473ffffffffffffffffffffffffffffffffffffffff1681565b60095481565b60075481565b6000600a80549050905090565b600560009054906101000a900460ff1681565b60066020528060005260406000206000915054906101000a900460ff1681565b600a8181548110610a5157600080fd5b9060005260206000209060030201600091509050806000018054610a74906114f3565b80601f0160208091040260200160405190810160405280929190818152602001828054610aa0906114f3565b8015610aed5780601f10610ac257610100808354040283529160200191610aed565b820191906000526020600020905b815481529060010190602001808311610ad057829003601f168201915b5050505050908060010154905082565b60035481565b60045481565b60018054610b16906114f3565b80601f0160208091040260200160405190810160405280929190818152602001828054610b42906114f3565b8015610b8f5780601f10610b6457610100808354040283529160200191610b8f565b820191906000526020600020905b815481529060010190602001808311610b7257829003601f168201915b505050505081565b60008054906101000a900473ffffffffffffffffffffffffffffffffffffffff1673ffffffffffffffffffffffffffffffffffffffff163373ffffffffffffffffffffffffffffffffffffffff1614610bef57600080fd5b60008054906101000a900473ffffffffffffffffffffffffffffffffffffffff1673ffffffffffffffffffffffffffffffffffffffff168173ffffffffffffffffffffffffffffffffffffffff1603610c7d576040517f08c379a0000000000000000000000000000000000000000000000000000000008152600401610c7490611a7c565b60405180910390fd5b600860008273ffffffffffffffffffffffffffffffffffffffff1673ffffffffffffffffffffffffffffffffffffffff16815260200190815260200160002060009054906101000a900460ff1615610d0a576040517f08c379a0000000000000000000000000000000000000000000000000000000008152600401610d0190611ae8565b60405180910390fd5b6001600860008373ffffffffffffffffffffffffffffffffffffffff1673ffffffffffffffffffffffffffffffffffffffff16815260200190815260200160002060006101000a81548160ff02191690831515021790555060096000815480929190610d75906119e8565b919050555050565b606060008054906101000a900473ffffffffffffffffffffffffffffffffffffffff1673ffffffffffffffffffffffffffffffffffffffff163373ffffffffffffffffffffffffffffffffffffffff1614610dd757600080fd5b600060606000805b600a80549050811015610fe75783600a8281548110610e0157610e00611495565b5b9060005260206000209060030201600101541115610eb657600a8181548110610e2d57610e2c611495565b5b9060005260206000209060030201600101549350600191508167ffffffffffffffff811115610e5f57610e5e61153a565b5b604051908082528060200260200182016040528015610e8d5781602001602082028036833780820191505090505b5092508083600081518110610ea557610ea4611495565b5b602002602001018181525050610fd4565b83600a8281548110610ecb57610eca611495565b5b90600052602060002090600302016001015403610fd3578180610eed906119e8565b92505060008267ffffffffffffffff811115610f0c57610f0b61153a565b5b604051908082528060200260200182016040528015610f3a5781602001602082028036833780820191505090505b50905060005b600184610f4d9190611b08565b811015610fa157848181518110610f6757610f66611495565b5b6020026020010151828281518110610f8257610f81611495565b5b6020026020010181815250508080610f99906119e8565b915050610f40565b508181600185610fb19190611b08565b81518110610fc257610fc1611495565b5b602002602001018181525050809350505b5b8080610fdf906119e8565b915050610ddf565b5081935050505090565b600073ffffffffffffffffffffffffffffffffffffffff82169050919050565b600061101c82610ff1565b9050919050565b61102c81611011565b82525050565b6000819050919050565b61104581611032565b82525050565b60008115159050919050565b6110608161104b565b82525050565b600060c08201905061107b6000830189611023565b611088602083018861103c565b611095604083018761103c565b6110a2606083018661103c565b6110af6080830185611057565b6110bc60a083018461103c565b979650505050505050565b60006020820190506110dc600083018461103c565b92915050565b600080fd5b6110f081611032565b81146110fb57600080fd5b50565b60008135905061110d816110e7565b92915050565b600060208284031215611129576111286110e2565b5b6000611137848285016110fe565b91505092915050565b61114981611011565b811461115457600080fd5b50565b60008135905061116681611140565b92915050565b600060208284031215611182576111816110e2565b5b600061119084828501611157565b91505092915050565b60006020820190506111ae6000830184611057565b92915050565b600081519050919050565b600082825260208201905092915050565b60005b838110156111ee5780820151818401526020810190506111d3565b60008484015250505050565b6000601f19601f8301169050919050565b6000611216826111b4565b61122081856111bf565b93506112308185602086016111d0565b611239816111fa565b840191505092915050565b600081519050919050565b600082825260208201905092915050565b6000819050602082019050919050565b600061127b82610ff1565b9050919050565b61128b81611270565b82525050565b600061129d8383611282565b60208301905092915050565b6000602082019050919050565b60006112c182611244565b6112cb818561124f565b93506112d683611260565b8060005b838110156113075781516112ee8882611291565b97506112f9836112a9565b9250506001810190506112da565b5085935050505092915050565b6000606082019050818103600083015261132e818661120b565b905061133d602083018561103c565b818103604083015261134f81846112b6565b9050949350505050565b600060208201905061136e6000830184611023565b92915050565b6000604082019050818103600083015261138e818561120b565b905061139d602083018461103c565b9392505050565b600060208201905081810360008301526113be818461120b565b905092915050565b7f566f74696e672048617320456e64656400000000000000000000000000000000600082015250565b60006113fc6010836111bf565b9150611407826113c6565b602082019050919050565b6000602082019050818103600083015261142b816113ef565b9050919050565b7f4e487b7100000000000000000000000000000000000000000000000000000000600052601160045260246000fd5b600061146c82611032565b915061147783611032565b925082820190508082111561148f5761148e611432565b5b92915050565b7f4e487b7100000000000000000000000000000000000000000000000000000000600052603260045260246000fd5b7f4e487b7100000000000000000000000000000000000000000000000000000000600052602260045260246000fd5b6000600282049050600182168061150b57607f821691505b60208210810361151e5761151d6114c4565b5b50919050565b600081549050611533816114f3565b9050919050565b7f4e487b7100000000000000000000000000000000000000000000000000000000600052604160045260246000fd5b60008190508160005260206000209050919050565b60008190508160005260206000209050919050565b60006020601f8301049050919050565b600082821b905092915050565b6000600883026115e07fffffffffffffffffffffffffffffffffffffffffffffffffffffffffffffffff826115a3565b6115ea86836115a3565b95508019841693508086168417925050509392505050565b6000819050919050565b600061162761162261161d84611032565b611602565b611032565b9050919050565b6000819050919050565b6116418361160c565b61165561164d8261162e565b8484546115b0565b825550505050565b600090565b61166a61165d565b611675818484611638565b505050565b5b818110156116995761168e600082611662565b60018101905061167b565b5050565b601f8211156116de576116af81611569565b6116b884611593565b810160208510156116c7578190505b6116db6116d385611593565b83018261167a565b50505b505050565b600082821c905092915050565b6000611701600019846008026116e3565b1980831691505092915050565b600061171a83836116f0565b9150826002028217905092915050565b818103611738575050611810565b61174182611524565b67ffffffffffffffff81111561175a5761175961153a565b5b61176482546114f3565b61176f82828561169d565b6000601f83116001811461179e576000841561178c578287015490505b611796858261170e565b865550611809565b601f1984166117ac8761157e565b96506117b786611569565b60005b828110156117df578489015482556001820191506001850194506020810190506117ba565b868310156117fc57848901546117f8601f8916826116f0565b8355505b6001600288020188555050505b5050505050505b565b7f4d616e616765722043616e204e6f7420566f7465000000000000000000000000600082015250565b60006118486014836111bf565b915061185382611812565b602082019050919050565b600060208201905081810360008301526118778161183b565b9050919050565b7f596f752043616e6e6f742054616b65205061727420696e205468697320566f7460008201527f6500000000000000000000000000000000000000000000000000000000000000602082015250565b60006118da6021836111bf565b91506118e58261187e565b604082019050919050565b60006020820190508181036000830152611909816118cd565b9050919050565b7f596f752043616e204f6e6c7920566f7465204f6e636500000000000000000000600082015250565b60006119466016836111bf565b915061195182611910565b602082019050919050565b6000602082019050818103600083015261197581611939565b9050919050565b7f596f752043686f7365206174205468652057726f6e672054696d650000000000600082015250565b60006119b2601b836111bf565b91506119bd8261197c565b602082019050919050565b600060208201905081810360008301526119e1816119a5565b9050919050565b60006119f382611032565b91507fffffffffffffffffffffffffffffffffffffffffffffffffffffffffffffffff8203611a2557611a24611432565b5b600182019050919050565b7f4d616e616765722043616e6e6f7420426520566f746572730000000000000000600082015250565b6000611a666018836111bf565b9150611a7182611a30565b602082019050919050565b60006020820190508181036000830152611a9581611a59565b9050919050565b7f54686973204164647265737320697320416c7265616479206120566f74657220600082015250565b6000611ad26020836111bf565b9150611add82611a9c565b602082019050919050565b60006020820190508181036000830152611b0181611ac5565b9050919050565b6000611b1382611032565b9150611b1e83611032565b9250828203905081811115611b3657611b35611432565b5b9291505056fea264697066735822122098cb062c9d1496b67122b34f57ef5e717a02fd322dbea97cc0f888f01da2a43564736f6c63430008120033","opcodes":"PUSH1 0x80 PUSH1 0x40 MSTORE CALLVALUE DUP1 ISZERO PUSH3 0x11 JUMPI PUSH1 0x0 DUP1 REVERT JUMPDEST POP PUSH1 0x40 MLOAD PUSH3 0x2667 CODESIZE SUB DUP1 PUSH3 0x2667 DUP4 CODECOPY DUP2 DUP2 ADD PUSH1 0x40 MSTORE DUP2 ADD SWAP1 PUSH3 0x37 SWAP2 SWAP1 PUSH3 0x478 JUMP JUMPDEST DUP1 PUSH1 0x0 DUP1 PUSH2 0x100 EXP DUP2 SLOAD DUP2 PUSH20 0xFFFFFFFFFFFFFFFFFFFFFFFFFFFFFFFFFFFFFFFF MUL NOT AND SWAP1 DUP4 PUSH20 0xFFFFFFFFFFFFFFFFFFFFFFFFFFFFFFFFFFFFFFFF AND MUL OR SWAP1 SSTORE POP DUP4 PUSH1 0x2 DUP2 SWAP1 SSTORE POP DUP3 PUSH1 0x3 DUP2 SWAP1 SSTORE POP DUP2 PUSH1 0x4 DUP2 SWAP1 SSTORE POP PUSH1 0x0 PUSH1 0x1 SWAP1 POP JUMPDEST PUSH1 0x2 SLOAD DUP2 GT PUSH3 0x18F JUMPI PUSH1 0x0 PUSH1 0xA PUSH1 0x1 DUP2 PUSH1 0x1 DUP2 SLOAD ADD DUP1 DUP3 SSTORE DUP1 SWAP2 POP POP SUB SWAP1 PUSH1 0x0 MSTORE PUSH1 0x20 PUSH1 0x0 KECCAK256 SWAP1 PUSH1 0x3 MUL ADD SWAP1 POP PUSH3 0xD2 DUP3 PUSH3 0x19A PUSH1 0x20 SHL PUSH1 0x20 SHR JUMP JUMPDEST PUSH1 0x40 MLOAD PUSH1 0x20 ADD PUSH3 0xE4 SWAP2 SWAP1 PUSH3 0x5B3 JUMP JUMPDEST PUSH1 0x40 MLOAD PUSH1 0x20 DUP2 DUP4 SUB SUB DUP2 MSTORE SWAP1 PUSH1 0x40 MSTORE DUP2 PUSH1 0x0 ADD SWAP1 DUP2 PUSH3 0x105 SWAP2 SWAP1 PUSH3 0x83E JUMP JUMPDEST POP PUSH1 0x0 DUP2 PUSH1 0x1 ADD DUP2 SWAP1 SSTORE POP PUSH1 0x0 PUSH8 0xFFFFFFFFFFFFFFFF DUP2 GT ISZERO PUSH3 0x12E JUMPI PUSH3 0x12D PUSH3 0x5D9 JUMP JUMPDEST JUMPDEST PUSH1 0x40 MLOAD SWAP1 DUP1 DUP3 MSTORE DUP1 PUSH1 0x20 MUL PUSH1 0x20 ADD DUP3 ADD PUSH1 0x40 MSTORE DUP1 ISZERO PUSH3 0x15D JUMPI DUP2 PUSH1 0x20 ADD PUSH1 0x20 DUP3 MUL DUP1 CALLDATASIZE DUP4 CALLDATACOPY DUP1 DUP3 ADD SWAP2 POP POP SWAP1 POP JUMPDEST POP DUP2 PUSH1 0x2 ADD SWAP1 DUP1 MLOAD SWAP1 PUSH1 0x20 ADD SWAP1 PUSH3 0x177 SWAP3 SWAP2 SWAP1 PUSH3 0x325 JUMP JUMPDEST POP POP DUP1 DUP1 PUSH3 0x186 SWAP1 PUSH3 0x954 JUMP JUMPDEST SWAP2 POP POP PUSH3 0x93 JUMP JUMPDEST POP POP POP POP POP PUSH3 0xAE5 JUMP JUMPDEST PUSH1 0x60 PUSH1 0x0 DUP3 SUB PUSH3 0x1E3 JUMPI PUSH1 0x40 MLOAD DUP1 PUSH1 0x40 ADD PUSH1 0x40 MSTORE DUP1 PUSH1 0x1 DUP2 MSTORE PUSH1 0x20 ADD PUSH32 0x3000000000000000000000000000000000000000000000000000000000000000 DUP2 MSTORE POP SWAP1 POP PUSH3 0x320 JUMP JUMPDEST PUSH1 0x0 DUP3 SWAP1 POP PUSH1 0x0 JUMPDEST PUSH1 0x0 DUP3 EQ PUSH3 0x21B JUMPI DUP1 DUP1 PUSH3 0x201 SWAP1 PUSH3 0x954 JUMP JUMPDEST SWAP2 POP POP PUSH1 0xA DUP3 PUSH3 0x213 SWAP2 SWAP1 PUSH3 0x9D0 JUMP JUMPDEST SWAP2 POP PUSH3 0x1EB JUMP JUMPDEST PUSH1 0x0 DUP2 PUSH8 0xFFFFFFFFFFFFFFFF DUP2 GT ISZERO PUSH3 0x23A JUMPI PUSH3 0x239 PUSH3 0x5D9 JUMP JUMPDEST JUMPDEST PUSH1 0x40 MLOAD SWAP1 DUP1 DUP3 MSTORE DUP1 PUSH1 0x1F ADD PUSH1 0x1F NOT AND PUSH1 0x20 ADD DUP3 ADD PUSH1 0x40 MSTORE DUP1 ISZERO PUSH3 0x26D JUMPI DUP2 PUSH1 0x20 ADD PUSH1 0x1 DUP3 MUL DUP1 CALLDATASIZE DUP4 CALLDATACOPY DUP1 DUP3 ADD SWAP2 POP POP SWAP1 POP JUMPDEST POP SWAP1 POP PUSH1 0x0 DUP3 SWAP1 POP JUMPDEST PUSH1 0x0 DUP7 EQ PUSH3 0x318 JUMPI PUSH1 0x1 DUP2 PUSH3 0x28E SWAP2 SWAP1 PUSH3 0xA08 JUMP JUMPDEST SWAP1 POP PUSH1 0x0 PUSH1 0xA DUP8 PUSH3 0x2A1 SWAP2 SWAP1 PUSH3 0xA43 JUMP JUMPDEST PUSH1 0x30 PUSH3 0x2AF SWAP2 SWAP1 PUSH3 0xA7B JUMP JUMPDEST SWAP1 POP PUSH1 0x0 DUP2 PUSH1 0xF8 SHL SWAP1 POP DUP1 DUP5 DUP5 DUP2 MLOAD DUP2 LT PUSH3 0x2D0 JUMPI PUSH3 0x2CF PUSH3 0xAB6 JUMP JUMPDEST JUMPDEST PUSH1 0x20 ADD ADD SWAP1 PUSH31 0xFFFFFFFFFFFFFFFFFFFFFFFFFFFFFFFFFFFFFFFFFFFFFFFFFFFFFFFFFFFFFF NOT AND SWAP1 DUP2 PUSH1 0x0 BYTE SWAP1 MSTORE8 POP PUSH1 0xA DUP9 PUSH3 0x30E SWAP2 SWAP1 PUSH3 0x9D0 JUMP JUMPDEST SWAP8 POP POP POP PUSH3 0x276 JUMP JUMPDEST DUP2 SWAP5 POP POP POP POP POP JUMPDEST SWAP2 SWAP1 POP JUMP JUMPDEST DUP3 DUP1 SLOAD DUP3 DUP3 SSTORE SWAP1 PUSH1 0x0 MSTORE PUSH1 0x20 PUSH1 0x0 KECCAK256 SWAP1 DUP2 ADD SWAP3 DUP3 ISZERO PUSH3 0x3A1 JUMPI SWAP2 PUSH1 0x20 MUL DUP3 ADD JUMPDEST DUP3 DUP2 GT ISZERO PUSH3 0x3A0 JUMPI DUP3 MLOAD DUP3 PUSH1 0x0 PUSH2 0x100 EXP DUP2 SLOAD DUP2 PUSH20 0xFFFFFFFFFFFFFFFFFFFFFFFFFFFFFFFFFFFFFFFF MUL NOT AND SWAP1 DUP4 PUSH20 0xFFFFFFFFFFFFFFFFFFFFFFFFFFFFFFFFFFFFFFFF AND MUL OR SWAP1 SSTORE POP SWAP2 PUSH1 0x20 ADD SWAP2 SWAP1 PUSH1 0x1 ADD SWAP1 PUSH3 0x346 JUMP JUMPDEST JUMPDEST POP SWAP1 POP PUSH3 0x3B0 SWAP2 SWAP1 PUSH3 0x3B4 JUMP JUMPDEST POP SWAP1 JUMP JUMPDEST JUMPDEST DUP1 DUP3 GT ISZERO PUSH3 0x3CF JUMPI PUSH1 0x0 DUP2 PUSH1 0x0 SWAP1 SSTORE POP PUSH1 0x1 ADD PUSH3 0x3B5 JUMP JUMPDEST POP SWAP1 JUMP JUMPDEST PUSH1 0x0 DUP1 REVERT JUMPDEST PUSH1 0x0 DUP2 SWAP1 POP SWAP2 SWAP1 POP JUMP JUMPDEST PUSH3 0x3ED DUP2 PUSH3 0x3D8 JUMP JUMPDEST DUP2 EQ PUSH3 0x3F9 JUMPI PUSH1 0x0 DUP1 REVERT JUMPDEST POP JUMP JUMPDEST PUSH1 0x0 DUP2 MLOAD SWAP1 POP PUSH3 0x40D DUP2 PUSH3 0x3E2 JUMP JUMPDEST SWAP3 SWAP2 POP POP JUMP JUMPDEST PUSH1 0x0 PUSH20 0xFFFFFFFFFFFFFFFFFFFFFFFFFFFFFFFFFFFFFFFF DUP3 AND SWAP1 POP SWAP2 SWAP1 POP JUMP JUMPDEST PUSH1 0x0 PUSH3 0x440 DUP3 PUSH3 0x413 JUMP JUMPDEST SWAP1 POP SWAP2 SWAP1 POP JUMP JUMPDEST PUSH3 0x452 DUP2 PUSH3 0x433 JUMP JUMPDEST DUP2 EQ PUSH3 0x45E JUMPI PUSH1 0x0 DUP1 REVERT JUMPDEST POP JUMP JUMPDEST PUSH1 0x0 DUP2 MLOAD SWAP1 POP PUSH3 0x472 DUP2 PUSH3 0x447 JUMP JUMPDEST SWAP3 SWAP2 POP POP JUMP JUMPDEST PUSH1 0x0 DUP1 PUSH1 0x0 DUP1 PUSH1 0x80 DUP6 DUP8 SUB SLT ISZERO PUSH3 0x495 JUMPI PUSH3 0x494 PUSH3 0x3D3 JUMP JUMPDEST JUMPDEST PUSH1 0x0 PUSH3 0x4A5 DUP8 DUP3 DUP9 ADD PUSH3 0x3FC JUMP JUMPDEST SWAP5 POP POP PUSH1 0x20 PUSH3 0x4B8 DUP8 DUP3 DUP9 ADD PUSH3 0x3FC JUMP JUMPDEST SWAP4 POP POP PUSH1 0x40 PUSH3 0x4CB DUP8 DUP3 DUP9 ADD PUSH3 0x3FC JUMP JUMPDEST SWAP3 POP POP PUSH1 0x60 PUSH3 0x4DE DUP8 DUP3 DUP9 ADD PUSH3 0x461 JUMP JUMPDEST SWAP2 POP POP SWAP3 SWAP6 SWAP2 SWAP5 POP SWAP3 POP JUMP JUMPDEST PUSH1 0x0 DUP2 SWAP1 POP SWAP3 SWAP2 POP POP JUMP JUMPDEST PUSH32 0x50696C6968616E20000000000000000000000000000000000000000000000000 PUSH1 0x0 DUP3 ADD MSTORE POP JUMP JUMPDEST PUSH1 0x0 PUSH3 0x52D PUSH1 0x8 DUP4 PUSH3 0x4EA JUMP JUMPDEST SWAP2 POP PUSH3 0x53A DUP3 PUSH3 0x4F5 JUMP JUMPDEST PUSH1 0x8 DUP3 ADD SWAP1 POP SWAP2 SWAP1 POP JUMP JUMPDEST PUSH1 0x0 DUP2 MLOAD SWAP1 POP SWAP2 SWAP1 POP JUMP JUMPDEST PUSH1 0x0 JUMPDEST DUP4 DUP2 LT ISZERO PUSH3 0x570 JUMPI DUP1 DUP3 ADD MLOAD DUP2 DUP5 ADD MSTORE PUSH1 0x20 DUP2 ADD SWAP1 POP PUSH3 0x553 JUMP JUMPDEST PUSH1 0x0 DUP5 DUP5 ADD MSTORE POP POP POP POP JUMP JUMPDEST PUSH1 0x0 PUSH3 0x589 DUP3 PUSH3 0x545 JUMP JUMPDEST PUSH3 0x595 DUP2 DUP6 PUSH3 0x4EA JUMP JUMPDEST SWAP4 POP PUSH3 0x5A7 DUP2 DUP6 PUSH1 0x20 DUP7 ADD PUSH3 0x550 JUMP JUMPDEST DUP1 DUP5 ADD SWAP2 POP POP SWAP3 SWAP2 POP POP JUMP JUMPDEST PUSH1 0x0 PUSH3 0x5C0 DUP3 PUSH3 0x51E JUMP JUMPDEST SWAP2 POP PUSH3 0x5CE DUP3 DUP5 PUSH3 0x57C JUMP JUMPDEST SWAP2 POP DUP2 SWAP1 POP SWAP3 SWAP2 POP POP JUMP JUMPDEST PUSH32 0x4E487B7100000000000000000000000000000000000000000000000000000000 PUSH1 0x0 MSTORE PUSH1 0x41 PUSH1 0x4 MSTORE PUSH1 0x24 PUSH1 0x0 REVERT JUMPDEST PUSH32 0x4E487B7100000000000000000000000000000000000000000000000000000000 PUSH1 0x0 MSTORE PUSH1 0x22 PUSH1 0x4 MSTORE PUSH1 0x24 PUSH1 0x0 REVERT JUMPDEST PUSH1 0x0 PUSH1 0x2 DUP3 DIV SWAP1 POP PUSH1 0x1 DUP3 AND DUP1 PUSH3 0x650 JUMPI PUSH1 0x7F DUP3 AND SWAP2 POP JUMPDEST PUSH1 0x20 DUP3 LT DUP2 SUB PUSH3 0x666 JUMPI PUSH3 0x665 PUSH3 0x608 JUMP JUMPDEST JUMPDEST POP SWAP2 SWAP1 POP JUMP JUMPDEST PUSH1 0x0 DUP2 SWAP1 POP DUP2 PUSH1 0x0 MSTORE PUSH1 0x20 PUSH1 0x0 KECCAK256 SWAP1 POP SWAP2 SWAP1 POP JUMP JUMPDEST PUSH1 0x0 PUSH1 0x20 PUSH1 0x1F DUP4 ADD DIV SWAP1 POP SWAP2 SWAP1 POP JUMP JUMPDEST PUSH1 0x0 DUP3 DUP3 SHL SWAP1 POP SWAP3 SWAP2 POP POP JUMP JUMPDEST PUSH1 0x0 PUSH1 0x8 DUP4 MUL PUSH3 0x6D0 PUSH32 0xFFFFFFFFFFFFFFFFFFFFFFFFFFFFFFFFFFFFFFFFFFFFFFFFFFFFFFFFFFFFFFFF DUP3 PUSH3 0x691 JUMP JUMPDEST PUSH3 0x6DC DUP7 DUP4 PUSH3 0x691 JUMP JUMPDEST SWAP6 POP DUP1 NOT DUP5 AND SWAP4 POP DUP1 DUP7 AND DUP5 OR SWAP3 POP POP POP SWAP4 SWAP3 POP POP POP JUMP JUMPDEST PUSH1 0x0 DUP2 SWAP1 POP SWAP2 SWAP1 POP JUMP JUMPDEST PUSH1 0x0 PUSH3 0x71F PUSH3 0x719 PUSH3 0x713 DUP5 PUSH3 0x3D8 JUMP JUMPDEST PUSH3 0x6F4 JUMP JUMPDEST PUSH3 0x3D8 JUMP JUMPDEST SWAP1 POP SWAP2 SWAP1 POP JUMP JUMPDEST PUSH1 0x0 DUP2 SWAP1 POP SWAP2 SWAP1 POP JUMP JUMPDEST PUSH3 0x73B DUP4 PUSH3 0x6FE JUMP JUMPDEST PUSH3 0x753 PUSH3 0x74A DUP3 PUSH3 0x726 JUMP JUMPDEST DUP5 DUP5 SLOAD PUSH3 0x69E JUMP JUMPDEST DUP3 SSTORE POP POP POP POP JUMP JUMPDEST PUSH1 0x0 SWAP1 JUMP JUMPDEST PUSH3 0x76A PUSH3 0x75B JUMP JUMPDEST PUSH3 0x777 DUP2 DUP5 DUP5 PUSH3 0x730 JUMP JUMPDEST POP POP POP JUMP JUMPDEST JUMPDEST DUP2 DUP2 LT ISZERO PUSH3 0x79F JUMPI PUSH3 0x793 PUSH1 0x0 DUP3 PUSH3 0x760 JUMP JUMPDEST PUSH1 0x1 DUP2 ADD SWAP1 POP PUSH3 0x77D JUMP JUMPDEST POP POP JUMP JUMPDEST PUSH1 0x1F DUP3 GT ISZERO PUSH3 0x7EE JUMPI PUSH3 0x7B8 DUP2 PUSH3 0x66C JUMP JUMPDEST PUSH3 0x7C3 DUP5 PUSH3 0x681 JUMP JUMPDEST DUP2 ADD PUSH1 0x20 DUP6 LT ISZERO PUSH3 0x7D3 JUMPI DUP2 SWAP1 POP JUMPDEST PUSH3 0x7EB PUSH3 0x7E2 DUP6 PUSH3 0x681 JUMP JUMPDEST DUP4 ADD DUP3 PUSH3 0x77C JUMP JUMPDEST POP POP JUMPDEST POP POP POP JUMP JUMPDEST PUSH1 0x0 DUP3 DUP3 SHR SWAP1 POP SWAP3 SWAP2 POP POP JUMP JUMPDEST PUSH1 0x0 PUSH3 0x813 PUSH1 0x0 NOT DUP5 PUSH1 0x8 MUL PUSH3 0x7F3 JUMP JUMPDEST NOT DUP1 DUP4 AND SWAP2 POP POP SWAP3 SWAP2 POP POP JUMP JUMPDEST PUSH1 0x0 PUSH3 0x82E DUP4 DUP4 PUSH3 0x800 JUMP JUMPDEST SWAP2 POP DUP3 PUSH1 0x2 MUL DUP3 OR SWAP1 POP SWAP3 SWAP2 POP POP JUMP JUMPDEST PUSH3 0x849 DUP3 PUSH3 0x545 JUMP JUMPDEST PUSH8 0xFFFFFFFFFFFFFFFF DUP2 GT ISZERO PUSH3 0x865 JUMPI PUSH3 0x864 PUSH3 0x5D9 JUMP JUMPDEST JUMPDEST PUSH3 0x871 DUP3 SLOAD PUSH3 0x637 JUMP JUMPDEST PUSH3 0x87E DUP3 DUP3 DUP6 PUSH3 0x7A3 JUMP JUMPDEST PUSH1 0x0 PUSH1 0x20 SWAP1 POP PUSH1 0x1F DUP4 GT PUSH1 0x1 DUP2 EQ PUSH3 0x8B6 JUMPI PUSH1 0x0 DUP5 ISZERO PUSH3 0x8A1 JUMPI DUP3 DUP8 ADD MLOAD SWAP1 POP JUMPDEST PUSH3 0x8AD DUP6 DUP3 PUSH3 0x820 JUMP JUMPDEST DUP7 SSTORE POP PUSH3 0x91D JUMP JUMPDEST PUSH1 0x1F NOT DUP5 AND PUSH3 0x8C6 DUP7 PUSH3 0x66C JUMP JUMPDEST PUSH1 0x0 JUMPDEST DUP3 DUP2 LT ISZERO PUSH3 0x8F0 JUMPI DUP5 DUP10 ADD MLOAD DUP3 SSTORE PUSH1 0x1 DUP3 ADD SWAP2 POP PUSH1 0x20 DUP6 ADD SWAP5 POP PUSH1 0x20 DUP2 ADD SWAP1 POP PUSH3 0x8C9 JUMP JUMPDEST DUP7 DUP4 LT ISZERO PUSH3 0x910 JUMPI DUP5 DUP10 ADD MLOAD PUSH3 0x90C PUSH1 0x1F DUP10 AND DUP3 PUSH3 0x800 JUMP JUMPDEST DUP4 SSTORE POP JUMPDEST PUSH1 0x1 PUSH1 0x2 DUP9 MUL ADD DUP9 SSTORE POP POP POP JUMPDEST POP POP POP POP POP POP JUMP JUMPDEST PUSH32 0x4E487B7100000000000000000000000000000000000000000000000000000000 PUSH1 0x0 MSTORE PUSH1 0x11 PUSH1 0x4 MSTORE PUSH1 0x24 PUSH1 0x0 REVERT JUMPDEST PUSH1 0x0 PUSH3 0x961 DUP3 PUSH3 0x3D8 JUMP JUMPDEST SWAP2 POP PUSH32 0xFFFFFFFFFFFFFFFFFFFFFFFFFFFFFFFFFFFFFFFFFFFFFFFFFFFFFFFFFFFFFFFF DUP3 SUB PUSH3 0x996 JUMPI PUSH3 0x995 PUSH3 0x925 JUMP JUMPDEST JUMPDEST PUSH1 0x1 DUP3 ADD SWAP1 POP SWAP2 SWAP1 POP JUMP JUMPDEST PUSH32 0x4E487B7100000000000000000000000000000000000000000000000000000000 PUSH1 0x0 MSTORE PUSH1 0x12 PUSH1 0x4 MSTORE PUSH1 0x24 PUSH1 0x0 REVERT JUMPDEST PUSH1 0x0 PUSH3 0x9DD DUP3 PUSH3 0x3D8 JUMP JUMPDEST SWAP2 POP PUSH3 0x9EA DUP4 PUSH3 0x3D8 JUMP JUMPDEST SWAP3 POP DUP3 PUSH3 0x9FD JUMPI PUSH3 0x9FC PUSH3 0x9A1 JUMP JUMPDEST JUMPDEST DUP3 DUP3 DIV SWAP1 POP SWAP3 SWAP2 POP POP JUMP JUMPDEST PUSH1 0x0 PUSH3 0xA15 DUP3 PUSH3 0x3D8 JUMP JUMPDEST SWAP2 POP PUSH3 0xA22 DUP4 PUSH3 0x3D8 JUMP JUMPDEST SWAP3 POP DUP3 DUP3 SUB SWAP1 POP DUP2 DUP2 GT ISZERO PUSH3 0xA3D JUMPI PUSH3 0xA3C PUSH3 0x925 JUMP JUMPDEST JUMPDEST SWAP3 SWAP2 POP POP JUMP JUMPDEST PUSH1 0x0 PUSH3 0xA50 DUP3 PUSH3 0x3D8 JUMP JUMPDEST SWAP2 POP PUSH3 0xA5D DUP4 PUSH3 0x3D8 JUMP JUMPDEST SWAP3 POP DUP3 PUSH3 0xA70 JUMPI PUSH3 0xA6F PUSH3 0x9A1 JUMP JUMPDEST JUMPDEST DUP3 DUP3 MOD SWAP1 POP SWAP3 SWAP2 POP POP JUMP JUMPDEST PUSH1 0x0 PUSH3 0xA88 DUP3 PUSH3 0x3D8 JUMP JUMPDEST SWAP2 POP PUSH3 0xA95 DUP4 PUSH3 0x3D8 JUMP JUMPDEST SWAP3 POP DUP3 DUP3 ADD SWAP1 POP DUP1 DUP3 GT ISZERO PUSH3 0xAB0 JUMPI PUSH3 0xAAF PUSH3 0x925 JUMP JUMPDEST JUMPDEST SWAP3 SWAP2 POP POP JUMP JUMPDEST PUSH32 0x4E487B7100000000000000000000000000000000000000000000000000000000 PUSH1 0x0 MSTORE PUSH1 0x32 PUSH1 0x4 MSTORE PUSH1 0x24 PUSH1 0x0 REVERT JUMPDEST PUSH2 0x1B72 DUP1 PUSH3 0xAF5 PUSH1 0x0 CODECOPY PUSH1 0x0 RETURN INVALID PUSH1 0x80 PUSH1 0x40 MSTORE CALLVALUE DUP1 ISZERO PUSH2 0x10 JUMPI PUSH1 0x0 DUP1 REVERT JUMPDEST POP PUSH1 0x4 CALLDATASIZE LT PUSH2 0x10B JUMPI PUSH1 0x0 CALLDATALOAD PUSH1 0xE0 SHR DUP1 PUSH4 0x78622C5D GT PUSH2 0xA2 JUMPI DUP1 PUSH4 0xA50239EE GT PUSH2 0x71 JUMPI DUP1 PUSH4 0xA50239EE EQ PUSH2 0x29F JUMPI DUP1 PUSH4 0xA944B7A6 EQ PUSH2 0x2D0 JUMPI DUP1 PUSH4 0xC24A0F8B EQ PUSH2 0x2EE JUMPI DUP1 PUSH4 0xDFBF53AE EQ PUSH2 0x30C JUMPI DUP1 PUSH4 0xF9BC8589 EQ PUSH2 0x32A JUMPI PUSH2 0x10B JUMP JUMPDEST DUP1 PUSH4 0x78622C5D EQ PUSH2 0x215 JUMPI DUP1 PUSH4 0x9C2AAB5E EQ PUSH2 0x233 JUMPI DUP1 PUSH4 0x9D9A7FE9 EQ PUSH2 0x251 JUMPI DUP1 PUSH4 0xA3D45314 EQ PUSH2 0x26F JUMPI PUSH2 0x10B JUMP JUMPDEST DUP1 PUSH4 0x255ADFD4 GT PUSH2 0xDE JUMPI DUP1 PUSH4 0x255ADFD4 EQ PUSH2 0x177 JUMPI DUP1 PUSH4 0x3DDE87B4 EQ PUSH2 0x1A7 JUMPI DUP1 PUSH4 0x481C6A75 EQ PUSH2 0x1D9 JUMPI DUP1 PUSH4 0x70BABC8A EQ PUSH2 0x1F7 JUMPI PUSH2 0x10B JUMP JUMPDEST DUP1 PUSH4 0x1442F65A EQ PUSH2 0x110 JUMPI DUP1 PUSH4 0x1632C03F EQ PUSH2 0x133 JUMPI DUP1 PUSH4 0x2134F7F0 EQ PUSH2 0x151 JUMPI DUP1 PUSH4 0x23822A74 EQ PUSH2 0x15B JUMPI JUMPDEST PUSH1 0x0 DUP1 REVERT JUMPDEST PUSH2 0x118 PUSH2 0x346 JUMP JUMPDEST PUSH1 0x40 MLOAD PUSH2 0x12A SWAP7 SWAP6 SWAP5 SWAP4 SWAP3 SWAP2 SWAP1 PUSH2 0x1066 JUMP JUMPDEST PUSH1 0x40 MLOAD DUP1 SWAP2 SUB SWAP1 RETURN JUMPDEST PUSH2 0x13B PUSH2 0x3A0 JUMP JUMPDEST PUSH1 0x40 MLOAD PUSH2 0x148 SWAP2 SWAP1 PUSH2 0x10C7 JUMP JUMPDEST PUSH1 0x40 MLOAD DUP1 SWAP2 SUB SWAP1 RETURN JUMPDEST PUSH2 0x159 PUSH2 0x3A6 JUMP JUMPDEST STOP JUMPDEST PUSH2 0x175 PUSH1 0x4 DUP1 CALLDATASIZE SUB DUP2 ADD SWAP1 PUSH2 0x170 SWAP2 SWAP1 PUSH2 0x1113 JUMP JUMPDEST PUSH2 0x4F5 JUMP JUMPDEST STOP JUMPDEST PUSH2 0x191 PUSH1 0x4 DUP1 CALLDATASIZE SUB DUP2 ADD SWAP1 PUSH2 0x18C SWAP2 SWAP1 PUSH2 0x116C JUMP JUMPDEST PUSH2 0x856 JUMP JUMPDEST PUSH1 0x40 MLOAD PUSH2 0x19E SWAP2 SWAP1 PUSH2 0x1199 JUMP JUMPDEST PUSH1 0x40 MLOAD DUP1 SWAP2 SUB SWAP1 RETURN JUMPDEST PUSH2 0x1C1 PUSH1 0x4 DUP1 CALLDATASIZE SUB DUP2 ADD SWAP1 PUSH2 0x1BC SWAP2 SWAP1 PUSH2 0x1113 JUMP JUMPDEST PUSH2 0x876 JUMP JUMPDEST PUSH1 0x40 MLOAD PUSH2 0x1D0 SWAP4 SWAP3 SWAP2 SWAP1 PUSH2 0x1314 JUMP JUMPDEST PUSH1 0x40 MLOAD DUP1 SWAP2 SUB SWAP1 RETURN JUMPDEST PUSH2 0x1E1 PUSH2 0x9D1 JUMP JUMPDEST PUSH1 0x40 MLOAD PUSH2 0x1EE SWAP2 SWAP1 PUSH2 0x1359 JUMP JUMPDEST PUSH1 0x40 MLOAD DUP1 SWAP2 SUB SWAP1 RETURN JUMPDEST PUSH2 0x1FF PUSH2 0x9F5 JUMP JUMPDEST PUSH1 0x40 MLOAD PUSH2 0x20C SWAP2 SWAP1 PUSH2 0x10C7 JUMP JUMPDEST PUSH1 0x40 MLOAD DUP1 SWAP2 SUB SWAP1 RETURN JUMPDEST PUSH2 0x21D PUSH2 0x9FB JUMP JUMPDEST PUSH1 0x40 MLOAD PUSH2 0x22A SWAP2 SWAP1 PUSH2 0x10C7 JUMP JUMPDEST PUSH1 0x40 MLOAD DUP1 SWAP2 SUB SWAP1 RETURN JUMPDEST PUSH2 0x23B PUSH2 0xA01 JUMP JUMPDEST PUSH1 0x40 MLOAD PUSH2 0x248 SWAP2 SWAP1 PUSH2 0x10C7 JUMP JUMPDEST PUSH1 0x40 MLOAD DUP1 SWAP2 SUB SWAP1 RETURN JUMPDEST PUSH2 0x259 PUSH2 0xA0E JUMP JUMPDEST PUSH1 0x40 MLOAD PUSH2 0x266 SWAP2 SWAP1 PUSH2 0x1199 JUMP JUMPDEST PUSH1 0x40 MLOAD DUP1 SWAP2 SUB SWAP1 RETURN JUMPDEST PUSH2 0x289 PUSH1 0x4 DUP1 CALLDATASIZE SUB DUP2 ADD SWAP1 PUSH2 0x284 SWAP2 SWAP1 PUSH2 0x116C JUMP JUMPDEST PUSH2 0xA21 JUMP JUMPDEST PUSH1 0x40 MLOAD PUSH2 0x296 SWAP2 SWAP1 PUSH2 0x1199 JUMP JUMPDEST PUSH1 0x40 MLOAD DUP1 SWAP2 SUB SWAP1 RETURN JUMPDEST PUSH2 0x2B9 PUSH1 0x4 DUP1 CALLDATASIZE SUB DUP2 ADD SWAP1 PUSH2 0x2B4 SWAP2 SWAP1 PUSH2 0x1113 JUMP JUMPDEST PUSH2 0xA41 JUMP JUMPDEST PUSH1 0x40 MLOAD PUSH2 0x2C7 SWAP3 SWAP2 SWAP1 PUSH2 0x1374 JUMP JUMPDEST PUSH1 0x40 MLOAD DUP1 SWAP2 SUB SWAP1 RETURN JUMPDEST PUSH2 0x2D8 PUSH2 0xAFD JUMP JUMPDEST PUSH1 0x40 MLOAD PUSH2 0x2E5 SWAP2 SWAP1 PUSH2 0x10C7 JUMP JUMPDEST PUSH1 0x40 MLOAD DUP1 SWAP2 SUB SWAP1 RETURN JUMPDEST PUSH2 0x2F6 PUSH2 0xB03 JUMP JUMPDEST PUSH1 0x40 MLOAD PUSH2 0x303 SWAP2 SWAP1 PUSH2 0x10C7 JUMP JUMPDEST PUSH1 0x40 MLOAD DUP1 SWAP2 SUB SWAP1 RETURN JUMPDEST PUSH2 0x314 PUSH2 0xB09 JUMP JUMPDEST PUSH1 0x40 MLOAD PUSH2 0x321 SWAP2 SWAP1 PUSH2 0x13A4 JUMP JUMPDEST PUSH1 0x40 MLOAD DUP1 SWAP2 SUB SWAP1 RETURN JUMPDEST PUSH2 0x344 PUSH1 0x4 DUP1 CALLDATASIZE SUB DUP2 ADD SWAP1 PUSH2 0x33F SWAP2 SWAP1 PUSH2 0x116C JUMP JUMPDEST PUSH2 0xB97 JUMP JUMPDEST STOP JUMPDEST PUSH1 0x0 DUP1 PUSH1 0x0 DUP1 PUSH1 0x0 DUP1 PUSH1 0x0 DUP1 SLOAD SWAP1 PUSH2 0x100 EXP SWAP1 DIV PUSH20 0xFFFFFFFFFFFFFFFFFFFFFFFFFFFFFFFFFFFFFFFF AND PUSH1 0x2 SLOAD PUSH1 0x3 SLOAD PUSH1 0x4 SLOAD PUSH1 0x5 PUSH1 0x0 SWAP1 SLOAD SWAP1 PUSH2 0x100 EXP SWAP1 DIV PUSH1 0xFF AND PUSH1 0x7 SLOAD SWAP6 POP SWAP6 POP SWAP6 POP SWAP6 POP SWAP6 POP SWAP6 POP SWAP1 SWAP2 SWAP3 SWAP4 SWAP5 SWAP6 JUMP JUMPDEST PUSH1 0x2 SLOAD DUP2 JUMP JUMPDEST PUSH1 0x0 DUP1 SLOAD SWAP1 PUSH2 0x100 EXP SWAP1 DIV PUSH20 0xFFFFFFFFFFFFFFFFFFFFFFFFFFFFFFFFFFFFFFFF AND PUSH20 0xFFFFFFFFFFFFFFFFFFFFFFFFFFFFFFFFFFFFFFFF AND CALLER PUSH20 0xFFFFFFFFFFFFFFFFFFFFFFFFFFFFFFFFFFFFFFFF AND EQ PUSH2 0x3FE JUMPI PUSH1 0x0 DUP1 REVERT JUMPDEST PUSH1 0x5 PUSH1 0x0 SWAP1 SLOAD SWAP1 PUSH2 0x100 EXP SWAP1 DIV PUSH1 0xFF AND ISZERO PUSH2 0x44E JUMPI PUSH1 0x40 MLOAD PUSH32 0x8C379A000000000000000000000000000000000000000000000000000000000 DUP2 MSTORE PUSH1 0x4 ADD PUSH2 0x445 SWAP1 PUSH2 0x1412 JUMP JUMPDEST PUSH1 0x40 MLOAD DUP1 SWAP2 SUB SWAP1 REVERT JUMPDEST PUSH1 0x1 PUSH2 0x458 PUSH2 0xD7D JUMP JUMPDEST MLOAD GT ISZERO PUSH2 0x47B JUMPI PUSH3 0x15180 PUSH1 0x4 SLOAD PUSH2 0x470 SWAP2 SWAP1 PUSH2 0x1461 JUMP JUMPDEST PUSH1 0x4 DUP2 SWAP1 SSTORE POP PUSH2 0x4F3 JUMP JUMPDEST PUSH1 0x0 PUSH1 0xA PUSH2 0x487 PUSH2 0xD7D JUMP JUMPDEST PUSH1 0x0 DUP2 MLOAD DUP2 LT PUSH2 0x49A JUMPI PUSH2 0x499 PUSH2 0x1495 JUMP JUMPDEST JUMPDEST PUSH1 0x20 MUL PUSH1 0x20 ADD ADD MLOAD DUP2 SLOAD DUP2 LT PUSH2 0x4B3 JUMPI PUSH2 0x4B2 PUSH2 0x1495 JUMP JUMPDEST JUMPDEST SWAP1 PUSH1 0x0 MSTORE PUSH1 0x20 PUSH1 0x0 KECCAK256 SWAP1 PUSH1 0x3 MUL ADD SWAP1 POP DUP1 PUSH1 0x0 ADD PUSH1 0x1 SWAP1 DUP2 PUSH2 0x4D5 SWAP2 SWAP1 PUSH2 0x172A JUMP JUMPDEST POP PUSH1 0x1 PUSH1 0x5 PUSH1 0x0 PUSH2 0x100 EXP DUP2 SLOAD DUP2 PUSH1 0xFF MUL NOT AND SWAP1 DUP4 ISZERO ISZERO MUL OR SWAP1 SSTORE POP POP JUMPDEST JUMP JUMPDEST PUSH1 0x0 DUP1 SLOAD SWAP1 PUSH2 0x100 EXP SWAP1 DIV PUSH20 0xFFFFFFFFFFFFFFFFFFFFFFFFFFFFFFFFFFFFFFFF AND PUSH20 0xFFFFFFFFFFFFFFFFFFFFFFFFFFFFFFFFFFFFFFFF AND CALLER PUSH20 0xFFFFFFFFFFFFFFFFFFFFFFFFFFFFFFFFFFFFFFFF AND SUB PUSH2 0x583 JUMPI PUSH1 0x40 MLOAD PUSH32 0x8C379A000000000000000000000000000000000000000000000000000000000 DUP2 MSTORE PUSH1 0x4 ADD PUSH2 0x57A SWAP1 PUSH2 0x185E JUMP JUMPDEST PUSH1 0x40 MLOAD DUP1 SWAP2 SUB SWAP1 REVERT JUMPDEST PUSH1 0x8 PUSH1 0x0 CALLER PUSH20 0xFFFFFFFFFFFFFFFFFFFFFFFFFFFFFFFFFFFFFFFF AND PUSH20 0xFFFFFFFFFFFFFFFFFFFFFFFFFFFFFFFFFFFFFFFF AND DUP2 MSTORE PUSH1 0x20 ADD SWAP1 DUP2 MSTORE PUSH1 0x20 ADD PUSH1 0x0 KECCAK256 PUSH1 0x0 SWAP1 SLOAD SWAP1 PUSH2 0x100 EXP SWAP1 DIV PUSH1 0xFF AND PUSH2 0x60F JUMPI PUSH1 0x40 MLOAD PUSH32 0x8C379A000000000000000000000000000000000000000000000000000000000 DUP2 MSTORE PUSH1 0x4 ADD PUSH2 0x606 SWAP1 PUSH2 0x18F0 JUMP JUMPDEST PUSH1 0x40 MLOAD DUP1 SWAP2 SUB SWAP1 REVERT JUMPDEST PUSH1 0x6 PUSH1 0x0 CALLER PUSH20 0xFFFFFFFFFFFFFFFFFFFFFFFFFFFFFFFFFFFFFFFF AND PUSH20 0xFFFFFFFFFFFFFFFFFFFFFFFFFFFFFFFFFFFFFFFF AND DUP2 MSTORE PUSH1 0x20 ADD SWAP1 DUP2 MSTORE PUSH1 0x20 ADD PUSH1 0x0 KECCAK256 PUSH1 0x0 SWAP1 SLOAD SWAP1 PUSH2 0x100 EXP SWAP1 DIV PUSH1 0xFF AND ISZERO PUSH2 0x69C JUMPI PUSH1 0x40 MLOAD PUSH32 0x8C379A000000000000000000000000000000000000000000000000000000000 DUP2 MSTORE PUSH1 0x4 ADD PUSH2 0x693 SWAP1 PUSH2 0x195C JUMP JUMPDEST PUSH1 0x40 MLOAD DUP1 SWAP2 SUB SWAP1 REVERT JUMPDEST PUSH1 0x5 PUSH1 0x0 SWAP1 SLOAD SWAP1 PUSH2 0x100 EXP SWAP1 DIV PUSH1 0xFF AND ISZERO PUSH2 0x6EC JUMPI PUSH1 0x40 MLOAD PUSH32 0x8C379A000000000000000000000000000000000000000000000000000000000 DUP2 MSTORE PUSH1 0x4 ADD PUSH2 0x6E3 SWAP1 PUSH2 0x1412 JUMP JUMPDEST PUSH1 0x40 MLOAD DUP1 SWAP2 SUB SWAP1 REVERT JUMPDEST PUSH1 0x3 SLOAD TIMESTAMP GT DUP1 ISZERO PUSH2 0x6FE JUMPI POP PUSH1 0x4 SLOAD TIMESTAMP LT JUMPDEST PUSH2 0x73D JUMPI PUSH1 0x40 MLOAD PUSH32 0x8C379A000000000000000000000000000000000000000000000000000000000 DUP2 MSTORE PUSH1 0x4 ADD PUSH2 0x734 SWAP1 PUSH2 0x19C8 JUMP JUMPDEST PUSH1 0x40 MLOAD DUP1 SWAP2 SUB SWAP1 REVERT JUMPDEST PUSH1 0x0 PUSH1 0xA DUP3 DUP2 SLOAD DUP2 LT PUSH2 0x753 JUMPI PUSH2 0x752 PUSH2 0x1495 JUMP JUMPDEST JUMPDEST SWAP1 PUSH1 0x0 MSTORE PUSH1 0x20 PUSH1 0x0 KECCAK256 SWAP1 PUSH1 0x3 MUL ADD SWAP1 POP DUP1 PUSH1 0x1 ADD PUSH1 0x0 DUP2 SLOAD DUP1 SWAP3 SWAP2 SWAP1 PUSH2 0x778 SWAP1 PUSH2 0x19E8 JUMP JUMPDEST SWAP2 SWAP1 POP SSTORE POP DUP1 PUSH1 0x2 ADD CALLER SWAP1 DUP1 PUSH1 0x1 DUP2 SLOAD ADD DUP1 DUP3 SSTORE DUP1 SWAP2 POP POP PUSH1 0x1 SWAP1 SUB SWAP1 PUSH1 0x0 MSTORE PUSH1 0x20 PUSH1 0x0 KECCAK256 ADD PUSH1 0x0 SWAP1 SWAP2 SWAP1 SWAP2 SWAP1 SWAP2 PUSH2 0x100 EXP DUP2 SLOAD DUP2 PUSH20 0xFFFFFFFFFFFFFFFFFFFFFFFFFFFFFFFFFFFFFFFF MUL NOT AND SWAP1 DUP4 PUSH20 0xFFFFFFFFFFFFFFFFFFFFFFFFFFFFFFFFFFFFFFFF AND MUL OR SWAP1 SSTORE POP PUSH1 0x1 PUSH1 0x6 PUSH1 0x0 CALLER PUSH20 0xFFFFFFFFFFFFFFFFFFFFFFFFFFFFFFFFFFFFFFFF AND PUSH20 0xFFFFFFFFFFFFFFFFFFFFFFFFFFFFFFFFFFFFFFFF AND DUP2 MSTORE PUSH1 0x20 ADD SWAP1 DUP2 MSTORE PUSH1 0x20 ADD PUSH1 0x0 KECCAK256 PUSH1 0x0 PUSH2 0x100 EXP DUP2 SLOAD DUP2 PUSH1 0xFF MUL NOT AND SWAP1 DUP4 ISZERO ISZERO MUL OR SWAP1 SSTORE POP PUSH1 0x7 PUSH1 0x0 DUP2 SLOAD DUP1 SWAP3 SWAP2 SWAP1 PUSH2 0x84D SWAP1 PUSH2 0x19E8 JUMP JUMPDEST SWAP2 SWAP1 POP SSTORE POP POP POP JUMP JUMPDEST PUSH1 0x8 PUSH1 0x20 MSTORE DUP1 PUSH1 0x0 MSTORE PUSH1 0x40 PUSH1 0x0 KECCAK256 PUSH1 0x0 SWAP2 POP SLOAD SWAP1 PUSH2 0x100 EXP SWAP1 DIV PUSH1 0xFF AND DUP2 JUMP JUMPDEST PUSH1 0x60 PUSH1 0x0 PUSH1 0x60 PUSH1 0x0 PUSH1 0xA DUP6 DUP2 SLOAD DUP2 LT PUSH2 0x892 JUMPI PUSH2 0x891 PUSH2 0x1495 JUMP JUMPDEST JUMPDEST SWAP1 PUSH1 0x0 MSTORE PUSH1 0x20 PUSH1 0x0 KECCAK256 SWAP1 PUSH1 0x3 MUL ADD SWAP1 POP DUP1 PUSH1 0x0 ADD DUP2 PUSH1 0x1 ADD SLOAD DUP3 PUSH1 0x2 ADD DUP3 DUP1 SLOAD PUSH2 0x8BB SWAP1 PUSH2 0x14F3 JUMP JUMPDEST DUP1 PUSH1 0x1F ADD PUSH1 0x20 DUP1 SWAP2 DIV MUL PUSH1 0x20 ADD PUSH1 0x40 MLOAD SWAP1 DUP2 ADD PUSH1 0x40 MSTORE DUP1 SWAP3 SWAP2 SWAP1 DUP2 DUP2 MSTORE PUSH1 0x20 ADD DUP3 DUP1 SLOAD PUSH2 0x8E7 SWAP1 PUSH2 0x14F3 JUMP JUMPDEST DUP1 ISZERO PUSH2 0x934 JUMPI DUP1 PUSH1 0x1F LT PUSH2 0x909 JUMPI PUSH2 0x100 DUP1 DUP4 SLOAD DIV MUL DUP4 MSTORE SWAP2 PUSH1 0x20 ADD SWAP2 PUSH2 0x934 JUMP JUMPDEST DUP3 ADD SWAP2 SWAP1 PUSH1 0x0 MSTORE PUSH1 0x20 PUSH1 0x0 KECCAK256 SWAP1 JUMPDEST DUP2 SLOAD DUP2 MSTORE SWAP1 PUSH1 0x1 ADD SWAP1 PUSH1 0x20 ADD DUP1 DUP4 GT PUSH2 0x917 JUMPI DUP3 SWAP1 SUB PUSH1 0x1F AND DUP3 ADD SWAP2 JUMPDEST POP POP POP POP POP SWAP3 POP DUP1 DUP1 SLOAD DUP1 PUSH1 0x20 MUL PUSH1 0x20 ADD PUSH1 0x40 MLOAD SWAP1 DUP2 ADD PUSH1 0x40 MSTORE DUP1 SWAP3 SWAP2 SWAP1 DUP2 DUP2 MSTORE PUSH1 0x20 ADD DUP3 DUP1 SLOAD DUP1 ISZERO PUSH2 0x9BC JUMPI PUSH1 0x20 MUL DUP3 ADD SWAP2 SWAP1 PUSH1 0x0 MSTORE PUSH1 0x20 PUSH1 0x0 KECCAK256 SWAP1 JUMPDEST DUP2 PUSH1 0x0 SWAP1 SLOAD SWAP1 PUSH2 0x100 EXP SWAP1 DIV PUSH20 0xFFFFFFFFFFFFFFFFFFFFFFFFFFFFFFFFFFFFFFFF AND PUSH20 0xFFFFFFFFFFFFFFFFFFFFFFFFFFFFFFFFFFFFFFFF AND DUP2 MSTORE PUSH1 0x20 ADD SWAP1 PUSH1 0x1 ADD SWAP1 DUP1 DUP4 GT PUSH2 0x972 JUMPI JUMPDEST POP POP POP POP POP SWAP1 POP SWAP4 POP SWAP4 POP SWAP4 POP POP SWAP2 SWAP4 SWAP1 SWAP3 POP JUMP JUMPDEST PUSH1 0x0 DUP1 SLOAD SWAP1 PUSH2 0x100 EXP SWAP1 DIV PUSH20 0xFFFFFFFFFFFFFFFFFFFFFFFFFFFFFFFFFFFFFFFF AND DUP2 JUMP JUMPDEST PUSH1 0x9 SLOAD DUP2 JUMP JUMPDEST PUSH1 0x7 SLOAD DUP2 JUMP JUMPDEST PUSH1 0x0 PUSH1 0xA DUP1 SLOAD SWAP1 POP SWAP1 POP SWAP1 JUMP JUMPDEST PUSH1 0x5 PUSH1 0x0 SWAP1 SLOAD SWAP1 PUSH2 0x100 EXP SWAP1 DIV PUSH1 0xFF AND DUP2 JUMP JUMPDEST PUSH1 0x6 PUSH1 0x20 MSTORE DUP1 PUSH1 0x0 MSTORE PUSH1 0x40 PUSH1 0x0 KECCAK256 PUSH1 0x0 SWAP2 POP SLOAD SWAP1 PUSH2 0x100 EXP SWAP1 DIV PUSH1 0xFF AND DUP2 JUMP JUMPDEST PUSH1 0xA DUP2 DUP2 SLOAD DUP2 LT PUSH2 0xA51 JUMPI PUSH1 0x0 DUP1 REVERT JUMPDEST SWAP1 PUSH1 0x0 MSTORE PUSH1 0x20 PUSH1 0x0 KECCAK256 SWAP1 PUSH1 0x3 MUL ADD PUSH1 0x0 SWAP2 POP SWAP1 POP DUP1 PUSH1 0x0 ADD DUP1 SLOAD PUSH2 0xA74 SWAP1 PUSH2 0x14F3 JUMP JUMPDEST DUP1 PUSH1 0x1F ADD PUSH1 0x20 DUP1 SWAP2 DIV MUL PUSH1 0x20 ADD PUSH1 0x40 MLOAD SWAP1 DUP2 ADD PUSH1 0x40 MSTORE DUP1 SWAP3 SWAP2 SWAP1 DUP2 DUP2 MSTORE PUSH1 0x20 ADD DUP3 DUP1 SLOAD PUSH2 0xAA0 SWAP1 PUSH2 0x14F3 JUMP JUMPDEST DUP1 ISZERO PUSH2 0xAED JUMPI DUP1 PUSH1 0x1F LT PUSH2 0xAC2 JUMPI PUSH2 0x100 DUP1 DUP4 SLOAD DIV MUL DUP4 MSTORE SWAP2 PUSH1 0x20 ADD SWAP2 PUSH2 0xAED JUMP JUMPDEST DUP3 ADD SWAP2 SWAP1 PUSH1 0x0 MSTORE PUSH1 0x20 PUSH1 0x0 KECCAK256 SWAP1 JUMPDEST DUP2 SLOAD DUP2 MSTORE SWAP1 PUSH1 0x1 ADD SWAP1 PUSH1 0x20 ADD DUP1 DUP4 GT PUSH2 0xAD0 JUMPI DUP3 SWAP1 SUB PUSH1 0x1F AND DUP3 ADD SWAP2 JUMPDEST POP POP POP POP POP SWAP1 DUP1 PUSH1 0x1 ADD SLOAD SWAP1 POP DUP3 JUMP JUMPDEST PUSH1 0x3 SLOAD DUP2 JUMP JUMPDEST PUSH1 0x4 SLOAD DUP2 JUMP JUMPDEST PUSH1 0x1 DUP1 SLOAD PUSH2 0xB16 SWAP1 PUSH2 0x14F3 JUMP JUMPDEST DUP1 PUSH1 0x1F ADD PUSH1 0x20 DUP1 SWAP2 DIV MUL PUSH1 0x20 ADD PUSH1 0x40 MLOAD SWAP1 DUP2 ADD PUSH1 0x40 MSTORE DUP1 SWAP3 SWAP2 SWAP1 DUP2 DUP2 MSTORE PUSH1 0x20 ADD DUP3 DUP1 SLOAD PUSH2 0xB42 SWAP1 PUSH2 0x14F3 JUMP JUMPDEST DUP1 ISZERO PUSH2 0xB8F JUMPI DUP1 PUSH1 0x1F LT PUSH2 0xB64 JUMPI PUSH2 0x100 DUP1 DUP4 SLOAD DIV MUL DUP4 MSTORE SWAP2 PUSH1 0x20 ADD SWAP2 PUSH2 0xB8F JUMP JUMPDEST DUP3 ADD SWAP2 SWAP1 PUSH1 0x0 MSTORE PUSH1 0x20 PUSH1 0x0 KECCAK256 SWAP1 JUMPDEST DUP2 SLOAD DUP2 MSTORE SWAP1 PUSH1 0x1 ADD SWAP1 PUSH1 0x20 ADD DUP1 DUP4 GT PUSH2 0xB72 JUMPI DUP3 SWAP1 SUB PUSH1 0x1F AND DUP3 ADD SWAP2 JUMPDEST POP POP POP POP POP DUP2 JUMP JUMPDEST PUSH1 0x0 DUP1 SLOAD SWAP1 PUSH2 0x100 EXP SWAP1 DIV PUSH20 0xFFFFFFFFFFFFFFFFFFFFFFFFFFFFFFFFFFFFFFFF AND PUSH20 0xFFFFFFFFFFFFFFFFFFFFFFFFFFFFFFFFFFFFFFFF AND CALLER PUSH20 0xFFFFFFFFFFFFFFFFFFFFFFFFFFFFFFFFFFFFFFFF AND EQ PUSH2 0xBEF JUMPI PUSH1 0x0 DUP1 REVERT JUMPDEST PUSH1 0x0 DUP1 SLOAD SWAP1 PUSH2 0x100 EXP SWAP1 DIV PUSH20 0xFFFFFFFFFFFFFFFFFFFFFFFFFFFFFFFFFFFFFFFF AND PUSH20 0xFFFFFFFFFFFFFFFFFFFFFFFFFFFFFFFFFFFFFFFF AND DUP2 PUSH20 0xFFFFFFFFFFFFFFFFFFFFFFFFFFFFFFFFFFFFFFFF AND SUB PUSH2 0xC7D JUMPI PUSH1 0x40 MLOAD PUSH32 0x8C379A000000000000000000000000000000000000000000000000000000000 DUP2 MSTORE PUSH1 0x4 ADD PUSH2 0xC74 SWAP1 PUSH2 0x1A7C JUMP JUMPDEST PUSH1 0x40 MLOAD DUP1 SWAP2 SUB SWAP1 REVERT JUMPDEST PUSH1 0x8 PUSH1 0x0 DUP3 PUSH20 0xFFFFFFFFFFFFFFFFFFFFFFFFFFFFFFFFFFFFFFFF AND PUSH20 0xFFFFFFFFFFFFFFFFFFFFFFFFFFFFFFFFFFFFFFFF AND DUP2 MSTORE PUSH1 0x20 ADD SWAP1 DUP2 MSTORE PUSH1 0x20 ADD PUSH1 0x0 KECCAK256 PUSH1 0x0 SWAP1 SLOAD SWAP1 PUSH2 0x100 EXP SWAP1 DIV PUSH1 0xFF AND ISZERO PUSH2 0xD0A JUMPI PUSH1 0x40 MLOAD PUSH32 0x8C379A000000000000000000000000000000000000000000000000000000000 DUP2 MSTORE PUSH1 0x4 ADD PUSH2 0xD01 SWAP1 PUSH2 0x1AE8 JUMP JUMPDEST PUSH1 0x40 MLOAD DUP1 SWAP2 SUB SWAP1 REVERT JUMPDEST PUSH1 0x1 PUSH1 0x8 PUSH1 0x0 DUP4 PUSH20 0xFFFFFFFFFFFFFFFFFFFFFFFFFFFFFFFFFFFFFFFF AND PUSH20 0xFFFFFFFFFFFFFFFFFFFFFFFFFFFFFFFFFFFFFFFF AND DUP2 MSTORE PUSH1 0x20 ADD SWAP1 DUP2 MSTORE PUSH1 0x20 ADD PUSH1 0x0 KECCAK256 PUSH1 0x0 PUSH2 0x100 EXP DUP2 SLOAD DUP2 PUSH1 0xFF MUL NOT AND SWAP1 DUP4 ISZERO ISZERO MUL OR SWAP1 SSTORE POP PUSH1 0x9 PUSH1 0x0 DUP2 SLOAD DUP1 SWAP3 SWAP2 SWAP1 PUSH2 0xD75 SWAP1 PUSH2 0x19E8 JUMP JUMPDEST SWAP2 SWAP1 POP SSTORE POP POP JUMP JUMPDEST PUSH1 0x60 PUSH1 0x0 DUP1 SLOAD SWAP1 PUSH2 0x100 EXP SWAP1 DIV PUSH20 0xFFFFFFFFFFFFFFFFFFFFFFFFFFFFFFFFFFFFFFFF AND PUSH20 0xFFFFFFFFFFFFFFFFFFFFFFFFFFFFFFFFFFFFFFFF AND CALLER PUSH20 0xFFFFFFFFFFFFFFFFFFFFFFFFFFFFFFFFFFFFFFFF AND EQ PUSH2 0xDD7 JUMPI PUSH1 0x0 DUP1 REVERT JUMPDEST PUSH1 0x0 PUSH1 0x60 PUSH1 0x0 DUP1 JUMPDEST PUSH1 0xA DUP1 SLOAD SWAP1 POP DUP2 LT ISZERO PUSH2 0xFE7 JUMPI DUP4 PUSH1 0xA DUP3 DUP2 SLOAD DUP2 LT PUSH2 0xE01 JUMPI PUSH2 0xE00 PUSH2 0x1495 JUMP JUMPDEST JUMPDEST SWAP1 PUSH1 0x0 MSTORE PUSH1 0x20 PUSH1 0x0 KECCAK256 SWAP1 PUSH1 0x3 MUL ADD PUSH1 0x1 ADD SLOAD GT ISZERO PUSH2 0xEB6 JUMPI PUSH1 0xA DUP2 DUP2 SLOAD DUP2 LT PUSH2 0xE2D JUMPI PUSH2 0xE2C PUSH2 0x1495 JUMP JUMPDEST JUMPDEST SWAP1 PUSH1 0x0 MSTORE PUSH1 0x20 PUSH1 0x0 KECCAK256 SWAP1 PUSH1 0x3 MUL ADD PUSH1 0x1 ADD SLOAD SWAP4 POP PUSH1 0x1 SWAP2 POP DUP2 PUSH8 0xFFFFFFFFFFFFFFFF DUP2 GT ISZERO PUSH2 0xE5F JUMPI PUSH2 0xE5E PUSH2 0x153A JUMP JUMPDEST JUMPDEST PUSH1 0x40 MLOAD SWAP1 DUP1 DUP3 MSTORE DUP1 PUSH1 0x20 MUL PUSH1 0x20 ADD DUP3 ADD PUSH1 0x40 MSTORE DUP1 ISZERO PUSH2 0xE8D JUMPI DUP2 PUSH1 0x20 ADD PUSH1 0x20 DUP3 MUL DUP1 CALLDATASIZE DUP4 CALLDATACOPY DUP1 DUP3 ADD SWAP2 POP POP SWAP1 POP JUMPDEST POP SWAP3 POP DUP1 DUP4 PUSH1 0x0 DUP2 MLOAD DUP2 LT PUSH2 0xEA5 JUMPI PUSH2 0xEA4 PUSH2 0x1495 JUMP JUMPDEST JUMPDEST PUSH1 0x20 MUL PUSH1 0x20 ADD ADD DUP2 DUP2 MSTORE POP POP PUSH2 0xFD4 JUMP JUMPDEST DUP4 PUSH1 0xA DUP3 DUP2 SLOAD DUP2 LT PUSH2 0xECB JUMPI PUSH2 0xECA PUSH2 0x1495 JUMP JUMPDEST JUMPDEST SWAP1 PUSH1 0x0 MSTORE PUSH1 0x20 PUSH1 0x0 KECCAK256 SWAP1 PUSH1 0x3 MUL ADD PUSH1 0x1 ADD SLOAD SUB PUSH2 0xFD3 JUMPI DUP2 DUP1 PUSH2 0xEED SWAP1 PUSH2 0x19E8 JUMP JUMPDEST SWAP3 POP POP PUSH1 0x0 DUP3 PUSH8 0xFFFFFFFFFFFFFFFF DUP2 GT ISZERO PUSH2 0xF0C JUMPI PUSH2 0xF0B PUSH2 0x153A JUMP JUMPDEST JUMPDEST PUSH1 0x40 MLOAD SWAP1 DUP1 DUP3 MSTORE DUP1 PUSH1 0x20 MUL PUSH1 0x20 ADD DUP3 ADD PUSH1 0x40 MSTORE DUP1 ISZERO PUSH2 0xF3A JUMPI DUP2 PUSH1 0x20 ADD PUSH1 0x20 DUP3 MUL DUP1 CALLDATASIZE DUP4 CALLDATACOPY DUP1 DUP3 ADD SWAP2 POP POP SWAP1 POP JUMPDEST POP SWAP1 POP PUSH1 0x0 JUMPDEST PUSH1 0x1 DUP5 PUSH2 0xF4D SWAP2 SWAP1 PUSH2 0x1B08 JUMP JUMPDEST DUP2 LT ISZERO PUSH2 0xFA1 JUMPI DUP5 DUP2 DUP2 MLOAD DUP2 LT PUSH2 0xF67 JUMPI PUSH2 0xF66 PUSH2 0x1495 JUMP JUMPDEST JUMPDEST PUSH1 0x20 MUL PUSH1 0x20 ADD ADD MLOAD DUP3 DUP3 DUP2 MLOAD DUP2 LT PUSH2 0xF82 JUMPI PUSH2 0xF81 PUSH2 0x1495 JUMP JUMPDEST JUMPDEST PUSH1 0x20 MUL PUSH1 0x20 ADD ADD DUP2 DUP2 MSTORE POP POP DUP1 DUP1 PUSH2 0xF99 SWAP1 PUSH2 0x19E8 JUMP JUMPDEST SWAP2 POP POP PUSH2 0xF40 JUMP JUMPDEST POP DUP2 DUP2 PUSH1 0x1 DUP6 PUSH2 0xFB1 SWAP2 SWAP1 PUSH2 0x1B08 JUMP JUMPDEST DUP2 MLOAD DUP2 LT PUSH2 0xFC2 JUMPI PUSH2 0xFC1 PUSH2 0x1495 JUMP JUMPDEST JUMPDEST PUSH1 0x20 MUL PUSH1 0x20 ADD ADD DUP2 DUP2 MSTORE POP POP DUP1 SWAP4 POP POP JUMPDEST JUMPDEST DUP1 DUP1 PUSH2 0xFDF SWAP1 PUSH2 0x19E8 JUMP JUMPDEST SWAP2 POP POP PUSH2 0xDDF JUMP JUMPDEST POP DUP2 SWAP4 POP POP POP POP SWAP1 JUMP JUMPDEST PUSH1 0x0 PUSH20 0xFFFFFFFFFFFFFFFFFFFFFFFFFFFFFFFFFFFFFFFF DUP3 AND SWAP1 POP SWAP2 SWAP1 POP JUMP JUMPDEST PUSH1 0x0 PUSH2 0x101C DUP3 PUSH2 0xFF1 JUMP JUMPDEST SWAP1 POP SWAP2 SWAP1 POP JUMP JUMPDEST PUSH2 0x102C DUP2 PUSH2 0x1011 JUMP JUMPDEST DUP3 MSTORE POP POP JUMP JUMPDEST PUSH1 0x0 DUP2 SWAP1 POP SWAP2 SWAP1 POP JUMP JUMPDEST PUSH2 0x1045 DUP2 PUSH2 0x1032 JUMP JUMPDEST DUP3 MSTORE POP POP JUMP JUMPDEST PUSH1 0x0 DUP2 ISZERO ISZERO SWAP1 POP SWAP2 SWAP1 POP JUMP JUMPDEST PUSH2 0x1060 DUP2 PUSH2 0x104B JUMP JUMPDEST DUP3 MSTORE POP POP JUMP JUMPDEST PUSH1 0x0 PUSH1 0xC0 DUP3 ADD SWAP1 POP PUSH2 0x107B PUSH1 0x0 DUP4 ADD DUP10 PUSH2 0x1023 JUMP JUMPDEST PUSH2 0x1088 PUSH1 0x20 DUP4 ADD DUP9 PUSH2 0x103C JUMP JUMPDEST PUSH2 0x1095 PUSH1 0x40 DUP4 ADD DUP8 PUSH2 0x103C JUMP JUMPDEST PUSH2 0x10A2 PUSH1 0x60 DUP4 ADD DUP7 PUSH2 0x103C JUMP JUMPDEST PUSH2 0x10AF PUSH1 0x80 DUP4 ADD DUP6 PUSH2 0x1057 JUMP JUMPDEST PUSH2 0x10BC PUSH1 0xA0 DUP4 ADD DUP5 PUSH2 0x103C JUMP JUMPDEST SWAP8 SWAP7 POP POP POP POP POP POP POP JUMP JUMPDEST PUSH1 0x0 PUSH1 0x20 DUP3 ADD SWAP1 POP PUSH2 0x10DC PUSH1 0x0 DUP4 ADD DUP5 PUSH2 0x103C JUMP JUMPDEST SWAP3 SWAP2 POP POP JUMP JUMPDEST PUSH1 0x0 DUP1 REVERT JUMPDEST PUSH2 0x10F0 DUP2 PUSH2 0x1032 JUMP JUMPDEST DUP2 EQ PUSH2 0x10FB JUMPI PUSH1 0x0 DUP1 REVERT JUMPDEST POP JUMP JUMPDEST PUSH1 0x0 DUP2 CALLDATALOAD SWAP1 POP PUSH2 0x110D DUP2 PUSH2 0x10E7 JUMP JUMPDEST SWAP3 SWAP2 POP POP JUMP JUMPDEST PUSH1 0x0 PUSH1 0x20 DUP3 DUP5 SUB SLT ISZERO PUSH2 0x1129 JUMPI PUSH2 0x1128 PUSH2 0x10E2 JUMP JUMPDEST JUMPDEST PUSH1 0x0 PUSH2 0x1137 DUP5 DUP3 DUP6 ADD PUSH2 0x10FE JUMP JUMPDEST SWAP2 POP POP SWAP3 SWAP2 POP POP JUMP JUMPDEST PUSH2 0x1149 DUP2 PUSH2 0x1011 JUMP JUMPDEST DUP2 EQ PUSH2 0x1154 JUMPI PUSH1 0x0 DUP1 REVERT JUMPDEST POP JUMP JUMPDEST PUSH1 0x0 DUP2 CALLDATALOAD SWAP1 POP PUSH2 0x1166 DUP2 PUSH2 0x1140 JUMP JUMPDEST SWAP3 SWAP2 POP POP JUMP JUMPDEST PUSH1 0x0 PUSH1 0x20 DUP3 DUP5 SUB SLT ISZERO PUSH2 0x1182 JUMPI PUSH2 0x1181 PUSH2 0x10E2 JUMP JUMPDEST JUMPDEST PUSH1 0x0 PUSH2 0x1190 DUP5 DUP3 DUP6 ADD PUSH2 0x1157 JUMP JUMPDEST SWAP2 POP POP SWAP3 SWAP2 POP POP JUMP JUMPDEST PUSH1 0x0 PUSH1 0x20 DUP3 ADD SWAP1 POP PUSH2 0x11AE PUSH1 0x0 DUP4 ADD DUP5 PUSH2 0x1057 JUMP JUMPDEST SWAP3 SWAP2 POP POP JUMP JUMPDEST PUSH1 0x0 DUP2 MLOAD SWAP1 POP SWAP2 SWAP1 POP JUMP JUMPDEST PUSH1 0x0 DUP3 DUP3 MSTORE PUSH1 0x20 DUP3 ADD SWAP1 POP SWAP3 SWAP2 POP POP JUMP JUMPDEST PUSH1 0x0 JUMPDEST DUP4 DUP2 LT ISZERO PUSH2 0x11EE JUMPI DUP1 DUP3 ADD MLOAD DUP2 DUP5 ADD MSTORE PUSH1 0x20 DUP2 ADD SWAP1 POP PUSH2 0x11D3 JUMP JUMPDEST PUSH1 0x0 DUP5 DUP5 ADD MSTORE POP POP POP POP JUMP JUMPDEST PUSH1 0x0 PUSH1 0x1F NOT PUSH1 0x1F DUP4 ADD AND SWAP1 POP SWAP2 SWAP1 POP JUMP JUMPDEST PUSH1 0x0 PUSH2 0x1216 DUP3 PUSH2 0x11B4 JUMP JUMPDEST PUSH2 0x1220 DUP2 DUP6 PUSH2 0x11BF JUMP JUMPDEST SWAP4 POP PUSH2 0x1230 DUP2 DUP6 PUSH1 0x20 DUP7 ADD PUSH2 0x11D0 JUMP JUMPDEST PUSH2 0x1239 DUP2 PUSH2 0x11FA JUMP JUMPDEST DUP5 ADD SWAP2 POP POP SWAP3 SWAP2 POP POP JUMP JUMPDEST PUSH1 0x0 DUP2 MLOAD SWAP1 POP SWAP2 SWAP1 POP JUMP JUMPDEST PUSH1 0x0 DUP3 DUP3 MSTORE PUSH1 0x20 DUP3 ADD SWAP1 POP SWAP3 SWAP2 POP POP JUMP JUMPDEST PUSH1 0x0 DUP2 SWAP1 POP PUSH1 0x20 DUP3 ADD SWAP1 POP SWAP2 SWAP1 POP JUMP JUMPDEST PUSH1 0x0 PUSH2 0x127B DUP3 PUSH2 0xFF1 JUMP JUMPDEST SWAP1 POP SWAP2 SWAP1 POP JUMP JUMPDEST PUSH2 0x128B DUP2 PUSH2 0x1270 JUMP JUMPDEST DUP3 MSTORE POP POP JUMP JUMPDEST PUSH1 0x0 PUSH2 0x129D DUP4 DUP4 PUSH2 0x1282 JUMP JUMPDEST PUSH1 0x20 DUP4 ADD SWAP1 POP SWAP3 SWAP2 POP POP JUMP JUMPDEST PUSH1 0x0 PUSH1 0x20 DUP3 ADD SWAP1 POP SWAP2 SWAP1 POP JUMP JUMPDEST PUSH1 0x0 PUSH2 0x12C1 DUP3 PUSH2 0x1244 JUMP JUMPDEST PUSH2 0x12CB DUP2 DUP6 PUSH2 0x124F JUMP JUMPDEST SWAP4 POP PUSH2 0x12D6 DUP4 PUSH2 0x1260 JUMP JUMPDEST DUP1 PUSH1 0x0 JUMPDEST DUP4 DUP2 LT ISZERO PUSH2 0x1307 JUMPI DUP2 MLOAD PUSH2 0x12EE DUP9 DUP3 PUSH2 0x1291 JUMP JUMPDEST SWAP8 POP PUSH2 0x12F9 DUP4 PUSH2 0x12A9 JUMP JUMPDEST SWAP3 POP POP PUSH1 0x1 DUP2 ADD SWAP1 POP PUSH2 0x12DA JUMP JUMPDEST POP DUP6 SWAP4 POP POP POP POP SWAP3 SWAP2 POP POP JUMP JUMPDEST PUSH1 0x0 PUSH1 0x60 DUP3 ADD SWAP1 POP DUP2 DUP2 SUB PUSH1 0x0 DUP4 ADD MSTORE PUSH2 0x132E DUP2 DUP7 PUSH2 0x120B JUMP JUMPDEST SWAP1 POP PUSH2 0x133D PUSH1 0x20 DUP4 ADD DUP6 PUSH2 0x103C JUMP JUMPDEST DUP2 DUP2 SUB PUSH1 0x40 DUP4 ADD MSTORE PUSH2 0x134F DUP2 DUP5 PUSH2 0x12B6 JUMP JUMPDEST SWAP1 POP SWAP5 SWAP4 POP POP POP POP JUMP JUMPDEST PUSH1 0x0 PUSH1 0x20 DUP3 ADD SWAP1 POP PUSH2 0x136E PUSH1 0x0 DUP4 ADD DUP5 PUSH2 0x1023 JUMP JUMPDEST SWAP3 SWAP2 POP POP JUMP JUMPDEST PUSH1 0x0 PUSH1 0x40 DUP3 ADD SWAP1 POP DUP2 DUP2 SUB PUSH1 0x0 DUP4 ADD MSTORE PUSH2 0x138E DUP2 DUP6 PUSH2 0x120B JUMP JUMPDEST SWAP1 POP PUSH2 0x139D PUSH1 0x20 DUP4 ADD DUP5 PUSH2 0x103C JUMP JUMPDEST SWAP4 SWAP3 POP POP POP JUMP JUMPDEST PUSH1 0x0 PUSH1 0x20 DUP3 ADD SWAP1 POP DUP2 DUP2 SUB PUSH1 0x0 DUP4 ADD MSTORE PUSH2 0x13BE DUP2 DUP5 PUSH2 0x120B JUMP JUMPDEST SWAP1 POP SWAP3 SWAP2 POP POP JUMP JUMPDEST PUSH32 0x566F74696E672048617320456E64656400000000000000000000000000000000 PUSH1 0x0 DUP3 ADD MSTORE POP JUMP JUMPDEST PUSH1 0x0 PUSH2 0x13FC PUSH1 0x10 DUP4 PUSH2 0x11BF JUMP JUMPDEST SWAP2 POP PUSH2 0x1407 DUP3 PUSH2 0x13C6 JUMP JUMPDEST PUSH1 0x20 DUP3 ADD SWAP1 POP SWAP2 SWAP1 POP JUMP JUMPDEST PUSH1 0x0 PUSH1 0x20 DUP3 ADD SWAP1 POP DUP2 DUP2 SUB PUSH1 0x0 DUP4 ADD MSTORE PUSH2 0x142B DUP2 PUSH2 0x13EF JUMP JUMPDEST SWAP1 POP SWAP2 SWAP1 POP JUMP JUMPDEST PUSH32 0x4E487B7100000000000000000000000000000000000000000000000000000000 PUSH1 0x0 MSTORE PUSH1 0x11 PUSH1 0x4 MSTORE PUSH1 0x24 PUSH1 0x0 REVERT JUMPDEST PUSH1 0x0 PUSH2 0x146C DUP3 PUSH2 0x1032 JUMP JUMPDEST SWAP2 POP PUSH2 0x1477 DUP4 PUSH2 0x1032 JUMP JUMPDEST SWAP3 POP DUP3 DUP3 ADD SWAP1 POP DUP1 DUP3 GT ISZERO PUSH2 0x148F JUMPI PUSH2 0x148E PUSH2 0x1432 JUMP JUMPDEST JUMPDEST SWAP3 SWAP2 POP POP JUMP JUMPDEST PUSH32 0x4E487B7100000000000000000000000000000000000000000000000000000000 PUSH1 0x0 MSTORE PUSH1 0x32 PUSH1 0x4 MSTORE PUSH1 0x24 PUSH1 0x0 REVERT JUMPDEST PUSH32 0x4E487B7100000000000000000000000000000000000000000000000000000000 PUSH1 0x0 MSTORE PUSH1 0x22 PUSH1 0x4 MSTORE PUSH1 0x24 PUSH1 0x0 REVERT JUMPDEST PUSH1 0x0 PUSH1 0x2 DUP3 DIV SWAP1 POP PUSH1 0x1 DUP3 AND DUP1 PUSH2 0x150B JUMPI PUSH1 0x7F DUP3 AND SWAP2 POP JUMPDEST PUSH1 0x20 DUP3 LT DUP2 SUB PUSH2 0x151E JUMPI PUSH2 0x151D PUSH2 0x14C4 JUMP JUMPDEST JUMPDEST POP SWAP2 SWAP1 POP JUMP JUMPDEST PUSH1 0x0 DUP2 SLOAD SWAP1 POP PUSH2 0x1533 DUP2 PUSH2 0x14F3 JUMP JUMPDEST SWAP1 POP SWAP2 SWAP1 POP JUMP JUMPDEST PUSH32 0x4E487B7100000000000000000000000000000000000000000000000000000000 PUSH1 0x0 MSTORE PUSH1 0x41 PUSH1 0x4 MSTORE PUSH1 0x24 PUSH1 0x0 REVERT JUMPDEST PUSH1 0x0 DUP2 SWAP1 POP DUP2 PUSH1 0x0 MSTORE PUSH1 0x20 PUSH1 0x0 KECCAK256 SWAP1 POP SWAP2 SWAP1 POP JUMP JUMPDEST PUSH1 0x0 DUP2 SWAP1 POP DUP2 PUSH1 0x0 MSTORE PUSH1 0x20 PUSH1 0x0 KECCAK256 SWAP1 POP SWAP2 SWAP1 POP JUMP JUMPDEST PUSH1 0x0 PUSH1 0x20 PUSH1 0x1F DUP4 ADD DIV SWAP1 POP SWAP2 SWAP1 POP JUMP JUMPDEST PUSH1 0x0 DUP3 DUP3 SHL SWAP1 POP SWAP3 SWAP2 POP POP JUMP JUMPDEST PUSH1 0x0 PUSH1 0x8 DUP4 MUL PUSH2 0x15E0 PUSH32 0xFFFFFFFFFFFFFFFFFFFFFFFFFFFFFFFFFFFFFFFFFFFFFFFFFFFFFFFFFFFFFFFF DUP3 PUSH2 0x15A3 JUMP JUMPDEST PUSH2 0x15EA DUP7 DUP4 PUSH2 0x15A3 JUMP JUMPDEST SWAP6 POP DUP1 NOT DUP5 AND SWAP4 POP DUP1 DUP7 AND DUP5 OR SWAP3 POP POP POP SWAP4 SWAP3 POP POP POP JUMP JUMPDEST PUSH1 0x0 DUP2 SWAP1 POP SWAP2 SWAP1 POP JUMP JUMPDEST PUSH1 0x0 PUSH2 0x1627 PUSH2 0x1622 PUSH2 0x161D DUP5 PUSH2 0x1032 JUMP JUMPDEST PUSH2 0x1602 JUMP JUMPDEST PUSH2 0x1032 JUMP JUMPDEST SWAP1 POP SWAP2 SWAP1 POP JUMP JUMPDEST PUSH1 0x0 DUP2 SWAP1 POP SWAP2 SWAP1 POP JUMP JUMPDEST PUSH2 0x1641 DUP4 PUSH2 0x160C JUMP JUMPDEST PUSH2 0x1655 PUSH2 0x164D DUP3 PUSH2 0x162E JUMP JUMPDEST DUP5 DUP5 SLOAD PUSH2 0x15B0 JUMP JUMPDEST DUP3 SSTORE POP POP POP POP JUMP JUMPDEST PUSH1 0x0 SWAP1 JUMP JUMPDEST PUSH2 0x166A PUSH2 0x165D JUMP JUMPDEST PUSH2 0x1675 DUP2 DUP5 DUP5 PUSH2 0x1638 JUMP JUMPDEST POP POP POP JUMP JUMPDEST JUMPDEST DUP2 DUP2 LT ISZERO PUSH2 0x1699 JUMPI PUSH2 0x168E PUSH1 0x0 DUP3 PUSH2 0x1662 JUMP JUMPDEST PUSH1 0x1 DUP2 ADD SWAP1 POP PUSH2 0x167B JUMP JUMPDEST POP POP JUMP JUMPDEST PUSH1 0x1F DUP3 GT ISZERO PUSH2 0x16DE JUMPI PUSH2 0x16AF DUP2 PUSH2 0x1569 JUMP JUMPDEST PUSH2 0x16B8 DUP5 PUSH2 0x1593 JUMP JUMPDEST DUP2 ADD PUSH1 0x20 DUP6 LT ISZERO PUSH2 0x16C7 JUMPI DUP2 SWAP1 POP JUMPDEST PUSH2 0x16DB PUSH2 0x16D3 DUP6 PUSH2 0x1593 JUMP JUMPDEST DUP4 ADD DUP3 PUSH2 0x167A JUMP JUMPDEST POP POP JUMPDEST POP POP POP JUMP JUMPDEST PUSH1 0x0 DUP3 DUP3 SHR SWAP1 POP SWAP3 SWAP2 POP POP JUMP JUMPDEST PUSH1 0x0 PUSH2 0x1701 PUSH1 0x0 NOT DUP5 PUSH1 0x8 MUL PUSH2 0x16E3 JUMP JUMPDEST NOT DUP1 DUP4 AND SWAP2 POP POP SWAP3 SWAP2 POP POP JUMP JUMPDEST PUSH1 0x0 PUSH2 0x171A DUP4 DUP4 PUSH2 0x16F0 JUMP JUMPDEST SWAP2 POP DUP3 PUSH1 0x2 MUL DUP3 OR SWAP1 POP SWAP3 SWAP2 POP POP JUMP JUMPDEST DUP2 DUP2 SUB PUSH2 0x1738 JUMPI POP POP PUSH2 0x1810 JUMP JUMPDEST PUSH2 0x1741 DUP3 PUSH2 0x1524 JUMP JUMPDEST PUSH8 0xFFFFFFFFFFFFFFFF DUP2 GT ISZERO PUSH2 0x175A JUMPI PUSH2 0x1759 PUSH2 0x153A JUMP JUMPDEST JUMPDEST PUSH2 0x1764 DUP3 SLOAD PUSH2 0x14F3 JUMP JUMPDEST PUSH2 0x176F DUP3 DUP3 DUP6 PUSH2 0x169D JUMP JUMPDEST PUSH1 0x0 PUSH1 0x1F DUP4 GT PUSH1 0x1 DUP2 EQ PUSH2 0x179E JUMPI PUSH1 0x0 DUP5 ISZERO PUSH2 0x178C JUMPI DUP3 DUP8 ADD SLOAD SWAP1 POP JUMPDEST PUSH2 0x1796 DUP6 DUP3 PUSH2 0x170E JUMP JUMPDEST DUP7 SSTORE POP PUSH2 0x1809 JUMP JUMPDEST PUSH1 0x1F NOT DUP5 AND PUSH2 0x17AC DUP8 PUSH2 0x157E JUMP JUMPDEST SWAP7 POP PUSH2 0x17B7 DUP7 PUSH2 0x1569 JUMP JUMPDEST PUSH1 0x0 JUMPDEST DUP3 DUP2 LT ISZERO PUSH2 0x17DF JUMPI DUP5 DUP10 ADD SLOAD DUP3 SSTORE PUSH1 0x1 DUP3 ADD SWAP2 POP PUSH1 0x1 DUP6 ADD SWAP5 POP PUSH1 0x20 DUP2 ADD SWAP1 POP PUSH2 0x17BA JUMP JUMPDEST DUP7 DUP4 LT ISZERO PUSH2 0x17FC JUMPI DUP5 DUP10 ADD SLOAD PUSH2 0x17F8 PUSH1 0x1F DUP10 AND DUP3 PUSH2 0x16F0 JUMP JUMPDEST DUP4 SSTORE POP JUMPDEST PUSH1 0x1 PUSH1 0x2 DUP9 MUL ADD DUP9 SSTORE POP POP POP JUMPDEST POP POP POP POP POP POP JUMPDEST JUMP JUMPDEST PUSH32 0x4D616E616765722043616E204E6F7420566F7465000000000000000000000000 PUSH1 0x0 DUP3 ADD MSTORE POP JUMP JUMPDEST PUSH1 0x0 PUSH2 0x1848 PUSH1 0x14 DUP4 PUSH2 0x11BF JUMP JUMPDEST SWAP2 POP PUSH2 0x1853 DUP3 PUSH2 0x1812 JUMP JUMPDEST PUSH1 0x20 DUP3 ADD SWAP1 POP SWAP2 SWAP1 POP JUMP JUMPDEST PUSH1 0x0 PUSH1 0x20 DUP3 ADD SWAP1 POP DUP2 DUP2 SUB PUSH1 0x0 DUP4 ADD MSTORE PUSH2 0x1877 DUP2 PUSH2 0x183B JUMP JUMPDEST SWAP1 POP SWAP2 SWAP1 POP JUMP JUMPDEST PUSH32 0x596F752043616E6E6F742054616B65205061727420696E205468697320566F74 PUSH1 0x0 DUP3 ADD MSTORE PUSH32 0x6500000000000000000000000000000000000000000000000000000000000000 PUSH1 0x20 DUP3 ADD MSTORE POP JUMP JUMPDEST PUSH1 0x0 PUSH2 0x18DA PUSH1 0x21 DUP4 PUSH2 0x11BF JUMP JUMPDEST SWAP2 POP PUSH2 0x18E5 DUP3 PUSH2 0x187E JUMP JUMPDEST PUSH1 0x40 DUP3 ADD SWAP1 POP SWAP2 SWAP1 POP JUMP JUMPDEST PUSH1 0x0 PUSH1 0x20 DUP3 ADD SWAP1 POP DUP2 DUP2 SUB PUSH1 0x0 DUP4 ADD MSTORE PUSH2 0x1909 DUP2 PUSH2 0x18CD JUMP JUMPDEST SWAP1 POP SWAP2 SWAP1 POP JUMP JUMPDEST PUSH32 0x596F752043616E204F6E6C7920566F7465204F6E636500000000000000000000 PUSH1 0x0 DUP3 ADD MSTORE POP JUMP JUMPDEST PUSH1 0x0 PUSH2 0x1946 PUSH1 0x16 DUP4 PUSH2 0x11BF JUMP JUMPDEST SWAP2 POP PUSH2 0x1951 DUP3 PUSH2 0x1910 JUMP JUMPDEST PUSH1 0x20 DUP3 ADD SWAP1 POP SWAP2 SWAP1 POP JUMP JUMPDEST PUSH1 0x0 PUSH1 0x20 DUP3 ADD SWAP1 POP DUP2 DUP2 SUB PUSH1 0x0 DUP4 ADD MSTORE PUSH2 0x1975 DUP2 PUSH2 0x1939 JUMP JUMPDEST SWAP1 POP SWAP2 SWAP1 POP JUMP JUMPDEST PUSH32 0x596F752043686F7365206174205468652057726F6E672054696D650000000000 PUSH1 0x0 DUP3 ADD MSTORE POP JUMP JUMPDEST PUSH1 0x0 PUSH2 0x19B2 PUSH1 0x1B DUP4 PUSH2 0x11BF JUMP JUMPDEST SWAP2 POP PUSH2 0x19BD DUP3 PUSH2 0x197C JUMP JUMPDEST PUSH1 0x20 DUP3 ADD SWAP1 POP SWAP2 SWAP1 POP JUMP JUMPDEST PUSH1 0x0 PUSH1 0x20 DUP3 ADD SWAP1 POP DUP2 DUP2 SUB PUSH1 0x0 DUP4 ADD MSTORE PUSH2 0x19E1 DUP2 PUSH2 0x19A5 JUMP JUMPDEST SWAP1 POP SWAP2 SWAP1 POP JUMP JUMPDEST PUSH1 0x0 PUSH2 0x19F3 DUP3 PUSH2 0x1032 JUMP JUMPDEST SWAP2 POP PUSH32 0xFFFFFFFFFFFFFFFFFFFFFFFFFFFFFFFFFFFFFFFFFFFFFFFFFFFFFFFFFFFFFFFF DUP3 SUB PUSH2 0x1A25 JUMPI PUSH2 0x1A24 PUSH2 0x1432 JUMP JUMPDEST JUMPDEST PUSH1 0x1 DUP3 ADD SWAP1 POP SWAP2 SWAP1 POP JUMP JUMPDEST PUSH32 0x4D616E616765722043616E6E6F7420426520566F746572730000000000000000 PUSH1 0x0 DUP3 ADD MSTORE POP JUMP JUMPDEST PUSH1 0x0 PUSH2 0x1A66 PUSH1 0x18 DUP4 PUSH2 0x11BF JUMP JUMPDEST SWAP2 POP PUSH2 0x1A71 DUP3 PUSH2 0x1A30 JUMP JUMPDEST PUSH1 0x20 DUP3 ADD SWAP1 POP SWAP2 SWAP1 POP JUMP JUMPDEST PUSH1 0x0 PUSH1 0x20 DUP3 ADD SWAP1 POP DUP2 DUP2 SUB PUSH1 0x0 DUP4 ADD MSTORE PUSH2 0x1A95 DUP2 PUSH2 0x1A59 JUMP JUMPDEST SWAP1 POP SWAP2 SWAP1 POP JUMP JUMPDEST PUSH32 0x54686973204164647265737320697320416C7265616479206120566F74657220 PUSH1 0x0 DUP3 ADD MSTORE POP JUMP JUMPDEST PUSH1 0x0 PUSH2 0x1AD2 PUSH1 0x20 DUP4 PUSH2 0x11BF JUMP JUMPDEST SWAP2 POP PUSH2 0x1ADD DUP3 PUSH2 0x1A9C JUMP JUMPDEST PUSH1 0x20 DUP3 ADD SWAP1 POP SWAP2 SWAP1 POP JUMP JUMPDEST PUSH1 0x0 PUSH1 0x20 DUP3 ADD SWAP1 POP DUP2 DUP2 SUB PUSH1 0x0 DUP4 ADD MSTORE PUSH2 0x1B01 DUP2 PUSH2 0x1AC5 JUMP JUMPDEST SWAP1 POP SWAP2 SWAP1 POP JUMP JUMPDEST PUSH1 0x0 PUSH2 0x1B13 DUP3 PUSH2 0x1032 JUMP JUMPDEST SWAP2 POP PUSH2 0x1B1E DUP4 PUSH2 0x1032 JUMP JUMPDEST SWAP3 POP DUP3 DUP3 SUB SWAP1 POP DUP2 DUP2 GT ISZERO PUSH2 0x1B36 JUMPI PUSH2 0x1B35 PUSH2 0x1432 JUMP JUMPDEST JUMPDEST SWAP3 SWAP2 POP POP JUMP INVALID LOG2 PUSH5 0x6970667358 0x22 SLT KECCAK256 SWAP9 0xCB MOD 0x2C SWAP14 EQ SWAP7 0xB6 PUSH18 0x22B34F57EF5E717A02FD322DBEA97CC0F888 CREATE SAR LOG2 LOG4 CALLDATALOAD PUSH5 0x736F6C6343 STOP ADDMOD SLT STOP CALLER "},"gasEstimates":{"creation":{"codeDepositCost":"1405200","executionCost":"infinite","totalCost":"infinite"},"external":{"addAllowerdVoters(address)":"55860","allowedVoters(address)":"2868","choicesDatas(uint256)":"infinite","completed()":"2538","completedVoteThenTransfer()":"infinite","endDate()":"2495","fromDate()":"2473","getContractDetail()":"infinite","getStructDetail(uint256)":"infinite","getVotingCount()":"2490","manager()":"2578","pickChoice(uint256)":"infinite","totalAllowedVoters()":"2518","totalChoices()":"2475","totalVotersVoted()":"2452","votedVoters(address)":"2934","winner()":"infinite"},"internal":{"_getWinnerIndices()":"infinite","_uint2str(uint256)":"infinite"}},"methodIdentifiers":{"addAllowerdVoters(address)":"f9bc8589","allowedVoters(address)":"255adfd4","choicesDatas(uint256)":"a50239ee","completed()":"9d9a7fe9","completedVoteThenTransfer()":"2134f7f0","endDate()":"c24a0f8b","fromDate()":"a944b7a6","getContractDetail()":"1442f65a","getStructDetail(uint256)":"3dde87b4","getVotingCount()":"9c2aab5e","manager()":"481c6a75","pickChoice(uint256)":"23822a74","totalAllowedVoters()":"70babc8a","totalChoices()":"1632c03f","totalVotersVoted()":"78622c5d","votedVoters(address)":"a3d45314","winner()":"dfbf53ae"}},"storageLayout":{"storage":[{"astId":61,"contract":"Voting.sol:Voting","label":"manager","offset":0,"slot":"0","type":"t_address"},{"astId":63,"contract":"Voting.sol:Voting","label":"winner","offset":0,"slot":"1","type":"t_string_storage"},{"astId":65,"contract":"Voting.sol:Voting","label":"totalChoices","offset":0,"slot":"2","type":"t_uint256"},{"astId":67,"contract":"Voting.sol:Voting","label":"fromDate","offset":0,"slot":"3","type":"t_uint256"},{"astId":69,"contract":"Voting.sol:Voting","label":"endDate","offset":0,"slot":"4","type":"t_uint256"},{"astId":71,"contract":"Voting.sol:Voting","label":"completed","offset":0,"slot":"5","type":"t_bool"},{"astId":75,"contract":"Voting.sol:Voting","label":"votedVoters","offset":0,"slot":"6","type":"t_mapping(t_address,t_bool)"},{"astId":77,"contract":"Voting.sol:Voting","label":"totalVotersVoted","offset":0,"slot":"7","type":"t_uint256"},{"astId":81,"contract":"Voting.sol:Voting","label":"allowedVoters","offset":0,"slot":"8","type":"t_mapping(t_address,t_bool)"},{"astId":83,"contract":"Voting.sol:Voting","label":"totalAllowedVoters","offset":0,"slot":"9","type":"t_uint256"},{"astId":87,"contract":"Voting.sol:Voting","label":"choicesDatas","offset":0,"slot":"10","type":"t_array(t_struct(choicesData)95_storage)dyn_storage"}],"types":{"t_address":{"encoding":"inplace","label":"address","numberOfBytes":"20"},"t_address_payable":{"encoding":"inplace","label":"address payable","numberOfBytes":"20"},"t_array(t_address_payable)dyn_storage":{"base":"t_address_payable","encoding":"dynamic_array","label":"address payable[]","numberOfBytes":"32"},"t_array(t_struct(choicesData)95_storage)dyn_storage":{"base":"t_struct(choicesData)95_storage","encoding":"dynamic_array","label":"struct Voting.choicesData[]","numberOfBytes":"32"},"t_bool":{"encoding":"inplace","label":"bool","numberOfBytes":"1"},"t_mapping(t_address,t_bool)":{"encoding":"mapping","key":"t_address","label":"mapping(address => bool)","numberOfBytes":"32","value":"t_bool"},"t_string_storage":{"encoding":"bytes","label":"string","numberOfBytes":"32"},"t_struct(choicesData)95_storage":{"encoding":"inplace","label":"struct Voting.choicesData","members":[{"astId":89,"contract":"Voting.sol:Voting","label":"description","offset":0,"slot":"0","type":"t_string_storage"},{"astId":91,"contract":"Voting.sol:Voting","label":"receivedVotes","offset":0,"slot":"1","type":"t_uint256"},{"astId":94,"contract":"Voting.sol:Voting","label":"voters","offset":0,"slot":"2","type":"t_array(t_address_payable)dyn_storage"}],"numberOfBytes":"96"},"t_uint256":{"encoding":"inplace","label":"uint256","numberOfBytes":"32"}}},"userdoc":{"kind":"user","methods":{},"version":1}}