{"abi":[{"inputs":[{"internalType":"string","name":"title","type":"string"},{"internalType":"string[]","name":"choiceNames","type":"string[]"},{"internalType":"uint32","name":"fromDate","type":"uint32"},{"internalType":"uint32","name":"endDate","type":"uint32"}],"name":"createVoting","outputs":[],"stateMutability":"nonpayable","type":"function"},{"inputs":[{"internalType":"uint256","name":"","type":"uint256"}],"name":"deployedVotings","outputs":[{"internalType":"address","name":"","type":"address"}],"stateMutability":"view","type":"function"},{"inputs":[],"name":"getDeployedVotings","outputs":[{"internalType":"address[]","name":"","type":"address[]"}],"stateMutability":"view","type":"function"}],"devdoc":{"kind":"dev","methods":{},"version":1},"evm":{"assembly":"    /* \"Voting.sol\":62:580  contract VotingFactory {... */\n  mstore(0x40, 0x80)\n  callvalue\n  dup1\n  iszero\n  tag_1\n  jumpi\n  0x00\n  dup1\n  revert\ntag_1:\n  pop\n  dataSize(sub_0)\n  dup1\n  dataOffset(sub_0)\n  0x00\n  codecopy\n  0x00\n  return\nstop\n\nsub_0: assembly {\n        /* \"Voting.sol\":62:580  contract VotingFactory {... */\n      mstore(0x40, 0x80)\n      callvalue\n      dup1\n      iszero\n      tag_1\n      jumpi\n      0x00\n      dup1\n      revert\n    tag_1:\n      pop\n      jumpi(tag_2, lt(calldatasize, 0x04))\n      shr(0xe0, calldataload(0x00))\n      dup1\n      0x298f37ab\n      eq\n      tag_3\n      jumpi\n      dup1\n      0x3e04b578\n      eq\n      tag_4\n      jumpi\n      dup1\n      0xd9b6ae23\n      eq\n      tag_5\n      jumpi\n    tag_2:\n      0x00\n      dup1\n      revert\n        /* \"Voting.sol\":92:124  address[] public deployedVotings */\n    tag_3:\n      tag_6\n      0x04\n      dup1\n      calldatasize\n      sub\n      dup2\n      add\n      swap1\n      tag_7\n      swap2\n      swap1\n      tag_8\n      jump\t// in\n    tag_7:\n      tag_9\n      jump\t// in\n    tag_6:\n      mload(0x40)\n      tag_10\n      swap2\n      swap1\n      tag_11\n      jump\t// in\n    tag_10:\n      mload(0x40)\n      dup1\n      swap2\n      sub\n      swap1\n      return\n        /* \"Voting.sol\":465:577  function getDeployedVotings() external view returns (address[] memory) {... */\n    tag_4:\n      tag_12\n      tag_13\n      jump\t// in\n    tag_12:\n      mload(0x40)\n      tag_14\n      swap2\n      swap1\n      tag_15\n      jump\t// in\n    tag_14:\n      mload(0x40)\n      dup1\n      swap2\n      sub\n      swap1\n      return\n        /* \"Voting.sol\":133:457  function createVoting(... */\n    tag_5:\n      tag_16\n      0x04\n      dup1\n      calldatasize\n      sub\n      dup2\n      add\n      swap1\n      tag_17\n      swap2\n      swap1\n      tag_18\n      jump\t// in\n    tag_17:\n      tag_19\n      jump\t// in\n    tag_16:\n      stop\n        /* \"Voting.sol\":92:124  address[] public deployedVotings */\n    tag_9:\n      0x00\n      dup2\n      dup2\n      sload\n      dup2\n      lt\n      tag_20\n      jumpi\n      0x00\n      dup1\n      revert\n    tag_20:\n      swap1\n      0x00\n      mstore\n      keccak256(0x00, 0x20)\n      add\n      0x00\n      swap2\n      pop\n      sload\n      swap1\n      0x0100\n      exp\n      swap1\n      div\n      0xffffffffffffffffffffffffffffffffffffffff\n      and\n      dup2\n      jump\t// out\n        /* \"Voting.sol\":465:577  function getDeployedVotings() external view returns (address[] memory) {... */\n    tag_13:\n        /* \"Voting.sol\":518:534  address[] memory */\n      0x60\n        /* \"Voting.sol\":554:569  deployedVotings */\n      0x00\n        /* \"Voting.sol\":547:569  return deployedVotings */\n      dup1\n      sload\n      dup1\n      0x20\n      mul\n      0x20\n      add\n      mload(0x40)\n      swap1\n      dup2\n      add\n      0x40\n      mstore\n      dup1\n      swap3\n      swap2\n      swap1\n      dup2\n      dup2\n      mstore\n      0x20\n      add\n      dup3\n      dup1\n      sload\n      dup1\n      iszero\n      tag_23\n      jumpi\n      0x20\n      mul\n      dup3\n      add\n      swap2\n      swap1\n      0x00\n      mstore\n      keccak256(0x00, 0x20)\n      swap1\n    tag_24:\n      dup2\n      0x00\n      swap1\n      sload\n      swap1\n      0x0100\n      exp\n      swap1\n      div\n      0xffffffffffffffffffffffffffffffffffffffff\n      and\n      0xffffffffffffffffffffffffffffffffffffffff\n      and\n      dup2\n      mstore\n      0x20\n      add\n      swap1\n      0x01\n      add\n      swap1\n      dup1\n      dup4\n      gt\n      tag_24\n      jumpi\n    tag_23:\n      pop\n      pop\n      pop\n      pop\n      pop\n      swap1\n      pop\n        /* \"Voting.sol\":465:577  function getDeployedVotings() external view returns (address[] memory) {... */\n      swap1\n      jump\t// out\n        /* \"Voting.sol\":133:457  function createVoting(... */\n    tag_19:\n        /* \"Voting.sol\":301:316  deployedVotings */\n      0x00\n        /* \"Voting.sol\":373:378  title */\n      dup5\n        /* \"Voting.sol\":380:391  choiceNames */\n      dup5\n        /* \"Voting.sol\":393:401  fromDate */\n      dup5\n        /* \"Voting.sol\":403:410  endDate */\n      dup5\n        /* \"Voting.sol\":412:422  msg.sender */\n      caller\n        /* \"Voting.sol\":362:423  new Voting(title, choiceNames, fromDate, endDate, msg.sender) */\n      mload(0x40)\n      tag_26\n      swap1\n      tag_27\n      jump\t// in\n    tag_26:\n      tag_28\n      swap6\n      swap5\n      swap4\n      swap3\n      swap2\n      swap1\n      tag_29\n      jump\t// in\n    tag_28:\n      mload(0x40)\n      dup1\n      swap2\n      sub\n      swap1\n      0x00\n      create\n      dup1\n      iszero\n      dup1\n      iszero\n      tag_30\n      jumpi\n      returndatasize\n      0x00\n      dup1\n      returndatacopy\n      revert(0x00, returndatasize)\n    tag_30:\n      pop\n        /* \"Voting.sol\":301:449  deployedVotings.push(... */\n      swap1\n      dup1\n      0x01\n      dup2\n      sload\n      add\n      dup1\n      dup3\n      sstore\n      dup1\n      swap2\n      pop\n      pop\n      0x01\n      swap1\n      sub\n      swap1\n      0x00\n      mstore\n      keccak256(0x00, 0x20)\n      add\n      0x00\n      swap1\n      swap2\n      swap1\n      swap2\n      swap1\n      swap2\n      0x0100\n      exp\n      dup2\n      sload\n      dup2\n      0xffffffffffffffffffffffffffffffffffffffff\n      mul\n      not\n      and\n      swap1\n      dup4\n      0xffffffffffffffffffffffffffffffffffffffff\n      and\n      mul\n      or\n      swap1\n      sstore\n      pop\n        /* \"Voting.sol\":133:457  function createVoting(... */\n      pop\n      pop\n      pop\n      pop\n      jump\t// out\n    tag_27:\n      dataSize(sub_0)\n      dup1\n      dataOffset(sub_0)\n      dup4\n      codecopy\n      add\n      swap1\n      jump\t// out\n        /* \"#utility.yul\":7:82   */\n    tag_32:\n        /* \"#utility.yul\":40:46   */\n      0x00\n        /* \"#utility.yul\":73:75   */\n      0x40\n        /* \"#utility.yul\":67:76   */\n      mload\n        /* \"#utility.yul\":57:76   */\n      swap1\n      pop\n        /* \"#utility.yul\":7:82   */\n      swap1\n      jump\t// out\n        /* \"#utility.yul\":88:205   */\n    tag_33:\n        /* \"#utility.yul\":197:198   */\n      0x00\n        /* \"#utility.yul\":194:195   */\n      dup1\n        /* \"#utility.yul\":187:199   */\n      revert\n        /* \"#utility.yul\":211:328   */\n    tag_34:\n        /* \"#utility.yul\":320:321   */\n      0x00\n        /* \"#utility.yul\":317:318   */\n      dup1\n        /* \"#utility.yul\":310:322   */\n      revert\n        /* \"#utility.yul\":334:411   */\n    tag_35:\n        /* \"#utility.yul\":371:378   */\n      0x00\n        /* \"#utility.yul\":400:405   */\n      dup2\n        /* \"#utility.yul\":389:405   */\n      swap1\n      pop\n        /* \"#utility.yul\":334:411   */\n      swap2\n      swap1\n      pop\n      jump\t// out\n        /* \"#utility.yul\":417:539   */\n    tag_36:\n        /* \"#utility.yul\":490:514   */\n      tag_84\n        /* \"#utility.yul\":508:513   */\n      dup2\n        /* \"#utility.yul\":490:514   */\n      tag_35\n      jump\t// in\n    tag_84:\n        /* \"#utility.yul\":483:488   */\n      dup2\n        /* \"#utility.yul\":480:515   */\n      eq\n        /* \"#utility.yul\":470:533   */\n      tag_85\n      jumpi\n        /* \"#utility.yul\":529:530   */\n      0x00\n        /* \"#utility.yul\":526:527   */\n      dup1\n        /* \"#utility.yul\":519:531   */\n      revert\n        /* \"#utility.yul\":470:533   */\n    tag_85:\n        /* \"#utility.yul\":417:539   */\n      pop\n      jump\t// out\n        /* \"#utility.yul\":545:684   */\n    tag_37:\n        /* \"#utility.yul\":591:596   */\n      0x00\n        /* \"#utility.yul\":629:635   */\n      dup2\n        /* \"#utility.yul\":616:636   */\n      calldataload\n        /* \"#utility.yul\":607:636   */\n      swap1\n      pop\n        /* \"#utility.yul\":645:678   */\n      tag_87\n        /* \"#utility.yul\":672:677   */\n      dup2\n        /* \"#utility.yul\":645:678   */\n      tag_36\n      jump\t// in\n    tag_87:\n        /* \"#utility.yul\":545:684   */\n      swap3\n      swap2\n      pop\n      pop\n      jump\t// out\n        /* \"#utility.yul\":690:1019   */\n    tag_8:\n        /* \"#utility.yul\":749:755   */\n      0x00\n        /* \"#utility.yul\":798:800   */\n      0x20\n        /* \"#utility.yul\":786:795   */\n      dup3\n        /* \"#utility.yul\":777:784   */\n      dup5\n        /* \"#utility.yul\":773:796   */\n      sub\n        /* \"#utility.yul\":769:801   */\n      slt\n        /* \"#utility.yul\":766:885   */\n      iszero\n      tag_89\n      jumpi\n        /* \"#utility.yul\":804:883   */\n      tag_90\n      tag_33\n      jump\t// in\n    tag_90:\n        /* \"#utility.yul\":766:885   */\n    tag_89:\n        /* \"#utility.yul\":924:925   */\n      0x00\n        /* \"#utility.yul\":949:1002   */\n      tag_91\n        /* \"#utility.yul\":994:1001   */\n      dup5\n        /* \"#utility.yul\":985:991   */\n      dup3\n        /* \"#utility.yul\":974:983   */\n      dup6\n        /* \"#utility.yul\":970:992   */\n      add\n        /* \"#utility.yul\":949:1002   */\n      tag_37\n      jump\t// in\n    tag_91:\n        /* \"#utility.yul\":939:1002   */\n      swap2\n      pop\n        /* \"#utility.yul\":895:1012   */\n      pop\n        /* \"#utility.yul\":690:1019   */\n      swap3\n      swap2\n      pop\n      pop\n      jump\t// out\n        /* \"#utility.yul\":1025:1151   */\n    tag_38:\n        /* \"#utility.yul\":1062:1069   */\n      0x00\n        /* \"#utility.yul\":1102:1144   */\n      0xffffffffffffffffffffffffffffffffffffffff\n        /* \"#utility.yul\":1095:1100   */\n      dup3\n        /* \"#utility.yul\":1091:1145   */\n      and\n        /* \"#utility.yul\":1080:1145   */\n      swap1\n      pop\n        /* \"#utility.yul\":1025:1151   */\n      swap2\n      swap1\n      pop\n      jump\t// out\n        /* \"#utility.yul\":1157:1253   */\n    tag_39:\n        /* \"#utility.yul\":1194:1201   */\n      0x00\n        /* \"#utility.yul\":1223:1247   */\n      tag_94\n        /* \"#utility.yul\":1241:1246   */\n      dup3\n        /* \"#utility.yul\":1223:1247   */\n      tag_38\n      jump\t// in\n    tag_94:\n        /* \"#utility.yul\":1212:1247   */\n      swap1\n      pop\n        /* \"#utility.yul\":1157:1253   */\n      swap2\n      swap1\n      pop\n      jump\t// out\n        /* \"#utility.yul\":1259:1377   */\n    tag_40:\n        /* \"#utility.yul\":1346:1370   */\n      tag_96\n        /* \"#utility.yul\":1364:1369   */\n      dup2\n        /* \"#utility.yul\":1346:1370   */\n      tag_39\n      jump\t// in\n    tag_96:\n        /* \"#utility.yul\":1341:1344   */\n      dup3\n        /* \"#utility.yul\":1334:1371   */\n      mstore\n        /* \"#utility.yul\":1259:1377   */\n      pop\n      pop\n      jump\t// out\n        /* \"#utility.yul\":1383:1605   */\n    tag_11:\n        /* \"#utility.yul\":1476:1480   */\n      0x00\n        /* \"#utility.yul\":1514:1516   */\n      0x20\n        /* \"#utility.yul\":1503:1512   */\n      dup3\n        /* \"#utility.yul\":1499:1517   */\n      add\n        /* \"#utility.yul\":1491:1517   */\n      swap1\n      pop\n        /* \"#utility.yul\":1527:1598   */\n      tag_98\n        /* \"#utility.yul\":1595:1596   */\n      0x00\n        /* \"#utility.yul\":1584:1593   */\n      dup4\n        /* \"#utility.yul\":1580:1597   */\n      add\n        /* \"#utility.yul\":1571:1577   */\n      dup5\n        /* \"#utility.yul\":1527:1598   */\n      tag_40\n      jump\t// in\n    tag_98:\n        /* \"#utility.yul\":1383:1605   */\n      swap3\n      swap2\n      pop\n      pop\n      jump\t// out\n        /* \"#utility.yul\":1611:1725   */\n    tag_41:\n        /* \"#utility.yul\":1678:1684   */\n      0x00\n        /* \"#utility.yul\":1712:1717   */\n      dup2\n        /* \"#utility.yul\":1706:1718   */\n      mload\n        /* \"#utility.yul\":1696:1718   */\n      swap1\n      pop\n        /* \"#utility.yul\":1611:1725   */\n      swap2\n      swap1\n      pop\n      jump\t// out\n        /* \"#utility.yul\":1731:1915   */\n    tag_42:\n        /* \"#utility.yul\":1830:1841   */\n      0x00\n        /* \"#utility.yul\":1864:1870   */\n      dup3\n        /* \"#utility.yul\":1859:1862   */\n      dup3\n        /* \"#utility.yul\":1852:1871   */\n      mstore\n        /* \"#utility.yul\":1904:1908   */\n      0x20\n        /* \"#utility.yul\":1899:1902   */\n      dup3\n        /* \"#utility.yul\":1895:1909   */\n      add\n        /* \"#utility.yul\":1880:1909   */\n      swap1\n      pop\n        /* \"#utility.yul\":1731:1915   */\n      swap3\n      swap2\n      pop\n      pop\n      jump\t// out\n        /* \"#utility.yul\":1921:2053   */\n    tag_43:\n        /* \"#utility.yul\":1988:1992   */\n      0x00\n        /* \"#utility.yul\":2011:2014   */\n      dup2\n        /* \"#utility.yul\":2003:2014   */\n      swap1\n      pop\n        /* \"#utility.yul\":2041:2045   */\n      0x20\n        /* \"#utility.yul\":2036:2039   */\n      dup3\n        /* \"#utility.yul\":2032:2046   */\n      add\n        /* \"#utility.yul\":2024:2046   */\n      swap1\n      pop\n        /* \"#utility.yul\":1921:2053   */\n      swap2\n      swap1\n      pop\n      jump\t// out\n        /* \"#utility.yul\":2059:2167   */\n    tag_44:\n        /* \"#utility.yul\":2136:2160   */\n      tag_103\n        /* \"#utility.yul\":2154:2159   */\n      dup2\n        /* \"#utility.yul\":2136:2160   */\n      tag_39\n      jump\t// in\n    tag_103:\n        /* \"#utility.yul\":2131:2134   */\n      dup3\n        /* \"#utility.yul\":2124:2161   */\n      mstore\n        /* \"#utility.yul\":2059:2167   */\n      pop\n      pop\n      jump\t// out\n        /* \"#utility.yul\":2173:2352   */\n    tag_45:\n        /* \"#utility.yul\":2242:2252   */\n      0x00\n        /* \"#utility.yul\":2263:2309   */\n      tag_105\n        /* \"#utility.yul\":2305:2308   */\n      dup4\n        /* \"#utility.yul\":2297:2303   */\n      dup4\n        /* \"#utility.yul\":2263:2309   */\n      tag_44\n      jump\t// in\n    tag_105:\n        /* \"#utility.yul\":2341:2345   */\n      0x20\n        /* \"#utility.yul\":2336:2339   */\n      dup4\n        /* \"#utility.yul\":2332:2346   */\n      add\n        /* \"#utility.yul\":2318:2346   */\n      swap1\n      pop\n        /* \"#utility.yul\":2173:2352   */\n      swap3\n      swap2\n      pop\n      pop\n      jump\t// out\n        /* \"#utility.yul\":2358:2471   */\n    tag_46:\n        /* \"#utility.yul\":2428:2432   */\n      0x00\n        /* \"#utility.yul\":2460:2464   */\n      0x20\n        /* \"#utility.yul\":2455:2458   */\n      dup3\n        /* \"#utility.yul\":2451:2465   */\n      add\n        /* \"#utility.yul\":2443:2465   */\n      swap1\n      pop\n        /* \"#utility.yul\":2358:2471   */\n      swap2\n      swap1\n      pop\n      jump\t// out\n        /* \"#utility.yul\":2507:3239   */\n    tag_47:\n        /* \"#utility.yul\":2626:2629   */\n      0x00\n        /* \"#utility.yul\":2655:2709   */\n      tag_108\n        /* \"#utility.yul\":2703:2708   */\n      dup3\n        /* \"#utility.yul\":2655:2709   */\n      tag_41\n      jump\t// in\n    tag_108:\n        /* \"#utility.yul\":2725:2811   */\n      tag_109\n        /* \"#utility.yul\":2804:2810   */\n      dup2\n        /* \"#utility.yul\":2799:2802   */\n      dup6\n        /* \"#utility.yul\":2725:2811   */\n      tag_42\n      jump\t// in\n    tag_109:\n        /* \"#utility.yul\":2718:2811   */\n      swap4\n      pop\n        /* \"#utility.yul\":2835:2891   */\n      tag_110\n        /* \"#utility.yul\":2885:2890   */\n      dup4\n        /* \"#utility.yul\":2835:2891   */\n      tag_43\n      jump\t// in\n    tag_110:\n        /* \"#utility.yul\":2914:2921   */\n      dup1\n        /* \"#utility.yul\":2945:2946   */\n      0x00\n        /* \"#utility.yul\":2930:3214   */\n    tag_111:\n        /* \"#utility.yul\":2955:2961   */\n      dup4\n        /* \"#utility.yul\":2952:2953   */\n      dup2\n        /* \"#utility.yul\":2949:2962   */\n      lt\n        /* \"#utility.yul\":2930:3214   */\n      iszero\n      tag_113\n      jumpi\n        /* \"#utility.yul\":3031:3037   */\n      dup2\n        /* \"#utility.yul\":3025:3038   */\n      mload\n        /* \"#utility.yul\":3058:3121   */\n      tag_114\n        /* \"#utility.yul\":3117:3120   */\n      dup9\n        /* \"#utility.yul\":3102:3115   */\n      dup3\n        /* \"#utility.yul\":3058:3121   */\n      tag_45\n      jump\t// in\n    tag_114:\n        /* \"#utility.yul\":3051:3121   */\n      swap8\n      pop\n        /* \"#utility.yul\":3144:3204   */\n      tag_115\n        /* \"#utility.yul\":3197:3203   */\n      dup4\n        /* \"#utility.yul\":3144:3204   */\n      tag_46\n      jump\t// in\n    tag_115:\n        /* \"#utility.yul\":3134:3204   */\n      swap3\n      pop\n        /* \"#utility.yul\":2990:3214   */\n      pop\n        /* \"#utility.yul\":2977:2978   */\n      0x01\n        /* \"#utility.yul\":2974:2975   */\n      dup2\n        /* \"#utility.yul\":2970:2979   */\n      add\n        /* \"#utility.yul\":2965:2979   */\n      swap1\n      pop\n        /* \"#utility.yul\":2930:3214   */\n      jump(tag_111)\n    tag_113:\n        /* \"#utility.yul\":2934:2948   */\n      pop\n        /* \"#utility.yul\":3230:3233   */\n      dup6\n        /* \"#utility.yul\":3223:3233   */\n      swap4\n      pop\n        /* \"#utility.yul\":2631:3239   */\n      pop\n      pop\n      pop\n        /* \"#utility.yul\":2507:3239   */\n      swap3\n      swap2\n      pop\n      pop\n      jump\t// out\n        /* \"#utility.yul\":3245:3618   */\n    tag_15:\n        /* \"#utility.yul\":3388:3392   */\n      0x00\n        /* \"#utility.yul\":3426:3428   */\n      0x20\n        /* \"#utility.yul\":3415:3424   */\n      dup3\n        /* \"#utility.yul\":3411:3429   */\n      add\n        /* \"#utility.yul\":3403:3429   */\n      swap1\n      pop\n        /* \"#utility.yul\":3475:3484   */\n      dup2\n        /* \"#utility.yul\":3469:3473   */\n      dup2\n        /* \"#utility.yul\":3465:3485   */\n      sub\n        /* \"#utility.yul\":3461:3462   */\n      0x00\n        /* \"#utility.yul\":3450:3459   */\n      dup4\n        /* \"#utility.yul\":3446:3463   */\n      add\n        /* \"#utility.yul\":3439:3486   */\n      mstore\n        /* \"#utility.yul\":3503:3611   */\n      tag_117\n        /* \"#utility.yul\":3606:3610   */\n      dup2\n        /* \"#utility.yul\":3597:3603   */\n      dup5\n        /* \"#utility.yul\":3503:3611   */\n      tag_47\n      jump\t// in\n    tag_117:\n        /* \"#utility.yul\":3495:3611   */\n      swap1\n      pop\n        /* \"#utility.yul\":3245:3618   */\n      swap3\n      swap2\n      pop\n      pop\n      jump\t// out\n        /* \"#utility.yul\":3624:3741   */\n    tag_48:\n        /* \"#utility.yul\":3733:3734   */\n      0x00\n        /* \"#utility.yul\":3730:3731   */\n      dup1\n        /* \"#utility.yul\":3723:3735   */\n      revert\n        /* \"#utility.yul\":3747:3864   */\n    tag_49:\n        /* \"#utility.yul\":3856:3857   */\n      0x00\n        /* \"#utility.yul\":3853:3854   */\n      dup1\n        /* \"#utility.yul\":3846:3858   */\n      revert\n        /* \"#utility.yul\":3870:3972   */\n    tag_50:\n        /* \"#utility.yul\":3911:3917   */\n      0x00\n        /* \"#utility.yul\":3962:3964   */\n      0x1f\n        /* \"#utility.yul\":3958:3965   */\n      not\n        /* \"#utility.yul\":3953:3955   */\n      0x1f\n        /* \"#utility.yul\":3946:3951   */\n      dup4\n        /* \"#utility.yul\":3942:3956   */\n      add\n        /* \"#utility.yul\":3938:3966   */\n      and\n        /* \"#utility.yul\":3928:3966   */\n      swap1\n      pop\n        /* \"#utility.yul\":3870:3972   */\n      swap2\n      swap1\n      pop\n      jump\t// out\n        /* \"#utility.yul\":3978:4158   */\n    tag_51:\n        /* \"#utility.yul\":4026:4103   */\n      0x4e487b7100000000000000000000000000000000000000000000000000000000\n        /* \"#utility.yul\":4023:4024   */\n      0x00\n        /* \"#utility.yul\":4016:4104   */\n      mstore\n        /* \"#utility.yul\":4123:4127   */\n      0x41\n        /* \"#utility.yul\":4120:4121   */\n      0x04\n        /* \"#utility.yul\":4113:4128   */\n      mstore\n        /* \"#utility.yul\":4147:4151   */\n      0x24\n        /* \"#utility.yul\":4144:4145   */\n      0x00\n        /* \"#utility.yul\":4137:4152   */\n      revert\n        /* \"#utility.yul\":4164:4445   */\n    tag_52:\n        /* \"#utility.yul\":4247:4274   */\n      tag_123\n        /* \"#utility.yul\":4269:4273   */\n      dup3\n        /* \"#utility.yul\":4247:4274   */\n      tag_50\n      jump\t// in\n    tag_123:\n        /* \"#utility.yul\":4239:4245   */\n      dup2\n        /* \"#utility.yul\":4235:4275   */\n      add\n        /* \"#utility.yul\":4377:4383   */\n      dup2\n        /* \"#utility.yul\":4365:4375   */\n      dup2\n        /* \"#utility.yul\":4362:4384   */\n      lt\n        /* \"#utility.yul\":4341:4359   */\n      0xffffffffffffffff\n        /* \"#utility.yul\":4329:4339   */\n      dup3\n        /* \"#utility.yul\":4326:4360   */\n      gt\n        /* \"#utility.yul\":4323:4385   */\n      or\n        /* \"#utility.yul\":4320:4408   */\n      iszero\n      tag_124\n      jumpi\n        /* \"#utility.yul\":4388:4406   */\n      tag_125\n      tag_51\n      jump\t// in\n    tag_125:\n        /* \"#utility.yul\":4320:4408   */\n    tag_124:\n        /* \"#utility.yul\":4428:4438   */\n      dup1\n        /* \"#utility.yul\":4424:4426   */\n      0x40\n        /* \"#utility.yul\":4417:4439   */\n      mstore\n        /* \"#utility.yul\":4207:4445   */\n      pop\n        /* \"#utility.yul\":4164:4445   */\n      pop\n      pop\n      jump\t// out\n        /* \"#utility.yul\":4451:4580   */\n    tag_53:\n        /* \"#utility.yul\":4485:4491   */\n      0x00\n        /* \"#utility.yul\":4512:4532   */\n      tag_127\n      tag_32\n      jump\t// in\n    tag_127:\n        /* \"#utility.yul\":4502:4532   */\n      swap1\n      pop\n        /* \"#utility.yul\":4541:4574   */\n      tag_128\n        /* \"#utility.yul\":4569:4573   */\n      dup3\n        /* \"#utility.yul\":4561:4567   */\n      dup3\n        /* \"#utility.yul\":4541:4574   */\n      tag_52\n      jump\t// in\n    tag_128:\n        /* \"#utility.yul\":4451:4580   */\n      swap2\n      swap1\n      pop\n      jump\t// out\n        /* \"#utility.yul\":4586:4894   */\n    tag_54:\n        /* \"#utility.yul\":4648:4652   */\n      0x00\n        /* \"#utility.yul\":4738:4756   */\n      0xffffffffffffffff\n        /* \"#utility.yul\":4730:4736   */\n      dup3\n        /* \"#utility.yul\":4727:4757   */\n      gt\n        /* \"#utility.yul\":4724:4780   */\n      iszero\n      tag_130\n      jumpi\n        /* \"#utility.yul\":4760:4778   */\n      tag_131\n      tag_51\n      jump\t// in\n    tag_131:\n        /* \"#utility.yul\":4724:4780   */\n    tag_130:\n        /* \"#utility.yul\":4798:4827   */\n      tag_132\n        /* \"#utility.yul\":4820:4826   */\n      dup3\n        /* \"#utility.yul\":4798:4827   */\n      tag_50\n      jump\t// in\n    tag_132:\n        /* \"#utility.yul\":4790:4827   */\n      swap1\n      pop\n        /* \"#utility.yul\":4882:4886   */\n      0x20\n        /* \"#utility.yul\":4876:4880   */\n      dup2\n        /* \"#utility.yul\":4872:4887   */\n      add\n        /* \"#utility.yul\":4864:4887   */\n      swap1\n      pop\n        /* \"#utility.yul\":4586:4894   */\n      swap2\n      swap1\n      pop\n      jump\t// out\n        /* \"#utility.yul\":4900:5046   */\n    tag_55:\n        /* \"#utility.yul\":4997:5003   */\n      dup3\n        /* \"#utility.yul\":4992:4995   */\n      dup2\n        /* \"#utility.yul\":4987:4990   */\n      dup4\n        /* \"#utility.yul\":4974:5004   */\n      calldatacopy\n        /* \"#utility.yul\":5038:5039   */\n      0x00\n        /* \"#utility.yul\":5029:5035   */\n      dup4\n        /* \"#utility.yul\":5024:5027   */\n      dup4\n        /* \"#utility.yul\":5020:5036   */\n      add\n        /* \"#utility.yul\":5013:5040   */\n      mstore\n        /* \"#utility.yul\":4900:5046   */\n      pop\n      pop\n      pop\n      jump\t// out\n        /* \"#utility.yul\":5052:5477   */\n    tag_56:\n        /* \"#utility.yul\":5130:5135   */\n      0x00\n        /* \"#utility.yul\":5155:5221   */\n      tag_135\n        /* \"#utility.yul\":5171:5220   */\n      tag_136\n        /* \"#utility.yul\":5213:5219   */\n      dup5\n        /* \"#utility.yul\":5171:5220   */\n      tag_54\n      jump\t// in\n    tag_136:\n        /* \"#utility.yul\":5155:5221   */\n      tag_53\n      jump\t// in\n    tag_135:\n        /* \"#utility.yul\":5146:5221   */\n      swap1\n      pop\n        /* \"#utility.yul\":5244:5250   */\n      dup3\n        /* \"#utility.yul\":5237:5242   */\n      dup2\n        /* \"#utility.yul\":5230:5251   */\n      mstore\n        /* \"#utility.yul\":5282:5286   */\n      0x20\n        /* \"#utility.yul\":5275:5280   */\n      dup2\n        /* \"#utility.yul\":5271:5287   */\n      add\n        /* \"#utility.yul\":5320:5323   */\n      dup5\n        /* \"#utility.yul\":5311:5317   */\n      dup5\n        /* \"#utility.yul\":5306:5309   */\n      dup5\n        /* \"#utility.yul\":5302:5318   */\n      add\n        /* \"#utility.yul\":5299:5324   */\n      gt\n        /* \"#utility.yul\":5296:5408   */\n      iszero\n      tag_137\n      jumpi\n        /* \"#utility.yul\":5327:5406   */\n      tag_138\n      tag_49\n      jump\t// in\n    tag_138:\n        /* \"#utility.yul\":5296:5408   */\n    tag_137:\n        /* \"#utility.yul\":5417:5471   */\n      tag_139\n        /* \"#utility.yul\":5464:5470   */\n      dup5\n        /* \"#utility.yul\":5459:5462   */\n      dup3\n        /* \"#utility.yul\":5454:5457   */\n      dup6\n        /* \"#utility.yul\":5417:5471   */\n      tag_55\n      jump\t// in\n    tag_139:\n        /* \"#utility.yul\":5136:5477   */\n      pop\n        /* \"#utility.yul\":5052:5477   */\n      swap4\n      swap3\n      pop\n      pop\n      pop\n      jump\t// out\n        /* \"#utility.yul\":5497:5837   */\n    tag_57:\n        /* \"#utility.yul\":5553:5558   */\n      0x00\n        /* \"#utility.yul\":5602:5605   */\n      dup3\n        /* \"#utility.yul\":5595:5599   */\n      0x1f\n        /* \"#utility.yul\":5587:5593   */\n      dup4\n        /* \"#utility.yul\":5583:5600   */\n      add\n        /* \"#utility.yul\":5579:5606   */\n      slt\n        /* \"#utility.yul\":5569:5691   */\n      tag_141\n      jumpi\n        /* \"#utility.yul\":5610:5689   */\n      tag_142\n      tag_48\n      jump\t// in\n    tag_142:\n        /* \"#utility.yul\":5569:5691   */\n    tag_141:\n        /* \"#utility.yul\":5727:5733   */\n      dup2\n        /* \"#utility.yul\":5714:5734   */\n      calldataload\n        /* \"#utility.yul\":5752:5831   */\n      tag_143\n        /* \"#utility.yul\":5827:5830   */\n      dup5\n        /* \"#utility.yul\":5819:5825   */\n      dup3\n        /* \"#utility.yul\":5812:5816   */\n      0x20\n        /* \"#utility.yul\":5804:5810   */\n      dup7\n        /* \"#utility.yul\":5800:5817   */\n      add\n        /* \"#utility.yul\":5752:5831   */\n      tag_56\n      jump\t// in\n    tag_143:\n        /* \"#utility.yul\":5743:5831   */\n      swap2\n      pop\n        /* \"#utility.yul\":5559:5837   */\n      pop\n        /* \"#utility.yul\":5497:5837   */\n      swap3\n      swap2\n      pop\n      pop\n      jump\t// out\n        /* \"#utility.yul\":5843:6164   */\n    tag_58:\n        /* \"#utility.yul\":5930:5934   */\n      0x00\n        /* \"#utility.yul\":6020:6038   */\n      0xffffffffffffffff\n        /* \"#utility.yul\":6012:6018   */\n      dup3\n        /* \"#utility.yul\":6009:6039   */\n      gt\n        /* \"#utility.yul\":6006:6062   */\n      iszero\n      tag_145\n      jumpi\n        /* \"#utility.yul\":6042:6060   */\n      tag_146\n      tag_51\n      jump\t// in\n    tag_146:\n        /* \"#utility.yul\":6006:6062   */\n    tag_145:\n        /* \"#utility.yul\":6092:6096   */\n      0x20\n        /* \"#utility.yul\":6084:6090   */\n      dup3\n        /* \"#utility.yul\":6080:6097   */\n      mul\n        /* \"#utility.yul\":6072:6097   */\n      swap1\n      pop\n        /* \"#utility.yul\":6152:6156   */\n      0x20\n        /* \"#utility.yul\":6146:6150   */\n      dup2\n        /* \"#utility.yul\":6142:6157   */\n      add\n        /* \"#utility.yul\":6134:6157   */\n      swap1\n      pop\n        /* \"#utility.yul\":5843:6164   */\n      swap2\n      swap1\n      pop\n      jump\t// out\n        /* \"#utility.yul\":6170:6287   */\n    tag_59:\n        /* \"#utility.yul\":6279:6280   */\n      0x00\n        /* \"#utility.yul\":6276:6277   */\n      dup1\n        /* \"#utility.yul\":6269:6281   */\n      revert\n        /* \"#utility.yul\":6309:7254   */\n    tag_60:\n        /* \"#utility.yul\":6415:6420   */\n      0x00\n        /* \"#utility.yul\":6440:6531   */\n      tag_149\n        /* \"#utility.yul\":6456:6530   */\n      tag_150\n        /* \"#utility.yul\":6523:6529   */\n      dup5\n        /* \"#utility.yul\":6456:6530   */\n      tag_58\n      jump\t// in\n    tag_150:\n        /* \"#utility.yul\":6440:6531   */\n      tag_53\n      jump\t// in\n    tag_149:\n        /* \"#utility.yul\":6431:6531   */\n      swap1\n      pop\n        /* \"#utility.yul\":6551:6556   */\n      dup1\n        /* \"#utility.yul\":6580:6586   */\n      dup4\n        /* \"#utility.yul\":6573:6578   */\n      dup3\n        /* \"#utility.yul\":6566:6587   */\n      mstore\n        /* \"#utility.yul\":6614:6618   */\n      0x20\n        /* \"#utility.yul\":6607:6612   */\n      dup3\n        /* \"#utility.yul\":6603:6619   */\n      add\n        /* \"#utility.yul\":6596:6619   */\n      swap1\n      pop\n        /* \"#utility.yul\":6667:6671   */\n      0x20\n        /* \"#utility.yul\":6659:6665   */\n      dup5\n        /* \"#utility.yul\":6655:6672   */\n      mul\n        /* \"#utility.yul\":6647:6653   */\n      dup4\n        /* \"#utility.yul\":6643:6673   */\n      add\n        /* \"#utility.yul\":6696:6699   */\n      dup6\n        /* \"#utility.yul\":6688:6694   */\n      dup2\n        /* \"#utility.yul\":6685:6700   */\n      gt\n        /* \"#utility.yul\":6682:6804   */\n      iszero\n      tag_151\n      jumpi\n        /* \"#utility.yul\":6715:6794   */\n      tag_152\n      tag_59\n      jump\t// in\n    tag_152:\n        /* \"#utility.yul\":6682:6804   */\n    tag_151:\n        /* \"#utility.yul\":6830:6836   */\n      dup4\n        /* \"#utility.yul\":6813:7248   */\n    tag_153:\n        /* \"#utility.yul\":6847:6853   */\n      dup2\n        /* \"#utility.yul\":6842:6845   */\n      dup2\n        /* \"#utility.yul\":6839:6854   */\n      lt\n        /* \"#utility.yul\":6813:7248   */\n      iszero\n      tag_155\n      jumpi\n        /* \"#utility.yul\":6936:6939   */\n      dup1\n        /* \"#utility.yul\":6923:6940   */\n      calldataload\n        /* \"#utility.yul\":6972:6990   */\n      0xffffffffffffffff\n        /* \"#utility.yul\":6959:6970   */\n      dup2\n        /* \"#utility.yul\":6956:6991   */\n      gt\n        /* \"#utility.yul\":6953:7075   */\n      iszero\n      tag_156\n      jumpi\n        /* \"#utility.yul\":6994:7073   */\n      tag_157\n      tag_48\n      jump\t// in\n    tag_157:\n        /* \"#utility.yul\":6953:7075   */\n    tag_156:\n        /* \"#utility.yul\":7118:7129   */\n      dup1\n        /* \"#utility.yul\":7110:7116   */\n      dup7\n        /* \"#utility.yul\":7106:7130   */\n      add\n        /* \"#utility.yul\":7156:7203   */\n      tag_158\n        /* \"#utility.yul\":7199:7202   */\n      dup10\n        /* \"#utility.yul\":7187:7197   */\n      dup3\n        /* \"#utility.yul\":7156:7203   */\n      tag_57\n      jump\t// in\n    tag_158:\n        /* \"#utility.yul\":7151:7154   */\n      dup6\n        /* \"#utility.yul\":7144:7204   */\n      mstore\n        /* \"#utility.yul\":7233:7237   */\n      0x20\n        /* \"#utility.yul\":7228:7231   */\n      dup6\n        /* \"#utility.yul\":7224:7238   */\n      add\n        /* \"#utility.yul\":7217:7238   */\n      swap5\n      pop\n        /* \"#utility.yul\":6889:7248   */\n      pop\n      pop\n        /* \"#utility.yul\":6873:6877   */\n      0x20\n        /* \"#utility.yul\":6868:6871   */\n      dup2\n        /* \"#utility.yul\":6864:6878   */\n      add\n        /* \"#utility.yul\":6857:6878   */\n      swap1\n      pop\n        /* \"#utility.yul\":6813:7248   */\n      jump(tag_153)\n    tag_155:\n        /* \"#utility.yul\":6817:6838   */\n      pop\n        /* \"#utility.yul\":6421:7254   */\n      pop\n      pop\n        /* \"#utility.yul\":6309:7254   */\n      swap4\n      swap3\n      pop\n      pop\n      pop\n      jump\t// out\n        /* \"#utility.yul\":7276:7666   */\n    tag_61:\n        /* \"#utility.yul\":7357:7362   */\n      0x00\n        /* \"#utility.yul\":7406:7409   */\n      dup3\n        /* \"#utility.yul\":7399:7403   */\n      0x1f\n        /* \"#utility.yul\":7391:7397   */\n      dup4\n        /* \"#utility.yul\":7387:7404   */\n      add\n        /* \"#utility.yul\":7383:7410   */\n      slt\n        /* \"#utility.yul\":7373:7495   */\n      tag_160\n      jumpi\n        /* \"#utility.yul\":7414:7493   */\n      tag_161\n      tag_48\n      jump\t// in\n    tag_161:\n        /* \"#utility.yul\":7373:7495   */\n    tag_160:\n        /* \"#utility.yul\":7531:7537   */\n      dup2\n        /* \"#utility.yul\":7518:7538   */\n      calldataload\n        /* \"#utility.yul\":7556:7660   */\n      tag_162\n        /* \"#utility.yul\":7656:7659   */\n      dup5\n        /* \"#utility.yul\":7648:7654   */\n      dup3\n        /* \"#utility.yul\":7641:7645   */\n      0x20\n        /* \"#utility.yul\":7633:7639   */\n      dup7\n        /* \"#utility.yul\":7629:7646   */\n      add\n        /* \"#utility.yul\":7556:7660   */\n      tag_60\n      jump\t// in\n    tag_162:\n        /* \"#utility.yul\":7547:7660   */\n      swap2\n      pop\n        /* \"#utility.yul\":7363:7666   */\n      pop\n        /* \"#utility.yul\":7276:7666   */\n      swap3\n      swap2\n      pop\n      pop\n      jump\t// out\n        /* \"#utility.yul\":7672:7765   */\n    tag_62:\n        /* \"#utility.yul\":7708:7715   */\n      0x00\n        /* \"#utility.yul\":7748:7758   */\n      0xffffffff\n        /* \"#utility.yul\":7741:7746   */\n      dup3\n        /* \"#utility.yul\":7737:7759   */\n      and\n        /* \"#utility.yul\":7726:7759   */\n      swap1\n      pop\n        /* \"#utility.yul\":7672:7765   */\n      swap2\n      swap1\n      pop\n      jump\t// out\n        /* \"#utility.yul\":7771:7891   */\n    tag_63:\n        /* \"#utility.yul\":7843:7866   */\n      tag_165\n        /* \"#utility.yul\":7860:7865   */\n      dup2\n        /* \"#utility.yul\":7843:7866   */\n      tag_62\n      jump\t// in\n    tag_165:\n        /* \"#utility.yul\":7836:7841   */\n      dup2\n        /* \"#utility.yul\":7833:7867   */\n      eq\n        /* \"#utility.yul\":7823:7885   */\n      tag_166\n      jumpi\n        /* \"#utility.yul\":7881:7882   */\n      0x00\n        /* \"#utility.yul\":7878:7879   */\n      dup1\n        /* \"#utility.yul\":7871:7883   */\n      revert\n        /* \"#utility.yul\":7823:7885   */\n    tag_166:\n        /* \"#utility.yul\":7771:7891   */\n      pop\n      jump\t// out\n        /* \"#utility.yul\":7897:8034   */\n    tag_64:\n        /* \"#utility.yul\":7942:7947   */\n      0x00\n        /* \"#utility.yul\":7980:7986   */\n      dup2\n        /* \"#utility.yul\":7967:7987   */\n      calldataload\n        /* \"#utility.yul\":7958:7987   */\n      swap1\n      pop\n        /* \"#utility.yul\":7996:8028   */\n      tag_168\n        /* \"#utility.yul\":8022:8027   */\n      dup2\n        /* \"#utility.yul\":7996:8028   */\n      tag_63\n      jump\t// in\n    tag_168:\n        /* \"#utility.yul\":7897:8034   */\n      swap3\n      swap2\n      pop\n      pop\n      jump\t// out\n        /* \"#utility.yul\":8040:9211   */\n    tag_18:\n        /* \"#utility.yul\":8169:8175   */\n      0x00\n        /* \"#utility.yul\":8177:8183   */\n      dup1\n        /* \"#utility.yul\":8185:8191   */\n      0x00\n        /* \"#utility.yul\":8193:8199   */\n      dup1\n        /* \"#utility.yul\":8242:8245   */\n      0x80\n        /* \"#utility.yul\":8230:8239   */\n      dup6\n        /* \"#utility.yul\":8221:8228   */\n      dup8\n        /* \"#utility.yul\":8217:8240   */\n      sub\n        /* \"#utility.yul\":8213:8246   */\n      slt\n        /* \"#utility.yul\":8210:8330   */\n      iszero\n      tag_170\n      jumpi\n        /* \"#utility.yul\":8249:8328   */\n      tag_171\n      tag_33\n      jump\t// in\n    tag_171:\n        /* \"#utility.yul\":8210:8330   */\n    tag_170:\n        /* \"#utility.yul\":8397:8398   */\n      0x00\n        /* \"#utility.yul\":8386:8395   */\n      dup6\n        /* \"#utility.yul\":8382:8399   */\n      add\n        /* \"#utility.yul\":8369:8400   */\n      calldataload\n        /* \"#utility.yul\":8427:8445   */\n      0xffffffffffffffff\n        /* \"#utility.yul\":8419:8425   */\n      dup2\n        /* \"#utility.yul\":8416:8446   */\n      gt\n        /* \"#utility.yul\":8413:8530   */\n      iszero\n      tag_172\n      jumpi\n        /* \"#utility.yul\":8449:8528   */\n      tag_173\n      tag_34\n      jump\t// in\n    tag_173:\n        /* \"#utility.yul\":8413:8530   */\n    tag_172:\n        /* \"#utility.yul\":8554:8617   */\n      tag_174\n        /* \"#utility.yul\":8609:8616   */\n      dup8\n        /* \"#utility.yul\":8600:8606   */\n      dup3\n        /* \"#utility.yul\":8589:8598   */\n      dup9\n        /* \"#utility.yul\":8585:8607   */\n      add\n        /* \"#utility.yul\":8554:8617   */\n      tag_57\n      jump\t// in\n    tag_174:\n        /* \"#utility.yul\":8544:8617   */\n      swap5\n      pop\n        /* \"#utility.yul\":8340:8627   */\n      pop\n        /* \"#utility.yul\":8694:8696   */\n      0x20\n        /* \"#utility.yul\":8683:8692   */\n      dup6\n        /* \"#utility.yul\":8679:8697   */\n      add\n        /* \"#utility.yul\":8666:8698   */\n      calldataload\n        /* \"#utility.yul\":8725:8743   */\n      0xffffffffffffffff\n        /* \"#utility.yul\":8717:8723   */\n      dup2\n        /* \"#utility.yul\":8714:8744   */\n      gt\n        /* \"#utility.yul\":8711:8828   */\n      iszero\n      tag_175\n      jumpi\n        /* \"#utility.yul\":8747:8826   */\n      tag_176\n      tag_34\n      jump\t// in\n    tag_176:\n        /* \"#utility.yul\":8711:8828   */\n    tag_175:\n        /* \"#utility.yul\":8852:8940   */\n      tag_177\n        /* \"#utility.yul\":8932:8939   */\n      dup8\n        /* \"#utility.yul\":8923:8929   */\n      dup3\n        /* \"#utility.yul\":8912:8921   */\n      dup9\n        /* \"#utility.yul\":8908:8930   */\n      add\n        /* \"#utility.yul\":8852:8940   */\n      tag_61\n      jump\t// in\n    tag_177:\n        /* \"#utility.yul\":8842:8940   */\n      swap4\n      pop\n        /* \"#utility.yul\":8637:8950   */\n      pop\n        /* \"#utility.yul\":8989:8991   */\n      0x40\n        /* \"#utility.yul\":9015:9067   */\n      tag_178\n        /* \"#utility.yul\":9059:9066   */\n      dup8\n        /* \"#utility.yul\":9050:9056   */\n      dup3\n        /* \"#utility.yul\":9039:9048   */\n      dup9\n        /* \"#utility.yul\":9035:9057   */\n      add\n        /* \"#utility.yul\":9015:9067   */\n      tag_64\n      jump\t// in\n    tag_178:\n        /* \"#utility.yul\":9005:9067   */\n      swap3\n      pop\n        /* \"#utility.yul\":8960:9077   */\n      pop\n        /* \"#utility.yul\":9116:9118   */\n      0x60\n        /* \"#utility.yul\":9142:9194   */\n      tag_179\n        /* \"#utility.yul\":9186:9193   */\n      dup8\n        /* \"#utility.yul\":9177:9183   */\n      dup3\n        /* \"#utility.yul\":9166:9175   */\n      dup9\n        /* \"#utility.yul\":9162:9184   */\n      add\n        /* \"#utility.yul\":9142:9194   */\n      tag_64\n      jump\t// in\n    tag_179:\n        /* \"#utility.yul\":9132:9194   */\n      swap2\n      pop\n        /* \"#utility.yul\":9087:9204   */\n      pop\n        /* \"#utility.yul\":8040:9211   */\n      swap3\n      swap6\n      swap2\n      swap5\n      pop\n      swap3\n      pop\n      jump\t// out\n        /* \"#utility.yul\":9217:9316   */\n    tag_65:\n        /* \"#utility.yul\":9269:9275   */\n      0x00\n        /* \"#utility.yul\":9303:9308   */\n      dup2\n        /* \"#utility.yul\":9297:9309   */\n      mload\n        /* \"#utility.yul\":9287:9309   */\n      swap1\n      pop\n        /* \"#utility.yul\":9217:9316   */\n      swap2\n      swap1\n      pop\n      jump\t// out\n        /* \"#utility.yul\":9322:9491   */\n    tag_66:\n        /* \"#utility.yul\":9406:9417   */\n      0x00\n        /* \"#utility.yul\":9440:9446   */\n      dup3\n        /* \"#utility.yul\":9435:9438   */\n      dup3\n        /* \"#utility.yul\":9428:9447   */\n      mstore\n        /* \"#utility.yul\":9480:9484   */\n      0x20\n        /* \"#utility.yul\":9475:9478   */\n      dup3\n        /* \"#utility.yul\":9471:9485   */\n      add\n        /* \"#utility.yul\":9456:9485   */\n      swap1\n      pop\n        /* \"#utility.yul\":9322:9491   */\n      swap3\n      swap2\n      pop\n      pop\n      jump\t// out\n        /* \"#utility.yul\":9497:9743   */\n    tag_67:\n        /* \"#utility.yul\":9578:9579   */\n      0x00\n        /* \"#utility.yul\":9588:9701   */\n    tag_183:\n        /* \"#utility.yul\":9602:9608   */\n      dup4\n        /* \"#utility.yul\":9599:9600   */\n      dup2\n        /* \"#utility.yul\":9596:9609   */\n      lt\n        /* \"#utility.yul\":9588:9701   */\n      iszero\n      tag_185\n      jumpi\n        /* \"#utility.yul\":9687:9688   */\n      dup1\n        /* \"#utility.yul\":9682:9685   */\n      dup3\n        /* \"#utility.yul\":9678:9689   */\n      add\n        /* \"#utility.yul\":9672:9690   */\n      mload\n        /* \"#utility.yul\":9668:9669   */\n      dup2\n        /* \"#utility.yul\":9663:9666   */\n      dup5\n        /* \"#utility.yul\":9659:9670   */\n      add\n        /* \"#utility.yul\":9652:9691   */\n      mstore\n        /* \"#utility.yul\":9624:9626   */\n      0x20\n        /* \"#utility.yul\":9621:9622   */\n      dup2\n        /* \"#utility.yul\":9617:9627   */\n      add\n        /* \"#utility.yul\":9612:9627   */\n      swap1\n      pop\n        /* \"#utility.yul\":9588:9701   */\n      jump(tag_183)\n    tag_185:\n        /* \"#utility.yul\":9735:9736   */\n      0x00\n        /* \"#utility.yul\":9726:9732   */\n      dup5\n        /* \"#utility.yul\":9721:9724   */\n      dup5\n        /* \"#utility.yul\":9717:9733   */\n      add\n        /* \"#utility.yul\":9710:9737   */\n      mstore\n        /* \"#utility.yul\":9559:9743   */\n      pop\n        /* \"#utility.yul\":9497:9743   */\n      pop\n      pop\n      pop\n      jump\t// out\n        /* \"#utility.yul\":9749:10126   */\n    tag_68:\n        /* \"#utility.yul\":9837:9840   */\n      0x00\n        /* \"#utility.yul\":9865:9904   */\n      tag_187\n        /* \"#utility.yul\":9898:9903   */\n      dup3\n        /* \"#utility.yul\":9865:9904   */\n      tag_65\n      jump\t// in\n    tag_187:\n        /* \"#utility.yul\":9920:9991   */\n      tag_188\n        /* \"#utility.yul\":9984:9990   */\n      dup2\n        /* \"#utility.yul\":9979:9982   */\n      dup6\n        /* \"#utility.yul\":9920:9991   */\n      tag_66\n      jump\t// in\n    tag_188:\n        /* \"#utility.yul\":9913:9991   */\n      swap4\n      pop\n        /* \"#utility.yul\":10000:10065   */\n      tag_189\n        /* \"#utility.yul\":10058:10064   */\n      dup2\n        /* \"#utility.yul\":10053:10056   */\n      dup6\n        /* \"#utility.yul\":10046:10050   */\n      0x20\n        /* \"#utility.yul\":10039:10044   */\n      dup7\n        /* \"#utility.yul\":10035:10051   */\n      add\n        /* \"#utility.yul\":10000:10065   */\n      tag_67\n      jump\t// in\n    tag_189:\n        /* \"#utility.yul\":10090:10119   */\n      tag_190\n        /* \"#utility.yul\":10112:10118   */\n      dup2\n        /* \"#utility.yul\":10090:10119   */\n      tag_50\n      jump\t// in\n    tag_190:\n        /* \"#utility.yul\":10085:10088   */\n      dup5\n        /* \"#utility.yul\":10081:10120   */\n      add\n        /* \"#utility.yul\":10074:10120   */\n      swap2\n      pop\n        /* \"#utility.yul\":9841:10126   */\n      pop\n        /* \"#utility.yul\":9749:10126   */\n      swap3\n      swap2\n      pop\n      pop\n      jump\t// out\n        /* \"#utility.yul\":10132:10256   */\n    tag_69:\n        /* \"#utility.yul\":10209:10215   */\n      0x00\n        /* \"#utility.yul\":10243:10248   */\n      dup2\n        /* \"#utility.yul\":10237:10249   */\n      mload\n        /* \"#utility.yul\":10227:10249   */\n      swap1\n      pop\n        /* \"#utility.yul\":10132:10256   */\n      swap2\n      swap1\n      pop\n      jump\t// out\n        /* \"#utility.yul\":10262:10456   */\n    tag_70:\n        /* \"#utility.yul\":10371:10382   */\n      0x00\n        /* \"#utility.yul\":10405:10411   */\n      dup3\n        /* \"#utility.yul\":10400:10403   */\n      dup3\n        /* \"#utility.yul\":10393:10412   */\n      mstore\n        /* \"#utility.yul\":10445:10449   */\n      0x20\n        /* \"#utility.yul\":10440:10443   */\n      dup3\n        /* \"#utility.yul\":10436:10450   */\n      add\n        /* \"#utility.yul\":10421:10450   */\n      swap1\n      pop\n        /* \"#utility.yul\":10262:10456   */\n      swap3\n      swap2\n      pop\n      pop\n      jump\t// out\n        /* \"#utility.yul\":10462:10604   */\n    tag_71:\n        /* \"#utility.yul\":10539:10543   */\n      0x00\n        /* \"#utility.yul\":10562:10565   */\n      dup2\n        /* \"#utility.yul\":10554:10565   */\n      swap1\n      pop\n        /* \"#utility.yul\":10592:10596   */\n      0x20\n        /* \"#utility.yul\":10587:10590   */\n      dup3\n        /* \"#utility.yul\":10583:10597   */\n      add\n        /* \"#utility.yul\":10575:10597   */\n      swap1\n      pop\n        /* \"#utility.yul\":10462:10604   */\n      swap2\n      swap1\n      pop\n      jump\t// out\n        /* \"#utility.yul\":10610:10769   */\n    tag_72:\n        /* \"#utility.yul\":10684:10695   */\n      0x00\n        /* \"#utility.yul\":10718:10724   */\n      dup3\n        /* \"#utility.yul\":10713:10716   */\n      dup3\n        /* \"#utility.yul\":10706:10725   */\n      mstore\n        /* \"#utility.yul\":10758:10762   */\n      0x20\n        /* \"#utility.yul\":10753:10756   */\n      dup3\n        /* \"#utility.yul\":10749:10763   */\n      add\n        /* \"#utility.yul\":10734:10763   */\n      swap1\n      pop\n        /* \"#utility.yul\":10610:10769   */\n      swap3\n      swap2\n      pop\n      pop\n      jump\t// out\n        /* \"#utility.yul\":10775:11132   */\n    tag_73:\n        /* \"#utility.yul\":10853:10856   */\n      0x00\n        /* \"#utility.yul\":10881:10920   */\n      tag_196\n        /* \"#utility.yul\":10914:10919   */\n      dup3\n        /* \"#utility.yul\":10881:10920   */\n      tag_65\n      jump\t// in\n    tag_196:\n        /* \"#utility.yul\":10936:10997   */\n      tag_197\n        /* \"#utility.yul\":10990:10996   */\n      dup2\n        /* \"#utility.yul\":10985:10988   */\n      dup6\n        /* \"#utility.yul\":10936:10997   */\n      tag_72\n      jump\t// in\n    tag_197:\n        /* \"#utility.yul\":10929:10997   */\n      swap4\n      pop\n        /* \"#utility.yul\":11006:11071   */\n      tag_198\n        /* \"#utility.yul\":11064:11070   */\n      dup2\n        /* \"#utility.yul\":11059:11062   */\n      dup6\n        /* \"#utility.yul\":11052:11056   */\n      0x20\n        /* \"#utility.yul\":11045:11050   */\n      dup7\n        /* \"#utility.yul\":11041:11057   */\n      add\n        /* \"#utility.yul\":11006:11071   */\n      tag_67\n      jump\t// in\n    tag_198:\n        /* \"#utility.yul\":11096:11125   */\n      tag_199\n        /* \"#utility.yul\":11118:11124   */\n      dup2\n        /* \"#utility.yul\":11096:11125   */\n      tag_50\n      jump\t// in\n    tag_199:\n        /* \"#utility.yul\":11091:11094   */\n      dup5\n        /* \"#utility.yul\":11087:11126   */\n      add\n        /* \"#utility.yul\":11080:11126   */\n      swap2\n      pop\n        /* \"#utility.yul\":10857:11132   */\n      pop\n        /* \"#utility.yul\":10775:11132   */\n      swap3\n      swap2\n      pop\n      pop\n      jump\t// out\n        /* \"#utility.yul\":11138:11334   */\n    tag_74:\n        /* \"#utility.yul\":11227:11237   */\n      0x00\n        /* \"#utility.yul\":11262:11328   */\n      tag_201\n        /* \"#utility.yul\":11324:11327   */\n      dup4\n        /* \"#utility.yul\":11316:11322   */\n      dup4\n        /* \"#utility.yul\":11262:11328   */\n      tag_73\n      jump\t// in\n    tag_201:\n        /* \"#utility.yul\":11248:11328   */\n      swap1\n      pop\n        /* \"#utility.yul\":11138:11334   */\n      swap3\n      swap2\n      pop\n      pop\n      jump\t// out\n        /* \"#utility.yul\":11340:11463   */\n    tag_75:\n        /* \"#utility.yul\":11420:11424   */\n      0x00\n        /* \"#utility.yul\":11452:11456   */\n      0x20\n        /* \"#utility.yul\":11447:11450   */\n      dup3\n        /* \"#utility.yul\":11443:11457   */\n      add\n        /* \"#utility.yul\":11435:11457   */\n      swap1\n      pop\n        /* \"#utility.yul\":11340:11463   */\n      swap2\n      swap1\n      pop\n      jump\t// out\n        /* \"#utility.yul\":11497:12488   */\n    tag_76:\n        /* \"#utility.yul\":11636:11639   */\n      0x00\n        /* \"#utility.yul\":11665:11729   */\n      tag_204\n        /* \"#utility.yul\":11723:11728   */\n      dup3\n        /* \"#utility.yul\":11665:11729   */\n      tag_69\n      jump\t// in\n    tag_204:\n        /* \"#utility.yul\":11745:11841   */\n      tag_205\n        /* \"#utility.yul\":11834:11840   */\n      dup2\n        /* \"#utility.yul\":11829:11832   */\n      dup6\n        /* \"#utility.yul\":11745:11841   */\n      tag_70\n      jump\t// in\n    tag_205:\n        /* \"#utility.yul\":11738:11841   */\n      swap4\n      pop\n        /* \"#utility.yul\":11867:11870   */\n      dup4\n        /* \"#utility.yul\":11912:11916   */\n      0x20\n        /* \"#utility.yul\":11904:11910   */\n      dup3\n        /* \"#utility.yul\":11900:11917   */\n      mul\n        /* \"#utility.yul\":11895:11898   */\n      dup6\n        /* \"#utility.yul\":11891:11918   */\n      add\n        /* \"#utility.yul\":11942:12008   */\n      tag_206\n        /* \"#utility.yul\":12002:12007   */\n      dup6\n        /* \"#utility.yul\":11942:12008   */\n      tag_71\n      jump\t// in\n    tag_206:\n        /* \"#utility.yul\":12031:12038   */\n      dup1\n        /* \"#utility.yul\":12062:12063   */\n      0x00\n        /* \"#utility.yul\":12047:12443   */\n    tag_207:\n        /* \"#utility.yul\":12072:12078   */\n      dup6\n        /* \"#utility.yul\":12069:12070   */\n      dup2\n        /* \"#utility.yul\":12066:12079   */\n      lt\n        /* \"#utility.yul\":12047:12443   */\n      iszero\n      tag_209\n      jumpi\n        /* \"#utility.yul\":12143:12152   */\n      dup5\n        /* \"#utility.yul\":12137:12141   */\n      dup5\n        /* \"#utility.yul\":12133:12153   */\n      sub\n        /* \"#utility.yul\":12128:12131   */\n      dup10\n        /* \"#utility.yul\":12121:12154   */\n      mstore\n        /* \"#utility.yul\":12194:12200   */\n      dup2\n        /* \"#utility.yul\":12188:12201   */\n      mload\n        /* \"#utility.yul\":12222:12306   */\n      tag_210\n        /* \"#utility.yul\":12301:12305   */\n      dup6\n        /* \"#utility.yul\":12286:12299   */\n      dup3\n        /* \"#utility.yul\":12222:12306   */\n      tag_74\n      jump\t// in\n    tag_210:\n        /* \"#utility.yul\":12214:12306   */\n      swap5\n      pop\n        /* \"#utility.yul\":12329:12399   */\n      tag_211\n        /* \"#utility.yul\":12392:12398   */\n      dup4\n        /* \"#utility.yul\":12329:12399   */\n      tag_75\n      jump\t// in\n    tag_211:\n        /* \"#utility.yul\":12319:12399   */\n      swap3\n      pop\n        /* \"#utility.yul\":12428:12432   */\n      0x20\n        /* \"#utility.yul\":12423:12426   */\n      dup11\n        /* \"#utility.yul\":12419:12433   */\n      add\n        /* \"#utility.yul\":12412:12433   */\n      swap10\n      pop\n        /* \"#utility.yul\":12107:12443   */\n      pop\n        /* \"#utility.yul\":12094:12095   */\n      0x01\n        /* \"#utility.yul\":12091:12092   */\n      dup2\n        /* \"#utility.yul\":12087:12096   */\n      add\n        /* \"#utility.yul\":12082:12096   */\n      swap1\n      pop\n        /* \"#utility.yul\":12047:12443   */\n      jump(tag_207)\n    tag_209:\n        /* \"#utility.yul\":12051:12065   */\n      pop\n        /* \"#utility.yul\":12459:12463   */\n      dup3\n        /* \"#utility.yul\":12452:12463   */\n      swap8\n      pop\n        /* \"#utility.yul\":12479:12482   */\n      dup8\n        /* \"#utility.yul\":12472:12482   */\n      swap6\n      pop\n        /* \"#utility.yul\":11641:12488   */\n      pop\n      pop\n      pop\n      pop\n      pop\n        /* \"#utility.yul\":11497:12488   */\n      swap3\n      swap2\n      pop\n      pop\n      jump\t// out\n        /* \"#utility.yul\":12494:12609   */\n    tag_77:\n        /* \"#utility.yul\":12579:12602   */\n      tag_213\n        /* \"#utility.yul\":12596:12601   */\n      dup2\n        /* \"#utility.yul\":12579:12602   */\n      tag_62\n      jump\t// in\n    tag_213:\n        /* \"#utility.yul\":12574:12577   */\n      dup3\n        /* \"#utility.yul\":12567:12603   */\n      mstore\n        /* \"#utility.yul\":12494:12609   */\n      pop\n      pop\n      jump\t// out\n        /* \"#utility.yul\":12615:13553   */\n    tag_29:\n        /* \"#utility.yul\":12906:12910   */\n      0x00\n        /* \"#utility.yul\":12944:12947   */\n      0xa0\n        /* \"#utility.yul\":12933:12942   */\n      dup3\n        /* \"#utility.yul\":12929:12948   */\n      add\n        /* \"#utility.yul\":12921:12948   */\n      swap1\n      pop\n        /* \"#utility.yul\":12994:13003   */\n      dup2\n        /* \"#utility.yul\":12988:12992   */\n      dup2\n        /* \"#utility.yul\":12984:13004   */\n      sub\n        /* \"#utility.yul\":12980:12981   */\n      0x00\n        /* \"#utility.yul\":12969:12978   */\n      dup4\n        /* \"#utility.yul\":12965:12982   */\n      add\n        /* \"#utility.yul\":12958:13005   */\n      mstore\n        /* \"#utility.yul\":13022:13100   */\n      tag_215\n        /* \"#utility.yul\":13095:13099   */\n      dup2\n        /* \"#utility.yul\":13086:13092   */\n      dup9\n        /* \"#utility.yul\":13022:13100   */\n      tag_68\n      jump\t// in\n    tag_215:\n        /* \"#utility.yul\":13014:13100   */\n      swap1\n      pop\n        /* \"#utility.yul\":13147:13156   */\n      dup2\n        /* \"#utility.yul\":13141:13145   */\n      dup2\n        /* \"#utility.yul\":13137:13157   */\n      sub\n        /* \"#utility.yul\":13132:13134   */\n      0x20\n        /* \"#utility.yul\":13121:13130   */\n      dup4\n        /* \"#utility.yul\":13117:13135   */\n      add\n        /* \"#utility.yul\":13110:13158   */\n      mstore\n        /* \"#utility.yul\":13175:13303   */\n      tag_216\n        /* \"#utility.yul\":13298:13302   */\n      dup2\n        /* \"#utility.yul\":13289:13295   */\n      dup8\n        /* \"#utility.yul\":13175:13303   */\n      tag_76\n      jump\t// in\n    tag_216:\n        /* \"#utility.yul\":13167:13303   */\n      swap1\n      pop\n        /* \"#utility.yul\":13313:13383   */\n      tag_217\n        /* \"#utility.yul\":13379:13381   */\n      0x40\n        /* \"#utility.yul\":13368:13377   */\n      dup4\n        /* \"#utility.yul\":13364:13382   */\n      add\n        /* \"#utility.yul\":13355:13361   */\n      dup7\n        /* \"#utility.yul\":13313:13383   */\n      tag_77\n      jump\t// in\n    tag_217:\n        /* \"#utility.yul\":13393:13463   */\n      tag_218\n        /* \"#utility.yul\":13459:13461   */\n      0x60\n        /* \"#utility.yul\":13448:13457   */\n      dup4\n        /* \"#utility.yul\":13444:13462   */\n      add\n        /* \"#utility.yul\":13435:13441   */\n      dup6\n        /* \"#utility.yul\":13393:13463   */\n      tag_77\n      jump\t// in\n    tag_218:\n        /* \"#utility.yul\":13473:13546   */\n      tag_219\n        /* \"#utility.yul\":13541:13544   */\n      0x80\n        /* \"#utility.yul\":13530:13539   */\n      dup4\n        /* \"#utility.yul\":13526:13545   */\n      add\n        /* \"#utility.yul\":13517:13523   */\n      dup5\n        /* \"#utility.yul\":13473:13546   */\n      tag_40\n      jump\t// in\n    tag_219:\n        /* \"#utility.yul\":12615:13553   */\n      swap7\n      swap6\n      pop\n      pop\n      pop\n      pop\n      pop\n      pop\n      jump\t// out\n    stop\n\n    sub_0: assembly {\n            /* \"Voting.sol\":584:3940  contract Voting {... */\n          mstore(0x40, 0x80)\n            /* \"Voting.sol\":1644:2083  constructor(... */\n          callvalue\n          dup1\n          iszero\n          tag_1\n          jumpi\n          0x00\n          dup1\n          revert\n        tag_1:\n          pop\n          mload(0x40)\n          sub(codesize, bytecodeSize)\n          dup1\n          bytecodeSize\n          dup4\n          codecopy\n          dup2\n          dup2\n          add\n          0x40\n          mstore\n          dup2\n          add\n          swap1\n          tag_2\n          swap2\n          swap1\n          tag_3\n          jump\t// in\n        tag_2:\n            /* \"Voting.sol\":1834:1842  _manager */\n          dup1\n            /* \"Voting.sol\":1824:1831  manager */\n          0x00\n          dup1\n            /* \"Voting.sol\":1824:1842  manager = _manager */\n          0x0100\n          exp\n          dup2\n          sload\n          dup2\n          0xffffffffffffffffffffffffffffffffffffffff\n          mul\n          not\n          and\n          swap1\n          dup4\n          0xffffffffffffffffffffffffffffffffffffffff\n          and\n          mul\n          or\n          swap1\n          sstore\n          pop\n            /* \"Voting.sol\":1861:1867  _title */\n          dup5\n            /* \"Voting.sol\":1853:1858  title */\n          0x02\n            /* \"Voting.sol\":1853:1867  title = _title */\n          swap1\n          dup2\n          tag_6\n          swap2\n          swap1\n          tag_7\n          jump\t// in\n        tag_6:\n          pop\n            /* \"Voting.sol\":1892:1904  _choiceNames */\n          dup4\n            /* \"Voting.sol\":1878:1889  choiceNames */\n          0x03\n            /* \"Voting.sol\":1878:1904  choiceNames = _choiceNames */\n          swap1\n          dup1\n          mload\n          swap1\n          0x20\n          add\n          swap1\n          tag_8\n          swap3\n          swap2\n          swap1\n          tag_9\n          jump\t// in\n        tag_8:\n          pop\n            /* \"Voting.sol\":1936:1948  _choiceNames */\n          dup4\n            /* \"Voting.sol\":1936:1955  _choiceNames.length */\n          mload\n            /* \"Voting.sol\":1915:1927  totalChoices */\n          0x00\n          0x14\n            /* \"Voting.sol\":1915:1956  totalChoices = uint8(_choiceNames.length) */\n          0x0100\n          exp\n          dup2\n          sload\n          dup2\n          0xff\n          mul\n          not\n          and\n          swap1\n          dup4\n          0xff\n          and\n          mul\n          or\n          swap1\n          sstore\n          pop\n            /* \"Voting.sol\":1978:1987  _fromDate */\n          dup3\n            /* \"Voting.sol\":1967:1975  fromDate */\n          0x00\n          0x16\n            /* \"Voting.sol\":1967:1987  fromDate = _fromDate */\n          0x0100\n          exp\n          dup2\n          sload\n          dup2\n          0xffffffff\n          mul\n          not\n          and\n          swap1\n          dup4\n          0xffffffff\n          and\n          mul\n          or\n          swap1\n          sstore\n          pop\n            /* \"Voting.sol\":2008:2016  _endDate */\n          dup2\n            /* \"Voting.sol\":1998:2005  endDate */\n          0x00\n          0x1a\n            /* \"Voting.sol\":1998:2016  endDate = _endDate */\n          0x0100\n          exp\n          dup2\n          sload\n          dup2\n          0xffffffff\n          mul\n          not\n          and\n          swap1\n          dup4\n          0xffffffff\n          and\n          mul\n          or\n          swap1\n          sstore\n          pop\n            /* \"Voting.sol\":1644:2083  constructor(... */\n          pop\n          pop\n          pop\n          pop\n          pop\n            /* \"Voting.sol\":584:3940  contract Voting {... */\n          jump(tag_10)\n        tag_9:\n          dup3\n          dup1\n          sload\n          dup3\n          dup3\n          sstore\n          swap1\n          0x00\n          mstore\n          keccak256(0x00, 0x20)\n          swap1\n          dup2\n          add\n          swap3\n          dup3\n          iszero\n          tag_11\n          jumpi\n          swap2\n          0x20\n          mul\n          dup3\n          add\n        tag_12:\n          dup3\n          dup2\n          gt\n          iszero\n          tag_13\n          jumpi\n          dup3\n          mload\n          dup3\n          swap1\n          dup2\n          tag_14\n          swap2\n          swap1\n          tag_7\n          jump\t// in\n        tag_14:\n          pop\n          swap2\n          0x20\n          add\n          swap2\n          swap1\n          0x01\n          add\n          swap1\n          jump(tag_12)\n        tag_13:\n        tag_11:\n          pop\n          swap1\n          pop\n          tag_15\n          swap2\n          swap1\n          tag_16\n          jump\t// in\n        tag_15:\n          pop\n          swap1\n          jump\t// out\n        tag_16:\n        tag_17:\n          dup1\n          dup3\n          gt\n          iszero\n          tag_18\n          jumpi\n          0x00\n          dup2\n          dup2\n          tag_19\n          swap2\n          swap1\n          tag_20\n          jump\t// in\n        tag_19:\n          pop\n          0x01\n          add\n          jump(tag_17)\n        tag_18:\n          pop\n          swap1\n          jump\t// out\n        tag_20:\n          pop\n          dup1\n          sload\n          tag_21\n          swap1\n          tag_22\n          jump\t// in\n        tag_21:\n          0x00\n          dup3\n          sstore\n          dup1\n          0x1f\n          lt\n          tag_24\n          jumpi\n          pop\n          jump(tag_23)\n        tag_24:\n          0x1f\n          add\n          0x20\n          swap1\n          div\n          swap1\n          0x00\n          mstore\n          keccak256(0x00, 0x20)\n          swap1\n          dup2\n          add\n          swap1\n          tag_25\n          swap2\n          swap1\n          tag_26\n          jump\t// in\n        tag_25:\n        tag_23:\n          pop\n          jump\t// out\n        tag_26:\n        tag_27:\n          dup1\n          dup3\n          gt\n          iszero\n          tag_28\n          jumpi\n          0x00\n          dup2\n          0x00\n          swap1\n          sstore\n          pop\n          0x01\n          add\n          jump(tag_27)\n        tag_28:\n          pop\n          swap1\n          jump\t// out\n            /* \"#utility.yul\":7:82   */\n        tag_29:\n            /* \"#utility.yul\":40:46   */\n          0x00\n            /* \"#utility.yul\":73:75   */\n          0x40\n            /* \"#utility.yul\":67:76   */\n          mload\n            /* \"#utility.yul\":57:76   */\n          swap1\n          pop\n            /* \"#utility.yul\":7:82   */\n          swap1\n          jump\t// out\n            /* \"#utility.yul\":88:205   */\n        tag_30:\n            /* \"#utility.yul\":197:198   */\n          0x00\n            /* \"#utility.yul\":194:195   */\n          dup1\n            /* \"#utility.yul\":187:199   */\n          revert\n            /* \"#utility.yul\":211:328   */\n        tag_31:\n            /* \"#utility.yul\":320:321   */\n          0x00\n            /* \"#utility.yul\":317:318   */\n          dup1\n            /* \"#utility.yul\":310:322   */\n          revert\n            /* \"#utility.yul\":334:451   */\n        tag_32:\n            /* \"#utility.yul\":443:444   */\n          0x00\n            /* \"#utility.yul\":440:441   */\n          dup1\n            /* \"#utility.yul\":433:445   */\n          revert\n            /* \"#utility.yul\":457:574   */\n        tag_33:\n            /* \"#utility.yul\":566:567   */\n          0x00\n            /* \"#utility.yul\":563:564   */\n          dup1\n            /* \"#utility.yul\":556:568   */\n          revert\n            /* \"#utility.yul\":580:682   */\n        tag_34:\n            /* \"#utility.yul\":621:627   */\n          0x00\n            /* \"#utility.yul\":672:674   */\n          0x1f\n            /* \"#utility.yul\":668:675   */\n          not\n            /* \"#utility.yul\":663:665   */\n          0x1f\n            /* \"#utility.yul\":656:661   */\n          dup4\n            /* \"#utility.yul\":652:666   */\n          add\n            /* \"#utility.yul\":648:676   */\n          and\n            /* \"#utility.yul\":638:676   */\n          swap1\n          pop\n            /* \"#utility.yul\":580:682   */\n          swap2\n          swap1\n          pop\n          jump\t// out\n            /* \"#utility.yul\":688:868   */\n        tag_35:\n            /* \"#utility.yul\":736:813   */\n          0x4e487b7100000000000000000000000000000000000000000000000000000000\n            /* \"#utility.yul\":733:734   */\n          0x00\n            /* \"#utility.yul\":726:814   */\n          mstore\n            /* \"#utility.yul\":833:837   */\n          0x41\n            /* \"#utility.yul\":830:831   */\n          0x04\n            /* \"#utility.yul\":823:838   */\n          mstore\n            /* \"#utility.yul\":857:861   */\n          0x24\n            /* \"#utility.yul\":854:855   */\n          0x00\n            /* \"#utility.yul\":847:862   */\n          revert\n            /* \"#utility.yul\":874:1155   */\n        tag_36:\n            /* \"#utility.yul\":957:984   */\n          tag_80\n            /* \"#utility.yul\":979:983   */\n          dup3\n            /* \"#utility.yul\":957:984   */\n          tag_34\n          jump\t// in\n        tag_80:\n            /* \"#utility.yul\":949:955   */\n          dup2\n            /* \"#utility.yul\":945:985   */\n          add\n            /* \"#utility.yul\":1087:1093   */\n          dup2\n            /* \"#utility.yul\":1075:1085   */\n          dup2\n            /* \"#utility.yul\":1072:1094   */\n          lt\n            /* \"#utility.yul\":1051:1069   */\n          0xffffffffffffffff\n            /* \"#utility.yul\":1039:1049   */\n          dup3\n            /* \"#utility.yul\":1036:1070   */\n          gt\n            /* \"#utility.yul\":1033:1095   */\n          or\n            /* \"#utility.yul\":1030:1118   */\n          iszero\n          tag_81\n          jumpi\n            /* \"#utility.yul\":1098:1116   */\n          tag_82\n          tag_35\n          jump\t// in\n        tag_82:\n            /* \"#utility.yul\":1030:1118   */\n        tag_81:\n            /* \"#utility.yul\":1138:1148   */\n          dup1\n            /* \"#utility.yul\":1134:1136   */\n          0x40\n            /* \"#utility.yul\":1127:1149   */\n          mstore\n            /* \"#utility.yul\":917:1155   */\n          pop\n            /* \"#utility.yul\":874:1155   */\n          pop\n          pop\n          jump\t// out\n            /* \"#utility.yul\":1161:1290   */\n        tag_37:\n            /* \"#utility.yul\":1195:1201   */\n          0x00\n            /* \"#utility.yul\":1222:1242   */\n          tag_84\n          tag_29\n          jump\t// in\n        tag_84:\n            /* \"#utility.yul\":1212:1242   */\n          swap1\n          pop\n            /* \"#utility.yul\":1251:1284   */\n          tag_85\n            /* \"#utility.yul\":1279:1283   */\n          dup3\n            /* \"#utility.yul\":1271:1277   */\n          dup3\n            /* \"#utility.yul\":1251:1284   */\n          tag_36\n          jump\t// in\n        tag_85:\n            /* \"#utility.yul\":1161:1290   */\n          swap2\n          swap1\n          pop\n          jump\t// out\n            /* \"#utility.yul\":1296:1604   */\n        tag_38:\n            /* \"#utility.yul\":1358:1362   */\n          0x00\n            /* \"#utility.yul\":1448:1466   */\n          0xffffffffffffffff\n            /* \"#utility.yul\":1440:1446   */\n          dup3\n            /* \"#utility.yul\":1437:1467   */\n          gt\n            /* \"#utility.yul\":1434:1490   */\n          iszero\n          tag_87\n          jumpi\n            /* \"#utility.yul\":1470:1488   */\n          tag_88\n          tag_35\n          jump\t// in\n        tag_88:\n            /* \"#utility.yul\":1434:1490   */\n        tag_87:\n            /* \"#utility.yul\":1508:1537   */\n          tag_89\n            /* \"#utility.yul\":1530:1536   */\n          dup3\n            /* \"#utility.yul\":1508:1537   */\n          tag_34\n          jump\t// in\n        tag_89:\n            /* \"#utility.yul\":1500:1537   */\n          swap1\n          pop\n            /* \"#utility.yul\":1592:1596   */\n          0x20\n            /* \"#utility.yul\":1586:1590   */\n          dup2\n            /* \"#utility.yul\":1582:1597   */\n          add\n            /* \"#utility.yul\":1574:1597   */\n          swap1\n          pop\n            /* \"#utility.yul\":1296:1604   */\n          swap2\n          swap1\n          pop\n          jump\t// out\n            /* \"#utility.yul\":1610:1856   */\n        tag_39:\n            /* \"#utility.yul\":1691:1692   */\n          0x00\n            /* \"#utility.yul\":1701:1814   */\n        tag_91:\n            /* \"#utility.yul\":1715:1721   */\n          dup4\n            /* \"#utility.yul\":1712:1713   */\n          dup2\n            /* \"#utility.yul\":1709:1722   */\n          lt\n            /* \"#utility.yul\":1701:1814   */\n          iszero\n          tag_93\n          jumpi\n            /* \"#utility.yul\":1800:1801   */\n          dup1\n            /* \"#utility.yul\":1795:1798   */\n          dup3\n            /* \"#utility.yul\":1791:1802   */\n          add\n            /* \"#utility.yul\":1785:1803   */\n          mload\n            /* \"#utility.yul\":1781:1782   */\n          dup2\n            /* \"#utility.yul\":1776:1779   */\n          dup5\n            /* \"#utility.yul\":1772:1783   */\n          add\n            /* \"#utility.yul\":1765:1804   */\n          mstore\n            /* \"#utility.yul\":1737:1739   */\n          0x20\n            /* \"#utility.yul\":1734:1735   */\n          dup2\n            /* \"#utility.yul\":1730:1740   */\n          add\n            /* \"#utility.yul\":1725:1740   */\n          swap1\n          pop\n            /* \"#utility.yul\":1701:1814   */\n          jump(tag_91)\n        tag_93:\n            /* \"#utility.yul\":1848:1849   */\n          0x00\n            /* \"#utility.yul\":1839:1845   */\n          dup5\n            /* \"#utility.yul\":1834:1837   */\n          dup5\n            /* \"#utility.yul\":1830:1846   */\n          add\n            /* \"#utility.yul\":1823:1850   */\n          mstore\n            /* \"#utility.yul\":1672:1856   */\n          pop\n            /* \"#utility.yul\":1610:1856   */\n          pop\n          pop\n          pop\n          jump\t// out\n            /* \"#utility.yul\":1862:2296   */\n        tag_40:\n            /* \"#utility.yul\":1951:1956   */\n          0x00\n            /* \"#utility.yul\":1976:2042   */\n          tag_95\n            /* \"#utility.yul\":1992:2041   */\n          tag_96\n            /* \"#utility.yul\":2034:2040   */\n          dup5\n            /* \"#utility.yul\":1992:2041   */\n          tag_38\n          jump\t// in\n        tag_96:\n            /* \"#utility.yul\":1976:2042   */\n          tag_37\n          jump\t// in\n        tag_95:\n            /* \"#utility.yul\":1967:2042   */\n          swap1\n          pop\n            /* \"#utility.yul\":2065:2071   */\n          dup3\n            /* \"#utility.yul\":2058:2063   */\n          dup2\n            /* \"#utility.yul\":2051:2072   */\n          mstore\n            /* \"#utility.yul\":2103:2107   */\n          0x20\n            /* \"#utility.yul\":2096:2101   */\n          dup2\n            /* \"#utility.yul\":2092:2108   */\n          add\n            /* \"#utility.yul\":2141:2144   */\n          dup5\n            /* \"#utility.yul\":2132:2138   */\n          dup5\n            /* \"#utility.yul\":2127:2130   */\n          dup5\n            /* \"#utility.yul\":2123:2139   */\n          add\n            /* \"#utility.yul\":2120:2145   */\n          gt\n            /* \"#utility.yul\":2117:2229   */\n          iszero\n          tag_97\n          jumpi\n            /* \"#utility.yul\":2148:2227   */\n          tag_98\n          tag_33\n          jump\t// in\n        tag_98:\n            /* \"#utility.yul\":2117:2229   */\n        tag_97:\n            /* \"#utility.yul\":2238:2290   */\n          tag_99\n            /* \"#utility.yul\":2283:2289   */\n          dup5\n            /* \"#utility.yul\":2278:2281   */\n          dup3\n            /* \"#utility.yul\":2273:2276   */\n          dup6\n            /* \"#utility.yul\":2238:2290   */\n          tag_39\n          jump\t// in\n        tag_99:\n            /* \"#utility.yul\":1957:2296   */\n          pop\n            /* \"#utility.yul\":1862:2296   */\n          swap4\n          swap3\n          pop\n          pop\n          pop\n          jump\t// out\n            /* \"#utility.yul\":2316:2671   */\n        tag_41:\n            /* \"#utility.yul\":2383:2388   */\n          0x00\n            /* \"#utility.yul\":2432:2435   */\n          dup3\n            /* \"#utility.yul\":2425:2429   */\n          0x1f\n            /* \"#utility.yul\":2417:2423   */\n          dup4\n            /* \"#utility.yul\":2413:2430   */\n          add\n            /* \"#utility.yul\":2409:2436   */\n          slt\n            /* \"#utility.yul\":2399:2521   */\n          tag_101\n          jumpi\n            /* \"#utility.yul\":2440:2519   */\n          tag_102\n          tag_32\n          jump\t// in\n        tag_102:\n            /* \"#utility.yul\":2399:2521   */\n        tag_101:\n            /* \"#utility.yul\":2550:2556   */\n          dup2\n            /* \"#utility.yul\":2544:2557   */\n          mload\n            /* \"#utility.yul\":2575:2665   */\n          tag_103\n            /* \"#utility.yul\":2661:2664   */\n          dup5\n            /* \"#utility.yul\":2653:2659   */\n          dup3\n            /* \"#utility.yul\":2646:2650   */\n          0x20\n            /* \"#utility.yul\":2638:2644   */\n          dup7\n            /* \"#utility.yul\":2634:2651   */\n          add\n            /* \"#utility.yul\":2575:2665   */\n          tag_40\n          jump\t// in\n        tag_103:\n            /* \"#utility.yul\":2566:2665   */\n          swap2\n          pop\n            /* \"#utility.yul\":2389:2671   */\n          pop\n            /* \"#utility.yul\":2316:2671   */\n          swap3\n          swap2\n          pop\n          pop\n          jump\t// out\n            /* \"#utility.yul\":2677:2998   */\n        tag_42:\n            /* \"#utility.yul\":2764:2768   */\n          0x00\n            /* \"#utility.yul\":2854:2872   */\n          0xffffffffffffffff\n            /* \"#utility.yul\":2846:2852   */\n          dup3\n            /* \"#utility.yul\":2843:2873   */\n          gt\n            /* \"#utility.yul\":2840:2896   */\n          iszero\n          tag_105\n          jumpi\n            /* \"#utility.yul\":2876:2894   */\n          tag_106\n          tag_35\n          jump\t// in\n        tag_106:\n            /* \"#utility.yul\":2840:2896   */\n        tag_105:\n            /* \"#utility.yul\":2926:2930   */\n          0x20\n            /* \"#utility.yul\":2918:2924   */\n          dup3\n            /* \"#utility.yul\":2914:2931   */\n          mul\n            /* \"#utility.yul\":2906:2931   */\n          swap1\n          pop\n            /* \"#utility.yul\":2986:2990   */\n          0x20\n            /* \"#utility.yul\":2980:2984   */\n          dup2\n            /* \"#utility.yul\":2976:2991   */\n          add\n            /* \"#utility.yul\":2968:2991   */\n          swap1\n          pop\n            /* \"#utility.yul\":2677:2998   */\n          swap2\n          swap1\n          pop\n          jump\t// out\n            /* \"#utility.yul\":3004:3121   */\n        tag_43:\n            /* \"#utility.yul\":3113:3114   */\n          0x00\n            /* \"#utility.yul\":3110:3111   */\n          dup1\n            /* \"#utility.yul\":3103:3115   */\n          revert\n            /* \"#utility.yul\":3143:4103   */\n        tag_44:\n            /* \"#utility.yul\":3260:3265   */\n          0x00\n            /* \"#utility.yul\":3285:3376   */\n          tag_109\n            /* \"#utility.yul\":3301:3375   */\n          tag_110\n            /* \"#utility.yul\":3368:3374   */\n          dup5\n            /* \"#utility.yul\":3301:3375   */\n          tag_42\n          jump\t// in\n        tag_110:\n            /* \"#utility.yul\":3285:3376   */\n          tag_37\n          jump\t// in\n        tag_109:\n            /* \"#utility.yul\":3276:3376   */\n          swap1\n          pop\n            /* \"#utility.yul\":3396:3401   */\n          dup1\n            /* \"#utility.yul\":3425:3431   */\n          dup4\n            /* \"#utility.yul\":3418:3423   */\n          dup3\n            /* \"#utility.yul\":3411:3432   */\n          mstore\n            /* \"#utility.yul\":3459:3463   */\n          0x20\n            /* \"#utility.yul\":3452:3457   */\n          dup3\n            /* \"#utility.yul\":3448:3464   */\n          add\n            /* \"#utility.yul\":3441:3464   */\n          swap1\n          pop\n            /* \"#utility.yul\":3512:3516   */\n          0x20\n            /* \"#utility.yul\":3504:3510   */\n          dup5\n            /* \"#utility.yul\":3500:3517   */\n          mul\n            /* \"#utility.yul\":3492:3498   */\n          dup4\n            /* \"#utility.yul\":3488:3518   */\n          add\n            /* \"#utility.yul\":3541:3544   */\n          dup6\n            /* \"#utility.yul\":3533:3539   */\n          dup2\n            /* \"#utility.yul\":3530:3545   */\n          gt\n            /* \"#utility.yul\":3527:3649   */\n          iszero\n          tag_111\n          jumpi\n            /* \"#utility.yul\":3560:3639   */\n          tag_112\n          tag_43\n          jump\t// in\n        tag_112:\n            /* \"#utility.yul\":3527:3649   */\n        tag_111:\n            /* \"#utility.yul\":3675:3681   */\n          dup4\n            /* \"#utility.yul\":3658:4097   */\n        tag_113:\n            /* \"#utility.yul\":3692:3698   */\n          dup2\n            /* \"#utility.yul\":3687:3690   */\n          dup2\n            /* \"#utility.yul\":3684:3699   */\n          lt\n            /* \"#utility.yul\":3658:4097   */\n          iszero\n          tag_115\n          jumpi\n            /* \"#utility.yul\":3774:3777   */\n          dup1\n            /* \"#utility.yul\":3768:3778   */\n          mload\n            /* \"#utility.yul\":3810:3828   */\n          0xffffffffffffffff\n            /* \"#utility.yul\":3797:3808   */\n          dup2\n            /* \"#utility.yul\":3794:3829   */\n          gt\n            /* \"#utility.yul\":3791:3913   */\n          iszero\n          tag_116\n          jumpi\n            /* \"#utility.yul\":3832:3911   */\n          tag_117\n          tag_32\n          jump\t// in\n        tag_117:\n            /* \"#utility.yul\":3791:3913   */\n        tag_116:\n            /* \"#utility.yul\":3956:3967   */\n          dup1\n            /* \"#utility.yul\":3948:3954   */\n          dup7\n            /* \"#utility.yul\":3944:3968   */\n          add\n            /* \"#utility.yul\":3994:4052   */\n          tag_118\n            /* \"#utility.yul\":4048:4051   */\n          dup10\n            /* \"#utility.yul\":4036:4046   */\n          dup3\n            /* \"#utility.yul\":3994:4052   */\n          tag_41\n          jump\t// in\n        tag_118:\n            /* \"#utility.yul\":3989:3992   */\n          dup6\n            /* \"#utility.yul\":3982:4053   */\n          mstore\n            /* \"#utility.yul\":4082:4086   */\n          0x20\n            /* \"#utility.yul\":4077:4080   */\n          dup6\n            /* \"#utility.yul\":4073:4087   */\n          add\n            /* \"#utility.yul\":4066:4087   */\n          swap5\n          pop\n            /* \"#utility.yul\":3734:4097   */\n          pop\n          pop\n            /* \"#utility.yul\":3718:3722   */\n          0x20\n            /* \"#utility.yul\":3713:3716   */\n          dup2\n            /* \"#utility.yul\":3709:3723   */\n          add\n            /* \"#utility.yul\":3702:3723   */\n          swap1\n          pop\n            /* \"#utility.yul\":3658:4097   */\n          jump(tag_113)\n        tag_115:\n            /* \"#utility.yul\":3662:3683   */\n          pop\n            /* \"#utility.yul\":3266:4103   */\n          pop\n          pop\n            /* \"#utility.yul\":3143:4103   */\n          swap4\n          swap3\n          pop\n          pop\n          pop\n          jump\t// out\n            /* \"#utility.yul\":4125:4530   */\n        tag_45:\n            /* \"#utility.yul\":4217:4222   */\n          0x00\n            /* \"#utility.yul\":4266:4269   */\n          dup3\n            /* \"#utility.yul\":4259:4263   */\n          0x1f\n            /* \"#utility.yul\":4251:4257   */\n          dup4\n            /* \"#utility.yul\":4247:4264   */\n          add\n            /* \"#utility.yul\":4243:4270   */\n          slt\n            /* \"#utility.yul\":4233:4355   */\n          tag_120\n          jumpi\n            /* \"#utility.yul\":4274:4353   */\n          tag_121\n          tag_32\n          jump\t// in\n        tag_121:\n            /* \"#utility.yul\":4233:4355   */\n        tag_120:\n            /* \"#utility.yul\":4384:4390   */\n          dup2\n            /* \"#utility.yul\":4378:4391   */\n          mload\n            /* \"#utility.yul\":4409:4524   */\n          tag_122\n            /* \"#utility.yul\":4520:4523   */\n          dup5\n            /* \"#utility.yul\":4512:4518   */\n          dup3\n            /* \"#utility.yul\":4505:4509   */\n          0x20\n            /* \"#utility.yul\":4497:4503   */\n          dup7\n            /* \"#utility.yul\":4493:4510   */\n          add\n            /* \"#utility.yul\":4409:4524   */\n          tag_44\n          jump\t// in\n        tag_122:\n            /* \"#utility.yul\":4400:4524   */\n          swap2\n          pop\n            /* \"#utility.yul\":4223:4530   */\n          pop\n            /* \"#utility.yul\":4125:4530   */\n          swap3\n          swap2\n          pop\n          pop\n          jump\t// out\n            /* \"#utility.yul\":4536:4629   */\n        tag_46:\n            /* \"#utility.yul\":4572:4579   */\n          0x00\n            /* \"#utility.yul\":4612:4622   */\n          0xffffffff\n            /* \"#utility.yul\":4605:4610   */\n          dup3\n            /* \"#utility.yul\":4601:4623   */\n          and\n            /* \"#utility.yul\":4590:4623   */\n          swap1\n          pop\n            /* \"#utility.yul\":4536:4629   */\n          swap2\n          swap1\n          pop\n          jump\t// out\n            /* \"#utility.yul\":4635:4755   */\n        tag_47:\n            /* \"#utility.yul\":4707:4730   */\n          tag_125\n            /* \"#utility.yul\":4724:4729   */\n          dup2\n            /* \"#utility.yul\":4707:4730   */\n          tag_46\n          jump\t// in\n        tag_125:\n            /* \"#utility.yul\":4700:4705   */\n          dup2\n            /* \"#utility.yul\":4697:4731   */\n          eq\n            /* \"#utility.yul\":4687:4749   */\n          tag_126\n          jumpi\n            /* \"#utility.yul\":4745:4746   */\n          0x00\n            /* \"#utility.yul\":4742:4743   */\n          dup1\n            /* \"#utility.yul\":4735:4747   */\n          revert\n            /* \"#utility.yul\":4687:4749   */\n        tag_126:\n            /* \"#utility.yul\":4635:4755   */\n          pop\n          jump\t// out\n            /* \"#utility.yul\":4761:4902   */\n        tag_48:\n            /* \"#utility.yul\":4817:4822   */\n          0x00\n            /* \"#utility.yul\":4848:4854   */\n          dup2\n            /* \"#utility.yul\":4842:4855   */\n          mload\n            /* \"#utility.yul\":4833:4855   */\n          swap1\n          pop\n            /* \"#utility.yul\":4864:4896   */\n          tag_128\n            /* \"#utility.yul\":4890:4895   */\n          dup2\n            /* \"#utility.yul\":4864:4896   */\n          tag_47\n          jump\t// in\n        tag_128:\n            /* \"#utility.yul\":4761:4902   */\n          swap3\n          swap2\n          pop\n          pop\n          jump\t// out\n            /* \"#utility.yul\":4908:5034   */\n        tag_49:\n            /* \"#utility.yul\":4945:4952   */\n          0x00\n            /* \"#utility.yul\":4985:5027   */\n          0xffffffffffffffffffffffffffffffffffffffff\n            /* \"#utility.yul\":4978:4983   */\n          dup3\n            /* \"#utility.yul\":4974:5028   */\n          and\n            /* \"#utility.yul\":4963:5028   */\n          swap1\n          pop\n            /* \"#utility.yul\":4908:5034   */\n          swap2\n          swap1\n          pop\n          jump\t// out\n            /* \"#utility.yul\":5040:5136   */\n        tag_50:\n            /* \"#utility.yul\":5077:5084   */\n          0x00\n            /* \"#utility.yul\":5106:5130   */\n          tag_131\n            /* \"#utility.yul\":5124:5129   */\n          dup3\n            /* \"#utility.yul\":5106:5130   */\n          tag_49\n          jump\t// in\n        tag_131:\n            /* \"#utility.yul\":5095:5130   */\n          swap1\n          pop\n            /* \"#utility.yul\":5040:5136   */\n          swap2\n          swap1\n          pop\n          jump\t// out\n            /* \"#utility.yul\":5142:5264   */\n        tag_51:\n            /* \"#utility.yul\":5215:5239   */\n          tag_133\n            /* \"#utility.yul\":5233:5238   */\n          dup2\n            /* \"#utility.yul\":5215:5239   */\n          tag_50\n          jump\t// in\n        tag_133:\n            /* \"#utility.yul\":5208:5213   */\n          dup2\n            /* \"#utility.yul\":5205:5240   */\n          eq\n            /* \"#utility.yul\":5195:5258   */\n          tag_134\n          jumpi\n            /* \"#utility.yul\":5254:5255   */\n          0x00\n            /* \"#utility.yul\":5251:5252   */\n          dup1\n            /* \"#utility.yul\":5244:5256   */\n          revert\n            /* \"#utility.yul\":5195:5258   */\n        tag_134:\n            /* \"#utility.yul\":5142:5264   */\n          pop\n          jump\t// out\n            /* \"#utility.yul\":5270:5413   */\n        tag_52:\n            /* \"#utility.yul\":5327:5332   */\n          0x00\n            /* \"#utility.yul\":5358:5364   */\n          dup2\n            /* \"#utility.yul\":5352:5365   */\n          mload\n            /* \"#utility.yul\":5343:5365   */\n          swap1\n          pop\n            /* \"#utility.yul\":5374:5407   */\n          tag_136\n            /* \"#utility.yul\":5401:5406   */\n          dup2\n            /* \"#utility.yul\":5374:5407   */\n          tag_51\n          jump\t// in\n        tag_136:\n            /* \"#utility.yul\":5270:5413   */\n          swap3\n          swap2\n          pop\n          pop\n          jump\t// out\n            /* \"#utility.yul\":5419:6788   */\n        tag_3:\n            /* \"#utility.yul\":5568:5574   */\n          0x00\n            /* \"#utility.yul\":5576:5582   */\n          dup1\n            /* \"#utility.yul\":5584:5590   */\n          0x00\n            /* \"#utility.yul\":5592:5598   */\n          dup1\n            /* \"#utility.yul\":5600:5606   */\n          0x00\n            /* \"#utility.yul\":5649:5652   */\n          0xa0\n            /* \"#utility.yul\":5637:5646   */\n          dup7\n            /* \"#utility.yul\":5628:5635   */\n          dup9\n            /* \"#utility.yul\":5624:5647   */\n          sub\n            /* \"#utility.yul\":5620:5653   */\n          slt\n            /* \"#utility.yul\":5617:5737   */\n          iszero\n          tag_138\n          jumpi\n            /* \"#utility.yul\":5656:5735   */\n          tag_139\n          tag_30\n          jump\t// in\n        tag_139:\n            /* \"#utility.yul\":5617:5737   */\n        tag_138:\n            /* \"#utility.yul\":5797:5798   */\n          0x00\n            /* \"#utility.yul\":5786:5795   */\n          dup7\n            /* \"#utility.yul\":5782:5799   */\n          add\n            /* \"#utility.yul\":5776:5800   */\n          mload\n            /* \"#utility.yul\":5827:5845   */\n          0xffffffffffffffff\n            /* \"#utility.yul\":5819:5825   */\n          dup2\n            /* \"#utility.yul\":5816:5846   */\n          gt\n            /* \"#utility.yul\":5813:5930   */\n          iszero\n          tag_140\n          jumpi\n            /* \"#utility.yul\":5849:5928   */\n          tag_141\n          tag_31\n          jump\t// in\n        tag_141:\n            /* \"#utility.yul\":5813:5930   */\n        tag_140:\n            /* \"#utility.yul\":5954:6028   */\n          tag_142\n            /* \"#utility.yul\":6020:6027   */\n          dup9\n            /* \"#utility.yul\":6011:6017   */\n          dup3\n            /* \"#utility.yul\":6000:6009   */\n          dup10\n            /* \"#utility.yul\":5996:6018   */\n          add\n            /* \"#utility.yul\":5954:6028   */\n          tag_41\n          jump\t// in\n        tag_142:\n            /* \"#utility.yul\":5944:6028   */\n          swap6\n          pop\n            /* \"#utility.yul\":5747:6038   */\n          pop\n            /* \"#utility.yul\":6098:6100   */\n          0x20\n            /* \"#utility.yul\":6087:6096   */\n          dup7\n            /* \"#utility.yul\":6083:6101   */\n          add\n            /* \"#utility.yul\":6077:6102   */\n          mload\n            /* \"#utility.yul\":6129:6147   */\n          0xffffffffffffffff\n            /* \"#utility.yul\":6121:6127   */\n          dup2\n            /* \"#utility.yul\":6118:6148   */\n          gt\n            /* \"#utility.yul\":6115:6232   */\n          iszero\n          tag_143\n          jumpi\n            /* \"#utility.yul\":6151:6230   */\n          tag_144\n          tag_31\n          jump\t// in\n        tag_144:\n            /* \"#utility.yul\":6115:6232   */\n        tag_143:\n            /* \"#utility.yul\":6256:6355   */\n          tag_145\n            /* \"#utility.yul\":6347:6354   */\n          dup9\n            /* \"#utility.yul\":6338:6344   */\n          dup3\n            /* \"#utility.yul\":6327:6336   */\n          dup10\n            /* \"#utility.yul\":6323:6345   */\n          add\n            /* \"#utility.yul\":6256:6355   */\n          tag_45\n          jump\t// in\n        tag_145:\n            /* \"#utility.yul\":6246:6355   */\n          swap5\n          pop\n            /* \"#utility.yul\":6048:6365   */\n          pop\n            /* \"#utility.yul\":6404:6406   */\n          0x40\n            /* \"#utility.yul\":6430:6493   */\n          tag_146\n            /* \"#utility.yul\":6485:6492   */\n          dup9\n            /* \"#utility.yul\":6476:6482   */\n          dup3\n            /* \"#utility.yul\":6465:6474   */\n          dup10\n            /* \"#utility.yul\":6461:6483   */\n          add\n            /* \"#utility.yul\":6430:6493   */\n          tag_48\n          jump\t// in\n        tag_146:\n            /* \"#utility.yul\":6420:6493   */\n          swap4\n          pop\n            /* \"#utility.yul\":6375:6503   */\n          pop\n            /* \"#utility.yul\":6542:6544   */\n          0x60\n            /* \"#utility.yul\":6568:6631   */\n          tag_147\n            /* \"#utility.yul\":6623:6630   */\n          dup9\n            /* \"#utility.yul\":6614:6620   */\n          dup3\n            /* \"#utility.yul\":6603:6612   */\n          dup10\n            /* \"#utility.yul\":6599:6621   */\n          add\n            /* \"#utility.yul\":6568:6631   */\n          tag_48\n          jump\t// in\n        tag_147:\n            /* \"#utility.yul\":6558:6631   */\n          swap3\n          pop\n            /* \"#utility.yul\":6513:6641   */\n          pop\n            /* \"#utility.yul\":6680:6683   */\n          0x80\n            /* \"#utility.yul\":6707:6771   */\n          tag_148\n            /* \"#utility.yul\":6763:6770   */\n          dup9\n            /* \"#utility.yul\":6754:6760   */\n          dup3\n            /* \"#utility.yul\":6743:6752   */\n          dup10\n            /* \"#utility.yul\":6739:6761   */\n          add\n            /* \"#utility.yul\":6707:6771   */\n          tag_52\n          jump\t// in\n        tag_148:\n            /* \"#utility.yul\":6697:6771   */\n          swap2\n          pop\n            /* \"#utility.yul\":6651:6781   */\n          pop\n            /* \"#utility.yul\":5419:6788   */\n          swap3\n          swap6\n          pop\n          swap3\n          swap6\n          swap1\n          swap4\n          pop\n          jump\t// out\n            /* \"#utility.yul\":6794:6893   */\n        tag_53:\n            /* \"#utility.yul\":6846:6852   */\n          0x00\n            /* \"#utility.yul\":6880:6885   */\n          dup2\n            /* \"#utility.yul\":6874:6886   */\n          mload\n            /* \"#utility.yul\":6864:6886   */\n          swap1\n          pop\n            /* \"#utility.yul\":6794:6893   */\n          swap2\n          swap1\n          pop\n          jump\t// out\n            /* \"#utility.yul\":6899:7079   */\n        tag_54:\n            /* \"#utility.yul\":6947:7024   */\n          0x4e487b7100000000000000000000000000000000000000000000000000000000\n            /* \"#utility.yul\":6944:6945   */\n          0x00\n            /* \"#utility.yul\":6937:7025   */\n          mstore\n            /* \"#utility.yul\":7044:7048   */\n          0x22\n            /* \"#utility.yul\":7041:7042   */\n          0x04\n            /* \"#utility.yul\":7034:7049   */\n          mstore\n            /* \"#utility.yul\":7068:7072   */\n          0x24\n            /* \"#utility.yul\":7065:7066   */\n          0x00\n            /* \"#utility.yul\":7058:7073   */\n          revert\n            /* \"#utility.yul\":7085:7405   */\n        tag_22:\n            /* \"#utility.yul\":7129:7135   */\n          0x00\n            /* \"#utility.yul\":7166:7167   */\n          0x02\n            /* \"#utility.yul\":7160:7164   */\n          dup3\n            /* \"#utility.yul\":7156:7168   */\n          div\n            /* \"#utility.yul\":7146:7168   */\n          swap1\n          pop\n            /* \"#utility.yul\":7213:7214   */\n          0x01\n            /* \"#utility.yul\":7207:7211   */\n          dup3\n            /* \"#utility.yul\":7203:7215   */\n          and\n            /* \"#utility.yul\":7234:7252   */\n          dup1\n            /* \"#utility.yul\":7224:7305   */\n          tag_152\n          jumpi\n            /* \"#utility.yul\":7290:7294   */\n          0x7f\n            /* \"#utility.yul\":7282:7288   */\n          dup3\n            /* \"#utility.yul\":7278:7295   */\n          and\n            /* \"#utility.yul\":7268:7295   */\n          swap2\n          pop\n            /* \"#utility.yul\":7224:7305   */\n        tag_152:\n            /* \"#utility.yul\":7352:7354   */\n          0x20\n            /* \"#utility.yul\":7344:7350   */\n          dup3\n            /* \"#utility.yul\":7341:7355   */\n          lt\n            /* \"#utility.yul\":7321:7339   */\n          dup2\n            /* \"#utility.yul\":7318:7356   */\n          sub\n            /* \"#utility.yul\":7315:7399   */\n          tag_153\n          jumpi\n            /* \"#utility.yul\":7371:7389   */\n          tag_154\n          tag_54\n          jump\t// in\n        tag_154:\n            /* \"#utility.yul\":7315:7399   */\n        tag_153:\n            /* \"#utility.yul\":7136:7405   */\n          pop\n            /* \"#utility.yul\":7085:7405   */\n          swap2\n          swap1\n          pop\n          jump\t// out\n            /* \"#utility.yul\":7411:7552   */\n        tag_55:\n            /* \"#utility.yul\":7460:7464   */\n          0x00\n            /* \"#utility.yul\":7483:7486   */\n          dup2\n            /* \"#utility.yul\":7475:7486   */\n          swap1\n          pop\n            /* \"#utility.yul\":7506:7509   */\n          dup2\n            /* \"#utility.yul\":7503:7504   */\n          0x00\n            /* \"#utility.yul\":7496:7510   */\n          mstore\n            /* \"#utility.yul\":7540:7544   */\n          0x20\n            /* \"#utility.yul\":7537:7538   */\n          0x00\n            /* \"#utility.yul\":7527:7545   */\n          keccak256\n            /* \"#utility.yul\":7519:7545   */\n          swap1\n          pop\n            /* \"#utility.yul\":7411:7552   */\n          swap2\n          swap1\n          pop\n          jump\t// out\n            /* \"#utility.yul\":7558:7651   */\n        tag_56:\n            /* \"#utility.yul\":7595:7601   */\n          0x00\n            /* \"#utility.yul\":7642:7644   */\n          0x20\n            /* \"#utility.yul\":7637:7639   */\n          0x1f\n            /* \"#utility.yul\":7630:7635   */\n          dup4\n            /* \"#utility.yul\":7626:7640   */\n          add\n            /* \"#utility.yul\":7622:7645   */\n          div\n            /* \"#utility.yul\":7612:7645   */\n          swap1\n          pop\n            /* \"#utility.yul\":7558:7651   */\n          swap2\n          swap1\n          pop\n          jump\t// out\n            /* \"#utility.yul\":7657:7764   */\n        tag_57:\n            /* \"#utility.yul\":7701:7709   */\n          0x00\n            /* \"#utility.yul\":7751:7756   */\n          dup3\n            /* \"#utility.yul\":7745:7749   */\n          dup3\n            /* \"#utility.yul\":7741:7757   */\n          shl\n            /* \"#utility.yul\":7720:7757   */\n          swap1\n          pop\n            /* \"#utility.yul\":7657:7764   */\n          swap3\n          swap2\n          pop\n          pop\n          jump\t// out\n            /* \"#utility.yul\":7770:8163   */\n        tag_58:\n            /* \"#utility.yul\":7839:7845   */\n          0x00\n            /* \"#utility.yul\":7889:7890   */\n          0x08\n            /* \"#utility.yul\":7877:7887   */\n          dup4\n            /* \"#utility.yul\":7873:7891   */\n          mul\n            /* \"#utility.yul\":7912:8009   */\n          tag_159\n            /* \"#utility.yul\":7942:8008   */\n          0xffffffffffffffffffffffffffffffffffffffffffffffffffffffffffffffff\n            /* \"#utility.yul\":7931:7940   */\n          dup3\n            /* \"#utility.yul\":7912:8009   */\n          tag_57\n          jump\t// in\n        tag_159:\n            /* \"#utility.yul\":8030:8069   */\n          tag_160\n            /* \"#utility.yul\":8060:8068   */\n          dup7\n            /* \"#utility.yul\":8049:8058   */\n          dup4\n            /* \"#utility.yul\":8030:8069   */\n          tag_57\n          jump\t// in\n        tag_160:\n            /* \"#utility.yul\":8018:8069   */\n          swap6\n          pop\n            /* \"#utility.yul\":8102:8106   */\n          dup1\n            /* \"#utility.yul\":8098:8107   */\n          not\n            /* \"#utility.yul\":8091:8096   */\n          dup5\n            /* \"#utility.yul\":8087:8108   */\n          and\n            /* \"#utility.yul\":8078:8108   */\n          swap4\n          pop\n            /* \"#utility.yul\":8151:8155   */\n          dup1\n            /* \"#utility.yul\":8141:8149   */\n          dup7\n            /* \"#utility.yul\":8137:8156   */\n          and\n            /* \"#utility.yul\":8130:8135   */\n          dup5\n            /* \"#utility.yul\":8127:8157   */\n          or\n            /* \"#utility.yul\":8117:8157   */\n          swap3\n          pop\n            /* \"#utility.yul\":7846:8163   */\n          pop\n          pop\n            /* \"#utility.yul\":7770:8163   */\n          swap4\n          swap3\n          pop\n          pop\n          pop\n          jump\t// out\n            /* \"#utility.yul\":8169:8246   */\n        tag_59:\n            /* \"#utility.yul\":8206:8213   */\n          0x00\n            /* \"#utility.yul\":8235:8240   */\n          dup2\n            /* \"#utility.yul\":8224:8240   */\n          swap1\n          pop\n            /* \"#utility.yul\":8169:8246   */\n          swap2\n          swap1\n          pop\n          jump\t// out\n            /* \"#utility.yul\":8252:8312   */\n        tag_60:\n            /* \"#utility.yul\":8280:8283   */\n          0x00\n            /* \"#utility.yul\":8301:8306   */\n          dup2\n            /* \"#utility.yul\":8294:8306   */\n          swap1\n          pop\n            /* \"#utility.yul\":8252:8312   */\n          swap2\n          swap1\n          pop\n          jump\t// out\n            /* \"#utility.yul\":8318:8460   */\n        tag_61:\n            /* \"#utility.yul\":8368:8377   */\n          0x00\n            /* \"#utility.yul\":8401:8454   */\n          tag_164\n            /* \"#utility.yul\":8419:8453   */\n          tag_165\n            /* \"#utility.yul\":8428:8452   */\n          tag_166\n            /* \"#utility.yul\":8446:8451   */\n          dup5\n            /* \"#utility.yul\":8428:8452   */\n          tag_59\n          jump\t// in\n        tag_166:\n            /* \"#utility.yul\":8419:8453   */\n          tag_60\n          jump\t// in\n        tag_165:\n            /* \"#utility.yul\":8401:8454   */\n          tag_59\n          jump\t// in\n        tag_164:\n            /* \"#utility.yul\":8388:8454   */\n          swap1\n          pop\n            /* \"#utility.yul\":8318:8460   */\n          swap2\n          swap1\n          pop\n          jump\t// out\n            /* \"#utility.yul\":8466:8541   */\n        tag_62:\n            /* \"#utility.yul\":8509:8512   */\n          0x00\n            /* \"#utility.yul\":8530:8535   */\n          dup2\n            /* \"#utility.yul\":8523:8535   */\n          swap1\n          pop\n            /* \"#utility.yul\":8466:8541   */\n          swap2\n          swap1\n          pop\n          jump\t// out\n            /* \"#utility.yul\":8547:8816   */\n        tag_63:\n            /* \"#utility.yul\":8657:8696   */\n          tag_169\n            /* \"#utility.yul\":8688:8695   */\n          dup4\n            /* \"#utility.yul\":8657:8696   */\n          tag_61\n          jump\t// in\n        tag_169:\n            /* \"#utility.yul\":8718:8809   */\n          tag_170\n            /* \"#utility.yul\":8767:8808   */\n          tag_171\n            /* \"#utility.yul\":8791:8807   */\n          dup3\n            /* \"#utility.yul\":8767:8808   */\n          tag_62\n          jump\t// in\n        tag_171:\n            /* \"#utility.yul\":8759:8765   */\n          dup5\n            /* \"#utility.yul\":8752:8756   */\n          dup5\n            /* \"#utility.yul\":8746:8757   */\n          sload\n            /* \"#utility.yul\":8718:8809   */\n          tag_58\n          jump\t// in\n        tag_170:\n            /* \"#utility.yul\":8712:8716   */\n          dup3\n            /* \"#utility.yul\":8705:8810   */\n          sstore\n            /* \"#utility.yul\":8623:8816   */\n          pop\n            /* \"#utility.yul\":8547:8816   */\n          pop\n          pop\n          pop\n          jump\t// out\n            /* \"#utility.yul\":8822:8895   */\n        tag_64:\n            /* \"#utility.yul\":8867:8870   */\n          0x00\n            /* \"#utility.yul\":8822:8895   */\n          swap1\n          jump\t// out\n            /* \"#utility.yul\":8901:9090   */\n        tag_65:\n            /* \"#utility.yul\":8978:9010   */\n          tag_174\n          tag_64\n          jump\t// in\n        tag_174:\n            /* \"#utility.yul\":9019:9084   */\n          tag_175\n            /* \"#utility.yul\":9077:9083   */\n          dup2\n            /* \"#utility.yul\":9069:9075   */\n          dup5\n            /* \"#utility.yul\":9063:9067   */\n          dup5\n            /* \"#utility.yul\":9019:9084   */\n          tag_63\n          jump\t// in\n        tag_175:\n            /* \"#utility.yul\":8954:9090   */\n          pop\n            /* \"#utility.yul\":8901:9090   */\n          pop\n          pop\n          jump\t// out\n            /* \"#utility.yul\":9096:9282   */\n        tag_66:\n            /* \"#utility.yul\":9156:9276   */\n        tag_177:\n            /* \"#utility.yul\":9173:9176   */\n          dup2\n            /* \"#utility.yul\":9166:9171   */\n          dup2\n            /* \"#utility.yul\":9163:9177   */\n          lt\n            /* \"#utility.yul\":9156:9276   */\n          iszero\n          tag_179\n          jumpi\n            /* \"#utility.yul\":9227:9266   */\n          tag_180\n            /* \"#utility.yul\":9264:9265   */\n          0x00\n            /* \"#utility.yul\":9257:9262   */\n          dup3\n            /* \"#utility.yul\":9227:9266   */\n          tag_65\n          jump\t// in\n        tag_180:\n            /* \"#utility.yul\":9200:9201   */\n          0x01\n            /* \"#utility.yul\":9193:9198   */\n          dup2\n            /* \"#utility.yul\":9189:9202   */\n          add\n            /* \"#utility.yul\":9180:9202   */\n          swap1\n          pop\n            /* \"#utility.yul\":9156:9276   */\n          jump(tag_177)\n        tag_179:\n            /* \"#utility.yul\":9096:9282   */\n          pop\n          pop\n          jump\t// out\n            /* \"#utility.yul\":9288:9831   */\n        tag_67:\n            /* \"#utility.yul\":9389:9391   */\n          0x1f\n            /* \"#utility.yul\":9384:9387   */\n          dup3\n            /* \"#utility.yul\":9381:9392   */\n          gt\n            /* \"#utility.yul\":9378:9824   */\n          iszero\n          tag_182\n          jumpi\n            /* \"#utility.yul\":9423:9461   */\n          tag_183\n            /* \"#utility.yul\":9455:9460   */\n          dup2\n            /* \"#utility.yul\":9423:9461   */\n          tag_55\n          jump\t// in\n        tag_183:\n            /* \"#utility.yul\":9507:9536   */\n          tag_184\n            /* \"#utility.yul\":9525:9535   */\n          dup5\n            /* \"#utility.yul\":9507:9536   */\n          tag_56\n          jump\t// in\n        tag_184:\n            /* \"#utility.yul\":9497:9505   */\n          dup2\n            /* \"#utility.yul\":9493:9537   */\n          add\n            /* \"#utility.yul\":9690:9692   */\n          0x20\n            /* \"#utility.yul\":9678:9688   */\n          dup6\n            /* \"#utility.yul\":9675:9693   */\n          lt\n            /* \"#utility.yul\":9672:9721   */\n          iszero\n          tag_185\n          jumpi\n            /* \"#utility.yul\":9711:9719   */\n          dup2\n            /* \"#utility.yul\":9696:9719   */\n          swap1\n          pop\n            /* \"#utility.yul\":9672:9721   */\n        tag_185:\n            /* \"#utility.yul\":9734:9814   */\n          tag_186\n            /* \"#utility.yul\":9790:9812   */\n          tag_187\n            /* \"#utility.yul\":9808:9811   */\n          dup6\n            /* \"#utility.yul\":9790:9812   */\n          tag_56\n          jump\t// in\n        tag_187:\n            /* \"#utility.yul\":9780:9788   */\n          dup4\n            /* \"#utility.yul\":9776:9813   */\n          add\n            /* \"#utility.yul\":9763:9774   */\n          dup3\n            /* \"#utility.yul\":9734:9814   */\n          tag_66\n          jump\t// in\n        tag_186:\n            /* \"#utility.yul\":9393:9824   */\n          pop\n          pop\n            /* \"#utility.yul\":9378:9824   */\n        tag_182:\n            /* \"#utility.yul\":9288:9831   */\n          pop\n          pop\n          pop\n          jump\t// out\n            /* \"#utility.yul\":9837:9954   */\n        tag_68:\n            /* \"#utility.yul\":9891:9899   */\n          0x00\n            /* \"#utility.yul\":9941:9946   */\n          dup3\n            /* \"#utility.yul\":9935:9939   */\n          dup3\n            /* \"#utility.yul\":9931:9947   */\n          shr\n            /* \"#utility.yul\":9910:9947   */\n          swap1\n          pop\n            /* \"#utility.yul\":9837:9954   */\n          swap3\n          swap2\n          pop\n          pop\n          jump\t// out\n            /* \"#utility.yul\":9960:10129   */\n        tag_69:\n            /* \"#utility.yul\":10004:10010   */\n          0x00\n            /* \"#utility.yul\":10037:10088   */\n          tag_190\n            /* \"#utility.yul\":10085:10086   */\n          0x00\n            /* \"#utility.yul\":10081:10087   */\n          not\n            /* \"#utility.yul\":10073:10078   */\n          dup5\n            /* \"#utility.yul\":10070:10071   */\n          0x08\n            /* \"#utility.yul\":10066:10079   */\n          mul\n            /* \"#utility.yul\":10037:10088   */\n          tag_68\n          jump\t// in\n        tag_190:\n            /* \"#utility.yul\":10033:10089   */\n          not\n            /* \"#utility.yul\":10118:10122   */\n          dup1\n            /* \"#utility.yul\":10112:10116   */\n          dup4\n            /* \"#utility.yul\":10108:10123   */\n          and\n            /* \"#utility.yul\":10098:10123   */\n          swap2\n          pop\n            /* \"#utility.yul\":10011:10129   */\n          pop\n            /* \"#utility.yul\":9960:10129   */\n          swap3\n          swap2\n          pop\n          pop\n          jump\t// out\n            /* \"#utility.yul\":10134:10429   */\n        tag_70:\n            /* \"#utility.yul\":10210:10214   */\n          0x00\n            /* \"#utility.yul\":10356:10385   */\n          tag_192\n            /* \"#utility.yul\":10381:10384   */\n          dup4\n            /* \"#utility.yul\":10375:10379   */\n          dup4\n            /* \"#utility.yul\":10356:10385   */\n          tag_69\n          jump\t// in\n        tag_192:\n            /* \"#utility.yul\":10348:10385   */\n          swap2\n          pop\n            /* \"#utility.yul\":10418:10421   */\n          dup3\n            /* \"#utility.yul\":10415:10416   */\n          0x02\n            /* \"#utility.yul\":10411:10422   */\n          mul\n            /* \"#utility.yul\":10405:10409   */\n          dup3\n            /* \"#utility.yul\":10402:10423   */\n          or\n            /* \"#utility.yul\":10394:10423   */\n          swap1\n          pop\n            /* \"#utility.yul\":10134:10429   */\n          swap3\n          swap2\n          pop\n          pop\n          jump\t// out\n            /* \"#utility.yul\":10434:11829   */\n        tag_7:\n            /* \"#utility.yul\":10551:10588   */\n          tag_194\n            /* \"#utility.yul\":10584:10587   */\n          dup3\n            /* \"#utility.yul\":10551:10588   */\n          tag_53\n          jump\t// in\n        tag_194:\n            /* \"#utility.yul\":10653:10671   */\n          0xffffffffffffffff\n            /* \"#utility.yul\":10645:10651   */\n          dup2\n            /* \"#utility.yul\":10642:10672   */\n          gt\n            /* \"#utility.yul\":10639:10695   */\n          iszero\n          tag_195\n          jumpi\n            /* \"#utility.yul\":10675:10693   */\n          tag_196\n          tag_35\n          jump\t// in\n        tag_196:\n            /* \"#utility.yul\":10639:10695   */\n        tag_195:\n            /* \"#utility.yul\":10719:10757   */\n          tag_197\n            /* \"#utility.yul\":10751:10755   */\n          dup3\n            /* \"#utility.yul\":10745:10756   */\n          sload\n            /* \"#utility.yul\":10719:10757   */\n          tag_22\n          jump\t// in\n        tag_197:\n            /* \"#utility.yul\":10804:10871   */\n          tag_198\n            /* \"#utility.yul\":10864:10870   */\n          dup3\n            /* \"#utility.yul\":10856:10862   */\n          dup3\n            /* \"#utility.yul\":10850:10854   */\n          dup6\n            /* \"#utility.yul\":10804:10871   */\n          tag_67\n          jump\t// in\n        tag_198:\n            /* \"#utility.yul\":10898:10899   */\n          0x00\n            /* \"#utility.yul\":10922:10926   */\n          0x20\n            /* \"#utility.yul\":10909:10926   */\n          swap1\n          pop\n            /* \"#utility.yul\":10954:10956   */\n          0x1f\n            /* \"#utility.yul\":10946:10952   */\n          dup4\n            /* \"#utility.yul\":10943:10957   */\n          gt\n            /* \"#utility.yul\":10971:10972   */\n          0x01\n            /* \"#utility.yul\":10966:11584   */\n          dup2\n          eq\n          tag_200\n          jumpi\n            /* \"#utility.yul\":11628:11629   */\n          0x00\n            /* \"#utility.yul\":11645:11651   */\n          dup5\n            /* \"#utility.yul\":11642:11719   */\n          iszero\n          tag_201\n          jumpi\n            /* \"#utility.yul\":11694:11703   */\n          dup3\n            /* \"#utility.yul\":11689:11692   */\n          dup8\n            /* \"#utility.yul\":11685:11704   */\n          add\n            /* \"#utility.yul\":11679:11705   */\n          mload\n            /* \"#utility.yul\":11670:11705   */\n          swap1\n          pop\n            /* \"#utility.yul\":11642:11719   */\n        tag_201:\n            /* \"#utility.yul\":11745:11812   */\n          tag_202\n            /* \"#utility.yul\":11805:11811   */\n          dup6\n            /* \"#utility.yul\":11798:11803   */\n          dup3\n            /* \"#utility.yul\":11745:11812   */\n          tag_70\n          jump\t// in\n        tag_202:\n            /* \"#utility.yul\":11739:11743   */\n          dup7\n            /* \"#utility.yul\":11732:11813   */\n          sstore\n            /* \"#utility.yul\":11601:11823   */\n          pop\n            /* \"#utility.yul\":10936:11823   */\n          jump(tag_199)\n            /* \"#utility.yul\":10966:11584   */\n        tag_200:\n            /* \"#utility.yul\":11018:11022   */\n          0x1f\n            /* \"#utility.yul\":11014:11023   */\n          not\n            /* \"#utility.yul\":11006:11012   */\n          dup5\n            /* \"#utility.yul\":11002:11024   */\n          and\n            /* \"#utility.yul\":11052:11089   */\n          tag_203\n            /* \"#utility.yul\":11084:11088   */\n          dup7\n            /* \"#utility.yul\":11052:11089   */\n          tag_55\n          jump\t// in\n        tag_203:\n            /* \"#utility.yul\":11111:11112   */\n          0x00\n            /* \"#utility.yul\":11125:11333   */\n        tag_204:\n            /* \"#utility.yul\":11139:11146   */\n          dup3\n            /* \"#utility.yul\":11136:11137   */\n          dup2\n            /* \"#utility.yul\":11133:11147   */\n          lt\n            /* \"#utility.yul\":11125:11333   */\n          iszero\n          tag_206\n          jumpi\n            /* \"#utility.yul\":11218:11227   */\n          dup5\n            /* \"#utility.yul\":11213:11216   */\n          dup10\n            /* \"#utility.yul\":11209:11228   */\n          add\n            /* \"#utility.yul\":11203:11229   */\n          mload\n            /* \"#utility.yul\":11195:11201   */\n          dup3\n            /* \"#utility.yul\":11188:11230   */\n          sstore\n            /* \"#utility.yul\":11269:11270   */\n          0x01\n            /* \"#utility.yul\":11261:11267   */\n          dup3\n            /* \"#utility.yul\":11257:11271   */\n          add\n            /* \"#utility.yul\":11247:11271   */\n          swap2\n          pop\n            /* \"#utility.yul\":11316:11318   */\n          0x20\n            /* \"#utility.yul\":11305:11314   */\n          dup6\n            /* \"#utility.yul\":11301:11319   */\n          add\n            /* \"#utility.yul\":11288:11319   */\n          swap5\n          pop\n            /* \"#utility.yul\":11162:11166   */\n          0x20\n            /* \"#utility.yul\":11159:11160   */\n          dup2\n            /* \"#utility.yul\":11155:11167   */\n          add\n            /* \"#utility.yul\":11150:11167   */\n          swap1\n          pop\n            /* \"#utility.yul\":11125:11333   */\n          jump(tag_204)\n        tag_206:\n            /* \"#utility.yul\":11361:11367   */\n          dup7\n            /* \"#utility.yul\":11352:11359   */\n          dup4\n            /* \"#utility.yul\":11349:11368   */\n          lt\n            /* \"#utility.yul\":11346:11525   */\n          iszero\n          tag_207\n          jumpi\n            /* \"#utility.yul\":11419:11428   */\n          dup5\n            /* \"#utility.yul\":11414:11417   */\n          dup10\n            /* \"#utility.yul\":11410:11429   */\n          add\n            /* \"#utility.yul\":11404:11430   */\n          mload\n            /* \"#utility.yul\":11462:11510   */\n          tag_208\n            /* \"#utility.yul\":11504:11508   */\n          0x1f\n            /* \"#utility.yul\":11496:11502   */\n          dup10\n            /* \"#utility.yul\":11492:11509   */\n          and\n            /* \"#utility.yul\":11481:11490   */\n          dup3\n            /* \"#utility.yul\":11462:11510   */\n          tag_69\n          jump\t// in\n        tag_208:\n            /* \"#utility.yul\":11454:11460   */\n          dup4\n            /* \"#utility.yul\":11447:11511   */\n          sstore\n            /* \"#utility.yul\":11369:11525   */\n          pop\n            /* \"#utility.yul\":11346:11525   */\n        tag_207:\n            /* \"#utility.yul\":11571:11572   */\n          0x01\n            /* \"#utility.yul\":11567:11568   */\n          0x02\n            /* \"#utility.yul\":11559:11565   */\n          dup9\n            /* \"#utility.yul\":11555:11569   */\n          mul\n            /* \"#utility.yul\":11551:11573   */\n          add\n            /* \"#utility.yul\":11545:11549   */\n          dup9\n            /* \"#utility.yul\":11538:11574   */\n          sstore\n            /* \"#utility.yul\":10973:11584   */\n          pop\n          pop\n          pop\n            /* \"#utility.yul\":10936:11823   */\n        tag_199:\n          pop\n            /* \"#utility.yul\":10526:11829   */\n          pop\n          pop\n          pop\n            /* \"#utility.yul\":10434:11829   */\n          pop\n          pop\n          jump\t// out\n            /* \"Voting.sol\":584:3940  contract Voting {... */\n        tag_10:\n          dataSize(sub_0)\n          dup1\n          dataOffset(sub_0)\n          0x00\n          codecopy\n          0x00\n          return\n        stop\n\n        sub_0: assembly {\n                /* \"Voting.sol\":584:3940  contract Voting {... */\n              mstore(0x40, 0x80)\n              callvalue\n              dup1\n              iszero\n              tag_1\n              jumpi\n              0x00\n              dup1\n              revert\n            tag_1:\n              pop\n              jumpi(tag_2, lt(calldatasize, 0x04))\n              shr(0xe0, calldataload(0x00))\n              dup1\n              0x70babc8a\n              gt\n              tag_22\n              jumpi\n              dup1\n              0xa944b7a6\n              gt\n              tag_23\n              jumpi\n              dup1\n              0xa944b7a6\n              eq\n              tag_17\n              jumpi\n              dup1\n              0xb3f98adc\n              eq\n              tag_18\n              jumpi\n              dup1\n              0xc24a0f8b\n              eq\n              tag_19\n              jumpi\n              dup1\n              0xefc4afe7\n              eq\n              tag_20\n              jumpi\n              dup1\n              0xf4ab9adf\n              eq\n              tag_21\n              jumpi\n              jump(tag_2)\n            tag_23:\n              dup1\n              0x70babc8a\n              eq\n              tag_12\n              jumpi\n              dup1\n              0x78622c5d\n              eq\n              tag_13\n              jumpi\n              dup1\n              0x8953bb72\n              eq\n              tag_14\n              jumpi\n              dup1\n              0x9d9a7fe9\n              eq\n              tag_15\n              jumpi\n              dup1\n              0xa3d45314\n              eq\n              tag_16\n              jumpi\n              jump(tag_2)\n            tag_22:\n              dup1\n              0x481c6a75\n              gt\n              tag_24\n              jumpi\n              dup1\n              0x481c6a75\n              eq\n              tag_7\n              jumpi\n              dup1\n              0x4a79d50c\n              eq\n              tag_8\n              jumpi\n              dup1\n              0x4e69d560\n              eq\n              tag_9\n              jumpi\n              dup1\n              0x522e1177\n              eq\n              tag_10\n              jumpi\n              dup1\n              0x64e13125\n              eq\n              tag_11\n              jumpi\n              jump(tag_2)\n            tag_24:\n              dup1\n              0x131ff76e\n              eq\n              tag_3\n              jumpi\n              dup1\n              0x13b0ba19\n              eq\n              tag_4\n              jumpi\n              dup1\n              0x1632c03f\n              eq\n              tag_5\n              jumpi\n              dup1\n              0x255adfd4\n              eq\n              tag_6\n              jumpi\n            tag_2:\n              0x00\n              dup1\n              revert\n                /* \"Voting.sol\":3480:3586  function getAllChoiceNames() external view returns (string[] memory) {... */\n            tag_3:\n              tag_25\n              tag_26\n              jump\t// in\n            tag_25:\n              mload(0x40)\n              tag_27\n              swap2\n              swap1\n              tag_28\n              jump\t// in\n            tag_27:\n              mload(0x40)\n              dup1\n              swap2\n              sub\n              swap1\n              return\n                /* \"Voting.sol\":1315:1358  mapping(uint8 => uint32) public choiceVotes */\n            tag_4:\n              tag_29\n              0x04\n              dup1\n              calldatasize\n              sub\n              dup2\n              add\n              swap1\n              tag_30\n              swap2\n              swap1\n              tag_31\n              jump\t// in\n            tag_30:\n              tag_32\n              jump\t// in\n            tag_29:\n              mload(0x40)\n              tag_33\n              swap2\n              swap1\n              tag_34\n              jump\t// in\n            tag_33:\n              mload(0x40)\n              dup1\n              swap2\n              sub\n              swap1\n              return\n                /* \"Voting.sol\":736:761  uint8 public totalChoices */\n            tag_5:\n              tag_35\n              tag_36\n              jump\t// in\n            tag_35:\n              mload(0x40)\n              tag_37\n              swap2\n              swap1\n              tag_38\n              jump\t// in\n            tag_37:\n              mload(0x40)\n              dup1\n              swap2\n              sub\n              swap1\n              return\n                /* \"Voting.sol\":1263:1308  mapping(address => bool) public allowedVoters */\n            tag_6:\n              tag_39\n              0x04\n              dup1\n              calldatasize\n              sub\n              dup2\n              add\n              swap1\n              tag_40\n              swap2\n              swap1\n              tag_41\n              jump\t// in\n            tag_40:\n              tag_42\n              jump\t// in\n            tag_39:\n              mload(0x40)\n              tag_43\n              swap2\n              swap1\n              tag_44\n              jump\t// in\n            tag_43:\n              mload(0x40)\n              dup1\n              swap2\n              sub\n              swap1\n              return\n                /* \"Voting.sol\":707:729  address public manager */\n            tag_7:\n              tag_45\n              tag_46\n              jump\t// in\n            tag_45:\n              mload(0x40)\n              tag_47\n              swap2\n              swap1\n              tag_48\n              jump\t// in\n            tag_47:\n              mload(0x40)\n              dup1\n              swap2\n              sub\n              swap1\n              return\n                /* \"Voting.sol\":1101:1120  string public title */\n            tag_8:\n              tag_49\n              tag_50\n              jump\t// in\n            tag_49:\n              mload(0x40)\n              tag_51\n              swap2\n              swap1\n              tag_52\n              jump\t// in\n            tag_51:\n              mload(0x40)\n              dup1\n              swap2\n              sub\n              swap1\n              return\n                /* \"Voting.sol\":3594:3937  function getStatus()... */\n            tag_9:\n              tag_53\n              tag_54\n              jump\t// in\n            tag_53:\n              mload(0x40)\n              tag_55\n              swap8\n              swap7\n              swap6\n              swap5\n              swap4\n              swap3\n              swap2\n              swap1\n              tag_56\n              jump\t// in\n            tag_55:\n              mload(0x40)\n              dup1\n              swap2\n              sub\n              swap1\n              return\n                /* \"Voting.sol\":2951:3169  function complete() external onlyManager {... */\n            tag_10:\n              tag_57\n              tag_58\n              jump\t// in\n            tag_57:\n              stop\n                /* \"Voting.sol\":3293:3472  function getChoiceName(uint8 choice) external view returns (string memory) {... */\n            tag_11:\n              tag_59\n              0x04\n              dup1\n              calldatasize\n              sub\n              dup2\n              add\n              swap1\n              tag_60\n              swap2\n              swap1\n              tag_31\n              jump\t// in\n            tag_60:\n              tag_61\n              jump\t// in\n            tag_59:\n              mload(0x40)\n              tag_62\n              swap2\n              swap1\n              tag_52\n              jump\t// in\n            tag_62:\n              mload(0x40)\n              dup1\n              swap2\n              sub\n              swap1\n              return\n                /* \"Voting.sol\":1014:1046  uint32 public totalAllowedVoters */\n            tag_12:\n              tag_63\n              tag_64\n              jump\t// in\n            tag_63:\n              mload(0x40)\n              tag_65\n              swap2\n              swap1\n              tag_34\n              jump\t// in\n            tag_65:\n              mload(0x40)\n              dup1\n              swap2\n              sub\n              swap1\n              return\n                /* \"Voting.sol\":977:1007  uint32 public totalVotersVoted */\n            tag_13:\n              tag_66\n              tag_67\n              jump\t// in\n            tag_66:\n              mload(0x40)\n              tag_68\n              swap2\n              swap1\n              tag_34\n              jump\t// in\n            tag_68:\n              mload(0x40)\n              dup1\n              swap2\n              sub\n              swap1\n              return\n                /* \"Voting.sol\":3177:3285  function getVotes(uint8 choice) external view returns (uint32) {... */\n            tag_14:\n              tag_69\n              0x04\n              dup1\n              calldatasize\n              sub\n              dup2\n              add\n              swap1\n              tag_70\n              swap2\n              swap1\n              tag_31\n              jump\t// in\n            tag_70:\n              tag_71\n              jump\t// in\n            tag_69:\n              mload(0x40)\n              tag_72\n              swap2\n              swap1\n              tag_34\n              jump\t// in\n            tag_72:\n              mload(0x40)\n              dup1\n              swap2\n              sub\n              swap1\n              return\n                /* \"Voting.sol\":768:789  bool public completed */\n            tag_15:\n              tag_73\n              tag_74\n              jump\t// in\n            tag_73:\n              mload(0x40)\n              tag_75\n              swap2\n              swap1\n              tag_44\n              jump\t// in\n            tag_75:\n              mload(0x40)\n              dup1\n              swap2\n              sub\n              swap1\n              return\n                /* \"Voting.sol\":1213:1256  mapping(address => bool) public votedVoters */\n            tag_16:\n              tag_76\n              0x04\n              dup1\n              calldatasize\n              sub\n              dup2\n              add\n              swap1\n              tag_77\n              swap2\n              swap1\n              tag_41\n              jump\t// in\n            tag_77:\n              tag_78\n              jump\t// in\n            tag_76:\n              mload(0x40)\n              tag_79\n              swap2\n              swap1\n              tag_44\n              jump\t// in\n            tag_79:\n              mload(0x40)\n              dup1\n              swap2\n              sub\n              swap1\n              return\n                /* \"Voting.sol\":920:942  uint32 public fromDate */\n            tag_17:\n              tag_80\n              tag_81\n              jump\t// in\n            tag_80:\n              mload(0x40)\n              tag_82\n              swap2\n              swap1\n              tag_34\n              jump\t// in\n            tag_82:\n              mload(0x40)\n              dup1\n              swap2\n              sub\n              swap1\n              return\n                /* \"Voting.sol\":2357:2943  function vote(uint8 choice) external {... */\n            tag_18:\n              tag_83\n              0x04\n              dup1\n              calldatasize\n              sub\n              dup2\n              add\n              swap1\n              tag_84\n              swap2\n              swap1\n              tag_31\n              jump\t// in\n            tag_84:\n              tag_85\n              jump\t// in\n            tag_83:\n              stop\n                /* \"Voting.sol\":949:970  uint32 public endDate */\n            tag_19:\n              tag_86\n              tag_87\n              jump\t// in\n            tag_86:\n              mload(0x40)\n              tag_88\n              swap2\n              swap1\n              tag_34\n              jump\t// in\n            tag_88:\n              mload(0x40)\n              dup1\n              swap2\n              sub\n              swap1\n              return\n                /* \"Voting.sol\":1127:1154  string[] public choiceNames */\n            tag_20:\n              tag_89\n              0x04\n              dup1\n              calldatasize\n              sub\n              dup2\n              add\n              swap1\n              tag_90\n              swap2\n              swap1\n              tag_91\n              jump\t// in\n            tag_90:\n              tag_92\n              jump\t// in\n            tag_89:\n              mload(0x40)\n              tag_93\n              swap2\n              swap1\n              tag_52\n              jump\t// in\n            tag_93:\n              mload(0x40)\n              dup1\n              swap2\n              sub\n              swap1\n              return\n                /* \"Voting.sol\":2091:2349  function addVoter(address voter) external onlyManager {... */\n            tag_21:\n              tag_94\n              0x04\n              dup1\n              calldatasize\n              sub\n              dup2\n              add\n              swap1\n              tag_95\n              swap2\n              swap1\n              tag_41\n              jump\t// in\n            tag_95:\n              tag_96\n              jump\t// in\n            tag_94:\n              stop\n                /* \"Voting.sol\":3480:3586  function getAllChoiceNames() external view returns (string[] memory) {... */\n            tag_26:\n                /* \"Voting.sol\":3532:3547  string[] memory */\n              0x60\n                /* \"Voting.sol\":3567:3578  choiceNames */\n              0x03\n                /* \"Voting.sol\":3560:3578  return choiceNames */\n              dup1\n              sload\n              dup1\n              0x20\n              mul\n              0x20\n              add\n              mload(0x40)\n              swap1\n              dup2\n              add\n              0x40\n              mstore\n              dup1\n              swap3\n              swap2\n              swap1\n              dup2\n              dup2\n              mstore\n              0x20\n              add\n              0x00\n              swap1\n            tag_98:\n              dup3\n              dup3\n              lt\n              iszero\n              tag_99\n              jumpi\n              dup4\n              dup3\n              swap1\n              0x00\n              mstore\n              keccak256(0x00, 0x20)\n              add\n              dup1\n              sload\n              tag_101\n              swap1\n              tag_102\n              jump\t// in\n            tag_101:\n              dup1\n              0x1f\n              add\n              0x20\n              dup1\n              swap2\n              div\n              mul\n              0x20\n              add\n              mload(0x40)\n              swap1\n              dup2\n              add\n              0x40\n              mstore\n              dup1\n              swap3\n              swap2\n              swap1\n              dup2\n              dup2\n              mstore\n              0x20\n              add\n              dup3\n              dup1\n              sload\n              tag_103\n              swap1\n              tag_102\n              jump\t// in\n            tag_103:\n              dup1\n              iszero\n              tag_104\n              jumpi\n              dup1\n              0x1f\n              lt\n              tag_105\n              jumpi\n              0x0100\n              dup1\n              dup4\n              sload\n              div\n              mul\n              dup4\n              mstore\n              swap2\n              0x20\n              add\n              swap2\n              jump(tag_104)\n            tag_105:\n              dup3\n              add\n              swap2\n              swap1\n              0x00\n              mstore\n              keccak256(0x00, 0x20)\n              swap1\n            tag_106:\n              dup2\n              sload\n              dup2\n              mstore\n              swap1\n              0x01\n              add\n              swap1\n              0x20\n              add\n              dup1\n              dup4\n              gt\n              tag_106\n              jumpi\n              dup3\n              swap1\n              sub\n              0x1f\n              and\n              dup3\n              add\n              swap2\n            tag_104:\n              pop\n              pop\n              pop\n              pop\n              pop\n              dup2\n              mstore\n              0x20\n              add\n              swap1\n              0x01\n              add\n              swap1\n              jump(tag_98)\n            tag_99:\n              pop\n              pop\n              pop\n              pop\n              swap1\n              pop\n                /* \"Voting.sol\":3480:3586  function getAllChoiceNames() external view returns (string[] memory) {... */\n              swap1\n              jump\t// out\n                /* \"Voting.sol\":1315:1358  mapping(uint8 => uint32) public choiceVotes */\n            tag_32:\n              mstore(0x20, 0x06)\n              dup1\n              0x00\n              mstore\n              keccak256(0x00, 0x40)\n              0x00\n              swap2\n              pop\n              sload\n              swap1\n              0x0100\n              exp\n              swap1\n              div\n              0xffffffff\n              and\n              dup2\n              jump\t// out\n                /* \"Voting.sol\":736:761  uint8 public totalChoices */\n            tag_36:\n              0x00\n              0x14\n              swap1\n              sload\n              swap1\n              0x0100\n              exp\n              swap1\n              div\n              0xff\n              and\n              dup2\n              jump\t// out\n                /* \"Voting.sol\":1263:1308  mapping(address => bool) public allowedVoters */\n            tag_42:\n              mstore(0x20, 0x05)\n              dup1\n              0x00\n              mstore\n              keccak256(0x00, 0x40)\n              0x00\n              swap2\n              pop\n              sload\n              swap1\n              0x0100\n              exp\n              swap1\n              div\n              0xff\n              and\n              dup2\n              jump\t// out\n                /* \"Voting.sol\":707:729  address public manager */\n            tag_46:\n              0x00\n              dup1\n              sload\n              swap1\n              0x0100\n              exp\n              swap1\n              div\n              0xffffffffffffffffffffffffffffffffffffffff\n              and\n              dup2\n              jump\t// out\n                /* \"Voting.sol\":1101:1120  string public title */\n            tag_50:\n              0x02\n              dup1\n              sload\n              tag_107\n              swap1\n              tag_102\n              jump\t// in\n            tag_107:\n              dup1\n              0x1f\n              add\n              0x20\n              dup1\n              swap2\n              div\n              mul\n              0x20\n              add\n              mload(0x40)\n              swap1\n              dup2\n              add\n              0x40\n              mstore\n              dup1\n              swap3\n              swap2\n              swap1\n              dup2\n              dup2\n              mstore\n              0x20\n              add\n              dup3\n              dup1\n              sload\n              tag_108\n              swap1\n              tag_102\n              jump\t// in\n            tag_108:\n              dup1\n              iszero\n              tag_109\n              jumpi\n              dup1\n              0x1f\n              lt\n              tag_110\n              jumpi\n              0x0100\n              dup1\n              dup4\n              sload\n              div\n              mul\n              dup4\n              mstore\n              swap2\n              0x20\n              add\n              swap2\n              jump(tag_109)\n            tag_110:\n              dup3\n              add\n              swap2\n              swap1\n              0x00\n              mstore\n              keccak256(0x00, 0x20)\n              swap1\n            tag_111:\n              dup2\n              sload\n              dup2\n              mstore\n              swap1\n              0x01\n              add\n              swap1\n              0x20\n              add\n              dup1\n              dup4\n              gt\n              tag_111\n              jumpi\n              dup3\n              swap1\n              sub\n              0x1f\n              and\n              dup3\n              add\n              swap2\n            tag_109:\n              pop\n              pop\n              pop\n              pop\n              pop\n              dup2\n              jump\t// out\n                /* \"Voting.sol\":3594:3937  function getStatus()... */\n            tag_54:\n                /* \"Voting.sol\":3665:3672  address */\n              0x00\n                /* \"Voting.sol\":3674:3679  uint8 */\n              dup1\n                /* \"Voting.sol\":3681:3687  uint32 */\n              0x00\n                /* \"Voting.sol\":3689:3695  uint32 */\n              dup1\n                /* \"Voting.sol\":3697:3701  bool */\n              0x00\n                /* \"Voting.sol\":3703:3709  uint32 */\n              dup1\n                /* \"Voting.sol\":3711:3724  string memory */\n              0x60\n                /* \"Voting.sol\":3764:3771  manager */\n              0x00\n              dup1\n              sload\n              swap1\n              0x0100\n              exp\n              swap1\n              div\n              0xffffffffffffffffffffffffffffffffffffffff\n              and\n                /* \"Voting.sol\":3786:3798  totalChoices */\n              0x00\n              0x14\n              swap1\n              sload\n              swap1\n              0x0100\n              exp\n              swap1\n              div\n              0xff\n              and\n                /* \"Voting.sol\":3813:3821  fromDate */\n              0x00\n              0x16\n              swap1\n              sload\n              swap1\n              0x0100\n              exp\n              swap1\n              div\n              0xffffffff\n              and\n                /* \"Voting.sol\":3836:3843  endDate */\n              0x00\n              0x1a\n              swap1\n              sload\n              swap1\n              0x0100\n              exp\n              swap1\n              div\n              0xffffffff\n              and\n                /* \"Voting.sol\":3858:3867  completed */\n              0x00\n              0x15\n              swap1\n              sload\n              swap1\n              0x0100\n              exp\n              swap1\n              div\n              0xff\n              and\n                /* \"Voting.sol\":3882:3898  totalVotersVoted */\n              0x01\n              0x00\n              swap1\n              sload\n              swap1\n              0x0100\n              exp\n              swap1\n              div\n              0xffffffff\n              and\n                /* \"Voting.sol\":3913:3918  title */\n              0x02\n                /* \"Voting.sol\":3742:3929  return (... */\n              dup1\n              dup1\n              sload\n              tag_113\n              swap1\n              tag_102\n              jump\t// in\n            tag_113:\n              dup1\n              0x1f\n              add\n              0x20\n              dup1\n              swap2\n              div\n              mul\n              0x20\n              add\n              mload(0x40)\n              swap1\n              dup2\n              add\n              0x40\n              mstore\n              dup1\n              swap3\n              swap2\n              swap1\n              dup2\n              dup2\n              mstore\n              0x20\n              add\n              dup3\n              dup1\n              sload\n              tag_114\n              swap1\n              tag_102\n              jump\t// in\n            tag_114:\n              dup1\n              iszero\n              tag_115\n              jumpi\n              dup1\n              0x1f\n              lt\n              tag_116\n              jumpi\n              0x0100\n              dup1\n              dup4\n              sload\n              div\n              mul\n              dup4\n              mstore\n              swap2\n              0x20\n              add\n              swap2\n              jump(tag_115)\n            tag_116:\n              dup3\n              add\n              swap2\n              swap1\n              0x00\n              mstore\n              keccak256(0x00, 0x20)\n              swap1\n            tag_117:\n              dup2\n              sload\n              dup2\n              mstore\n              swap1\n              0x01\n              add\n              swap1\n              0x20\n              add\n              dup1\n              dup4\n              gt\n              tag_117\n              jumpi\n              dup3\n              swap1\n              sub\n              0x1f\n              and\n              dup3\n              add\n              swap2\n            tag_115:\n              pop\n              pop\n              pop\n              pop\n              pop\n              swap1\n              pop\n              swap7\n              pop\n              swap7\n              pop\n              swap7\n              pop\n              swap7\n              pop\n              swap7\n              pop\n              swap7\n              pop\n              swap7\n              pop\n                /* \"Voting.sol\":3594:3937  function getStatus()... */\n              swap1\n              swap2\n              swap3\n              swap4\n              swap5\n              swap6\n              swap7\n              jump\t// out\n                /* \"Voting.sol\":2951:3169  function complete() external onlyManager {... */\n            tag_58:\n                /* \"Voting.sol\":1593:1600  manager */\n              0x00\n              dup1\n              sload\n              swap1\n              0x0100\n              exp\n              swap1\n              div\n              0xffffffffffffffffffffffffffffffffffffffff\n              and\n                /* \"Voting.sol\":1579:1600  msg.sender == manager */\n              0xffffffffffffffffffffffffffffffffffffffff\n              and\n                /* \"Voting.sol\":1579:1589  msg.sender */\n              caller\n                /* \"Voting.sol\":1579:1600  msg.sender == manager */\n              0xffffffffffffffffffffffffffffffffffffffff\n              and\n              eq\n                /* \"Voting.sol\":1571:1616  require(msg.sender == manager, \"Not manager\") */\n              tag_119\n              jumpi\n              mload(0x40)\n              0x08c379a000000000000000000000000000000000000000000000000000000000\n              dup2\n              mstore\n              0x04\n              add\n              tag_120\n              swap1\n              tag_121\n              jump\t// in\n            tag_120:\n              mload(0x40)\n              dup1\n              swap2\n              sub\n              swap1\n              revert\n            tag_119:\n                /* \"Voting.sol\":3012:3021  completed */\n              0x00\n              0x15\n              swap1\n              sload\n              swap1\n              0x0100\n              exp\n              swap1\n              div\n              0xff\n              and\n                /* \"Voting.sol\":3011:3021  !completed */\n              iszero\n                /* \"Voting.sol\":3003:3043  require(!completed, \"Already completed\") */\n              tag_123\n              jumpi\n              mload(0x40)\n              0x08c379a000000000000000000000000000000000000000000000000000000000\n              dup2\n              mstore\n              0x04\n              add\n              tag_124\n              swap1\n              tag_125\n              jump\t// in\n            tag_124:\n              mload(0x40)\n              dup1\n              swap2\n              sub\n              swap1\n              revert\n            tag_123:\n                /* \"Voting.sol\":3080:3087  endDate */\n              0x00\n              0x1a\n              swap1\n              sload\n              swap1\n              0x0100\n              exp\n              swap1\n              div\n              0xffffffff\n              and\n                /* \"Voting.sol\":3062:3087  block.timestamp > endDate */\n              0xffffffff\n              and\n                /* \"Voting.sol\":3062:3077  block.timestamp */\n              timestamp\n                /* \"Voting.sol\":3062:3087  block.timestamp > endDate */\n              gt\n                /* \"Voting.sol\":3054:3101  require(block.timestamp > endDate, \"Not ended\") */\n              tag_126\n              jumpi\n              mload(0x40)\n              0x08c379a000000000000000000000000000000000000000000000000000000000\n              dup2\n              mstore\n              0x04\n              add\n              tag_127\n              swap1\n              tag_128\n              jump\t// in\n            tag_127:\n              mload(0x40)\n              dup1\n              swap2\n              sub\n              swap1\n              revert\n            tag_126:\n                /* \"Voting.sol\":3124:3128  true */\n              0x01\n                /* \"Voting.sol\":3112:3121  completed */\n              0x00\n              0x15\n                /* \"Voting.sol\":3112:3128  completed = true */\n              0x0100\n              exp\n              dup2\n              sload\n              dup2\n              0xff\n              mul\n              not\n              and\n              swap1\n              dup4\n              iszero\n              iszero\n              mul\n              or\n              swap1\n              sstore\n              pop\n                /* \"Voting.sol\":3144:3161  VotingCompleted() */\n              0xfa4c46064339896f4ef55eeac982a9e8bd0dbebe83ed7978cf168fa14f679f70\n              mload(0x40)\n              mload(0x40)\n              dup1\n              swap2\n              sub\n              swap1\n              log1\n                /* \"Voting.sol\":2951:3169  function complete() external onlyManager {... */\n              jump\t// out\n                /* \"Voting.sol\":3293:3472  function getChoiceName(uint8 choice) external view returns (string memory) {... */\n            tag_61:\n                /* \"Voting.sol\":3353:3366  string memory */\n              0x60\n                /* \"Voting.sol\":3396:3408  totalChoices */\n              0x00\n              0x14\n              swap1\n              sload\n              swap1\n              0x0100\n              exp\n              swap1\n              div\n              0xff\n              and\n                /* \"Voting.sol\":3387:3408  choice < totalChoices */\n              0xff\n              and\n                /* \"Voting.sol\":3387:3393  choice */\n              dup3\n                /* \"Voting.sol\":3387:3408  choice < totalChoices */\n              0xff\n              and\n              lt\n                /* \"Voting.sol\":3379:3427  require(choice < totalChoices, \"Invalid choice\") */\n              tag_130\n              jumpi\n              mload(0x40)\n              0x08c379a000000000000000000000000000000000000000000000000000000000\n              dup2\n              mstore\n              0x04\n              add\n              tag_131\n              swap1\n              tag_132\n              jump\t// in\n            tag_131:\n              mload(0x40)\n              dup1\n              swap2\n              sub\n              swap1\n              revert\n            tag_130:\n                /* \"Voting.sol\":3445:3456  choiceNames */\n              0x03\n                /* \"Voting.sol\":3457:3463  choice */\n              dup3\n                /* \"Voting.sol\":3445:3464  choiceNames[choice] */\n              0xff\n              and\n              dup2\n              sload\n              dup2\n              lt\n              tag_133\n              jumpi\n              tag_134\n              tag_135\n              jump\t// in\n            tag_134:\n            tag_133:\n              swap1\n              0x00\n              mstore\n              keccak256(0x00, 0x20)\n              add\n                /* \"Voting.sol\":3438:3464  return choiceNames[choice] */\n              dup1\n              sload\n              tag_137\n              swap1\n              tag_102\n              jump\t// in\n            tag_137:\n              dup1\n              0x1f\n              add\n              0x20\n              dup1\n              swap2\n              div\n              mul\n              0x20\n              add\n              mload(0x40)\n              swap1\n              dup2\n              add\n              0x40\n              mstore\n              dup1\n              swap3\n              swap2\n              swap1\n              dup2\n              dup2\n              mstore\n              0x20\n              add\n              dup3\n              dup1\n              sload\n              tag_138\n              swap1\n              tag_102\n              jump\t// in\n            tag_138:\n              dup1\n              iszero\n              tag_139\n              jumpi\n              dup1\n              0x1f\n              lt\n              tag_140\n              jumpi\n              0x0100\n              dup1\n              dup4\n              sload\n              div\n              mul\n              dup4\n              mstore\n              swap2\n              0x20\n              add\n              swap2\n              jump(tag_139)\n            tag_140:\n              dup3\n              add\n              swap2\n              swap1\n              0x00\n              mstore\n              keccak256(0x00, 0x20)\n              swap1\n            tag_141:\n              dup2\n              sload\n              dup2\n              mstore\n              swap1\n              0x01\n              add\n              swap1\n              0x20\n              add\n              dup1\n              dup4\n              gt\n              tag_141\n              jumpi\n              dup3\n              swap1\n              sub\n              0x1f\n              and\n              dup3\n              add\n              swap2\n            tag_139:\n              pop\n              pop\n              pop\n              pop\n              pop\n              swap1\n              pop\n                /* \"Voting.sol\":3293:3472  function getChoiceName(uint8 choice) external view returns (string memory) {... */\n              swap2\n              swap1\n              pop\n              jump\t// out\n                /* \"Voting.sol\":1014:1046  uint32 public totalAllowedVoters */\n            tag_64:\n              0x01\n              0x04\n              swap1\n              sload\n              swap1\n              0x0100\n              exp\n              swap1\n              div\n              0xffffffff\n              and\n              dup2\n              jump\t// out\n                /* \"Voting.sol\":977:1007  uint32 public totalVotersVoted */\n            tag_67:\n              0x01\n              0x00\n              swap1\n              sload\n              swap1\n              0x0100\n              exp\n              swap1\n              div\n              0xffffffff\n              and\n              dup2\n              jump\t// out\n                /* \"Voting.sol\":3177:3285  function getVotes(uint8 choice) external view returns (uint32) {... */\n            tag_71:\n                /* \"Voting.sol\":3232:3238  uint32 */\n              0x00\n                /* \"Voting.sol\":3258:3269  choiceVotes */\n              0x06\n                /* \"Voting.sol\":3258:3277  choiceVotes[choice] */\n              0x00\n                /* \"Voting.sol\":3270:3276  choice */\n              dup4\n                /* \"Voting.sol\":3258:3277  choiceVotes[choice] */\n              0xff\n              and\n              0xff\n              and\n              dup2\n              mstore\n              0x20\n              add\n              swap1\n              dup2\n              mstore\n              0x20\n              add\n              0x00\n              keccak256\n              0x00\n              swap1\n              sload\n              swap1\n              0x0100\n              exp\n              swap1\n              div\n              0xffffffff\n              and\n                /* \"Voting.sol\":3251:3277  return choiceVotes[choice] */\n              swap1\n              pop\n                /* \"Voting.sol\":3177:3285  function getVotes(uint8 choice) external view returns (uint32) {... */\n              swap2\n              swap1\n              pop\n              jump\t// out\n                /* \"Voting.sol\":768:789  bool public completed */\n            tag_74:\n              0x00\n              0x15\n              swap1\n              sload\n              swap1\n              0x0100\n              exp\n              swap1\n              div\n              0xff\n              and\n              dup2\n              jump\t// out\n                /* \"Voting.sol\":1213:1256  mapping(address => bool) public votedVoters */\n            tag_78:\n              mstore(0x20, 0x04)\n              dup1\n              0x00\n              mstore\n              keccak256(0x00, 0x40)\n              0x00\n              swap2\n              pop\n              sload\n              swap1\n              0x0100\n              exp\n              swap1\n              div\n              0xff\n              and\n              dup2\n              jump\t// out\n                /* \"Voting.sol\":920:942  uint32 public fromDate */\n            tag_81:\n              0x00\n              0x16\n              swap1\n              sload\n              swap1\n              0x0100\n              exp\n              swap1\n              div\n              0xffffffff\n              and\n              dup2\n              jump\t// out\n                /* \"Voting.sol\":2357:2943  function vote(uint8 choice) external {... */\n            tag_85:\n                /* \"Voting.sol\":2413:2426  allowedVoters */\n              0x05\n                /* \"Voting.sol\":2413:2438  allowedVoters[msg.sender] */\n              0x00\n                /* \"Voting.sol\":2427:2437  msg.sender */\n              caller\n                /* \"Voting.sol\":2413:2438  allowedVoters[msg.sender] */\n              0xffffffffffffffffffffffffffffffffffffffff\n              and\n              0xffffffffffffffffffffffffffffffffffffffff\n              and\n              dup2\n              mstore\n              0x20\n              add\n              swap1\n              dup2\n              mstore\n              0x20\n              add\n              0x00\n              keccak256\n              0x00\n              swap1\n              sload\n              swap1\n              0x0100\n              exp\n              swap1\n              div\n              0xff\n              and\n                /* \"Voting.sol\":2405:2454  require(allowedVoters[msg.sender], \"Not allowed\") */\n              tag_144\n              jumpi\n              mload(0x40)\n              0x08c379a000000000000000000000000000000000000000000000000000000000\n              dup2\n              mstore\n              0x04\n              add\n              tag_145\n              swap1\n              tag_146\n              jump\t// in\n            tag_145:\n              mload(0x40)\n              dup1\n              swap2\n              sub\n              swap1\n              revert\n            tag_144:\n                /* \"Voting.sol\":2474:2485  votedVoters */\n              0x04\n                /* \"Voting.sol\":2474:2497  votedVoters[msg.sender] */\n              0x00\n                /* \"Voting.sol\":2486:2496  msg.sender */\n              caller\n                /* \"Voting.sol\":2474:2497  votedVoters[msg.sender] */\n              0xffffffffffffffffffffffffffffffffffffffff\n              and\n              0xffffffffffffffffffffffffffffffffffffffff\n              and\n              dup2\n              mstore\n              0x20\n              add\n              swap1\n              dup2\n              mstore\n              0x20\n              add\n              0x00\n              keccak256\n              0x00\n              swap1\n              sload\n              swap1\n              0x0100\n              exp\n              swap1\n              div\n              0xff\n              and\n                /* \"Voting.sol\":2473:2497  !votedVoters[msg.sender] */\n              iszero\n                /* \"Voting.sol\":2465:2515  require(!votedVoters[msg.sender], \"Already voted\") */\n              tag_147\n              jumpi\n              mload(0x40)\n              0x08c379a000000000000000000000000000000000000000000000000000000000\n              dup2\n              mstore\n              0x04\n              add\n              tag_148\n              swap1\n              tag_149\n              jump\t// in\n            tag_148:\n              mload(0x40)\n              dup1\n              swap2\n              sub\n              swap1\n              revert\n            tag_147:\n                /* \"Voting.sol\":2535:2544  completed */\n              0x00\n              0x15\n              swap1\n              sload\n              swap1\n              0x0100\n              exp\n              swap1\n              div\n              0xff\n              and\n                /* \"Voting.sol\":2534:2544  !completed */\n              iszero\n                /* \"Voting.sol\":2526:2558  require(!completed, \"Completed\") */\n              tag_150\n              jumpi\n              mload(0x40)\n              0x08c379a000000000000000000000000000000000000000000000000000000000\n              dup2\n              mstore\n              0x04\n              add\n              tag_151\n              swap1\n              tag_152\n              jump\t// in\n            tag_151:\n              mload(0x40)\n              dup1\n              swap2\n              sub\n              swap1\n              revert\n            tag_150:\n                /* \"Voting.sol\":2610:2618  fromDate */\n              0x00\n              0x16\n              swap1\n              sload\n              swap1\n              0x0100\n              exp\n              swap1\n              div\n              0xffffffff\n              and\n                /* \"Voting.sol\":2591:2618  block.timestamp >= fromDate */\n              0xffffffff\n              and\n                /* \"Voting.sol\":2591:2606  block.timestamp */\n              timestamp\n                /* \"Voting.sol\":2591:2618  block.timestamp >= fromDate */\n              lt\n              iszero\n                /* \"Voting.sol\":2591:2648  block.timestamp >= fromDate && block.timestamp <= endDate */\n              dup1\n              iszero\n              tag_153\n              jumpi\n              pop\n                /* \"Voting.sol\":2641:2648  endDate */\n              0x00\n              0x1a\n              swap1\n              sload\n              swap1\n              0x0100\n              exp\n              swap1\n              div\n              0xffffffff\n              and\n                /* \"Voting.sol\":2622:2648  block.timestamp <= endDate */\n              0xffffffff\n              and\n                /* \"Voting.sol\":2622:2637  block.timestamp */\n              timestamp\n                /* \"Voting.sol\":2622:2648  block.timestamp <= endDate */\n              gt\n              iszero\n                /* \"Voting.sol\":2591:2648  block.timestamp >= fromDate && block.timestamp <= endDate */\n            tag_153:\n                /* \"Voting.sol\":2569:2688  require(... */\n              tag_154\n              jumpi\n              mload(0x40)\n              0x08c379a000000000000000000000000000000000000000000000000000000000\n              dup2\n              mstore\n              0x04\n              add\n              tag_155\n              swap1\n              tag_156\n              jump\t// in\n            tag_155:\n              mload(0x40)\n              dup1\n              swap2\n              sub\n              swap1\n              revert\n            tag_154:\n                /* \"Voting.sol\":2716:2728  totalChoices */\n              0x00\n              0x14\n              swap1\n              sload\n              swap1\n              0x0100\n              exp\n              swap1\n              div\n              0xff\n              and\n                /* \"Voting.sol\":2707:2728  choice < totalChoices */\n              0xff\n              and\n                /* \"Voting.sol\":2707:2713  choice */\n              dup2\n                /* \"Voting.sol\":2707:2728  choice < totalChoices */\n              0xff\n              and\n              lt\n                /* \"Voting.sol\":2699:2747  require(choice < totalChoices, \"Invalid choice\") */\n              tag_157\n              jumpi\n              mload(0x40)\n              0x08c379a000000000000000000000000000000000000000000000000000000000\n              dup2\n              mstore\n              0x04\n              add\n              tag_158\n              swap1\n              tag_132\n              jump\t// in\n            tag_158:\n              mload(0x40)\n              dup1\n              swap2\n              sub\n              swap1\n              revert\n            tag_157:\n                /* \"Voting.sol\":2786:2790  true */\n              0x01\n                /* \"Voting.sol\":2760:2771  votedVoters */\n              0x04\n                /* \"Voting.sol\":2760:2783  votedVoters[msg.sender] */\n              0x00\n                /* \"Voting.sol\":2772:2782  msg.sender */\n              caller\n                /* \"Voting.sol\":2760:2783  votedVoters[msg.sender] */\n              0xffffffffffffffffffffffffffffffffffffffff\n              and\n              0xffffffffffffffffffffffffffffffffffffffff\n              and\n              dup2\n              mstore\n              0x20\n              add\n              swap1\n              dup2\n              mstore\n              0x20\n              add\n              0x00\n              keccak256\n              0x00\n                /* \"Voting.sol\":2760:2790  votedVoters[msg.sender] = true */\n              0x0100\n              exp\n              dup2\n              sload\n              dup2\n              0xff\n              mul\n              not\n              and\n              swap1\n              dup4\n              iszero\n              iszero\n              mul\n              or\n              swap1\n              sstore\n              pop\n                /* \"Voting.sol\":2826:2837  choiceVotes */\n              0x06\n                /* \"Voting.sol\":2826:2845  choiceVotes[choice] */\n              0x00\n                /* \"Voting.sol\":2838:2844  choice */\n              dup3\n                /* \"Voting.sol\":2826:2845  choiceVotes[choice] */\n              0xff\n              and\n              0xff\n              and\n              dup2\n              mstore\n              0x20\n              add\n              swap1\n              dup2\n              mstore\n              0x20\n              add\n              0x00\n              keccak256\n              0x00\n                /* \"Voting.sol\":2826:2847  choiceVotes[choice]++ */\n              dup2\n              dup2\n              swap1\n              sload\n              swap1\n              0x0100\n              exp\n              swap1\n              div\n              0xffffffff\n              and\n              dup1\n              swap3\n              swap2\n              swap1\n              0x01\n              add\n              swap2\n              swap1\n              0x0100\n              exp\n              dup2\n              sload\n              dup2\n              0xffffffff\n              mul\n              not\n              and\n              swap1\n              dup4\n              0xffffffff\n              and\n              mul\n              or\n              swap1\n              sstore\n              pop\n              pop\n                /* \"Voting.sol\":2862:2878  totalVotersVoted */\n              0x01\n              0x00\n                /* \"Voting.sol\":2862:2880  totalVotersVoted++ */\n              dup2\n              dup2\n              swap1\n              sload\n              swap1\n              0x0100\n              exp\n              swap1\n              div\n              0xffffffff\n              and\n              dup1\n              swap3\n              swap2\n              swap1\n              0x01\n              add\n              swap2\n              swap1\n              0x0100\n              exp\n              dup2\n              sload\n              dup2\n              0xffffffff\n              mul\n              not\n              and\n              swap1\n              dup4\n              0xffffffff\n              and\n              mul\n              or\n              swap1\n              sstore\n              pop\n              pop\n                /* \"Voting.sol\":2907:2935  VoteCast(msg.sender, choice) */\n              0xefffa0c001f10a86d936643c098510eba656ffab1d0c5165822b79d4c895e88f\n                /* \"Voting.sol\":2916:2926  msg.sender */\n              caller\n                /* \"Voting.sol\":2928:2934  choice */\n              dup3\n                /* \"Voting.sol\":2907:2935  VoteCast(msg.sender, choice) */\n              mload(0x40)\n              tag_159\n              swap3\n              swap2\n              swap1\n              tag_160\n              jump\t// in\n            tag_159:\n              mload(0x40)\n              dup1\n              swap2\n              sub\n              swap1\n              log1\n                /* \"Voting.sol\":2357:2943  function vote(uint8 choice) external {... */\n              pop\n              jump\t// out\n                /* \"Voting.sol\":949:970  uint32 public endDate */\n            tag_87:\n              0x00\n              0x1a\n              swap1\n              sload\n              swap1\n              0x0100\n              exp\n              swap1\n              div\n              0xffffffff\n              and\n              dup2\n              jump\t// out\n                /* \"Voting.sol\":1127:1154  string[] public choiceNames */\n            tag_92:\n              0x03\n              dup2\n              dup2\n              sload\n              dup2\n              lt\n              tag_161\n              jumpi\n              0x00\n              dup1\n              revert\n            tag_161:\n              swap1\n              0x00\n              mstore\n              keccak256(0x00, 0x20)\n              add\n              0x00\n              swap2\n              pop\n              swap1\n              pop\n              dup1\n              sload\n              tag_163\n              swap1\n              tag_102\n              jump\t// in\n            tag_163:\n              dup1\n              0x1f\n              add\n              0x20\n              dup1\n              swap2\n              div\n              mul\n              0x20\n              add\n              mload(0x40)\n              swap1\n              dup2\n              add\n              0x40\n              mstore\n              dup1\n              swap3\n              swap2\n              swap1\n              dup2\n              dup2\n              mstore\n              0x20\n              add\n              dup3\n              dup1\n              sload\n              tag_164\n              swap1\n              tag_102\n              jump\t// in\n            tag_164:\n              dup1\n              iszero\n              tag_165\n              jumpi\n              dup1\n              0x1f\n              lt\n              tag_166\n              jumpi\n              0x0100\n              dup1\n              dup4\n              sload\n              div\n              mul\n              dup4\n              mstore\n              swap2\n              0x20\n              add\n              swap2\n              jump(tag_165)\n            tag_166:\n              dup3\n              add\n              swap2\n              swap1\n              0x00\n              mstore\n              keccak256(0x00, 0x20)\n              swap1\n            tag_167:\n              dup2\n              sload\n              dup2\n              mstore\n              swap1\n              0x01\n              add\n              swap1\n              0x20\n              add\n              dup1\n              dup4\n              gt\n              tag_167\n              jumpi\n              dup3\n              swap1\n              sub\n              0x1f\n              and\n              dup3\n              add\n              swap2\n            tag_165:\n              pop\n              pop\n              pop\n              pop\n              pop\n              dup2\n              jump\t// out\n                /* \"Voting.sol\":2091:2349  function addVoter(address voter) external onlyManager {... */\n            tag_96:\n                /* \"Voting.sol\":1593:1600  manager */\n              0x00\n              dup1\n              sload\n              swap1\n              0x0100\n              exp\n              swap1\n              div\n              0xffffffffffffffffffffffffffffffffffffffff\n              and\n                /* \"Voting.sol\":1579:1600  msg.sender == manager */\n              0xffffffffffffffffffffffffffffffffffffffff\n              and\n                /* \"Voting.sol\":1579:1589  msg.sender */\n              caller\n                /* \"Voting.sol\":1579:1600  msg.sender == manager */\n              0xffffffffffffffffffffffffffffffffffffffff\n              and\n              eq\n                /* \"Voting.sol\":1571:1616  require(msg.sender == manager, \"Not manager\") */\n              tag_169\n              jumpi\n              mload(0x40)\n              0x08c379a000000000000000000000000000000000000000000000000000000000\n              dup2\n              mstore\n              0x04\n              add\n              tag_170\n              swap1\n              tag_121\n              jump\t// in\n            tag_170:\n              mload(0x40)\n              dup1\n              swap2\n              sub\n              swap1\n              revert\n            tag_169:\n                /* \"Voting.sol\":2165:2178  allowedVoters */\n              0x05\n                /* \"Voting.sol\":2165:2185  allowedVoters[voter] */\n              0x00\n                /* \"Voting.sol\":2179:2184  voter */\n              dup3\n                /* \"Voting.sol\":2165:2185  allowedVoters[voter] */\n              0xffffffffffffffffffffffffffffffffffffffff\n              and\n              0xffffffffffffffffffffffffffffffffffffffff\n              and\n              dup2\n              mstore\n              0x20\n              add\n              swap1\n              dup2\n              mstore\n              0x20\n              add\n              0x00\n              keccak256\n              0x00\n              swap1\n              sload\n              swap1\n              0x0100\n              exp\n              swap1\n              div\n              0xff\n              and\n                /* \"Voting.sol\":2164:2185  !allowedVoters[voter] */\n              iszero\n                /* \"Voting.sol\":2156:2203  require(!allowedVoters[voter], \"Already added\") */\n              tag_172\n              jumpi\n              mload(0x40)\n              0x08c379a000000000000000000000000000000000000000000000000000000000\n              dup2\n              mstore\n              0x04\n              add\n              tag_173\n              swap1\n              tag_174\n              jump\t// in\n            tag_173:\n              mload(0x40)\n              dup1\n              swap2\n              sub\n              swap1\n              revert\n            tag_172:\n                /* \"Voting.sol\":2237:2241  true */\n              0x01\n                /* \"Voting.sol\":2214:2227  allowedVoters */\n              0x05\n                /* \"Voting.sol\":2214:2234  allowedVoters[voter] */\n              0x00\n                /* \"Voting.sol\":2228:2233  voter */\n              dup4\n                /* \"Voting.sol\":2214:2234  allowedVoters[voter] */\n              0xffffffffffffffffffffffffffffffffffffffff\n              and\n              0xffffffffffffffffffffffffffffffffffffffff\n              and\n              dup2\n              mstore\n              0x20\n              add\n              swap1\n              dup2\n              mstore\n              0x20\n              add\n              0x00\n              keccak256\n              0x00\n                /* \"Voting.sol\":2214:2241  allowedVoters[voter] = true */\n              0x0100\n              exp\n              dup2\n              sload\n              dup2\n              0xff\n              mul\n              not\n              and\n              swap1\n              dup4\n              iszero\n              iszero\n              mul\n              or\n              swap1\n              sstore\n              pop\n                /* \"Voting.sol\":2277:2295  totalAllowedVoters */\n              0x01\n              0x04\n                /* \"Voting.sol\":2277:2297  totalAllowedVoters++ */\n              dup2\n              dup2\n              swap1\n              sload\n              swap1\n              0x0100\n              exp\n              swap1\n              div\n              0xffffffff\n              and\n              dup1\n              swap3\n              swap2\n              swap1\n              0x01\n              add\n              swap2\n              swap1\n              0x0100\n              exp\n              dup2\n              sload\n              dup2\n              0xffffffff\n              mul\n              not\n              and\n              swap1\n              dup4\n              0xffffffff\n              and\n              mul\n              or\n              swap1\n              sstore\n              pop\n              pop\n                /* \"Voting.sol\":2324:2341  VoterAdded(voter) */\n              0xa636f4a11e2d3ba7f89d042ecb0a6b886716e98cd49d8fd876ee0f73bced42b8\n                /* \"Voting.sol\":2335:2340  voter */\n              dup2\n                /* \"Voting.sol\":2324:2341  VoterAdded(voter) */\n              mload(0x40)\n              tag_175\n              swap2\n              swap1\n              tag_48\n              jump\t// in\n            tag_175:\n              mload(0x40)\n              dup1\n              swap2\n              sub\n              swap1\n              log1\n                /* \"Voting.sol\":2091:2349  function addVoter(address voter) external onlyManager {... */\n              pop\n              jump\t// out\n                /* \"#utility.yul\":7:131   */\n            tag_176:\n                /* \"#utility.yul\":84:90   */\n              0x00\n                /* \"#utility.yul\":118:123   */\n              dup2\n                /* \"#utility.yul\":112:124   */\n              mload\n                /* \"#utility.yul\":102:124   */\n              swap1\n              pop\n                /* \"#utility.yul\":7:131   */\n              swap2\n              swap1\n              pop\n              jump\t// out\n                /* \"#utility.yul\":137:331   */\n            tag_177:\n                /* \"#utility.yul\":246:257   */\n              0x00\n                /* \"#utility.yul\":280:286   */\n              dup3\n                /* \"#utility.yul\":275:278   */\n              dup3\n                /* \"#utility.yul\":268:287   */\n              mstore\n                /* \"#utility.yul\":320:324   */\n              0x20\n                /* \"#utility.yul\":315:318   */\n              dup3\n                /* \"#utility.yul\":311:325   */\n              add\n                /* \"#utility.yul\":296:325   */\n              swap1\n              pop\n                /* \"#utility.yul\":137:331   */\n              swap3\n              swap2\n              pop\n              pop\n              jump\t// out\n                /* \"#utility.yul\":337:479   */\n            tag_178:\n                /* \"#utility.yul\":414:418   */\n              0x00\n                /* \"#utility.yul\":437:440   */\n              dup2\n                /* \"#utility.yul\":429:440   */\n              swap1\n              pop\n                /* \"#utility.yul\":467:471   */\n              0x20\n                /* \"#utility.yul\":462:465   */\n              dup3\n                /* \"#utility.yul\":458:472   */\n              add\n                /* \"#utility.yul\":450:472   */\n              swap1\n              pop\n                /* \"#utility.yul\":337:479   */\n              swap2\n              swap1\n              pop\n              jump\t// out\n                /* \"#utility.yul\":485:584   */\n            tag_179:\n                /* \"#utility.yul\":537:543   */\n              0x00\n                /* \"#utility.yul\":571:576   */\n              dup2\n                /* \"#utility.yul\":565:577   */\n              mload\n                /* \"#utility.yul\":555:577   */\n              swap1\n              pop\n                /* \"#utility.yul\":485:584   */\n              swap2\n              swap1\n              pop\n              jump\t// out\n                /* \"#utility.yul\":590:749   */\n            tag_180:\n                /* \"#utility.yul\":664:675   */\n              0x00\n                /* \"#utility.yul\":698:704   */\n              dup3\n                /* \"#utility.yul\":693:696   */\n              dup3\n                /* \"#utility.yul\":686:705   */\n              mstore\n                /* \"#utility.yul\":738:742   */\n              0x20\n                /* \"#utility.yul\":733:736   */\n              dup3\n                /* \"#utility.yul\":729:743   */\n              add\n                /* \"#utility.yul\":714:743   */\n              swap1\n              pop\n                /* \"#utility.yul\":590:749   */\n              swap3\n              swap2\n              pop\n              pop\n              jump\t// out\n                /* \"#utility.yul\":755:1001   */\n            tag_181:\n                /* \"#utility.yul\":836:837   */\n              0x00\n                /* \"#utility.yul\":846:959   */\n            tag_234:\n                /* \"#utility.yul\":860:866   */\n              dup4\n                /* \"#utility.yul\":857:858   */\n              dup2\n                /* \"#utility.yul\":854:867   */\n              lt\n                /* \"#utility.yul\":846:959   */\n              iszero\n              tag_236\n              jumpi\n                /* \"#utility.yul\":945:946   */\n              dup1\n                /* \"#utility.yul\":940:943   */\n              dup3\n                /* \"#utility.yul\":936:947   */\n              add\n                /* \"#utility.yul\":930:948   */\n              mload\n                /* \"#utility.yul\":926:927   */\n              dup2\n                /* \"#utility.yul\":921:924   */\n              dup5\n                /* \"#utility.yul\":917:928   */\n              add\n                /* \"#utility.yul\":910:949   */\n              mstore\n                /* \"#utility.yul\":882:884   */\n              0x20\n                /* \"#utility.yul\":879:880   */\n              dup2\n                /* \"#utility.yul\":875:885   */\n              add\n                /* \"#utility.yul\":870:885   */\n              swap1\n              pop\n                /* \"#utility.yul\":846:959   */\n              jump(tag_234)\n            tag_236:\n                /* \"#utility.yul\":993:994   */\n              0x00\n                /* \"#utility.yul\":984:990   */\n              dup5\n                /* \"#utility.yul\":979:982   */\n              dup5\n                /* \"#utility.yul\":975:991   */\n              add\n                /* \"#utility.yul\":968:995   */\n              mstore\n                /* \"#utility.yul\":817:1001   */\n              pop\n                /* \"#utility.yul\":755:1001   */\n              pop\n              pop\n              pop\n              jump\t// out\n                /* \"#utility.yul\":1007:1109   */\n            tag_182:\n                /* \"#utility.yul\":1048:1054   */\n              0x00\n                /* \"#utility.yul\":1099:1101   */\n              0x1f\n                /* \"#utility.yul\":1095:1102   */\n              not\n                /* \"#utility.yul\":1090:1092   */\n              0x1f\n                /* \"#utility.yul\":1083:1088   */\n              dup4\n                /* \"#utility.yul\":1079:1093   */\n              add\n                /* \"#utility.yul\":1075:1103   */\n              and\n                /* \"#utility.yul\":1065:1103   */\n              swap1\n              pop\n                /* \"#utility.yul\":1007:1109   */\n              swap2\n              swap1\n              pop\n              jump\t// out\n                /* \"#utility.yul\":1115:1472   */\n            tag_183:\n                /* \"#utility.yul\":1193:1196   */\n              0x00\n                /* \"#utility.yul\":1221:1260   */\n              tag_239\n                /* \"#utility.yul\":1254:1259   */\n              dup3\n                /* \"#utility.yul\":1221:1260   */\n              tag_179\n              jump\t// in\n            tag_239:\n                /* \"#utility.yul\":1276:1337   */\n              tag_240\n                /* \"#utility.yul\":1330:1336   */\n              dup2\n                /* \"#utility.yul\":1325:1328   */\n              dup6\n                /* \"#utility.yul\":1276:1337   */\n              tag_180\n              jump\t// in\n            tag_240:\n                /* \"#utility.yul\":1269:1337   */\n              swap4\n              pop\n                /* \"#utility.yul\":1346:1411   */\n              tag_241\n                /* \"#utility.yul\":1404:1410   */\n              dup2\n                /* \"#utility.yul\":1399:1402   */\n              dup6\n                /* \"#utility.yul\":1392:1396   */\n              0x20\n                /* \"#utility.yul\":1385:1390   */\n              dup7\n                /* \"#utility.yul\":1381:1397   */\n              add\n                /* \"#utility.yul\":1346:1411   */\n              tag_181\n              jump\t// in\n            tag_241:\n                /* \"#utility.yul\":1436:1465   */\n              tag_242\n                /* \"#utility.yul\":1458:1464   */\n              dup2\n                /* \"#utility.yul\":1436:1465   */\n              tag_182\n              jump\t// in\n            tag_242:\n                /* \"#utility.yul\":1431:1434   */\n              dup5\n                /* \"#utility.yul\":1427:1466   */\n              add\n                /* \"#utility.yul\":1420:1466   */\n              swap2\n              pop\n                /* \"#utility.yul\":1197:1472   */\n              pop\n                /* \"#utility.yul\":1115:1472   */\n              swap3\n              swap2\n              pop\n              pop\n              jump\t// out\n                /* \"#utility.yul\":1478:1674   */\n            tag_184:\n                /* \"#utility.yul\":1567:1577   */\n              0x00\n                /* \"#utility.yul\":1602:1668   */\n              tag_244\n                /* \"#utility.yul\":1664:1667   */\n              dup4\n                /* \"#utility.yul\":1656:1662   */\n              dup4\n                /* \"#utility.yul\":1602:1668   */\n              tag_183\n              jump\t// in\n            tag_244:\n                /* \"#utility.yul\":1588:1668   */\n              swap1\n              pop\n                /* \"#utility.yul\":1478:1674   */\n              swap3\n              swap2\n              pop\n              pop\n              jump\t// out\n                /* \"#utility.yul\":1680:1803   */\n            tag_185:\n                /* \"#utility.yul\":1760:1764   */\n              0x00\n                /* \"#utility.yul\":1792:1796   */\n              0x20\n                /* \"#utility.yul\":1787:1790   */\n              dup3\n                /* \"#utility.yul\":1783:1797   */\n              add\n                /* \"#utility.yul\":1775:1797   */\n              swap1\n              pop\n                /* \"#utility.yul\":1680:1803   */\n              swap2\n              swap1\n              pop\n              jump\t// out\n                /* \"#utility.yul\":1837:2828   */\n            tag_186:\n                /* \"#utility.yul\":1976:1979   */\n              0x00\n                /* \"#utility.yul\":2005:2069   */\n              tag_247\n                /* \"#utility.yul\":2063:2068   */\n              dup3\n                /* \"#utility.yul\":2005:2069   */\n              tag_176\n              jump\t// in\n            tag_247:\n                /* \"#utility.yul\":2085:2181   */\n              tag_248\n                /* \"#utility.yul\":2174:2180   */\n              dup2\n                /* \"#utility.yul\":2169:2172   */\n              dup6\n                /* \"#utility.yul\":2085:2181   */\n              tag_177\n              jump\t// in\n            tag_248:\n                /* \"#utility.yul\":2078:2181   */\n              swap4\n              pop\n                /* \"#utility.yul\":2207:2210   */\n              dup4\n                /* \"#utility.yul\":2252:2256   */\n              0x20\n                /* \"#utility.yul\":2244:2250   */\n              dup3\n                /* \"#utility.yul\":2240:2257   */\n              mul\n                /* \"#utility.yul\":2235:2238   */\n              dup6\n                /* \"#utility.yul\":2231:2258   */\n              add\n                /* \"#utility.yul\":2282:2348   */\n              tag_249\n                /* \"#utility.yul\":2342:2347   */\n              dup6\n                /* \"#utility.yul\":2282:2348   */\n              tag_178\n              jump\t// in\n            tag_249:\n                /* \"#utility.yul\":2371:2378   */\n              dup1\n                /* \"#utility.yul\":2402:2403   */\n              0x00\n                /* \"#utility.yul\":2387:2783   */\n            tag_250:\n                /* \"#utility.yul\":2412:2418   */\n              dup6\n                /* \"#utility.yul\":2409:2410   */\n              dup2\n                /* \"#utility.yul\":2406:2419   */\n              lt\n                /* \"#utility.yul\":2387:2783   */\n              iszero\n              tag_252\n              jumpi\n                /* \"#utility.yul\":2483:2492   */\n              dup5\n                /* \"#utility.yul\":2477:2481   */\n              dup5\n                /* \"#utility.yul\":2473:2493   */\n              sub\n                /* \"#utility.yul\":2468:2471   */\n              dup10\n                /* \"#utility.yul\":2461:2494   */\n              mstore\n                /* \"#utility.yul\":2534:2540   */\n              dup2\n                /* \"#utility.yul\":2528:2541   */\n              mload\n                /* \"#utility.yul\":2562:2646   */\n              tag_253\n                /* \"#utility.yul\":2641:2645   */\n              dup6\n                /* \"#utility.yul\":2626:2639   */\n              dup3\n                /* \"#utility.yul\":2562:2646   */\n              tag_184\n              jump\t// in\n            tag_253:\n                /* \"#utility.yul\":2554:2646   */\n              swap5\n              pop\n                /* \"#utility.yul\":2669:2739   */\n              tag_254\n                /* \"#utility.yul\":2732:2738   */\n              dup4\n                /* \"#utility.yul\":2669:2739   */\n              tag_185\n              jump\t// in\n            tag_254:\n                /* \"#utility.yul\":2659:2739   */\n              swap3\n              pop\n                /* \"#utility.yul\":2768:2772   */\n              0x20\n                /* \"#utility.yul\":2763:2766   */\n              dup11\n                /* \"#utility.yul\":2759:2773   */\n              add\n                /* \"#utility.yul\":2752:2773   */\n              swap10\n              pop\n                /* \"#utility.yul\":2447:2783   */\n              pop\n                /* \"#utility.yul\":2434:2435   */\n              0x01\n                /* \"#utility.yul\":2431:2432   */\n              dup2\n                /* \"#utility.yul\":2427:2436   */\n              add\n                /* \"#utility.yul\":2422:2436   */\n              swap1\n              pop\n                /* \"#utility.yul\":2387:2783   */\n              jump(tag_250)\n            tag_252:\n                /* \"#utility.yul\":2391:2405   */\n              pop\n                /* \"#utility.yul\":2799:2803   */\n              dup3\n                /* \"#utility.yul\":2792:2803   */\n              swap8\n              pop\n                /* \"#utility.yul\":2819:2822   */\n              dup8\n                /* \"#utility.yul\":2812:2822   */\n              swap6\n              pop\n                /* \"#utility.yul\":1981:2828   */\n              pop\n              pop\n              pop\n              pop\n              pop\n                /* \"#utility.yul\":1837:2828   */\n              swap3\n              swap2\n              pop\n              pop\n              jump\t// out\n                /* \"#utility.yul\":2834:3247   */\n            tag_28:\n                /* \"#utility.yul\":2997:3001   */\n              0x00\n                /* \"#utility.yul\":3035:3037   */\n              0x20\n                /* \"#utility.yul\":3024:3033   */\n              dup3\n                /* \"#utility.yul\":3020:3038   */\n              add\n                /* \"#utility.yul\":3012:3038   */\n              swap1\n              pop\n                /* \"#utility.yul\":3084:3093   */\n              dup2\n                /* \"#utility.yul\":3078:3082   */\n              dup2\n                /* \"#utility.yul\":3074:3094   */\n              sub\n                /* \"#utility.yul\":3070:3071   */\n              0x00\n                /* \"#utility.yul\":3059:3068   */\n              dup4\n                /* \"#utility.yul\":3055:3072   */\n              add\n                /* \"#utility.yul\":3048:3095   */\n              mstore\n                /* \"#utility.yul\":3112:3240   */\n              tag_256\n                /* \"#utility.yul\":3235:3239   */\n              dup2\n                /* \"#utility.yul\":3226:3232   */\n              dup5\n                /* \"#utility.yul\":3112:3240   */\n              tag_186\n              jump\t// in\n            tag_256:\n                /* \"#utility.yul\":3104:3240   */\n              swap1\n              pop\n                /* \"#utility.yul\":2834:3247   */\n              swap3\n              swap2\n              pop\n              pop\n              jump\t// out\n                /* \"#utility.yul\":3334:3451   */\n            tag_188:\n                /* \"#utility.yul\":3443:3444   */\n              0x00\n                /* \"#utility.yul\":3440:3441   */\n              dup1\n                /* \"#utility.yul\":3433:3445   */\n              revert\n                /* \"#utility.yul\":3580:3666   */\n            tag_190:\n                /* \"#utility.yul\":3615:3622   */\n              0x00\n                /* \"#utility.yul\":3655:3659   */\n              0xff\n                /* \"#utility.yul\":3648:3653   */\n              dup3\n                /* \"#utility.yul\":3644:3660   */\n              and\n                /* \"#utility.yul\":3633:3660   */\n              swap1\n              pop\n                /* \"#utility.yul\":3580:3666   */\n              swap2\n              swap1\n              pop\n              jump\t// out\n                /* \"#utility.yul\":3672:3790   */\n            tag_191:\n                /* \"#utility.yul\":3743:3765   */\n              tag_262\n                /* \"#utility.yul\":3759:3764   */\n              dup2\n                /* \"#utility.yul\":3743:3765   */\n              tag_190\n              jump\t// in\n            tag_262:\n                /* \"#utility.yul\":3736:3741   */\n              dup2\n                /* \"#utility.yul\":3733:3766   */\n              eq\n                /* \"#utility.yul\":3723:3784   */\n              tag_263\n              jumpi\n                /* \"#utility.yul\":3780:3781   */\n              0x00\n                /* \"#utility.yul\":3777:3778   */\n              dup1\n                /* \"#utility.yul\":3770:3782   */\n              revert\n                /* \"#utility.yul\":3723:3784   */\n            tag_263:\n                /* \"#utility.yul\":3672:3790   */\n              pop\n              jump\t// out\n                /* \"#utility.yul\":3796:3931   */\n            tag_192:\n                /* \"#utility.yul\":3840:3845   */\n              0x00\n                /* \"#utility.yul\":3878:3884   */\n              dup2\n                /* \"#utility.yul\":3865:3885   */\n              calldataload\n                /* \"#utility.yul\":3856:3885   */\n              swap1\n              pop\n                /* \"#utility.yul\":3894:3925   */\n              tag_265\n                /* \"#utility.yul\":3919:3924   */\n              dup2\n                /* \"#utility.yul\":3894:3925   */\n              tag_191\n              jump\t// in\n            tag_265:\n                /* \"#utility.yul\":3796:3931   */\n              swap3\n              swap2\n              pop\n              pop\n              jump\t// out\n                /* \"#utility.yul\":3937:4262   */\n            tag_31:\n                /* \"#utility.yul\":3994:4000   */\n              0x00\n                /* \"#utility.yul\":4043:4045   */\n              0x20\n                /* \"#utility.yul\":4031:4040   */\n              dup3\n                /* \"#utility.yul\":4022:4029   */\n              dup5\n                /* \"#utility.yul\":4018:4041   */\n              sub\n                /* \"#utility.yul\":4014:4046   */\n              slt\n                /* \"#utility.yul\":4011:4130   */\n              iszero\n              tag_267\n              jumpi\n                /* \"#utility.yul\":4049:4128   */\n              tag_268\n              tag_188\n              jump\t// in\n            tag_268:\n                /* \"#utility.yul\":4011:4130   */\n            tag_267:\n                /* \"#utility.yul\":4169:4170   */\n              0x00\n                /* \"#utility.yul\":4194:4245   */\n              tag_269\n                /* \"#utility.yul\":4237:4244   */\n              dup5\n                /* \"#utility.yul\":4228:4234   */\n              dup3\n                /* \"#utility.yul\":4217:4226   */\n              dup6\n                /* \"#utility.yul\":4213:4235   */\n              add\n                /* \"#utility.yul\":4194:4245   */\n              tag_192\n              jump\t// in\n            tag_269:\n                /* \"#utility.yul\":4184:4245   */\n              swap2\n              pop\n                /* \"#utility.yul\":4140:4255   */\n              pop\n                /* \"#utility.yul\":3937:4262   */\n              swap3\n              swap2\n              pop\n              pop\n              jump\t// out\n                /* \"#utility.yul\":4268:4361   */\n            tag_193:\n                /* \"#utility.yul\":4304:4311   */\n              0x00\n                /* \"#utility.yul\":4344:4354   */\n              0xffffffff\n                /* \"#utility.yul\":4337:4342   */\n              dup3\n                /* \"#utility.yul\":4333:4355   */\n              and\n                /* \"#utility.yul\":4322:4355   */\n              swap1\n              pop\n                /* \"#utility.yul\":4268:4361   */\n              swap2\n              swap1\n              pop\n              jump\t// out\n                /* \"#utility.yul\":4367:4482   */\n            tag_194:\n                /* \"#utility.yul\":4452:4475   */\n              tag_272\n                /* \"#utility.yul\":4469:4474   */\n              dup2\n                /* \"#utility.yul\":4452:4475   */\n              tag_193\n              jump\t// in\n            tag_272:\n                /* \"#utility.yul\":4447:4450   */\n              dup3\n                /* \"#utility.yul\":4440:4476   */\n              mstore\n                /* \"#utility.yul\":4367:4482   */\n              pop\n              pop\n              jump\t// out\n                /* \"#utility.yul\":4488:4706   */\n            tag_34:\n                /* \"#utility.yul\":4579:4583   */\n              0x00\n                /* \"#utility.yul\":4617:4619   */\n              0x20\n                /* \"#utility.yul\":4606:4615   */\n              dup3\n                /* \"#utility.yul\":4602:4620   */\n              add\n                /* \"#utility.yul\":4594:4620   */\n              swap1\n              pop\n                /* \"#utility.yul\":4630:4699   */\n              tag_274\n                /* \"#utility.yul\":4696:4697   */\n              0x00\n                /* \"#utility.yul\":4685:4694   */\n              dup4\n                /* \"#utility.yul\":4681:4698   */\n              add\n                /* \"#utility.yul\":4672:4678   */\n              dup5\n                /* \"#utility.yul\":4630:4699   */\n              tag_194\n              jump\t// in\n            tag_274:\n                /* \"#utility.yul\":4488:4706   */\n              swap3\n              swap2\n              pop\n              pop\n              jump\t// out\n                /* \"#utility.yul\":4712:4824   */\n            tag_195:\n                /* \"#utility.yul\":4795:4817   */\n              tag_276\n                /* \"#utility.yul\":4811:4816   */\n              dup2\n                /* \"#utility.yul\":4795:4817   */\n              tag_190\n              jump\t// in\n            tag_276:\n                /* \"#utility.yul\":4790:4793   */\n              dup3\n                /* \"#utility.yul\":4783:4818   */\n              mstore\n                /* \"#utility.yul\":4712:4824   */\n              pop\n              pop\n              jump\t// out\n                /* \"#utility.yul\":4830:5044   */\n            tag_38:\n                /* \"#utility.yul\":4919:4923   */\n              0x00\n                /* \"#utility.yul\":4957:4959   */\n              0x20\n                /* \"#utility.yul\":4946:4955   */\n              dup3\n                /* \"#utility.yul\":4942:4960   */\n              add\n                /* \"#utility.yul\":4934:4960   */\n              swap1\n              pop\n                /* \"#utility.yul\":4970:5037   */\n              tag_278\n                /* \"#utility.yul\":5034:5035   */\n              0x00\n                /* \"#utility.yul\":5023:5032   */\n              dup4\n                /* \"#utility.yul\":5019:5036   */\n              add\n                /* \"#utility.yul\":5010:5016   */\n              dup5\n                /* \"#utility.yul\":4970:5037   */\n              tag_195\n              jump\t// in\n            tag_278:\n                /* \"#utility.yul\":4830:5044   */\n              swap3\n              swap2\n              pop\n              pop\n              jump\t// out\n                /* \"#utility.yul\":5050:5176   */\n            tag_196:\n                /* \"#utility.yul\":5087:5094   */\n              0x00\n                /* \"#utility.yul\":5127:5169   */\n              0xffffffffffffffffffffffffffffffffffffffff\n                /* \"#utility.yul\":5120:5125   */\n              dup3\n                /* \"#utility.yul\":5116:5170   */\n              and\n                /* \"#utility.yul\":5105:5170   */\n              swap1\n              pop\n                /* \"#utility.yul\":5050:5176   */\n              swap2\n              swap1\n              pop\n              jump\t// out\n                /* \"#utility.yul\":5182:5278   */\n            tag_197:\n                /* \"#utility.yul\":5219:5226   */\n              0x00\n                /* \"#utility.yul\":5248:5272   */\n              tag_281\n                /* \"#utility.yul\":5266:5271   */\n              dup3\n                /* \"#utility.yul\":5248:5272   */\n              tag_196\n              jump\t// in\n            tag_281:\n                /* \"#utility.yul\":5237:5272   */\n              swap1\n              pop\n                /* \"#utility.yul\":5182:5278   */\n              swap2\n              swap1\n              pop\n              jump\t// out\n                /* \"#utility.yul\":5284:5406   */\n            tag_198:\n                /* \"#utility.yul\":5357:5381   */\n              tag_283\n                /* \"#utility.yul\":5375:5380   */\n              dup2\n                /* \"#utility.yul\":5357:5381   */\n              tag_197\n              jump\t// in\n            tag_283:\n                /* \"#utility.yul\":5350:5355   */\n              dup2\n                /* \"#utility.yul\":5347:5382   */\n              eq\n                /* \"#utility.yul\":5337:5400   */\n              tag_284\n              jumpi\n                /* \"#utility.yul\":5396:5397   */\n              0x00\n                /* \"#utility.yul\":5393:5394   */\n              dup1\n                /* \"#utility.yul\":5386:5398   */\n              revert\n                /* \"#utility.yul\":5337:5400   */\n            tag_284:\n                /* \"#utility.yul\":5284:5406   */\n              pop\n              jump\t// out\n                /* \"#utility.yul\":5412:5551   */\n            tag_199:\n                /* \"#utility.yul\":5458:5463   */\n              0x00\n                /* \"#utility.yul\":5496:5502   */\n              dup2\n                /* \"#utility.yul\":5483:5503   */\n              calldataload\n                /* \"#utility.yul\":5474:5503   */\n              swap1\n              pop\n                /* \"#utility.yul\":5512:5545   */\n              tag_286\n                /* \"#utility.yul\":5539:5544   */\n              dup2\n                /* \"#utility.yul\":5512:5545   */\n              tag_198\n              jump\t// in\n            tag_286:\n                /* \"#utility.yul\":5412:5551   */\n              swap3\n              swap2\n              pop\n              pop\n              jump\t// out\n                /* \"#utility.yul\":5557:5886   */\n            tag_41:\n                /* \"#utility.yul\":5616:5622   */\n              0x00\n                /* \"#utility.yul\":5665:5667   */\n              0x20\n                /* \"#utility.yul\":5653:5662   */\n              dup3\n                /* \"#utility.yul\":5644:5651   */\n              dup5\n                /* \"#utility.yul\":5640:5663   */\n              sub\n                /* \"#utility.yul\":5636:5668   */\n              slt\n                /* \"#utility.yul\":5633:5752   */\n              iszero\n              tag_288\n              jumpi\n                /* \"#utility.yul\":5671:5750   */\n              tag_289\n              tag_188\n              jump\t// in\n            tag_289:\n                /* \"#utility.yul\":5633:5752   */\n            tag_288:\n                /* \"#utility.yul\":5791:5792   */\n              0x00\n                /* \"#utility.yul\":5816:5869   */\n              tag_290\n                /* \"#utility.yul\":5861:5868   */\n              dup5\n                /* \"#utility.yul\":5852:5858   */\n              dup3\n                /* \"#utility.yul\":5841:5850   */\n              dup6\n                /* \"#utility.yul\":5837:5859   */\n              add\n                /* \"#utility.yul\":5816:5869   */\n              tag_199\n              jump\t// in\n            tag_290:\n                /* \"#utility.yul\":5806:5869   */\n              swap2\n              pop\n                /* \"#utility.yul\":5762:5879   */\n              pop\n                /* \"#utility.yul\":5557:5886   */\n              swap3\n              swap2\n              pop\n              pop\n              jump\t// out\n                /* \"#utility.yul\":5892:5982   */\n            tag_200:\n                /* \"#utility.yul\":5926:5933   */\n              0x00\n                /* \"#utility.yul\":5969:5974   */\n              dup2\n                /* \"#utility.yul\":5962:5975   */\n              iszero\n                /* \"#utility.yul\":5955:5976   */\n              iszero\n                /* \"#utility.yul\":5944:5976   */\n              swap1\n              pop\n                /* \"#utility.yul\":5892:5982   */\n              swap2\n              swap1\n              pop\n              jump\t// out\n                /* \"#utility.yul\":5988:6097   */\n            tag_201:\n                /* \"#utility.yul\":6069:6090   */\n              tag_293\n                /* \"#utility.yul\":6084:6089   */\n              dup2\n                /* \"#utility.yul\":6069:6090   */\n              tag_200\n              jump\t// in\n            tag_293:\n                /* \"#utility.yul\":6064:6067   */\n              dup3\n                /* \"#utility.yul\":6057:6091   */\n              mstore\n                /* \"#utility.yul\":5988:6097   */\n              pop\n              pop\n              jump\t// out\n                /* \"#utility.yul\":6103:6313   */\n            tag_44:\n                /* \"#utility.yul\":6190:6194   */\n              0x00\n                /* \"#utility.yul\":6228:6230   */\n              0x20\n                /* \"#utility.yul\":6217:6226   */\n              dup3\n                /* \"#utility.yul\":6213:6231   */\n              add\n                /* \"#utility.yul\":6205:6231   */\n              swap1\n              pop\n                /* \"#utility.yul\":6241:6306   */\n              tag_295\n                /* \"#utility.yul\":6303:6304   */\n              0x00\n                /* \"#utility.yul\":6292:6301   */\n              dup4\n                /* \"#utility.yul\":6288:6305   */\n              add\n                /* \"#utility.yul\":6279:6285   */\n              dup5\n                /* \"#utility.yul\":6241:6306   */\n              tag_201\n              jump\t// in\n            tag_295:\n                /* \"#utility.yul\":6103:6313   */\n              swap3\n              swap2\n              pop\n              pop\n              jump\t// out\n                /* \"#utility.yul\":6319:6437   */\n            tag_202:\n                /* \"#utility.yul\":6406:6430   */\n              tag_297\n                /* \"#utility.yul\":6424:6429   */\n              dup2\n                /* \"#utility.yul\":6406:6430   */\n              tag_197\n              jump\t// in\n            tag_297:\n                /* \"#utility.yul\":6401:6404   */\n              dup3\n                /* \"#utility.yul\":6394:6431   */\n              mstore\n                /* \"#utility.yul\":6319:6437   */\n              pop\n              pop\n              jump\t// out\n                /* \"#utility.yul\":6443:6665   */\n            tag_48:\n                /* \"#utility.yul\":6536:6540   */\n              0x00\n                /* \"#utility.yul\":6574:6576   */\n              0x20\n                /* \"#utility.yul\":6563:6572   */\n              dup3\n                /* \"#utility.yul\":6559:6577   */\n              add\n                /* \"#utility.yul\":6551:6577   */\n              swap1\n              pop\n                /* \"#utility.yul\":6587:6658   */\n              tag_299\n                /* \"#utility.yul\":6655:6656   */\n              0x00\n                /* \"#utility.yul\":6644:6653   */\n              dup4\n                /* \"#utility.yul\":6640:6657   */\n              add\n                /* \"#utility.yul\":6631:6637   */\n              dup5\n                /* \"#utility.yul\":6587:6658   */\n              tag_202\n              jump\t// in\n            tag_299:\n                /* \"#utility.yul\":6443:6665   */\n              swap3\n              swap2\n              pop\n              pop\n              jump\t// out\n                /* \"#utility.yul\":6671:6840   */\n            tag_203:\n                /* \"#utility.yul\":6755:6766   */\n              0x00\n                /* \"#utility.yul\":6789:6795   */\n              dup3\n                /* \"#utility.yul\":6784:6787   */\n              dup3\n                /* \"#utility.yul\":6777:6796   */\n              mstore\n                /* \"#utility.yul\":6829:6833   */\n              0x20\n                /* \"#utility.yul\":6824:6827   */\n              dup3\n                /* \"#utility.yul\":6820:6834   */\n              add\n                /* \"#utility.yul\":6805:6834   */\n              swap1\n              pop\n                /* \"#utility.yul\":6671:6840   */\n              swap3\n              swap2\n              pop\n              pop\n              jump\t// out\n                /* \"#utility.yul\":6846:7223   */\n            tag_204:\n                /* \"#utility.yul\":6934:6937   */\n              0x00\n                /* \"#utility.yul\":6962:7001   */\n              tag_302\n                /* \"#utility.yul\":6995:7000   */\n              dup3\n                /* \"#utility.yul\":6962:7001   */\n              tag_179\n              jump\t// in\n            tag_302:\n                /* \"#utility.yul\":7017:7088   */\n              tag_303\n                /* \"#utility.yul\":7081:7087   */\n              dup2\n                /* \"#utility.yul\":7076:7079   */\n              dup6\n                /* \"#utility.yul\":7017:7088   */\n              tag_203\n              jump\t// in\n            tag_303:\n                /* \"#utility.yul\":7010:7088   */\n              swap4\n              pop\n                /* \"#utility.yul\":7097:7162   */\n              tag_304\n                /* \"#utility.yul\":7155:7161   */\n              dup2\n                /* \"#utility.yul\":7150:7153   */\n              dup6\n                /* \"#utility.yul\":7143:7147   */\n              0x20\n                /* \"#utility.yul\":7136:7141   */\n              dup7\n                /* \"#utility.yul\":7132:7148   */\n              add\n                /* \"#utility.yul\":7097:7162   */\n              tag_181\n              jump\t// in\n            tag_304:\n                /* \"#utility.yul\":7187:7216   */\n              tag_305\n                /* \"#utility.yul\":7209:7215   */\n              dup2\n                /* \"#utility.yul\":7187:7216   */\n              tag_182\n              jump\t// in\n            tag_305:\n                /* \"#utility.yul\":7182:7185   */\n              dup5\n                /* \"#utility.yul\":7178:7217   */\n              add\n                /* \"#utility.yul\":7171:7217   */\n              swap2\n              pop\n                /* \"#utility.yul\":6938:7223   */\n              pop\n                /* \"#utility.yul\":6846:7223   */\n              swap3\n              swap2\n              pop\n              pop\n              jump\t// out\n                /* \"#utility.yul\":7229:7542   */\n            tag_52:\n                /* \"#utility.yul\":7342:7346   */\n              0x00\n                /* \"#utility.yul\":7380:7382   */\n              0x20\n                /* \"#utility.yul\":7369:7378   */\n              dup3\n                /* \"#utility.yul\":7365:7383   */\n              add\n                /* \"#utility.yul\":7357:7383   */\n              swap1\n              pop\n                /* \"#utility.yul\":7429:7438   */\n              dup2\n                /* \"#utility.yul\":7423:7427   */\n              dup2\n                /* \"#utility.yul\":7419:7439   */\n              sub\n                /* \"#utility.yul\":7415:7416   */\n              0x00\n                /* \"#utility.yul\":7404:7413   */\n              dup4\n                /* \"#utility.yul\":7400:7417   */\n              add\n                /* \"#utility.yul\":7393:7440   */\n              mstore\n                /* \"#utility.yul\":7457:7535   */\n              tag_307\n                /* \"#utility.yul\":7530:7534   */\n              dup2\n                /* \"#utility.yul\":7521:7527   */\n              dup5\n                /* \"#utility.yul\":7457:7535   */\n              tag_204\n              jump\t// in\n            tag_307:\n                /* \"#utility.yul\":7449:7535   */\n              swap1\n              pop\n                /* \"#utility.yul\":7229:7542   */\n              swap3\n              swap2\n              pop\n              pop\n              jump\t// out\n                /* \"#utility.yul\":7548:8493   */\n            tag_56:\n                /* \"#utility.yul\":7813:7817   */\n              0x00\n                /* \"#utility.yul\":7851:7854   */\n              0xe0\n                /* \"#utility.yul\":7840:7849   */\n              dup3\n                /* \"#utility.yul\":7836:7855   */\n              add\n                /* \"#utility.yul\":7828:7855   */\n              swap1\n              pop\n                /* \"#utility.yul\":7865:7936   */\n              tag_309\n                /* \"#utility.yul\":7933:7934   */\n              0x00\n                /* \"#utility.yul\":7922:7931   */\n              dup4\n                /* \"#utility.yul\":7918:7935   */\n              add\n                /* \"#utility.yul\":7909:7915   */\n              dup11\n                /* \"#utility.yul\":7865:7936   */\n              tag_202\n              jump\t// in\n            tag_309:\n                /* \"#utility.yul\":7946:8014   */\n              tag_310\n                /* \"#utility.yul\":8010:8012   */\n              0x20\n                /* \"#utility.yul\":7999:8008   */\n              dup4\n                /* \"#utility.yul\":7995:8013   */\n              add\n                /* \"#utility.yul\":7986:7992   */\n              dup10\n                /* \"#utility.yul\":7946:8014   */\n              tag_195\n              jump\t// in\n            tag_310:\n                /* \"#utility.yul\":8024:8094   */\n              tag_311\n                /* \"#utility.yul\":8090:8092   */\n              0x40\n                /* \"#utility.yul\":8079:8088   */\n              dup4\n                /* \"#utility.yul\":8075:8093   */\n              add\n                /* \"#utility.yul\":8066:8072   */\n              dup9\n                /* \"#utility.yul\":8024:8094   */\n              tag_194\n              jump\t// in\n            tag_311:\n                /* \"#utility.yul\":8104:8174   */\n              tag_312\n                /* \"#utility.yul\":8170:8172   */\n              0x60\n                /* \"#utility.yul\":8159:8168   */\n              dup4\n                /* \"#utility.yul\":8155:8173   */\n              add\n                /* \"#utility.yul\":8146:8152   */\n              dup8\n                /* \"#utility.yul\":8104:8174   */\n              tag_194\n              jump\t// in\n            tag_312:\n                /* \"#utility.yul\":8184:8251   */\n              tag_313\n                /* \"#utility.yul\":8246:8249   */\n              0x80\n                /* \"#utility.yul\":8235:8244   */\n              dup4\n                /* \"#utility.yul\":8231:8250   */\n              add\n                /* \"#utility.yul\":8222:8228   */\n              dup7\n                /* \"#utility.yul\":8184:8251   */\n              tag_201\n              jump\t// in\n            tag_313:\n                /* \"#utility.yul\":8261:8332   */\n              tag_314\n                /* \"#utility.yul\":8327:8330   */\n              0xa0\n                /* \"#utility.yul\":8316:8325   */\n              dup4\n                /* \"#utility.yul\":8312:8331   */\n              add\n                /* \"#utility.yul\":8303:8309   */\n              dup6\n                /* \"#utility.yul\":8261:8332   */\n              tag_194\n              jump\t// in\n            tag_314:\n                /* \"#utility.yul\":8380:8389   */\n              dup2\n                /* \"#utility.yul\":8374:8378   */\n              dup2\n                /* \"#utility.yul\":8370:8390   */\n              sub\n                /* \"#utility.yul\":8364:8367   */\n              0xc0\n                /* \"#utility.yul\":8353:8362   */\n              dup4\n                /* \"#utility.yul\":8349:8368   */\n              add\n                /* \"#utility.yul\":8342:8391   */\n              mstore\n                /* \"#utility.yul\":8408:8486   */\n              tag_315\n                /* \"#utility.yul\":8481:8485   */\n              dup2\n                /* \"#utility.yul\":8472:8478   */\n              dup5\n                /* \"#utility.yul\":8408:8486   */\n              tag_204\n              jump\t// in\n            tag_315:\n                /* \"#utility.yul\":8400:8486   */\n              swap1\n              pop\n                /* \"#utility.yul\":7548:8493   */\n              swap9\n              swap8\n              pop\n              pop\n              pop\n              pop\n              pop\n              pop\n              pop\n              pop\n              jump\t// out\n                /* \"#utility.yul\":8499:8576   */\n            tag_205:\n                /* \"#utility.yul\":8536:8543   */\n              0x00\n                /* \"#utility.yul\":8565:8570   */\n              dup2\n                /* \"#utility.yul\":8554:8570   */\n              swap1\n              pop\n                /* \"#utility.yul\":8499:8576   */\n              swap2\n              swap1\n              pop\n              jump\t// out\n                /* \"#utility.yul\":8582:8704   */\n            tag_206:\n                /* \"#utility.yul\":8655:8679   */\n              tag_318\n                /* \"#utility.yul\":8673:8678   */\n              dup2\n                /* \"#utility.yul\":8655:8679   */\n              tag_205\n              jump\t// in\n            tag_318:\n                /* \"#utility.yul\":8648:8653   */\n              dup2\n                /* \"#utility.yul\":8645:8680   */\n              eq\n                /* \"#utility.yul\":8635:8698   */\n              tag_319\n              jumpi\n                /* \"#utility.yul\":8694:8695   */\n              0x00\n                /* \"#utility.yul\":8691:8692   */\n              dup1\n                /* \"#utility.yul\":8684:8696   */\n              revert\n                /* \"#utility.yul\":8635:8698   */\n            tag_319:\n                /* \"#utility.yul\":8582:8704   */\n              pop\n              jump\t// out\n                /* \"#utility.yul\":8710:8849   */\n            tag_207:\n                /* \"#utility.yul\":8756:8761   */\n              0x00\n                /* \"#utility.yul\":8794:8800   */\n              dup2\n                /* \"#utility.yul\":8781:8801   */\n              calldataload\n                /* \"#utility.yul\":8772:8801   */\n              swap1\n              pop\n                /* \"#utility.yul\":8810:8843   */\n              tag_321\n                /* \"#utility.yul\":8837:8842   */\n              dup2\n                /* \"#utility.yul\":8810:8843   */\n              tag_206\n              jump\t// in\n            tag_321:\n                /* \"#utility.yul\":8710:8849   */\n              swap3\n              swap2\n              pop\n              pop\n              jump\t// out\n                /* \"#utility.yul\":8855:9184   */\n            tag_91:\n                /* \"#utility.yul\":8914:8920   */\n              0x00\n                /* \"#utility.yul\":8963:8965   */\n              0x20\n                /* \"#utility.yul\":8951:8960   */\n              dup3\n                /* \"#utility.yul\":8942:8949   */\n              dup5\n                /* \"#utility.yul\":8938:8961   */\n              sub\n                /* \"#utility.yul\":8934:8966   */\n              slt\n                /* \"#utility.yul\":8931:9050   */\n              iszero\n              tag_323\n              jumpi\n                /* \"#utility.yul\":8969:9048   */\n              tag_324\n              tag_188\n              jump\t// in\n            tag_324:\n                /* \"#utility.yul\":8931:9050   */\n            tag_323:\n                /* \"#utility.yul\":9089:9090   */\n              0x00\n                /* \"#utility.yul\":9114:9167   */\n              tag_325\n                /* \"#utility.yul\":9159:9166   */\n              dup5\n                /* \"#utility.yul\":9150:9156   */\n              dup3\n                /* \"#utility.yul\":9139:9148   */\n              dup6\n                /* \"#utility.yul\":9135:9157   */\n              add\n                /* \"#utility.yul\":9114:9167   */\n              tag_207\n              jump\t// in\n            tag_325:\n                /* \"#utility.yul\":9104:9167   */\n              swap2\n              pop\n                /* \"#utility.yul\":9060:9177   */\n              pop\n                /* \"#utility.yul\":8855:9184   */\n              swap3\n              swap2\n              pop\n              pop\n              jump\t// out\n                /* \"#utility.yul\":9190:9370   */\n            tag_208:\n                /* \"#utility.yul\":9238:9315   */\n              0x4e487b7100000000000000000000000000000000000000000000000000000000\n                /* \"#utility.yul\":9235:9236   */\n              0x00\n                /* \"#utility.yul\":9228:9316   */\n              mstore\n                /* \"#utility.yul\":9335:9339   */\n              0x22\n                /* \"#utility.yul\":9332:9333   */\n              0x04\n                /* \"#utility.yul\":9325:9340   */\n              mstore\n                /* \"#utility.yul\":9359:9363   */\n              0x24\n                /* \"#utility.yul\":9356:9357   */\n              0x00\n                /* \"#utility.yul\":9349:9364   */\n              revert\n                /* \"#utility.yul\":9376:9696   */\n            tag_102:\n                /* \"#utility.yul\":9420:9426   */\n              0x00\n                /* \"#utility.yul\":9457:9458   */\n              0x02\n                /* \"#utility.yul\":9451:9455   */\n              dup3\n                /* \"#utility.yul\":9447:9459   */\n              div\n                /* \"#utility.yul\":9437:9459   */\n              swap1\n              pop\n                /* \"#utility.yul\":9504:9505   */\n              0x01\n                /* \"#utility.yul\":9498:9502   */\n              dup3\n                /* \"#utility.yul\":9494:9506   */\n              and\n                /* \"#utility.yul\":9525:9543   */\n              dup1\n                /* \"#utility.yul\":9515:9596   */\n              tag_328\n              jumpi\n                /* \"#utility.yul\":9581:9585   */\n              0x7f\n                /* \"#utility.yul\":9573:9579   */\n              dup3\n                /* \"#utility.yul\":9569:9586   */\n              and\n                /* \"#utility.yul\":9559:9586   */\n              swap2\n              pop\n                /* \"#utility.yul\":9515:9596   */\n            tag_328:\n                /* \"#utility.yul\":9643:9645   */\n              0x20\n                /* \"#utility.yul\":9635:9641   */\n              dup3\n                /* \"#utility.yul\":9632:9646   */\n              lt\n                /* \"#utility.yul\":9612:9630   */\n              dup2\n                /* \"#utility.yul\":9609:9647   */\n              sub\n                /* \"#utility.yul\":9606:9690   */\n              tag_329\n              jumpi\n                /* \"#utility.yul\":9662:9680   */\n              tag_330\n              tag_208\n              jump\t// in\n            tag_330:\n                /* \"#utility.yul\":9606:9690   */\n            tag_329:\n                /* \"#utility.yul\":9427:9696   */\n              pop\n                /* \"#utility.yul\":9376:9696   */\n              swap2\n              swap1\n              pop\n              jump\t// out\n                /* \"#utility.yul\":9702:9863   */\n            tag_209:\n                /* \"#utility.yul\":9842:9855   */\n              0x4e6f74206d616e61676572000000000000000000000000000000000000000000\n                /* \"#utility.yul\":9838:9839   */\n              0x00\n                /* \"#utility.yul\":9830:9836   */\n              dup3\n                /* \"#utility.yul\":9826:9840   */\n              add\n                /* \"#utility.yul\":9819:9856   */\n              mstore\n                /* \"#utility.yul\":9702:9863   */\n              pop\n              jump\t// out\n                /* \"#utility.yul\":9869:10235   */\n            tag_210:\n                /* \"#utility.yul\":10011:10014   */\n              0x00\n                /* \"#utility.yul\":10032:10099   */\n              tag_333\n                /* \"#utility.yul\":10096:10098   */\n              0x0b\n                /* \"#utility.yul\":10091:10094   */\n              dup4\n                /* \"#utility.yul\":10032:10099   */\n              tag_203\n              jump\t// in\n            tag_333:\n                /* \"#utility.yul\":10025:10099   */\n              swap2\n              pop\n                /* \"#utility.yul\":10108:10201   */\n              tag_334\n                /* \"#utility.yul\":10197:10200   */\n              dup3\n                /* \"#utility.yul\":10108:10201   */\n              tag_209\n              jump\t// in\n            tag_334:\n                /* \"#utility.yul\":10226:10228   */\n              0x20\n                /* \"#utility.yul\":10221:10224   */\n              dup3\n                /* \"#utility.yul\":10217:10229   */\n              add\n                /* \"#utility.yul\":10210:10229   */\n              swap1\n              pop\n                /* \"#utility.yul\":9869:10235   */\n              swap2\n              swap1\n              pop\n              jump\t// out\n                /* \"#utility.yul\":10241:10660   */\n            tag_121:\n                /* \"#utility.yul\":10407:10411   */\n              0x00\n                /* \"#utility.yul\":10445:10447   */\n              0x20\n                /* \"#utility.yul\":10434:10443   */\n              dup3\n                /* \"#utility.yul\":10430:10448   */\n              add\n                /* \"#utility.yul\":10422:10448   */\n              swap1\n              pop\n                /* \"#utility.yul\":10494:10503   */\n              dup2\n                /* \"#utility.yul\":10488:10492   */\n              dup2\n                /* \"#utility.yul\":10484:10504   */\n              sub\n                /* \"#utility.yul\":10480:10481   */\n              0x00\n                /* \"#utility.yul\":10469:10478   */\n              dup4\n                /* \"#utility.yul\":10465:10482   */\n              add\n                /* \"#utility.yul\":10458:10505   */\n              mstore\n                /* \"#utility.yul\":10522:10653   */\n              tag_336\n                /* \"#utility.yul\":10648:10652   */\n              dup2\n                /* \"#utility.yul\":10522:10653   */\n              tag_210\n              jump\t// in\n            tag_336:\n                /* \"#utility.yul\":10514:10653   */\n              swap1\n              pop\n                /* \"#utility.yul\":10241:10660   */\n              swap2\n              swap1\n              pop\n              jump\t// out\n                /* \"#utility.yul\":10666:10833   */\n            tag_211:\n                /* \"#utility.yul\":10806:10825   */\n              0x416c726561647920636f6d706c65746564000000000000000000000000000000\n                /* \"#utility.yul\":10802:10803   */\n              0x00\n                /* \"#utility.yul\":10794:10800   */\n              dup3\n                /* \"#utility.yul\":10790:10804   */\n              add\n                /* \"#utility.yul\":10783:10826   */\n              mstore\n                /* \"#utility.yul\":10666:10833   */\n              pop\n              jump\t// out\n                /* \"#utility.yul\":10839:11205   */\n            tag_212:\n                /* \"#utility.yul\":10981:10984   */\n              0x00\n                /* \"#utility.yul\":11002:11069   */\n              tag_339\n                /* \"#utility.yul\":11066:11068   */\n              0x11\n                /* \"#utility.yul\":11061:11064   */\n              dup4\n                /* \"#utility.yul\":11002:11069   */\n              tag_203\n              jump\t// in\n            tag_339:\n                /* \"#utility.yul\":10995:11069   */\n              swap2\n              pop\n                /* \"#utility.yul\":11078:11171   */\n              tag_340\n                /* \"#utility.yul\":11167:11170   */\n              dup3\n                /* \"#utility.yul\":11078:11171   */\n              tag_211\n              jump\t// in\n            tag_340:\n                /* \"#utility.yul\":11196:11198   */\n              0x20\n                /* \"#utility.yul\":11191:11194   */\n              dup3\n                /* \"#utility.yul\":11187:11199   */\n              add\n                /* \"#utility.yul\":11180:11199   */\n              swap1\n              pop\n                /* \"#utility.yul\":10839:11205   */\n              swap2\n              swap1\n              pop\n              jump\t// out\n                /* \"#utility.yul\":11211:11630   */\n            tag_125:\n                /* \"#utility.yul\":11377:11381   */\n              0x00\n                /* \"#utility.yul\":11415:11417   */\n              0x20\n                /* \"#utility.yul\":11404:11413   */\n              dup3\n                /* \"#utility.yul\":11400:11418   */\n              add\n                /* \"#utility.yul\":11392:11418   */\n              swap1\n              pop\n                /* \"#utility.yul\":11464:11473   */\n              dup2\n                /* \"#utility.yul\":11458:11462   */\n              dup2\n                /* \"#utility.yul\":11454:11474   */\n              sub\n                /* \"#utility.yul\":11450:11451   */\n              0x00\n                /* \"#utility.yul\":11439:11448   */\n              dup4\n                /* \"#utility.yul\":11435:11452   */\n              add\n                /* \"#utility.yul\":11428:11475   */\n              mstore\n                /* \"#utility.yul\":11492:11623   */\n              tag_342\n                /* \"#utility.yul\":11618:11622   */\n              dup2\n                /* \"#utility.yul\":11492:11623   */\n              tag_212\n              jump\t// in\n            tag_342:\n                /* \"#utility.yul\":11484:11623   */\n              swap1\n              pop\n                /* \"#utility.yul\":11211:11630   */\n              swap2\n              swap1\n              pop\n              jump\t// out\n                /* \"#utility.yul\":11636:11795   */\n            tag_213:\n                /* \"#utility.yul\":11776:11787   */\n              0x4e6f7420656e6465640000000000000000000000000000000000000000000000\n                /* \"#utility.yul\":11772:11773   */\n              0x00\n                /* \"#utility.yul\":11764:11770   */\n              dup3\n                /* \"#utility.yul\":11760:11774   */\n              add\n                /* \"#utility.yul\":11753:11788   */\n              mstore\n                /* \"#utility.yul\":11636:11795   */\n              pop\n              jump\t// out\n                /* \"#utility.yul\":11801:12166   */\n            tag_214:\n                /* \"#utility.yul\":11943:11946   */\n              0x00\n                /* \"#utility.yul\":11964:12030   */\n              tag_345\n                /* \"#utility.yul\":12028:12029   */\n              0x09\n                /* \"#utility.yul\":12023:12026   */\n              dup4\n                /* \"#utility.yul\":11964:12030   */\n              tag_203\n              jump\t// in\n            tag_345:\n                /* \"#utility.yul\":11957:12030   */\n              swap2\n              pop\n                /* \"#utility.yul\":12039:12132   */\n              tag_346\n                /* \"#utility.yul\":12128:12131   */\n              dup3\n                /* \"#utility.yul\":12039:12132   */\n              tag_213\n              jump\t// in\n            tag_346:\n                /* \"#utility.yul\":12157:12159   */\n              0x20\n                /* \"#utility.yul\":12152:12155   */\n              dup3\n                /* \"#utility.yul\":12148:12160   */\n              add\n                /* \"#utility.yul\":12141:12160   */\n              swap1\n              pop\n                /* \"#utility.yul\":11801:12166   */\n              swap2\n              swap1\n              pop\n              jump\t// out\n                /* \"#utility.yul\":12172:12591   */\n            tag_128:\n                /* \"#utility.yul\":12338:12342   */\n              0x00\n                /* \"#utility.yul\":12376:12378   */\n              0x20\n                /* \"#utility.yul\":12365:12374   */\n              dup3\n                /* \"#utility.yul\":12361:12379   */\n              add\n                /* \"#utility.yul\":12353:12379   */\n              swap1\n              pop\n                /* \"#utility.yul\":12425:12434   */\n              dup2\n                /* \"#utility.yul\":12419:12423   */\n              dup2\n                /* \"#utility.yul\":12415:12435   */\n              sub\n                /* \"#utility.yul\":12411:12412   */\n              0x00\n                /* \"#utility.yul\":12400:12409   */\n              dup4\n                /* \"#utility.yul\":12396:12413   */\n              add\n                /* \"#utility.yul\":12389:12436   */\n              mstore\n                /* \"#utility.yul\":12453:12584   */\n              tag_348\n                /* \"#utility.yul\":12579:12583   */\n              dup2\n                /* \"#utility.yul\":12453:12584   */\n              tag_214\n              jump\t// in\n            tag_348:\n                /* \"#utility.yul\":12445:12584   */\n              swap1\n              pop\n                /* \"#utility.yul\":12172:12591   */\n              swap2\n              swap1\n              pop\n              jump\t// out\n                /* \"#utility.yul\":12597:12761   */\n            tag_215:\n                /* \"#utility.yul\":12737:12753   */\n              0x496e76616c69642063686f696365000000000000000000000000000000000000\n                /* \"#utility.yul\":12733:12734   */\n              0x00\n                /* \"#utility.yul\":12725:12731   */\n              dup3\n                /* \"#utility.yul\":12721:12735   */\n              add\n                /* \"#utility.yul\":12714:12754   */\n              mstore\n                /* \"#utility.yul\":12597:12761   */\n              pop\n              jump\t// out\n                /* \"#utility.yul\":12767:13133   */\n            tag_216:\n                /* \"#utility.yul\":12909:12912   */\n              0x00\n                /* \"#utility.yul\":12930:12997   */\n              tag_351\n                /* \"#utility.yul\":12994:12996   */\n              0x0e\n                /* \"#utility.yul\":12989:12992   */\n              dup4\n                /* \"#utility.yul\":12930:12997   */\n              tag_203\n              jump\t// in\n            tag_351:\n                /* \"#utility.yul\":12923:12997   */\n              swap2\n              pop\n                /* \"#utility.yul\":13006:13099   */\n              tag_352\n                /* \"#utility.yul\":13095:13098   */\n              dup3\n                /* \"#utility.yul\":13006:13099   */\n              tag_215\n              jump\t// in\n            tag_352:\n                /* \"#utility.yul\":13124:13126   */\n              0x20\n                /* \"#utility.yul\":13119:13122   */\n              dup3\n                /* \"#utility.yul\":13115:13127   */\n              add\n                /* \"#utility.yul\":13108:13127   */\n              swap1\n              pop\n                /* \"#utility.yul\":12767:13133   */\n              swap2\n              swap1\n              pop\n              jump\t// out\n                /* \"#utility.yul\":13139:13558   */\n            tag_132:\n                /* \"#utility.yul\":13305:13309   */\n              0x00\n                /* \"#utility.yul\":13343:13345   */\n              0x20\n                /* \"#utility.yul\":13332:13341   */\n              dup3\n                /* \"#utility.yul\":13328:13346   */\n              add\n                /* \"#utility.yul\":13320:13346   */\n              swap1\n              pop\n                /* \"#utility.yul\":13392:13401   */\n              dup2\n                /* \"#utility.yul\":13386:13390   */\n              dup2\n                /* \"#utility.yul\":13382:13402   */\n              sub\n                /* \"#utility.yul\":13378:13379   */\n              0x00\n                /* \"#utility.yul\":13367:13376   */\n              dup4\n                /* \"#utility.yul\":13363:13380   */\n              add\n                /* \"#utility.yul\":13356:13403   */\n              mstore\n                /* \"#utility.yul\":13420:13551   */\n              tag_354\n                /* \"#utility.yul\":13546:13550   */\n              dup2\n                /* \"#utility.yul\":13420:13551   */\n              tag_216\n              jump\t// in\n            tag_354:\n                /* \"#utility.yul\":13412:13551   */\n              swap1\n              pop\n                /* \"#utility.yul\":13139:13558   */\n              swap2\n              swap1\n              pop\n              jump\t// out\n                /* \"#utility.yul\":13564:13744   */\n            tag_135:\n                /* \"#utility.yul\":13612:13689   */\n              0x4e487b7100000000000000000000000000000000000000000000000000000000\n                /* \"#utility.yul\":13609:13610   */\n              0x00\n                /* \"#utility.yul\":13602:13690   */\n              mstore\n                /* \"#utility.yul\":13709:13713   */\n              0x32\n                /* \"#utility.yul\":13706:13707   */\n              0x04\n                /* \"#utility.yul\":13699:13714   */\n              mstore\n                /* \"#utility.yul\":13733:13737   */\n              0x24\n                /* \"#utility.yul\":13730:13731   */\n              0x00\n                /* \"#utility.yul\":13723:13738   */\n              revert\n                /* \"#utility.yul\":13750:13911   */\n            tag_217:\n                /* \"#utility.yul\":13890:13903   */\n              0x4e6f7420616c6c6f776564000000000000000000000000000000000000000000\n                /* \"#utility.yul\":13886:13887   */\n              0x00\n                /* \"#utility.yul\":13878:13884   */\n              dup3\n                /* \"#utility.yul\":13874:13888   */\n              add\n                /* \"#utility.yul\":13867:13904   */\n              mstore\n                /* \"#utility.yul\":13750:13911   */\n              pop\n              jump\t// out\n                /* \"#utility.yul\":13917:14283   */\n            tag_218:\n                /* \"#utility.yul\":14059:14062   */\n              0x00\n                /* \"#utility.yul\":14080:14147   */\n              tag_358\n                /* \"#utility.yul\":14144:14146   */\n              0x0b\n                /* \"#utility.yul\":14139:14142   */\n              dup4\n                /* \"#utility.yul\":14080:14147   */\n              tag_203\n              jump\t// in\n            tag_358:\n                /* \"#utility.yul\":14073:14147   */\n              swap2\n              pop\n                /* \"#utility.yul\":14156:14249   */\n              tag_359\n                /* \"#utility.yul\":14245:14248   */\n              dup3\n                /* \"#utility.yul\":14156:14249   */\n              tag_217\n              jump\t// in\n            tag_359:\n                /* \"#utility.yul\":14274:14276   */\n              0x20\n                /* \"#utility.yul\":14269:14272   */\n              dup3\n                /* \"#utility.yul\":14265:14277   */\n              add\n                /* \"#utility.yul\":14258:14277   */\n              swap1\n              pop\n                /* \"#utility.yul\":13917:14283   */\n              swap2\n              swap1\n              pop\n              jump\t// out\n                /* \"#utility.yul\":14289:14708   */\n            tag_146:\n                /* \"#utility.yul\":14455:14459   */\n              0x00\n                /* \"#utility.yul\":14493:14495   */\n              0x20\n                /* \"#utility.yul\":14482:14491   */\n              dup3\n                /* \"#utility.yul\":14478:14496   */\n              add\n                /* \"#utility.yul\":14470:14496   */\n              swap1\n              pop\n                /* \"#utility.yul\":14542:14551   */\n              dup2\n                /* \"#utility.yul\":14536:14540   */\n              dup2\n                /* \"#utility.yul\":14532:14552   */\n              sub\n                /* \"#utility.yul\":14528:14529   */\n              0x00\n                /* \"#utility.yul\":14517:14526   */\n              dup4\n                /* \"#utility.yul\":14513:14530   */\n              add\n                /* \"#utility.yul\":14506:14553   */\n              mstore\n                /* \"#utility.yul\":14570:14701   */\n              tag_361\n                /* \"#utility.yul\":14696:14700   */\n              dup2\n                /* \"#utility.yul\":14570:14701   */\n              tag_218\n              jump\t// in\n            tag_361:\n                /* \"#utility.yul\":14562:14701   */\n              swap1\n              pop\n                /* \"#utility.yul\":14289:14708   */\n              swap2\n              swap1\n              pop\n              jump\t// out\n                /* \"#utility.yul\":14714:14877   */\n            tag_219:\n                /* \"#utility.yul\":14854:14869   */\n              0x416c726561647920766f74656400000000000000000000000000000000000000\n                /* \"#utility.yul\":14850:14851   */\n              0x00\n                /* \"#utility.yul\":14842:14848   */\n              dup3\n                /* \"#utility.yul\":14838:14852   */\n              add\n                /* \"#utility.yul\":14831:14870   */\n              mstore\n                /* \"#utility.yul\":14714:14877   */\n              pop\n              jump\t// out\n                /* \"#utility.yul\":14883:15249   */\n            tag_220:\n                /* \"#utility.yul\":15025:15028   */\n              0x00\n                /* \"#utility.yul\":15046:15113   */\n              tag_364\n                /* \"#utility.yul\":15110:15112   */\n              0x0d\n                /* \"#utility.yul\":15105:15108   */\n              dup4\n                /* \"#utility.yul\":15046:15113   */\n              tag_203\n              jump\t// in\n            tag_364:\n                /* \"#utility.yul\":15039:15113   */\n              swap2\n              pop\n                /* \"#utility.yul\":15122:15215   */\n              tag_365\n                /* \"#utility.yul\":15211:15214   */\n              dup3\n                /* \"#utility.yul\":15122:15215   */\n              tag_219\n              jump\t// in\n            tag_365:\n                /* \"#utility.yul\":15240:15242   */\n              0x20\n                /* \"#utility.yul\":15235:15238   */\n              dup3\n                /* \"#utility.yul\":15231:15243   */\n              add\n                /* \"#utility.yul\":15224:15243   */\n              swap1\n              pop\n                /* \"#utility.yul\":14883:15249   */\n              swap2\n              swap1\n              pop\n              jump\t// out\n                /* \"#utility.yul\":15255:15674   */\n            tag_149:\n                /* \"#utility.yul\":15421:15425   */\n              0x00\n                /* \"#utility.yul\":15459:15461   */\n              0x20\n                /* \"#utility.yul\":15448:15457   */\n              dup3\n                /* \"#utility.yul\":15444:15462   */\n              add\n                /* \"#utility.yul\":15436:15462   */\n              swap1\n              pop\n                /* \"#utility.yul\":15508:15517   */\n              dup2\n                /* \"#utility.yul\":15502:15506   */\n              dup2\n                /* \"#utility.yul\":15498:15518   */\n              sub\n                /* \"#utility.yul\":15494:15495   */\n              0x00\n                /* \"#utility.yul\":15483:15492   */\n              dup4\n                /* \"#utility.yul\":15479:15496   */\n              add\n                /* \"#utility.yul\":15472:15519   */\n              mstore\n                /* \"#utility.yul\":15536:15667   */\n              tag_367\n                /* \"#utility.yul\":15662:15666   */\n              dup2\n                /* \"#utility.yul\":15536:15667   */\n              tag_220\n              jump\t// in\n            tag_367:\n                /* \"#utility.yul\":15528:15667   */\n              swap1\n              pop\n                /* \"#utility.yul\":15255:15674   */\n              swap2\n              swap1\n              pop\n              jump\t// out\n                /* \"#utility.yul\":15680:15839   */\n            tag_221:\n                /* \"#utility.yul\":15820:15831   */\n              0x436f6d706c657465640000000000000000000000000000000000000000000000\n                /* \"#utility.yul\":15816:15817   */\n              0x00\n                /* \"#utility.yul\":15808:15814   */\n              dup3\n                /* \"#utility.yul\":15804:15818   */\n              add\n                /* \"#utility.yul\":15797:15832   */\n              mstore\n                /* \"#utility.yul\":15680:15839   */\n              pop\n              jump\t// out\n                /* \"#utility.yul\":15845:16210   */\n            tag_222:\n                /* \"#utility.yul\":15987:15990   */\n              0x00\n                /* \"#utility.yul\":16008:16074   */\n              tag_370\n                /* \"#utility.yul\":16072:16073   */\n              0x09\n                /* \"#utility.yul\":16067:16070   */\n              dup4\n                /* \"#utility.yul\":16008:16074   */\n              tag_203\n              jump\t// in\n            tag_370:\n                /* \"#utility.yul\":16001:16074   */\n              swap2\n              pop\n                /* \"#utility.yul\":16083:16176   */\n              tag_371\n                /* \"#utility.yul\":16172:16175   */\n              dup3\n                /* \"#utility.yul\":16083:16176   */\n              tag_221\n              jump\t// in\n            tag_371:\n                /* \"#utility.yul\":16201:16203   */\n              0x20\n                /* \"#utility.yul\":16196:16199   */\n              dup3\n                /* \"#utility.yul\":16192:16204   */\n              add\n                /* \"#utility.yul\":16185:16204   */\n              swap1\n              pop\n                /* \"#utility.yul\":15845:16210   */\n              swap2\n              swap1\n              pop\n              jump\t// out\n                /* \"#utility.yul\":16216:16635   */\n            tag_152:\n                /* \"#utility.yul\":16382:16386   */\n              0x00\n                /* \"#utility.yul\":16420:16422   */\n              0x20\n                /* \"#utility.yul\":16409:16418   */\n              dup3\n                /* \"#utility.yul\":16405:16423   */\n              add\n                /* \"#utility.yul\":16397:16423   */\n              swap1\n              pop\n                /* \"#utility.yul\":16469:16478   */\n              dup2\n                /* \"#utility.yul\":16463:16467   */\n              dup2\n                /* \"#utility.yul\":16459:16479   */\n              sub\n                /* \"#utility.yul\":16455:16456   */\n              0x00\n                /* \"#utility.yul\":16444:16453   */\n              dup4\n                /* \"#utility.yul\":16440:16457   */\n              add\n                /* \"#utility.yul\":16433:16480   */\n              mstore\n                /* \"#utility.yul\":16497:16628   */\n              tag_373\n                /* \"#utility.yul\":16623:16627   */\n              dup2\n                /* \"#utility.yul\":16497:16628   */\n              tag_222\n              jump\t// in\n            tag_373:\n                /* \"#utility.yul\":16489:16628   */\n              swap1\n              pop\n                /* \"#utility.yul\":16216:16635   */\n              swap2\n              swap1\n              pop\n              jump\t// out\n                /* \"#utility.yul\":16641:16803   */\n            tag_223:\n                /* \"#utility.yul\":16781:16795   */\n              0x496e76616c69642074696d650000000000000000000000000000000000000000\n                /* \"#utility.yul\":16777:16778   */\n              0x00\n                /* \"#utility.yul\":16769:16775   */\n              dup3\n                /* \"#utility.yul\":16765:16779   */\n              add\n                /* \"#utility.yul\":16758:16796   */\n              mstore\n                /* \"#utility.yul\":16641:16803   */\n              pop\n              jump\t// out\n                /* \"#utility.yul\":16809:17175   */\n            tag_224:\n                /* \"#utility.yul\":16951:16954   */\n              0x00\n                /* \"#utility.yul\":16972:17039   */\n              tag_376\n                /* \"#utility.yul\":17036:17038   */\n              0x0c\n                /* \"#utility.yul\":17031:17034   */\n              dup4\n                /* \"#utility.yul\":16972:17039   */\n              tag_203\n              jump\t// in\n            tag_376:\n                /* \"#utility.yul\":16965:17039   */\n              swap2\n              pop\n                /* \"#utility.yul\":17048:17141   */\n              tag_377\n                /* \"#utility.yul\":17137:17140   */\n              dup3\n                /* \"#utility.yul\":17048:17141   */\n              tag_223\n              jump\t// in\n            tag_377:\n                /* \"#utility.yul\":17166:17168   */\n              0x20\n                /* \"#utility.yul\":17161:17164   */\n              dup3\n                /* \"#utility.yul\":17157:17169   */\n              add\n                /* \"#utility.yul\":17150:17169   */\n              swap1\n              pop\n                /* \"#utility.yul\":16809:17175   */\n              swap2\n              swap1\n              pop\n              jump\t// out\n                /* \"#utility.yul\":17181:17600   */\n            tag_156:\n                /* \"#utility.yul\":17347:17351   */\n              0x00\n                /* \"#utility.yul\":17385:17387   */\n              0x20\n                /* \"#utility.yul\":17374:17383   */\n              dup3\n                /* \"#utility.yul\":17370:17388   */\n              add\n                /* \"#utility.yul\":17362:17388   */\n              swap1\n              pop\n                /* \"#utility.yul\":17434:17443   */\n              dup2\n                /* \"#utility.yul\":17428:17432   */\n              dup2\n                /* \"#utility.yul\":17424:17444   */\n              sub\n                /* \"#utility.yul\":17420:17421   */\n              0x00\n                /* \"#utility.yul\":17409:17418   */\n              dup4\n                /* \"#utility.yul\":17405:17422   */\n              add\n                /* \"#utility.yul\":17398:17445   */\n              mstore\n                /* \"#utility.yul\":17462:17593   */\n              tag_379\n                /* \"#utility.yul\":17588:17592   */\n              dup2\n                /* \"#utility.yul\":17462:17593   */\n              tag_224\n              jump\t// in\n            tag_379:\n                /* \"#utility.yul\":17454:17593   */\n              swap1\n              pop\n                /* \"#utility.yul\":17181:17600   */\n              swap2\n              swap1\n              pop\n              jump\t// out\n                /* \"#utility.yul\":17606:17930   */\n            tag_160:\n                /* \"#utility.yul\":17723:17727   */\n              0x00\n                /* \"#utility.yul\":17761:17763   */\n              0x40\n                /* \"#utility.yul\":17750:17759   */\n              dup3\n                /* \"#utility.yul\":17746:17764   */\n              add\n                /* \"#utility.yul\":17738:17764   */\n              swap1\n              pop\n                /* \"#utility.yul\":17774:17845   */\n              tag_381\n                /* \"#utility.yul\":17842:17843   */\n              0x00\n                /* \"#utility.yul\":17831:17840   */\n              dup4\n                /* \"#utility.yul\":17827:17844   */\n              add\n                /* \"#utility.yul\":17818:17824   */\n              dup6\n                /* \"#utility.yul\":17774:17845   */\n              tag_202\n              jump\t// in\n            tag_381:\n                /* \"#utility.yul\":17855:17923   */\n              tag_382\n                /* \"#utility.yul\":17919:17921   */\n              0x20\n                /* \"#utility.yul\":17908:17917   */\n              dup4\n                /* \"#utility.yul\":17904:17922   */\n              add\n                /* \"#utility.yul\":17895:17901   */\n              dup5\n                /* \"#utility.yul\":17855:17923   */\n              tag_195\n              jump\t// in\n            tag_382:\n                /* \"#utility.yul\":17606:17930   */\n              swap4\n              swap3\n              pop\n              pop\n              pop\n              jump\t// out\n                /* \"#utility.yul\":17936:18099   */\n            tag_225:\n                /* \"#utility.yul\":18076:18091   */\n              0x416c726561647920616464656400000000000000000000000000000000000000\n                /* \"#utility.yul\":18072:18073   */\n              0x00\n                /* \"#utility.yul\":18064:18070   */\n              dup3\n                /* \"#utility.yul\":18060:18074   */\n              add\n                /* \"#utility.yul\":18053:18092   */\n              mstore\n                /* \"#utility.yul\":17936:18099   */\n              pop\n              jump\t// out\n                /* \"#utility.yul\":18105:18471   */\n            tag_226:\n                /* \"#utility.yul\":18247:18250   */\n              0x00\n                /* \"#utility.yul\":18268:18335   */\n              tag_385\n                /* \"#utility.yul\":18332:18334   */\n              0x0d\n                /* \"#utility.yul\":18327:18330   */\n              dup4\n                /* \"#utility.yul\":18268:18335   */\n              tag_203\n              jump\t// in\n            tag_385:\n                /* \"#utility.yul\":18261:18335   */\n              swap2\n              pop\n                /* \"#utility.yul\":18344:18437   */\n              tag_386\n                /* \"#utility.yul\":18433:18436   */\n              dup3\n                /* \"#utility.yul\":18344:18437   */\n              tag_225\n              jump\t// in\n            tag_386:\n                /* \"#utility.yul\":18462:18464   */\n              0x20\n                /* \"#utility.yul\":18457:18460   */\n              dup3\n                /* \"#utility.yul\":18453:18465   */\n              add\n                /* \"#utility.yul\":18446:18465   */\n              swap1\n              pop\n                /* \"#utility.yul\":18105:18471   */\n              swap2\n              swap1\n              pop\n              jump\t// out\n                /* \"#utility.yul\":18477:18896   */\n            tag_174:\n                /* \"#utility.yul\":18643:18647   */\n              0x00\n                /* \"#utility.yul\":18681:18683   */\n              0x20\n                /* \"#utility.yul\":18670:18679   */\n              dup3\n                /* \"#utility.yul\":18666:18684   */\n              add\n                /* \"#utility.yul\":18658:18684   */\n              swap1\n              pop\n                /* \"#utility.yul\":18730:18739   */\n              dup2\n                /* \"#utility.yul\":18724:18728   */\n              dup2\n                /* \"#utility.yul\":18720:18740   */\n              sub\n                /* \"#utility.yul\":18716:18717   */\n              0x00\n                /* \"#utility.yul\":18705:18714   */\n              dup4\n                /* \"#utility.yul\":18701:18718   */\n              add\n                /* \"#utility.yul\":18694:18741   */\n              mstore\n                /* \"#utility.yul\":18758:18889   */\n              tag_388\n                /* \"#utility.yul\":18884:18888   */\n              dup2\n                /* \"#utility.yul\":18758:18889   */\n              tag_226\n              jump\t// in\n            tag_388:\n                /* \"#utility.yul\":18750:18889   */\n              swap1\n              pop\n                /* \"#utility.yul\":18477:18896   */\n              swap2\n              swap1\n              pop\n              jump\t// out\n\n            auxdata: 0xa26469706673582212200702ace8f4561b9078c90880848d62c555994c7bb6d849e48058a0d68685654f64736f6c63430008120033\n        }\n    }\n\n    auxdata: 0xa264697066735822122083a9718a28386aeb87f87fd58eb39c6275fd010579d686e0f767352fc357e70464736f6c63430008120033\n}\n","bytecode":{"linkReferences":{},"object":"608060405234801561001057600080fd5b50612c2f806100206000396000f3fe60806040523480156200001157600080fd5b5060043610620000465760003560e01c8063298f37ab146200004b5780633e04b5781462000081578063d9b6ae2314620000a3575b600080fd5b62000069600480360381019062000063919062000299565b620000c3565b60405162000078919062000310565b60405180910390f35b6200008b62000103565b6040516200009a9190620003fb565b60405180910390f35b620000c16004803603810190620000bb9190620006be565b62000193565b005b60008181548110620000d457600080fd5b906000526020600020016000915054906101000a900473ffffffffffffffffffffffffffffffffffffffff1681565b606060008054806020026020016040519081016040528092919081815260200182805480156200018957602002820191906000526020600020905b8160009054906101000a900473ffffffffffffffffffffffffffffffffffffffff1673ffffffffffffffffffffffffffffffffffffffff16815260200190600101908083116200013e575b5050505050905090565b60008484848433604051620001a8906200023c565b620001b89594939291906200092a565b604051809103906000f080158015620001d5573d6000803e3d6000fd5b509080600181540180825580915050600190039060005260206000200160009091909190916101000a81548173ffffffffffffffffffffffffffffffffffffffff021916908373ffffffffffffffffffffffffffffffffffffffff16021790555050505050565b612264806200099683390190565b6000604051905090565b600080fd5b600080fd5b6000819050919050565b62000273816200025e565b81146200027f57600080fd5b50565b600081359050620002938162000268565b92915050565b600060208284031215620002b257620002b162000254565b5b6000620002c28482850162000282565b91505092915050565b600073ffffffffffffffffffffffffffffffffffffffff82169050919050565b6000620002f882620002cb565b9050919050565b6200030a81620002eb565b82525050565b6000602082019050620003276000830184620002ff565b92915050565b600081519050919050565b600082825260208201905092915050565b6000819050602082019050919050565b6200036481620002eb565b82525050565b600062000378838362000359565b60208301905092915050565b6000602082019050919050565b60006200039e826200032d565b620003aa818562000338565b9350620003b78362000349565b8060005b83811015620003ee578151620003d288826200036a565b9750620003df8362000384565b925050600181019050620003bb565b5085935050505092915050565b6000602082019050818103600083015262000417818462000391565b905092915050565b600080fd5b600080fd5b6000601f19601f8301169050919050565b7f4e487b7100000000000000000000000000000000000000000000000000000000600052604160045260246000fd5b620004748262000429565b810181811067ffffffffffffffff821117156200049657620004956200043a565b5b80604052505050565b6000620004ab6200024a565b9050620004b9828262000469565b919050565b600067ffffffffffffffff821115620004dc57620004db6200043a565b5b620004e78262000429565b9050602081019050919050565b82818337600083830152505050565b60006200051a6200051484620004be565b6200049f565b90508281526020810184848401111562000539576200053862000424565b5b62000546848285620004f4565b509392505050565b600082601f8301126200056657620005656200041f565b5b81356200057884826020860162000503565b91505092915050565b600067ffffffffffffffff8211156200059f576200059e6200043a565b5b602082029050602081019050919050565b600080fd5b6000620005cc620005c68462000581565b6200049f565b90508083825260208201905060208402830185811115620005f257620005f1620005b0565b5b835b818110156200064057803567ffffffffffffffff8111156200061b576200061a6200041f565b5b8086016200062a89826200054e565b85526020850194505050602081019050620005f4565b5050509392505050565b600082601f8301126200066257620006616200041f565b5b813562000674848260208601620005b5565b91505092915050565b600063ffffffff82169050919050565b62000698816200067d565b8114620006a457600080fd5b50565b600081359050620006b8816200068d565b92915050565b60008060008060808587031215620006db57620006da62000254565b5b600085013567ffffffffffffffff811115620006fc57620006fb62000259565b5b6200070a878288016200054e565b945050602085013567ffffffffffffffff8111156200072e576200072d62000259565b5b6200073c878288016200064a565b93505060406200074f87828801620006a7565b92505060606200076287828801620006a7565b91505092959194509250565b600081519050919050565b600082825260208201905092915050565b60005b83811015620007aa5780820151818401526020810190506200078d565b60008484015250505050565b6000620007c3826200076e565b620007cf818562000779565b9350620007e18185602086016200078a565b620007ec8162000429565b840191505092915050565b600081519050919050565b600082825260208201905092915050565b6000819050602082019050919050565b600082825260208201905092915050565b600062000841826200076e565b6200084d818562000823565b93506200085f8185602086016200078a565b6200086a8162000429565b840191505092915050565b600062000883838362000834565b905092915050565b6000602082019050919050565b6000620008a582620007f7565b620008b1818562000802565b935083602082028501620008c58562000813565b8060005b85811015620009075784840389528151620008e5858262000875565b9450620008f2836200088b565b925060208a01995050600181019050620008c9565b50829750879550505050505092915050565b62000924816200067d565b82525050565b600060a0820190508181036000830152620009468188620007b6565b905081810360208301526200095c818762000898565b90506200096d604083018662000919565b6200097c606083018562000919565b6200098b6080830184620002ff565b969550505050505056fe60806040523480156200001157600080fd5b50604051620022643803806200226483398181016040528101906200003791906200052d565b806000806101000a81548173ffffffffffffffffffffffffffffffffffffffff021916908373ffffffffffffffffffffffffffffffffffffffff16021790555084600290816200008891906200083e565b508360039080519060200190620000a19291906200010b565b508351600060146101000a81548160ff021916908360ff16021790555082600060166101000a81548163ffffffff021916908363ffffffff160217905550816000601a6101000a81548163ffffffff021916908363ffffffff160217905550505050505062000925565b82805482825590600052602060002090810192821562000158579160200282015b82811115620001575782518290816200014691906200083e565b50916020019190600101906200012c565b5b5090506200016791906200016b565b5090565b5b808211156200018f576000818162000185919062000193565b506001016200016c565b5090565b508054620001a1906200062d565b6000825580601f10620001b55750620001d6565b601f016020900490600052602060002090810190620001d59190620001d9565b5b50565b5b80821115620001f4576000816000905550600101620001da565b5090565b6000604051905090565b600080fd5b600080fd5b600080fd5b600080fd5b6000601f19601f8301169050919050565b7f4e487b7100000000000000000000000000000000000000000000000000000000600052604160045260246000fd5b620002618262000216565b810181811067ffffffffffffffff8211171562000283576200028262000227565b5b80604052505050565b600062000298620001f8565b9050620002a6828262000256565b919050565b600067ffffffffffffffff821115620002c957620002c862000227565b5b620002d48262000216565b9050602081019050919050565b60005b8381101562000301578082015181840152602081019050620002e4565b60008484015250505050565b6000620003246200031e84620002ab565b6200028c565b90508281526020810184848401111562000343576200034262000211565b5b62000350848285620002e1565b509392505050565b600082601f83011262000370576200036f6200020c565b5b8151620003828482602086016200030d565b91505092915050565b600067ffffffffffffffff821115620003a957620003a862000227565b5b602082029050602081019050919050565b600080fd5b6000620003d6620003d0846200038b565b6200028c565b90508083825260208201905060208402830185811115620003fc57620003fb620003ba565b5b835b818110156200044a57805167ffffffffffffffff8111156200042557620004246200020c565b5b80860162000434898262000358565b85526020850194505050602081019050620003fe565b5050509392505050565b600082601f8301126200046c576200046b6200020c565b5b81516200047e848260208601620003bf565b91505092915050565b600063ffffffff82169050919050565b620004a28162000487565b8114620004ae57600080fd5b50565b600081519050620004c28162000497565b92915050565b600073ffffffffffffffffffffffffffffffffffffffff82169050919050565b6000620004f582620004c8565b9050919050565b6200050781620004e8565b81146200051357600080fd5b50565b6000815190506200052781620004fc565b92915050565b600080600080600060a086880312156200054c576200054b62000202565b5b600086015167ffffffffffffffff8111156200056d576200056c62000207565b5b6200057b8882890162000358565b955050602086015167ffffffffffffffff8111156200059f576200059e62000207565b5b620005ad8882890162000454565b9450506040620005c088828901620004b1565b9350506060620005d388828901620004b1565b9250506080620005e68882890162000516565b9150509295509295909350565b600081519050919050565b7f4e487b7100000000000000000000000000000000000000000000000000000000600052602260045260246000fd5b600060028204905060018216806200064657607f821691505b6020821081036200065c576200065b620005fe565b5b50919050565b60008190508160005260206000209050919050565b60006020601f8301049050919050565b600082821b905092915050565b600060088302620006c67fffffffffffffffffffffffffffffffffffffffffffffffffffffffffffffffff8262000687565b620006d2868362000687565b95508019841693508086168417925050509392505050565b6000819050919050565b6000819050919050565b60006200071f620007196200071384620006ea565b620006f4565b620006ea565b9050919050565b6000819050919050565b6200073b83620006fe565b620007536200074a8262000726565b84845462000694565b825550505050565b600090565b6200076a6200075b565b6200077781848462000730565b505050565b5b818110156200079f576200079360008262000760565b6001810190506200077d565b5050565b601f821115620007ee57620007b88162000662565b620007c38462000677565b81016020851015620007d3578190505b620007eb620007e28562000677565b8301826200077c565b50505b505050565b600082821c905092915050565b60006200081360001984600802620007f3565b1980831691505092915050565b60006200082e838362000800565b9150826002028217905092915050565b6200084982620005f3565b67ffffffffffffffff81111562000865576200086462000227565b5b6200087182546200062d565b6200087e828285620007a3565b600060209050601f831160018114620008b65760008415620008a1578287015190505b620008ad858262000820565b8655506200091d565b601f198416620008c68662000662565b60005b82811015620008f057848901518255600182019150602085019450602081019050620008c9565b868310156200091057848901516200090c601f89168262000800565b8355505b6001600288020188555050505b505050505050565b61192f80620009356000396000f3fe608060405234801561001057600080fd5b50600436106101215760003560e01c806370babc8a116100ad578063a944b7a611610071578063a944b7a614610316578063b3f98adc14610334578063c24a0f8b14610350578063efc4afe71461036e578063f4ab9adf1461039e57610121565b806370babc8a1461025c57806378622c5d1461027a5780638953bb72146102985780639d9a7fe9146102c8578063a3d45314146102e657610121565b8063481c6a75116100f4578063481c6a75146101c25780634a79d50c146101e05780634e69d560146101fe578063522e11771461022257806364e131251461022c57610121565b8063131ff76e1461012657806313b0ba19146101445780631632c03f14610174578063255adfd414610192575b600080fd5b61012e6103ba565b60405161013b9190611154565b60405180910390f35b61015e600480360381019061015991906111b4565b610493565b60405161016b9190611200565b60405180910390f35b61017c6104b6565b604051610189919061122a565b60405180910390f35b6101ac60048036038101906101a791906112a3565b6104c9565b6040516101b991906112eb565b60405180910390f35b6101ca6104e9565b6040516101d79190611315565b60405180910390f35b6101e861050d565b6040516101f5919061137a565b60405180910390f35b61020661059b565b604051610219979695949392919061139c565b60405180910390f35b61022a6106c5565b005b610246600480360381019061024191906111b4565b610846565b604051610253919061137a565b60405180910390f35b610264610950565b6040516102719190611200565b60405180910390f35b610282610966565b60405161028f9190611200565b60405180910390f35b6102b260048036038101906102ad91906111b4565b61097c565b6040516102bf9190611200565b60405180910390f35b6102d06109af565b6040516102dd91906112eb565b60405180910390f35b61030060048036038101906102fb91906112a3565b6109c2565b60405161030d91906112eb565b60405180910390f35b61031e6109e2565b60405161032b9190611200565b60405180910390f35b61034e600480360381019061034991906111b4565b6109f8565b005b610358610d58565b6040516103659190611200565b60405180910390f35b61038860048036038101906103839190611448565b610d6e565b604051610395919061137a565b60405180910390f35b6103b860048036038101906103b391906112a3565b610e1a565b005b60606003805480602002602001604051908101604052809291908181526020016000905b8282101561048a5783829060005260206000200180546103fd906114a4565b80601f0160208091040260200160405190810160405280929190818152602001828054610429906114a4565b80156104765780601f1061044b57610100808354040283529160200191610476565b820191906000526020600020905b81548152906001019060200180831161045957829003601f168201915b5050505050815260200190600101906103de565b50505050905090565b60066020528060005260406000206000915054906101000a900463ffffffff1681565b600060149054906101000a900460ff1681565b60056020528060005260406000206000915054906101000a900460ff1681565b60008054906101000a900473ffffffffffffffffffffffffffffffffffffffff1681565b6002805461051a906114a4565b80601f0160208091040260200160405190810160405280929190818152602001828054610546906114a4565b80156105935780601f1061056857610100808354040283529160200191610593565b820191906000526020600020905b81548152906001019060200180831161057657829003601f168201915b505050505081565b600080600080600080606060008054906101000a900473ffffffffffffffffffffffffffffffffffffffff16600060149054906101000a900460ff16600060169054906101000a900463ffffffff166000601a9054906101000a900463ffffffff16600060159054906101000a900460ff16600160009054906101000a900463ffffffff16600280805461062e906114a4565b80601f016020809104026020016040519081016040528092919081815260200182805461065a906114a4565b80156106a75780601f1061067c576101008083540402835291602001916106a7565b820191906000526020600020905b81548152906001019060200180831161068a57829003601f168201915b50505050509050965096509650965096509650965090919293949596565b60008054906101000a900473ffffffffffffffffffffffffffffffffffffffff1673ffffffffffffffffffffffffffffffffffffffff163373ffffffffffffffffffffffffffffffffffffffff1614610753576040517f08c379a000000000000000000000000000000000000000000000000000000000815260040161074a90611521565b60405180910390fd5b600060159054906101000a900460ff16156107a3576040517f08c379a000000000000000000000000000000000000000000000000000000000815260040161079a9061158d565b60405180910390fd5b6000601a9054906101000a900463ffffffff1663ffffffff1642116107fd576040517f08c379a00000000000000000000000000000000000000000000000000000000081526004016107f4906115f9565b60405180910390fd5b6001600060156101000a81548160ff0219169083151502179055507ffa4c46064339896f4ef55eeac982a9e8bd0dbebe83ed7978cf168fa14f679f7060405160405180910390a1565b6060600060149054906101000a900460ff1660ff168260ff161061089f576040517f08c379a000000000000000000000000000000000000000000000000000000000815260040161089690611665565b60405180910390fd5b60038260ff16815481106108b6576108b5611685565b5b9060005260206000200180546108cb906114a4565b80601f01602080910402602001604051908101604052809291908181526020018280546108f7906114a4565b80156109445780601f1061091957610100808354040283529160200191610944565b820191906000526020600020905b81548152906001019060200180831161092757829003601f168201915b50505050509050919050565b600160049054906101000a900463ffffffff1681565b600160009054906101000a900463ffffffff1681565b6000600660008360ff1660ff16815260200190815260200160002060009054906101000a900463ffffffff169050919050565b600060159054906101000a900460ff1681565b60046020528060005260406000206000915054906101000a900460ff1681565b600060169054906101000a900463ffffffff1681565b600560003373ffffffffffffffffffffffffffffffffffffffff1673ffffffffffffffffffffffffffffffffffffffff16815260200190815260200160002060009054906101000a900460ff16610a84576040517f08c379a0000000000000000000000000000000000000000000000000000000008152600401610a7b90611700565b60405180910390fd5b600460003373ffffffffffffffffffffffffffffffffffffffff1673ffffffffffffffffffffffffffffffffffffffff16815260200190815260200160002060009054906101000a900460ff1615610b11576040517f08c379a0000000000000000000000000000000000000000000000000000000008152600401610b089061176c565b60405180910390fd5b600060159054906101000a900460ff1615610b61576040517f08c379a0000000000000000000000000000000000000000000000000000000008152600401610b58906117d8565b60405180910390fd5b600060169054906101000a900463ffffffff1663ffffffff164210158015610ba157506000601a9054906101000a900463ffffffff1663ffffffff164211155b610be0576040517f08c379a0000000000000000000000000000000000000000000000000000000008152600401610bd790611844565b60405180910390fd5b600060149054906101000a900460ff1660ff168160ff1610610c37576040517f08c379a0000000000000000000000000000000000000000000000000000000008152600401610c2e90611665565b60405180910390fd5b6001600460003373ffffffffffffffffffffffffffffffffffffffff1673ffffffffffffffffffffffffffffffffffffffff16815260200190815260200160002060006101000a81548160ff021916908315150217905550600660008260ff1660ff168152602001908152602001600020600081819054906101000a900463ffffffff168092919060010191906101000a81548163ffffffff021916908363ffffffff160217905550506001600081819054906101000a900463ffffffff168092919060010191906101000a81548163ffffffff021916908363ffffffff160217905550507fefffa0c001f10a86d936643c098510eba656ffab1d0c5165822b79d4c895e88f3382604051610d4d929190611864565b60405180910390a150565b6000601a9054906101000a900463ffffffff1681565b60038181548110610d7e57600080fd5b906000526020600020016000915090508054610d99906114a4565b80601f0160208091040260200160405190810160405280929190818152602001828054610dc5906114a4565b8015610e125780601f10610de757610100808354040283529160200191610e12565b820191906000526020600020905b815481529060010190602001808311610df557829003601f168201915b505050505081565b60008054906101000a900473ffffffffffffffffffffffffffffffffffffffff1673ffffffffffffffffffffffffffffffffffffffff163373ffffffffffffffffffffffffffffffffffffffff1614610ea8576040517f08c379a0000000000000000000000000000000000000000000000000000000008152600401610e9f90611521565b60405180910390fd5b600560008273ffffffffffffffffffffffffffffffffffffffff1673ffffffffffffffffffffffffffffffffffffffff16815260200190815260200160002060009054906101000a900460ff1615610f35576040517f08c379a0000000000000000000000000000000000000000000000000000000008152600401610f2c906118d9565b60405180910390fd5b6001600560008373ffffffffffffffffffffffffffffffffffffffff1673ffffffffffffffffffffffffffffffffffffffff16815260200190815260200160002060006101000a81548160ff0219169083151502179055506001600481819054906101000a900463ffffffff168092919060010191906101000a81548163ffffffff021916908363ffffffff160217905550507fa636f4a11e2d3ba7f89d042ecb0a6b886716e98cd49d8fd876ee0f73bced42b881604051610ff79190611315565b60405180910390a150565b600081519050919050565b600082825260208201905092915050565b6000819050602082019050919050565b600081519050919050565b600082825260208201905092915050565b60005b8381101561106857808201518184015260208101905061104d565b60008484015250505050565b6000601f19601f8301169050919050565b60006110908261102e565b61109a8185611039565b93506110aa81856020860161104a565b6110b381611074565b840191505092915050565b60006110ca8383611085565b905092915050565b6000602082019050919050565b60006110ea82611002565b6110f4818561100d565b9350836020820285016111068561101e565b8060005b85811015611142578484038952815161112385826110be565b945061112e836110d2565b925060208a0199505060018101905061110a565b50829750879550505050505092915050565b6000602082019050818103600083015261116e81846110df565b905092915050565b600080fd5b600060ff82169050919050565b6111918161117b565b811461119c57600080fd5b50565b6000813590506111ae81611188565b92915050565b6000602082840312156111ca576111c9611176565b5b60006111d88482850161119f565b91505092915050565b600063ffffffff82169050919050565b6111fa816111e1565b82525050565b600060208201905061121560008301846111f1565b92915050565b6112248161117b565b82525050565b600060208201905061123f600083018461121b565b92915050565b600073ffffffffffffffffffffffffffffffffffffffff82169050919050565b600061127082611245565b9050919050565b61128081611265565b811461128b57600080fd5b50565b60008135905061129d81611277565b92915050565b6000602082840312156112b9576112b8611176565b5b60006112c78482850161128e565b91505092915050565b60008115159050919050565b6112e5816112d0565b82525050565b600060208201905061130060008301846112dc565b92915050565b61130f81611265565b82525050565b600060208201905061132a6000830184611306565b92915050565b600082825260208201905092915050565b600061134c8261102e565b6113568185611330565b935061136681856020860161104a565b61136f81611074565b840191505092915050565b600060208201905081810360008301526113948184611341565b905092915050565b600060e0820190506113b1600083018a611306565b6113be602083018961121b565b6113cb60408301886111f1565b6113d860608301876111f1565b6113e560808301866112dc565b6113f260a08301856111f1565b81810360c08301526114048184611341565b905098975050505050505050565b6000819050919050565b61142581611412565b811461143057600080fd5b50565b6000813590506114428161141c565b92915050565b60006020828403121561145e5761145d611176565b5b600061146c84828501611433565b91505092915050565b7f4e487b7100000000000000000000000000000000000000000000000000000000600052602260045260246000fd5b600060028204905060018216806114bc57607f821691505b6020821081036114cf576114ce611475565b5b50919050565b7f4e6f74206d616e61676572000000000000000000000000000000000000000000600082015250565b600061150b600b83611330565b9150611516826114d5565b602082019050919050565b6000602082019050818103600083015261153a816114fe565b9050919050565b7f416c726561647920636f6d706c65746564000000000000000000000000000000600082015250565b6000611577601183611330565b915061158282611541565b602082019050919050565b600060208201905081810360008301526115a68161156a565b9050919050565b7f4e6f7420656e6465640000000000000000000000000000000000000000000000600082015250565b60006115e3600983611330565b91506115ee826115ad565b602082019050919050565b60006020820190508181036000830152611612816115d6565b9050919050565b7f496e76616c69642063686f696365000000000000000000000000000000000000600082015250565b600061164f600e83611330565b915061165a82611619565b602082019050919050565b6000602082019050818103600083015261167e81611642565b9050919050565b7f4e487b7100000000000000000000000000000000000000000000000000000000600052603260045260246000fd5b7f4e6f7420616c6c6f776564000000000000000000000000000000000000000000600082015250565b60006116ea600b83611330565b91506116f5826116b4565b602082019050919050565b60006020820190508181036000830152611719816116dd565b9050919050565b7f416c726561647920766f74656400000000000000000000000000000000000000600082015250565b6000611756600d83611330565b915061176182611720565b602082019050919050565b6000602082019050818103600083015261178581611749565b9050919050565b7f436f6d706c657465640000000000000000000000000000000000000000000000600082015250565b60006117c2600983611330565b91506117cd8261178c565b602082019050919050565b600060208201905081810360008301526117f1816117b5565b9050919050565b7f496e76616c69642074696d650000000000000000000000000000000000000000600082015250565b600061182e600c83611330565b9150611839826117f8565b602082019050919050565b6000602082019050818103600083015261185d81611821565b9050919050565b60006040820190506118796000830185611306565b611886602083018461121b565b9392505050565b7f416c726561647920616464656400000000000000000000000000000000000000600082015250565b60006118c3600d83611330565b91506118ce8261188d565b602082019050919050565b600060208201905081810360008301526118f2816118b6565b905091905056fea26469706673582212200702ace8f4561b9078c90880848d62c555994c7bb6d849e48058a0d68685654f64736f6c63430008120033a264697066735822122083a9718a28386aeb87f87fd58eb39c6275fd010579d686e0f767352fc357e70464736f6c63430008120033","opcodes":"PUSH1 0x80 PUSH1 0x40 MSTORE CALLVALUE DUP1 ISZERO PUSH2 0x10 JUMPI PUSH1 0x0 DUP1 REVERT JUMPDEST POP PUSH2 0x2C2F DUP1 PUSH2 0x20 PUSH1 0x0 CODECOPY PUSH1 0x0 RETURN INVALID PUSH1 0x80 PUSH1 0x40 MSTORE CALLVALUE DUP1 ISZERO PUSH3 0x11 JUMPI PUSH1 0x0 DUP1 REVERT JUMPDEST POP PUSH1 0x4 CALLDATASIZE LT PUSH3 0x46 JUMPI PUSH1 0x0 CALLDATALOAD PUSH1 0xE0 SHR DUP1 PUSH4 0x298F37AB EQ PUSH3 0x4B JUMPI DUP1 PUSH4 0x3E04B578 EQ PUSH3 0x81 JUMPI DUP1 PUSH4 0xD9B6AE23 EQ PUSH3 0xA3 JUMPI JUMPDEST PUSH1 0x0 DUP1 REVERT JUMPDEST PUSH3 0x69 PUSH1 0x4 DUP1 CALLDATASIZE SUB DUP2 ADD SWAP1 PUSH3 0x63 SWAP2 SWAP1 PUSH3 0x299 JUMP JUMPDEST PUSH3 0xC3 JUMP JUMPDEST PUSH1 0x40 MLOAD PUSH3 0x78 SWAP2 SWAP1 PUSH3 0x310 JUMP JUMPDEST PUSH1 0x40 MLOAD DUP1 SWAP2 SUB SWAP1 RETURN JUMPDEST PUSH3 0x8B PUSH3 0x103 JUMP JUMPDEST PUSH1 0x40 MLOAD PUSH3 0x9A SWAP2 SWAP1 PUSH3 0x3FB JUMP JUMPDEST PUSH1 0x40 MLOAD DUP1 SWAP2 SUB SWAP1 RETURN JUMPDEST PUSH3 0xC1 PUSH1 0x4 DUP1 CALLDATASIZE SUB DUP2 ADD SWAP1 PUSH3 0xBB SWAP2 SWAP1 PUSH3 0x6BE JUMP JUMPDEST PUSH3 0x193 JUMP JUMPDEST STOP JUMPDEST PUSH1 0x0 DUP2 DUP2 SLOAD DUP2 LT PUSH3 0xD4 JUMPI PUSH1 0x0 DUP1 REVERT JUMPDEST SWAP1 PUSH1 0x0 MSTORE PUSH1 0x20 PUSH1 0x0 KECCAK256 ADD PUSH1 0x0 SWAP2 POP SLOAD SWAP1 PUSH2 0x100 EXP SWAP1 DIV PUSH20 0xFFFFFFFFFFFFFFFFFFFFFFFFFFFFFFFFFFFFFFFF AND DUP2 JUMP JUMPDEST PUSH1 0x60 PUSH1 0x0 DUP1 SLOAD DUP1 PUSH1 0x20 MUL PUSH1 0x20 ADD PUSH1 0x40 MLOAD SWAP1 DUP2 ADD PUSH1 0x40 MSTORE DUP1 SWAP3 SWAP2 SWAP1 DUP2 DUP2 MSTORE PUSH1 0x20 ADD DUP3 DUP1 SLOAD DUP1 ISZERO PUSH3 0x189 JUMPI PUSH1 0x20 MUL DUP3 ADD SWAP2 SWAP1 PUSH1 0x0 MSTORE PUSH1 0x20 PUSH1 0x0 KECCAK256 SWAP1 JUMPDEST DUP2 PUSH1 0x0 SWAP1 SLOAD SWAP1 PUSH2 0x100 EXP SWAP1 DIV PUSH20 0xFFFFFFFFFFFFFFFFFFFFFFFFFFFFFFFFFFFFFFFF AND PUSH20 0xFFFFFFFFFFFFFFFFFFFFFFFFFFFFFFFFFFFFFFFF AND DUP2 MSTORE PUSH1 0x20 ADD SWAP1 PUSH1 0x1 ADD SWAP1 DUP1 DUP4 GT PUSH3 0x13E JUMPI JUMPDEST POP POP POP POP POP SWAP1 POP SWAP1 JUMP JUMPDEST PUSH1 0x0 DUP5 DUP5 DUP5 DUP5 CALLER PUSH1 0x40 MLOAD PUSH3 0x1A8 SWAP1 PUSH3 0x23C JUMP JUMPDEST PUSH3 0x1B8 SWAP6 SWAP5 SWAP4 SWAP3 SWAP2 SWAP1 PUSH3 0x92A JUMP JUMPDEST PUSH1 0x40 MLOAD DUP1 SWAP2 SUB SWAP1 PUSH1 0x0 CREATE DUP1 ISZERO DUP1 ISZERO PUSH3 0x1D5 JUMPI RETURNDATASIZE PUSH1 0x0 DUP1 RETURNDATACOPY RETURNDATASIZE PUSH1 0x0 REVERT JUMPDEST POP SWAP1 DUP1 PUSH1 0x1 DUP2 SLOAD ADD DUP1 DUP3 SSTORE DUP1 SWAP2 POP POP PUSH1 0x1 SWAP1 SUB SWAP1 PUSH1 0x0 MSTORE PUSH1 0x20 PUSH1 0x0 KECCAK256 ADD PUSH1 0x0 SWAP1 SWAP2 SWAP1 SWAP2 SWAP1 SWAP2 PUSH2 0x100 EXP DUP2 SLOAD DUP2 PUSH20 0xFFFFFFFFFFFFFFFFFFFFFFFFFFFFFFFFFFFFFFFF MUL NOT AND SWAP1 DUP4 PUSH20 0xFFFFFFFFFFFFFFFFFFFFFFFFFFFFFFFFFFFFFFFF AND MUL OR SWAP1 SSTORE POP POP POP POP POP JUMP JUMPDEST PUSH2 0x2264 DUP1 PUSH3 0x996 DUP4 CODECOPY ADD SWAP1 JUMP JUMPDEST PUSH1 0x0 PUSH1 0x40 MLOAD SWAP1 POP SWAP1 JUMP JUMPDEST PUSH1 0x0 DUP1 REVERT JUMPDEST PUSH1 0x0 DUP1 REVERT JUMPDEST PUSH1 0x0 DUP2 SWAP1 POP SWAP2 SWAP1 POP JUMP JUMPDEST PUSH3 0x273 DUP2 PUSH3 0x25E JUMP JUMPDEST DUP2 EQ PUSH3 0x27F JUMPI PUSH1 0x0 DUP1 REVERT JUMPDEST POP JUMP JUMPDEST PUSH1 0x0 DUP2 CALLDATALOAD SWAP1 POP PUSH3 0x293 DUP2 PUSH3 0x268 JUMP JUMPDEST SWAP3 SWAP2 POP POP JUMP JUMPDEST PUSH1 0x0 PUSH1 0x20 DUP3 DUP5 SUB SLT ISZERO PUSH3 0x2B2 JUMPI PUSH3 0x2B1 PUSH3 0x254 JUMP JUMPDEST JUMPDEST PUSH1 0x0 PUSH3 0x2C2 DUP5 DUP3 DUP6 ADD PUSH3 0x282 JUMP JUMPDEST SWAP2 POP POP SWAP3 SWAP2 POP POP JUMP JUMPDEST PUSH1 0x0 PUSH20 0xFFFFFFFFFFFFFFFFFFFFFFFFFFFFFFFFFFFFFFFF DUP3 AND SWAP1 POP SWAP2 SWAP1 POP JUMP JUMPDEST PUSH1 0x0 PUSH3 0x2F8 DUP3 PUSH3 0x2CB JUMP JUMPDEST SWAP1 POP SWAP2 SWAP1 POP JUMP JUMPDEST PUSH3 0x30A DUP2 PUSH3 0x2EB JUMP JUMPDEST DUP3 MSTORE POP POP JUMP JUMPDEST PUSH1 0x0 PUSH1 0x20 DUP3 ADD SWAP1 POP PUSH3 0x327 PUSH1 0x0 DUP4 ADD DUP5 PUSH3 0x2FF JUMP JUMPDEST SWAP3 SWAP2 POP POP JUMP JUMPDEST PUSH1 0x0 DUP2 MLOAD SWAP1 POP SWAP2 SWAP1 POP JUMP JUMPDEST PUSH1 0x0 DUP3 DUP3 MSTORE PUSH1 0x20 DUP3 ADD SWAP1 POP SWAP3 SWAP2 POP POP JUMP JUMPDEST PUSH1 0x0 DUP2 SWAP1 POP PUSH1 0x20 DUP3 ADD SWAP1 POP SWAP2 SWAP1 POP JUMP JUMPDEST PUSH3 0x364 DUP2 PUSH3 0x2EB JUMP JUMPDEST DUP3 MSTORE POP POP JUMP JUMPDEST PUSH1 0x0 PUSH3 0x378 DUP4 DUP4 PUSH3 0x359 JUMP JUMPDEST PUSH1 0x20 DUP4 ADD SWAP1 POP SWAP3 SWAP2 POP POP JUMP JUMPDEST PUSH1 0x0 PUSH1 0x20 DUP3 ADD SWAP1 POP SWAP2 SWAP1 POP JUMP JUMPDEST PUSH1 0x0 PUSH3 0x39E DUP3 PUSH3 0x32D JUMP JUMPDEST PUSH3 0x3AA DUP2 DUP6 PUSH3 0x338 JUMP JUMPDEST SWAP4 POP PUSH3 0x3B7 DUP4 PUSH3 0x349 JUMP JUMPDEST DUP1 PUSH1 0x0 JUMPDEST DUP4 DUP2 LT ISZERO PUSH3 0x3EE JUMPI DUP2 MLOAD PUSH3 0x3D2 DUP9 DUP3 PUSH3 0x36A JUMP JUMPDEST SWAP8 POP PUSH3 0x3DF DUP4 PUSH3 0x384 JUMP JUMPDEST SWAP3 POP POP PUSH1 0x1 DUP2 ADD SWAP1 POP PUSH3 0x3BB JUMP JUMPDEST POP DUP6 SWAP4 POP POP POP POP SWAP3 SWAP2 POP POP JUMP JUMPDEST PUSH1 0x0 PUSH1 0x20 DUP3 ADD SWAP1 POP DUP2 DUP2 SUB PUSH1 0x0 DUP4 ADD MSTORE PUSH3 0x417 DUP2 DUP5 PUSH3 0x391 JUMP JUMPDEST SWAP1 POP SWAP3 SWAP2 POP POP JUMP JUMPDEST PUSH1 0x0 DUP1 REVERT JUMPDEST PUSH1 0x0 DUP1 REVERT JUMPDEST PUSH1 0x0 PUSH1 0x1F NOT PUSH1 0x1F DUP4 ADD AND SWAP1 POP SWAP2 SWAP1 POP JUMP JUMPDEST PUSH32 0x4E487B7100000000000000000000000000000000000000000000000000000000 PUSH1 0x0 MSTORE PUSH1 0x41 PUSH1 0x4 MSTORE PUSH1 0x24 PUSH1 0x0 REVERT JUMPDEST PUSH3 0x474 DUP3 PUSH3 0x429 JUMP JUMPDEST DUP2 ADD DUP2 DUP2 LT PUSH8 0xFFFFFFFFFFFFFFFF DUP3 GT OR ISZERO PUSH3 0x496 JUMPI PUSH3 0x495 PUSH3 0x43A JUMP JUMPDEST JUMPDEST DUP1 PUSH1 0x40 MSTORE POP POP POP JUMP JUMPDEST PUSH1 0x0 PUSH3 0x4AB PUSH3 0x24A JUMP JUMPDEST SWAP1 POP PUSH3 0x4B9 DUP3 DUP3 PUSH3 0x469 JUMP JUMPDEST SWAP2 SWAP1 POP JUMP JUMPDEST PUSH1 0x0 PUSH8 0xFFFFFFFFFFFFFFFF DUP3 GT ISZERO PUSH3 0x4DC JUMPI PUSH3 0x4DB PUSH3 0x43A JUMP JUMPDEST JUMPDEST PUSH3 0x4E7 DUP3 PUSH3 0x429 JUMP JUMPDEST SWAP1 POP PUSH1 0x20 DUP2 ADD SWAP1 POP SWAP2 SWAP1 POP JUMP JUMPDEST DUP3 DUP2 DUP4 CALLDATACOPY PUSH1 0x0 DUP4 DUP4 ADD MSTORE POP POP POP JUMP JUMPDEST PUSH1 0x0 PUSH3 0x51A PUSH3 0x514 DUP5 PUSH3 0x4BE JUMP JUMPDEST PUSH3 0x49F JUMP JUMPDEST SWAP1 POP DUP3 DUP2 MSTORE PUSH1 0x20 DUP2 ADD DUP5 DUP5 DUP5 ADD GT ISZERO PUSH3 0x539 JUMPI PUSH3 0x538 PUSH3 0x424 JUMP JUMPDEST JUMPDEST PUSH3 0x546 DUP5 DUP3 DUP6 PUSH3 0x4F4 JUMP JUMPDEST POP SWAP4 SWAP3 POP POP POP JUMP JUMPDEST PUSH1 0x0 DUP3 PUSH1 0x1F DUP4 ADD SLT PUSH3 0x566 JUMPI PUSH3 0x565 PUSH3 0x41F JUMP JUMPDEST JUMPDEST DUP2 CALLDATALOAD PUSH3 0x578 DUP5 DUP3 PUSH1 0x20 DUP7 ADD PUSH3 0x503 JUMP JUMPDEST SWAP2 POP POP SWAP3 SWAP2 POP POP JUMP JUMPDEST PUSH1 0x0 PUSH8 0xFFFFFFFFFFFFFFFF DUP3 GT ISZERO PUSH3 0x59F JUMPI PUSH3 0x59E PUSH3 0x43A JUMP JUMPDEST JUMPDEST PUSH1 0x20 DUP3 MUL SWAP1 POP PUSH1 0x20 DUP2 ADD SWAP1 POP SWAP2 SWAP1 POP JUMP JUMPDEST PUSH1 0x0 DUP1 REVERT JUMPDEST PUSH1 0x0 PUSH3 0x5CC PUSH3 0x5C6 DUP5 PUSH3 0x581 JUMP JUMPDEST PUSH3 0x49F JUMP JUMPDEST SWAP1 POP DUP1 DUP4 DUP3 MSTORE PUSH1 0x20 DUP3 ADD SWAP1 POP PUSH1 0x20 DUP5 MUL DUP4 ADD DUP6 DUP2 GT ISZERO PUSH3 0x5F2 JUMPI PUSH3 0x5F1 PUSH3 0x5B0 JUMP JUMPDEST JUMPDEST DUP4 JUMPDEST DUP2 DUP2 LT ISZERO PUSH3 0x640 JUMPI DUP1 CALLDATALOAD PUSH8 0xFFFFFFFFFFFFFFFF DUP2 GT ISZERO PUSH3 0x61B JUMPI PUSH3 0x61A PUSH3 0x41F JUMP JUMPDEST JUMPDEST DUP1 DUP7 ADD PUSH3 0x62A DUP10 DUP3 PUSH3 0x54E JUMP JUMPDEST DUP6 MSTORE PUSH1 0x20 DUP6 ADD SWAP5 POP POP POP PUSH1 0x20 DUP2 ADD SWAP1 POP PUSH3 0x5F4 JUMP JUMPDEST POP POP POP SWAP4 SWAP3 POP POP POP JUMP JUMPDEST PUSH1 0x0 DUP3 PUSH1 0x1F DUP4 ADD SLT PUSH3 0x662 JUMPI PUSH3 0x661 PUSH3 0x41F JUMP JUMPDEST JUMPDEST DUP2 CALLDATALOAD PUSH3 0x674 DUP5 DUP3 PUSH1 0x20 DUP7 ADD PUSH3 0x5B5 JUMP JUMPDEST SWAP2 POP POP SWAP3 SWAP2 POP POP JUMP JUMPDEST PUSH1 0x0 PUSH4 0xFFFFFFFF DUP3 AND SWAP1 POP SWAP2 SWAP1 POP JUMP JUMPDEST PUSH3 0x698 DUP2 PUSH3 0x67D JUMP JUMPDEST DUP2 EQ PUSH3 0x6A4 JUMPI PUSH1 0x0 DUP1 REVERT JUMPDEST POP JUMP JUMPDEST PUSH1 0x0 DUP2 CALLDATALOAD SWAP1 POP PUSH3 0x6B8 DUP2 PUSH3 0x68D JUMP JUMPDEST SWAP3 SWAP2 POP POP JUMP JUMPDEST PUSH1 0x0 DUP1 PUSH1 0x0 DUP1 PUSH1 0x80 DUP6 DUP8 SUB SLT ISZERO PUSH3 0x6DB JUMPI PUSH3 0x6DA PUSH3 0x254 JUMP JUMPDEST JUMPDEST PUSH1 0x0 DUP6 ADD CALLDATALOAD PUSH8 0xFFFFFFFFFFFFFFFF DUP2 GT ISZERO PUSH3 0x6FC JUMPI PUSH3 0x6FB PUSH3 0x259 JUMP JUMPDEST JUMPDEST PUSH3 0x70A DUP8 DUP3 DUP9 ADD PUSH3 0x54E JUMP JUMPDEST SWAP5 POP POP PUSH1 0x20 DUP6 ADD CALLDATALOAD PUSH8 0xFFFFFFFFFFFFFFFF DUP2 GT ISZERO PUSH3 0x72E JUMPI PUSH3 0x72D PUSH3 0x259 JUMP JUMPDEST JUMPDEST PUSH3 0x73C DUP8 DUP3 DUP9 ADD PUSH3 0x64A JUMP JUMPDEST SWAP4 POP POP PUSH1 0x40 PUSH3 0x74F DUP8 DUP3 DUP9 ADD PUSH3 0x6A7 JUMP JUMPDEST SWAP3 POP POP PUSH1 0x60 PUSH3 0x762 DUP8 DUP3 DUP9 ADD PUSH3 0x6A7 JUMP JUMPDEST SWAP2 POP POP SWAP3 SWAP6 SWAP2 SWAP5 POP SWAP3 POP JUMP JUMPDEST PUSH1 0x0 DUP2 MLOAD SWAP1 POP SWAP2 SWAP1 POP JUMP JUMPDEST PUSH1 0x0 DUP3 DUP3 MSTORE PUSH1 0x20 DUP3 ADD SWAP1 POP SWAP3 SWAP2 POP POP JUMP JUMPDEST PUSH1 0x0 JUMPDEST DUP4 DUP2 LT ISZERO PUSH3 0x7AA JUMPI DUP1 DUP3 ADD MLOAD DUP2 DUP5 ADD MSTORE PUSH1 0x20 DUP2 ADD SWAP1 POP PUSH3 0x78D JUMP JUMPDEST PUSH1 0x0 DUP5 DUP5 ADD MSTORE POP POP POP POP JUMP JUMPDEST PUSH1 0x0 PUSH3 0x7C3 DUP3 PUSH3 0x76E JUMP JUMPDEST PUSH3 0x7CF DUP2 DUP6 PUSH3 0x779 JUMP JUMPDEST SWAP4 POP PUSH3 0x7E1 DUP2 DUP6 PUSH1 0x20 DUP7 ADD PUSH3 0x78A JUMP JUMPDEST PUSH3 0x7EC DUP2 PUSH3 0x429 JUMP JUMPDEST DUP5 ADD SWAP2 POP POP SWAP3 SWAP2 POP POP JUMP JUMPDEST PUSH1 0x0 DUP2 MLOAD SWAP1 POP SWAP2 SWAP1 POP JUMP JUMPDEST PUSH1 0x0 DUP3 DUP3 MSTORE PUSH1 0x20 DUP3 ADD SWAP1 POP SWAP3 SWAP2 POP POP JUMP JUMPDEST PUSH1 0x0 DUP2 SWAP1 POP PUSH1 0x20 DUP3 ADD SWAP1 POP SWAP2 SWAP1 POP JUMP JUMPDEST PUSH1 0x0 DUP3 DUP3 MSTORE PUSH1 0x20 DUP3 ADD SWAP1 POP SWAP3 SWAP2 POP POP JUMP JUMPDEST PUSH1 0x0 PUSH3 0x841 DUP3 PUSH3 0x76E JUMP JUMPDEST PUSH3 0x84D DUP2 DUP6 PUSH3 0x823 JUMP JUMPDEST SWAP4 POP PUSH3 0x85F DUP2 DUP6 PUSH1 0x20 DUP7 ADD PUSH3 0x78A JUMP JUMPDEST PUSH3 0x86A DUP2 PUSH3 0x429 JUMP JUMPDEST DUP5 ADD SWAP2 POP POP SWAP3 SWAP2 POP POP JUMP JUMPDEST PUSH1 0x0 PUSH3 0x883 DUP4 DUP4 PUSH3 0x834 JUMP JUMPDEST SWAP1 POP SWAP3 SWAP2 POP POP JUMP JUMPDEST PUSH1 0x0 PUSH1 0x20 DUP3 ADD SWAP1 POP SWAP2 SWAP1 POP JUMP JUMPDEST PUSH1 0x0 PUSH3 0x8A5 DUP3 PUSH3 0x7F7 JUMP JUMPDEST PUSH3 0x8B1 DUP2 DUP6 PUSH3 0x802 JUMP JUMPDEST SWAP4 POP DUP4 PUSH1 0x20 DUP3 MUL DUP6 ADD PUSH3 0x8C5 DUP6 PUSH3 0x813 JUMP JUMPDEST DUP1 PUSH1 0x0 JUMPDEST DUP6 DUP2 LT ISZERO PUSH3 0x907 JUMPI DUP5 DUP5 SUB DUP10 MSTORE DUP2 MLOAD PUSH3 0x8E5 DUP6 DUP3 PUSH3 0x875 JUMP JUMPDEST SWAP5 POP PUSH3 0x8F2 DUP4 PUSH3 0x88B JUMP JUMPDEST SWAP3 POP PUSH1 0x20 DUP11 ADD SWAP10 POP POP PUSH1 0x1 DUP2 ADD SWAP1 POP PUSH3 0x8C9 JUMP JUMPDEST POP DUP3 SWAP8 POP DUP8 SWAP6 POP POP POP POP POP POP SWAP3 SWAP2 POP POP JUMP JUMPDEST PUSH3 0x924 DUP2 PUSH3 0x67D JUMP JUMPDEST DUP3 MSTORE POP POP JUMP JUMPDEST PUSH1 0x0 PUSH1 0xA0 DUP3 ADD SWAP1 POP DUP2 DUP2 SUB PUSH1 0x0 DUP4 ADD MSTORE PUSH3 0x946 DUP2 DUP9 PUSH3 0x7B6 JUMP JUMPDEST SWAP1 POP DUP2 DUP2 SUB PUSH1 0x20 DUP4 ADD MSTORE PUSH3 0x95C DUP2 DUP8 PUSH3 0x898 JUMP JUMPDEST SWAP1 POP PUSH3 0x96D PUSH1 0x40 DUP4 ADD DUP7 PUSH3 0x919 JUMP JUMPDEST PUSH3 0x97C PUSH1 0x60 DUP4 ADD DUP6 PUSH3 0x919 JUMP JUMPDEST PUSH3 0x98B PUSH1 0x80 DUP4 ADD DUP5 PUSH3 0x2FF JUMP JUMPDEST SWAP7 SWAP6 POP POP POP POP POP POP JUMP INVALID PUSH1 0x80 PUSH1 0x40 MSTORE CALLVALUE DUP1 ISZERO PUSH3 0x11 JUMPI PUSH1 0x0 DUP1 REVERT JUMPDEST POP PUSH1 0x40 MLOAD PUSH3 0x2264 CODESIZE SUB DUP1 PUSH3 0x2264 DUP4 CODECOPY DUP2 DUP2 ADD PUSH1 0x40 MSTORE DUP2 ADD SWAP1 PUSH3 0x37 SWAP2 SWAP1 PUSH3 0x52D JUMP JUMPDEST DUP1 PUSH1 0x0 DUP1 PUSH2 0x100 EXP DUP2 SLOAD DUP2 PUSH20 0xFFFFFFFFFFFFFFFFFFFFFFFFFFFFFFFFFFFFFFFF MUL NOT AND SWAP1 DUP4 PUSH20 0xFFFFFFFFFFFFFFFFFFFFFFFFFFFFFFFFFFFFFFFF AND MUL OR SWAP1 SSTORE POP DUP5 PUSH1 0x2 SWAP1 DUP2 PUSH3 0x88 SWAP2 SWAP1 PUSH3 0x83E JUMP JUMPDEST POP DUP4 PUSH1 0x3 SWAP1 DUP1 MLOAD SWAP1 PUSH1 0x20 ADD SWAP1 PUSH3 0xA1 SWAP3 SWAP2 SWAP1 PUSH3 0x10B JUMP JUMPDEST POP DUP4 MLOAD PUSH1 0x0 PUSH1 0x14 PUSH2 0x100 EXP DUP2 SLOAD DUP2 PUSH1 0xFF MUL NOT AND SWAP1 DUP4 PUSH1 0xFF AND MUL OR SWAP1 SSTORE POP DUP3 PUSH1 0x0 PUSH1 0x16 PUSH2 0x100 EXP DUP2 SLOAD DUP2 PUSH4 0xFFFFFFFF MUL NOT AND SWAP1 DUP4 PUSH4 0xFFFFFFFF AND MUL OR SWAP1 SSTORE POP DUP2 PUSH1 0x0 PUSH1 0x1A PUSH2 0x100 EXP DUP2 SLOAD DUP2 PUSH4 0xFFFFFFFF MUL NOT AND SWAP1 DUP4 PUSH4 0xFFFFFFFF AND MUL OR SWAP1 SSTORE POP POP POP POP POP POP PUSH3 0x925 JUMP JUMPDEST DUP3 DUP1 SLOAD DUP3 DUP3 SSTORE SWAP1 PUSH1 0x0 MSTORE PUSH1 0x20 PUSH1 0x0 KECCAK256 SWAP1 DUP2 ADD SWAP3 DUP3 ISZERO PUSH3 0x158 JUMPI SWAP2 PUSH1 0x20 MUL DUP3 ADD JUMPDEST DUP3 DUP2 GT ISZERO PUSH3 0x157 JUMPI DUP3 MLOAD DUP3 SWAP1 DUP2 PUSH3 0x146 SWAP2 SWAP1 PUSH3 0x83E JUMP JUMPDEST POP SWAP2 PUSH1 0x20 ADD SWAP2 SWAP1 PUSH1 0x1 ADD SWAP1 PUSH3 0x12C JUMP JUMPDEST JUMPDEST POP SWAP1 POP PUSH3 0x167 SWAP2 SWAP1 PUSH3 0x16B JUMP JUMPDEST POP SWAP1 JUMP JUMPDEST JUMPDEST DUP1 DUP3 GT ISZERO PUSH3 0x18F JUMPI PUSH1 0x0 DUP2 DUP2 PUSH3 0x185 SWAP2 SWAP1 PUSH3 0x193 JUMP JUMPDEST POP PUSH1 0x1 ADD PUSH3 0x16C JUMP JUMPDEST POP SWAP1 JUMP JUMPDEST POP DUP1 SLOAD PUSH3 0x1A1 SWAP1 PUSH3 0x62D JUMP JUMPDEST PUSH1 0x0 DUP3 SSTORE DUP1 PUSH1 0x1F LT PUSH3 0x1B5 JUMPI POP PUSH3 0x1D6 JUMP JUMPDEST PUSH1 0x1F ADD PUSH1 0x20 SWAP1 DIV SWAP1 PUSH1 0x0 MSTORE PUSH1 0x20 PUSH1 0x0 KECCAK256 SWAP1 DUP2 ADD SWAP1 PUSH3 0x1D5 SWAP2 SWAP1 PUSH3 0x1D9 JUMP JUMPDEST JUMPDEST POP JUMP JUMPDEST JUMPDEST DUP1 DUP3 GT ISZERO PUSH3 0x1F4 JUMPI PUSH1 0x0 DUP2 PUSH1 0x0 SWAP1 SSTORE POP PUSH1 0x1 ADD PUSH3 0x1DA JUMP JUMPDEST POP SWAP1 JUMP JUMPDEST PUSH1 0x0 PUSH1 0x40 MLOAD SWAP1 POP SWAP1 JUMP JUMPDEST PUSH1 0x0 DUP1 REVERT JUMPDEST PUSH1 0x0 DUP1 REVERT JUMPDEST PUSH1 0x0 DUP1 REVERT JUMPDEST PUSH1 0x0 DUP1 REVERT JUMPDEST PUSH1 0x0 PUSH1 0x1F NOT PUSH1 0x1F DUP4 ADD AND SWAP1 POP SWAP2 SWAP1 POP JUMP JUMPDEST PUSH32 0x4E487B7100000000000000000000000000000000000000000000000000000000 PUSH1 0x0 MSTORE PUSH1 0x41 PUSH1 0x4 MSTORE PUSH1 0x24 PUSH1 0x0 REVERT JUMPDEST PUSH3 0x261 DUP3 PUSH3 0x216 JUMP JUMPDEST DUP2 ADD DUP2 DUP2 LT PUSH8 0xFFFFFFFFFFFFFFFF DUP3 GT OR ISZERO PUSH3 0x283 JUMPI PUSH3 0x282 PUSH3 0x227 JUMP JUMPDEST JUMPDEST DUP1 PUSH1 0x40 MSTORE POP POP POP JUMP JUMPDEST PUSH1 0x0 PUSH3 0x298 PUSH3 0x1F8 JUMP JUMPDEST SWAP1 POP PUSH3 0x2A6 DUP3 DUP3 PUSH3 0x256 JUMP JUMPDEST SWAP2 SWAP1 POP JUMP JUMPDEST PUSH1 0x0 PUSH8 0xFFFFFFFFFFFFFFFF DUP3 GT ISZERO PUSH3 0x2C9 JUMPI PUSH3 0x2C8 PUSH3 0x227 JUMP JUMPDEST JUMPDEST PUSH3 0x2D4 DUP3 PUSH3 0x216 JUMP JUMPDEST SWAP1 POP PUSH1 0x20 DUP2 ADD SWAP1 POP SWAP2 SWAP1 POP JUMP JUMPDEST PUSH1 0x0 JUMPDEST DUP4 DUP2 LT ISZERO PUSH3 0x301 JUMPI DUP1 DUP3 ADD MLOAD DUP2 DUP5 ADD MSTORE PUSH1 0x20 DUP2 ADD SWAP1 POP PUSH3 0x2E4 JUMP JUMPDEST PUSH1 0x0 DUP5 DUP5 ADD MSTORE POP POP POP POP JUMP JUMPDEST PUSH1 0x0 PUSH3 0x324 PUSH3 0x31E DUP5 PUSH3 0x2AB JUMP JUMPDEST PUSH3 0x28C JUMP JUMPDEST SWAP1 POP DUP3 DUP2 MSTORE PUSH1 0x20 DUP2 ADD DUP5 DUP5 DUP5 ADD GT ISZERO PUSH3 0x343 JUMPI PUSH3 0x342 PUSH3 0x211 JUMP JUMPDEST JUMPDEST PUSH3 0x350 DUP5 DUP3 DUP6 PUSH3 0x2E1 JUMP JUMPDEST POP SWAP4 SWAP3 POP POP POP JUMP JUMPDEST PUSH1 0x0 DUP3 PUSH1 0x1F DUP4 ADD SLT PUSH3 0x370 JUMPI PUSH3 0x36F PUSH3 0x20C JUMP JUMPDEST JUMPDEST DUP2 MLOAD PUSH3 0x382 DUP5 DUP3 PUSH1 0x20 DUP7 ADD PUSH3 0x30D JUMP JUMPDEST SWAP2 POP POP SWAP3 SWAP2 POP POP JUMP JUMPDEST PUSH1 0x0 PUSH8 0xFFFFFFFFFFFFFFFF DUP3 GT ISZERO PUSH3 0x3A9 JUMPI PUSH3 0x3A8 PUSH3 0x227 JUMP JUMPDEST JUMPDEST PUSH1 0x20 DUP3 MUL SWAP1 POP PUSH1 0x20 DUP2 ADD SWAP1 POP SWAP2 SWAP1 POP JUMP JUMPDEST PUSH1 0x0 DUP1 REVERT JUMPDEST PUSH1 0x0 PUSH3 0x3D6 PUSH3 0x3D0 DUP5 PUSH3 0x38B JUMP JUMPDEST PUSH3 0x28C JUMP JUMPDEST SWAP1 POP DUP1 DUP4 DUP3 MSTORE PUSH1 0x20 DUP3 ADD SWAP1 POP PUSH1 0x20 DUP5 MUL DUP4 ADD DUP6 DUP2 GT ISZERO PUSH3 0x3FC JUMPI PUSH3 0x3FB PUSH3 0x3BA JUMP JUMPDEST JUMPDEST DUP4 JUMPDEST DUP2 DUP2 LT ISZERO PUSH3 0x44A JUMPI DUP1 MLOAD PUSH8 0xFFFFFFFFFFFFFFFF DUP2 GT ISZERO PUSH3 0x425 JUMPI PUSH3 0x424 PUSH3 0x20C JUMP JUMPDEST JUMPDEST DUP1 DUP7 ADD PUSH3 0x434 DUP10 DUP3 PUSH3 0x358 JUMP JUMPDEST DUP6 MSTORE PUSH1 0x20 DUP6 ADD SWAP5 POP POP POP PUSH1 0x20 DUP2 ADD SWAP1 POP PUSH3 0x3FE JUMP JUMPDEST POP POP POP SWAP4 SWAP3 POP POP POP JUMP JUMPDEST PUSH1 0x0 DUP3 PUSH1 0x1F DUP4 ADD SLT PUSH3 0x46C JUMPI PUSH3 0x46B PUSH3 0x20C JUMP JUMPDEST JUMPDEST DUP2 MLOAD PUSH3 0x47E DUP5 DUP3 PUSH1 0x20 DUP7 ADD PUSH3 0x3BF JUMP JUMPDEST SWAP2 POP POP SWAP3 SWAP2 POP POP JUMP JUMPDEST PUSH1 0x0 PUSH4 0xFFFFFFFF DUP3 AND SWAP1 POP SWAP2 SWAP1 POP JUMP JUMPDEST PUSH3 0x4A2 DUP2 PUSH3 0x487 JUMP JUMPDEST DUP2 EQ PUSH3 0x4AE JUMPI PUSH1 0x0 DUP1 REVERT JUMPDEST POP JUMP JUMPDEST PUSH1 0x0 DUP2 MLOAD SWAP1 POP PUSH3 0x4C2 DUP2 PUSH3 0x497 JUMP JUMPDEST SWAP3 SWAP2 POP POP JUMP JUMPDEST PUSH1 0x0 PUSH20 0xFFFFFFFFFFFFFFFFFFFFFFFFFFFFFFFFFFFFFFFF DUP3 AND SWAP1 POP SWAP2 SWAP1 POP JUMP JUMPDEST PUSH1 0x0 PUSH3 0x4F5 DUP3 PUSH3 0x4C8 JUMP JUMPDEST SWAP1 POP SWAP2 SWAP1 POP JUMP JUMPDEST PUSH3 0x507 DUP2 PUSH3 0x4E8 JUMP JUMPDEST DUP2 EQ PUSH3 0x513 JUMPI PUSH1 0x0 DUP1 REVERT JUMPDEST POP JUMP JUMPDEST PUSH1 0x0 DUP2 MLOAD SWAP1 POP PUSH3 0x527 DUP2 PUSH3 0x4FC JUMP JUMPDEST SWAP3 SWAP2 POP POP JUMP JUMPDEST PUSH1 0x0 DUP1 PUSH1 0x0 DUP1 PUSH1 0x0 PUSH1 0xA0 DUP7 DUP9 SUB SLT ISZERO PUSH3 0x54C JUMPI PUSH3 0x54B PUSH3 0x202 JUMP JUMPDEST JUMPDEST PUSH1 0x0 DUP7 ADD MLOAD PUSH8 0xFFFFFFFFFFFFFFFF DUP2 GT ISZERO PUSH3 0x56D JUMPI PUSH3 0x56C PUSH3 0x207 JUMP JUMPDEST JUMPDEST PUSH3 0x57B DUP9 DUP3 DUP10 ADD PUSH3 0x358 JUMP JUMPDEST SWAP6 POP POP PUSH1 0x20 DUP7 ADD MLOAD PUSH8 0xFFFFFFFFFFFFFFFF DUP2 GT ISZERO PUSH3 0x59F JUMPI PUSH3 0x59E PUSH3 0x207 JUMP JUMPDEST JUMPDEST PUSH3 0x5AD DUP9 DUP3 DUP10 ADD PUSH3 0x454 JUMP JUMPDEST SWAP5 POP POP PUSH1 0x40 PUSH3 0x5C0 DUP9 DUP3 DUP10 ADD PUSH3 0x4B1 JUMP JUMPDEST SWAP4 POP POP PUSH1 0x60 PUSH3 0x5D3 DUP9 DUP3 DUP10 ADD PUSH3 0x4B1 JUMP JUMPDEST SWAP3 POP POP PUSH1 0x80 PUSH3 0x5E6 DUP9 DUP3 DUP10 ADD PUSH3 0x516 JUMP JUMPDEST SWAP2 POP POP SWAP3 SWAP6 POP SWAP3 SWAP6 SWAP1 SWAP4 POP JUMP JUMPDEST PUSH1 0x0 DUP2 MLOAD SWAP1 POP SWAP2 SWAP1 POP JUMP JUMPDEST PUSH32 0x4E487B7100000000000000000000000000000000000000000000000000000000 PUSH1 0x0 MSTORE PUSH1 0x22 PUSH1 0x4 MSTORE PUSH1 0x24 PUSH1 0x0 REVERT JUMPDEST PUSH1 0x0 PUSH1 0x2 DUP3 DIV SWAP1 POP PUSH1 0x1 DUP3 AND DUP1 PUSH3 0x646 JUMPI PUSH1 0x7F DUP3 AND SWAP2 POP JUMPDEST PUSH1 0x20 DUP3 LT DUP2 SUB PUSH3 0x65C JUMPI PUSH3 0x65B PUSH3 0x5FE JUMP JUMPDEST JUMPDEST POP SWAP2 SWAP1 POP JUMP JUMPDEST PUSH1 0x0 DUP2 SWAP1 POP DUP2 PUSH1 0x0 MSTORE PUSH1 0x20 PUSH1 0x0 KECCAK256 SWAP1 POP SWAP2 SWAP1 POP JUMP JUMPDEST PUSH1 0x0 PUSH1 0x20 PUSH1 0x1F DUP4 ADD DIV SWAP1 POP SWAP2 SWAP1 POP JUMP JUMPDEST PUSH1 0x0 DUP3 DUP3 SHL SWAP1 POP SWAP3 SWAP2 POP POP JUMP JUMPDEST PUSH1 0x0 PUSH1 0x8 DUP4 MUL PUSH3 0x6C6 PUSH32 0xFFFFFFFFFFFFFFFFFFFFFFFFFFFFFFFFFFFFFFFFFFFFFFFFFFFFFFFFFFFFFFFF DUP3 PUSH3 0x687 JUMP JUMPDEST PUSH3 0x6D2 DUP7 DUP4 PUSH3 0x687 JUMP JUMPDEST SWAP6 POP DUP1 NOT DUP5 AND SWAP4 POP DUP1 DUP7 AND DUP5 OR SWAP3 POP POP POP SWAP4 SWAP3 POP POP POP JUMP JUMPDEST PUSH1 0x0 DUP2 SWAP1 POP SWAP2 SWAP1 POP JUMP JUMPDEST PUSH1 0x0 DUP2 SWAP1 POP SWAP2 SWAP1 POP JUMP JUMPDEST PUSH1 0x0 PUSH3 0x71F PUSH3 0x719 PUSH3 0x713 DUP5 PUSH3 0x6EA JUMP JUMPDEST PUSH3 0x6F4 JUMP JUMPDEST PUSH3 0x6EA JUMP JUMPDEST SWAP1 POP SWAP2 SWAP1 POP JUMP JUMPDEST PUSH1 0x0 DUP2 SWAP1 POP SWAP2 SWAP1 POP JUMP JUMPDEST PUSH3 0x73B DUP4 PUSH3 0x6FE JUMP JUMPDEST PUSH3 0x753 PUSH3 0x74A DUP3 PUSH3 0x726 JUMP JUMPDEST DUP5 DUP5 SLOAD PUSH3 0x694 JUMP JUMPDEST DUP3 SSTORE POP POP POP POP JUMP JUMPDEST PUSH1 0x0 SWAP1 JUMP JUMPDEST PUSH3 0x76A PUSH3 0x75B JUMP JUMPDEST PUSH3 0x777 DUP2 DUP5 DUP5 PUSH3 0x730 JUMP JUMPDEST POP POP POP JUMP JUMPDEST JUMPDEST DUP2 DUP2 LT ISZERO PUSH3 0x79F JUMPI PUSH3 0x793 PUSH1 0x0 DUP3 PUSH3 0x760 JUMP JUMPDEST PUSH1 0x1 DUP2 ADD SWAP1 POP PUSH3 0x77D JUMP JUMPDEST POP POP JUMP JUMPDEST PUSH1 0x1F DUP3 GT ISZERO PUSH3 0x7EE JUMPI PUSH3 0x7B8 DUP2 PUSH3 0x662 JUMP JUMPDEST PUSH3 0x7C3 DUP5 PUSH3 0x677 JUMP JUMPDEST DUP2 ADD PUSH1 0x20 DUP6 LT ISZERO PUSH3 0x7D3 JUMPI DUP2 SWAP1 POP JUMPDEST PUSH3 0x7EB PUSH3 0x7E2 DUP6 PUSH3 0x677 JUMP JUMPDEST DUP4 ADD DUP3 PUSH3 0x77C JUMP JUMPDEST POP POP JUMPDEST POP POP POP JUMP JUMPDEST PUSH1 0x0 DUP3 DUP3 SHR SWAP1 POP SWAP3 SWAP2 POP POP JUMP JUMPDEST PUSH1 0x0 PUSH3 0x813 PUSH1 0x0 NOT DUP5 PUSH1 0x8 MUL PUSH3 0x7F3 JUMP JUMPDEST NOT DUP1 DUP4 AND SWAP2 POP POP SWAP3 SWAP2 POP POP JUMP JUMPDEST PUSH1 0x0 PUSH3 0x82E DUP4 DUP4 PUSH3 0x800 JUMP JUMPDEST SWAP2 POP DUP3 PUSH1 0x2 MUL DUP3 OR SWAP1 POP SWAP3 SWAP2 POP POP JUMP JUMPDEST PUSH3 0x849 DUP3 PUSH3 0x5F3 JUMP JUMPDEST PUSH8 0xFFFFFFFFFFFFFFFF DUP2 GT ISZERO PUSH3 0x865 JUMPI PUSH3 0x864 PUSH3 0x227 JUMP JUMPDEST JUMPDEST PUSH3 0x871 DUP3 SLOAD PUSH3 0x62D JUMP JUMPDEST PUSH3 0x87E DUP3 DUP3 DUP6 PUSH3 0x7A3 JUMP JUMPDEST PUSH1 0x0 PUSH1 0x20 SWAP1 POP PUSH1 0x1F DUP4 GT PUSH1 0x1 DUP2 EQ PUSH3 0x8B6 JUMPI PUSH1 0x0 DUP5 ISZERO PUSH3 0x8A1 JUMPI DUP3 DUP8 ADD MLOAD SWAP1 POP JUMPDEST PUSH3 0x8AD DUP6 DUP3 PUSH3 0x820 JUMP JUMPDEST DUP7 SSTORE POP PUSH3 0x91D JUMP JUMPDEST PUSH1 0x1F NOT DUP5 AND PUSH3 0x8C6 DUP7 PUSH3 0x662 JUMP JUMPDEST PUSH1 0x0 JUMPDEST DUP3 DUP2 LT ISZERO PUSH3 0x8F0 JUMPI DUP5 DUP10 ADD MLOAD DUP3 SSTORE PUSH1 0x1 DUP3 ADD SWAP2 POP PUSH1 0x20 DUP6 ADD SWAP5 POP PUSH1 0x20 DUP2 ADD SWAP1 POP PUSH3 0x8C9 JUMP JUMPDEST DUP7 DUP4 LT ISZERO PUSH3 0x910 JUMPI DUP5 DUP10 ADD MLOAD PUSH3 0x90C PUSH1 0x1F DUP10 AND DUP3 PUSH3 0x800 JUMP JUMPDEST DUP4 SSTORE POP JUMPDEST PUSH1 0x1 PUSH1 0x2 DUP9 MUL ADD DUP9 SSTORE POP POP POP JUMPDEST POP POP POP POP POP POP JUMP JUMPDEST PUSH2 0x192F DUP1 PUSH3 0x935 PUSH1 0x0 CODECOPY PUSH1 0x0 RETURN INVALID PUSH1 0x80 PUSH1 0x40 MSTORE CALLVALUE DUP1 ISZERO PUSH2 0x10 JUMPI PUSH1 0x0 DUP1 REVERT JUMPDEST POP PUSH1 0x4 CALLDATASIZE LT PUSH2 0x121 JUMPI PUSH1 0x0 CALLDATALOAD PUSH1 0xE0 SHR DUP1 PUSH4 0x70BABC8A GT PUSH2 0xAD JUMPI DUP1 PUSH4 0xA944B7A6 GT PUSH2 0x71 JUMPI DUP1 PUSH4 0xA944B7A6 EQ PUSH2 0x316 JUMPI DUP1 PUSH4 0xB3F98ADC EQ PUSH2 0x334 JUMPI DUP1 PUSH4 0xC24A0F8B EQ PUSH2 0x350 JUMPI DUP1 PUSH4 0xEFC4AFE7 EQ PUSH2 0x36E JUMPI DUP1 PUSH4 0xF4AB9ADF EQ PUSH2 0x39E JUMPI PUSH2 0x121 JUMP JUMPDEST DUP1 PUSH4 0x70BABC8A EQ PUSH2 0x25C JUMPI DUP1 PUSH4 0x78622C5D EQ PUSH2 0x27A JUMPI DUP1 PUSH4 0x8953BB72 EQ PUSH2 0x298 JUMPI DUP1 PUSH4 0x9D9A7FE9 EQ PUSH2 0x2C8 JUMPI DUP1 PUSH4 0xA3D45314 EQ PUSH2 0x2E6 JUMPI PUSH2 0x121 JUMP JUMPDEST DUP1 PUSH4 0x481C6A75 GT PUSH2 0xF4 JUMPI DUP1 PUSH4 0x481C6A75 EQ PUSH2 0x1C2 JUMPI DUP1 PUSH4 0x4A79D50C EQ PUSH2 0x1E0 JUMPI DUP1 PUSH4 0x4E69D560 EQ PUSH2 0x1FE JUMPI DUP1 PUSH4 0x522E1177 EQ PUSH2 0x222 JUMPI DUP1 PUSH4 0x64E13125 EQ PUSH2 0x22C JUMPI PUSH2 0x121 JUMP JUMPDEST DUP1 PUSH4 0x131FF76E EQ PUSH2 0x126 JUMPI DUP1 PUSH4 0x13B0BA19 EQ PUSH2 0x144 JUMPI DUP1 PUSH4 0x1632C03F EQ PUSH2 0x174 JUMPI DUP1 PUSH4 0x255ADFD4 EQ PUSH2 0x192 JUMPI JUMPDEST PUSH1 0x0 DUP1 REVERT JUMPDEST PUSH2 0x12E PUSH2 0x3BA JUMP JUMPDEST PUSH1 0x40 MLOAD PUSH2 0x13B SWAP2 SWAP1 PUSH2 0x1154 JUMP JUMPDEST PUSH1 0x40 MLOAD DUP1 SWAP2 SUB SWAP1 RETURN JUMPDEST PUSH2 0x15E PUSH1 0x4 DUP1 CALLDATASIZE SUB DUP2 ADD SWAP1 PUSH2 0x159 SWAP2 SWAP1 PUSH2 0x11B4 JUMP JUMPDEST PUSH2 0x493 JUMP JUMPDEST PUSH1 0x40 MLOAD PUSH2 0x16B SWAP2 SWAP1 PUSH2 0x1200 JUMP JUMPDEST PUSH1 0x40 MLOAD DUP1 SWAP2 SUB SWAP1 RETURN JUMPDEST PUSH2 0x17C PUSH2 0x4B6 JUMP JUMPDEST PUSH1 0x40 MLOAD PUSH2 0x189 SWAP2 SWAP1 PUSH2 0x122A JUMP JUMPDEST PUSH1 0x40 MLOAD DUP1 SWAP2 SUB SWAP1 RETURN JUMPDEST PUSH2 0x1AC PUSH1 0x4 DUP1 CALLDATASIZE SUB DUP2 ADD SWAP1 PUSH2 0x1A7 SWAP2 SWAP1 PUSH2 0x12A3 JUMP JUMPDEST PUSH2 0x4C9 JUMP JUMPDEST PUSH1 0x40 MLOAD PUSH2 0x1B9 SWAP2 SWAP1 PUSH2 0x12EB JUMP JUMPDEST PUSH1 0x40 MLOAD DUP1 SWAP2 SUB SWAP1 RETURN JUMPDEST PUSH2 0x1CA PUSH2 0x4E9 JUMP JUMPDEST PUSH1 0x40 MLOAD PUSH2 0x1D7 SWAP2 SWAP1 PUSH2 0x1315 JUMP JUMPDEST PUSH1 0x40 MLOAD DUP1 SWAP2 SUB SWAP1 RETURN JUMPDEST PUSH2 0x1E8 PUSH2 0x50D JUMP JUMPDEST PUSH1 0x40 MLOAD PUSH2 0x1F5 SWAP2 SWAP1 PUSH2 0x137A JUMP JUMPDEST PUSH1 0x40 MLOAD DUP1 SWAP2 SUB SWAP1 RETURN JUMPDEST PUSH2 0x206 PUSH2 0x59B JUMP JUMPDEST PUSH1 0x40 MLOAD PUSH2 0x219 SWAP8 SWAP7 SWAP6 SWAP5 SWAP4 SWAP3 SWAP2 SWAP1 PUSH2 0x139C JUMP JUMPDEST PUSH1 0x40 MLOAD DUP1 SWAP2 SUB SWAP1 RETURN JUMPDEST PUSH2 0x22A PUSH2 0x6C5 JUMP JUMPDEST STOP JUMPDEST PUSH2 0x246 PUSH1 0x4 DUP1 CALLDATASIZE SUB DUP2 ADD SWAP1 PUSH2 0x241 SWAP2 SWAP1 PUSH2 0x11B4 JUMP JUMPDEST PUSH2 0x846 JUMP JUMPDEST PUSH1 0x40 MLOAD PUSH2 0x253 SWAP2 SWAP1 PUSH2 0x137A JUMP JUMPDEST PUSH1 0x40 MLOAD DUP1 SWAP2 SUB SWAP1 RETURN JUMPDEST PUSH2 0x264 PUSH2 0x950 JUMP JUMPDEST PUSH1 0x40 MLOAD PUSH2 0x271 SWAP2 SWAP1 PUSH2 0x1200 JUMP JUMPDEST PUSH1 0x40 MLOAD DUP1 SWAP2 SUB SWAP1 RETURN JUMPDEST PUSH2 0x282 PUSH2 0x966 JUMP JUMPDEST PUSH1 0x40 MLOAD PUSH2 0x28F SWAP2 SWAP1 PUSH2 0x1200 JUMP JUMPDEST PUSH1 0x40 MLOAD DUP1 SWAP2 SUB SWAP1 RETURN JUMPDEST PUSH2 0x2B2 PUSH1 0x4 DUP1 CALLDATASIZE SUB DUP2 ADD SWAP1 PUSH2 0x2AD SWAP2 SWAP1 PUSH2 0x11B4 JUMP JUMPDEST PUSH2 0x97C JUMP JUMPDEST PUSH1 0x40 MLOAD PUSH2 0x2BF SWAP2 SWAP1 PUSH2 0x1200 JUMP JUMPDEST PUSH1 0x40 MLOAD DUP1 SWAP2 SUB SWAP1 RETURN JUMPDEST PUSH2 0x2D0 PUSH2 0x9AF JUMP JUMPDEST PUSH1 0x40 MLOAD PUSH2 0x2DD SWAP2 SWAP1 PUSH2 0x12EB JUMP JUMPDEST PUSH1 0x40 MLOAD DUP1 SWAP2 SUB SWAP1 RETURN JUMPDEST PUSH2 0x300 PUSH1 0x4 DUP1 CALLDATASIZE SUB DUP2 ADD SWAP1 PUSH2 0x2FB SWAP2 SWAP1 PUSH2 0x12A3 JUMP JUMPDEST PUSH2 0x9C2 JUMP JUMPDEST PUSH1 0x40 MLOAD PUSH2 0x30D SWAP2 SWAP1 PUSH2 0x12EB JUMP JUMPDEST PUSH1 0x40 MLOAD DUP1 SWAP2 SUB SWAP1 RETURN JUMPDEST PUSH2 0x31E PUSH2 0x9E2 JUMP JUMPDEST PUSH1 0x40 MLOAD PUSH2 0x32B SWAP2 SWAP1 PUSH2 0x1200 JUMP JUMPDEST PUSH1 0x40 MLOAD DUP1 SWAP2 SUB SWAP1 RETURN JUMPDEST PUSH2 0x34E PUSH1 0x4 DUP1 CALLDATASIZE SUB DUP2 ADD SWAP1 PUSH2 0x349 SWAP2 SWAP1 PUSH2 0x11B4 JUMP JUMPDEST PUSH2 0x9F8 JUMP JUMPDEST STOP JUMPDEST PUSH2 0x358 PUSH2 0xD58 JUMP JUMPDEST PUSH1 0x40 MLOAD PUSH2 0x365 SWAP2 SWAP1 PUSH2 0x1200 JUMP JUMPDEST PUSH1 0x40 MLOAD DUP1 SWAP2 SUB SWAP1 RETURN JUMPDEST PUSH2 0x388 PUSH1 0x4 DUP1 CALLDATASIZE SUB DUP2 ADD SWAP1 PUSH2 0x383 SWAP2 SWAP1 PUSH2 0x1448 JUMP JUMPDEST PUSH2 0xD6E JUMP JUMPDEST PUSH1 0x40 MLOAD PUSH2 0x395 SWAP2 SWAP1 PUSH2 0x137A JUMP JUMPDEST PUSH1 0x40 MLOAD DUP1 SWAP2 SUB SWAP1 RETURN JUMPDEST PUSH2 0x3B8 PUSH1 0x4 DUP1 CALLDATASIZE SUB DUP2 ADD SWAP1 PUSH2 0x3B3 SWAP2 SWAP1 PUSH2 0x12A3 JUMP JUMPDEST PUSH2 0xE1A JUMP JUMPDEST STOP JUMPDEST PUSH1 0x60 PUSH1 0x3 DUP1 SLOAD DUP1 PUSH1 0x20 MUL PUSH1 0x20 ADD PUSH1 0x40 MLOAD SWAP1 DUP2 ADD PUSH1 0x40 MSTORE DUP1 SWAP3 SWAP2 SWAP1 DUP2 DUP2 MSTORE PUSH1 0x20 ADD PUSH1 0x0 SWAP1 JUMPDEST DUP3 DUP3 LT ISZERO PUSH2 0x48A JUMPI DUP4 DUP3 SWAP1 PUSH1 0x0 MSTORE PUSH1 0x20 PUSH1 0x0 KECCAK256 ADD DUP1 SLOAD PUSH2 0x3FD SWAP1 PUSH2 0x14A4 JUMP JUMPDEST DUP1 PUSH1 0x1F ADD PUSH1 0x20 DUP1 SWAP2 DIV MUL PUSH1 0x20 ADD PUSH1 0x40 MLOAD SWAP1 DUP2 ADD PUSH1 0x40 MSTORE DUP1 SWAP3 SWAP2 SWAP1 DUP2 DUP2 MSTORE PUSH1 0x20 ADD DUP3 DUP1 SLOAD PUSH2 0x429 SWAP1 PUSH2 0x14A4 JUMP JUMPDEST DUP1 ISZERO PUSH2 0x476 JUMPI DUP1 PUSH1 0x1F LT PUSH2 0x44B JUMPI PUSH2 0x100 DUP1 DUP4 SLOAD DIV MUL DUP4 MSTORE SWAP2 PUSH1 0x20 ADD SWAP2 PUSH2 0x476 JUMP JUMPDEST DUP3 ADD SWAP2 SWAP1 PUSH1 0x0 MSTORE PUSH1 0x20 PUSH1 0x0 KECCAK256 SWAP1 JUMPDEST DUP2 SLOAD DUP2 MSTORE SWAP1 PUSH1 0x1 ADD SWAP1 PUSH1 0x20 ADD DUP1 DUP4 GT PUSH2 0x459 JUMPI DUP3 SWAP1 SUB PUSH1 0x1F AND DUP3 ADD SWAP2 JUMPDEST POP POP POP POP POP DUP2 MSTORE PUSH1 0x20 ADD SWAP1 PUSH1 0x1 ADD SWAP1 PUSH2 0x3DE JUMP JUMPDEST POP POP POP POP SWAP1 POP SWAP1 JUMP JUMPDEST PUSH1 0x6 PUSH1 0x20 MSTORE DUP1 PUSH1 0x0 MSTORE PUSH1 0x40 PUSH1 0x0 KECCAK256 PUSH1 0x0 SWAP2 POP SLOAD SWAP1 PUSH2 0x100 EXP SWAP1 DIV PUSH4 0xFFFFFFFF AND DUP2 JUMP JUMPDEST PUSH1 0x0 PUSH1 0x14 SWAP1 SLOAD SWAP1 PUSH2 0x100 EXP SWAP1 DIV PUSH1 0xFF AND DUP2 JUMP JUMPDEST PUSH1 0x5 PUSH1 0x20 MSTORE DUP1 PUSH1 0x0 MSTORE PUSH1 0x40 PUSH1 0x0 KECCAK256 PUSH1 0x0 SWAP2 POP SLOAD SWAP1 PUSH2 0x100 EXP SWAP1 DIV PUSH1 0xFF AND DUP2 JUMP JUMPDEST PUSH1 0x0 DUP1 SLOAD SWAP1 PUSH2 0x100 EXP SWAP1 DIV PUSH20 0xFFFFFFFFFFFFFFFFFFFFFFFFFFFFFFFFFFFFFFFF AND DUP2 JUMP JUMPDEST PUSH1 0x2 DUP1 SLOAD PUSH2 0x51A SWAP1 PUSH2 0x14A4 JUMP JUMPDEST DUP1 PUSH1 0x1F ADD PUSH1 0x20 DUP1 SWAP2 DIV MUL PUSH1 0x20 ADD PUSH1 0x40 MLOAD SWAP1 DUP2 ADD PUSH1 0x40 MSTORE DUP1 SWAP3 SWAP2 SWAP1 DUP2 DUP2 MSTORE PUSH1 0x20 ADD DUP3 DUP1 SLOAD PUSH2 0x546 SWAP1 PUSH2 0x14A4 JUMP JUMPDEST DUP1 ISZERO PUSH2 0x593 JUMPI DUP1 PUSH1 0x1F LT PUSH2 0x568 JUMPI PUSH2 0x100 DUP1 DUP4 SLOAD DIV MUL DUP4 MSTORE SWAP2 PUSH1 0x20 ADD SWAP2 PUSH2 0x593 JUMP JUMPDEST DUP3 ADD SWAP2 SWAP1 PUSH1 0x0 MSTORE PUSH1 0x20 PUSH1 0x0 KECCAK256 SWAP1 JUMPDEST DUP2 SLOAD DUP2 MSTORE SWAP1 PUSH1 0x1 ADD SWAP1 PUSH1 0x20 ADD DUP1 DUP4 GT PUSH2 0x576 JUMPI DUP3 SWAP1 SUB PUSH1 0x1F AND DUP3 ADD SWAP2 JUMPDEST POP POP POP POP POP DUP2 JUMP JUMPDEST PUSH1 0x0 DUP1 PUSH1 0x0 DUP1 PUSH1 0x0 DUP1 PUSH1 0x60 PUSH1 0x0 DUP1 SLOAD SWAP1 PUSH2 0x100 EXP SWAP1 DIV PUSH20 0xFFFFFFFFFFFFFFFFFFFFFFFFFFFFFFFFFFFFFFFF AND PUSH1 0x0 PUSH1 0x14 SWAP1 SLOAD SWAP1 PUSH2 0x100 EXP SWAP1 DIV PUSH1 0xFF AND PUSH1 0x0 PUSH1 0x16 SWAP1 SLOAD SWAP1 PUSH2 0x100 EXP SWAP1 DIV PUSH4 0xFFFFFFFF AND PUSH1 0x0 PUSH1 0x1A SWAP1 SLOAD SWAP1 PUSH2 0x100 EXP SWAP1 DIV PUSH4 0xFFFFFFFF AND PUSH1 0x0 PUSH1 0x15 SWAP1 SLOAD SWAP1 PUSH2 0x100 EXP SWAP1 DIV PUSH1 0xFF AND PUSH1 0x1 PUSH1 0x0 SWAP1 SLOAD SWAP1 PUSH2 0x100 EXP SWAP1 DIV PUSH4 0xFFFFFFFF AND PUSH1 0x2 DUP1 DUP1 SLOAD PUSH2 0x62E SWAP1 PUSH2 0x14A4 JUMP JUMPDEST DUP1 PUSH1 0x1F ADD PUSH1 0x20 DUP1 SWAP2 DIV MUL PUSH1 0x20 ADD PUSH1 0x40 MLOAD SWAP1 DUP2 ADD PUSH1 0x40 MSTORE DUP1 SWAP3 SWAP2 SWAP1 DUP2 DUP2 MSTORE PUSH1 0x20 ADD DUP3 DUP1 SLOAD PUSH2 0x65A SWAP1 PUSH2 0x14A4 JUMP JUMPDEST DUP1 ISZERO PUSH2 0x6A7 JUMPI DUP1 PUSH1 0x1F LT PUSH2 0x67C JUMPI PUSH2 0x100 DUP1 DUP4 SLOAD DIV MUL DUP4 MSTORE SWAP2 PUSH1 0x20 ADD SWAP2 PUSH2 0x6A7 JUMP JUMPDEST DUP3 ADD SWAP2 SWAP1 PUSH1 0x0 MSTORE PUSH1 0x20 PUSH1 0x0 KECCAK256 SWAP1 JUMPDEST DUP2 SLOAD DUP2 MSTORE SWAP1 PUSH1 0x1 ADD SWAP1 PUSH1 0x20 ADD DUP1 DUP4 GT PUSH2 0x68A JUMPI DUP3 SWAP1 SUB PUSH1 0x1F AND DUP3 ADD SWAP2 JUMPDEST POP POP POP POP POP SWAP1 POP SWAP7 POP SWAP7 POP SWAP7 POP SWAP7 POP SWAP7 POP SWAP7 POP SWAP7 POP SWAP1 SWAP2 SWAP3 SWAP4 SWAP5 SWAP6 SWAP7 JUMP JUMPDEST PUSH1 0x0 DUP1 SLOAD SWAP1 PUSH2 0x100 EXP SWAP1 DIV PUSH20 0xFFFFFFFFFFFFFFFFFFFFFFFFFFFFFFFFFFFFFFFF AND PUSH20 0xFFFFFFFFFFFFFFFFFFFFFFFFFFFFFFFFFFFFFFFF AND CALLER PUSH20 0xFFFFFFFFFFFFFFFFFFFFFFFFFFFFFFFFFFFFFFFF AND EQ PUSH2 0x753 JUMPI PUSH1 0x40 MLOAD PUSH32 0x8C379A000000000000000000000000000000000000000000000000000000000 DUP2 MSTORE PUSH1 0x4 ADD PUSH2 0x74A SWAP1 PUSH2 0x1521 JUMP JUMPDEST PUSH1 0x40 MLOAD DUP1 SWAP2 SUB SWAP1 REVERT JUMPDEST PUSH1 0x0 PUSH1 0x15 SWAP1 SLOAD SWAP1 PUSH2 0x100 EXP SWAP1 DIV PUSH1 0xFF AND ISZERO PUSH2 0x7A3 JUMPI PUSH1 0x40 MLOAD PUSH32 0x8C379A000000000000000000000000000000000000000000000000000000000 DUP2 MSTORE PUSH1 0x4 ADD PUSH2 0x79A SWAP1 PUSH2 0x158D JUMP JUMPDEST PUSH1 0x40 MLOAD DUP1 SWAP2 SUB SWAP1 REVERT JUMPDEST PUSH1 0x0 PUSH1 0x1A SWAP1 SLOAD SWAP1 PUSH2 0x100 EXP SWAP1 DIV PUSH4 0xFFFFFFFF AND PUSH4 0xFFFFFFFF AND TIMESTAMP GT PUSH2 0x7FD JUMPI PUSH1 0x40 MLOAD PUSH32 0x8C379A000000000000000000000000000000000000000000000000000000000 DUP2 MSTORE PUSH1 0x4 ADD PUSH2 0x7F4 SWAP1 PUSH2 0x15F9 JUMP JUMPDEST PUSH1 0x40 MLOAD DUP1 SWAP2 SUB SWAP1 REVERT JUMPDEST PUSH1 0x1 PUSH1 0x0 PUSH1 0x15 PUSH2 0x100 EXP DUP2 SLOAD DUP2 PUSH1 0xFF MUL NOT AND SWAP1 DUP4 ISZERO ISZERO MUL OR SWAP1 SSTORE POP PUSH32 0xFA4C46064339896F4EF55EEAC982A9E8BD0DBEBE83ED7978CF168FA14F679F70 PUSH1 0x40 MLOAD PUSH1 0x40 MLOAD DUP1 SWAP2 SUB SWAP1 LOG1 JUMP JUMPDEST PUSH1 0x60 PUSH1 0x0 PUSH1 0x14 SWAP1 SLOAD SWAP1 PUSH2 0x100 EXP SWAP1 DIV PUSH1 0xFF AND PUSH1 0xFF AND DUP3 PUSH1 0xFF AND LT PUSH2 0x89F JUMPI PUSH1 0x40 MLOAD PUSH32 0x8C379A000000000000000000000000000000000000000000000000000000000 DUP2 MSTORE PUSH1 0x4 ADD PUSH2 0x896 SWAP1 PUSH2 0x1665 JUMP JUMPDEST PUSH1 0x40 MLOAD DUP1 SWAP2 SUB SWAP1 REVERT JUMPDEST PUSH1 0x3 DUP3 PUSH1 0xFF AND DUP2 SLOAD DUP2 LT PUSH2 0x8B6 JUMPI PUSH2 0x8B5 PUSH2 0x1685 JUMP JUMPDEST JUMPDEST SWAP1 PUSH1 0x0 MSTORE PUSH1 0x20 PUSH1 0x0 KECCAK256 ADD DUP1 SLOAD PUSH2 0x8CB SWAP1 PUSH2 0x14A4 JUMP JUMPDEST DUP1 PUSH1 0x1F ADD PUSH1 0x20 DUP1 SWAP2 DIV MUL PUSH1 0x20 ADD PUSH1 0x40 MLOAD SWAP1 DUP2 ADD PUSH1 0x40 MSTORE DUP1 SWAP3 SWAP2 SWAP1 DUP2 DUP2 MSTORE PUSH1 0x20 ADD DUP3 DUP1 SLOAD PUSH2 0x8F7 SWAP1 PUSH2 0x14A4 JUMP JUMPDEST DUP1 ISZERO PUSH2 0x944 JUMPI DUP1 PUSH1 0x1F LT PUSH2 0x919 JUMPI PUSH2 0x100 DUP1 DUP4 SLOAD DIV MUL DUP4 MSTORE SWAP2 PUSH1 0x20 ADD SWAP2 PUSH2 0x944 JUMP JUMPDEST DUP3 ADD SWAP2 SWAP1 PUSH1 0x0 MSTORE PUSH1 0x20 PUSH1 0x0 KECCAK256 SWAP1 JUMPDEST DUP2 SLOAD DUP2 MSTORE SWAP1 PUSH1 0x1 ADD SWAP1 PUSH1 0x20 ADD DUP1 DUP4 GT PUSH2 0x927 JUMPI DUP3 SWAP1 SUB PUSH1 0x1F AND DUP3 ADD SWAP2 JUMPDEST POP POP POP POP POP SWAP1 POP SWAP2 SWAP1 POP JUMP JUMPDEST PUSH1 0x1 PUSH1 0x4 SWAP1 SLOAD SWAP1 PUSH2 0x100 EXP SWAP1 DIV PUSH4 0xFFFFFFFF AND DUP2 JUMP JUMPDEST PUSH1 0x1 PUSH1 0x0 SWAP1 SLOAD SWAP1 PUSH2 0x100 EXP SWAP1 DIV PUSH4 0xFFFFFFFF AND DUP2 JUMP JUMPDEST PUSH1 0x0 PUSH1 0x6 PUSH1 0x0 DUP4 PUSH1 0xFF AND PUSH1 0xFF AND DUP2 MSTORE PUSH1 0x20 ADD SWAP1 DUP2 MSTORE PUSH1 0x20 ADD PUSH1 0x0 KECCAK256 PUSH1 0x0 SWAP1 SLOAD SWAP1 PUSH2 0x100 EXP SWAP1 DIV PUSH4 0xFFFFFFFF AND SWAP1 POP SWAP2 SWAP1 POP JUMP JUMPDEST PUSH1 0x0 PUSH1 0x15 SWAP1 SLOAD SWAP1 PUSH2 0x100 EXP SWAP1 DIV PUSH1 0xFF AND DUP2 JUMP JUMPDEST PUSH1 0x4 PUSH1 0x20 MSTORE DUP1 PUSH1 0x0 MSTORE PUSH1 0x40 PUSH1 0x0 KECCAK256 PUSH1 0x0 SWAP2 POP SLOAD SWAP1 PUSH2 0x100 EXP SWAP1 DIV PUSH1 0xFF AND DUP2 JUMP JUMPDEST PUSH1 0x0 PUSH1 0x16 SWAP1 SLOAD SWAP1 PUSH2 0x100 EXP SWAP1 DIV PUSH4 0xFFFFFFFF AND DUP2 JUMP JUMPDEST PUSH1 0x5 PUSH1 0x0 CALLER PUSH20 0xFFFFFFFFFFFFFFFFFFFFFFFFFFFFFFFFFFFFFFFF AND PUSH20 0xFFFFFFFFFFFFFFFFFFFFFFFFFFFFFFFFFFFFFFFF AND DUP2 MSTORE PUSH1 0x20 ADD SWAP1 DUP2 MSTORE PUSH1 0x20 ADD PUSH1 0x0 KECCAK256 PUSH1 0x0 SWAP1 SLOAD SWAP1 PUSH2 0x100 EXP SWAP1 DIV PUSH1 0xFF AND PUSH2 0xA84 JUMPI PUSH1 0x40 MLOAD PUSH32 0x8C379A000000000000000000000000000000000000000000000000000000000 DUP2 MSTORE PUSH1 0x4 ADD PUSH2 0xA7B SWAP1 PUSH2 0x1700 JUMP JUMPDEST PUSH1 0x40 MLOAD DUP1 SWAP2 SUB SWAP1 REVERT JUMPDEST PUSH1 0x4 PUSH1 0x0 CALLER PUSH20 0xFFFFFFFFFFFFFFFFFFFFFFFFFFFFFFFFFFFFFFFF AND PUSH20 0xFFFFFFFFFFFFFFFFFFFFFFFFFFFFFFFFFFFFFFFF AND DUP2 MSTORE PUSH1 0x20 ADD SWAP1 DUP2 MSTORE PUSH1 0x20 ADD PUSH1 0x0 KECCAK256 PUSH1 0x0 SWAP1 SLOAD SWAP1 PUSH2 0x100 EXP SWAP1 DIV PUSH1 0xFF AND ISZERO PUSH2 0xB11 JUMPI PUSH1 0x40 MLOAD PUSH32 0x8C379A000000000000000000000000000000000000000000000000000000000 DUP2 MSTORE PUSH1 0x4 ADD PUSH2 0xB08 SWAP1 PUSH2 0x176C JUMP JUMPDEST PUSH1 0x40 MLOAD DUP1 SWAP2 SUB SWAP1 REVERT JUMPDEST PUSH1 0x0 PUSH1 0x15 SWAP1 SLOAD SWAP1 PUSH2 0x100 EXP SWAP1 DIV PUSH1 0xFF AND ISZERO PUSH2 0xB61 JUMPI PUSH1 0x40 MLOAD PUSH32 0x8C379A000000000000000000000000000000000000000000000000000000000 DUP2 MSTORE PUSH1 0x4 ADD PUSH2 0xB58 SWAP1 PUSH2 0x17D8 JUMP JUMPDEST PUSH1 0x40 MLOAD DUP1 SWAP2 SUB SWAP1 REVERT JUMPDEST PUSH1 0x0 PUSH1 0x16 SWAP1 SLOAD SWAP1 PUSH2 0x100 EXP SWAP1 DIV PUSH4 0xFFFFFFFF AND PUSH4 0xFFFFFFFF AND TIMESTAMP LT ISZERO DUP1 ISZERO PUSH2 0xBA1 JUMPI POP PUSH1 0x0 PUSH1 0x1A SWAP1 SLOAD SWAP1 PUSH2 0x100 EXP SWAP1 DIV PUSH4 0xFFFFFFFF AND PUSH4 0xFFFFFFFF AND TIMESTAMP GT ISZERO JUMPDEST PUSH2 0xBE0 JUMPI PUSH1 0x40 MLOAD PUSH32 0x8C379A000000000000000000000000000000000000000000000000000000000 DUP2 MSTORE PUSH1 0x4 ADD PUSH2 0xBD7 SWAP1 PUSH2 0x1844 JUMP JUMPDEST PUSH1 0x40 MLOAD DUP1 SWAP2 SUB SWAP1 REVERT JUMPDEST PUSH1 0x0 PUSH1 0x14 SWAP1 SLOAD SWAP1 PUSH2 0x100 EXP SWAP1 DIV PUSH1 0xFF AND PUSH1 0xFF AND DUP2 PUSH1 0xFF AND LT PUSH2 0xC37 JUMPI PUSH1 0x40 MLOAD PUSH32 0x8C379A000000000000000000000000000000000000000000000000000000000 DUP2 MSTORE PUSH1 0x4 ADD PUSH2 0xC2E SWAP1 PUSH2 0x1665 JUMP JUMPDEST PUSH1 0x40 MLOAD DUP1 SWAP2 SUB SWAP1 REVERT JUMPDEST PUSH1 0x1 PUSH1 0x4 PUSH1 0x0 CALLER PUSH20 0xFFFFFFFFFFFFFFFFFFFFFFFFFFFFFFFFFFFFFFFF AND PUSH20 0xFFFFFFFFFFFFFFFFFFFFFFFFFFFFFFFFFFFFFFFF AND DUP2 MSTORE PUSH1 0x20 ADD SWAP1 DUP2 MSTORE PUSH1 0x20 ADD PUSH1 0x0 KECCAK256 PUSH1 0x0 PUSH2 0x100 EXP DUP2 SLOAD DUP2 PUSH1 0xFF MUL NOT AND SWAP1 DUP4 ISZERO ISZERO MUL OR SWAP1 SSTORE POP PUSH1 0x6 PUSH1 0x0 DUP3 PUSH1 0xFF AND PUSH1 0xFF AND DUP2 MSTORE PUSH1 0x20 ADD SWAP1 DUP2 MSTORE PUSH1 0x20 ADD PUSH1 0x0 KECCAK256 PUSH1 0x0 DUP2 DUP2 SWAP1 SLOAD SWAP1 PUSH2 0x100 EXP SWAP1 DIV PUSH4 0xFFFFFFFF AND DUP1 SWAP3 SWAP2 SWAP1 PUSH1 0x1 ADD SWAP2 SWAP1 PUSH2 0x100 EXP DUP2 SLOAD DUP2 PUSH4 0xFFFFFFFF MUL NOT AND SWAP1 DUP4 PUSH4 0xFFFFFFFF AND MUL OR SWAP1 SSTORE POP POP PUSH1 0x1 PUSH1 0x0 DUP2 DUP2 SWAP1 SLOAD SWAP1 PUSH2 0x100 EXP SWAP1 DIV PUSH4 0xFFFFFFFF AND DUP1 SWAP3 SWAP2 SWAP1 PUSH1 0x1 ADD SWAP2 SWAP1 PUSH2 0x100 EXP DUP2 SLOAD DUP2 PUSH4 0xFFFFFFFF MUL NOT AND SWAP1 DUP4 PUSH4 0xFFFFFFFF AND MUL OR SWAP1 SSTORE POP POP PUSH32 0xEFFFA0C001F10A86D936643C098510EBA656FFAB1D0C5165822B79D4C895E88F CALLER DUP3 PUSH1 0x40 MLOAD PUSH2 0xD4D SWAP3 SWAP2 SWAP1 PUSH2 0x1864 JUMP JUMPDEST PUSH1 0x40 MLOAD DUP1 SWAP2 SUB SWAP1 LOG1 POP JUMP JUMPDEST PUSH1 0x0 PUSH1 0x1A SWAP1 SLOAD SWAP1 PUSH2 0x100 EXP SWAP1 DIV PUSH4 0xFFFFFFFF AND DUP2 JUMP JUMPDEST PUSH1 0x3 DUP2 DUP2 SLOAD DUP2 LT PUSH2 0xD7E JUMPI PUSH1 0x0 DUP1 REVERT JUMPDEST SWAP1 PUSH1 0x0 MSTORE PUSH1 0x20 PUSH1 0x0 KECCAK256 ADD PUSH1 0x0 SWAP2 POP SWAP1 POP DUP1 SLOAD PUSH2 0xD99 SWAP1 PUSH2 0x14A4 JUMP JUMPDEST DUP1 PUSH1 0x1F ADD PUSH1 0x20 DUP1 SWAP2 DIV MUL PUSH1 0x20 ADD PUSH1 0x40 MLOAD SWAP1 DUP2 ADD PUSH1 0x40 MSTORE DUP1 SWAP3 SWAP2 SWAP1 DUP2 DUP2 MSTORE PUSH1 0x20 ADD DUP3 DUP1 SLOAD PUSH2 0xDC5 SWAP1 PUSH2 0x14A4 JUMP JUMPDEST DUP1 ISZERO PUSH2 0xE12 JUMPI DUP1 PUSH1 0x1F LT PUSH2 0xDE7 JUMPI PUSH2 0x100 DUP1 DUP4 SLOAD DIV MUL DUP4 MSTORE SWAP2 PUSH1 0x20 ADD SWAP2 PUSH2 0xE12 JUMP JUMPDEST DUP3 ADD SWAP2 SWAP1 PUSH1 0x0 MSTORE PUSH1 0x20 PUSH1 0x0 KECCAK256 SWAP1 JUMPDEST DUP2 SLOAD DUP2 MSTORE SWAP1 PUSH1 0x1 ADD SWAP1 PUSH1 0x20 ADD DUP1 DUP4 GT PUSH2 0xDF5 JUMPI DUP3 SWAP1 SUB PUSH1 0x1F AND DUP3 ADD SWAP2 JUMPDEST POP POP POP POP POP DUP2 JUMP JUMPDEST PUSH1 0x0 DUP1 SLOAD SWAP1 PUSH2 0x100 EXP SWAP1 DIV PUSH20 0xFFFFFFFFFFFFFFFFFFFFFFFFFFFFFFFFFFFFFFFF AND PUSH20 0xFFFFFFFFFFFFFFFFFFFFFFFFFFFFFFFFFFFFFFFF AND CALLER PUSH20 0xFFFFFFFFFFFFFFFFFFFFFFFFFFFFFFFFFFFFFFFF AND EQ PUSH2 0xEA8 JUMPI PUSH1 0x40 MLOAD PUSH32 0x8C379A000000000000000000000000000000000000000000000000000000000 DUP2 MSTORE PUSH1 0x4 ADD PUSH2 0xE9F SWAP1 PUSH2 0x1521 JUMP JUMPDEST PUSH1 0x40 MLOAD DUP1 SWAP2 SUB SWAP1 REVERT JUMPDEST PUSH1 0x5 PUSH1 0x0 DUP3 PUSH20 0xFFFFFFFFFFFFFFFFFFFFFFFFFFFFFFFFFFFFFFFF AND PUSH20 0xFFFFFFFFFFFFFFFFFFFFFFFFFFFFFFFFFFFFFFFF AND DUP2 MSTORE PUSH1 0x20 ADD SWAP1 DUP2 MSTORE PUSH1 0x20 ADD PUSH1 0x0 KECCAK256 PUSH1 0x0 SWAP1 SLOAD SWAP1 PUSH2 0x100 EXP SWAP1 DIV PUSH1 0xFF AND ISZERO PUSH2 0xF35 JUMPI PUSH1 0x40 MLOAD PUSH32 0x8C379A000000000000000000000000000000000000000000000000000000000 DUP2 MSTORE PUSH1 0x4 ADD PUSH2 0xF2C SWAP1 PUSH2 0x18D9 JUMP JUMPDEST PUSH1 0x40 MLOAD DUP1 SWAP2 SUB SWAP1 REVERT JUMPDEST PUSH1 0x1 PUSH1 0x5 PUSH1 0x0 DUP4 PUSH20 0xFFFFFFFFFFFFFFFFFFFFFFFFFFFFFFFFFFFFFFFF AND PUSH20 0xFFFFFFFFFFFFFFFFFFFFFFFFFFFFFFFFFFFFFFFF AND DUP2 MSTORE PUSH1 0x20 ADD SWAP1 DUP2 MSTORE PUSH1 0x20 ADD PUSH1 0x0 KECCAK256 PUSH1 0x0 PUSH2 0x100 EXP DUP2 SLOAD DUP2 PUSH1 0xFF MUL NOT AND SWAP1 DUP4 ISZERO ISZERO MUL OR SWAP1 SSTORE POP PUSH1 0x1 PUSH1 0x4 DUP2 DUP2 SWAP1 SLOAD SWAP1 PUSH2 0x100 EXP SWAP1 DIV PUSH4 0xFFFFFFFF AND DUP1 SWAP3 SWAP2 SWAP1 PUSH1 0x1 ADD SWAP2 SWAP1 PUSH2 0x100 EXP DUP2 SLOAD DUP2 PUSH4 0xFFFFFFFF MUL NOT AND SWAP1 DUP4 PUSH4 0xFFFFFFFF AND MUL OR SWAP1 SSTORE POP POP PUSH32 0xA636F4A11E2D3BA7F89D042ECB0A6B886716E98CD49D8FD876EE0F73BCED42B8 DUP2 PUSH1 0x40 MLOAD PUSH2 0xFF7 SWAP2 SWAP1 PUSH2 0x1315 JUMP JUMPDEST PUSH1 0x40 MLOAD DUP1 SWAP2 SUB SWAP1 LOG1 POP JUMP JUMPDEST PUSH1 0x0 DUP2 MLOAD SWAP1 POP SWAP2 SWAP1 POP JUMP JUMPDEST PUSH1 0x0 DUP3 DUP3 MSTORE PUSH1 0x20 DUP3 ADD SWAP1 POP SWAP3 SWAP2 POP POP JUMP JUMPDEST PUSH1 0x0 DUP2 SWAP1 POP PUSH1 0x20 DUP3 ADD SWAP1 POP SWAP2 SWAP1 POP JUMP JUMPDEST PUSH1 0x0 DUP2 MLOAD SWAP1 POP SWAP2 SWAP1 POP JUMP JUMPDEST PUSH1 0x0 DUP3 DUP3 MSTORE PUSH1 0x20 DUP3 ADD SWAP1 POP SWAP3 SWAP2 POP POP JUMP JUMPDEST PUSH1 0x0 JUMPDEST DUP4 DUP2 LT ISZERO PUSH2 0x1068 JUMPI DUP1 DUP3 ADD MLOAD DUP2 DUP5 ADD MSTORE PUSH1 0x20 DUP2 ADD SWAP1 POP PUSH2 0x104D JUMP JUMPDEST PUSH1 0x0 DUP5 DUP5 ADD MSTORE POP POP POP POP JUMP JUMPDEST PUSH1 0x0 PUSH1 0x1F NOT PUSH1 0x1F DUP4 ADD AND SWAP1 POP SWAP2 SWAP1 POP JUMP JUMPDEST PUSH1 0x0 PUSH2 0x1090 DUP3 PUSH2 0x102E JUMP JUMPDEST PUSH2 0x109A DUP2 DUP6 PUSH2 0x1039 JUMP JUMPDEST SWAP4 POP PUSH2 0x10AA DUP2 DUP6 PUSH1 0x20 DUP7 ADD PUSH2 0x104A JUMP JUMPDEST PUSH2 0x10B3 DUP2 PUSH2 0x1074 JUMP JUMPDEST DUP5 ADD SWAP2 POP POP SWAP3 SWAP2 POP POP JUMP JUMPDEST PUSH1 0x0 PUSH2 0x10CA DUP4 DUP4 PUSH2 0x1085 JUMP JUMPDEST SWAP1 POP SWAP3 SWAP2 POP POP JUMP JUMPDEST PUSH1 0x0 PUSH1 0x20 DUP3 ADD SWAP1 POP SWAP2 SWAP1 POP JUMP JUMPDEST PUSH1 0x0 PUSH2 0x10EA DUP3 PUSH2 0x1002 JUMP JUMPDEST PUSH2 0x10F4 DUP2 DUP6 PUSH2 0x100D JUMP JUMPDEST SWAP4 POP DUP4 PUSH1 0x20 DUP3 MUL DUP6 ADD PUSH2 0x1106 DUP6 PUSH2 0x101E JUMP JUMPDEST DUP1 PUSH1 0x0 JUMPDEST DUP6 DUP2 LT ISZERO PUSH2 0x1142 JUMPI DUP5 DUP5 SUB DUP10 MSTORE DUP2 MLOAD PUSH2 0x1123 DUP6 DUP3 PUSH2 0x10BE JUMP JUMPDEST SWAP5 POP PUSH2 0x112E DUP4 PUSH2 0x10D2 JUMP JUMPDEST SWAP3 POP PUSH1 0x20 DUP11 ADD SWAP10 POP POP PUSH1 0x1 DUP2 ADD SWAP1 POP PUSH2 0x110A JUMP JUMPDEST POP DUP3 SWAP8 POP DUP8 SWAP6 POP POP POP POP POP POP SWAP3 SWAP2 POP POP JUMP JUMPDEST PUSH1 0x0 PUSH1 0x20 DUP3 ADD SWAP1 POP DUP2 DUP2 SUB PUSH1 0x0 DUP4 ADD MSTORE PUSH2 0x116E DUP2 DUP5 PUSH2 0x10DF JUMP JUMPDEST SWAP1 POP SWAP3 SWAP2 POP POP JUMP JUMPDEST PUSH1 0x0 DUP1 REVERT JUMPDEST PUSH1 0x0 PUSH1 0xFF DUP3 AND SWAP1 POP SWAP2 SWAP1 POP JUMP JUMPDEST PUSH2 0x1191 DUP2 PUSH2 0x117B JUMP JUMPDEST DUP2 EQ PUSH2 0x119C JUMPI PUSH1 0x0 DUP1 REVERT JUMPDEST POP JUMP JUMPDEST PUSH1 0x0 DUP2 CALLDATALOAD SWAP1 POP PUSH2 0x11AE DUP2 PUSH2 0x1188 JUMP JUMPDEST SWAP3 SWAP2 POP POP JUMP JUMPDEST PUSH1 0x0 PUSH1 0x20 DUP3 DUP5 SUB SLT ISZERO PUSH2 0x11CA JUMPI PUSH2 0x11C9 PUSH2 0x1176 JUMP JUMPDEST JUMPDEST PUSH1 0x0 PUSH2 0x11D8 DUP5 DUP3 DUP6 ADD PUSH2 0x119F JUMP JUMPDEST SWAP2 POP POP SWAP3 SWAP2 POP POP JUMP JUMPDEST PUSH1 0x0 PUSH4 0xFFFFFFFF DUP3 AND SWAP1 POP SWAP2 SWAP1 POP JUMP JUMPDEST PUSH2 0x11FA DUP2 PUSH2 0x11E1 JUMP JUMPDEST DUP3 MSTORE POP POP JUMP JUMPDEST PUSH1 0x0 PUSH1 0x20 DUP3 ADD SWAP1 POP PUSH2 0x1215 PUSH1 0x0 DUP4 ADD DUP5 PUSH2 0x11F1 JUMP JUMPDEST SWAP3 SWAP2 POP POP JUMP JUMPDEST PUSH2 0x1224 DUP2 PUSH2 0x117B JUMP JUMPDEST DUP3 MSTORE POP POP JUMP JUMPDEST PUSH1 0x0 PUSH1 0x20 DUP3 ADD SWAP1 POP PUSH2 0x123F PUSH1 0x0 DUP4 ADD DUP5 PUSH2 0x121B JUMP JUMPDEST SWAP3 SWAP2 POP POP JUMP JUMPDEST PUSH1 0x0 PUSH20 0xFFFFFFFFFFFFFFFFFFFFFFFFFFFFFFFFFFFFFFFF DUP3 AND SWAP1 POP SWAP2 SWAP1 POP JUMP JUMPDEST PUSH1 0x0 PUSH2 0x1270 DUP3 PUSH2 0x1245 JUMP JUMPDEST SWAP1 POP SWAP2 SWAP1 POP JUMP JUMPDEST PUSH2 0x1280 DUP2 PUSH2 0x1265 JUMP JUMPDEST DUP2 EQ PUSH2 0x128B JUMPI PUSH1 0x0 DUP1 REVERT JUMPDEST POP JUMP JUMPDEST PUSH1 0x0 DUP2 CALLDATALOAD SWAP1 POP PUSH2 0x129D DUP2 PUSH2 0x1277 JUMP JUMPDEST SWAP3 SWAP2 POP POP JUMP JUMPDEST PUSH1 0x0 PUSH1 0x20 DUP3 DUP5 SUB SLT ISZERO PUSH2 0x12B9 JUMPI PUSH2 0x12B8 PUSH2 0x1176 JUMP JUMPDEST JUMPDEST PUSH1 0x0 PUSH2 0x12C7 DUP5 DUP3 DUP6 ADD PUSH2 0x128E JUMP JUMPDEST SWAP2 POP POP SWAP3 SWAP2 POP POP JUMP JUMPDEST PUSH1 0x0 DUP2 ISZERO ISZERO SWAP1 POP SWAP2 SWAP1 POP JUMP JUMPDEST PUSH2 0x12E5 DUP2 PUSH2 0x12D0 JUMP JUMPDEST DUP3 MSTORE POP POP JUMP JUMPDEST PUSH1 0x0 PUSH1 0x20 DUP3 ADD SWAP1 POP PUSH2 0x1300 PUSH1 0x0 DUP4 ADD DUP5 PUSH2 0x12DC JUMP JUMPDEST SWAP3 SWAP2 POP POP JUMP JUMPDEST PUSH2 0x130F DUP2 PUSH2 0x1265 JUMP JUMPDEST DUP3 MSTORE POP POP JUMP JUMPDEST PUSH1 0x0 PUSH1 0x20 DUP3 ADD SWAP1 POP PUSH2 0x132A PUSH1 0x0 DUP4 ADD DUP5 PUSH2 0x1306 JUMP JUMPDEST SWAP3 SWAP2 POP POP JUMP JUMPDEST PUSH1 0x0 DUP3 DUP3 MSTORE PUSH1 0x20 DUP3 ADD SWAP1 POP SWAP3 SWAP2 POP POP JUMP JUMPDEST PUSH1 0x0 PUSH2 0x134C DUP3 PUSH2 0x102E JUMP JUMPDEST PUSH2 0x1356 DUP2 DUP6 PUSH2 0x1330 JUMP JUMPDEST SWAP4 POP PUSH2 0x1366 DUP2 DUP6 PUSH1 0x20 DUP7 ADD PUSH2 0x104A JUMP JUMPDEST PUSH2 0x136F DUP2 PUSH2 0x1074 JUMP JUMPDEST DUP5 ADD SWAP2 POP POP SWAP3 SWAP2 POP POP JUMP JUMPDEST PUSH1 0x0 PUSH1 0x20 DUP3 ADD SWAP1 POP DUP2 DUP2 SUB PUSH1 0x0 DUP4 ADD MSTORE PUSH2 0x1394 DUP2 DUP5 PUSH2 0x1341 JUMP JUMPDEST SWAP1 POP SWAP3 SWAP2 POP POP JUMP JUMPDEST PUSH1 0x0 PUSH1 0xE0 DUP3 ADD SWAP1 POP PUSH2 0x13B1 PUSH1 0x0 DUP4 ADD DUP11 PUSH2 0x1306 JUMP JUMPDEST PUSH2 0x13BE PUSH1 0x20 DUP4 ADD DUP10 PUSH2 0x121B JUMP JUMPDEST PUSH2 0x13CB PUSH1 0x40 DUP4 ADD DUP9 PUSH2 0x11F1 JUMP JUMPDEST PUSH2 0x13D8 PUSH1 0x60 DUP4 ADD DUP8 PUSH2 0x11F1 JUMP JUMPDEST PUSH2 0x13E5 PUSH1 0x80 DUP4 ADD DUP7 PUSH2 0x12DC JUMP JUMPDEST PUSH2 0x13F2 PUSH1 0xA0 DUP4 ADD DUP6 PUSH2 0x11F1 JUMP JUMPDEST DUP2 DUP2 SUB PUSH1 0xC0 DUP4 ADD MSTORE PUSH2 0x1404 DUP2 DUP5 PUSH2 0x1341 JUMP JUMPDEST SWAP1 POP SWAP9 SWAP8 POP POP POP POP POP POP POP POP JUMP JUMPDEST PUSH1 0x0 DUP2 SWAP1 POP SWAP2 SWAP1 POP JUMP JUMPDEST PUSH2 0x1425 DUP2 PUSH2 0x1412 JUMP JUMPDEST DUP2 EQ PUSH2 0x1430 JUMPI PUSH1 0x0 DUP1 REVERT JUMPDEST POP JUMP JUMPDEST PUSH1 0x0 DUP2 CALLDATALOAD SWAP1 POP PUSH2 0x1442 DUP2 PUSH2 0x141C JUMP JUMPDEST SWAP3 SWAP2 POP POP JUMP JUMPDEST PUSH1 0x0 PUSH1 0x20 DUP3 DUP5 SUB SLT ISZERO PUSH2 0x145E JUMPI PUSH2 0x145D PUSH2 0x1176 JUMP JUMPDEST JUMPDEST PUSH1 0x0 PUSH2 0x146C DUP5 DUP3 DUP6 ADD PUSH2 0x1433 JUMP JUMPDEST SWAP2 POP POP SWAP3 SWAP2 POP POP JUMP JUMPDEST PUSH32 0x4E487B7100000000000000000000000000000000000000000000000000000000 PUSH1 0x0 MSTORE PUSH1 0x22 PUSH1 0x4 MSTORE PUSH1 0x24 PUSH1 0x0 REVERT JUMPDEST PUSH1 0x0 PUSH1 0x2 DUP3 DIV SWAP1 POP PUSH1 0x1 DUP3 AND DUP1 PUSH2 0x14BC JUMPI PUSH1 0x7F DUP3 AND SWAP2 POP JUMPDEST PUSH1 0x20 DUP3 LT DUP2 SUB PUSH2 0x14CF JUMPI PUSH2 0x14CE PUSH2 0x1475 JUMP JUMPDEST JUMPDEST POP SWAP2 SWAP1 POP JUMP JUMPDEST PUSH32 0x4E6F74206D616E61676572000000000000000000000000000000000000000000 PUSH1 0x0 DUP3 ADD MSTORE POP JUMP JUMPDEST PUSH1 0x0 PUSH2 0x150B PUSH1 0xB DUP4 PUSH2 0x1330 JUMP JUMPDEST SWAP2 POP PUSH2 0x1516 DUP3 PUSH2 0x14D5 JUMP JUMPDEST PUSH1 0x20 DUP3 ADD SWAP1 POP SWAP2 SWAP1 POP JUMP JUMPDEST PUSH1 0x0 PUSH1 0x20 DUP3 ADD SWAP1 POP DUP2 DUP2 SUB PUSH1 0x0 DUP4 ADD MSTORE PUSH2 0x153A DUP2 PUSH2 0x14FE JUMP JUMPDEST SWAP1 POP SWAP2 SWAP1 POP JUMP JUMPDEST PUSH32 0x416C726561647920636F6D706C65746564000000000000000000000000000000 PUSH1 0x0 DUP3 ADD MSTORE POP JUMP JUMPDEST PUSH1 0x0 PUSH2 0x1577 PUSH1 0x11 DUP4 PUSH2 0x1330 JUMP JUMPDEST SWAP2 POP PUSH2 0x1582 DUP3 PUSH2 0x1541 JUMP JUMPDEST PUSH1 0x20 DUP3 ADD SWAP1 POP SWAP2 SWAP1 POP JUMP JUMPDEST PUSH1 0x0 PUSH1 0x20 DUP3 ADD SWAP1 POP DUP2 DUP2 SUB PUSH1 0x0 DUP4 ADD MSTORE PUSH2 0x15A6 DUP2 PUSH2 0x156A JUMP JUMPDEST SWAP1 POP SWAP2 SWAP1 POP JUMP JUMPDEST PUSH32 0x4E6F7420656E6465640000000000000000000000000000000000000000000000 PUSH1 0x0 DUP3 ADD MSTORE POP JUMP JUMPDEST PUSH1 0x0 PUSH2 0x15E3 PUSH1 0x9 DUP4 PUSH2 0x1330 JUMP JUMPDEST SWAP2 POP PUSH2 0x15EE DUP3 PUSH2 0x15AD JUMP JUMPDEST PUSH1 0x20 DUP3 ADD SWAP1 POP SWAP2 SWAP1 POP JUMP JUMPDEST PUSH1 0x0 PUSH1 0x20 DUP3 ADD SWAP1 POP DUP2 DUP2 SUB PUSH1 0x0 DUP4 ADD MSTORE PUSH2 0x1612 DUP2 PUSH2 0x15D6 JUMP JUMPDEST SWAP1 POP SWAP2 SWAP1 POP JUMP JUMPDEST PUSH32 0x496E76616C69642063686F696365000000000000000000000000000000000000 PUSH1 0x0 DUP3 ADD MSTORE POP JUMP JUMPDEST PUSH1 0x0 PUSH2 0x164F PUSH1 0xE DUP4 PUSH2 0x1330 JUMP JUMPDEST SWAP2 POP PUSH2 0x165A DUP3 PUSH2 0x1619 JUMP JUMPDEST PUSH1 0x20 DUP3 ADD SWAP1 POP SWAP2 SWAP1 POP JUMP JUMPDEST PUSH1 0x0 PUSH1 0x20 DUP3 ADD SWAP1 POP DUP2 DUP2 SUB PUSH1 0x0 DUP4 ADD MSTORE PUSH2 0x167E DUP2 PUSH2 0x1642 JUMP JUMPDEST SWAP1 POP SWAP2 SWAP1 POP JUMP JUMPDEST PUSH32 0x4E487B7100000000000000000000000000000000000000000000000000000000 PUSH1 0x0 MSTORE PUSH1 0x32 PUSH1 0x4 MSTORE PUSH1 0x24 PUSH1 0x0 REVERT JUMPDEST PUSH32 0x4E6F7420616C6C6F776564000000000000000000000000000000000000000000 PUSH1 0x0 DUP3 ADD MSTORE POP JUMP JUMPDEST PUSH1 0x0 PUSH2 0x16EA PUSH1 0xB DUP4 PUSH2 0x1330 JUMP JUMPDEST SWAP2 POP PUSH2 0x16F5 DUP3 PUSH2 0x16B4 JUMP JUMPDEST PUSH1 0x20 DUP3 ADD SWAP1 POP SWAP2 SWAP1 POP JUMP JUMPDEST PUSH1 0x0 PUSH1 0x20 DUP3 ADD SWAP1 POP DUP2 DUP2 SUB PUSH1 0x0 DUP4 ADD MSTORE PUSH2 0x1719 DUP2 PUSH2 0x16DD JUMP JUMPDEST SWAP1 POP SWAP2 SWAP1 POP JUMP JUMPDEST PUSH32 0x416C726561647920766F74656400000000000000000000000000000000000000 PUSH1 0x0 DUP3 ADD MSTORE POP JUMP JUMPDEST PUSH1 0x0 PUSH2 0x1756 PUSH1 0xD DUP4 PUSH2 0x1330 JUMP JUMPDEST SWAP2 POP PUSH2 0x1761 DUP3 PUSH2 0x1720 JUMP JUMPDEST PUSH1 0x20 DUP3 ADD SWAP1 POP SWAP2 SWAP1 POP JUMP JUMPDEST PUSH1 0x0 PUSH1 0x20 DUP3 ADD SWAP1 POP DUP2 DUP2 SUB PUSH1 0x0 DUP4 ADD MSTORE PUSH2 0x1785 DUP2 PUSH2 0x1749 JUMP JUMPDEST SWAP1 POP SWAP2 SWAP1 POP JUMP JUMPDEST PUSH32 0x436F6D706C657465640000000000000000000000000000000000000000000000 PUSH1 0x0 DUP3 ADD MSTORE POP JUMP JUMPDEST PUSH1 0x0 PUSH2 0x17C2 PUSH1 0x9 DUP4 PUSH2 0x1330 JUMP JUMPDEST SWAP2 POP PUSH2 0x17CD DUP3 PUSH2 0x178C JUMP JUMPDEST PUSH1 0x20 DUP3 ADD SWAP1 POP SWAP2 SWAP1 POP JUMP JUMPDEST PUSH1 0x0 PUSH1 0x20 DUP3 ADD SWAP1 POP DUP2 DUP2 SUB PUSH1 0x0 DUP4 ADD MSTORE PUSH2 0x17F1 DUP2 PUSH2 0x17B5 JUMP JUMPDEST SWAP1 POP SWAP2 SWAP1 POP JUMP JUMPDEST PUSH32 0x496E76616C69642074696D650000000000000000000000000000000000000000 PUSH1 0x0 DUP3 ADD MSTORE POP JUMP JUMPDEST PUSH1 0x0 PUSH2 0x182E PUSH1 0xC DUP4 PUSH2 0x1330 JUMP JUMPDEST SWAP2 POP PUSH2 0x1839 DUP3 PUSH2 0x17F8 JUMP JUMPDEST PUSH1 0x20 DUP3 ADD SWAP1 POP SWAP2 SWAP1 POP JUMP JUMPDEST PUSH1 0x0 PUSH1 0x20 DUP3 ADD SWAP1 POP DUP2 DUP2 SUB PUSH1 0x0 DUP4 ADD MSTORE PUSH2 0x185D DUP2 PUSH2 0x1821 JUMP JUMPDEST SWAP1 POP SWAP2 SWAP1 POP JUMP JUMPDEST PUSH1 0x0 PUSH1 0x40 DUP3 ADD SWAP1 POP PUSH2 0x1879 PUSH1 0x0 DUP4 ADD DUP6 PUSH2 0x1306 JUMP JUMPDEST PUSH2 0x1886 PUSH1 0x20 DUP4 ADD DUP5 PUSH2 0x121B JUMP JUMPDEST SWAP4 SWAP3 POP POP POP JUMP JUMPDEST PUSH32 0x416C726561647920616464656400000000000000000000000000000000000000 PUSH1 0x0 DUP3 ADD MSTORE POP JUMP JUMPDEST PUSH1 0x0 PUSH2 0x18C3 PUSH1 0xD DUP4 PUSH2 0x1330 JUMP JUMPDEST SWAP2 POP PUSH2 0x18CE DUP3 PUSH2 0x188D JUMP JUMPDEST PUSH1 0x20 DUP3 ADD SWAP1 POP SWAP2 SWAP1 POP JUMP JUMPDEST PUSH1 0x0 PUSH1 0x20 DUP3 ADD SWAP1 POP DUP2 DUP2 SUB PUSH1 0x0 DUP4 ADD MSTORE PUSH2 0x18F2 DUP2 PUSH2 0x18B6 JUMP JUMPDEST SWAP1 POP SWAP2 SWAP1 POP JUMP INVALID LOG2 PUSH5 0x6970667358 0x22 SLT KECCAK256 SMOD MUL 0xAC 0xE8 DELEGATECALL JUMP SHL SWAP1 PUSH25 0xC90880848D62C555994C7BB6D849E48058A0D68685654F6473 PUSH16 0x6C63430008120033A264697066735822 SLT KECCAK256 DUP4 0xA9 PUSH18 0x8A28386AEB87F87FD58EB39C6275FD010579 0xD6 DUP7 0xE0 0xF7 PUSH8 0x352FC357E7046473 PUSH16 0x6C634300081200330000000000000000 "},"gasEstimates":{"creation":{"codeDepositCost":"2262200","executionCost":"2419","totalCost":"2264619"},"external":{"createVoting(string,string[],uint32,uint32)":"infinite","deployedVotings(uint256)":"4934","getDeployedVotings()":"infinite"}},"methodIdentifiers":{"createVoting(string,string[],uint32,uint32)":"d9b6ae23","deployedVotings(uint256)":"298f37ab","getDeployedVotings()":"3e04b578"}},"storageLayout":{"storage":[{"astId":4,"contract":"Voting.sol:VotingFactory","label":"deployedVotings","offset":0,"slot":"0","type":"t_array(t_address)dyn_storage"}],"types":{"t_address":{"encoding":"inplace","label":"address","numberOfBytes":"20"},"t_array(t_address)dyn_storage":{"base":"t_address","encoding":"dynamic_array","label":"address[]","numberOfBytes":"32"}}},"userdoc":{"kind":"user","methods":{},"version":1}}