{"abi":[{"inputs":[{"internalType":"uint8","name":"choices","type":"uint8"},{"internalType":"uint32","name":"fromDate","type":"uint32"},{"internalType":"uint32","name":"endDate","type":"uint32"}],"name":"createVoting","outputs":[],"stateMutability":"nonpayable","type":"function"},{"inputs":[{"internalType":"uint256","name":"","type":"uint256"}],"name":"deployedVotings","outputs":[{"internalType":"address","name":"","type":"address"}],"stateMutability":"view","type":"function"},{"inputs":[],"name":"getDeployedVotings","outputs":[{"internalType":"address[]","name":"","type":"address[]"}],"stateMutability":"view","type":"function"}],"devdoc":{"kind":"dev","methods":{},"version":1},"evm":{"assembly":"    /* \"Voting.sol\":62:493  contract VotingFactory {... */\n  mstore(0x40, 0x80)\n  callvalue\n  dup1\n  iszero\n  tag_1\n  jumpi\n  0x00\n  dup1\n  revert\ntag_1:\n  pop\n  dataSize(sub_0)\n  dup1\n  dataOffset(sub_0)\n  0x00\n  codecopy\n  0x00\n  return\nstop\n\nsub_0: assembly {\n        /* \"Voting.sol\":62:493  contract VotingFactory {... */\n      mstore(0x40, 0x80)\n      callvalue\n      dup1\n      iszero\n      tag_1\n      jumpi\n      0x00\n      dup1\n      revert\n    tag_1:\n      pop\n      jumpi(tag_2, lt(calldatasize, 0x04))\n      shr(0xe0, calldataload(0x00))\n      dup1\n      0x13f320d1\n      eq\n      tag_3\n      jumpi\n      dup1\n      0x298f37ab\n      eq\n      tag_4\n      jumpi\n      dup1\n      0x3e04b578\n      eq\n      tag_5\n      jumpi\n    tag_2:\n      0x00\n      dup1\n      revert\n        /* \"Voting.sol\":133:370  function createVoting(... */\n    tag_3:\n      tag_6\n      0x04\n      dup1\n      calldatasize\n      sub\n      dup2\n      add\n      swap1\n      tag_7\n      swap2\n      swap1\n      tag_8\n      jump\t// in\n    tag_7:\n      tag_9\n      jump\t// in\n    tag_6:\n      stop\n        /* \"Voting.sol\":92:124  address[] public deployedVotings */\n    tag_4:\n      tag_10\n      0x04\n      dup1\n      calldatasize\n      sub\n      dup2\n      add\n      swap1\n      tag_11\n      swap2\n      swap1\n      tag_12\n      jump\t// in\n    tag_11:\n      tag_13\n      jump\t// in\n    tag_10:\n      mload(0x40)\n      tag_14\n      swap2\n      swap1\n      tag_15\n      jump\t// in\n    tag_14:\n      mload(0x40)\n      dup1\n      swap2\n      sub\n      swap1\n      return\n        /* \"Voting.sol\":378:490  function getDeployedVotings() external view returns (address[] memory) {... */\n    tag_5:\n      tag_16\n      tag_17\n      jump\t// in\n    tag_16:\n      mload(0x40)\n      tag_18\n      swap2\n      swap1\n      tag_19\n      jump\t// in\n    tag_18:\n      mload(0x40)\n      dup1\n      swap2\n      sub\n      swap1\n      return\n        /* \"Voting.sol\":133:370  function createVoting(... */\n    tag_9:\n        /* \"Voting.sol\":257:272  deployedVotings */\n      0x00\n        /* \"Voting.sol\":311:318  choices */\n      dup4\n        /* \"Voting.sol\":320:328  fromDate */\n      dup4\n        /* \"Voting.sol\":330:337  endDate */\n      dup4\n        /* \"Voting.sol\":339:349  msg.sender */\n      caller\n        /* \"Voting.sol\":300:350  new Voting(choices, fromDate, endDate, msg.sender) */\n      mload(0x40)\n      tag_21\n      swap1\n      tag_22\n      jump\t// in\n    tag_21:\n      tag_23\n      swap5\n      swap4\n      swap3\n      swap2\n      swap1\n      tag_24\n      jump\t// in\n    tag_23:\n      mload(0x40)\n      dup1\n      swap2\n      sub\n      swap1\n      0x00\n      create\n      dup1\n      iszero\n      dup1\n      iszero\n      tag_25\n      jumpi\n      returndatasize\n      0x00\n      dup1\n      returndatacopy\n      revert(0x00, returndatasize)\n    tag_25:\n      pop\n        /* \"Voting.sol\":257:362  deployedVotings.push(... */\n      swap1\n      dup1\n      0x01\n      dup2\n      sload\n      add\n      dup1\n      dup3\n      sstore\n      dup1\n      swap2\n      pop\n      pop\n      0x01\n      swap1\n      sub\n      swap1\n      0x00\n      mstore\n      keccak256(0x00, 0x20)\n      add\n      0x00\n      swap1\n      swap2\n      swap1\n      swap2\n      swap1\n      swap2\n      0x0100\n      exp\n      dup2\n      sload\n      dup2\n      0xffffffffffffffffffffffffffffffffffffffff\n      mul\n      not\n      and\n      swap1\n      dup4\n      0xffffffffffffffffffffffffffffffffffffffff\n      and\n      mul\n      or\n      swap1\n      sstore\n      pop\n        /* \"Voting.sol\":133:370  function createVoting(... */\n      pop\n      pop\n      pop\n      jump\t// out\n        /* \"Voting.sol\":92:124  address[] public deployedVotings */\n    tag_13:\n      0x00\n      dup2\n      dup2\n      sload\n      dup2\n      lt\n      tag_27\n      jumpi\n      0x00\n      dup1\n      revert\n    tag_27:\n      swap1\n      0x00\n      mstore\n      keccak256(0x00, 0x20)\n      add\n      0x00\n      swap2\n      pop\n      sload\n      swap1\n      0x0100\n      exp\n      swap1\n      div\n      0xffffffffffffffffffffffffffffffffffffffff\n      and\n      dup2\n      jump\t// out\n        /* \"Voting.sol\":378:490  function getDeployedVotings() external view returns (address[] memory) {... */\n    tag_17:\n        /* \"Voting.sol\":431:447  address[] memory */\n      0x60\n        /* \"Voting.sol\":467:482  deployedVotings */\n      0x00\n        /* \"Voting.sol\":460:482  return deployedVotings */\n      dup1\n      sload\n      dup1\n      0x20\n      mul\n      0x20\n      add\n      mload(0x40)\n      swap1\n      dup2\n      add\n      0x40\n      mstore\n      dup1\n      swap3\n      swap2\n      swap1\n      dup2\n      dup2\n      mstore\n      0x20\n      add\n      dup3\n      dup1\n      sload\n      dup1\n      iszero\n      tag_30\n      jumpi\n      0x20\n      mul\n      dup3\n      add\n      swap2\n      swap1\n      0x00\n      mstore\n      keccak256(0x00, 0x20)\n      swap1\n    tag_31:\n      dup2\n      0x00\n      swap1\n      sload\n      swap1\n      0x0100\n      exp\n      swap1\n      div\n      0xffffffffffffffffffffffffffffffffffffffff\n      and\n      0xffffffffffffffffffffffffffffffffffffffff\n      and\n      dup2\n      mstore\n      0x20\n      add\n      swap1\n      0x01\n      add\n      swap1\n      dup1\n      dup4\n      gt\n      tag_31\n      jumpi\n    tag_30:\n      pop\n      pop\n      pop\n      pop\n      pop\n      swap1\n      pop\n        /* \"Voting.sol\":378:490  function getDeployedVotings() external view returns (address[] memory) {... */\n      swap1\n      jump\t// out\n    tag_22:\n      dataSize(sub_0)\n      dup1\n      dataOffset(sub_0)\n      dup4\n      codecopy\n      add\n      swap1\n      jump\t// out\n        /* \"#utility.yul\":88:205   */\n    tag_33:\n        /* \"#utility.yul\":197:198   */\n      0x00\n        /* \"#utility.yul\":194:195   */\n      dup1\n        /* \"#utility.yul\":187:199   */\n      revert\n        /* \"#utility.yul\":334:420   */\n    tag_35:\n        /* \"#utility.yul\":369:376   */\n      0x00\n        /* \"#utility.yul\":409:413   */\n      0xff\n        /* \"#utility.yul\":402:407   */\n      dup3\n        /* \"#utility.yul\":398:414   */\n      and\n        /* \"#utility.yul\":387:414   */\n      swap1\n      pop\n        /* \"#utility.yul\":334:420   */\n      swap2\n      swap1\n      pop\n      jump\t// out\n        /* \"#utility.yul\":426:544   */\n    tag_36:\n        /* \"#utility.yul\":497:519   */\n      tag_62\n        /* \"#utility.yul\":513:518   */\n      dup2\n        /* \"#utility.yul\":497:519   */\n      tag_35\n      jump\t// in\n    tag_62:\n        /* \"#utility.yul\":490:495   */\n      dup2\n        /* \"#utility.yul\":487:520   */\n      eq\n        /* \"#utility.yul\":477:538   */\n      tag_63\n      jumpi\n        /* \"#utility.yul\":534:535   */\n      0x00\n        /* \"#utility.yul\":531:532   */\n      dup1\n        /* \"#utility.yul\":524:536   */\n      revert\n        /* \"#utility.yul\":477:538   */\n    tag_63:\n        /* \"#utility.yul\":426:544   */\n      pop\n      jump\t// out\n        /* \"#utility.yul\":550:685   */\n    tag_37:\n        /* \"#utility.yul\":594:599   */\n      0x00\n        /* \"#utility.yul\":632:638   */\n      dup2\n        /* \"#utility.yul\":619:639   */\n      calldataload\n        /* \"#utility.yul\":610:639   */\n      swap1\n      pop\n        /* \"#utility.yul\":648:679   */\n      tag_65\n        /* \"#utility.yul\":673:678   */\n      dup2\n        /* \"#utility.yul\":648:679   */\n      tag_36\n      jump\t// in\n    tag_65:\n        /* \"#utility.yul\":550:685   */\n      swap3\n      swap2\n      pop\n      pop\n      jump\t// out\n        /* \"#utility.yul\":691:784   */\n    tag_38:\n        /* \"#utility.yul\":727:734   */\n      0x00\n        /* \"#utility.yul\":767:777   */\n      0xffffffff\n        /* \"#utility.yul\":760:765   */\n      dup3\n        /* \"#utility.yul\":756:778   */\n      and\n        /* \"#utility.yul\":745:778   */\n      swap1\n      pop\n        /* \"#utility.yul\":691:784   */\n      swap2\n      swap1\n      pop\n      jump\t// out\n        /* \"#utility.yul\":790:910   */\n    tag_39:\n        /* \"#utility.yul\":862:885   */\n      tag_68\n        /* \"#utility.yul\":879:884   */\n      dup2\n        /* \"#utility.yul\":862:885   */\n      tag_38\n      jump\t// in\n    tag_68:\n        /* \"#utility.yul\":855:860   */\n      dup2\n        /* \"#utility.yul\":852:886   */\n      eq\n        /* \"#utility.yul\":842:904   */\n      tag_69\n      jumpi\n        /* \"#utility.yul\":900:901   */\n      0x00\n        /* \"#utility.yul\":897:898   */\n      dup1\n        /* \"#utility.yul\":890:902   */\n      revert\n        /* \"#utility.yul\":842:904   */\n    tag_69:\n        /* \"#utility.yul\":790:910   */\n      pop\n      jump\t// out\n        /* \"#utility.yul\":916:1053   */\n    tag_40:\n        /* \"#utility.yul\":961:966   */\n      0x00\n        /* \"#utility.yul\":999:1005   */\n      dup2\n        /* \"#utility.yul\":986:1006   */\n      calldataload\n        /* \"#utility.yul\":977:1006   */\n      swap1\n      pop\n        /* \"#utility.yul\":1015:1047   */\n      tag_71\n        /* \"#utility.yul\":1041:1046   */\n      dup2\n        /* \"#utility.yul\":1015:1047   */\n      tag_39\n      jump\t// in\n    tag_71:\n        /* \"#utility.yul\":916:1053   */\n      swap3\n      swap2\n      pop\n      pop\n      jump\t// out\n        /* \"#utility.yul\":1059:1670   */\n    tag_8:\n        /* \"#utility.yul\":1132:1138   */\n      0x00\n        /* \"#utility.yul\":1140:1146   */\n      dup1\n        /* \"#utility.yul\":1148:1154   */\n      0x00\n        /* \"#utility.yul\":1197:1199   */\n      0x60\n        /* \"#utility.yul\":1185:1194   */\n      dup5\n        /* \"#utility.yul\":1176:1183   */\n      dup7\n        /* \"#utility.yul\":1172:1195   */\n      sub\n        /* \"#utility.yul\":1168:1200   */\n      slt\n        /* \"#utility.yul\":1165:1284   */\n      iszero\n      tag_73\n      jumpi\n        /* \"#utility.yul\":1203:1282   */\n      tag_74\n      tag_33\n      jump\t// in\n    tag_74:\n        /* \"#utility.yul\":1165:1284   */\n    tag_73:\n        /* \"#utility.yul\":1323:1324   */\n      0x00\n        /* \"#utility.yul\":1348:1399   */\n      tag_75\n        /* \"#utility.yul\":1391:1398   */\n      dup7\n        /* \"#utility.yul\":1382:1388   */\n      dup3\n        /* \"#utility.yul\":1371:1380   */\n      dup8\n        /* \"#utility.yul\":1367:1389   */\n      add\n        /* \"#utility.yul\":1348:1399   */\n      tag_37\n      jump\t// in\n    tag_75:\n        /* \"#utility.yul\":1338:1399   */\n      swap4\n      pop\n        /* \"#utility.yul\":1294:1409   */\n      pop\n        /* \"#utility.yul\":1448:1450   */\n      0x20\n        /* \"#utility.yul\":1474:1526   */\n      tag_76\n        /* \"#utility.yul\":1518:1525   */\n      dup7\n        /* \"#utility.yul\":1509:1515   */\n      dup3\n        /* \"#utility.yul\":1498:1507   */\n      dup8\n        /* \"#utility.yul\":1494:1516   */\n      add\n        /* \"#utility.yul\":1474:1526   */\n      tag_40\n      jump\t// in\n    tag_76:\n        /* \"#utility.yul\":1464:1526   */\n      swap3\n      pop\n        /* \"#utility.yul\":1419:1536   */\n      pop\n        /* \"#utility.yul\":1575:1577   */\n      0x40\n        /* \"#utility.yul\":1601:1653   */\n      tag_77\n        /* \"#utility.yul\":1645:1652   */\n      dup7\n        /* \"#utility.yul\":1636:1642   */\n      dup3\n        /* \"#utility.yul\":1625:1634   */\n      dup8\n        /* \"#utility.yul\":1621:1643   */\n      add\n        /* \"#utility.yul\":1601:1653   */\n      tag_40\n      jump\t// in\n    tag_77:\n        /* \"#utility.yul\":1591:1653   */\n      swap2\n      pop\n        /* \"#utility.yul\":1546:1663   */\n      pop\n        /* \"#utility.yul\":1059:1670   */\n      swap3\n      pop\n      swap3\n      pop\n      swap3\n      jump\t// out\n        /* \"#utility.yul\":1676:1753   */\n    tag_41:\n        /* \"#utility.yul\":1713:1720   */\n      0x00\n        /* \"#utility.yul\":1742:1747   */\n      dup2\n        /* \"#utility.yul\":1731:1747   */\n      swap1\n      pop\n        /* \"#utility.yul\":1676:1753   */\n      swap2\n      swap1\n      pop\n      jump\t// out\n        /* \"#utility.yul\":1759:1881   */\n    tag_42:\n        /* \"#utility.yul\":1832:1856   */\n      tag_80\n        /* \"#utility.yul\":1850:1855   */\n      dup2\n        /* \"#utility.yul\":1832:1856   */\n      tag_41\n      jump\t// in\n    tag_80:\n        /* \"#utility.yul\":1825:1830   */\n      dup2\n        /* \"#utility.yul\":1822:1857   */\n      eq\n        /* \"#utility.yul\":1812:1875   */\n      tag_81\n      jumpi\n        /* \"#utility.yul\":1871:1872   */\n      0x00\n        /* \"#utility.yul\":1868:1869   */\n      dup1\n        /* \"#utility.yul\":1861:1873   */\n      revert\n        /* \"#utility.yul\":1812:1875   */\n    tag_81:\n        /* \"#utility.yul\":1759:1881   */\n      pop\n      jump\t// out\n        /* \"#utility.yul\":1887:2026   */\n    tag_43:\n        /* \"#utility.yul\":1933:1938   */\n      0x00\n        /* \"#utility.yul\":1971:1977   */\n      dup2\n        /* \"#utility.yul\":1958:1978   */\n      calldataload\n        /* \"#utility.yul\":1949:1978   */\n      swap1\n      pop\n        /* \"#utility.yul\":1987:2020   */\n      tag_83\n        /* \"#utility.yul\":2014:2019   */\n      dup2\n        /* \"#utility.yul\":1987:2020   */\n      tag_42\n      jump\t// in\n    tag_83:\n        /* \"#utility.yul\":1887:2026   */\n      swap3\n      swap2\n      pop\n      pop\n      jump\t// out\n        /* \"#utility.yul\":2032:2361   */\n    tag_12:\n        /* \"#utility.yul\":2091:2097   */\n      0x00\n        /* \"#utility.yul\":2140:2142   */\n      0x20\n        /* \"#utility.yul\":2128:2137   */\n      dup3\n        /* \"#utility.yul\":2119:2126   */\n      dup5\n        /* \"#utility.yul\":2115:2138   */\n      sub\n        /* \"#utility.yul\":2111:2143   */\n      slt\n        /* \"#utility.yul\":2108:2227   */\n      iszero\n      tag_85\n      jumpi\n        /* \"#utility.yul\":2146:2225   */\n      tag_86\n      tag_33\n      jump\t// in\n    tag_86:\n        /* \"#utility.yul\":2108:2227   */\n    tag_85:\n        /* \"#utility.yul\":2266:2267   */\n      0x00\n        /* \"#utility.yul\":2291:2344   */\n      tag_87\n        /* \"#utility.yul\":2336:2343   */\n      dup5\n        /* \"#utility.yul\":2327:2333   */\n      dup3\n        /* \"#utility.yul\":2316:2325   */\n      dup6\n        /* \"#utility.yul\":2312:2334   */\n      add\n        /* \"#utility.yul\":2291:2344   */\n      tag_43\n      jump\t// in\n    tag_87:\n        /* \"#utility.yul\":2281:2344   */\n      swap2\n      pop\n        /* \"#utility.yul\":2237:2354   */\n      pop\n        /* \"#utility.yul\":2032:2361   */\n      swap3\n      swap2\n      pop\n      pop\n      jump\t// out\n        /* \"#utility.yul\":2367:2493   */\n    tag_44:\n        /* \"#utility.yul\":2404:2411   */\n      0x00\n        /* \"#utility.yul\":2444:2486   */\n      0xffffffffffffffffffffffffffffffffffffffff\n        /* \"#utility.yul\":2437:2442   */\n      dup3\n        /* \"#utility.yul\":2433:2487   */\n      and\n        /* \"#utility.yul\":2422:2487   */\n      swap1\n      pop\n        /* \"#utility.yul\":2367:2493   */\n      swap2\n      swap1\n      pop\n      jump\t// out\n        /* \"#utility.yul\":2499:2595   */\n    tag_45:\n        /* \"#utility.yul\":2536:2543   */\n      0x00\n        /* \"#utility.yul\":2565:2589   */\n      tag_90\n        /* \"#utility.yul\":2583:2588   */\n      dup3\n        /* \"#utility.yul\":2565:2589   */\n      tag_44\n      jump\t// in\n    tag_90:\n        /* \"#utility.yul\":2554:2589   */\n      swap1\n      pop\n        /* \"#utility.yul\":2499:2595   */\n      swap2\n      swap1\n      pop\n      jump\t// out\n        /* \"#utility.yul\":2601:2719   */\n    tag_46:\n        /* \"#utility.yul\":2688:2712   */\n      tag_92\n        /* \"#utility.yul\":2706:2711   */\n      dup2\n        /* \"#utility.yul\":2688:2712   */\n      tag_45\n      jump\t// in\n    tag_92:\n        /* \"#utility.yul\":2683:2686   */\n      dup3\n        /* \"#utility.yul\":2676:2713   */\n      mstore\n        /* \"#utility.yul\":2601:2719   */\n      pop\n      pop\n      jump\t// out\n        /* \"#utility.yul\":2725:2947   */\n    tag_15:\n        /* \"#utility.yul\":2818:2822   */\n      0x00\n        /* \"#utility.yul\":2856:2858   */\n      0x20\n        /* \"#utility.yul\":2845:2854   */\n      dup3\n        /* \"#utility.yul\":2841:2859   */\n      add\n        /* \"#utility.yul\":2833:2859   */\n      swap1\n      pop\n        /* \"#utility.yul\":2869:2940   */\n      tag_94\n        /* \"#utility.yul\":2937:2938   */\n      0x00\n        /* \"#utility.yul\":2926:2935   */\n      dup4\n        /* \"#utility.yul\":2922:2939   */\n      add\n        /* \"#utility.yul\":2913:2919   */\n      dup5\n        /* \"#utility.yul\":2869:2940   */\n      tag_46\n      jump\t// in\n    tag_94:\n        /* \"#utility.yul\":2725:2947   */\n      swap3\n      swap2\n      pop\n      pop\n      jump\t// out\n        /* \"#utility.yul\":2953:3067   */\n    tag_47:\n        /* \"#utility.yul\":3020:3026   */\n      0x00\n        /* \"#utility.yul\":3054:3059   */\n      dup2\n        /* \"#utility.yul\":3048:3060   */\n      mload\n        /* \"#utility.yul\":3038:3060   */\n      swap1\n      pop\n        /* \"#utility.yul\":2953:3067   */\n      swap2\n      swap1\n      pop\n      jump\t// out\n        /* \"#utility.yul\":3073:3257   */\n    tag_48:\n        /* \"#utility.yul\":3172:3183   */\n      0x00\n        /* \"#utility.yul\":3206:3212   */\n      dup3\n        /* \"#utility.yul\":3201:3204   */\n      dup3\n        /* \"#utility.yul\":3194:3213   */\n      mstore\n        /* \"#utility.yul\":3246:3250   */\n      0x20\n        /* \"#utility.yul\":3241:3244   */\n      dup3\n        /* \"#utility.yul\":3237:3251   */\n      add\n        /* \"#utility.yul\":3222:3251   */\n      swap1\n      pop\n        /* \"#utility.yul\":3073:3257   */\n      swap3\n      swap2\n      pop\n      pop\n      jump\t// out\n        /* \"#utility.yul\":3263:3395   */\n    tag_49:\n        /* \"#utility.yul\":3330:3334   */\n      0x00\n        /* \"#utility.yul\":3353:3356   */\n      dup2\n        /* \"#utility.yul\":3345:3356   */\n      swap1\n      pop\n        /* \"#utility.yul\":3383:3387   */\n      0x20\n        /* \"#utility.yul\":3378:3381   */\n      dup3\n        /* \"#utility.yul\":3374:3388   */\n      add\n        /* \"#utility.yul\":3366:3388   */\n      swap1\n      pop\n        /* \"#utility.yul\":3263:3395   */\n      swap2\n      swap1\n      pop\n      jump\t// out\n        /* \"#utility.yul\":3401:3509   */\n    tag_50:\n        /* \"#utility.yul\":3478:3502   */\n      tag_99\n        /* \"#utility.yul\":3496:3501   */\n      dup2\n        /* \"#utility.yul\":3478:3502   */\n      tag_45\n      jump\t// in\n    tag_99:\n        /* \"#utility.yul\":3473:3476   */\n      dup3\n        /* \"#utility.yul\":3466:3503   */\n      mstore\n        /* \"#utility.yul\":3401:3509   */\n      pop\n      pop\n      jump\t// out\n        /* \"#utility.yul\":3515:3694   */\n    tag_51:\n        /* \"#utility.yul\":3584:3594   */\n      0x00\n        /* \"#utility.yul\":3605:3651   */\n      tag_101\n        /* \"#utility.yul\":3647:3650   */\n      dup4\n        /* \"#utility.yul\":3639:3645   */\n      dup4\n        /* \"#utility.yul\":3605:3651   */\n      tag_50\n      jump\t// in\n    tag_101:\n        /* \"#utility.yul\":3683:3687   */\n      0x20\n        /* \"#utility.yul\":3678:3681   */\n      dup4\n        /* \"#utility.yul\":3674:3688   */\n      add\n        /* \"#utility.yul\":3660:3688   */\n      swap1\n      pop\n        /* \"#utility.yul\":3515:3694   */\n      swap3\n      swap2\n      pop\n      pop\n      jump\t// out\n        /* \"#utility.yul\":3700:3813   */\n    tag_52:\n        /* \"#utility.yul\":3770:3774   */\n      0x00\n        /* \"#utility.yul\":3802:3806   */\n      0x20\n        /* \"#utility.yul\":3797:3800   */\n      dup3\n        /* \"#utility.yul\":3793:3807   */\n      add\n        /* \"#utility.yul\":3785:3807   */\n      swap1\n      pop\n        /* \"#utility.yul\":3700:3813   */\n      swap2\n      swap1\n      pop\n      jump\t// out\n        /* \"#utility.yul\":3849:4581   */\n    tag_53:\n        /* \"#utility.yul\":3968:3971   */\n      0x00\n        /* \"#utility.yul\":3997:4051   */\n      tag_104\n        /* \"#utility.yul\":4045:4050   */\n      dup3\n        /* \"#utility.yul\":3997:4051   */\n      tag_47\n      jump\t// in\n    tag_104:\n        /* \"#utility.yul\":4067:4153   */\n      tag_105\n        /* \"#utility.yul\":4146:4152   */\n      dup2\n        /* \"#utility.yul\":4141:4144   */\n      dup6\n        /* \"#utility.yul\":4067:4153   */\n      tag_48\n      jump\t// in\n    tag_105:\n        /* \"#utility.yul\":4060:4153   */\n      swap4\n      pop\n        /* \"#utility.yul\":4177:4233   */\n      tag_106\n        /* \"#utility.yul\":4227:4232   */\n      dup4\n        /* \"#utility.yul\":4177:4233   */\n      tag_49\n      jump\t// in\n    tag_106:\n        /* \"#utility.yul\":4256:4263   */\n      dup1\n        /* \"#utility.yul\":4287:4288   */\n      0x00\n        /* \"#utility.yul\":4272:4556   */\n    tag_107:\n        /* \"#utility.yul\":4297:4303   */\n      dup4\n        /* \"#utility.yul\":4294:4295   */\n      dup2\n        /* \"#utility.yul\":4291:4304   */\n      lt\n        /* \"#utility.yul\":4272:4556   */\n      iszero\n      tag_109\n      jumpi\n        /* \"#utility.yul\":4373:4379   */\n      dup2\n        /* \"#utility.yul\":4367:4380   */\n      mload\n        /* \"#utility.yul\":4400:4463   */\n      tag_110\n        /* \"#utility.yul\":4459:4462   */\n      dup9\n        /* \"#utility.yul\":4444:4457   */\n      dup3\n        /* \"#utility.yul\":4400:4463   */\n      tag_51\n      jump\t// in\n    tag_110:\n        /* \"#utility.yul\":4393:4463   */\n      swap8\n      pop\n        /* \"#utility.yul\":4486:4546   */\n      tag_111\n        /* \"#utility.yul\":4539:4545   */\n      dup4\n        /* \"#utility.yul\":4486:4546   */\n      tag_52\n      jump\t// in\n    tag_111:\n        /* \"#utility.yul\":4476:4546   */\n      swap3\n      pop\n        /* \"#utility.yul\":4332:4556   */\n      pop\n        /* \"#utility.yul\":4319:4320   */\n      0x01\n        /* \"#utility.yul\":4316:4317   */\n      dup2\n        /* \"#utility.yul\":4312:4321   */\n      add\n        /* \"#utility.yul\":4307:4321   */\n      swap1\n      pop\n        /* \"#utility.yul\":4272:4556   */\n      jump(tag_107)\n    tag_109:\n        /* \"#utility.yul\":4276:4290   */\n      pop\n        /* \"#utility.yul\":4572:4575   */\n      dup6\n        /* \"#utility.yul\":4565:4575   */\n      swap4\n      pop\n        /* \"#utility.yul\":3973:4581   */\n      pop\n      pop\n      pop\n        /* \"#utility.yul\":3849:4581   */\n      swap3\n      swap2\n      pop\n      pop\n      jump\t// out\n        /* \"#utility.yul\":4587:4960   */\n    tag_19:\n        /* \"#utility.yul\":4730:4734   */\n      0x00\n        /* \"#utility.yul\":4768:4770   */\n      0x20\n        /* \"#utility.yul\":4757:4766   */\n      dup3\n        /* \"#utility.yul\":4753:4771   */\n      add\n        /* \"#utility.yul\":4745:4771   */\n      swap1\n      pop\n        /* \"#utility.yul\":4817:4826   */\n      dup2\n        /* \"#utility.yul\":4811:4815   */\n      dup2\n        /* \"#utility.yul\":4807:4827   */\n      sub\n        /* \"#utility.yul\":4803:4804   */\n      0x00\n        /* \"#utility.yul\":4792:4801   */\n      dup4\n        /* \"#utility.yul\":4788:4805   */\n      add\n        /* \"#utility.yul\":4781:4828   */\n      mstore\n        /* \"#utility.yul\":4845:4953   */\n      tag_113\n        /* \"#utility.yul\":4948:4952   */\n      dup2\n        /* \"#utility.yul\":4939:4945   */\n      dup5\n        /* \"#utility.yul\":4845:4953   */\n      tag_53\n      jump\t// in\n    tag_113:\n        /* \"#utility.yul\":4837:4953   */\n      swap1\n      pop\n        /* \"#utility.yul\":4587:4960   */\n      swap3\n      swap2\n      pop\n      pop\n      jump\t// out\n        /* \"#utility.yul\":4966:5078   */\n    tag_54:\n        /* \"#utility.yul\":5049:5071   */\n      tag_115\n        /* \"#utility.yul\":5065:5070   */\n      dup2\n        /* \"#utility.yul\":5049:5071   */\n      tag_35\n      jump\t// in\n    tag_115:\n        /* \"#utility.yul\":5044:5047   */\n      dup3\n        /* \"#utility.yul\":5037:5072   */\n      mstore\n        /* \"#utility.yul\":4966:5078   */\n      pop\n      pop\n      jump\t// out\n        /* \"#utility.yul\":5084:5199   */\n    tag_55:\n        /* \"#utility.yul\":5169:5192   */\n      tag_117\n        /* \"#utility.yul\":5186:5191   */\n      dup2\n        /* \"#utility.yul\":5169:5192   */\n      tag_38\n      jump\t// in\n    tag_117:\n        /* \"#utility.yul\":5164:5167   */\n      dup3\n        /* \"#utility.yul\":5157:5193   */\n      mstore\n        /* \"#utility.yul\":5084:5199   */\n      pop\n      pop\n      jump\t// out\n        /* \"#utility.yul\":5205:5742   */\n    tag_24:\n        /* \"#utility.yul\":5374:5378   */\n      0x00\n        /* \"#utility.yul\":5412:5415   */\n      0x80\n        /* \"#utility.yul\":5401:5410   */\n      dup3\n        /* \"#utility.yul\":5397:5416   */\n      add\n        /* \"#utility.yul\":5389:5416   */\n      swap1\n      pop\n        /* \"#utility.yul\":5426:5493   */\n      tag_119\n        /* \"#utility.yul\":5490:5491   */\n      0x00\n        /* \"#utility.yul\":5479:5488   */\n      dup4\n        /* \"#utility.yul\":5475:5492   */\n      add\n        /* \"#utility.yul\":5466:5472   */\n      dup8\n        /* \"#utility.yul\":5426:5493   */\n      tag_54\n      jump\t// in\n    tag_119:\n        /* \"#utility.yul\":5503:5573   */\n      tag_120\n        /* \"#utility.yul\":5569:5571   */\n      0x20\n        /* \"#utility.yul\":5558:5567   */\n      dup4\n        /* \"#utility.yul\":5554:5572   */\n      add\n        /* \"#utility.yul\":5545:5551   */\n      dup7\n        /* \"#utility.yul\":5503:5573   */\n      tag_55\n      jump\t// in\n    tag_120:\n        /* \"#utility.yul\":5583:5653   */\n      tag_121\n        /* \"#utility.yul\":5649:5651   */\n      0x40\n        /* \"#utility.yul\":5638:5647   */\n      dup4\n        /* \"#utility.yul\":5634:5652   */\n      add\n        /* \"#utility.yul\":5625:5631   */\n      dup6\n        /* \"#utility.yul\":5583:5653   */\n      tag_55\n      jump\t// in\n    tag_121:\n        /* \"#utility.yul\":5663:5735   */\n      tag_122\n        /* \"#utility.yul\":5731:5733   */\n      0x60\n        /* \"#utility.yul\":5720:5729   */\n      dup4\n        /* \"#utility.yul\":5716:5734   */\n      add\n        /* \"#utility.yul\":5707:5713   */\n      dup5\n        /* \"#utility.yul\":5663:5735   */\n      tag_46\n      jump\t// in\n    tag_122:\n        /* \"#utility.yul\":5205:5742   */\n      swap6\n      swap5\n      pop\n      pop\n      pop\n      pop\n      pop\n      jump\t// out\n    stop\n\n    sub_0: assembly {\n            /* \"Voting.sol\":497:3294  contract Voting {... */\n          mstore(0x40, 0x80)\n            /* \"Voting.sol\":1449:1773  constructor(... */\n          callvalue\n          dup1\n          iszero\n          tag_1\n          jumpi\n          0x00\n          dup1\n          revert\n        tag_1:\n          pop\n          mload(0x40)\n          sub(codesize, bytecodeSize)\n          dup1\n          bytecodeSize\n          dup4\n          codecopy\n          dup2\n          dup2\n          add\n          0x40\n          mstore\n          dup2\n          add\n          swap1\n          tag_2\n          swap2\n          swap1\n          tag_3\n          jump\t// in\n        tag_2:\n            /* \"Voting.sol\":1599:1607  _manager */\n          dup1\n            /* \"Voting.sol\":1589:1596  manager */\n          0x00\n          dup1\n            /* \"Voting.sol\":1589:1607  manager = _manager */\n          0x0100\n          exp\n          dup2\n          sload\n          dup2\n          0xffffffffffffffffffffffffffffffffffffffff\n          mul\n          not\n          and\n          swap1\n          dup4\n          0xffffffffffffffffffffffffffffffffffffffff\n          and\n          mul\n          or\n          swap1\n          sstore\n          pop\n            /* \"Voting.sol\":1633:1646  _totalChoices */\n          dup4\n            /* \"Voting.sol\":1618:1630  totalChoices */\n          0x00\n          0x14\n            /* \"Voting.sol\":1618:1646  totalChoices = _totalChoices */\n          0x0100\n          exp\n          dup2\n          sload\n          dup2\n          0xff\n          mul\n          not\n          and\n          swap1\n          dup4\n          0xff\n          and\n          mul\n          or\n          swap1\n          sstore\n          pop\n            /* \"Voting.sol\":1668:1677  _fromDate */\n          dup3\n            /* \"Voting.sol\":1657:1665  fromDate */\n          0x00\n          0x16\n            /* \"Voting.sol\":1657:1677  fromDate = _fromDate */\n          0x0100\n          exp\n          dup2\n          sload\n          dup2\n          0xffffffff\n          mul\n          not\n          and\n          swap1\n          dup4\n          0xffffffff\n          and\n          mul\n          or\n          swap1\n          sstore\n          pop\n            /* \"Voting.sol\":1698:1706  _endDate */\n          dup2\n            /* \"Voting.sol\":1688:1695  endDate */\n          0x00\n          0x1a\n            /* \"Voting.sol\":1688:1706  endDate = _endDate */\n          0x0100\n          exp\n          dup2\n          sload\n          dup2\n          0xffffffff\n          mul\n          not\n          and\n          swap1\n          dup4\n          0xffffffff\n          and\n          mul\n          or\n          swap1\n          sstore\n          pop\n            /* \"Voting.sol\":1449:1773  constructor(... */\n          pop\n          pop\n          pop\n          pop\n            /* \"Voting.sol\":497:3294  contract Voting {... */\n          jump(tag_6)\n            /* \"#utility.yul\":88:205   */\n        tag_8:\n            /* \"#utility.yul\":197:198   */\n          0x00\n            /* \"#utility.yul\":194:195   */\n          dup1\n            /* \"#utility.yul\":187:199   */\n          revert\n            /* \"#utility.yul\":334:420   */\n        tag_10:\n            /* \"#utility.yul\":369:376   */\n          0x00\n            /* \"#utility.yul\":409:413   */\n          0xff\n            /* \"#utility.yul\":402:407   */\n          dup3\n            /* \"#utility.yul\":398:414   */\n          and\n            /* \"#utility.yul\":387:414   */\n          swap1\n          pop\n            /* \"#utility.yul\":334:420   */\n          swap2\n          swap1\n          pop\n          jump\t// out\n            /* \"#utility.yul\":426:544   */\n        tag_11:\n            /* \"#utility.yul\":497:519   */\n          tag_26\n            /* \"#utility.yul\":513:518   */\n          dup2\n            /* \"#utility.yul\":497:519   */\n          tag_10\n          jump\t// in\n        tag_26:\n            /* \"#utility.yul\":490:495   */\n          dup2\n            /* \"#utility.yul\":487:520   */\n          eq\n            /* \"#utility.yul\":477:538   */\n          tag_27\n          jumpi\n            /* \"#utility.yul\":534:535   */\n          0x00\n            /* \"#utility.yul\":531:532   */\n          dup1\n            /* \"#utility.yul\":524:536   */\n          revert\n            /* \"#utility.yul\":477:538   */\n        tag_27:\n            /* \"#utility.yul\":426:544   */\n          pop\n          jump\t// out\n            /* \"#utility.yul\":550:689   */\n        tag_12:\n            /* \"#utility.yul\":605:610   */\n          0x00\n            /* \"#utility.yul\":636:642   */\n          dup2\n            /* \"#utility.yul\":630:643   */\n          mload\n            /* \"#utility.yul\":621:643   */\n          swap1\n          pop\n            /* \"#utility.yul\":652:683   */\n          tag_29\n            /* \"#utility.yul\":677:682   */\n          dup2\n            /* \"#utility.yul\":652:683   */\n          tag_11\n          jump\t// in\n        tag_29:\n            /* \"#utility.yul\":550:689   */\n          swap3\n          swap2\n          pop\n          pop\n          jump\t// out\n            /* \"#utility.yul\":695:788   */\n        tag_13:\n            /* \"#utility.yul\":731:738   */\n          0x00\n            /* \"#utility.yul\":771:781   */\n          0xffffffff\n            /* \"#utility.yul\":764:769   */\n          dup3\n            /* \"#utility.yul\":760:782   */\n          and\n            /* \"#utility.yul\":749:782   */\n          swap1\n          pop\n            /* \"#utility.yul\":695:788   */\n          swap2\n          swap1\n          pop\n          jump\t// out\n            /* \"#utility.yul\":794:914   */\n        tag_14:\n            /* \"#utility.yul\":866:889   */\n          tag_32\n            /* \"#utility.yul\":883:888   */\n          dup2\n            /* \"#utility.yul\":866:889   */\n          tag_13\n          jump\t// in\n        tag_32:\n            /* \"#utility.yul\":859:864   */\n          dup2\n            /* \"#utility.yul\":856:890   */\n          eq\n            /* \"#utility.yul\":846:908   */\n          tag_33\n          jumpi\n            /* \"#utility.yul\":904:905   */\n          0x00\n            /* \"#utility.yul\":901:902   */\n          dup1\n            /* \"#utility.yul\":894:906   */\n          revert\n            /* \"#utility.yul\":846:908   */\n        tag_33:\n            /* \"#utility.yul\":794:914   */\n          pop\n          jump\t// out\n            /* \"#utility.yul\":920:1061   */\n        tag_15:\n            /* \"#utility.yul\":976:981   */\n          0x00\n            /* \"#utility.yul\":1007:1013   */\n          dup2\n            /* \"#utility.yul\":1001:1014   */\n          mload\n            /* \"#utility.yul\":992:1014   */\n          swap1\n          pop\n            /* \"#utility.yul\":1023:1055   */\n          tag_35\n            /* \"#utility.yul\":1049:1054   */\n          dup2\n            /* \"#utility.yul\":1023:1055   */\n          tag_14\n          jump\t// in\n        tag_35:\n            /* \"#utility.yul\":920:1061   */\n          swap3\n          swap2\n          pop\n          pop\n          jump\t// out\n            /* \"#utility.yul\":1067:1193   */\n        tag_16:\n            /* \"#utility.yul\":1104:1111   */\n          0x00\n            /* \"#utility.yul\":1144:1186   */\n          0xffffffffffffffffffffffffffffffffffffffff\n            /* \"#utility.yul\":1137:1142   */\n          dup3\n            /* \"#utility.yul\":1133:1187   */\n          and\n            /* \"#utility.yul\":1122:1187   */\n          swap1\n          pop\n            /* \"#utility.yul\":1067:1193   */\n          swap2\n          swap1\n          pop\n          jump\t// out\n            /* \"#utility.yul\":1199:1295   */\n        tag_17:\n            /* \"#utility.yul\":1236:1243   */\n          0x00\n            /* \"#utility.yul\":1265:1289   */\n          tag_38\n            /* \"#utility.yul\":1283:1288   */\n          dup3\n            /* \"#utility.yul\":1265:1289   */\n          tag_16\n          jump\t// in\n        tag_38:\n            /* \"#utility.yul\":1254:1289   */\n          swap1\n          pop\n            /* \"#utility.yul\":1199:1295   */\n          swap2\n          swap1\n          pop\n          jump\t// out\n            /* \"#utility.yul\":1301:1423   */\n        tag_18:\n            /* \"#utility.yul\":1374:1398   */\n          tag_40\n            /* \"#utility.yul\":1392:1397   */\n          dup2\n            /* \"#utility.yul\":1374:1398   */\n          tag_17\n          jump\t// in\n        tag_40:\n            /* \"#utility.yul\":1367:1372   */\n          dup2\n            /* \"#utility.yul\":1364:1399   */\n          eq\n            /* \"#utility.yul\":1354:1417   */\n          tag_41\n          jumpi\n            /* \"#utility.yul\":1413:1414   */\n          0x00\n            /* \"#utility.yul\":1410:1411   */\n          dup1\n            /* \"#utility.yul\":1403:1415   */\n          revert\n            /* \"#utility.yul\":1354:1417   */\n        tag_41:\n            /* \"#utility.yul\":1301:1423   */\n          pop\n          jump\t// out\n            /* \"#utility.yul\":1429:1572   */\n        tag_19:\n            /* \"#utility.yul\":1486:1491   */\n          0x00\n            /* \"#utility.yul\":1517:1523   */\n          dup2\n            /* \"#utility.yul\":1511:1524   */\n          mload\n            /* \"#utility.yul\":1502:1524   */\n          swap1\n          pop\n            /* \"#utility.yul\":1533:1566   */\n          tag_43\n            /* \"#utility.yul\":1560:1565   */\n          dup2\n            /* \"#utility.yul\":1533:1566   */\n          tag_18\n          jump\t// in\n        tag_43:\n            /* \"#utility.yul\":1429:1572   */\n          swap3\n          swap2\n          pop\n          pop\n          jump\t// out\n            /* \"#utility.yul\":1578:2390   */\n        tag_3:\n            /* \"#utility.yul\":1671:1677   */\n          0x00\n            /* \"#utility.yul\":1679:1685   */\n          dup1\n            /* \"#utility.yul\":1687:1693   */\n          0x00\n            /* \"#utility.yul\":1695:1701   */\n          dup1\n            /* \"#utility.yul\":1744:1747   */\n          0x80\n            /* \"#utility.yul\":1732:1741   */\n          dup6\n            /* \"#utility.yul\":1723:1730   */\n          dup8\n            /* \"#utility.yul\":1719:1742   */\n          sub\n            /* \"#utility.yul\":1715:1748   */\n          slt\n            /* \"#utility.yul\":1712:1832   */\n          iszero\n          tag_45\n          jumpi\n            /* \"#utility.yul\":1751:1830   */\n          tag_46\n          tag_8\n          jump\t// in\n        tag_46:\n            /* \"#utility.yul\":1712:1832   */\n        tag_45:\n            /* \"#utility.yul\":1871:1872   */\n          0x00\n            /* \"#utility.yul\":1896:1958   */\n          tag_47\n            /* \"#utility.yul\":1950:1957   */\n          dup8\n            /* \"#utility.yul\":1941:1947   */\n          dup3\n            /* \"#utility.yul\":1930:1939   */\n          dup9\n            /* \"#utility.yul\":1926:1948   */\n          add\n            /* \"#utility.yul\":1896:1958   */\n          tag_12\n          jump\t// in\n        tag_47:\n            /* \"#utility.yul\":1886:1958   */\n          swap5\n          pop\n            /* \"#utility.yul\":1842:1968   */\n          pop\n            /* \"#utility.yul\":2007:2009   */\n          0x20\n            /* \"#utility.yul\":2033:2096   */\n          tag_48\n            /* \"#utility.yul\":2088:2095   */\n          dup8\n            /* \"#utility.yul\":2079:2085   */\n          dup3\n            /* \"#utility.yul\":2068:2077   */\n          dup9\n            /* \"#utility.yul\":2064:2086   */\n          add\n            /* \"#utility.yul\":2033:2096   */\n          tag_15\n          jump\t// in\n        tag_48:\n            /* \"#utility.yul\":2023:2096   */\n          swap4\n          pop\n            /* \"#utility.yul\":1978:2106   */\n          pop\n            /* \"#utility.yul\":2145:2147   */\n          0x40\n            /* \"#utility.yul\":2171:2234   */\n          tag_49\n            /* \"#utility.yul\":2226:2233   */\n          dup8\n            /* \"#utility.yul\":2217:2223   */\n          dup3\n            /* \"#utility.yul\":2206:2215   */\n          dup9\n            /* \"#utility.yul\":2202:2224   */\n          add\n            /* \"#utility.yul\":2171:2234   */\n          tag_15\n          jump\t// in\n        tag_49:\n            /* \"#utility.yul\":2161:2234   */\n          swap3\n          pop\n            /* \"#utility.yul\":2116:2244   */\n          pop\n            /* \"#utility.yul\":2283:2285   */\n          0x60\n            /* \"#utility.yul\":2309:2373   */\n          tag_50\n            /* \"#utility.yul\":2365:2372   */\n          dup8\n            /* \"#utility.yul\":2356:2362   */\n          dup3\n            /* \"#utility.yul\":2345:2354   */\n          dup9\n            /* \"#utility.yul\":2341:2363   */\n          add\n            /* \"#utility.yul\":2309:2373   */\n          tag_19\n          jump\t// in\n        tag_50:\n            /* \"#utility.yul\":2299:2373   */\n          swap2\n          pop\n            /* \"#utility.yul\":2254:2383   */\n          pop\n            /* \"#utility.yul\":1578:2390   */\n          swap3\n          swap6\n          swap2\n          swap5\n          pop\n          swap3\n          pop\n          jump\t// out\n            /* \"Voting.sol\":497:3294  contract Voting {... */\n        tag_6:\n          dataSize(sub_0)\n          dup1\n          dataOffset(sub_0)\n          0x00\n          codecopy\n          0x00\n          return\n        stop\n\n        sub_0: assembly {\n                /* \"Voting.sol\":497:3294  contract Voting {... */\n              mstore(0x40, 0x80)\n              callvalue\n              dup1\n              iszero\n              tag_1\n              jumpi\n              0x00\n              dup1\n              revert\n            tag_1:\n              pop\n              jumpi(tag_2, lt(calldatasize, 0x04))\n              shr(0xe0, calldataload(0x00))\n              dup1\n              0x78622c5d\n              gt\n              tag_18\n              jumpi\n              dup1\n              0xa944b7a6\n              gt\n              tag_19\n              jumpi\n              dup1\n              0xa944b7a6\n              eq\n              tag_14\n              jumpi\n              dup1\n              0xb3f98adc\n              eq\n              tag_15\n              jumpi\n              dup1\n              0xc24a0f8b\n              eq\n              tag_16\n              jumpi\n              dup1\n              0xf4ab9adf\n              eq\n              tag_17\n              jumpi\n              jump(tag_2)\n            tag_19:\n              dup1\n              0x78622c5d\n              eq\n              tag_10\n              jumpi\n              dup1\n              0x8953bb72\n              eq\n              tag_11\n              jumpi\n              dup1\n              0x9d9a7fe9\n              eq\n              tag_12\n              jumpi\n              dup1\n              0xa3d45314\n              eq\n              tag_13\n              jumpi\n              jump(tag_2)\n            tag_18:\n              dup1\n              0x481c6a75\n              gt\n              tag_20\n              jumpi\n              dup1\n              0x481c6a75\n              eq\n              tag_6\n              jumpi\n              dup1\n              0x4e69d560\n              eq\n              tag_7\n              jumpi\n              dup1\n              0x522e1177\n              eq\n              tag_8\n              jumpi\n              dup1\n              0x70babc8a\n              eq\n              tag_9\n              jumpi\n              jump(tag_2)\n            tag_20:\n              dup1\n              0x13b0ba19\n              eq\n              tag_3\n              jumpi\n              dup1\n              0x1632c03f\n              eq\n              tag_4\n              jumpi\n              dup1\n              0x255adfd4\n              eq\n              tag_5\n              jumpi\n            tag_2:\n              0x00\n              dup1\n              revert\n                /* \"Voting.sol\":1120:1163  mapping(uint8 => uint32) public choiceVotes */\n            tag_3:\n              tag_21\n              0x04\n              dup1\n              calldatasize\n              sub\n              dup2\n              add\n              swap1\n              tag_22\n              swap2\n              swap1\n              tag_23\n              jump\t// in\n            tag_22:\n              tag_24\n              jump\t// in\n            tag_21:\n              mload(0x40)\n              tag_25\n              swap2\n              swap1\n              tag_26\n              jump\t// in\n            tag_25:\n              mload(0x40)\n              dup1\n              swap2\n              sub\n              swap1\n              return\n                /* \"Voting.sol\":649:674  uint8 public totalChoices */\n            tag_4:\n              tag_27\n              tag_28\n              jump\t// in\n            tag_27:\n              mload(0x40)\n              tag_29\n              swap2\n              swap1\n              tag_30\n              jump\t// in\n            tag_29:\n              mload(0x40)\n              dup1\n              swap2\n              sub\n              swap1\n              return\n                /* \"Voting.sol\":1068:1113  mapping(address => bool) public allowedVoters */\n            tag_5:\n              tag_31\n              0x04\n              dup1\n              calldatasize\n              sub\n              dup2\n              add\n              swap1\n              tag_32\n              swap2\n              swap1\n              tag_33\n              jump\t// in\n            tag_32:\n              tag_34\n              jump\t// in\n            tag_31:\n              mload(0x40)\n              tag_35\n              swap2\n              swap1\n              tag_36\n              jump\t// in\n            tag_35:\n              mload(0x40)\n              dup1\n              swap2\n              sub\n              swap1\n              return\n                /* \"Voting.sol\":620:642  address public manager */\n            tag_6:\n              tag_37\n              tag_38\n              jump\t// in\n            tag_37:\n              mload(0x40)\n              tag_39\n              swap2\n              swap1\n              tag_40\n              jump\t// in\n            tag_39:\n              mload(0x40)\n              dup1\n              swap2\n              sub\n              swap1\n              return\n                /* \"Voting.sol\":2983:3291  function getStatus()... */\n            tag_7:\n              tag_41\n              tag_42\n              jump\t// in\n            tag_41:\n              mload(0x40)\n              tag_43\n              swap7\n              swap6\n              swap5\n              swap4\n              swap3\n              swap2\n              swap1\n              tag_44\n              jump\t// in\n            tag_43:\n              mload(0x40)\n              dup1\n              swap2\n              sub\n              swap1\n              return\n                /* \"Voting.sol\":2641:2859  function complete() external onlyManager {... */\n            tag_8:\n              tag_45\n              tag_46\n              jump\t// in\n            tag_45:\n              stop\n                /* \"Voting.sol\":927:959  uint32 public totalAllowedVoters */\n            tag_9:\n              tag_47\n              tag_48\n              jump\t// in\n            tag_47:\n              mload(0x40)\n              tag_49\n              swap2\n              swap1\n              tag_26\n              jump\t// in\n            tag_49:\n              mload(0x40)\n              dup1\n              swap2\n              sub\n              swap1\n              return\n                /* \"Voting.sol\":890:920  uint32 public totalVotersVoted */\n            tag_10:\n              tag_50\n              tag_51\n              jump\t// in\n            tag_50:\n              mload(0x40)\n              tag_52\n              swap2\n              swap1\n              tag_26\n              jump\t// in\n            tag_52:\n              mload(0x40)\n              dup1\n              swap2\n              sub\n              swap1\n              return\n                /* \"Voting.sol\":2867:2975  function getVotes(uint8 choice) external view returns (uint32) {... */\n            tag_11:\n              tag_53\n              0x04\n              dup1\n              calldatasize\n              sub\n              dup2\n              add\n              swap1\n              tag_54\n              swap2\n              swap1\n              tag_23\n              jump\t// in\n            tag_54:\n              tag_55\n              jump\t// in\n            tag_53:\n              mload(0x40)\n              tag_56\n              swap2\n              swap1\n              tag_26\n              jump\t// in\n            tag_56:\n              mload(0x40)\n              dup1\n              swap2\n              sub\n              swap1\n              return\n                /* \"Voting.sol\":681:702  bool public completed */\n            tag_12:\n              tag_57\n              tag_58\n              jump\t// in\n            tag_57:\n              mload(0x40)\n              tag_59\n              swap2\n              swap1\n              tag_36\n              jump\t// in\n            tag_59:\n              mload(0x40)\n              dup1\n              swap2\n              sub\n              swap1\n              return\n                /* \"Voting.sol\":1018:1061  mapping(address => bool) public votedVoters */\n            tag_13:\n              tag_60\n              0x04\n              dup1\n              calldatasize\n              sub\n              dup2\n              add\n              swap1\n              tag_61\n              swap2\n              swap1\n              tag_33\n              jump\t// in\n            tag_61:\n              tag_62\n              jump\t// in\n            tag_60:\n              mload(0x40)\n              tag_63\n              swap2\n              swap1\n              tag_36\n              jump\t// in\n            tag_63:\n              mload(0x40)\n              dup1\n              swap2\n              sub\n              swap1\n              return\n                /* \"Voting.sol\":833:855  uint32 public fromDate */\n            tag_14:\n              tag_64\n              tag_65\n              jump\t// in\n            tag_64:\n              mload(0x40)\n              tag_66\n              swap2\n              swap1\n              tag_26\n              jump\t// in\n            tag_66:\n              mload(0x40)\n              dup1\n              swap2\n              sub\n              swap1\n              return\n                /* \"Voting.sol\":2047:2633  function vote(uint8 choice) external {... */\n            tag_15:\n              tag_67\n              0x04\n              dup1\n              calldatasize\n              sub\n              dup2\n              add\n              swap1\n              tag_68\n              swap2\n              swap1\n              tag_23\n              jump\t// in\n            tag_68:\n              tag_69\n              jump\t// in\n            tag_67:\n              stop\n                /* \"Voting.sol\":862:883  uint32 public endDate */\n            tag_16:\n              tag_70\n              tag_71\n              jump\t// in\n            tag_70:\n              mload(0x40)\n              tag_72\n              swap2\n              swap1\n              tag_26\n              jump\t// in\n            tag_72:\n              mload(0x40)\n              dup1\n              swap2\n              sub\n              swap1\n              return\n                /* \"Voting.sol\":1781:2039  function addVoter(address voter) external onlyManager {... */\n            tag_17:\n              tag_73\n              0x04\n              dup1\n              calldatasize\n              sub\n              dup2\n              add\n              swap1\n              tag_74\n              swap2\n              swap1\n              tag_33\n              jump\t// in\n            tag_74:\n              tag_75\n              jump\t// in\n            tag_73:\n              stop\n                /* \"Voting.sol\":1120:1163  mapping(uint8 => uint32) public choiceVotes */\n            tag_24:\n              mstore(0x20, 0x04)\n              dup1\n              0x00\n              mstore\n              keccak256(0x00, 0x40)\n              0x00\n              swap2\n              pop\n              sload\n              swap1\n              0x0100\n              exp\n              swap1\n              div\n              0xffffffff\n              and\n              dup2\n              jump\t// out\n                /* \"Voting.sol\":649:674  uint8 public totalChoices */\n            tag_28:\n              0x00\n              0x14\n              swap1\n              sload\n              swap1\n              0x0100\n              exp\n              swap1\n              div\n              0xff\n              and\n              dup2\n              jump\t// out\n                /* \"Voting.sol\":1068:1113  mapping(address => bool) public allowedVoters */\n            tag_34:\n              mstore(0x20, 0x03)\n              dup1\n              0x00\n              mstore\n              keccak256(0x00, 0x40)\n              0x00\n              swap2\n              pop\n              sload\n              swap1\n              0x0100\n              exp\n              swap1\n              div\n              0xff\n              and\n              dup2\n              jump\t// out\n                /* \"Voting.sol\":620:642  address public manager */\n            tag_38:\n              0x00\n              dup1\n              sload\n              swap1\n              0x0100\n              exp\n              swap1\n              div\n              0xffffffffffffffffffffffffffffffffffffffff\n              and\n              dup2\n              jump\t// out\n                /* \"Voting.sol\":2983:3291  function getStatus()... */\n            tag_42:\n                /* \"Voting.sol\":3054:3061  address */\n              0x00\n                /* \"Voting.sol\":3063:3068  uint8 */\n              dup1\n                /* \"Voting.sol\":3070:3076  uint32 */\n              0x00\n                /* \"Voting.sol\":3078:3084  uint32 */\n              dup1\n                /* \"Voting.sol\":3086:3090  bool */\n              0x00\n                /* \"Voting.sol\":3092:3098  uint32 */\n              dup1\n                /* \"Voting.sol\":3138:3145  manager */\n              0x00\n              dup1\n              sload\n              swap1\n              0x0100\n              exp\n              swap1\n              div\n              0xffffffffffffffffffffffffffffffffffffffff\n              and\n                /* \"Voting.sol\":3160:3172  totalChoices */\n              0x00\n              0x14\n              swap1\n              sload\n              swap1\n              0x0100\n              exp\n              swap1\n              div\n              0xff\n              and\n                /* \"Voting.sol\":3187:3195  fromDate */\n              0x00\n              0x16\n              swap1\n              sload\n              swap1\n              0x0100\n              exp\n              swap1\n              div\n              0xffffffff\n              and\n                /* \"Voting.sol\":3210:3217  endDate */\n              0x00\n              0x1a\n              swap1\n              sload\n              swap1\n              0x0100\n              exp\n              swap1\n              div\n              0xffffffff\n              and\n                /* \"Voting.sol\":3232:3241  completed */\n              0x00\n              0x15\n              swap1\n              sload\n              swap1\n              0x0100\n              exp\n              swap1\n              div\n              0xff\n              and\n                /* \"Voting.sol\":3256:3272  totalVotersVoted */\n              0x01\n              0x00\n              swap1\n              sload\n              swap1\n              0x0100\n              exp\n              swap1\n              div\n              0xffffffff\n              and\n                /* \"Voting.sol\":3116:3283  return (... */\n              swap6\n              pop\n              swap6\n              pop\n              swap6\n              pop\n              swap6\n              pop\n              swap6\n              pop\n              swap6\n              pop\n                /* \"Voting.sol\":2983:3291  function getStatus()... */\n              swap1\n              swap2\n              swap3\n              swap4\n              swap5\n              swap6\n              jump\t// out\n                /* \"Voting.sol\":2641:2859  function complete() external onlyManager {... */\n            tag_46:\n                /* \"Voting.sol\":1398:1405  manager */\n              0x00\n              dup1\n              sload\n              swap1\n              0x0100\n              exp\n              swap1\n              div\n              0xffffffffffffffffffffffffffffffffffffffff\n              and\n                /* \"Voting.sol\":1384:1405  msg.sender == manager */\n              0xffffffffffffffffffffffffffffffffffffffff\n              and\n                /* \"Voting.sol\":1384:1394  msg.sender */\n              caller\n                /* \"Voting.sol\":1384:1405  msg.sender == manager */\n              0xffffffffffffffffffffffffffffffffffffffff\n              and\n              eq\n                /* \"Voting.sol\":1376:1421  require(msg.sender == manager, \"Not manager\") */\n              tag_78\n              jumpi\n              mload(0x40)\n              0x08c379a000000000000000000000000000000000000000000000000000000000\n              dup2\n              mstore\n              0x04\n              add\n              tag_79\n              swap1\n              tag_80\n              jump\t// in\n            tag_79:\n              mload(0x40)\n              dup1\n              swap2\n              sub\n              swap1\n              revert\n            tag_78:\n                /* \"Voting.sol\":2702:2711  completed */\n              0x00\n              0x15\n              swap1\n              sload\n              swap1\n              0x0100\n              exp\n              swap1\n              div\n              0xff\n              and\n                /* \"Voting.sol\":2701:2711  !completed */\n              iszero\n                /* \"Voting.sol\":2693:2733  require(!completed, \"Already completed\") */\n              tag_82\n              jumpi\n              mload(0x40)\n              0x08c379a000000000000000000000000000000000000000000000000000000000\n              dup2\n              mstore\n              0x04\n              add\n              tag_83\n              swap1\n              tag_84\n              jump\t// in\n            tag_83:\n              mload(0x40)\n              dup1\n              swap2\n              sub\n              swap1\n              revert\n            tag_82:\n                /* \"Voting.sol\":2770:2777  endDate */\n              0x00\n              0x1a\n              swap1\n              sload\n              swap1\n              0x0100\n              exp\n              swap1\n              div\n              0xffffffff\n              and\n                /* \"Voting.sol\":2752:2777  block.timestamp > endDate */\n              0xffffffff\n              and\n                /* \"Voting.sol\":2752:2767  block.timestamp */\n              timestamp\n                /* \"Voting.sol\":2752:2777  block.timestamp > endDate */\n              gt\n                /* \"Voting.sol\":2744:2791  require(block.timestamp > endDate, \"Not ended\") */\n              tag_85\n              jumpi\n              mload(0x40)\n              0x08c379a000000000000000000000000000000000000000000000000000000000\n              dup2\n              mstore\n              0x04\n              add\n              tag_86\n              swap1\n              tag_87\n              jump\t// in\n            tag_86:\n              mload(0x40)\n              dup1\n              swap2\n              sub\n              swap1\n              revert\n            tag_85:\n                /* \"Voting.sol\":2814:2818  true */\n              0x01\n                /* \"Voting.sol\":2802:2811  completed */\n              0x00\n              0x15\n                /* \"Voting.sol\":2802:2818  completed = true */\n              0x0100\n              exp\n              dup2\n              sload\n              dup2\n              0xff\n              mul\n              not\n              and\n              swap1\n              dup4\n              iszero\n              iszero\n              mul\n              or\n              swap1\n              sstore\n              pop\n                /* \"Voting.sol\":2834:2851  VotingCompleted() */\n              0xfa4c46064339896f4ef55eeac982a9e8bd0dbebe83ed7978cf168fa14f679f70\n              mload(0x40)\n              mload(0x40)\n              dup1\n              swap2\n              sub\n              swap1\n              log1\n                /* \"Voting.sol\":2641:2859  function complete() external onlyManager {... */\n              jump\t// out\n                /* \"Voting.sol\":927:959  uint32 public totalAllowedVoters */\n            tag_48:\n              0x01\n              0x04\n              swap1\n              sload\n              swap1\n              0x0100\n              exp\n              swap1\n              div\n              0xffffffff\n              and\n              dup2\n              jump\t// out\n                /* \"Voting.sol\":890:920  uint32 public totalVotersVoted */\n            tag_51:\n              0x01\n              0x00\n              swap1\n              sload\n              swap1\n              0x0100\n              exp\n              swap1\n              div\n              0xffffffff\n              and\n              dup2\n              jump\t// out\n                /* \"Voting.sol\":2867:2975  function getVotes(uint8 choice) external view returns (uint32) {... */\n            tag_55:\n                /* \"Voting.sol\":2922:2928  uint32 */\n              0x00\n                /* \"Voting.sol\":2948:2959  choiceVotes */\n              0x04\n                /* \"Voting.sol\":2948:2967  choiceVotes[choice] */\n              0x00\n                /* \"Voting.sol\":2960:2966  choice */\n              dup4\n                /* \"Voting.sol\":2948:2967  choiceVotes[choice] */\n              0xff\n              and\n              0xff\n              and\n              dup2\n              mstore\n              0x20\n              add\n              swap1\n              dup2\n              mstore\n              0x20\n              add\n              0x00\n              keccak256\n              0x00\n              swap1\n              sload\n              swap1\n              0x0100\n              exp\n              swap1\n              div\n              0xffffffff\n              and\n                /* \"Voting.sol\":2941:2967  return choiceVotes[choice] */\n              swap1\n              pop\n                /* \"Voting.sol\":2867:2975  function getVotes(uint8 choice) external view returns (uint32) {... */\n              swap2\n              swap1\n              pop\n              jump\t// out\n                /* \"Voting.sol\":681:702  bool public completed */\n            tag_58:\n              0x00\n              0x15\n              swap1\n              sload\n              swap1\n              0x0100\n              exp\n              swap1\n              div\n              0xff\n              and\n              dup2\n              jump\t// out\n                /* \"Voting.sol\":1018:1061  mapping(address => bool) public votedVoters */\n            tag_62:\n              mstore(0x20, 0x02)\n              dup1\n              0x00\n              mstore\n              keccak256(0x00, 0x40)\n              0x00\n              swap2\n              pop\n              sload\n              swap1\n              0x0100\n              exp\n              swap1\n              div\n              0xff\n              and\n              dup2\n              jump\t// out\n                /* \"Voting.sol\":833:855  uint32 public fromDate */\n            tag_65:\n              0x00\n              0x16\n              swap1\n              sload\n              swap1\n              0x0100\n              exp\n              swap1\n              div\n              0xffffffff\n              and\n              dup2\n              jump\t// out\n                /* \"Voting.sol\":2047:2633  function vote(uint8 choice) external {... */\n            tag_69:\n                /* \"Voting.sol\":2103:2116  allowedVoters */\n              0x03\n                /* \"Voting.sol\":2103:2128  allowedVoters[msg.sender] */\n              0x00\n                /* \"Voting.sol\":2117:2127  msg.sender */\n              caller\n                /* \"Voting.sol\":2103:2128  allowedVoters[msg.sender] */\n              0xffffffffffffffffffffffffffffffffffffffff\n              and\n              0xffffffffffffffffffffffffffffffffffffffff\n              and\n              dup2\n              mstore\n              0x20\n              add\n              swap1\n              dup2\n              mstore\n              0x20\n              add\n              0x00\n              keccak256\n              0x00\n              swap1\n              sload\n              swap1\n              0x0100\n              exp\n              swap1\n              div\n              0xff\n              and\n                /* \"Voting.sol\":2095:2144  require(allowedVoters[msg.sender], \"Not allowed\") */\n              tag_90\n              jumpi\n              mload(0x40)\n              0x08c379a000000000000000000000000000000000000000000000000000000000\n              dup2\n              mstore\n              0x04\n              add\n              tag_91\n              swap1\n              tag_92\n              jump\t// in\n            tag_91:\n              mload(0x40)\n              dup1\n              swap2\n              sub\n              swap1\n              revert\n            tag_90:\n                /* \"Voting.sol\":2164:2175  votedVoters */\n              0x02\n                /* \"Voting.sol\":2164:2187  votedVoters[msg.sender] */\n              0x00\n                /* \"Voting.sol\":2176:2186  msg.sender */\n              caller\n                /* \"Voting.sol\":2164:2187  votedVoters[msg.sender] */\n              0xffffffffffffffffffffffffffffffffffffffff\n              and\n              0xffffffffffffffffffffffffffffffffffffffff\n              and\n              dup2\n              mstore\n              0x20\n              add\n              swap1\n              dup2\n              mstore\n              0x20\n              add\n              0x00\n              keccak256\n              0x00\n              swap1\n              sload\n              swap1\n              0x0100\n              exp\n              swap1\n              div\n              0xff\n              and\n                /* \"Voting.sol\":2163:2187  !votedVoters[msg.sender] */\n              iszero\n                /* \"Voting.sol\":2155:2205  require(!votedVoters[msg.sender], \"Already voted\") */\n              tag_93\n              jumpi\n              mload(0x40)\n              0x08c379a000000000000000000000000000000000000000000000000000000000\n              dup2\n              mstore\n              0x04\n              add\n              tag_94\n              swap1\n              tag_95\n              jump\t// in\n            tag_94:\n              mload(0x40)\n              dup1\n              swap2\n              sub\n              swap1\n              revert\n            tag_93:\n                /* \"Voting.sol\":2225:2234  completed */\n              0x00\n              0x15\n              swap1\n              sload\n              swap1\n              0x0100\n              exp\n              swap1\n              div\n              0xff\n              and\n                /* \"Voting.sol\":2224:2234  !completed */\n              iszero\n                /* \"Voting.sol\":2216:2248  require(!completed, \"Completed\") */\n              tag_96\n              jumpi\n              mload(0x40)\n              0x08c379a000000000000000000000000000000000000000000000000000000000\n              dup2\n              mstore\n              0x04\n              add\n              tag_97\n              swap1\n              tag_98\n              jump\t// in\n            tag_97:\n              mload(0x40)\n              dup1\n              swap2\n              sub\n              swap1\n              revert\n            tag_96:\n                /* \"Voting.sol\":2300:2308  fromDate */\n              0x00\n              0x16\n              swap1\n              sload\n              swap1\n              0x0100\n              exp\n              swap1\n              div\n              0xffffffff\n              and\n                /* \"Voting.sol\":2281:2308  block.timestamp >= fromDate */\n              0xffffffff\n              and\n                /* \"Voting.sol\":2281:2296  block.timestamp */\n              timestamp\n                /* \"Voting.sol\":2281:2308  block.timestamp >= fromDate */\n              lt\n              iszero\n                /* \"Voting.sol\":2281:2338  block.timestamp >= fromDate && block.timestamp <= endDate */\n              dup1\n              iszero\n              tag_99\n              jumpi\n              pop\n                /* \"Voting.sol\":2331:2338  endDate */\n              0x00\n              0x1a\n              swap1\n              sload\n              swap1\n              0x0100\n              exp\n              swap1\n              div\n              0xffffffff\n              and\n                /* \"Voting.sol\":2312:2338  block.timestamp <= endDate */\n              0xffffffff\n              and\n                /* \"Voting.sol\":2312:2327  block.timestamp */\n              timestamp\n                /* \"Voting.sol\":2312:2338  block.timestamp <= endDate */\n              gt\n              iszero\n                /* \"Voting.sol\":2281:2338  block.timestamp >= fromDate && block.timestamp <= endDate */\n            tag_99:\n                /* \"Voting.sol\":2259:2378  require(... */\n              tag_100\n              jumpi\n              mload(0x40)\n              0x08c379a000000000000000000000000000000000000000000000000000000000\n              dup2\n              mstore\n              0x04\n              add\n              tag_101\n              swap1\n              tag_102\n              jump\t// in\n            tag_101:\n              mload(0x40)\n              dup1\n              swap2\n              sub\n              swap1\n              revert\n            tag_100:\n                /* \"Voting.sol\":2406:2418  totalChoices */\n              0x00\n              0x14\n              swap1\n              sload\n              swap1\n              0x0100\n              exp\n              swap1\n              div\n              0xff\n              and\n                /* \"Voting.sol\":2397:2418  choice < totalChoices */\n              0xff\n              and\n                /* \"Voting.sol\":2397:2403  choice */\n              dup2\n                /* \"Voting.sol\":2397:2418  choice < totalChoices */\n              0xff\n              and\n              lt\n                /* \"Voting.sol\":2389:2437  require(choice < totalChoices, \"Invalid choice\") */\n              tag_103\n              jumpi\n              mload(0x40)\n              0x08c379a000000000000000000000000000000000000000000000000000000000\n              dup2\n              mstore\n              0x04\n              add\n              tag_104\n              swap1\n              tag_105\n              jump\t// in\n            tag_104:\n              mload(0x40)\n              dup1\n              swap2\n              sub\n              swap1\n              revert\n            tag_103:\n                /* \"Voting.sol\":2476:2480  true */\n              0x01\n                /* \"Voting.sol\":2450:2461  votedVoters */\n              0x02\n                /* \"Voting.sol\":2450:2473  votedVoters[msg.sender] */\n              0x00\n                /* \"Voting.sol\":2462:2472  msg.sender */\n              caller\n                /* \"Voting.sol\":2450:2473  votedVoters[msg.sender] */\n              0xffffffffffffffffffffffffffffffffffffffff\n              and\n              0xffffffffffffffffffffffffffffffffffffffff\n              and\n              dup2\n              mstore\n              0x20\n              add\n              swap1\n              dup2\n              mstore\n              0x20\n              add\n              0x00\n              keccak256\n              0x00\n                /* \"Voting.sol\":2450:2480  votedVoters[msg.sender] = true */\n              0x0100\n              exp\n              dup2\n              sload\n              dup2\n              0xff\n              mul\n              not\n              and\n              swap1\n              dup4\n              iszero\n              iszero\n              mul\n              or\n              swap1\n              sstore\n              pop\n                /* \"Voting.sol\":2516:2527  choiceVotes */\n              0x04\n                /* \"Voting.sol\":2516:2535  choiceVotes[choice] */\n              0x00\n                /* \"Voting.sol\":2528:2534  choice */\n              dup3\n                /* \"Voting.sol\":2516:2535  choiceVotes[choice] */\n              0xff\n              and\n              0xff\n              and\n              dup2\n              mstore\n              0x20\n              add\n              swap1\n              dup2\n              mstore\n              0x20\n              add\n              0x00\n              keccak256\n              0x00\n                /* \"Voting.sol\":2516:2537  choiceVotes[choice]++ */\n              dup2\n              dup2\n              swap1\n              sload\n              swap1\n              0x0100\n              exp\n              swap1\n              div\n              0xffffffff\n              and\n              dup1\n              swap3\n              swap2\n              swap1\n              0x01\n              add\n              swap2\n              swap1\n              0x0100\n              exp\n              dup2\n              sload\n              dup2\n              0xffffffff\n              mul\n              not\n              and\n              swap1\n              dup4\n              0xffffffff\n              and\n              mul\n              or\n              swap1\n              sstore\n              pop\n              pop\n                /* \"Voting.sol\":2552:2568  totalVotersVoted */\n              0x01\n              0x00\n                /* \"Voting.sol\":2552:2570  totalVotersVoted++ */\n              dup2\n              dup2\n              swap1\n              sload\n              swap1\n              0x0100\n              exp\n              swap1\n              div\n              0xffffffff\n              and\n              dup1\n              swap3\n              swap2\n              swap1\n              0x01\n              add\n              swap2\n              swap1\n              0x0100\n              exp\n              dup2\n              sload\n              dup2\n              0xffffffff\n              mul\n              not\n              and\n              swap1\n              dup4\n              0xffffffff\n              and\n              mul\n              or\n              swap1\n              sstore\n              pop\n              pop\n                /* \"Voting.sol\":2597:2625  VoteCast(msg.sender, choice) */\n              0xefffa0c001f10a86d936643c098510eba656ffab1d0c5165822b79d4c895e88f\n                /* \"Voting.sol\":2606:2616  msg.sender */\n              caller\n                /* \"Voting.sol\":2618:2624  choice */\n              dup3\n                /* \"Voting.sol\":2597:2625  VoteCast(msg.sender, choice) */\n              mload(0x40)\n              tag_106\n              swap3\n              swap2\n              swap1\n              tag_107\n              jump\t// in\n            tag_106:\n              mload(0x40)\n              dup1\n              swap2\n              sub\n              swap1\n              log1\n                /* \"Voting.sol\":2047:2633  function vote(uint8 choice) external {... */\n              pop\n              jump\t// out\n                /* \"Voting.sol\":862:883  uint32 public endDate */\n            tag_71:\n              0x00\n              0x1a\n              swap1\n              sload\n              swap1\n              0x0100\n              exp\n              swap1\n              div\n              0xffffffff\n              and\n              dup2\n              jump\t// out\n                /* \"Voting.sol\":1781:2039  function addVoter(address voter) external onlyManager {... */\n            tag_75:\n                /* \"Voting.sol\":1398:1405  manager */\n              0x00\n              dup1\n              sload\n              swap1\n              0x0100\n              exp\n              swap1\n              div\n              0xffffffffffffffffffffffffffffffffffffffff\n              and\n                /* \"Voting.sol\":1384:1405  msg.sender == manager */\n              0xffffffffffffffffffffffffffffffffffffffff\n              and\n                /* \"Voting.sol\":1384:1394  msg.sender */\n              caller\n                /* \"Voting.sol\":1384:1405  msg.sender == manager */\n              0xffffffffffffffffffffffffffffffffffffffff\n              and\n              eq\n                /* \"Voting.sol\":1376:1421  require(msg.sender == manager, \"Not manager\") */\n              tag_109\n              jumpi\n              mload(0x40)\n              0x08c379a000000000000000000000000000000000000000000000000000000000\n              dup2\n              mstore\n              0x04\n              add\n              tag_110\n              swap1\n              tag_80\n              jump\t// in\n            tag_110:\n              mload(0x40)\n              dup1\n              swap2\n              sub\n              swap1\n              revert\n            tag_109:\n                /* \"Voting.sol\":1855:1868  allowedVoters */\n              0x03\n                /* \"Voting.sol\":1855:1875  allowedVoters[voter] */\n              0x00\n                /* \"Voting.sol\":1869:1874  voter */\n              dup3\n                /* \"Voting.sol\":1855:1875  allowedVoters[voter] */\n              0xffffffffffffffffffffffffffffffffffffffff\n              and\n              0xffffffffffffffffffffffffffffffffffffffff\n              and\n              dup2\n              mstore\n              0x20\n              add\n              swap1\n              dup2\n              mstore\n              0x20\n              add\n              0x00\n              keccak256\n              0x00\n              swap1\n              sload\n              swap1\n              0x0100\n              exp\n              swap1\n              div\n              0xff\n              and\n                /* \"Voting.sol\":1854:1875  !allowedVoters[voter] */\n              iszero\n                /* \"Voting.sol\":1846:1893  require(!allowedVoters[voter], \"Already added\") */\n              tag_112\n              jumpi\n              mload(0x40)\n              0x08c379a000000000000000000000000000000000000000000000000000000000\n              dup2\n              mstore\n              0x04\n              add\n              tag_113\n              swap1\n              tag_114\n              jump\t// in\n            tag_113:\n              mload(0x40)\n              dup1\n              swap2\n              sub\n              swap1\n              revert\n            tag_112:\n                /* \"Voting.sol\":1927:1931  true */\n              0x01\n                /* \"Voting.sol\":1904:1917  allowedVoters */\n              0x03\n                /* \"Voting.sol\":1904:1924  allowedVoters[voter] */\n              0x00\n                /* \"Voting.sol\":1918:1923  voter */\n              dup4\n                /* \"Voting.sol\":1904:1924  allowedVoters[voter] */\n              0xffffffffffffffffffffffffffffffffffffffff\n              and\n              0xffffffffffffffffffffffffffffffffffffffff\n              and\n              dup2\n              mstore\n              0x20\n              add\n              swap1\n              dup2\n              mstore\n              0x20\n              add\n              0x00\n              keccak256\n              0x00\n                /* \"Voting.sol\":1904:1931  allowedVoters[voter] = true */\n              0x0100\n              exp\n              dup2\n              sload\n              dup2\n              0xff\n              mul\n              not\n              and\n              swap1\n              dup4\n              iszero\n              iszero\n              mul\n              or\n              swap1\n              sstore\n              pop\n                /* \"Voting.sol\":1967:1985  totalAllowedVoters */\n              0x01\n              0x04\n                /* \"Voting.sol\":1967:1987  totalAllowedVoters++ */\n              dup2\n              dup2\n              swap1\n              sload\n              swap1\n              0x0100\n              exp\n              swap1\n              div\n              0xffffffff\n              and\n              dup1\n              swap3\n              swap2\n              swap1\n              0x01\n              add\n              swap2\n              swap1\n              0x0100\n              exp\n              dup2\n              sload\n              dup2\n              0xffffffff\n              mul\n              not\n              and\n              swap1\n              dup4\n              0xffffffff\n              and\n              mul\n              or\n              swap1\n              sstore\n              pop\n              pop\n                /* \"Voting.sol\":2014:2031  VoterAdded(voter) */\n              0xa636f4a11e2d3ba7f89d042ecb0a6b886716e98cd49d8fd876ee0f73bced42b8\n                /* \"Voting.sol\":2025:2030  voter */\n              dup2\n                /* \"Voting.sol\":2014:2031  VoterAdded(voter) */\n              mload(0x40)\n              tag_115\n              swap2\n              swap1\n              tag_40\n              jump\t// in\n            tag_115:\n              mload(0x40)\n              dup1\n              swap2\n              sub\n              swap1\n              log1\n                /* \"Voting.sol\":1781:2039  function addVoter(address voter) external onlyManager {... */\n              pop\n              jump\t// out\n                /* \"#utility.yul\":88:205   */\n            tag_117:\n                /* \"#utility.yul\":197:198   */\n              0x00\n                /* \"#utility.yul\":194:195   */\n              dup1\n                /* \"#utility.yul\":187:199   */\n              revert\n                /* \"#utility.yul\":334:420   */\n            tag_119:\n                /* \"#utility.yul\":369:376   */\n              0x00\n                /* \"#utility.yul\":409:413   */\n              0xff\n                /* \"#utility.yul\":402:407   */\n              dup3\n                /* \"#utility.yul\":398:414   */\n              and\n                /* \"#utility.yul\":387:414   */\n              swap1\n              pop\n                /* \"#utility.yul\":334:420   */\n              swap2\n              swap1\n              pop\n              jump\t// out\n                /* \"#utility.yul\":426:544   */\n            tag_120:\n                /* \"#utility.yul\":497:519   */\n              tag_157\n                /* \"#utility.yul\":513:518   */\n              dup2\n                /* \"#utility.yul\":497:519   */\n              tag_119\n              jump\t// in\n            tag_157:\n                /* \"#utility.yul\":490:495   */\n              dup2\n                /* \"#utility.yul\":487:520   */\n              eq\n                /* \"#utility.yul\":477:538   */\n              tag_158\n              jumpi\n                /* \"#utility.yul\":534:535   */\n              0x00\n                /* \"#utility.yul\":531:532   */\n              dup1\n                /* \"#utility.yul\":524:536   */\n              revert\n                /* \"#utility.yul\":477:538   */\n            tag_158:\n                /* \"#utility.yul\":426:544   */\n              pop\n              jump\t// out\n                /* \"#utility.yul\":550:685   */\n            tag_121:\n                /* \"#utility.yul\":594:599   */\n              0x00\n                /* \"#utility.yul\":632:638   */\n              dup2\n                /* \"#utility.yul\":619:639   */\n              calldataload\n                /* \"#utility.yul\":610:639   */\n              swap1\n              pop\n                /* \"#utility.yul\":648:679   */\n              tag_160\n                /* \"#utility.yul\":673:678   */\n              dup2\n                /* \"#utility.yul\":648:679   */\n              tag_120\n              jump\t// in\n            tag_160:\n                /* \"#utility.yul\":550:685   */\n              swap3\n              swap2\n              pop\n              pop\n              jump\t// out\n                /* \"#utility.yul\":691:1016   */\n            tag_23:\n                /* \"#utility.yul\":748:754   */\n              0x00\n                /* \"#utility.yul\":797:799   */\n              0x20\n                /* \"#utility.yul\":785:794   */\n              dup3\n                /* \"#utility.yul\":776:783   */\n              dup5\n                /* \"#utility.yul\":772:795   */\n              sub\n                /* \"#utility.yul\":768:800   */\n              slt\n                /* \"#utility.yul\":765:884   */\n              iszero\n              tag_162\n              jumpi\n                /* \"#utility.yul\":803:882   */\n              tag_163\n              tag_117\n              jump\t// in\n            tag_163:\n                /* \"#utility.yul\":765:884   */\n            tag_162:\n                /* \"#utility.yul\":923:924   */\n              0x00\n                /* \"#utility.yul\":948:999   */\n              tag_164\n                /* \"#utility.yul\":991:998   */\n              dup5\n                /* \"#utility.yul\":982:988   */\n              dup3\n                /* \"#utility.yul\":971:980   */\n              dup6\n                /* \"#utility.yul\":967:989   */\n              add\n                /* \"#utility.yul\":948:999   */\n              tag_121\n              jump\t// in\n            tag_164:\n                /* \"#utility.yul\":938:999   */\n              swap2\n              pop\n                /* \"#utility.yul\":894:1009   */\n              pop\n                /* \"#utility.yul\":691:1016   */\n              swap3\n              swap2\n              pop\n              pop\n              jump\t// out\n                /* \"#utility.yul\":1022:1115   */\n            tag_122:\n                /* \"#utility.yul\":1058:1065   */\n              0x00\n                /* \"#utility.yul\":1098:1108   */\n              0xffffffff\n                /* \"#utility.yul\":1091:1096   */\n              dup3\n                /* \"#utility.yul\":1087:1109   */\n              and\n                /* \"#utility.yul\":1076:1109   */\n              swap1\n              pop\n                /* \"#utility.yul\":1022:1115   */\n              swap2\n              swap1\n              pop\n              jump\t// out\n                /* \"#utility.yul\":1121:1236   */\n            tag_123:\n                /* \"#utility.yul\":1206:1229   */\n              tag_167\n                /* \"#utility.yul\":1223:1228   */\n              dup2\n                /* \"#utility.yul\":1206:1229   */\n              tag_122\n              jump\t// in\n            tag_167:\n                /* \"#utility.yul\":1201:1204   */\n              dup3\n                /* \"#utility.yul\":1194:1230   */\n              mstore\n                /* \"#utility.yul\":1121:1236   */\n              pop\n              pop\n              jump\t// out\n                /* \"#utility.yul\":1242:1460   */\n            tag_26:\n                /* \"#utility.yul\":1333:1337   */\n              0x00\n                /* \"#utility.yul\":1371:1373   */\n              0x20\n                /* \"#utility.yul\":1360:1369   */\n              dup3\n                /* \"#utility.yul\":1356:1374   */\n              add\n                /* \"#utility.yul\":1348:1374   */\n              swap1\n              pop\n                /* \"#utility.yul\":1384:1453   */\n              tag_169\n                /* \"#utility.yul\":1450:1451   */\n              0x00\n                /* \"#utility.yul\":1439:1448   */\n              dup4\n                /* \"#utility.yul\":1435:1452   */\n              add\n                /* \"#utility.yul\":1426:1432   */\n              dup5\n                /* \"#utility.yul\":1384:1453   */\n              tag_123\n              jump\t// in\n            tag_169:\n                /* \"#utility.yul\":1242:1460   */\n              swap3\n              swap2\n              pop\n              pop\n              jump\t// out\n                /* \"#utility.yul\":1466:1578   */\n            tag_124:\n                /* \"#utility.yul\":1549:1571   */\n              tag_171\n                /* \"#utility.yul\":1565:1570   */\n              dup2\n                /* \"#utility.yul\":1549:1571   */\n              tag_119\n              jump\t// in\n            tag_171:\n                /* \"#utility.yul\":1544:1547   */\n              dup3\n                /* \"#utility.yul\":1537:1572   */\n              mstore\n                /* \"#utility.yul\":1466:1578   */\n              pop\n              pop\n              jump\t// out\n                /* \"#utility.yul\":1584:1798   */\n            tag_30:\n                /* \"#utility.yul\":1673:1677   */\n              0x00\n                /* \"#utility.yul\":1711:1713   */\n              0x20\n                /* \"#utility.yul\":1700:1709   */\n              dup3\n                /* \"#utility.yul\":1696:1714   */\n              add\n                /* \"#utility.yul\":1688:1714   */\n              swap1\n              pop\n                /* \"#utility.yul\":1724:1791   */\n              tag_173\n                /* \"#utility.yul\":1788:1789   */\n              0x00\n                /* \"#utility.yul\":1777:1786   */\n              dup4\n                /* \"#utility.yul\":1773:1790   */\n              add\n                /* \"#utility.yul\":1764:1770   */\n              dup5\n                /* \"#utility.yul\":1724:1791   */\n              tag_124\n              jump\t// in\n            tag_173:\n                /* \"#utility.yul\":1584:1798   */\n              swap3\n              swap2\n              pop\n              pop\n              jump\t// out\n                /* \"#utility.yul\":1804:1930   */\n            tag_125:\n                /* \"#utility.yul\":1841:1848   */\n              0x00\n                /* \"#utility.yul\":1881:1923   */\n              0xffffffffffffffffffffffffffffffffffffffff\n                /* \"#utility.yul\":1874:1879   */\n              dup3\n                /* \"#utility.yul\":1870:1924   */\n              and\n                /* \"#utility.yul\":1859:1924   */\n              swap1\n              pop\n                /* \"#utility.yul\":1804:1930   */\n              swap2\n              swap1\n              pop\n              jump\t// out\n                /* \"#utility.yul\":1936:2032   */\n            tag_126:\n                /* \"#utility.yul\":1973:1980   */\n              0x00\n                /* \"#utility.yul\":2002:2026   */\n              tag_176\n                /* \"#utility.yul\":2020:2025   */\n              dup3\n                /* \"#utility.yul\":2002:2026   */\n              tag_125\n              jump\t// in\n            tag_176:\n                /* \"#utility.yul\":1991:2026   */\n              swap1\n              pop\n                /* \"#utility.yul\":1936:2032   */\n              swap2\n              swap1\n              pop\n              jump\t// out\n                /* \"#utility.yul\":2038:2160   */\n            tag_127:\n                /* \"#utility.yul\":2111:2135   */\n              tag_178\n                /* \"#utility.yul\":2129:2134   */\n              dup2\n                /* \"#utility.yul\":2111:2135   */\n              tag_126\n              jump\t// in\n            tag_178:\n                /* \"#utility.yul\":2104:2109   */\n              dup2\n                /* \"#utility.yul\":2101:2136   */\n              eq\n                /* \"#utility.yul\":2091:2154   */\n              tag_179\n              jumpi\n                /* \"#utility.yul\":2150:2151   */\n              0x00\n                /* \"#utility.yul\":2147:2148   */\n              dup1\n                /* \"#utility.yul\":2140:2152   */\n              revert\n                /* \"#utility.yul\":2091:2154   */\n            tag_179:\n                /* \"#utility.yul\":2038:2160   */\n              pop\n              jump\t// out\n                /* \"#utility.yul\":2166:2305   */\n            tag_128:\n                /* \"#utility.yul\":2212:2217   */\n              0x00\n                /* \"#utility.yul\":2250:2256   */\n              dup2\n                /* \"#utility.yul\":2237:2257   */\n              calldataload\n                /* \"#utility.yul\":2228:2257   */\n              swap1\n              pop\n                /* \"#utility.yul\":2266:2299   */\n              tag_181\n                /* \"#utility.yul\":2293:2298   */\n              dup2\n                /* \"#utility.yul\":2266:2299   */\n              tag_127\n              jump\t// in\n            tag_181:\n                /* \"#utility.yul\":2166:2305   */\n              swap3\n              swap2\n              pop\n              pop\n              jump\t// out\n                /* \"#utility.yul\":2311:2640   */\n            tag_33:\n                /* \"#utility.yul\":2370:2376   */\n              0x00\n                /* \"#utility.yul\":2419:2421   */\n              0x20\n                /* \"#utility.yul\":2407:2416   */\n              dup3\n                /* \"#utility.yul\":2398:2405   */\n              dup5\n                /* \"#utility.yul\":2394:2417   */\n              sub\n                /* \"#utility.yul\":2390:2422   */\n              slt\n                /* \"#utility.yul\":2387:2506   */\n              iszero\n              tag_183\n              jumpi\n                /* \"#utility.yul\":2425:2504   */\n              tag_184\n              tag_117\n              jump\t// in\n            tag_184:\n                /* \"#utility.yul\":2387:2506   */\n            tag_183:\n                /* \"#utility.yul\":2545:2546   */\n              0x00\n                /* \"#utility.yul\":2570:2623   */\n              tag_185\n                /* \"#utility.yul\":2615:2622   */\n              dup5\n                /* \"#utility.yul\":2606:2612   */\n              dup3\n                /* \"#utility.yul\":2595:2604   */\n              dup6\n                /* \"#utility.yul\":2591:2613   */\n              add\n                /* \"#utility.yul\":2570:2623   */\n              tag_128\n              jump\t// in\n            tag_185:\n                /* \"#utility.yul\":2560:2623   */\n              swap2\n              pop\n                /* \"#utility.yul\":2516:2633   */\n              pop\n                /* \"#utility.yul\":2311:2640   */\n              swap3\n              swap2\n              pop\n              pop\n              jump\t// out\n                /* \"#utility.yul\":2646:2736   */\n            tag_129:\n                /* \"#utility.yul\":2680:2687   */\n              0x00\n                /* \"#utility.yul\":2723:2728   */\n              dup2\n                /* \"#utility.yul\":2716:2729   */\n              iszero\n                /* \"#utility.yul\":2709:2730   */\n              iszero\n                /* \"#utility.yul\":2698:2730   */\n              swap1\n              pop\n                /* \"#utility.yul\":2646:2736   */\n              swap2\n              swap1\n              pop\n              jump\t// out\n                /* \"#utility.yul\":2742:2851   */\n            tag_130:\n                /* \"#utility.yul\":2823:2844   */\n              tag_188\n                /* \"#utility.yul\":2838:2843   */\n              dup2\n                /* \"#utility.yul\":2823:2844   */\n              tag_129\n              jump\t// in\n            tag_188:\n                /* \"#utility.yul\":2818:2821   */\n              dup3\n                /* \"#utility.yul\":2811:2845   */\n              mstore\n                /* \"#utility.yul\":2742:2851   */\n              pop\n              pop\n              jump\t// out\n                /* \"#utility.yul\":2857:3067   */\n            tag_36:\n                /* \"#utility.yul\":2944:2948   */\n              0x00\n                /* \"#utility.yul\":2982:2984   */\n              0x20\n                /* \"#utility.yul\":2971:2980   */\n              dup3\n                /* \"#utility.yul\":2967:2985   */\n              add\n                /* \"#utility.yul\":2959:2985   */\n              swap1\n              pop\n                /* \"#utility.yul\":2995:3060   */\n              tag_190\n                /* \"#utility.yul\":3057:3058   */\n              0x00\n                /* \"#utility.yul\":3046:3055   */\n              dup4\n                /* \"#utility.yul\":3042:3059   */\n              add\n                /* \"#utility.yul\":3033:3039   */\n              dup5\n                /* \"#utility.yul\":2995:3060   */\n              tag_130\n              jump\t// in\n            tag_190:\n                /* \"#utility.yul\":2857:3067   */\n              swap3\n              swap2\n              pop\n              pop\n              jump\t// out\n                /* \"#utility.yul\":3073:3191   */\n            tag_131:\n                /* \"#utility.yul\":3160:3184   */\n              tag_192\n                /* \"#utility.yul\":3178:3183   */\n              dup2\n                /* \"#utility.yul\":3160:3184   */\n              tag_126\n              jump\t// in\n            tag_192:\n                /* \"#utility.yul\":3155:3158   */\n              dup3\n                /* \"#utility.yul\":3148:3185   */\n              mstore\n                /* \"#utility.yul\":3073:3191   */\n              pop\n              pop\n              jump\t// out\n                /* \"#utility.yul\":3197:3419   */\n            tag_40:\n                /* \"#utility.yul\":3290:3294   */\n              0x00\n                /* \"#utility.yul\":3328:3330   */\n              0x20\n                /* \"#utility.yul\":3317:3326   */\n              dup3\n                /* \"#utility.yul\":3313:3331   */\n              add\n                /* \"#utility.yul\":3305:3331   */\n              swap1\n              pop\n                /* \"#utility.yul\":3341:3412   */\n              tag_194\n                /* \"#utility.yul\":3409:3410   */\n              0x00\n                /* \"#utility.yul\":3398:3407   */\n              dup4\n                /* \"#utility.yul\":3394:3411   */\n              add\n                /* \"#utility.yul\":3385:3391   */\n              dup5\n                /* \"#utility.yul\":3341:3412   */\n              tag_131\n              jump\t// in\n            tag_194:\n                /* \"#utility.yul\":3197:3419   */\n              swap3\n              swap2\n              pop\n              pop\n              jump\t// out\n                /* \"#utility.yul\":3425:4168   */\n            tag_44:\n                /* \"#utility.yul\":3642:3646   */\n              0x00\n                /* \"#utility.yul\":3680:3683   */\n              0xc0\n                /* \"#utility.yul\":3669:3678   */\n              dup3\n                /* \"#utility.yul\":3665:3684   */\n              add\n                /* \"#utility.yul\":3657:3684   */\n              swap1\n              pop\n                /* \"#utility.yul\":3694:3765   */\n              tag_196\n                /* \"#utility.yul\":3762:3763   */\n              0x00\n                /* \"#utility.yul\":3751:3760   */\n              dup4\n                /* \"#utility.yul\":3747:3764   */\n              add\n                /* \"#utility.yul\":3738:3744   */\n              dup10\n                /* \"#utility.yul\":3694:3765   */\n              tag_131\n              jump\t// in\n            tag_196:\n                /* \"#utility.yul\":3775:3843   */\n              tag_197\n                /* \"#utility.yul\":3839:3841   */\n              0x20\n                /* \"#utility.yul\":3828:3837   */\n              dup4\n                /* \"#utility.yul\":3824:3842   */\n              add\n                /* \"#utility.yul\":3815:3821   */\n              dup9\n                /* \"#utility.yul\":3775:3843   */\n              tag_124\n              jump\t// in\n            tag_197:\n                /* \"#utility.yul\":3853:3923   */\n              tag_198\n                /* \"#utility.yul\":3919:3921   */\n              0x40\n                /* \"#utility.yul\":3908:3917   */\n              dup4\n                /* \"#utility.yul\":3904:3922   */\n              add\n                /* \"#utility.yul\":3895:3901   */\n              dup8\n                /* \"#utility.yul\":3853:3923   */\n              tag_123\n              jump\t// in\n            tag_198:\n                /* \"#utility.yul\":3933:4003   */\n              tag_199\n                /* \"#utility.yul\":3999:4001   */\n              0x60\n                /* \"#utility.yul\":3988:3997   */\n              dup4\n                /* \"#utility.yul\":3984:4002   */\n              add\n                /* \"#utility.yul\":3975:3981   */\n              dup7\n                /* \"#utility.yul\":3933:4003   */\n              tag_123\n              jump\t// in\n            tag_199:\n                /* \"#utility.yul\":4013:4080   */\n              tag_200\n                /* \"#utility.yul\":4075:4078   */\n              0x80\n                /* \"#utility.yul\":4064:4073   */\n              dup4\n                /* \"#utility.yul\":4060:4079   */\n              add\n                /* \"#utility.yul\":4051:4057   */\n              dup6\n                /* \"#utility.yul\":4013:4080   */\n              tag_130\n              jump\t// in\n            tag_200:\n                /* \"#utility.yul\":4090:4161   */\n              tag_201\n                /* \"#utility.yul\":4156:4159   */\n              0xa0\n                /* \"#utility.yul\":4145:4154   */\n              dup4\n                /* \"#utility.yul\":4141:4160   */\n              add\n                /* \"#utility.yul\":4132:4138   */\n              dup5\n                /* \"#utility.yul\":4090:4161   */\n              tag_123\n              jump\t// in\n            tag_201:\n                /* \"#utility.yul\":3425:4168   */\n              swap8\n              swap7\n              pop\n              pop\n              pop\n              pop\n              pop\n              pop\n              pop\n              jump\t// out\n                /* \"#utility.yul\":4174:4343   */\n            tag_132:\n                /* \"#utility.yul\":4258:4269   */\n              0x00\n                /* \"#utility.yul\":4292:4298   */\n              dup3\n                /* \"#utility.yul\":4287:4290   */\n              dup3\n                /* \"#utility.yul\":4280:4299   */\n              mstore\n                /* \"#utility.yul\":4332:4336   */\n              0x20\n                /* \"#utility.yul\":4327:4330   */\n              dup3\n                /* \"#utility.yul\":4323:4337   */\n              add\n                /* \"#utility.yul\":4308:4337   */\n              swap1\n              pop\n                /* \"#utility.yul\":4174:4343   */\n              swap3\n              swap2\n              pop\n              pop\n              jump\t// out\n                /* \"#utility.yul\":4349:4510   */\n            tag_133:\n                /* \"#utility.yul\":4489:4502   */\n              0x4e6f74206d616e61676572000000000000000000000000000000000000000000\n                /* \"#utility.yul\":4485:4486   */\n              0x00\n                /* \"#utility.yul\":4477:4483   */\n              dup3\n                /* \"#utility.yul\":4473:4487   */\n              add\n                /* \"#utility.yul\":4466:4503   */\n              mstore\n                /* \"#utility.yul\":4349:4510   */\n              pop\n              jump\t// out\n                /* \"#utility.yul\":4516:4882   */\n            tag_134:\n                /* \"#utility.yul\":4658:4661   */\n              0x00\n                /* \"#utility.yul\":4679:4746   */\n              tag_205\n                /* \"#utility.yul\":4743:4745   */\n              0x0b\n                /* \"#utility.yul\":4738:4741   */\n              dup4\n                /* \"#utility.yul\":4679:4746   */\n              tag_132\n              jump\t// in\n            tag_205:\n                /* \"#utility.yul\":4672:4746   */\n              swap2\n              pop\n                /* \"#utility.yul\":4755:4848   */\n              tag_206\n                /* \"#utility.yul\":4844:4847   */\n              dup3\n                /* \"#utility.yul\":4755:4848   */\n              tag_133\n              jump\t// in\n            tag_206:\n                /* \"#utility.yul\":4873:4875   */\n              0x20\n                /* \"#utility.yul\":4868:4871   */\n              dup3\n                /* \"#utility.yul\":4864:4876   */\n              add\n                /* \"#utility.yul\":4857:4876   */\n              swap1\n              pop\n                /* \"#utility.yul\":4516:4882   */\n              swap2\n              swap1\n              pop\n              jump\t// out\n                /* \"#utility.yul\":4888:5307   */\n            tag_80:\n                /* \"#utility.yul\":5054:5058   */\n              0x00\n                /* \"#utility.yul\":5092:5094   */\n              0x20\n                /* \"#utility.yul\":5081:5090   */\n              dup3\n                /* \"#utility.yul\":5077:5095   */\n              add\n                /* \"#utility.yul\":5069:5095   */\n              swap1\n              pop\n                /* \"#utility.yul\":5141:5150   */\n              dup2\n                /* \"#utility.yul\":5135:5139   */\n              dup2\n                /* \"#utility.yul\":5131:5151   */\n              sub\n                /* \"#utility.yul\":5127:5128   */\n              0x00\n                /* \"#utility.yul\":5116:5125   */\n              dup4\n                /* \"#utility.yul\":5112:5129   */\n              add\n                /* \"#utility.yul\":5105:5152   */\n              mstore\n                /* \"#utility.yul\":5169:5300   */\n              tag_208\n                /* \"#utility.yul\":5295:5299   */\n              dup2\n                /* \"#utility.yul\":5169:5300   */\n              tag_134\n              jump\t// in\n            tag_208:\n                /* \"#utility.yul\":5161:5300   */\n              swap1\n              pop\n                /* \"#utility.yul\":4888:5307   */\n              swap2\n              swap1\n              pop\n              jump\t// out\n                /* \"#utility.yul\":5313:5480   */\n            tag_135:\n                /* \"#utility.yul\":5453:5472   */\n              0x416c726561647920636f6d706c65746564000000000000000000000000000000\n                /* \"#utility.yul\":5449:5450   */\n              0x00\n                /* \"#utility.yul\":5441:5447   */\n              dup3\n                /* \"#utility.yul\":5437:5451   */\n              add\n                /* \"#utility.yul\":5430:5473   */\n              mstore\n                /* \"#utility.yul\":5313:5480   */\n              pop\n              jump\t// out\n                /* \"#utility.yul\":5486:5852   */\n            tag_136:\n                /* \"#utility.yul\":5628:5631   */\n              0x00\n                /* \"#utility.yul\":5649:5716   */\n              tag_211\n                /* \"#utility.yul\":5713:5715   */\n              0x11\n                /* \"#utility.yul\":5708:5711   */\n              dup4\n                /* \"#utility.yul\":5649:5716   */\n              tag_132\n              jump\t// in\n            tag_211:\n                /* \"#utility.yul\":5642:5716   */\n              swap2\n              pop\n                /* \"#utility.yul\":5725:5818   */\n              tag_212\n                /* \"#utility.yul\":5814:5817   */\n              dup3\n                /* \"#utility.yul\":5725:5818   */\n              tag_135\n              jump\t// in\n            tag_212:\n                /* \"#utility.yul\":5843:5845   */\n              0x20\n                /* \"#utility.yul\":5838:5841   */\n              dup3\n                /* \"#utility.yul\":5834:5846   */\n              add\n                /* \"#utility.yul\":5827:5846   */\n              swap1\n              pop\n                /* \"#utility.yul\":5486:5852   */\n              swap2\n              swap1\n              pop\n              jump\t// out\n                /* \"#utility.yul\":5858:6277   */\n            tag_84:\n                /* \"#utility.yul\":6024:6028   */\n              0x00\n                /* \"#utility.yul\":6062:6064   */\n              0x20\n                /* \"#utility.yul\":6051:6060   */\n              dup3\n                /* \"#utility.yul\":6047:6065   */\n              add\n                /* \"#utility.yul\":6039:6065   */\n              swap1\n              pop\n                /* \"#utility.yul\":6111:6120   */\n              dup2\n                /* \"#utility.yul\":6105:6109   */\n              dup2\n                /* \"#utility.yul\":6101:6121   */\n              sub\n                /* \"#utility.yul\":6097:6098   */\n              0x00\n                /* \"#utility.yul\":6086:6095   */\n              dup4\n                /* \"#utility.yul\":6082:6099   */\n              add\n                /* \"#utility.yul\":6075:6122   */\n              mstore\n                /* \"#utility.yul\":6139:6270   */\n              tag_214\n                /* \"#utility.yul\":6265:6269   */\n              dup2\n                /* \"#utility.yul\":6139:6270   */\n              tag_136\n              jump\t// in\n            tag_214:\n                /* \"#utility.yul\":6131:6270   */\n              swap1\n              pop\n                /* \"#utility.yul\":5858:6277   */\n              swap2\n              swap1\n              pop\n              jump\t// out\n                /* \"#utility.yul\":6283:6442   */\n            tag_137:\n                /* \"#utility.yul\":6423:6434   */\n              0x4e6f7420656e6465640000000000000000000000000000000000000000000000\n                /* \"#utility.yul\":6419:6420   */\n              0x00\n                /* \"#utility.yul\":6411:6417   */\n              dup3\n                /* \"#utility.yul\":6407:6421   */\n              add\n                /* \"#utility.yul\":6400:6435   */\n              mstore\n                /* \"#utility.yul\":6283:6442   */\n              pop\n              jump\t// out\n                /* \"#utility.yul\":6448:6813   */\n            tag_138:\n                /* \"#utility.yul\":6590:6593   */\n              0x00\n                /* \"#utility.yul\":6611:6677   */\n              tag_217\n                /* \"#utility.yul\":6675:6676   */\n              0x09\n                /* \"#utility.yul\":6670:6673   */\n              dup4\n                /* \"#utility.yul\":6611:6677   */\n              tag_132\n              jump\t// in\n            tag_217:\n                /* \"#utility.yul\":6604:6677   */\n              swap2\n              pop\n                /* \"#utility.yul\":6686:6779   */\n              tag_218\n                /* \"#utility.yul\":6775:6778   */\n              dup3\n                /* \"#utility.yul\":6686:6779   */\n              tag_137\n              jump\t// in\n            tag_218:\n                /* \"#utility.yul\":6804:6806   */\n              0x20\n                /* \"#utility.yul\":6799:6802   */\n              dup3\n                /* \"#utility.yul\":6795:6807   */\n              add\n                /* \"#utility.yul\":6788:6807   */\n              swap1\n              pop\n                /* \"#utility.yul\":6448:6813   */\n              swap2\n              swap1\n              pop\n              jump\t// out\n                /* \"#utility.yul\":6819:7238   */\n            tag_87:\n                /* \"#utility.yul\":6985:6989   */\n              0x00\n                /* \"#utility.yul\":7023:7025   */\n              0x20\n                /* \"#utility.yul\":7012:7021   */\n              dup3\n                /* \"#utility.yul\":7008:7026   */\n              add\n                /* \"#utility.yul\":7000:7026   */\n              swap1\n              pop\n                /* \"#utility.yul\":7072:7081   */\n              dup2\n                /* \"#utility.yul\":7066:7070   */\n              dup2\n                /* \"#utility.yul\":7062:7082   */\n              sub\n                /* \"#utility.yul\":7058:7059   */\n              0x00\n                /* \"#utility.yul\":7047:7056   */\n              dup4\n                /* \"#utility.yul\":7043:7060   */\n              add\n                /* \"#utility.yul\":7036:7083   */\n              mstore\n                /* \"#utility.yul\":7100:7231   */\n              tag_220\n                /* \"#utility.yul\":7226:7230   */\n              dup2\n                /* \"#utility.yul\":7100:7231   */\n              tag_138\n              jump\t// in\n            tag_220:\n                /* \"#utility.yul\":7092:7231   */\n              swap1\n              pop\n                /* \"#utility.yul\":6819:7238   */\n              swap2\n              swap1\n              pop\n              jump\t// out\n                /* \"#utility.yul\":7244:7405   */\n            tag_139:\n                /* \"#utility.yul\":7384:7397   */\n              0x4e6f7420616c6c6f776564000000000000000000000000000000000000000000\n                /* \"#utility.yul\":7380:7381   */\n              0x00\n                /* \"#utility.yul\":7372:7378   */\n              dup3\n                /* \"#utility.yul\":7368:7382   */\n              add\n                /* \"#utility.yul\":7361:7398   */\n              mstore\n                /* \"#utility.yul\":7244:7405   */\n              pop\n              jump\t// out\n                /* \"#utility.yul\":7411:7777   */\n            tag_140:\n                /* \"#utility.yul\":7553:7556   */\n              0x00\n                /* \"#utility.yul\":7574:7641   */\n              tag_223\n                /* \"#utility.yul\":7638:7640   */\n              0x0b\n                /* \"#utility.yul\":7633:7636   */\n              dup4\n                /* \"#utility.yul\":7574:7641   */\n              tag_132\n              jump\t// in\n            tag_223:\n                /* \"#utility.yul\":7567:7641   */\n              swap2\n              pop\n                /* \"#utility.yul\":7650:7743   */\n              tag_224\n                /* \"#utility.yul\":7739:7742   */\n              dup3\n                /* \"#utility.yul\":7650:7743   */\n              tag_139\n              jump\t// in\n            tag_224:\n                /* \"#utility.yul\":7768:7770   */\n              0x20\n                /* \"#utility.yul\":7763:7766   */\n              dup3\n                /* \"#utility.yul\":7759:7771   */\n              add\n                /* \"#utility.yul\":7752:7771   */\n              swap1\n              pop\n                /* \"#utility.yul\":7411:7777   */\n              swap2\n              swap1\n              pop\n              jump\t// out\n                /* \"#utility.yul\":7783:8202   */\n            tag_92:\n                /* \"#utility.yul\":7949:7953   */\n              0x00\n                /* \"#utility.yul\":7987:7989   */\n              0x20\n                /* \"#utility.yul\":7976:7985   */\n              dup3\n                /* \"#utility.yul\":7972:7990   */\n              add\n                /* \"#utility.yul\":7964:7990   */\n              swap1\n              pop\n                /* \"#utility.yul\":8036:8045   */\n              dup2\n                /* \"#utility.yul\":8030:8034   */\n              dup2\n                /* \"#utility.yul\":8026:8046   */\n              sub\n                /* \"#utility.yul\":8022:8023   */\n              0x00\n                /* \"#utility.yul\":8011:8020   */\n              dup4\n                /* \"#utility.yul\":8007:8024   */\n              add\n                /* \"#utility.yul\":8000:8047   */\n              mstore\n                /* \"#utility.yul\":8064:8195   */\n              tag_226\n                /* \"#utility.yul\":8190:8194   */\n              dup2\n                /* \"#utility.yul\":8064:8195   */\n              tag_140\n              jump\t// in\n            tag_226:\n                /* \"#utility.yul\":8056:8195   */\n              swap1\n              pop\n                /* \"#utility.yul\":7783:8202   */\n              swap2\n              swap1\n              pop\n              jump\t// out\n                /* \"#utility.yul\":8208:8371   */\n            tag_141:\n                /* \"#utility.yul\":8348:8363   */\n              0x416c726561647920766f74656400000000000000000000000000000000000000\n                /* \"#utility.yul\":8344:8345   */\n              0x00\n                /* \"#utility.yul\":8336:8342   */\n              dup3\n                /* \"#utility.yul\":8332:8346   */\n              add\n                /* \"#utility.yul\":8325:8364   */\n              mstore\n                /* \"#utility.yul\":8208:8371   */\n              pop\n              jump\t// out\n                /* \"#utility.yul\":8377:8743   */\n            tag_142:\n                /* \"#utility.yul\":8519:8522   */\n              0x00\n                /* \"#utility.yul\":8540:8607   */\n              tag_229\n                /* \"#utility.yul\":8604:8606   */\n              0x0d\n                /* \"#utility.yul\":8599:8602   */\n              dup4\n                /* \"#utility.yul\":8540:8607   */\n              tag_132\n              jump\t// in\n            tag_229:\n                /* \"#utility.yul\":8533:8607   */\n              swap2\n              pop\n                /* \"#utility.yul\":8616:8709   */\n              tag_230\n                /* \"#utility.yul\":8705:8708   */\n              dup3\n                /* \"#utility.yul\":8616:8709   */\n              tag_141\n              jump\t// in\n            tag_230:\n                /* \"#utility.yul\":8734:8736   */\n              0x20\n                /* \"#utility.yul\":8729:8732   */\n              dup3\n                /* \"#utility.yul\":8725:8737   */\n              add\n                /* \"#utility.yul\":8718:8737   */\n              swap1\n              pop\n                /* \"#utility.yul\":8377:8743   */\n              swap2\n              swap1\n              pop\n              jump\t// out\n                /* \"#utility.yul\":8749:9168   */\n            tag_95:\n                /* \"#utility.yul\":8915:8919   */\n              0x00\n                /* \"#utility.yul\":8953:8955   */\n              0x20\n                /* \"#utility.yul\":8942:8951   */\n              dup3\n                /* \"#utility.yul\":8938:8956   */\n              add\n                /* \"#utility.yul\":8930:8956   */\n              swap1\n              pop\n                /* \"#utility.yul\":9002:9011   */\n              dup2\n                /* \"#utility.yul\":8996:9000   */\n              dup2\n                /* \"#utility.yul\":8992:9012   */\n              sub\n                /* \"#utility.yul\":8988:8989   */\n              0x00\n                /* \"#utility.yul\":8977:8986   */\n              dup4\n                /* \"#utility.yul\":8973:8990   */\n              add\n                /* \"#utility.yul\":8966:9013   */\n              mstore\n                /* \"#utility.yul\":9030:9161   */\n              tag_232\n                /* \"#utility.yul\":9156:9160   */\n              dup2\n                /* \"#utility.yul\":9030:9161   */\n              tag_142\n              jump\t// in\n            tag_232:\n                /* \"#utility.yul\":9022:9161   */\n              swap1\n              pop\n                /* \"#utility.yul\":8749:9168   */\n              swap2\n              swap1\n              pop\n              jump\t// out\n                /* \"#utility.yul\":9174:9333   */\n            tag_143:\n                /* \"#utility.yul\":9314:9325   */\n              0x436f6d706c657465640000000000000000000000000000000000000000000000\n                /* \"#utility.yul\":9310:9311   */\n              0x00\n                /* \"#utility.yul\":9302:9308   */\n              dup3\n                /* \"#utility.yul\":9298:9312   */\n              add\n                /* \"#utility.yul\":9291:9326   */\n              mstore\n                /* \"#utility.yul\":9174:9333   */\n              pop\n              jump\t// out\n                /* \"#utility.yul\":9339:9704   */\n            tag_144:\n                /* \"#utility.yul\":9481:9484   */\n              0x00\n                /* \"#utility.yul\":9502:9568   */\n              tag_235\n                /* \"#utility.yul\":9566:9567   */\n              0x09\n                /* \"#utility.yul\":9561:9564   */\n              dup4\n                /* \"#utility.yul\":9502:9568   */\n              tag_132\n              jump\t// in\n            tag_235:\n                /* \"#utility.yul\":9495:9568   */\n              swap2\n              pop\n                /* \"#utility.yul\":9577:9670   */\n              tag_236\n                /* \"#utility.yul\":9666:9669   */\n              dup3\n                /* \"#utility.yul\":9577:9670   */\n              tag_143\n              jump\t// in\n            tag_236:\n                /* \"#utility.yul\":9695:9697   */\n              0x20\n                /* \"#utility.yul\":9690:9693   */\n              dup3\n                /* \"#utility.yul\":9686:9698   */\n              add\n                /* \"#utility.yul\":9679:9698   */\n              swap1\n              pop\n                /* \"#utility.yul\":9339:9704   */\n              swap2\n              swap1\n              pop\n              jump\t// out\n                /* \"#utility.yul\":9710:10129   */\n            tag_98:\n                /* \"#utility.yul\":9876:9880   */\n              0x00\n                /* \"#utility.yul\":9914:9916   */\n              0x20\n                /* \"#utility.yul\":9903:9912   */\n              dup3\n                /* \"#utility.yul\":9899:9917   */\n              add\n                /* \"#utility.yul\":9891:9917   */\n              swap1\n              pop\n                /* \"#utility.yul\":9963:9972   */\n              dup2\n                /* \"#utility.yul\":9957:9961   */\n              dup2\n                /* \"#utility.yul\":9953:9973   */\n              sub\n                /* \"#utility.yul\":9949:9950   */\n              0x00\n                /* \"#utility.yul\":9938:9947   */\n              dup4\n                /* \"#utility.yul\":9934:9951   */\n              add\n                /* \"#utility.yul\":9927:9974   */\n              mstore\n                /* \"#utility.yul\":9991:10122   */\n              tag_238\n                /* \"#utility.yul\":10117:10121   */\n              dup2\n                /* \"#utility.yul\":9991:10122   */\n              tag_144\n              jump\t// in\n            tag_238:\n                /* \"#utility.yul\":9983:10122   */\n              swap1\n              pop\n                /* \"#utility.yul\":9710:10129   */\n              swap2\n              swap1\n              pop\n              jump\t// out\n                /* \"#utility.yul\":10135:10297   */\n            tag_145:\n                /* \"#utility.yul\":10275:10289   */\n              0x496e76616c69642074696d650000000000000000000000000000000000000000\n                /* \"#utility.yul\":10271:10272   */\n              0x00\n                /* \"#utility.yul\":10263:10269   */\n              dup3\n                /* \"#utility.yul\":10259:10273   */\n              add\n                /* \"#utility.yul\":10252:10290   */\n              mstore\n                /* \"#utility.yul\":10135:10297   */\n              pop\n              jump\t// out\n                /* \"#utility.yul\":10303:10669   */\n            tag_146:\n                /* \"#utility.yul\":10445:10448   */\n              0x00\n                /* \"#utility.yul\":10466:10533   */\n              tag_241\n                /* \"#utility.yul\":10530:10532   */\n              0x0c\n                /* \"#utility.yul\":10525:10528   */\n              dup4\n                /* \"#utility.yul\":10466:10533   */\n              tag_132\n              jump\t// in\n            tag_241:\n                /* \"#utility.yul\":10459:10533   */\n              swap2\n              pop\n                /* \"#utility.yul\":10542:10635   */\n              tag_242\n                /* \"#utility.yul\":10631:10634   */\n              dup3\n                /* \"#utility.yul\":10542:10635   */\n              tag_145\n              jump\t// in\n            tag_242:\n                /* \"#utility.yul\":10660:10662   */\n              0x20\n                /* \"#utility.yul\":10655:10658   */\n              dup3\n                /* \"#utility.yul\":10651:10663   */\n              add\n                /* \"#utility.yul\":10644:10663   */\n              swap1\n              pop\n                /* \"#utility.yul\":10303:10669   */\n              swap2\n              swap1\n              pop\n              jump\t// out\n                /* \"#utility.yul\":10675:11094   */\n            tag_102:\n                /* \"#utility.yul\":10841:10845   */\n              0x00\n                /* \"#utility.yul\":10879:10881   */\n              0x20\n                /* \"#utility.yul\":10868:10877   */\n              dup3\n                /* \"#utility.yul\":10864:10882   */\n              add\n                /* \"#utility.yul\":10856:10882   */\n              swap1\n              pop\n                /* \"#utility.yul\":10928:10937   */\n              dup2\n                /* \"#utility.yul\":10922:10926   */\n              dup2\n                /* \"#utility.yul\":10918:10938   */\n              sub\n                /* \"#utility.yul\":10914:10915   */\n              0x00\n                /* \"#utility.yul\":10903:10912   */\n              dup4\n                /* \"#utility.yul\":10899:10916   */\n              add\n                /* \"#utility.yul\":10892:10939   */\n              mstore\n                /* \"#utility.yul\":10956:11087   */\n              tag_244\n                /* \"#utility.yul\":11082:11086   */\n              dup2\n                /* \"#utility.yul\":10956:11087   */\n              tag_146\n              jump\t// in\n            tag_244:\n                /* \"#utility.yul\":10948:11087   */\n              swap1\n              pop\n                /* \"#utility.yul\":10675:11094   */\n              swap2\n              swap1\n              pop\n              jump\t// out\n                /* \"#utility.yul\":11100:11264   */\n            tag_147:\n                /* \"#utility.yul\":11240:11256   */\n              0x496e76616c69642063686f696365000000000000000000000000000000000000\n                /* \"#utility.yul\":11236:11237   */\n              0x00\n                /* \"#utility.yul\":11228:11234   */\n              dup3\n                /* \"#utility.yul\":11224:11238   */\n              add\n                /* \"#utility.yul\":11217:11257   */\n              mstore\n                /* \"#utility.yul\":11100:11264   */\n              pop\n              jump\t// out\n                /* \"#utility.yul\":11270:11636   */\n            tag_148:\n                /* \"#utility.yul\":11412:11415   */\n              0x00\n                /* \"#utility.yul\":11433:11500   */\n              tag_247\n                /* \"#utility.yul\":11497:11499   */\n              0x0e\n                /* \"#utility.yul\":11492:11495   */\n              dup4\n                /* \"#utility.yul\":11433:11500   */\n              tag_132\n              jump\t// in\n            tag_247:\n                /* \"#utility.yul\":11426:11500   */\n              swap2\n              pop\n                /* \"#utility.yul\":11509:11602   */\n              tag_248\n                /* \"#utility.yul\":11598:11601   */\n              dup3\n                /* \"#utility.yul\":11509:11602   */\n              tag_147\n              jump\t// in\n            tag_248:\n                /* \"#utility.yul\":11627:11629   */\n              0x20\n                /* \"#utility.yul\":11622:11625   */\n              dup3\n                /* \"#utility.yul\":11618:11630   */\n              add\n                /* \"#utility.yul\":11611:11630   */\n              swap1\n              pop\n                /* \"#utility.yul\":11270:11636   */\n              swap2\n              swap1\n              pop\n              jump\t// out\n                /* \"#utility.yul\":11642:12061   */\n            tag_105:\n                /* \"#utility.yul\":11808:11812   */\n              0x00\n                /* \"#utility.yul\":11846:11848   */\n              0x20\n                /* \"#utility.yul\":11835:11844   */\n              dup3\n                /* \"#utility.yul\":11831:11849   */\n              add\n                /* \"#utility.yul\":11823:11849   */\n              swap1\n              pop\n                /* \"#utility.yul\":11895:11904   */\n              dup2\n                /* \"#utility.yul\":11889:11893   */\n              dup2\n                /* \"#utility.yul\":11885:11905   */\n              sub\n                /* \"#utility.yul\":11881:11882   */\n              0x00\n                /* \"#utility.yul\":11870:11879   */\n              dup4\n                /* \"#utility.yul\":11866:11883   */\n              add\n                /* \"#utility.yul\":11859:11906   */\n              mstore\n                /* \"#utility.yul\":11923:12054   */\n              tag_250\n                /* \"#utility.yul\":12049:12053   */\n              dup2\n                /* \"#utility.yul\":11923:12054   */\n              tag_148\n              jump\t// in\n            tag_250:\n                /* \"#utility.yul\":11915:12054   */\n              swap1\n              pop\n                /* \"#utility.yul\":11642:12061   */\n              swap2\n              swap1\n              pop\n              jump\t// out\n                /* \"#utility.yul\":12067:12391   */\n            tag_107:\n                /* \"#utility.yul\":12184:12188   */\n              0x00\n                /* \"#utility.yul\":12222:12224   */\n              0x40\n                /* \"#utility.yul\":12211:12220   */\n              dup3\n                /* \"#utility.yul\":12207:12225   */\n              add\n                /* \"#utility.yul\":12199:12225   */\n              swap1\n              pop\n                /* \"#utility.yul\":12235:12306   */\n              tag_252\n                /* \"#utility.yul\":12303:12304   */\n              0x00\n                /* \"#utility.yul\":12292:12301   */\n              dup4\n                /* \"#utility.yul\":12288:12305   */\n              add\n                /* \"#utility.yul\":12279:12285   */\n              dup6\n                /* \"#utility.yul\":12235:12306   */\n              tag_131\n              jump\t// in\n            tag_252:\n                /* \"#utility.yul\":12316:12384   */\n              tag_253\n                /* \"#utility.yul\":12380:12382   */\n              0x20\n                /* \"#utility.yul\":12369:12378   */\n              dup4\n                /* \"#utility.yul\":12365:12383   */\n              add\n                /* \"#utility.yul\":12356:12362   */\n              dup5\n                /* \"#utility.yul\":12316:12384   */\n              tag_124\n              jump\t// in\n            tag_253:\n                /* \"#utility.yul\":12067:12391   */\n              swap4\n              swap3\n              pop\n              pop\n              pop\n              jump\t// out\n                /* \"#utility.yul\":12397:12560   */\n            tag_149:\n                /* \"#utility.yul\":12537:12552   */\n              0x416c726561647920616464656400000000000000000000000000000000000000\n                /* \"#utility.yul\":12533:12534   */\n              0x00\n                /* \"#utility.yul\":12525:12531   */\n              dup3\n                /* \"#utility.yul\":12521:12535   */\n              add\n                /* \"#utility.yul\":12514:12553   */\n              mstore\n                /* \"#utility.yul\":12397:12560   */\n              pop\n              jump\t// out\n                /* \"#utility.yul\":12566:12932   */\n            tag_150:\n                /* \"#utility.yul\":12708:12711   */\n              0x00\n                /* \"#utility.yul\":12729:12796   */\n              tag_256\n                /* \"#utility.yul\":12793:12795   */\n              0x0d\n                /* \"#utility.yul\":12788:12791   */\n              dup4\n                /* \"#utility.yul\":12729:12796   */\n              tag_132\n              jump\t// in\n            tag_256:\n                /* \"#utility.yul\":12722:12796   */\n              swap2\n              pop\n                /* \"#utility.yul\":12805:12898   */\n              tag_257\n                /* \"#utility.yul\":12894:12897   */\n              dup3\n                /* \"#utility.yul\":12805:12898   */\n              tag_149\n              jump\t// in\n            tag_257:\n                /* \"#utility.yul\":12923:12925   */\n              0x20\n                /* \"#utility.yul\":12918:12921   */\n              dup3\n                /* \"#utility.yul\":12914:12926   */\n              add\n                /* \"#utility.yul\":12907:12926   */\n              swap1\n              pop\n                /* \"#utility.yul\":12566:12932   */\n              swap2\n              swap1\n              pop\n              jump\t// out\n                /* \"#utility.yul\":12938:13357   */\n            tag_114:\n                /* \"#utility.yul\":13104:13108   */\n              0x00\n                /* \"#utility.yul\":13142:13144   */\n              0x20\n                /* \"#utility.yul\":13131:13140   */\n              dup3\n                /* \"#utility.yul\":13127:13145   */\n              add\n                /* \"#utility.yul\":13119:13145   */\n              swap1\n              pop\n                /* \"#utility.yul\":13191:13200   */\n              dup2\n                /* \"#utility.yul\":13185:13189   */\n              dup2\n                /* \"#utility.yul\":13181:13201   */\n              sub\n                /* \"#utility.yul\":13177:13178   */\n              0x00\n                /* \"#utility.yul\":13166:13175   */\n              dup4\n                /* \"#utility.yul\":13162:13179   */\n              add\n                /* \"#utility.yul\":13155:13202   */\n              mstore\n                /* \"#utility.yul\":13219:13350   */\n              tag_259\n                /* \"#utility.yul\":13345:13349   */\n              dup2\n                /* \"#utility.yul\":13219:13350   */\n              tag_150\n              jump\t// in\n            tag_259:\n                /* \"#utility.yul\":13211:13350   */\n              swap1\n              pop\n                /* \"#utility.yul\":12938:13357   */\n              swap2\n              swap1\n              pop\n              jump\t// out\n\n            auxdata: 0xa264697066735822122053c98679f1e09ef093540915002846d60b78e92e933bdaece67daeee71716ad464736f6c63430008120033\n        }\n    }\n\n    auxdata: 0xa264697066735822122078fc0ce1a1123380bbf54a2909c26ba9a15beddf09f01f19f61bb22e216c3aac64736f6c63430008120033\n}\n","bytecode":{"linkReferences":{},"object":"608060405234801561001057600080fd5b50611959806100206000396000f3fe608060405234801561001057600080fd5b50600436106100415760003560e01c806313f320d114610046578063298f37ab146100625780633e04b57814610092575b600080fd5b610060600480360381019061005b91906102a5565b6100b0565b005b61007c6004803603810190610077919061032e565b610151565b604051610089919061039c565b60405180910390f35b61009a610190565b6040516100a79190610475565b60405180910390f35b6000838383336040516100c29061021e565b6100cf94939291906104b5565b604051809103906000f0801580156100eb573d6000803e3d6000fd5b509080600181540180825580915050600190039060005260206000200160009091909190916101000a81548173ffffffffffffffffffffffffffffffffffffffff021916908373ffffffffffffffffffffffffffffffffffffffff160217905550505050565b6000818154811061016157600080fd5b906000526020600020016000915054906101000a900473ffffffffffffffffffffffffffffffffffffffff1681565b6060600080548060200260200160405190810160405280929190818152602001828054801561021457602002820191906000526020600020905b8160009054906101000a900473ffffffffffffffffffffffffffffffffffffffff1673ffffffffffffffffffffffffffffffffffffffff16815260200190600101908083116101ca575b5050505050905090565b611429806104fb83390190565b600080fd5b600060ff82169050919050565b61024681610230565b811461025157600080fd5b50565b6000813590506102638161023d565b92915050565b600063ffffffff82169050919050565b61028281610269565b811461028d57600080fd5b50565b60008135905061029f81610279565b92915050565b6000806000606084860312156102be576102bd61022b565b5b60006102cc86828701610254565b93505060206102dd86828701610290565b92505060406102ee86828701610290565b9150509250925092565b6000819050919050565b61030b816102f8565b811461031657600080fd5b50565b60008135905061032881610302565b92915050565b6000602082840312156103445761034361022b565b5b600061035284828501610319565b91505092915050565b600073ffffffffffffffffffffffffffffffffffffffff82169050919050565b60006103868261035b565b9050919050565b6103968161037b565b82525050565b60006020820190506103b1600083018461038d565b92915050565b600081519050919050565b600082825260208201905092915050565b6000819050602082019050919050565b6103ec8161037b565b82525050565b60006103fe83836103e3565b60208301905092915050565b6000602082019050919050565b6000610422826103b7565b61042c81856103c2565b9350610437836103d3565b8060005b8381101561046857815161044f88826103f2565b975061045a8361040a565b92505060018101905061043b565b5085935050505092915050565b6000602082019050818103600083015261048f8184610417565b905092915050565b6104a081610230565b82525050565b6104af81610269565b82525050565b60006080820190506104ca6000830187610497565b6104d760208301866104a6565b6104e460408301856104a6565b6104f1606083018461038d565b9594505050505056fe60806040523480156200001157600080fd5b5060405162001429380380620014298339818101604052810190620000379190620001c7565b806000806101000a81548173ffffffffffffffffffffffffffffffffffffffff021916908373ffffffffffffffffffffffffffffffffffffffff16021790555083600060146101000a81548160ff021916908360ff16021790555082600060166101000a81548163ffffffff021916908363ffffffff160217905550816000601a6101000a81548163ffffffff021916908363ffffffff1602179055505050505062000239565b600080fd5b600060ff82169050919050565b620000fb81620000e3565b81146200010757600080fd5b50565b6000815190506200011b81620000f0565b92915050565b600063ffffffff82169050919050565b6200013c8162000121565b81146200014857600080fd5b50565b6000815190506200015c8162000131565b92915050565b600073ffffffffffffffffffffffffffffffffffffffff82169050919050565b60006200018f8262000162565b9050919050565b620001a18162000182565b8114620001ad57600080fd5b50565b600081519050620001c18162000196565b92915050565b60008060008060808587031215620001e457620001e3620000de565b5b6000620001f4878288016200010a565b945050602062000207878288016200014b565b93505060406200021a878288016200014b565b92505060606200022d87828801620001b0565b91505092959194509250565b6111e080620002496000396000f3fe608060405234801561001057600080fd5b50600436106100f55760003560e01c806378622c5d11610097578063a944b7a611610066578063a944b7a61461027d578063b3f98adc1461029b578063c24a0f8b146102b7578063f4ab9adf146102d5576100f5565b806378622c5d146101e15780638953bb72146101ff5780639d9a7fe91461022f578063a3d453141461024d576100f5565b8063481c6a75116100d3578063481c6a75146101785780634e69d56014610196578063522e1177146101b957806370babc8a146101c3576100f5565b806313b0ba19146100fa5780631632c03f1461012a578063255adfd414610148575b600080fd5b610114600480360381019061010f9190610bc7565b6102f1565b6040516101219190610c13565b60405180910390f35b610132610314565b60405161013f9190610c3d565b60405180910390f35b610162600480360381019061015d9190610cb6565b610327565b60405161016f9190610cfe565b60405180910390f35b610180610347565b60405161018d9190610d28565b60405180910390f35b61019e61036b565b6040516101b096959493929190610d43565b60405180910390f35b6101c1610402565b005b6101cb610583565b6040516101d89190610c13565b60405180910390f35b6101e9610599565b6040516101f69190610c13565b60405180910390f35b61021960048036038101906102149190610bc7565b6105af565b6040516102269190610c13565b60405180910390f35b6102376105e2565b6040516102449190610cfe565b60405180910390f35b61026760048036038101906102629190610cb6565b6105f5565b6040516102749190610cfe565b60405180910390f35b610285610615565b6040516102929190610c13565b60405180910390f35b6102b560048036038101906102b09190610bc7565b61062b565b005b6102bf61098b565b6040516102cc9190610c13565b60405180910390f35b6102ef60048036038101906102ea9190610cb6565b6109a1565b005b60046020528060005260406000206000915054906101000a900463ffffffff1681565b600060149054906101000a900460ff1681565b60036020528060005260406000206000915054906101000a900460ff1681565b60008054906101000a900473ffffffffffffffffffffffffffffffffffffffff1681565b60008060008060008060008054906101000a900473ffffffffffffffffffffffffffffffffffffffff16600060149054906101000a900460ff16600060169054906101000a900463ffffffff166000601a9054906101000a900463ffffffff16600060159054906101000a900460ff16600160009054906101000a900463ffffffff16955095509550955095509550909192939495565b60008054906101000a900473ffffffffffffffffffffffffffffffffffffffff1673ffffffffffffffffffffffffffffffffffffffff163373ffffffffffffffffffffffffffffffffffffffff1614610490576040517f08c379a000000000000000000000000000000000000000000000000000000000815260040161048790610e01565b60405180910390fd5b600060159054906101000a900460ff16156104e0576040517f08c379a00000000000000000000000000000000000000000000000000000000081526004016104d790610e6d565b60405180910390fd5b6000601a9054906101000a900463ffffffff1663ffffffff16421161053a576040517f08c379a000000000000000000000000000000000000000000000000000000000815260040161053190610ed9565b60405180910390fd5b6001600060156101000a81548160ff0219169083151502179055507ffa4c46064339896f4ef55eeac982a9e8bd0dbebe83ed7978cf168fa14f679f7060405160405180910390a1565b600160049054906101000a900463ffffffff1681565b600160009054906101000a900463ffffffff1681565b6000600460008360ff1660ff16815260200190815260200160002060009054906101000a900463ffffffff169050919050565b600060159054906101000a900460ff1681565b60026020528060005260406000206000915054906101000a900460ff1681565b600060169054906101000a900463ffffffff1681565b600360003373ffffffffffffffffffffffffffffffffffffffff1673ffffffffffffffffffffffffffffffffffffffff16815260200190815260200160002060009054906101000a900460ff166106b7576040517f08c379a00000000000000000000000000000000000000000000000000000000081526004016106ae90610f45565b60405180910390fd5b600260003373ffffffffffffffffffffffffffffffffffffffff1673ffffffffffffffffffffffffffffffffffffffff16815260200190815260200160002060009054906101000a900460ff1615610744576040517f08c379a000000000000000000000000000000000000000000000000000000000815260040161073b90610fb1565b60405180910390fd5b600060159054906101000a900460ff1615610794576040517f08c379a000000000000000000000000000000000000000000000000000000000815260040161078b9061101d565b60405180910390fd5b600060169054906101000a900463ffffffff1663ffffffff1642101580156107d457506000601a9054906101000a900463ffffffff1663ffffffff164211155b610813576040517f08c379a000000000000000000000000000000000000000000000000000000000815260040161080a90611089565b60405180910390fd5b600060149054906101000a900460ff1660ff168160ff161061086a576040517f08c379a0000000000000000000000000000000000000000000000000000000008152600401610861906110f5565b60405180910390fd5b6001600260003373ffffffffffffffffffffffffffffffffffffffff1673ffffffffffffffffffffffffffffffffffffffff16815260200190815260200160002060006101000a81548160ff021916908315150217905550600460008260ff1660ff168152602001908152602001600020600081819054906101000a900463ffffffff168092919060010191906101000a81548163ffffffff021916908363ffffffff160217905550506001600081819054906101000a900463ffffffff168092919060010191906101000a81548163ffffffff021916908363ffffffff160217905550507fefffa0c001f10a86d936643c098510eba656ffab1d0c5165822b79d4c895e88f3382604051610980929190611115565b60405180910390a150565b6000601a9054906101000a900463ffffffff1681565b60008054906101000a900473ffffffffffffffffffffffffffffffffffffffff1673ffffffffffffffffffffffffffffffffffffffff163373ffffffffffffffffffffffffffffffffffffffff1614610a2f576040517f08c379a0000000000000000000000000000000000000000000000000000000008152600401610a2690610e01565b60405180910390fd5b600360008273ffffffffffffffffffffffffffffffffffffffff1673ffffffffffffffffffffffffffffffffffffffff16815260200190815260200160002060009054906101000a900460ff1615610abc576040517f08c379a0000000000000000000000000000000000000000000000000000000008152600401610ab39061118a565b60405180910390fd5b6001600360008373ffffffffffffffffffffffffffffffffffffffff1673ffffffffffffffffffffffffffffffffffffffff16815260200190815260200160002060006101000a81548160ff0219169083151502179055506001600481819054906101000a900463ffffffff168092919060010191906101000a81548163ffffffff021916908363ffffffff160217905550507fa636f4a11e2d3ba7f89d042ecb0a6b886716e98cd49d8fd876ee0f73bced42b881604051610b7e9190610d28565b60405180910390a150565b600080fd5b600060ff82169050919050565b610ba481610b8e565b8114610baf57600080fd5b50565b600081359050610bc181610b9b565b92915050565b600060208284031215610bdd57610bdc610b89565b5b6000610beb84828501610bb2565b91505092915050565b600063ffffffff82169050919050565b610c0d81610bf4565b82525050565b6000602082019050610c286000830184610c04565b92915050565b610c3781610b8e565b82525050565b6000602082019050610c526000830184610c2e565b92915050565b600073ffffffffffffffffffffffffffffffffffffffff82169050919050565b6000610c8382610c58565b9050919050565b610c9381610c78565b8114610c9e57600080fd5b50565b600081359050610cb081610c8a565b92915050565b600060208284031215610ccc57610ccb610b89565b5b6000610cda84828501610ca1565b91505092915050565b60008115159050919050565b610cf881610ce3565b82525050565b6000602082019050610d136000830184610cef565b92915050565b610d2281610c78565b82525050565b6000602082019050610d3d6000830184610d19565b92915050565b600060c082019050610d586000830189610d19565b610d656020830188610c2e565b610d726040830187610c04565b610d7f6060830186610c04565b610d8c6080830185610cef565b610d9960a0830184610c04565b979650505050505050565b600082825260208201905092915050565b7f4e6f74206d616e61676572000000000000000000000000000000000000000000600082015250565b6000610deb600b83610da4565b9150610df682610db5565b602082019050919050565b60006020820190508181036000830152610e1a81610dde565b9050919050565b7f416c726561647920636f6d706c65746564000000000000000000000000000000600082015250565b6000610e57601183610da4565b9150610e6282610e21565b602082019050919050565b60006020820190508181036000830152610e8681610e4a565b9050919050565b7f4e6f7420656e6465640000000000000000000000000000000000000000000000600082015250565b6000610ec3600983610da4565b9150610ece82610e8d565b602082019050919050565b60006020820190508181036000830152610ef281610eb6565b9050919050565b7f4e6f7420616c6c6f776564000000000000000000000000000000000000000000600082015250565b6000610f2f600b83610da4565b9150610f3a82610ef9565b602082019050919050565b60006020820190508181036000830152610f5e81610f22565b9050919050565b7f416c726561647920766f74656400000000000000000000000000000000000000600082015250565b6000610f9b600d83610da4565b9150610fa682610f65565b602082019050919050565b60006020820190508181036000830152610fca81610f8e565b9050919050565b7f436f6d706c657465640000000000000000000000000000000000000000000000600082015250565b6000611007600983610da4565b915061101282610fd1565b602082019050919050565b6000602082019050818103600083015261103681610ffa565b9050919050565b7f496e76616c69642074696d650000000000000000000000000000000000000000600082015250565b6000611073600c83610da4565b915061107e8261103d565b602082019050919050565b600060208201905081810360008301526110a281611066565b9050919050565b7f496e76616c69642063686f696365000000000000000000000000000000000000600082015250565b60006110df600e83610da4565b91506110ea826110a9565b602082019050919050565b6000602082019050818103600083015261110e816110d2565b9050919050565b600060408201905061112a6000830185610d19565b6111376020830184610c2e565b9392505050565b7f416c726561647920616464656400000000000000000000000000000000000000600082015250565b6000611174600d83610da4565b915061117f8261113e565b602082019050919050565b600060208201905081810360008301526111a381611167565b905091905056fea264697066735822122053c98679f1e09ef093540915002846d60b78e92e933bdaece67daeee71716ad464736f6c63430008120033a264697066735822122078fc0ce1a1123380bbf54a2909c26ba9a15beddf09f01f19f61bb22e216c3aac64736f6c63430008120033","opcodes":"PUSH1 0x80 PUSH1 0x40 MSTORE CALLVALUE DUP1 ISZERO PUSH2 0x10 JUMPI PUSH1 0x0 DUP1 REVERT JUMPDEST POP PUSH2 0x1959 DUP1 PUSH2 0x20 PUSH1 0x0 CODECOPY PUSH1 0x0 RETURN INVALID PUSH1 0x80 PUSH1 0x40 MSTORE CALLVALUE DUP1 ISZERO PUSH2 0x10 JUMPI PUSH1 0x0 DUP1 REVERT JUMPDEST POP PUSH1 0x4 CALLDATASIZE LT PUSH2 0x41 JUMPI PUSH1 0x0 CALLDATALOAD PUSH1 0xE0 SHR DUP1 PUSH4 0x13F320D1 EQ PUSH2 0x46 JUMPI DUP1 PUSH4 0x298F37AB EQ PUSH2 0x62 JUMPI DUP1 PUSH4 0x3E04B578 EQ PUSH2 0x92 JUMPI JUMPDEST PUSH1 0x0 DUP1 REVERT JUMPDEST PUSH2 0x60 PUSH1 0x4 DUP1 CALLDATASIZE SUB DUP2 ADD SWAP1 PUSH2 0x5B SWAP2 SWAP1 PUSH2 0x2A5 JUMP JUMPDEST PUSH2 0xB0 JUMP JUMPDEST STOP JUMPDEST PUSH2 0x7C PUSH1 0x4 DUP1 CALLDATASIZE SUB DUP2 ADD SWAP1 PUSH2 0x77 SWAP2 SWAP1 PUSH2 0x32E JUMP JUMPDEST PUSH2 0x151 JUMP JUMPDEST PUSH1 0x40 MLOAD PUSH2 0x89 SWAP2 SWAP1 PUSH2 0x39C JUMP JUMPDEST PUSH1 0x40 MLOAD DUP1 SWAP2 SUB SWAP1 RETURN JUMPDEST PUSH2 0x9A PUSH2 0x190 JUMP JUMPDEST PUSH1 0x40 MLOAD PUSH2 0xA7 SWAP2 SWAP1 PUSH2 0x475 JUMP JUMPDEST PUSH1 0x40 MLOAD DUP1 SWAP2 SUB SWAP1 RETURN JUMPDEST PUSH1 0x0 DUP4 DUP4 DUP4 CALLER PUSH1 0x40 MLOAD PUSH2 0xC2 SWAP1 PUSH2 0x21E JUMP JUMPDEST PUSH2 0xCF SWAP5 SWAP4 SWAP3 SWAP2 SWAP1 PUSH2 0x4B5 JUMP JUMPDEST PUSH1 0x40 MLOAD DUP1 SWAP2 SUB SWAP1 PUSH1 0x0 CREATE DUP1 ISZERO DUP1 ISZERO PUSH2 0xEB JUMPI RETURNDATASIZE PUSH1 0x0 DUP1 RETURNDATACOPY RETURNDATASIZE PUSH1 0x0 REVERT JUMPDEST POP SWAP1 DUP1 PUSH1 0x1 DUP2 SLOAD ADD DUP1 DUP3 SSTORE DUP1 SWAP2 POP POP PUSH1 0x1 SWAP1 SUB SWAP1 PUSH1 0x0 MSTORE PUSH1 0x20 PUSH1 0x0 KECCAK256 ADD PUSH1 0x0 SWAP1 SWAP2 SWAP1 SWAP2 SWAP1 SWAP2 PUSH2 0x100 EXP DUP2 SLOAD DUP2 PUSH20 0xFFFFFFFFFFFFFFFFFFFFFFFFFFFFFFFFFFFFFFFF MUL NOT AND SWAP1 DUP4 PUSH20 0xFFFFFFFFFFFFFFFFFFFFFFFFFFFFFFFFFFFFFFFF AND MUL OR SWAP1 SSTORE POP POP POP POP JUMP JUMPDEST PUSH1 0x0 DUP2 DUP2 SLOAD DUP2 LT PUSH2 0x161 JUMPI PUSH1 0x0 DUP1 REVERT JUMPDEST SWAP1 PUSH1 0x0 MSTORE PUSH1 0x20 PUSH1 0x0 KECCAK256 ADD PUSH1 0x0 SWAP2 POP SLOAD SWAP1 PUSH2 0x100 EXP SWAP1 DIV PUSH20 0xFFFFFFFFFFFFFFFFFFFFFFFFFFFFFFFFFFFFFFFF AND DUP2 JUMP JUMPDEST PUSH1 0x60 PUSH1 0x0 DUP1 SLOAD DUP1 PUSH1 0x20 MUL PUSH1 0x20 ADD PUSH1 0x40 MLOAD SWAP1 DUP2 ADD PUSH1 0x40 MSTORE DUP1 SWAP3 SWAP2 SWAP1 DUP2 DUP2 MSTORE PUSH1 0x20 ADD DUP3 DUP1 SLOAD DUP1 ISZERO PUSH2 0x214 JUMPI PUSH1 0x20 MUL DUP3 ADD SWAP2 SWAP1 PUSH1 0x0 MSTORE PUSH1 0x20 PUSH1 0x0 KECCAK256 SWAP1 JUMPDEST DUP2 PUSH1 0x0 SWAP1 SLOAD SWAP1 PUSH2 0x100 EXP SWAP1 DIV PUSH20 0xFFFFFFFFFFFFFFFFFFFFFFFFFFFFFFFFFFFFFFFF AND PUSH20 0xFFFFFFFFFFFFFFFFFFFFFFFFFFFFFFFFFFFFFFFF AND DUP2 MSTORE PUSH1 0x20 ADD SWAP1 PUSH1 0x1 ADD SWAP1 DUP1 DUP4 GT PUSH2 0x1CA JUMPI JUMPDEST POP POP POP POP POP SWAP1 POP SWAP1 JUMP JUMPDEST PUSH2 0x1429 DUP1 PUSH2 0x4FB DUP4 CODECOPY ADD SWAP1 JUMP JUMPDEST PUSH1 0x0 DUP1 REVERT JUMPDEST PUSH1 0x0 PUSH1 0xFF DUP3 AND SWAP1 POP SWAP2 SWAP1 POP JUMP JUMPDEST PUSH2 0x246 DUP2 PUSH2 0x230 JUMP JUMPDEST DUP2 EQ PUSH2 0x251 JUMPI PUSH1 0x0 DUP1 REVERT JUMPDEST POP JUMP JUMPDEST PUSH1 0x0 DUP2 CALLDATALOAD SWAP1 POP PUSH2 0x263 DUP2 PUSH2 0x23D JUMP JUMPDEST SWAP3 SWAP2 POP POP JUMP JUMPDEST PUSH1 0x0 PUSH4 0xFFFFFFFF DUP3 AND SWAP1 POP SWAP2 SWAP1 POP JUMP JUMPDEST PUSH2 0x282 DUP2 PUSH2 0x269 JUMP JUMPDEST DUP2 EQ PUSH2 0x28D JUMPI PUSH1 0x0 DUP1 REVERT JUMPDEST POP JUMP JUMPDEST PUSH1 0x0 DUP2 CALLDATALOAD SWAP1 POP PUSH2 0x29F DUP2 PUSH2 0x279 JUMP JUMPDEST SWAP3 SWAP2 POP POP JUMP JUMPDEST PUSH1 0x0 DUP1 PUSH1 0x0 PUSH1 0x60 DUP5 DUP7 SUB SLT ISZERO PUSH2 0x2BE JUMPI PUSH2 0x2BD PUSH2 0x22B JUMP JUMPDEST JUMPDEST PUSH1 0x0 PUSH2 0x2CC DUP7 DUP3 DUP8 ADD PUSH2 0x254 JUMP JUMPDEST SWAP4 POP POP PUSH1 0x20 PUSH2 0x2DD DUP7 DUP3 DUP8 ADD PUSH2 0x290 JUMP JUMPDEST SWAP3 POP POP PUSH1 0x40 PUSH2 0x2EE DUP7 DUP3 DUP8 ADD PUSH2 0x290 JUMP JUMPDEST SWAP2 POP POP SWAP3 POP SWAP3 POP SWAP3 JUMP JUMPDEST PUSH1 0x0 DUP2 SWAP1 POP SWAP2 SWAP1 POP JUMP JUMPDEST PUSH2 0x30B DUP2 PUSH2 0x2F8 JUMP JUMPDEST DUP2 EQ PUSH2 0x316 JUMPI PUSH1 0x0 DUP1 REVERT JUMPDEST POP JUMP JUMPDEST PUSH1 0x0 DUP2 CALLDATALOAD SWAP1 POP PUSH2 0x328 DUP2 PUSH2 0x302 JUMP JUMPDEST SWAP3 SWAP2 POP POP JUMP JUMPDEST PUSH1 0x0 PUSH1 0x20 DUP3 DUP5 SUB SLT ISZERO PUSH2 0x344 JUMPI PUSH2 0x343 PUSH2 0x22B JUMP JUMPDEST JUMPDEST PUSH1 0x0 PUSH2 0x352 DUP5 DUP3 DUP6 ADD PUSH2 0x319 JUMP JUMPDEST SWAP2 POP POP SWAP3 SWAP2 POP POP JUMP JUMPDEST PUSH1 0x0 PUSH20 0xFFFFFFFFFFFFFFFFFFFFFFFFFFFFFFFFFFFFFFFF DUP3 AND SWAP1 POP SWAP2 SWAP1 POP JUMP JUMPDEST PUSH1 0x0 PUSH2 0x386 DUP3 PUSH2 0x35B JUMP JUMPDEST SWAP1 POP SWAP2 SWAP1 POP JUMP JUMPDEST PUSH2 0x396 DUP2 PUSH2 0x37B JUMP JUMPDEST DUP3 MSTORE POP POP JUMP JUMPDEST PUSH1 0x0 PUSH1 0x20 DUP3 ADD SWAP1 POP PUSH2 0x3B1 PUSH1 0x0 DUP4 ADD DUP5 PUSH2 0x38D JUMP JUMPDEST SWAP3 SWAP2 POP POP JUMP JUMPDEST PUSH1 0x0 DUP2 MLOAD SWAP1 POP SWAP2 SWAP1 POP JUMP JUMPDEST PUSH1 0x0 DUP3 DUP3 MSTORE PUSH1 0x20 DUP3 ADD SWAP1 POP SWAP3 SWAP2 POP POP JUMP JUMPDEST PUSH1 0x0 DUP2 SWAP1 POP PUSH1 0x20 DUP3 ADD SWAP1 POP SWAP2 SWAP1 POP JUMP JUMPDEST PUSH2 0x3EC DUP2 PUSH2 0x37B JUMP JUMPDEST DUP3 MSTORE POP POP JUMP JUMPDEST PUSH1 0x0 PUSH2 0x3FE DUP4 DUP4 PUSH2 0x3E3 JUMP JUMPDEST PUSH1 0x20 DUP4 ADD SWAP1 POP SWAP3 SWAP2 POP POP JUMP JUMPDEST PUSH1 0x0 PUSH1 0x20 DUP3 ADD SWAP1 POP SWAP2 SWAP1 POP JUMP JUMPDEST PUSH1 0x0 PUSH2 0x422 DUP3 PUSH2 0x3B7 JUMP JUMPDEST PUSH2 0x42C DUP2 DUP6 PUSH2 0x3C2 JUMP JUMPDEST SWAP4 POP PUSH2 0x437 DUP4 PUSH2 0x3D3 JUMP JUMPDEST DUP1 PUSH1 0x0 JUMPDEST DUP4 DUP2 LT ISZERO PUSH2 0x468 JUMPI DUP2 MLOAD PUSH2 0x44F DUP9 DUP3 PUSH2 0x3F2 JUMP JUMPDEST SWAP8 POP PUSH2 0x45A DUP4 PUSH2 0x40A JUMP JUMPDEST SWAP3 POP POP PUSH1 0x1 DUP2 ADD SWAP1 POP PUSH2 0x43B JUMP JUMPDEST POP DUP6 SWAP4 POP POP POP POP SWAP3 SWAP2 POP POP JUMP JUMPDEST PUSH1 0x0 PUSH1 0x20 DUP3 ADD SWAP1 POP DUP2 DUP2 SUB PUSH1 0x0 DUP4 ADD MSTORE PUSH2 0x48F DUP2 DUP5 PUSH2 0x417 JUMP JUMPDEST SWAP1 POP SWAP3 SWAP2 POP POP JUMP JUMPDEST PUSH2 0x4A0 DUP2 PUSH2 0x230 JUMP JUMPDEST DUP3 MSTORE POP POP JUMP JUMPDEST PUSH2 0x4AF DUP2 PUSH2 0x269 JUMP JUMPDEST DUP3 MSTORE POP POP JUMP JUMPDEST PUSH1 0x0 PUSH1 0x80 DUP3 ADD SWAP1 POP PUSH2 0x4CA PUSH1 0x0 DUP4 ADD DUP8 PUSH2 0x497 JUMP JUMPDEST PUSH2 0x4D7 PUSH1 0x20 DUP4 ADD DUP7 PUSH2 0x4A6 JUMP JUMPDEST PUSH2 0x4E4 PUSH1 0x40 DUP4 ADD DUP6 PUSH2 0x4A6 JUMP JUMPDEST PUSH2 0x4F1 PUSH1 0x60 DUP4 ADD DUP5 PUSH2 0x38D JUMP JUMPDEST SWAP6 SWAP5 POP POP POP POP POP JUMP INVALID PUSH1 0x80 PUSH1 0x40 MSTORE CALLVALUE DUP1 ISZERO PUSH3 0x11 JUMPI PUSH1 0x0 DUP1 REVERT JUMPDEST POP PUSH1 0x40 MLOAD PUSH3 0x1429 CODESIZE SUB DUP1 PUSH3 0x1429 DUP4 CODECOPY DUP2 DUP2 ADD PUSH1 0x40 MSTORE DUP2 ADD SWAP1 PUSH3 0x37 SWAP2 SWAP1 PUSH3 0x1C7 JUMP JUMPDEST DUP1 PUSH1 0x0 DUP1 PUSH2 0x100 EXP DUP2 SLOAD DUP2 PUSH20 0xFFFFFFFFFFFFFFFFFFFFFFFFFFFFFFFFFFFFFFFF MUL NOT AND SWAP1 DUP4 PUSH20 0xFFFFFFFFFFFFFFFFFFFFFFFFFFFFFFFFFFFFFFFF AND MUL OR SWAP1 SSTORE POP DUP4 PUSH1 0x0 PUSH1 0x14 PUSH2 0x100 EXP DUP2 SLOAD DUP2 PUSH1 0xFF MUL NOT AND SWAP1 DUP4 PUSH1 0xFF AND MUL OR SWAP1 SSTORE POP DUP3 PUSH1 0x0 PUSH1 0x16 PUSH2 0x100 EXP DUP2 SLOAD DUP2 PUSH4 0xFFFFFFFF MUL NOT AND SWAP1 DUP4 PUSH4 0xFFFFFFFF AND MUL OR SWAP1 SSTORE POP DUP2 PUSH1 0x0 PUSH1 0x1A PUSH2 0x100 EXP DUP2 SLOAD DUP2 PUSH4 0xFFFFFFFF MUL NOT AND SWAP1 DUP4 PUSH4 0xFFFFFFFF AND MUL OR SWAP1 SSTORE POP POP POP POP POP PUSH3 0x239 JUMP JUMPDEST PUSH1 0x0 DUP1 REVERT JUMPDEST PUSH1 0x0 PUSH1 0xFF DUP3 AND SWAP1 POP SWAP2 SWAP1 POP JUMP JUMPDEST PUSH3 0xFB DUP2 PUSH3 0xE3 JUMP JUMPDEST DUP2 EQ PUSH3 0x107 JUMPI PUSH1 0x0 DUP1 REVERT JUMPDEST POP JUMP JUMPDEST PUSH1 0x0 DUP2 MLOAD SWAP1 POP PUSH3 0x11B DUP2 PUSH3 0xF0 JUMP JUMPDEST SWAP3 SWAP2 POP POP JUMP JUMPDEST PUSH1 0x0 PUSH4 0xFFFFFFFF DUP3 AND SWAP1 POP SWAP2 SWAP1 POP JUMP JUMPDEST PUSH3 0x13C DUP2 PUSH3 0x121 JUMP JUMPDEST DUP2 EQ PUSH3 0x148 JUMPI PUSH1 0x0 DUP1 REVERT JUMPDEST POP JUMP JUMPDEST PUSH1 0x0 DUP2 MLOAD SWAP1 POP PUSH3 0x15C DUP2 PUSH3 0x131 JUMP JUMPDEST SWAP3 SWAP2 POP POP JUMP JUMPDEST PUSH1 0x0 PUSH20 0xFFFFFFFFFFFFFFFFFFFFFFFFFFFFFFFFFFFFFFFF DUP3 AND SWAP1 POP SWAP2 SWAP1 POP JUMP JUMPDEST PUSH1 0x0 PUSH3 0x18F DUP3 PUSH3 0x162 JUMP JUMPDEST SWAP1 POP SWAP2 SWAP1 POP JUMP JUMPDEST PUSH3 0x1A1 DUP2 PUSH3 0x182 JUMP JUMPDEST DUP2 EQ PUSH3 0x1AD JUMPI PUSH1 0x0 DUP1 REVERT JUMPDEST POP JUMP JUMPDEST PUSH1 0x0 DUP2 MLOAD SWAP1 POP PUSH3 0x1C1 DUP2 PUSH3 0x196 JUMP JUMPDEST SWAP3 SWAP2 POP POP JUMP JUMPDEST PUSH1 0x0 DUP1 PUSH1 0x0 DUP1 PUSH1 0x80 DUP6 DUP8 SUB SLT ISZERO PUSH3 0x1E4 JUMPI PUSH3 0x1E3 PUSH3 0xDE JUMP JUMPDEST JUMPDEST PUSH1 0x0 PUSH3 0x1F4 DUP8 DUP3 DUP9 ADD PUSH3 0x10A JUMP JUMPDEST SWAP5 POP POP PUSH1 0x20 PUSH3 0x207 DUP8 DUP3 DUP9 ADD PUSH3 0x14B JUMP JUMPDEST SWAP4 POP POP PUSH1 0x40 PUSH3 0x21A DUP8 DUP3 DUP9 ADD PUSH3 0x14B JUMP JUMPDEST SWAP3 POP POP PUSH1 0x60 PUSH3 0x22D DUP8 DUP3 DUP9 ADD PUSH3 0x1B0 JUMP JUMPDEST SWAP2 POP POP SWAP3 SWAP6 SWAP2 SWAP5 POP SWAP3 POP JUMP JUMPDEST PUSH2 0x11E0 DUP1 PUSH3 0x249 PUSH1 0x0 CODECOPY PUSH1 0x0 RETURN INVALID PUSH1 0x80 PUSH1 0x40 MSTORE CALLVALUE DUP1 ISZERO PUSH2 0x10 JUMPI PUSH1 0x0 DUP1 REVERT JUMPDEST POP PUSH1 0x4 CALLDATASIZE LT PUSH2 0xF5 JUMPI PUSH1 0x0 CALLDATALOAD PUSH1 0xE0 SHR DUP1 PUSH4 0x78622C5D GT PUSH2 0x97 JUMPI DUP1 PUSH4 0xA944B7A6 GT PUSH2 0x66 JUMPI DUP1 PUSH4 0xA944B7A6 EQ PUSH2 0x27D JUMPI DUP1 PUSH4 0xB3F98ADC EQ PUSH2 0x29B JUMPI DUP1 PUSH4 0xC24A0F8B EQ PUSH2 0x2B7 JUMPI DUP1 PUSH4 0xF4AB9ADF EQ PUSH2 0x2D5 JUMPI PUSH2 0xF5 JUMP JUMPDEST DUP1 PUSH4 0x78622C5D EQ PUSH2 0x1E1 JUMPI DUP1 PUSH4 0x8953BB72 EQ PUSH2 0x1FF JUMPI DUP1 PUSH4 0x9D9A7FE9 EQ PUSH2 0x22F JUMPI DUP1 PUSH4 0xA3D45314 EQ PUSH2 0x24D JUMPI PUSH2 0xF5 JUMP JUMPDEST DUP1 PUSH4 0x481C6A75 GT PUSH2 0xD3 JUMPI DUP1 PUSH4 0x481C6A75 EQ PUSH2 0x178 JUMPI DUP1 PUSH4 0x4E69D560 EQ PUSH2 0x196 JUMPI DUP1 PUSH4 0x522E1177 EQ PUSH2 0x1B9 JUMPI DUP1 PUSH4 0x70BABC8A EQ PUSH2 0x1C3 JUMPI PUSH2 0xF5 JUMP JUMPDEST DUP1 PUSH4 0x13B0BA19 EQ PUSH2 0xFA JUMPI DUP1 PUSH4 0x1632C03F EQ PUSH2 0x12A JUMPI DUP1 PUSH4 0x255ADFD4 EQ PUSH2 0x148 JUMPI JUMPDEST PUSH1 0x0 DUP1 REVERT JUMPDEST PUSH2 0x114 PUSH1 0x4 DUP1 CALLDATASIZE SUB DUP2 ADD SWAP1 PUSH2 0x10F SWAP2 SWAP1 PUSH2 0xBC7 JUMP JUMPDEST PUSH2 0x2F1 JUMP JUMPDEST PUSH1 0x40 MLOAD PUSH2 0x121 SWAP2 SWAP1 PUSH2 0xC13 JUMP JUMPDEST PUSH1 0x40 MLOAD DUP1 SWAP2 SUB SWAP1 RETURN JUMPDEST PUSH2 0x132 PUSH2 0x314 JUMP JUMPDEST PUSH1 0x40 MLOAD PUSH2 0x13F SWAP2 SWAP1 PUSH2 0xC3D JUMP JUMPDEST PUSH1 0x40 MLOAD DUP1 SWAP2 SUB SWAP1 RETURN JUMPDEST PUSH2 0x162 PUSH1 0x4 DUP1 CALLDATASIZE SUB DUP2 ADD SWAP1 PUSH2 0x15D SWAP2 SWAP1 PUSH2 0xCB6 JUMP JUMPDEST PUSH2 0x327 JUMP JUMPDEST PUSH1 0x40 MLOAD PUSH2 0x16F SWAP2 SWAP1 PUSH2 0xCFE JUMP JUMPDEST PUSH1 0x40 MLOAD DUP1 SWAP2 SUB SWAP1 RETURN JUMPDEST PUSH2 0x180 PUSH2 0x347 JUMP JUMPDEST PUSH1 0x40 MLOAD PUSH2 0x18D SWAP2 SWAP1 PUSH2 0xD28 JUMP JUMPDEST PUSH1 0x40 MLOAD DUP1 SWAP2 SUB SWAP1 RETURN JUMPDEST PUSH2 0x19E PUSH2 0x36B JUMP JUMPDEST PUSH1 0x40 MLOAD PUSH2 0x1B0 SWAP7 SWAP6 SWAP5 SWAP4 SWAP3 SWAP2 SWAP1 PUSH2 0xD43 JUMP JUMPDEST PUSH1 0x40 MLOAD DUP1 SWAP2 SUB SWAP1 RETURN JUMPDEST PUSH2 0x1C1 PUSH2 0x402 JUMP JUMPDEST STOP JUMPDEST PUSH2 0x1CB PUSH2 0x583 JUMP JUMPDEST PUSH1 0x40 MLOAD PUSH2 0x1D8 SWAP2 SWAP1 PUSH2 0xC13 JUMP JUMPDEST PUSH1 0x40 MLOAD DUP1 SWAP2 SUB SWAP1 RETURN JUMPDEST PUSH2 0x1E9 PUSH2 0x599 JUMP JUMPDEST PUSH1 0x40 MLOAD PUSH2 0x1F6 SWAP2 SWAP1 PUSH2 0xC13 JUMP JUMPDEST PUSH1 0x40 MLOAD DUP1 SWAP2 SUB SWAP1 RETURN JUMPDEST PUSH2 0x219 PUSH1 0x4 DUP1 CALLDATASIZE SUB DUP2 ADD SWAP1 PUSH2 0x214 SWAP2 SWAP1 PUSH2 0xBC7 JUMP JUMPDEST PUSH2 0x5AF JUMP JUMPDEST PUSH1 0x40 MLOAD PUSH2 0x226 SWAP2 SWAP1 PUSH2 0xC13 JUMP JUMPDEST PUSH1 0x40 MLOAD DUP1 SWAP2 SUB SWAP1 RETURN JUMPDEST PUSH2 0x237 PUSH2 0x5E2 JUMP JUMPDEST PUSH1 0x40 MLOAD PUSH2 0x244 SWAP2 SWAP1 PUSH2 0xCFE JUMP JUMPDEST PUSH1 0x40 MLOAD DUP1 SWAP2 SUB SWAP1 RETURN JUMPDEST PUSH2 0x267 PUSH1 0x4 DUP1 CALLDATASIZE SUB DUP2 ADD SWAP1 PUSH2 0x262 SWAP2 SWAP1 PUSH2 0xCB6 JUMP JUMPDEST PUSH2 0x5F5 JUMP JUMPDEST PUSH1 0x40 MLOAD PUSH2 0x274 SWAP2 SWAP1 PUSH2 0xCFE JUMP JUMPDEST PUSH1 0x40 MLOAD DUP1 SWAP2 SUB SWAP1 RETURN JUMPDEST PUSH2 0x285 PUSH2 0x615 JUMP JUMPDEST PUSH1 0x40 MLOAD PUSH2 0x292 SWAP2 SWAP1 PUSH2 0xC13 JUMP JUMPDEST PUSH1 0x40 MLOAD DUP1 SWAP2 SUB SWAP1 RETURN JUMPDEST PUSH2 0x2B5 PUSH1 0x4 DUP1 CALLDATASIZE SUB DUP2 ADD SWAP1 PUSH2 0x2B0 SWAP2 SWAP1 PUSH2 0xBC7 JUMP JUMPDEST PUSH2 0x62B JUMP JUMPDEST STOP JUMPDEST PUSH2 0x2BF PUSH2 0x98B JUMP JUMPDEST PUSH1 0x40 MLOAD PUSH2 0x2CC SWAP2 SWAP1 PUSH2 0xC13 JUMP JUMPDEST PUSH1 0x40 MLOAD DUP1 SWAP2 SUB SWAP1 RETURN JUMPDEST PUSH2 0x2EF PUSH1 0x4 DUP1 CALLDATASIZE SUB DUP2 ADD SWAP1 PUSH2 0x2EA SWAP2 SWAP1 PUSH2 0xCB6 JUMP JUMPDEST PUSH2 0x9A1 JUMP JUMPDEST STOP JUMPDEST PUSH1 0x4 PUSH1 0x20 MSTORE DUP1 PUSH1 0x0 MSTORE PUSH1 0x40 PUSH1 0x0 KECCAK256 PUSH1 0x0 SWAP2 POP SLOAD SWAP1 PUSH2 0x100 EXP SWAP1 DIV PUSH4 0xFFFFFFFF AND DUP2 JUMP JUMPDEST PUSH1 0x0 PUSH1 0x14 SWAP1 SLOAD SWAP1 PUSH2 0x100 EXP SWAP1 DIV PUSH1 0xFF AND DUP2 JUMP JUMPDEST PUSH1 0x3 PUSH1 0x20 MSTORE DUP1 PUSH1 0x0 MSTORE PUSH1 0x40 PUSH1 0x0 KECCAK256 PUSH1 0x0 SWAP2 POP SLOAD SWAP1 PUSH2 0x100 EXP SWAP1 DIV PUSH1 0xFF AND DUP2 JUMP JUMPDEST PUSH1 0x0 DUP1 SLOAD SWAP1 PUSH2 0x100 EXP SWAP1 DIV PUSH20 0xFFFFFFFFFFFFFFFFFFFFFFFFFFFFFFFFFFFFFFFF AND DUP2 JUMP JUMPDEST PUSH1 0x0 DUP1 PUSH1 0x0 DUP1 PUSH1 0x0 DUP1 PUSH1 0x0 DUP1 SLOAD SWAP1 PUSH2 0x100 EXP SWAP1 DIV PUSH20 0xFFFFFFFFFFFFFFFFFFFFFFFFFFFFFFFFFFFFFFFF AND PUSH1 0x0 PUSH1 0x14 SWAP1 SLOAD SWAP1 PUSH2 0x100 EXP SWAP1 DIV PUSH1 0xFF AND PUSH1 0x0 PUSH1 0x16 SWAP1 SLOAD SWAP1 PUSH2 0x100 EXP SWAP1 DIV PUSH4 0xFFFFFFFF AND PUSH1 0x0 PUSH1 0x1A SWAP1 SLOAD SWAP1 PUSH2 0x100 EXP SWAP1 DIV PUSH4 0xFFFFFFFF AND PUSH1 0x0 PUSH1 0x15 SWAP1 SLOAD SWAP1 PUSH2 0x100 EXP SWAP1 DIV PUSH1 0xFF AND PUSH1 0x1 PUSH1 0x0 SWAP1 SLOAD SWAP1 PUSH2 0x100 EXP SWAP1 DIV PUSH4 0xFFFFFFFF AND SWAP6 POP SWAP6 POP SWAP6 POP SWAP6 POP SWAP6 POP SWAP6 POP SWAP1 SWAP2 SWAP3 SWAP4 SWAP5 SWAP6 JUMP JUMPDEST PUSH1 0x0 DUP1 SLOAD SWAP1 PUSH2 0x100 EXP SWAP1 DIV PUSH20 0xFFFFFFFFFFFFFFFFFFFFFFFFFFFFFFFFFFFFFFFF AND PUSH20 0xFFFFFFFFFFFFFFFFFFFFFFFFFFFFFFFFFFFFFFFF AND CALLER PUSH20 0xFFFFFFFFFFFFFFFFFFFFFFFFFFFFFFFFFFFFFFFF AND EQ PUSH2 0x490 JUMPI PUSH1 0x40 MLOAD PUSH32 0x8C379A000000000000000000000000000000000000000000000000000000000 DUP2 MSTORE PUSH1 0x4 ADD PUSH2 0x487 SWAP1 PUSH2 0xE01 JUMP JUMPDEST PUSH1 0x40 MLOAD DUP1 SWAP2 SUB SWAP1 REVERT JUMPDEST PUSH1 0x0 PUSH1 0x15 SWAP1 SLOAD SWAP1 PUSH2 0x100 EXP SWAP1 DIV PUSH1 0xFF AND ISZERO PUSH2 0x4E0 JUMPI PUSH1 0x40 MLOAD PUSH32 0x8C379A000000000000000000000000000000000000000000000000000000000 DUP2 MSTORE PUSH1 0x4 ADD PUSH2 0x4D7 SWAP1 PUSH2 0xE6D JUMP JUMPDEST PUSH1 0x40 MLOAD DUP1 SWAP2 SUB SWAP1 REVERT JUMPDEST PUSH1 0x0 PUSH1 0x1A SWAP1 SLOAD SWAP1 PUSH2 0x100 EXP SWAP1 DIV PUSH4 0xFFFFFFFF AND PUSH4 0xFFFFFFFF AND TIMESTAMP GT PUSH2 0x53A JUMPI PUSH1 0x40 MLOAD PUSH32 0x8C379A000000000000000000000000000000000000000000000000000000000 DUP2 MSTORE PUSH1 0x4 ADD PUSH2 0x531 SWAP1 PUSH2 0xED9 JUMP JUMPDEST PUSH1 0x40 MLOAD DUP1 SWAP2 SUB SWAP1 REVERT JUMPDEST PUSH1 0x1 PUSH1 0x0 PUSH1 0x15 PUSH2 0x100 EXP DUP2 SLOAD DUP2 PUSH1 0xFF MUL NOT AND SWAP1 DUP4 ISZERO ISZERO MUL OR SWAP1 SSTORE POP PUSH32 0xFA4C46064339896F4EF55EEAC982A9E8BD0DBEBE83ED7978CF168FA14F679F70 PUSH1 0x40 MLOAD PUSH1 0x40 MLOAD DUP1 SWAP2 SUB SWAP1 LOG1 JUMP JUMPDEST PUSH1 0x1 PUSH1 0x4 SWAP1 SLOAD SWAP1 PUSH2 0x100 EXP SWAP1 DIV PUSH4 0xFFFFFFFF AND DUP2 JUMP JUMPDEST PUSH1 0x1 PUSH1 0x0 SWAP1 SLOAD SWAP1 PUSH2 0x100 EXP SWAP1 DIV PUSH4 0xFFFFFFFF AND DUP2 JUMP JUMPDEST PUSH1 0x0 PUSH1 0x4 PUSH1 0x0 DUP4 PUSH1 0xFF AND PUSH1 0xFF AND DUP2 MSTORE PUSH1 0x20 ADD SWAP1 DUP2 MSTORE PUSH1 0x20 ADD PUSH1 0x0 KECCAK256 PUSH1 0x0 SWAP1 SLOAD SWAP1 PUSH2 0x100 EXP SWAP1 DIV PUSH4 0xFFFFFFFF AND SWAP1 POP SWAP2 SWAP1 POP JUMP JUMPDEST PUSH1 0x0 PUSH1 0x15 SWAP1 SLOAD SWAP1 PUSH2 0x100 EXP SWAP1 DIV PUSH1 0xFF AND DUP2 JUMP JUMPDEST PUSH1 0x2 PUSH1 0x20 MSTORE DUP1 PUSH1 0x0 MSTORE PUSH1 0x40 PUSH1 0x0 KECCAK256 PUSH1 0x0 SWAP2 POP SLOAD SWAP1 PUSH2 0x100 EXP SWAP1 DIV PUSH1 0xFF AND DUP2 JUMP JUMPDEST PUSH1 0x0 PUSH1 0x16 SWAP1 SLOAD SWAP1 PUSH2 0x100 EXP SWAP1 DIV PUSH4 0xFFFFFFFF AND DUP2 JUMP JUMPDEST PUSH1 0x3 PUSH1 0x0 CALLER PUSH20 0xFFFFFFFFFFFFFFFFFFFFFFFFFFFFFFFFFFFFFFFF AND PUSH20 0xFFFFFFFFFFFFFFFFFFFFFFFFFFFFFFFFFFFFFFFF AND DUP2 MSTORE PUSH1 0x20 ADD SWAP1 DUP2 MSTORE PUSH1 0x20 ADD PUSH1 0x0 KECCAK256 PUSH1 0x0 SWAP1 SLOAD SWAP1 PUSH2 0x100 EXP SWAP1 DIV PUSH1 0xFF AND PUSH2 0x6B7 JUMPI PUSH1 0x40 MLOAD PUSH32 0x8C379A000000000000000000000000000000000000000000000000000000000 DUP2 MSTORE PUSH1 0x4 ADD PUSH2 0x6AE SWAP1 PUSH2 0xF45 JUMP JUMPDEST PUSH1 0x40 MLOAD DUP1 SWAP2 SUB SWAP1 REVERT JUMPDEST PUSH1 0x2 PUSH1 0x0 CALLER PUSH20 0xFFFFFFFFFFFFFFFFFFFFFFFFFFFFFFFFFFFFFFFF AND PUSH20 0xFFFFFFFFFFFFFFFFFFFFFFFFFFFFFFFFFFFFFFFF AND DUP2 MSTORE PUSH1 0x20 ADD SWAP1 DUP2 MSTORE PUSH1 0x20 ADD PUSH1 0x0 KECCAK256 PUSH1 0x0 SWAP1 SLOAD SWAP1 PUSH2 0x100 EXP SWAP1 DIV PUSH1 0xFF AND ISZERO PUSH2 0x744 JUMPI PUSH1 0x40 MLOAD PUSH32 0x8C379A000000000000000000000000000000000000000000000000000000000 DUP2 MSTORE PUSH1 0x4 ADD PUSH2 0x73B SWAP1 PUSH2 0xFB1 JUMP JUMPDEST PUSH1 0x40 MLOAD DUP1 SWAP2 SUB SWAP1 REVERT JUMPDEST PUSH1 0x0 PUSH1 0x15 SWAP1 SLOAD SWAP1 PUSH2 0x100 EXP SWAP1 DIV PUSH1 0xFF AND ISZERO PUSH2 0x794 JUMPI PUSH1 0x40 MLOAD PUSH32 0x8C379A000000000000000000000000000000000000000000000000000000000 DUP2 MSTORE PUSH1 0x4 ADD PUSH2 0x78B SWAP1 PUSH2 0x101D JUMP JUMPDEST PUSH1 0x40 MLOAD DUP1 SWAP2 SUB SWAP1 REVERT JUMPDEST PUSH1 0x0 PUSH1 0x16 SWAP1 SLOAD SWAP1 PUSH2 0x100 EXP SWAP1 DIV PUSH4 0xFFFFFFFF AND PUSH4 0xFFFFFFFF AND TIMESTAMP LT ISZERO DUP1 ISZERO PUSH2 0x7D4 JUMPI POP PUSH1 0x0 PUSH1 0x1A SWAP1 SLOAD SWAP1 PUSH2 0x100 EXP SWAP1 DIV PUSH4 0xFFFFFFFF AND PUSH4 0xFFFFFFFF AND TIMESTAMP GT ISZERO JUMPDEST PUSH2 0x813 JUMPI PUSH1 0x40 MLOAD PUSH32 0x8C379A000000000000000000000000000000000000000000000000000000000 DUP2 MSTORE PUSH1 0x4 ADD PUSH2 0x80A SWAP1 PUSH2 0x1089 JUMP JUMPDEST PUSH1 0x40 MLOAD DUP1 SWAP2 SUB SWAP1 REVERT JUMPDEST PUSH1 0x0 PUSH1 0x14 SWAP1 SLOAD SWAP1 PUSH2 0x100 EXP SWAP1 DIV PUSH1 0xFF AND PUSH1 0xFF AND DUP2 PUSH1 0xFF AND LT PUSH2 0x86A JUMPI PUSH1 0x40 MLOAD PUSH32 0x8C379A000000000000000000000000000000000000000000000000000000000 DUP2 MSTORE PUSH1 0x4 ADD PUSH2 0x861 SWAP1 PUSH2 0x10F5 JUMP JUMPDEST PUSH1 0x40 MLOAD DUP1 SWAP2 SUB SWAP1 REVERT JUMPDEST PUSH1 0x1 PUSH1 0x2 PUSH1 0x0 CALLER PUSH20 0xFFFFFFFFFFFFFFFFFFFFFFFFFFFFFFFFFFFFFFFF AND PUSH20 0xFFFFFFFFFFFFFFFFFFFFFFFFFFFFFFFFFFFFFFFF AND DUP2 MSTORE PUSH1 0x20 ADD SWAP1 DUP2 MSTORE PUSH1 0x20 ADD PUSH1 0x0 KECCAK256 PUSH1 0x0 PUSH2 0x100 EXP DUP2 SLOAD DUP2 PUSH1 0xFF MUL NOT AND SWAP1 DUP4 ISZERO ISZERO MUL OR SWAP1 SSTORE POP PUSH1 0x4 PUSH1 0x0 DUP3 PUSH1 0xFF AND PUSH1 0xFF AND DUP2 MSTORE PUSH1 0x20 ADD SWAP1 DUP2 MSTORE PUSH1 0x20 ADD PUSH1 0x0 KECCAK256 PUSH1 0x0 DUP2 DUP2 SWAP1 SLOAD SWAP1 PUSH2 0x100 EXP SWAP1 DIV PUSH4 0xFFFFFFFF AND DUP1 SWAP3 SWAP2 SWAP1 PUSH1 0x1 ADD SWAP2 SWAP1 PUSH2 0x100 EXP DUP2 SLOAD DUP2 PUSH4 0xFFFFFFFF MUL NOT AND SWAP1 DUP4 PUSH4 0xFFFFFFFF AND MUL OR SWAP1 SSTORE POP POP PUSH1 0x1 PUSH1 0x0 DUP2 DUP2 SWAP1 SLOAD SWAP1 PUSH2 0x100 EXP SWAP1 DIV PUSH4 0xFFFFFFFF AND DUP1 SWAP3 SWAP2 SWAP1 PUSH1 0x1 ADD SWAP2 SWAP1 PUSH2 0x100 EXP DUP2 SLOAD DUP2 PUSH4 0xFFFFFFFF MUL NOT AND SWAP1 DUP4 PUSH4 0xFFFFFFFF AND MUL OR SWAP1 SSTORE POP POP PUSH32 0xEFFFA0C001F10A86D936643C098510EBA656FFAB1D0C5165822B79D4C895E88F CALLER DUP3 PUSH1 0x40 MLOAD PUSH2 0x980 SWAP3 SWAP2 SWAP1 PUSH2 0x1115 JUMP JUMPDEST PUSH1 0x40 MLOAD DUP1 SWAP2 SUB SWAP1 LOG1 POP JUMP JUMPDEST PUSH1 0x0 PUSH1 0x1A SWAP1 SLOAD SWAP1 PUSH2 0x100 EXP SWAP1 DIV PUSH4 0xFFFFFFFF AND DUP2 JUMP JUMPDEST PUSH1 0x0 DUP1 SLOAD SWAP1 PUSH2 0x100 EXP SWAP1 DIV PUSH20 0xFFFFFFFFFFFFFFFFFFFFFFFFFFFFFFFFFFFFFFFF AND PUSH20 0xFFFFFFFFFFFFFFFFFFFFFFFFFFFFFFFFFFFFFFFF AND CALLER PUSH20 0xFFFFFFFFFFFFFFFFFFFFFFFFFFFFFFFFFFFFFFFF AND EQ PUSH2 0xA2F JUMPI PUSH1 0x40 MLOAD PUSH32 0x8C379A000000000000000000000000000000000000000000000000000000000 DUP2 MSTORE PUSH1 0x4 ADD PUSH2 0xA26 SWAP1 PUSH2 0xE01 JUMP JUMPDEST PUSH1 0x40 MLOAD DUP1 SWAP2 SUB SWAP1 REVERT JUMPDEST PUSH1 0x3 PUSH1 0x0 DUP3 PUSH20 0xFFFFFFFFFFFFFFFFFFFFFFFFFFFFFFFFFFFFFFFF AND PUSH20 0xFFFFFFFFFFFFFFFFFFFFFFFFFFFFFFFFFFFFFFFF AND DUP2 MSTORE PUSH1 0x20 ADD SWAP1 DUP2 MSTORE PUSH1 0x20 ADD PUSH1 0x0 KECCAK256 PUSH1 0x0 SWAP1 SLOAD SWAP1 PUSH2 0x100 EXP SWAP1 DIV PUSH1 0xFF AND ISZERO PUSH2 0xABC JUMPI PUSH1 0x40 MLOAD PUSH32 0x8C379A000000000000000000000000000000000000000000000000000000000 DUP2 MSTORE PUSH1 0x4 ADD PUSH2 0xAB3 SWAP1 PUSH2 0x118A JUMP JUMPDEST PUSH1 0x40 MLOAD DUP1 SWAP2 SUB SWAP1 REVERT JUMPDEST PUSH1 0x1 PUSH1 0x3 PUSH1 0x0 DUP4 PUSH20 0xFFFFFFFFFFFFFFFFFFFFFFFFFFFFFFFFFFFFFFFF AND PUSH20 0xFFFFFFFFFFFFFFFFFFFFFFFFFFFFFFFFFFFFFFFF AND DUP2 MSTORE PUSH1 0x20 ADD SWAP1 DUP2 MSTORE PUSH1 0x20 ADD PUSH1 0x0 KECCAK256 PUSH1 0x0 PUSH2 0x100 EXP DUP2 SLOAD DUP2 PUSH1 0xFF MUL NOT AND SWAP1 DUP4 ISZERO ISZERO MUL OR SWAP1 SSTORE POP PUSH1 0x1 PUSH1 0x4 DUP2 DUP2 SWAP1 SLOAD SWAP1 PUSH2 0x100 EXP SWAP1 DIV PUSH4 0xFFFFFFFF AND DUP1 SWAP3 SWAP2 SWAP1 PUSH1 0x1 ADD SWAP2 SWAP1 PUSH2 0x100 EXP DUP2 SLOAD DUP2 PUSH4 0xFFFFFFFF MUL NOT AND SWAP1 DUP4 PUSH4 0xFFFFFFFF AND MUL OR SWAP1 SSTORE POP POP PUSH32 0xA636F4A11E2D3BA7F89D042ECB0A6B886716E98CD49D8FD876EE0F73BCED42B8 DUP2 PUSH1 0x40 MLOAD PUSH2 0xB7E SWAP2 SWAP1 PUSH2 0xD28 JUMP JUMPDEST PUSH1 0x40 MLOAD DUP1 SWAP2 SUB SWAP1 LOG1 POP JUMP JUMPDEST PUSH1 0x0 DUP1 REVERT JUMPDEST PUSH1 0x0 PUSH1 0xFF DUP3 AND SWAP1 POP SWAP2 SWAP1 POP JUMP JUMPDEST PUSH2 0xBA4 DUP2 PUSH2 0xB8E JUMP JUMPDEST DUP2 EQ PUSH2 0xBAF JUMPI PUSH1 0x0 DUP1 REVERT JUMPDEST POP JUMP JUMPDEST PUSH1 0x0 DUP2 CALLDATALOAD SWAP1 POP PUSH2 0xBC1 DUP2 PUSH2 0xB9B JUMP JUMPDEST SWAP3 SWAP2 POP POP JUMP JUMPDEST PUSH1 0x0 PUSH1 0x20 DUP3 DUP5 SUB SLT ISZERO PUSH2 0xBDD JUMPI PUSH2 0xBDC PUSH2 0xB89 JUMP JUMPDEST JUMPDEST PUSH1 0x0 PUSH2 0xBEB DUP5 DUP3 DUP6 ADD PUSH2 0xBB2 JUMP JUMPDEST SWAP2 POP POP SWAP3 SWAP2 POP POP JUMP JUMPDEST PUSH1 0x0 PUSH4 0xFFFFFFFF DUP3 AND SWAP1 POP SWAP2 SWAP1 POP JUMP JUMPDEST PUSH2 0xC0D DUP2 PUSH2 0xBF4 JUMP JUMPDEST DUP3 MSTORE POP POP JUMP JUMPDEST PUSH1 0x0 PUSH1 0x20 DUP3 ADD SWAP1 POP PUSH2 0xC28 PUSH1 0x0 DUP4 ADD DUP5 PUSH2 0xC04 JUMP JUMPDEST SWAP3 SWAP2 POP POP JUMP JUMPDEST PUSH2 0xC37 DUP2 PUSH2 0xB8E JUMP JUMPDEST DUP3 MSTORE POP POP JUMP JUMPDEST PUSH1 0x0 PUSH1 0x20 DUP3 ADD SWAP1 POP PUSH2 0xC52 PUSH1 0x0 DUP4 ADD DUP5 PUSH2 0xC2E JUMP JUMPDEST SWAP3 SWAP2 POP POP JUMP JUMPDEST PUSH1 0x0 PUSH20 0xFFFFFFFFFFFFFFFFFFFFFFFFFFFFFFFFFFFFFFFF DUP3 AND SWAP1 POP SWAP2 SWAP1 POP JUMP JUMPDEST PUSH1 0x0 PUSH2 0xC83 DUP3 PUSH2 0xC58 JUMP JUMPDEST SWAP1 POP SWAP2 SWAP1 POP JUMP JUMPDEST PUSH2 0xC93 DUP2 PUSH2 0xC78 JUMP JUMPDEST DUP2 EQ PUSH2 0xC9E JUMPI PUSH1 0x0 DUP1 REVERT JUMPDEST POP JUMP JUMPDEST PUSH1 0x0 DUP2 CALLDATALOAD SWAP1 POP PUSH2 0xCB0 DUP2 PUSH2 0xC8A JUMP JUMPDEST SWAP3 SWAP2 POP POP JUMP JUMPDEST PUSH1 0x0 PUSH1 0x20 DUP3 DUP5 SUB SLT ISZERO PUSH2 0xCCC JUMPI PUSH2 0xCCB PUSH2 0xB89 JUMP JUMPDEST JUMPDEST PUSH1 0x0 PUSH2 0xCDA DUP5 DUP3 DUP6 ADD PUSH2 0xCA1 JUMP JUMPDEST SWAP2 POP POP SWAP3 SWAP2 POP POP JUMP JUMPDEST PUSH1 0x0 DUP2 ISZERO ISZERO SWAP1 POP SWAP2 SWAP1 POP JUMP JUMPDEST PUSH2 0xCF8 DUP2 PUSH2 0xCE3 JUMP JUMPDEST DUP3 MSTORE POP POP JUMP JUMPDEST PUSH1 0x0 PUSH1 0x20 DUP3 ADD SWAP1 POP PUSH2 0xD13 PUSH1 0x0 DUP4 ADD DUP5 PUSH2 0xCEF JUMP JUMPDEST SWAP3 SWAP2 POP POP JUMP JUMPDEST PUSH2 0xD22 DUP2 PUSH2 0xC78 JUMP JUMPDEST DUP3 MSTORE POP POP JUMP JUMPDEST PUSH1 0x0 PUSH1 0x20 DUP3 ADD SWAP1 POP PUSH2 0xD3D PUSH1 0x0 DUP4 ADD DUP5 PUSH2 0xD19 JUMP JUMPDEST SWAP3 SWAP2 POP POP JUMP JUMPDEST PUSH1 0x0 PUSH1 0xC0 DUP3 ADD SWAP1 POP PUSH2 0xD58 PUSH1 0x0 DUP4 ADD DUP10 PUSH2 0xD19 JUMP JUMPDEST PUSH2 0xD65 PUSH1 0x20 DUP4 ADD DUP9 PUSH2 0xC2E JUMP JUMPDEST PUSH2 0xD72 PUSH1 0x40 DUP4 ADD DUP8 PUSH2 0xC04 JUMP JUMPDEST PUSH2 0xD7F PUSH1 0x60 DUP4 ADD DUP7 PUSH2 0xC04 JUMP JUMPDEST PUSH2 0xD8C PUSH1 0x80 DUP4 ADD DUP6 PUSH2 0xCEF JUMP JUMPDEST PUSH2 0xD99 PUSH1 0xA0 DUP4 ADD DUP5 PUSH2 0xC04 JUMP JUMPDEST SWAP8 SWAP7 POP POP POP POP POP POP POP JUMP JUMPDEST PUSH1 0x0 DUP3 DUP3 MSTORE PUSH1 0x20 DUP3 ADD SWAP1 POP SWAP3 SWAP2 POP POP JUMP JUMPDEST PUSH32 0x4E6F74206D616E61676572000000000000000000000000000000000000000000 PUSH1 0x0 DUP3 ADD MSTORE POP JUMP JUMPDEST PUSH1 0x0 PUSH2 0xDEB PUSH1 0xB DUP4 PUSH2 0xDA4 JUMP JUMPDEST SWAP2 POP PUSH2 0xDF6 DUP3 PUSH2 0xDB5 JUMP JUMPDEST PUSH1 0x20 DUP3 ADD SWAP1 POP SWAP2 SWAP1 POP JUMP JUMPDEST PUSH1 0x0 PUSH1 0x20 DUP3 ADD SWAP1 POP DUP2 DUP2 SUB PUSH1 0x0 DUP4 ADD MSTORE PUSH2 0xE1A DUP2 PUSH2 0xDDE JUMP JUMPDEST SWAP1 POP SWAP2 SWAP1 POP JUMP JUMPDEST PUSH32 0x416C726561647920636F6D706C65746564000000000000000000000000000000 PUSH1 0x0 DUP3 ADD MSTORE POP JUMP JUMPDEST PUSH1 0x0 PUSH2 0xE57 PUSH1 0x11 DUP4 PUSH2 0xDA4 JUMP JUMPDEST SWAP2 POP PUSH2 0xE62 DUP3 PUSH2 0xE21 JUMP JUMPDEST PUSH1 0x20 DUP3 ADD SWAP1 POP SWAP2 SWAP1 POP JUMP JUMPDEST PUSH1 0x0 PUSH1 0x20 DUP3 ADD SWAP1 POP DUP2 DUP2 SUB PUSH1 0x0 DUP4 ADD MSTORE PUSH2 0xE86 DUP2 PUSH2 0xE4A JUMP JUMPDEST SWAP1 POP SWAP2 SWAP1 POP JUMP JUMPDEST PUSH32 0x4E6F7420656E6465640000000000000000000000000000000000000000000000 PUSH1 0x0 DUP3 ADD MSTORE POP JUMP JUMPDEST PUSH1 0x0 PUSH2 0xEC3 PUSH1 0x9 DUP4 PUSH2 0xDA4 JUMP JUMPDEST SWAP2 POP PUSH2 0xECE DUP3 PUSH2 0xE8D JUMP JUMPDEST PUSH1 0x20 DUP3 ADD SWAP1 POP SWAP2 SWAP1 POP JUMP JUMPDEST PUSH1 0x0 PUSH1 0x20 DUP3 ADD SWAP1 POP DUP2 DUP2 SUB PUSH1 0x0 DUP4 ADD MSTORE PUSH2 0xEF2 DUP2 PUSH2 0xEB6 JUMP JUMPDEST SWAP1 POP SWAP2 SWAP1 POP JUMP JUMPDEST PUSH32 0x4E6F7420616C6C6F776564000000000000000000000000000000000000000000 PUSH1 0x0 DUP3 ADD MSTORE POP JUMP JUMPDEST PUSH1 0x0 PUSH2 0xF2F PUSH1 0xB DUP4 PUSH2 0xDA4 JUMP JUMPDEST SWAP2 POP PUSH2 0xF3A DUP3 PUSH2 0xEF9 JUMP JUMPDEST PUSH1 0x20 DUP3 ADD SWAP1 POP SWAP2 SWAP1 POP JUMP JUMPDEST PUSH1 0x0 PUSH1 0x20 DUP3 ADD SWAP1 POP DUP2 DUP2 SUB PUSH1 0x0 DUP4 ADD MSTORE PUSH2 0xF5E DUP2 PUSH2 0xF22 JUMP JUMPDEST SWAP1 POP SWAP2 SWAP1 POP JUMP JUMPDEST PUSH32 0x416C726561647920766F74656400000000000000000000000000000000000000 PUSH1 0x0 DUP3 ADD MSTORE POP JUMP JUMPDEST PUSH1 0x0 PUSH2 0xF9B PUSH1 0xD DUP4 PUSH2 0xDA4 JUMP JUMPDEST SWAP2 POP PUSH2 0xFA6 DUP3 PUSH2 0xF65 JUMP JUMPDEST PUSH1 0x20 DUP3 ADD SWAP1 POP SWAP2 SWAP1 POP JUMP JUMPDEST PUSH1 0x0 PUSH1 0x20 DUP3 ADD SWAP1 POP DUP2 DUP2 SUB PUSH1 0x0 DUP4 ADD MSTORE PUSH2 0xFCA DUP2 PUSH2 0xF8E JUMP JUMPDEST SWAP1 POP SWAP2 SWAP1 POP JUMP JUMPDEST PUSH32 0x436F6D706C657465640000000000000000000000000000000000000000000000 PUSH1 0x0 DUP3 ADD MSTORE POP JUMP JUMPDEST PUSH1 0x0 PUSH2 0x1007 PUSH1 0x9 DUP4 PUSH2 0xDA4 JUMP JUMPDEST SWAP2 POP PUSH2 0x1012 DUP3 PUSH2 0xFD1 JUMP JUMPDEST PUSH1 0x20 DUP3 ADD SWAP1 POP SWAP2 SWAP1 POP JUMP JUMPDEST PUSH1 0x0 PUSH1 0x20 DUP3 ADD SWAP1 POP DUP2 DUP2 SUB PUSH1 0x0 DUP4 ADD MSTORE PUSH2 0x1036 DUP2 PUSH2 0xFFA JUMP JUMPDEST SWAP1 POP SWAP2 SWAP1 POP JUMP JUMPDEST PUSH32 0x496E76616C69642074696D650000000000000000000000000000000000000000 PUSH1 0x0 DUP3 ADD MSTORE POP JUMP JUMPDEST PUSH1 0x0 PUSH2 0x1073 PUSH1 0xC DUP4 PUSH2 0xDA4 JUMP JUMPDEST SWAP2 POP PUSH2 0x107E DUP3 PUSH2 0x103D JUMP JUMPDEST PUSH1 0x20 DUP3 ADD SWAP1 POP SWAP2 SWAP1 POP JUMP JUMPDEST PUSH1 0x0 PUSH1 0x20 DUP3 ADD SWAP1 POP DUP2 DUP2 SUB PUSH1 0x0 DUP4 ADD MSTORE PUSH2 0x10A2 DUP2 PUSH2 0x1066 JUMP JUMPDEST SWAP1 POP SWAP2 SWAP1 POP JUMP JUMPDEST PUSH32 0x496E76616C69642063686F696365000000000000000000000000000000000000 PUSH1 0x0 DUP3 ADD MSTORE POP JUMP JUMPDEST PUSH1 0x0 PUSH2 0x10DF PUSH1 0xE DUP4 PUSH2 0xDA4 JUMP JUMPDEST SWAP2 POP PUSH2 0x10EA DUP3 PUSH2 0x10A9 JUMP JUMPDEST PUSH1 0x20 DUP3 ADD SWAP1 POP SWAP2 SWAP1 POP JUMP JUMPDEST PUSH1 0x0 PUSH1 0x20 DUP3 ADD SWAP1 POP DUP2 DUP2 SUB PUSH1 0x0 DUP4 ADD MSTORE PUSH2 0x110E DUP2 PUSH2 0x10D2 JUMP JUMPDEST SWAP1 POP SWAP2 SWAP1 POP JUMP JUMPDEST PUSH1 0x0 PUSH1 0x40 DUP3 ADD SWAP1 POP PUSH2 0x112A PUSH1 0x0 DUP4 ADD DUP6 PUSH2 0xD19 JUMP JUMPDEST PUSH2 0x1137 PUSH1 0x20 DUP4 ADD DUP5 PUSH2 0xC2E JUMP JUMPDEST SWAP4 SWAP3 POP POP POP JUMP JUMPDEST PUSH32 0x416C726561647920616464656400000000000000000000000000000000000000 PUSH1 0x0 DUP3 ADD MSTORE POP JUMP JUMPDEST PUSH1 0x0 PUSH2 0x1174 PUSH1 0xD DUP4 PUSH2 0xDA4 JUMP JUMPDEST SWAP2 POP PUSH2 0x117F DUP3 PUSH2 0x113E JUMP JUMPDEST PUSH1 0x20 DUP3 ADD SWAP1 POP SWAP2 SWAP1 POP JUMP JUMPDEST PUSH1 0x0 PUSH1 0x20 DUP3 ADD SWAP1 POP DUP2 DUP2 SUB PUSH1 0x0 DUP4 ADD MSTORE PUSH2 0x11A3 DUP2 PUSH2 0x1167 JUMP JUMPDEST SWAP1 POP SWAP2 SWAP1 POP JUMP INVALID LOG2 PUSH5 0x6970667358 0x22 SLT KECCAK256 MSTORE8 0xC9 DUP7 PUSH26 0xF1E09EF093540915002846D60B78E92E933BDAECE67DAEEE7171 PUSH11 0xD464736F6C634300081200 CALLER LOG2 PUSH5 0x6970667358 0x22 SLT KECCAK256 PUSH25 0xFC0CE1A1123380BBF54A2909C26BA9A15BEDDF09F01F19F61B 0xB2 0x2E 0x21 PUSH13 0x3AAC64736F6C63430008120033 "},"gasEstimates":{"creation":{"codeDepositCost":"1297800","executionCost":"1349","totalCost":"1299149"},"external":{"createVoting(uint8,uint32,uint32)":"infinite","deployedVotings(uint256)":"4956","getDeployedVotings()":"infinite"}},"methodIdentifiers":{"createVoting(uint8,uint32,uint32)":"13f320d1","deployedVotings(uint256)":"298f37ab","getDeployedVotings()":"3e04b578"}},"storageLayout":{"storage":[{"astId":4,"contract":"Voting.sol:VotingFactory","label":"deployedVotings","offset":0,"slot":"0","type":"t_array(t_address)dyn_storage"}],"types":{"t_address":{"encoding":"inplace","label":"address","numberOfBytes":"20"},"t_array(t_address)dyn_storage":{"base":"t_address","encoding":"dynamic_array","label":"address[]","numberOfBytes":"32"}}},"userdoc":{"kind":"user","methods":{},"version":1}}